{
  "_format": "hh-sol-artifact-1",
  "contractName": "PoolToken",
  "sourceName": "contracts/tokens/PoolToken.sol",
  "abi": [
    {
      "inputs": [
        {
          "internalType": "string",
          "name": "_name",
          "type": "string"
        },
        {
          "internalType": "string",
          "name": "_symbol",
          "type": "string"
        },
        {
          "internalType": "uint8",
          "name": "decimals_",
          "type": "uint8"
        }
      ],
      "stateMutability": "nonpayable",
      "type": "constructor"
    },
    {
      "anonymous": false,
      "inputs": [
        {
          "indexed": true,
          "internalType": "address",
          "name": "owner",
          "type": "address"
        },
        {
          "indexed": true,
          "internalType": "address",
          "name": "spender",
          "type": "address"
        },
        {
          "indexed": false,
          "internalType": "uint256",
          "name": "value",
          "type": "uint256"
        }
      ],
      "name": "Approval",
      "type": "event"
    },
    {
      "anonymous": false,
      "inputs": [
        {
          "indexed": true,
          "internalType": "address",
          "name": "previousOwner",
          "type": "address"
        },
        {
          "indexed": true,
          "internalType": "address",
          "name": "newOwner",
          "type": "address"
        }
      ],
      "name": "OwnershipTransferred",
      "type": "event"
    },
    {
      "anonymous": false,
      "inputs": [
        {
          "indexed": true,
          "internalType": "address",
          "name": "from",
          "type": "address"
        },
        {
          "indexed": true,
          "internalType": "address",
          "name": "to",
          "type": "address"
        },
        {
          "indexed": false,
          "internalType": "uint256",
          "name": "value",
          "type": "uint256"
        }
      ],
      "name": "Transfer",
      "type": "event"
    },
    {
      "inputs": [
        {
          "internalType": "address",
          "name": "owner",
          "type": "address"
        },
        {
          "internalType": "address",
          "name": "spender",
          "type": "address"
        }
      ],
      "name": "allowance",
      "outputs": [
        {
          "internalType": "uint256",
          "name": "",
          "type": "uint256"
        }
      ],
      "stateMutability": "view",
      "type": "function"
    },
    {
      "inputs": [
        {
          "internalType": "address",
          "name": "spender",
          "type": "address"
        },
        {
          "internalType": "uint256",
          "name": "amount",
          "type": "uint256"
        }
      ],
      "name": "approve",
      "outputs": [
        {
          "internalType": "bool",
          "name": "",
          "type": "bool"
        }
      ],
      "stateMutability": "nonpayable",
      "type": "function"
    },
    {
      "inputs": [
        {
          "internalType": "address",
          "name": "account",
          "type": "address"
        }
      ],
      "name": "balanceOf",
      "outputs": [
        {
          "internalType": "uint256",
          "name": "",
          "type": "uint256"
        }
      ],
      "stateMutability": "view",
      "type": "function"
    },
    {
      "inputs": [
        {
          "internalType": "address",
          "name": "account",
          "type": "address"
        }
      ],
      "name": "burn",
      "outputs": [],
      "stateMutability": "nonpayable",
      "type": "function"
    },
    {
      "inputs": [],
      "name": "decimals",
      "outputs": [
        {
          "internalType": "uint8",
          "name": "",
          "type": "uint8"
        }
      ],
      "stateMutability": "view",
      "type": "function"
    },
    {
      "inputs": [
        {
          "internalType": "address",
          "name": "spender",
          "type": "address"
        },
        {
          "internalType": "uint256",
          "name": "subtractedValue",
          "type": "uint256"
        }
      ],
      "name": "decreaseAllowance",
      "outputs": [
        {
          "internalType": "bool",
          "name": "",
          "type": "bool"
        }
      ],
      "stateMutability": "nonpayable",
      "type": "function"
    },
    {
      "inputs": [
        {
          "internalType": "address",
          "name": "spender",
          "type": "address"
        },
        {
          "internalType": "uint256",
          "name": "addedValue",
          "type": "uint256"
        }
      ],
      "name": "increaseAllowance",
      "outputs": [
        {
          "internalType": "bool",
          "name": "",
          "type": "bool"
        }
      ],
      "stateMutability": "nonpayable",
      "type": "function"
    },
    {
      "inputs": [],
      "name": "initialSupply",
      "outputs": [
        {
          "internalType": "uint256",
          "name": "",
          "type": "uint256"
        }
      ],
      "stateMutability": "view",
      "type": "function"
    },
    {
      "inputs": [
        {
          "internalType": "uint256",
          "name": "amount",
          "type": "uint256"
        },
        {
          "internalType": "address",
          "name": "staker",
          "type": "address"
        }
      ],
      "name": "mint",
      "outputs": [],
      "stateMutability": "nonpayable",
      "type": "function"
    },
    {
      "inputs": [],
      "name": "name",
      "outputs": [
        {
          "internalType": "string",
          "name": "",
          "type": "string"
        }
      ],
      "stateMutability": "view",
      "type": "function"
    },
    {
      "inputs": [],
      "name": "owner",
      "outputs": [
        {
          "internalType": "address",
          "name": "",
          "type": "address"
        }
      ],
      "stateMutability": "view",
      "type": "function"
    },
    {
      "inputs": [],
      "name": "renounceOwnership",
      "outputs": [],
      "stateMutability": "nonpayable",
      "type": "function"
    },
    {
      "inputs": [],
      "name": "symbol",
      "outputs": [
        {
          "internalType": "string",
          "name": "",
          "type": "string"
        }
      ],
      "stateMutability": "view",
      "type": "function"
    },
    {
      "inputs": [],
      "name": "totalSupply",
      "outputs": [
        {
          "internalType": "uint256",
          "name": "",
          "type": "uint256"
        }
      ],
      "stateMutability": "view",
      "type": "function"
    },
    {
      "inputs": [
        {
          "internalType": "address",
          "name": "to",
          "type": "address"
        },
        {
          "internalType": "uint256",
          "name": "amount",
          "type": "uint256"
        }
      ],
      "name": "transfer",
      "outputs": [
        {
          "internalType": "bool",
          "name": "",
          "type": "bool"
        }
      ],
      "stateMutability": "nonpayable",
      "type": "function"
    },
    {
      "inputs": [
        {
          "internalType": "address",
          "name": "from",
          "type": "address"
        },
        {
          "internalType": "address",
          "name": "to",
          "type": "address"
        },
        {
          "internalType": "uint256",
          "name": "amount",
          "type": "uint256"
        }
      ],
      "name": "transferFrom",
      "outputs": [
        {
          "internalType": "bool",
          "name": "",
          "type": "bool"
        }
      ],
      "stateMutability": "nonpayable",
      "type": "function"
    },
    {
      "inputs": [
        {
          "internalType": "address",
          "name": "newOwner",
          "type": "address"
        }
      ],
      "name": "transferOwnership",
      "outputs": [],
      "stateMutability": "nonpayable",
      "type": "function"
    }
  ],
  "bytecode": "0x60a06040523480156200001157600080fd5b5060405162000fdd38038062000fdd833981016040819052620000349162000264565b8251839083906200004d906003906020850190620000f1565b50805162000063906004906020840190620000f1565b505050620000806200007a6200009b60201b60201c565b6200009f565b60ff811660805262000092336200009f565b50505062000326565b3390565b600580546001600160a01b038381166001600160a01b0319831681179093556040519116919082907f8be0079c531659141344cd1fd0a4f28419497f9722a3daafe3b4186f6b6457e090600090a35050565b828054620000ff90620002e9565b90600052602060002090601f0160209004810192826200012357600085556200016e565b82601f106200013e57805160ff19168380011785556200016e565b828001600101855582156200016e579182015b828111156200016e57825182559160200191906001019062000151565b506200017c92915062000180565b5090565b5b808211156200017c576000815560010162000181565b634e487b7160e01b600052604160045260246000fd5b600082601f830112620001bf57600080fd5b81516001600160401b0380821115620001dc57620001dc62000197565b604051601f8301601f19908116603f0116810190828211818310171562000207576200020762000197565b816040528381526020925086838588010111156200022457600080fd5b600091505b8382101562000248578582018301518183018401529082019062000229565b838211156200025a5760008385830101525b9695505050505050565b6000806000606084860312156200027a57600080fd5b83516001600160401b03808211156200029257600080fd5b620002a087838801620001ad565b94506020860151915080821115620002b757600080fd5b50620002c686828701620001ad565b925050604084015160ff81168114620002de57600080fd5b809150509250925092565b600181811c90821680620002fe57607f821691505b602082108114156200032057634e487b7160e01b600052602260045260246000fd5b50919050565b608051610c9b62000342600039600061017d0152610c9b6000f3fe608060405234801561001057600080fd5b506004361061010b5760003560e01c8063715018a6116100a257806395d89b411161007157806395d89b411461023f578063a457c2d714610247578063a9059cbb1461025a578063dd62ed3e1461026d578063f2fde38b146102a657600080fd5b8063715018a6146101f457806389afcb44146101fe5780638da5cb5b1461021157806394bf804d1461022c57600080fd5b8063313ce567116100de578063313ce56714610176578063378dc3dc146101a757806339509351146101b857806370a08231146101cb57600080fd5b806306fdde0314610110578063095ea7b31461012e57806318160ddd1461015157806323b872dd14610163575b600080fd5b6101186102b9565b6040516101259190610a80565b60405180910390f35b61014161013c366004610af1565b61034b565b6040519015158152602001610125565b6002545b604051908152602001610125565b610141610171366004610b1b565b610363565b60405160ff7f0000000000000000000000000000000000000000000000000000000000000000168152602001610125565b61015569043c33c193756480000081565b6101416101c6366004610af1565b610387565b6101556101d9366004610b57565b6001600160a01b031660009081526020819052604090205490565b6101fc6103c6565b005b6101fc61020c366004610b57565b610405565b6005546040516001600160a01b039091168152602001610125565b6101fc61023a366004610b79565b610449565b610118610481565b610141610255366004610af1565b610490565b610141610268366004610af1565b610522565b61015561027b366004610ba5565b6001600160a01b03918216600090815260016020908152604080832093909416825291909152205490565b6101fc6102b4366004610b57565b610530565b6060600380546102c890610bcf565b80601f01602080910402602001604051908101604052809291908181526020018280546102f490610bcf565b80156103415780601f1061031657610100808354040283529160200191610341565b820191906000526020600020905b81548152906001019060200180831161032457829003601f168201915b5050505050905090565b6000336103598185856105cb565b5060019392505050565b6000336103718582856106ef565b61037c858585610781565b506001949350505050565b3360008181526001602090815260408083206001600160a01b038716845290915281205490919061035990829086906103c1908790610c0a565b6105cb565b6005546001600160a01b031633146103f95760405162461bcd60e51b81526004016103f090610c30565b60405180910390fd5b610403600061094f565b565b6005546001600160a01b0316331461042f5760405162461bcd60e51b81526004016103f090610c30565b6001600160a01b0316600090815260066020526040812055565b6005546001600160a01b031633146104735760405162461bcd60e51b81526004016103f090610c30565b61047d33836109a1565b5050565b6060600480546102c890610bcf565b3360008181526001602090815260408083206001600160a01b0387168452909152812054909190838110156105155760405162461bcd60e51b815260206004820152602560248201527f45524332303a2064656372656173656420616c6c6f77616e63652062656c6f77604482015264207a65726f60d81b60648201526084016103f0565b61037c82868684036105cb565b600033610359818585610781565b6005546001600160a01b0316331461055a5760405162461bcd60e51b81526004016103f090610c30565b6001600160a01b0381166105bf5760405162461bcd60e51b815260206004820152602660248201527f4f776e61626c653a206e6577206f776e657220697320746865207a65726f206160448201526564647265737360d01b60648201526084016103f0565b6105c88161094f565b50565b6001600160a01b03831661062d5760405162461bcd60e51b8152602060048201526024808201527f45524332303a20617070726f76652066726f6d20746865207a65726f206164646044820152637265737360e01b60648201526084016103f0565b6001600160a01b03821661068e5760405162461bcd60e51b815260206004820152602260248201527f45524332303a20617070726f766520746f20746865207a65726f206164647265604482015261737360f01b60648201526084016103f0565b6001600160a01b0383811660008181526001602090815260408083209487168084529482529182902085905590518481527f8c5be1e5ebec7d5bd14f71427d1e84f3dd0314c0f7b2291e5b200ac8c7c3b925910160405180910390a3505050565b6001600160a01b03838116600090815260016020908152604080832093861683529290522054600019811461077b578181101561076e5760405162461bcd60e51b815260206004820152601d60248201527f45524332303a20696e73756666696369656e7420616c6c6f77616e636500000060448201526064016103f0565b61077b84848484036105cb565b50505050565b6001600160a01b0383166107e55760405162461bcd60e51b815260206004820152602560248201527f45524332303a207472616e736665722066726f6d20746865207a65726f206164604482015264647265737360d81b60648201526084016103f0565b6001600160a01b0382166108475760405162461bcd60e51b815260206004820152602360248201527f45524332303a207472616e7366657220746f20746865207a65726f206164647260448201526265737360e81b60648201526084016103f0565b6001600160a01b038316600090815260208190526040902054818110156108bf5760405162461bcd60e51b815260206004820152602660248201527f45524332303a207472616e7366657220616d6f756e7420657863656564732062604482015265616c616e636560d01b60648201526084016103f0565b6001600160a01b038085166000908152602081905260408082208585039055918516815290812080548492906108f6908490610c0a565b92505081905550826001600160a01b0316846001600160a01b03167fddf252ad1be2c89b69c2b068fc378daa952ba7f163c4a11628f55a4df523b3ef8460405161094291815260200190565b60405180910390a361077b565b600580546001600160a01b038381166001600160a01b0319831681179093556040519116919082907f8be0079c531659141344cd1fd0a4f28419497f9722a3daafe3b4186f6b6457e090600090a35050565b6001600160a01b0382166109f75760405162461bcd60e51b815260206004820152601f60248201527f45524332303a206d696e7420746f20746865207a65726f20616464726573730060448201526064016103f0565b8060026000828254610a099190610c0a565b90915550506001600160a01b03821660009081526020819052604081208054839290610a36908490610c0a565b90915550506040518181526001600160a01b038316906000907fddf252ad1be2c89b69c2b068fc378daa952ba7f163c4a11628f55a4df523b3ef9060200160405180910390a35050565b600060208083528351808285015260005b81811015610aad57858101830151858201604001528201610a91565b81811115610abf576000604083870101525b50601f01601f1916929092016040019392505050565b80356001600160a01b0381168114610aec57600080fd5b919050565b60008060408385031215610b0457600080fd5b610b0d83610ad5565b946020939093013593505050565b600080600060608486031215610b3057600080fd5b610b3984610ad5565b9250610b4760208501610ad5565b9150604084013590509250925092565b600060208284031215610b6957600080fd5b610b7282610ad5565b9392505050565b60008060408385031215610b8c57600080fd5b82359150610b9c60208401610ad5565b90509250929050565b60008060408385031215610bb857600080fd5b610bc183610ad5565b9150610b9c60208401610ad5565b600181811c90821680610be357607f821691505b60208210811415610c0457634e487b7160e01b600052602260045260246000fd5b50919050565b60008219821115610c2b57634e487b7160e01b600052601160045260246000fd5b500190565b6020808252818101527f4f776e61626c653a2063616c6c6572206973206e6f7420746865206f776e657260408201526060019056fea26469706673582212207d394703cf52ee7efb561bea70ba40dcb4a02d27c90be29094a3f51bac220a6b64736f6c63430008090033",
  "linkReferences": {},
  "deployedLinkReferences": {}
}