{
  "_format": "hh-sol-artifact-1",
  "contractName": "D2DToken",
  "sourceName": "contracts/tokens/D2DToken.sol",
  "abi": [
    {
      "inputs": [
        {
          "internalType": "uint8",
          "name": "decimals_",
          "type": "uint8"
        }
      ],
      "stateMutability": "nonpayable",
      "type": "constructor"
    },
    {
      "anonymous": false,
      "inputs": [
        {
          "indexed": true,
          "internalType": "address",
          "name": "owner",
          "type": "address"
        },
        {
          "indexed": true,
          "internalType": "address",
          "name": "spender",
          "type": "address"
        },
        {
          "indexed": false,
          "internalType": "uint256",
          "name": "value",
          "type": "uint256"
        }
      ],
      "name": "Approval",
      "type": "event"
    },
    {
      "anonymous": false,
      "inputs": [
        {
          "indexed": true,
          "internalType": "address",
          "name": "previousOwner",
          "type": "address"
        },
        {
          "indexed": true,
          "internalType": "address",
          "name": "newOwner",
          "type": "address"
        }
      ],
      "name": "OwnershipTransferred",
      "type": "event"
    },
    {
      "anonymous": false,
      "inputs": [
        {
          "indexed": true,
          "internalType": "address",
          "name": "from",
          "type": "address"
        },
        {
          "indexed": true,
          "internalType": "address",
          "name": "to",
          "type": "address"
        },
        {
          "indexed": false,
          "internalType": "uint256",
          "name": "value",
          "type": "uint256"
        }
      ],
      "name": "Transfer",
      "type": "event"
    },
    {
      "inputs": [
        {
          "internalType": "address",
          "name": "owner",
          "type": "address"
        },
        {
          "internalType": "address",
          "name": "spender",
          "type": "address"
        }
      ],
      "name": "allowance",
      "outputs": [
        {
          "internalType": "uint256",
          "name": "",
          "type": "uint256"
        }
      ],
      "stateMutability": "view",
      "type": "function"
    },
    {
      "inputs": [
        {
          "internalType": "address",
          "name": "spender",
          "type": "address"
        },
        {
          "internalType": "uint256",
          "name": "amount",
          "type": "uint256"
        }
      ],
      "name": "approve",
      "outputs": [
        {
          "internalType": "bool",
          "name": "",
          "type": "bool"
        }
      ],
      "stateMutability": "nonpayable",
      "type": "function"
    },
    {
      "inputs": [
        {
          "internalType": "address",
          "name": "account",
          "type": "address"
        }
      ],
      "name": "balanceOf",
      "outputs": [
        {
          "internalType": "uint256",
          "name": "",
          "type": "uint256"
        }
      ],
      "stateMutability": "view",
      "type": "function"
    },
    {
      "inputs": [
        {
          "internalType": "address",
          "name": "account",
          "type": "address"
        }
      ],
      "name": "burn",
      "outputs": [],
      "stateMutability": "nonpayable",
      "type": "function"
    },
    {
      "inputs": [],
      "name": "decimals",
      "outputs": [
        {
          "internalType": "uint8",
          "name": "",
          "type": "uint8"
        }
      ],
      "stateMutability": "view",
      "type": "function"
    },
    {
      "inputs": [
        {
          "internalType": "address",
          "name": "spender",
          "type": "address"
        },
        {
          "internalType": "uint256",
          "name": "subtractedValue",
          "type": "uint256"
        }
      ],
      "name": "decreaseAllowance",
      "outputs": [
        {
          "internalType": "bool",
          "name": "",
          "type": "bool"
        }
      ],
      "stateMutability": "nonpayable",
      "type": "function"
    },
    {
      "inputs": [
        {
          "internalType": "address",
          "name": "spender",
          "type": "address"
        },
        {
          "internalType": "uint256",
          "name": "addedValue",
          "type": "uint256"
        }
      ],
      "name": "increaseAllowance",
      "outputs": [
        {
          "internalType": "bool",
          "name": "",
          "type": "bool"
        }
      ],
      "stateMutability": "nonpayable",
      "type": "function"
    },
    {
      "inputs": [],
      "name": "initialSupply",
      "outputs": [
        {
          "internalType": "uint256",
          "name": "",
          "type": "uint256"
        }
      ],
      "stateMutability": "view",
      "type": "function"
    },
    {
      "inputs": [
        {
          "internalType": "uint256",
          "name": "amount",
          "type": "uint256"
        }
      ],
      "name": "mint",
      "outputs": [],
      "stateMutability": "nonpayable",
      "type": "function"
    },
    {
      "inputs": [],
      "name": "name",
      "outputs": [
        {
          "internalType": "string",
          "name": "",
          "type": "string"
        }
      ],
      "stateMutability": "view",
      "type": "function"
    },
    {
      "inputs": [],
      "name": "owner",
      "outputs": [
        {
          "internalType": "address",
          "name": "",
          "type": "address"
        }
      ],
      "stateMutability": "view",
      "type": "function"
    },
    {
      "inputs": [],
      "name": "renounceOwnership",
      "outputs": [],
      "stateMutability": "nonpayable",
      "type": "function"
    },
    {
      "inputs": [],
      "name": "symbol",
      "outputs": [
        {
          "internalType": "string",
          "name": "",
          "type": "string"
        }
      ],
      "stateMutability": "view",
      "type": "function"
    },
    {
      "inputs": [],
      "name": "totalSupply",
      "outputs": [
        {
          "internalType": "uint256",
          "name": "",
          "type": "uint256"
        }
      ],
      "stateMutability": "view",
      "type": "function"
    },
    {
      "inputs": [
        {
          "internalType": "address",
          "name": "to",
          "type": "address"
        },
        {
          "internalType": "uint256",
          "name": "amount",
          "type": "uint256"
        }
      ],
      "name": "transfer",
      "outputs": [
        {
          "internalType": "bool",
          "name": "",
          "type": "bool"
        }
      ],
      "stateMutability": "nonpayable",
      "type": "function"
    },
    {
      "inputs": [
        {
          "internalType": "address",
          "name": "from",
          "type": "address"
        },
        {
          "internalType": "address",
          "name": "to",
          "type": "address"
        },
        {
          "internalType": "uint256",
          "name": "amount",
          "type": "uint256"
        }
      ],
      "name": "transferFrom",
      "outputs": [
        {
          "internalType": "bool",
          "name": "",
          "type": "bool"
        }
      ],
      "stateMutability": "nonpayable",
      "type": "function"
    },
    {
      "inputs": [
        {
          "internalType": "address",
          "name": "newOwner",
          "type": "address"
        }
      ],
      "name": "transferOwnership",
      "outputs": [],
      "stateMutability": "nonpayable",
      "type": "function"
    }
  ],
  "bytecode": "0x60a06040523480156200001157600080fd5b506040516200100a3803806200100a8339810160408190526200003491620002c9565b6040805180820182526009815268221922102a37b5b2b760b91b602080830191825283518085019094526006845265110c9110905360d21b908401528151919291620000839160039162000223565b5080516200009990600490602084019062000223565b505050620000b6620000b0620000e560201b60201c565b620000e9565b620000cc3369043c33c19375648000006200013b565b60ff8116608052620000de33620000e9565b5062000359565b3390565b600580546001600160a01b038381166001600160a01b0319831681179093556040519116919082907f8be0079c531659141344cd1fd0a4f28419497f9722a3daafe3b4186f6b6457e090600090a35050565b6001600160a01b038216620001965760405162461bcd60e51b815260206004820152601f60248201527f45524332303a206d696e7420746f20746865207a65726f206164647265737300604482015260640160405180910390fd5b8060026000828254620001aa9190620002f5565b90915550506001600160a01b03821660009081526020819052604081208054839290620001d9908490620002f5565b90915550506040518181526001600160a01b038316906000907fddf252ad1be2c89b69c2b068fc378daa952ba7f163c4a11628f55a4df523b3ef9060200160405180910390a35050565b82805462000231906200031c565b90600052602060002090601f016020900481019282620002555760008555620002a0565b82601f106200027057805160ff1916838001178555620002a0565b82800160010185558215620002a0579182015b82811115620002a057825182559160200191906001019062000283565b50620002ae929150620002b2565b5090565b5b80821115620002ae5760008155600101620002b3565b600060208284031215620002dc57600080fd5b815160ff81168114620002ee57600080fd5b9392505050565b600082198211156200031757634e487b7160e01b600052601160045260246000fd5b500190565b600181811c908216806200033157607f821691505b602082108114156200035357634e487b7160e01b600052602260045260246000fd5b50919050565b608051610c9562000375600039600061017d0152610c956000f3fe608060405234801561001057600080fd5b506004361061010b5760003560e01c8063715018a6116100a2578063a0712d6811610071578063a0712d6814610234578063a457c2d714610247578063a9059cbb1461025a578063dd62ed3e1461026d578063f2fde38b146102a657600080fd5b8063715018a6146101f457806389afcb44146101fe5780638da5cb5b1461021157806395d89b411461022c57600080fd5b8063313ce567116100de578063313ce56714610176578063378dc3dc146101a757806339509351146101b857806370a08231146101cb57600080fd5b806306fdde0314610110578063095ea7b31461012e57806318160ddd1461015157806323b872dd14610163575b600080fd5b6101186102b9565b6040516101259190610a84565b60405180910390f35b61014161013c366004610af5565b61034b565b6040519015158152602001610125565b6002545b604051908152602001610125565b610141610171366004610b1f565b610361565b60405160ff7f0000000000000000000000000000000000000000000000000000000000000000168152602001610125565b61015569043c33c193756480000081565b6101416101c6366004610af5565b610385565b6101556101d9366004610b5b565b6001600160a01b031660009081526020819052604090205490565b6101fc6103ce565b005b6101fc61020c366004610b5b565b61040d565b6005546040516001600160a01b039091168152602001610125565b610118610451565b6101fc610242366004610b7d565b610460565b610141610255366004610af5565b610497565b610141610268366004610af5565b610529565b61015561027b366004610b96565b6001600160a01b03918216600090815260016020908152604080832093909416825291909152205490565b6101fc6102b4366004610b5b565b610537565b6060600380546102c890610bc9565b80601f01602080910402602001604051908101604052809291908181526020018280546102f490610bc9565b80156103415780601f1061031657610100808354040283529160200191610341565b820191906000526020600020905b81548152906001019060200180831161032457829003601f168201915b5050505050905090565b60006103583384846105cf565b50600192915050565b60003361036f8582856106f3565b61037a858585610785565b506001949350505050565b3360008181526001602090815260408083206001600160a01b03871684529091528120549091906103c490829086906103bf908790610c04565b6105cf565b5060019392505050565b6005546001600160a01b031633146104015760405162461bcd60e51b81526004016103f890610c2a565b60405180910390fd5b61040b6000610953565b565b6005546001600160a01b031633146104375760405162461bcd60e51b81526004016103f890610c2a565b6001600160a01b0316600090815260066020526040812055565b6060600480546102c890610bc9565b6005546001600160a01b0316331461048a5760405162461bcd60e51b81526004016103f890610c2a565b61049433826109a5565b50565b3360008181526001602090815260408083206001600160a01b03871684529091528120549091908381101561051c5760405162461bcd60e51b815260206004820152602560248201527f45524332303a2064656372656173656420616c6c6f77616e63652062656c6f77604482015264207a65726f60d81b60648201526084016103f8565b61037a82868684036105cf565b6000336103c4818585610785565b6005546001600160a01b031633146105615760405162461bcd60e51b81526004016103f890610c2a565b6001600160a01b0381166105c65760405162461bcd60e51b815260206004820152602660248201527f4f776e61626c653a206e6577206f776e657220697320746865207a65726f206160448201526564647265737360d01b60648201526084016103f8565b61049481610953565b6001600160a01b0383166106315760405162461bcd60e51b8152602060048201526024808201527f45524332303a20617070726f76652066726f6d20746865207a65726f206164646044820152637265737360e01b60648201526084016103f8565b6001600160a01b0382166106925760405162461bcd60e51b815260206004820152602260248201527f45524332303a20617070726f766520746f20746865207a65726f206164647265604482015261737360f01b60648201526084016103f8565b6001600160a01b0383811660008181526001602090815260408083209487168084529482529182902085905590518481527f8c5be1e5ebec7d5bd14f71427d1e84f3dd0314c0f7b2291e5b200ac8c7c3b925910160405180910390a3505050565b6001600160a01b03838116600090815260016020908152604080832093861683529290522054600019811461077f57818110156107725760405162461bcd60e51b815260206004820152601d60248201527f45524332303a20696e73756666696369656e7420616c6c6f77616e636500000060448201526064016103f8565b61077f84848484036105cf565b50505050565b6001600160a01b0383166107e95760405162461bcd60e51b815260206004820152602560248201527f45524332303a207472616e736665722066726f6d20746865207a65726f206164604482015264647265737360d81b60648201526084016103f8565b6001600160a01b03821661084b5760405162461bcd60e51b815260206004820152602360248201527f45524332303a207472616e7366657220746f20746865207a65726f206164647260448201526265737360e81b60648201526084016103f8565b6001600160a01b038316600090815260208190526040902054818110156108c35760405162461bcd60e51b815260206004820152602660248201527f45524332303a207472616e7366657220616d6f756e7420657863656564732062604482015265616c616e636560d01b60648201526084016103f8565b6001600160a01b038085166000908152602081905260408082208585039055918516815290812080548492906108fa908490610c04565b92505081905550826001600160a01b0316846001600160a01b03167fddf252ad1be2c89b69c2b068fc378daa952ba7f163c4a11628f55a4df523b3ef8460405161094691815260200190565b60405180910390a361077f565b600580546001600160a01b038381166001600160a01b0319831681179093556040519116919082907f8be0079c531659141344cd1fd0a4f28419497f9722a3daafe3b4186f6b6457e090600090a35050565b6001600160a01b0382166109fb5760405162461bcd60e51b815260206004820152601f60248201527f45524332303a206d696e7420746f20746865207a65726f20616464726573730060448201526064016103f8565b8060026000828254610a0d9190610c04565b90915550506001600160a01b03821660009081526020819052604081208054839290610a3a908490610c04565b90915550506040518181526001600160a01b038316906000907fddf252ad1be2c89b69c2b068fc378daa952ba7f163c4a11628f55a4df523b3ef9060200160405180910390a35050565b600060208083528351808285015260005b81811015610ab157858101830151858201604001528201610a95565b81811115610ac3576000604083870101525b50601f01601f1916929092016040019392505050565b80356001600160a01b0381168114610af057600080fd5b919050565b60008060408385031215610b0857600080fd5b610b1183610ad9565b946020939093013593505050565b600080600060608486031215610b3457600080fd5b610b3d84610ad9565b9250610b4b60208501610ad9565b9150604084013590509250925092565b600060208284031215610b6d57600080fd5b610b7682610ad9565b9392505050565b600060208284031215610b8f57600080fd5b5035919050565b60008060408385031215610ba957600080fd5b610bb283610ad9565b9150610bc060208401610ad9565b90509250929050565b600181811c90821680610bdd57607f821691505b60208210811415610bfe57634e487b7160e01b600052602260045260246000fd5b50919050565b60008219821115610c2557634e487b7160e01b600052601160045260246000fd5b500190565b6020808252818101527f4f776e61626c653a2063616c6c6572206973206e6f7420746865206f776e657260408201526060019056fea2646970667358221220319fc79796dd901bb6cc393c002675dd99b26d39ae15c8ae62a3b648a41cdce564736f6c63430008090033",
  "linkReferences": {},
  "deployedLinkReferences": {}
}