{
  "_format": "hh-sol-artifact-1",
  "contractName": "ERC20Mock",
  "sourceName": "contracts/ERC20Mock.sol",
  "abi": [
    {
      "inputs": [],
      "stateMutability": "nonpayable",
      "type": "constructor"
    },
    {
      "anonymous": false,
      "inputs": [
        {
          "indexed": true,
          "internalType": "address",
          "name": "owner",
          "type": "address"
        },
        {
          "indexed": true,
          "internalType": "address",
          "name": "spender",
          "type": "address"
        },
        {
          "indexed": false,
          "internalType": "uint256",
          "name": "value",
          "type": "uint256"
        }
      ],
      "name": "Approval",
      "type": "event"
    },
    {
      "anonymous": false,
      "inputs": [
        {
          "indexed": true,
          "internalType": "address",
          "name": "from",
          "type": "address"
        },
        {
          "indexed": true,
          "internalType": "address",
          "name": "to",
          "type": "address"
        },
        {
          "indexed": false,
          "internalType": "uint256",
          "name": "value",
          "type": "uint256"
        }
      ],
      "name": "Transfer",
      "type": "event"
    },
    {
      "inputs": [
        {
          "internalType": "address",
          "name": "owner",
          "type": "address"
        },
        {
          "internalType": "address",
          "name": "spender",
          "type": "address"
        }
      ],
      "name": "allowance",
      "outputs": [
        {
          "internalType": "uint256",
          "name": "",
          "type": "uint256"
        }
      ],
      "stateMutability": "view",
      "type": "function"
    },
    {
      "inputs": [
        {
          "internalType": "address",
          "name": "spender",
          "type": "address"
        },
        {
          "internalType": "uint256",
          "name": "amount",
          "type": "uint256"
        }
      ],
      "name": "approve",
      "outputs": [
        {
          "internalType": "bool",
          "name": "",
          "type": "bool"
        }
      ],
      "stateMutability": "nonpayable",
      "type": "function"
    },
    {
      "inputs": [
        {
          "internalType": "address",
          "name": "account",
          "type": "address"
        }
      ],
      "name": "balanceOf",
      "outputs": [
        {
          "internalType": "uint256",
          "name": "",
          "type": "uint256"
        }
      ],
      "stateMutability": "view",
      "type": "function"
    },
    {
      "inputs": [],
      "name": "decimals",
      "outputs": [
        {
          "internalType": "uint8",
          "name": "",
          "type": "uint8"
        }
      ],
      "stateMutability": "view",
      "type": "function"
    },
    {
      "inputs": [
        {
          "internalType": "address",
          "name": "spender",
          "type": "address"
        },
        {
          "internalType": "uint256",
          "name": "subtractedValue",
          "type": "uint256"
        }
      ],
      "name": "decreaseAllowance",
      "outputs": [
        {
          "internalType": "bool",
          "name": "",
          "type": "bool"
        }
      ],
      "stateMutability": "nonpayable",
      "type": "function"
    },
    {
      "inputs": [
        {
          "internalType": "address",
          "name": "spender",
          "type": "address"
        },
        {
          "internalType": "uint256",
          "name": "addedValue",
          "type": "uint256"
        }
      ],
      "name": "increaseAllowance",
      "outputs": [
        {
          "internalType": "bool",
          "name": "",
          "type": "bool"
        }
      ],
      "stateMutability": "nonpayable",
      "type": "function"
    },
    {
      "inputs": [],
      "name": "name",
      "outputs": [
        {
          "internalType": "string",
          "name": "",
          "type": "string"
        }
      ],
      "stateMutability": "view",
      "type": "function"
    },
    {
      "inputs": [],
      "name": "owner",
      "outputs": [
        {
          "internalType": "address",
          "name": "",
          "type": "address"
        }
      ],
      "stateMutability": "view",
      "type": "function"
    },
    {
      "inputs": [],
      "name": "symbol",
      "outputs": [
        {
          "internalType": "string",
          "name": "",
          "type": "string"
        }
      ],
      "stateMutability": "view",
      "type": "function"
    },
    {
      "inputs": [],
      "name": "totalSupply",
      "outputs": [
        {
          "internalType": "uint256",
          "name": "",
          "type": "uint256"
        }
      ],
      "stateMutability": "view",
      "type": "function"
    },
    {
      "inputs": [
        {
          "internalType": "address",
          "name": "to",
          "type": "address"
        },
        {
          "internalType": "uint256",
          "name": "amount",
          "type": "uint256"
        }
      ],
      "name": "transfer",
      "outputs": [
        {
          "internalType": "bool",
          "name": "",
          "type": "bool"
        }
      ],
      "stateMutability": "nonpayable",
      "type": "function"
    },
    {
      "inputs": [
        {
          "internalType": "address",
          "name": "from",
          "type": "address"
        },
        {
          "internalType": "address",
          "name": "to",
          "type": "address"
        },
        {
          "internalType": "uint256",
          "name": "amount",
          "type": "uint256"
        }
      ],
      "name": "transferFrom",
      "outputs": [
        {
          "internalType": "bool",
          "name": "",
          "type": "bool"
        }
      ],
      "stateMutability": "nonpayable",
      "type": "function"
    }
  ],
  "bytecode": "0x60806040523480156200001157600080fd5b50604080518082019091526006808252652a27a7a5a2a760d11b60209092019182526200004191600391620001a2565b50604080518082019091526003808252622a25a760e91b60209092019182526200006e91600491620001a2565b50600580546001600160a01b03191633908117909155620000b49062000092601290565b6200009f90600a6200035d565b620000ae906207a12062000375565b620000ba565b620003ee565b6001600160a01b038216620001155760405162461bcd60e51b815260206004820152601f60248201527f45524332303a206d696e7420746f20746865207a65726f206164647265737300604482015260640160405180910390fd5b806002600082825462000129919062000397565b90915550506001600160a01b038216600090815260208190526040812080548392906200015890849062000397565b90915550506040518181526001600160a01b038316906000907fddf252ad1be2c89b69c2b068fc378daa952ba7f163c4a11628f55a4df523b3ef9060200160405180910390a35050565b828054620001b090620003b2565b90600052602060002090601f016020900481019282620001d457600085556200021f565b82601f10620001ef57805160ff19168380011785556200021f565b828001600101855582156200021f579182015b828111156200021f57825182559160200191906001019062000202565b506200022d92915062000231565b5090565b5b808211156200022d576000815560010162000232565b634e487b7160e01b600052601160045260246000fd5b600181815b808511156200029f57816000190482111562000283576200028362000248565b808516156200029157918102915b93841c939080029062000263565b509250929050565b600082620002b85750600162000357565b81620002c75750600062000357565b8160018114620002e05760028114620002eb576200030b565b600191505062000357565b60ff841115620002ff57620002ff62000248565b50506001821b62000357565b5060208310610133831016604e8410600b841016171562000330575081810a62000357565b6200033c83836200025e565b806000190482111562000353576200035362000248565b0290505b92915050565b60006200036e60ff841683620002a7565b9392505050565b600081600019048311821515161562000392576200039262000248565b500290565b60008219821115620003ad57620003ad62000248565b500190565b600181811c90821680620003c757607f821691505b602082108103620003e857634e487b7160e01b600052602260045260246000fd5b50919050565b6108bc80620003fe6000396000f3fe608060405234801561001057600080fd5b50600436106100b45760003560e01c806370a082311161007157806370a08231146101415780638da5cb5b1461016a57806395d89b4114610195578063a457c2d71461019d578063a9059cbb146101b0578063dd62ed3e146101c357600080fd5b806306fdde03146100b9578063095ea7b3146100d757806318160ddd146100fa57806323b872dd1461010c578063313ce5671461011f578063395093511461012e575b600080fd5b6100c16101d6565b6040516100ce91906106fa565b60405180910390f35b6100ea6100e536600461076b565b610268565b60405190151581526020016100ce565b6002545b6040519081526020016100ce565b6100ea61011a366004610795565b610280565b604051601281526020016100ce565b6100ea61013c36600461076b565b6102a4565b6100fe61014f3660046107d1565b6001600160a01b031660009081526020819052604090205490565b60055461017d906001600160a01b031681565b6040516001600160a01b0390911681526020016100ce565b6100c16102c6565b6100ea6101ab36600461076b565b6102d5565b6100ea6101be36600461076b565b610355565b6100fe6101d13660046107f3565b610363565b6060600380546101e590610826565b80601f016020809104026020016040519081016040528092919081815260200182805461021190610826565b801561025e5780601f106102335761010080835404028352916020019161025e565b820191906000526020600020905b81548152906001019060200180831161024157829003601f168201915b5050505050905090565b60003361027681858561038e565b5060019392505050565b60003361028e8582856104b2565b61029985858561052c565b506001949350505050565b6000336102768185856102b78383610363565b6102c19190610860565b61038e565b6060600480546101e590610826565b600033816102e38286610363565b9050838110156103485760405162461bcd60e51b815260206004820152602560248201527f45524332303a2064656372656173656420616c6c6f77616e63652062656c6f77604482015264207a65726f60d81b60648201526084015b60405180910390fd5b610299828686840361038e565b60003361027681858561052c565b6001600160a01b03918216600090815260016020908152604080832093909416825291909152205490565b6001600160a01b0383166103f05760405162461bcd60e51b8152602060048201526024808201527f45524332303a20617070726f76652066726f6d20746865207a65726f206164646044820152637265737360e01b606482015260840161033f565b6001600160a01b0382166104515760405162461bcd60e51b815260206004820152602260248201527f45524332303a20617070726f766520746f20746865207a65726f206164647265604482015261737360f01b606482015260840161033f565b6001600160a01b0383811660008181526001602090815260408083209487168084529482529182902085905590518481527f8c5be1e5ebec7d5bd14f71427d1e84f3dd0314c0f7b2291e5b200ac8c7c3b925910160405180910390a3505050565b60006104be8484610363565b9050600019811461052657818110156105195760405162461bcd60e51b815260206004820152601d60248201527f45524332303a20696e73756666696369656e7420616c6c6f77616e6365000000604482015260640161033f565b610526848484840361038e565b50505050565b6001600160a01b0383166105905760405162461bcd60e51b815260206004820152602560248201527f45524332303a207472616e736665722066726f6d20746865207a65726f206164604482015264647265737360d81b606482015260840161033f565b6001600160a01b0382166105f25760405162461bcd60e51b815260206004820152602360248201527f45524332303a207472616e7366657220746f20746865207a65726f206164647260448201526265737360e81b606482015260840161033f565b6001600160a01b0383166000908152602081905260409020548181101561066a5760405162461bcd60e51b815260206004820152602660248201527f45524332303a207472616e7366657220616d6f756e7420657863656564732062604482015265616c616e636560d01b606482015260840161033f565b6001600160a01b038085166000908152602081905260408082208585039055918516815290812080548492906106a1908490610860565b92505081905550826001600160a01b0316846001600160a01b03167fddf252ad1be2c89b69c2b068fc378daa952ba7f163c4a11628f55a4df523b3ef846040516106ed91815260200190565b60405180910390a3610526565b600060208083528351808285015260005b818110156107275785810183015185820160400152820161070b565b81811115610739576000604083870101525b50601f01601f1916929092016040019392505050565b80356001600160a01b038116811461076657600080fd5b919050565b6000806040838503121561077e57600080fd5b6107878361074f565b946020939093013593505050565b6000806000606084860312156107aa57600080fd5b6107b38461074f565b92506107c16020850161074f565b9150604084013590509250925092565b6000602082840312156107e357600080fd5b6107ec8261074f565b9392505050565b6000806040838503121561080657600080fd5b61080f8361074f565b915061081d6020840161074f565b90509250929050565b600181811c9082168061083a57607f821691505b60208210810361085a57634e487b7160e01b600052602260045260246000fd5b50919050565b6000821982111561088157634e487b7160e01b600052601160045260246000fd5b50019056fea264697066735822122021f479a94d1cc654ab5f6c9ab8c4a8dd803c2b9e15238c94b850ef4e3f7998d364736f6c634300080d0033",
  "linkReferences": {},
  "deployedLinkReferences": {}
}