{
  "_format": "hh-sol-artifact-1",
  "contractName": "BalDepositor",
  "sourceName": "contracts/BalDepositor.sol",
  "abi": [
    {
      "inputs": [
        {
          "internalType": "address",
          "name": "_staker",
          "type": "address"
        },
        {
          "internalType": "address",
          "name": "_minter",
          "type": "address"
        },
        {
          "internalType": "address",
          "name": "_escrow",
          "type": "address"
        }
      ],
      "stateMutability": "nonpayable",
      "type": "constructor"
    },
    {
      "inputs": [],
      "name": "FEE_DENOMINATOR",
      "outputs": [
        {
          "internalType": "uint256",
          "name": "",
          "type": "uint256"
        }
      ],
      "stateMutability": "view",
      "type": "function"
    },
    {
      "inputs": [],
      "name": "bal",
      "outputs": [
        {
          "internalType": "address",
          "name": "",
          "type": "address"
        }
      ],
      "stateMutability": "view",
      "type": "function"
    },
    {
      "inputs": [
        {
          "internalType": "uint256",
          "name": "_amount",
          "type": "uint256"
        },
        {
          "internalType": "bool",
          "name": "_lock",
          "type": "bool"
        },
        {
          "internalType": "address",
          "name": "_stakeAddress",
          "type": "address"
        }
      ],
      "name": "deposit",
      "outputs": [],
      "stateMutability": "nonpayable",
      "type": "function"
    },
    {
      "inputs": [
        {
          "internalType": "uint256",
          "name": "_amount",
          "type": "uint256"
        },
        {
          "internalType": "bool",
          "name": "_lock",
          "type": "bool"
        }
      ],
      "name": "deposit",
      "outputs": [],
      "stateMutability": "nonpayable",
      "type": "function"
    },
    {
      "inputs": [
        {
          "internalType": "bool",
          "name": "_lock",
          "type": "bool"
        },
        {
          "internalType": "address",
          "name": "_stakeAddress",
          "type": "address"
        }
      ],
      "name": "depositAll",
      "outputs": [],
      "stateMutability": "nonpayable",
      "type": "function"
    },
    {
      "inputs": [],
      "name": "escrow",
      "outputs": [
        {
          "internalType": "address",
          "name": "",
          "type": "address"
        }
      ],
      "stateMutability": "view",
      "type": "function"
    },
    {
      "inputs": [],
      "name": "feeManager",
      "outputs": [
        {
          "internalType": "address",
          "name": "",
          "type": "address"
        }
      ],
      "stateMutability": "view",
      "type": "function"
    },
    {
      "inputs": [],
      "name": "incentiveBal",
      "outputs": [
        {
          "internalType": "uint256",
          "name": "",
          "type": "uint256"
        }
      ],
      "stateMutability": "view",
      "type": "function"
    },
    {
      "inputs": [],
      "name": "initialLock",
      "outputs": [],
      "stateMutability": "nonpayable",
      "type": "function"
    },
    {
      "inputs": [],
      "name": "lockBalancer",
      "outputs": [],
      "stateMutability": "nonpayable",
      "type": "function"
    },
    {
      "inputs": [],
      "name": "lockIncentive",
      "outputs": [
        {
          "internalType": "uint256",
          "name": "",
          "type": "uint256"
        }
      ],
      "stateMutability": "view",
      "type": "function"
    },
    {
      "inputs": [],
      "name": "minter",
      "outputs": [
        {
          "internalType": "address",
          "name": "",
          "type": "address"
        }
      ],
      "stateMutability": "view",
      "type": "function"
    },
    {
      "inputs": [
        {
          "internalType": "address",
          "name": "_feeManager",
          "type": "address"
        }
      ],
      "name": "setFeeManager",
      "outputs": [],
      "stateMutability": "nonpayable",
      "type": "function"
    },
    {
      "inputs": [
        {
          "internalType": "uint256",
          "name": "_lockIncentive",
          "type": "uint256"
        }
      ],
      "name": "setFees",
      "outputs": [],
      "stateMutability": "nonpayable",
      "type": "function"
    },
    {
      "inputs": [],
      "name": "staker",
      "outputs": [
        {
          "internalType": "address",
          "name": "",
          "type": "address"
        }
      ],
      "stateMutability": "view",
      "type": "function"
    },
    {
      "inputs": [],
      "name": "unlockTime",
      "outputs": [
        {
          "internalType": "uint256",
          "name": "",
          "type": "uint256"
        }
      ],
      "stateMutability": "view",
      "type": "function"
    }
  ],
  "bytecode": "0x60e0604052600a600055600060025534801561001a57600080fd5b50604051620014b0380380620014b083398101604081905261003b91610086565b6001600160a01b0392831660a05290821660c052600180546001600160a01b03191633179055166080526100c9565b80516001600160a01b038116811461008157600080fd5b919050565b60008060006060848603121561009b57600080fd5b6100a48461006a565b92506100b26020850161006a565b91506100c06040850161006a565b90509250925092565b60805160a05160c05161134e620001626000396000818161010a015281816103b001528181610554015281816105d90152818161064a01526106810152600081816101cc015281816104730152818161075001528181610822015281816108a80152818161095201528181610a6901528181610aa501528181610b510152610c18015260008181610246015261077b015261134e6000f3fe608060405234801561001057600080fd5b50600436106101005760003560e01c80635ebaf1db11610097578063c5230deb11610066578063c5230deb1461021c578063d0fb020314610225578063d73792a914610238578063e2fdcc171461024157600080fd5b80635ebaf1db146101c757806380ed71e4146101ee578063836f8f20146102015780639a4083211461020957600080fd5b80633d79d1c8116100d35780633d79d1c814610188578063472d35b9146101a35780634f805abb146101b657806350940618146101be57600080fd5b80630754617214610105578063215537fd14610149578063251c1aa31461015e5780633d18678e14610175575b600080fd5b61012c7f000000000000000000000000000000000000000000000000000000000000000081565b6040516001600160a01b0390911681526020015b60405180910390f35b61015c6101573660046110eb565b610268565b005b61016760035481565b604051908152602001610140565b61015c610183366004611120565b6102f0565b61012c73ba100000625a3754423978a60c9317c58a424e3d81565b61015c6101b1366004611139565b610334565b61015c610380565b61016760005481565b61012c7f000000000000000000000000000000000000000000000000000000000000000081565b61015c6101fc366004611154565b61041c565b61015c61070f565b61015c610217366004611192565b6109c1565b61016760025481565b60015461012c906001600160a01b031681565b61016761271081565b61012c7f000000000000000000000000000000000000000000000000000000000000000081565b6040516370a0823160e01b815233600482015260009073ba100000625a3754423978a60c9317c58a424e3d906370a0823190602401602060405180830381865afa1580156102ba573d6000803e3d6000fd5b505050506040513d601f19601f820116820180604052508101906102de91906111c2565b90506102eb81848461041c565b505050565b6001546001600160a01b031633146103235760405162461bcd60e51b815260040161031a906111db565b60405180910390fd5b601e81116103315760008190555b50565b6001546001600160a01b0316331461035e5760405162461bcd60e51b815260040161031a906111db565b600180546001600160a01b0319166001600160a01b0392909216919091179055565b6103886109d1565b6002541561041a576002546040516340c10f1960e01b815233600482015260248101919091527f00000000000000000000000000000000000000000000000000000000000000006001600160a01b0316906340c10f1990604401600060405180830381600087803b1580156103fc57600080fd5b505af1158015610410573d6000803e3d6000fd5b5050600060025550505b565b600083116104525760405162461bcd60e51b81526020600482015260036024820152620213e360ec1b604482015260640161031a565b81156104c35761049873ba100000625a3754423978a60c9317c58a424e3d337f000000000000000000000000000000000000000000000000000000000000000086610c87565b6104a06109d1565b600254156104be576002546104b6908490610cf2565b600060025592505b610527565b6104e373ba100000625a3754423978a60c9317c58a424e3d333086610c87565b600061050661271061050060005487610d0590919063ffffffff16565b90610d11565b90506105128482610d1d565b6002549094506105229082610cf2565b600255505b6001600160a01b0381161580156105bd576040516340c10f1960e01b8152336004820152602481018590527f00000000000000000000000000000000000000000000000000000000000000006001600160a01b0316906340c10f1990604401600060405180830381600087803b1580156105a057600080fd5b505af11580156105b4573d6000803e3d6000fd5b50505050610709565b6040516340c10f1960e01b8152306004820152602481018590527f00000000000000000000000000000000000000000000000000000000000000006001600160a01b0316906340c10f1990604401600060405180830381600087803b15801561062557600080fd5b505af1158015610639573d6000803e3d6000fd5b506106749250506001600160a01b037f0000000000000000000000000000000000000000000000000000000000000000169050836000610d29565b6106a86001600160a01b037f0000000000000000000000000000000000000000000000000000000000000000168386610d29565b6040516305dc812160e31b8152336004820152602481018590526001600160a01b03831690632ee4090890604401600060405180830381600087803b1580156106f057600080fd5b505af1158015610704573d6000803e3d6000fd5b505050505b50505050565b6001546001600160a01b031633146107395760405162461bcd60e51b815260040161031a906111db565b6040516370a0823160e01b81526001600160a01b037f0000000000000000000000000000000000000000000000000000000000000000811660048301526000917f0000000000000000000000000000000000000000000000000000000000000000909116906370a0823190602401602060405180830381865afa1580156107c4573d6000803e3d6000fd5b505050506040513d601f19601f820116820180604052508101906107e891906111c2565b90508060000361033157600061080263077f880042611210565b9050600062093a806108148184611228565b61081e919061124a565b90507f00000000000000000000000000000000000000000000000000000000000000006001600160a01b03166386d1a69f6040518163ffffffff1660e01b8152600401600060405180830381600087803b15801561087b57600080fd5b505af115801561088f573d6000803e3d6000fd5b50506040516370a0823160e01b81526001600160a01b037f00000000000000000000000000000000000000000000000000000000000000001660048201526000925073ba100000625a3754423978a60c9317c58a424e3d91506370a0823190602401602060405180830381865afa15801561090e573d6000803e3d6000fd5b505050506040513d601f19601f8201168201806040525081019061093291906111c2565b604051635a9602ff60e11b815260048101829052602481018590529091507f00000000000000000000000000000000000000000000000000000000000000006001600160a01b03169063b52c05fe90604401600060405180830381600087803b15801561099e57600080fd5b505af11580156109b2573d6000803e3d6000fd5b50505060039290925550505050565b6109cd8282600061041c565b5050565b6040516370a0823160e01b815230600482015260009073ba100000625a3754423978a60c9317c58a424e3d906370a0823190602401602060405180830381865afa158015610a23573d6000803e3d6000fd5b505050506040513d601f19601f82011682018060405250810190610a4791906111c2565b90508015610a8e57610a8e73ba100000625a3754423978a60c9317c58a424e3d7f000000000000000000000000000000000000000000000000000000000000000083610e3e565b6040516370a0823160e01b81526001600160a01b037f000000000000000000000000000000000000000000000000000000000000000016600482015260009073ba100000625a3754423978a60c9317c58a424e3d906370a0823190602401602060405180830381865afa158015610b09573d6000803e3d6000fd5b505050506040513d601f19601f82011682018060405250810190610b2d91906111c2565b905080600003610b3b575050565b604051630aa2b75d60e11b8152600481018290527f00000000000000000000000000000000000000000000000000000000000000006001600160a01b0316906315456eba90602401600060405180830381600087803b158015610b9d57600080fd5b505af1158015610bb1573d6000803e3d6000fd5b50505050600063077f880042610bc79190611210565b9050600062093a80610bd98184611228565b610be3919061124a565b90506002610bfc60035483610d1d90919063ffffffff16565b111561070957604051631e4d150d60e11b8152600481018390527f00000000000000000000000000000000000000000000000000000000000000006001600160a01b031690633c9a2a1a90602401600060405180830381600087803b158015610c6457600080fd5b505af1158015610c78573d6000803e3d6000fd5b50505060038290555050505050565b6040516001600160a01b03808516602483015283166044820152606481018290526107099085906323b872dd60e01b906084015b60408051601f198184030181529190526020810180516001600160e01b03166001600160e01b031990931692909217909152610e6e565b6000610cfe8284611210565b9392505050565b6000610cfe828461124a565b6000610cfe8284611228565b6000610cfe8284611269565b801580610da35750604051636eb1769f60e11b81523060048201526001600160a01b03838116602483015284169063dd62ed3e90604401602060405180830381865afa158015610d7d573d6000803e3d6000fd5b505050506040513d601f19601f82011682018060405250810190610da191906111c2565b155b610e0e5760405162461bcd60e51b815260206004820152603660248201527f5361666545524332303a20617070726f76652066726f6d206e6f6e2d7a65726f60448201527520746f206e6f6e2d7a65726f20616c6c6f77616e636560501b606482015260840161031a565b6040516001600160a01b0383166024820152604481018290526102eb90849063095ea7b360e01b90606401610cbb565b6040516001600160a01b0383166024820152604481018290526102eb90849063a9059cbb60e01b90606401610cbb565b6000610ec3826040518060400160405280602081526020017f5361666545524332303a206c6f772d6c6576656c2063616c6c206661696c6564815250856001600160a01b0316610f409092919063ffffffff16565b8051909150156102eb5780806020019051810190610ee19190611280565b6102eb5760405162461bcd60e51b815260206004820152602a60248201527f5361666545524332303a204552433230206f7065726174696f6e20646964206e6044820152691bdd081cdd58d8d9595960b21b606482015260840161031a565b6060610f4f8484600085610f57565b949350505050565b606082471015610fb85760405162461bcd60e51b815260206004820152602660248201527f416464726573733a20696e73756666696369656e742062616c616e636520666f6044820152651c8818d85b1b60d21b606482015260840161031a565b6001600160a01b0385163b61100f5760405162461bcd60e51b815260206004820152601d60248201527f416464726573733a2063616c6c20746f206e6f6e2d636f6e7472616374000000604482015260640161031a565b600080866001600160a01b0316858760405161102b91906112c9565b60006040518083038185875af1925050503d8060008114611068576040519150601f19603f3d011682016040523d82523d6000602084013e61106d565b606091505b509150915061107d828286611088565b979650505050505050565b60608315611097575081610cfe565b8251156110a75782518084602001fd5b8160405162461bcd60e51b815260040161031a91906112e5565b801515811461033157600080fd5b80356001600160a01b03811681146110e657600080fd5b919050565b600080604083850312156110fe57600080fd5b8235611109816110c1565b9150611117602084016110cf565b90509250929050565b60006020828403121561113257600080fd5b5035919050565b60006020828403121561114b57600080fd5b610cfe826110cf565b60008060006060848603121561116957600080fd5b83359250602084013561117b816110c1565b9150611189604085016110cf565b90509250925092565b600080604083850312156111a557600080fd5b8235915060208301356111b7816110c1565b809150509250929050565b6000602082840312156111d457600080fd5b5051919050565b602080825260059082015264042c2eae8d60db1b604082015260600190565b634e487b7160e01b600052601160045260246000fd5b60008219821115611223576112236111fa565b500190565b60008261124557634e487b7160e01b600052601260045260246000fd5b500490565b6000816000190483118215151615611264576112646111fa565b500290565b60008282101561127b5761127b6111fa565b500390565b60006020828403121561129257600080fd5b8151610cfe816110c1565b60005b838110156112b85781810151838201526020016112a0565b838111156107095750506000910152565b600082516112db81846020870161129d565b9190910192915050565b602081526000825180602084015261130481604085016020870161129d565b601f01601f1916919091016040019291505056fea2646970667358221220ca807634a06b6923909c2626317aad17bb0b19543192a211333cc4f11b87147164736f6c634300080d0033",
  "linkReferences": {},
  "deployedLinkReferences": {}
}