{
  "_format": "hh-sol-artifact-1",
  "contractName": "BalDepositor",
  "sourceName": "contracts/BalDepositor.sol",
  "abi": [
    {
      "inputs": [
        {
          "internalType": "address",
          "name": "_staker",
          "type": "address"
        },
        {
          "internalType": "address",
          "name": "_minter",
          "type": "address"
        },
        {
          "internalType": "address",
          "name": "_veBal",
          "type": "address"
        }
      ],
      "stateMutability": "nonpayable",
      "type": "constructor"
    },
    {
      "inputs": [],
      "name": "FEE_DENOMINATOR",
      "outputs": [
        {
          "internalType": "uint256",
          "name": "",
          "type": "uint256"
        }
      ],
      "stateMutability": "view",
      "type": "function"
    },
    {
      "inputs": [
        {
          "internalType": "uint256",
          "name": "_amount",
          "type": "uint256"
        },
        {
          "internalType": "bool",
          "name": "_lock",
          "type": "bool"
        }
      ],
      "name": "_deposit",
      "outputs": [],
      "stateMutability": "nonpayable",
      "type": "function"
    },
    {
      "inputs": [],
      "name": "balWeth",
      "outputs": [
        {
          "internalType": "address",
          "name": "",
          "type": "address"
        }
      ],
      "stateMutability": "view",
      "type": "function"
    },
    {
      "inputs": [],
      "name": "coin",
      "outputs": [
        {
          "internalType": "contract SampleERC",
          "name": "",
          "type": "address"
        }
      ],
      "stateMutability": "view",
      "type": "function"
    },
    {
      "inputs": [
        {
          "internalType": "uint256",
          "name": "_amount",
          "type": "uint256"
        }
      ],
      "name": "deposit",
      "outputs": [],
      "stateMutability": "nonpayable",
      "type": "function"
    },
    {
      "inputs": [
        {
          "internalType": "bool",
          "name": "_lock",
          "type": "bool"
        },
        {
          "internalType": "address",
          "name": "_stakeAddress",
          "type": "address"
        }
      ],
      "name": "depositAll",
      "outputs": [],
      "stateMutability": "nonpayable",
      "type": "function"
    },
    {
      "inputs": [],
      "name": "feeManager",
      "outputs": [
        {
          "internalType": "address",
          "name": "",
          "type": "address"
        }
      ],
      "stateMutability": "view",
      "type": "function"
    },
    {
      "inputs": [],
      "name": "incentiveBal",
      "outputs": [
        {
          "internalType": "uint256",
          "name": "",
          "type": "uint256"
        }
      ],
      "stateMutability": "view",
      "type": "function"
    },
    {
      "inputs": [],
      "name": "initialLock",
      "outputs": [],
      "stateMutability": "nonpayable",
      "type": "function"
    },
    {
      "inputs": [],
      "name": "lockIncentive",
      "outputs": [
        {
          "internalType": "uint256",
          "name": "",
          "type": "uint256"
        }
      ],
      "stateMutability": "view",
      "type": "function"
    },
    {
      "inputs": [],
      "name": "lockToken",
      "outputs": [],
      "stateMutability": "nonpayable",
      "type": "function"
    },
    {
      "inputs": [],
      "name": "minter",
      "outputs": [
        {
          "internalType": "address",
          "name": "",
          "type": "address"
        }
      ],
      "stateMutability": "view",
      "type": "function"
    },
    {
      "inputs": [],
      "name": "mockD2DBal",
      "outputs": [
        {
          "internalType": "contract MockD2DBal",
          "name": "",
          "type": "address"
        }
      ],
      "stateMutability": "view",
      "type": "function"
    },
    {
      "inputs": [],
      "name": "mockRewards",
      "outputs": [
        {
          "internalType": "contract MockRewards",
          "name": "",
          "type": "address"
        }
      ],
      "stateMutability": "view",
      "type": "function"
    },
    {
      "inputs": [],
      "name": "mocktoken",
      "outputs": [
        {
          "internalType": "contract ERC20Mock",
          "name": "",
          "type": "address"
        }
      ],
      "stateMutability": "view",
      "type": "function"
    },
    {
      "inputs": [],
      "name": "mockvBal",
      "outputs": [
        {
          "internalType": "contract MockVBAL",
          "name": "",
          "type": "address"
        }
      ],
      "stateMutability": "view",
      "type": "function"
    },
    {
      "inputs": [
        {
          "internalType": "contract SampleERC",
          "name": "_coin",
          "type": "address"
        }
      ],
      "name": "setCoinAddress",
      "outputs": [],
      "stateMutability": "nonpayable",
      "type": "function"
    },
    {
      "inputs": [
        {
          "internalType": "address",
          "name": "_feeManager",
          "type": "address"
        }
      ],
      "name": "setFeeManager",
      "outputs": [],
      "stateMutability": "nonpayable",
      "type": "function"
    },
    {
      "inputs": [
        {
          "internalType": "uint256",
          "name": "_lockIncentive",
          "type": "uint256"
        }
      ],
      "name": "setFees",
      "outputs": [],
      "stateMutability": "nonpayable",
      "type": "function"
    },
    {
      "inputs": [
        {
          "internalType": "contract MockD2DBal",
          "name": "_mockD2DBal",
          "type": "address"
        }
      ],
      "name": "setMockD2DBalAddress",
      "outputs": [],
      "stateMutability": "nonpayable",
      "type": "function"
    },
    {
      "inputs": [
        {
          "internalType": "contract MockRewards",
          "name": "_mockRewards",
          "type": "address"
        }
      ],
      "name": "setMockRewardsAddress",
      "outputs": [],
      "stateMutability": "nonpayable",
      "type": "function"
    },
    {
      "inputs": [
        {
          "internalType": "contract MockVBAL",
          "name": "_mockVbal",
          "type": "address"
        }
      ],
      "name": "setMockVbalAddress",
      "outputs": [],
      "stateMutability": "nonpayable",
      "type": "function"
    },
    {
      "inputs": [
        {
          "internalType": "contract VoterProxy",
          "name": "_voteProxy",
          "type": "address"
        }
      ],
      "name": "setVoterAddress",
      "outputs": [],
      "stateMutability": "nonpayable",
      "type": "function"
    },
    {
      "inputs": [],
      "name": "staker",
      "outputs": [
        {
          "internalType": "address",
          "name": "",
          "type": "address"
        }
      ],
      "stateMutability": "view",
      "type": "function"
    },
    {
      "inputs": [],
      "name": "unlockTime",
      "outputs": [
        {
          "internalType": "uint256",
          "name": "",
          "type": "uint256"
        }
      ],
      "stateMutability": "view",
      "type": "function"
    },
    {
      "inputs": [],
      "name": "veBal",
      "outputs": [
        {
          "internalType": "address",
          "name": "",
          "type": "address"
        }
      ],
      "stateMutability": "view",
      "type": "function"
    },
    {
      "inputs": [],
      "name": "voteProxy",
      "outputs": [
        {
          "internalType": "contract MockVoteProxy",
          "name": "",
          "type": "address"
        }
      ],
      "stateMutability": "view",
      "type": "function"
    },
    {
      "inputs": [],
      "name": "voter",
      "outputs": [
        {
          "internalType": "contract VoterProxy",
          "name": "",
          "type": "address"
        }
      ],
      "stateMutability": "view",
      "type": "function"
    }
  ],
  "bytecode": "0x61010060405273ba100000625a3754423978a60c9317c58a424e3d608052600a600090815560025534801561003357600080fd5b506040516110b83803806110b88339810160408190526100529161009d565b6001600160a01b0392831660c05290821660e052600180546001600160a01b031916331790551660a0526100e0565b80516001600160a01b038116811461009857600080fd5b919050565b6000806000606084860312156100b257600080fd5b6100bb84610081565b92506100c960208501610081565b91506100d760408501610081565b90509250925092565b60805160a05160c05160e051610f5961015f600039600081816101ce0152610b4a01526000818161030701528181610615015281816106e70152818161076d0152818161082501528181610c910152610d19015260008181610264015261064001526000818161029e0152818161043301526107990152610f596000f3fe608060405234801561001057600080fd5b50600436106101c45760003560e01c80637a122a5b116100f9578063b0bdacc611610097578063c5230deb11610071578063c5230deb146103e3578063d0fb0203146103ec578063d73792a9146103ff578063d7b9377a1461040857600080fd5b8063b0bdacc6146103b5578063b6b55f25146103c8578063bca7a9e2146103db57600080fd5b80638b11d9d9116100d35780638b11d9d91461036a5780638bc68e881461037d5780639e4d48b614610390578063a4184472146103a257600080fd5b80637a122a5b1461033c5780637ed0c1841461034f578063836f8f201461036257600080fd5b8063406347ad11610166578063509406181161014057806350940618146102e6578063588f3375146102ef5780635ebaf1db146103025780635f2036fb1461032957600080fd5b8063406347ad1461029957806346c96aac146102c0578063472d35b9146102d357600080fd5b8063251c1aa3116101a2578063251c1aa3146102355780632f252a561461024c57806334bce9031461025f5780633d18678e1461028657600080fd5b806307546172146101c957806311df99951461020d578063215537fd14610220575b600080fd5b6101f07f000000000000000000000000000000000000000000000000000000000000000081565b6040516001600160a01b0390911681526020015b60405180910390f35b6008546101f0906001600160a01b031681565b61023361022e366004610dbf565b61041b565b005b61023e60035481565b604051908152602001610204565b6009546101f0906001600160a01b031681565b6101f07f000000000000000000000000000000000000000000000000000000000000000081565b610233610294366004610df8565b6104ac565b6101f07f000000000000000000000000000000000000000000000000000000000000000081565b6007546101f0906001600160a01b031681565b6102336102e1366004610e11565b6104bd565b61023e60005481565b600a546101f0906001600160a01b031681565b6101f07f000000000000000000000000000000000000000000000000000000000000000081565b610233610337366004610e11565b610526565b6006546101f0906001600160a01b031681565b61023361035d366004610e11565b610571565b6102336105bc565b6004546101f0906001600160a01b031681565b61023361038b366004610e11565b6108d6565b61023361039e366004610e35565b5050565b6005546101f0906001600160a01b031681565b6102336103c3366004610e11565b610921565b6102336103d6366004610df8565b61096c565b610233610b1a565b61023e60025481565b6001546101f0906001600160a01b031681565b61023e61271081565b610233610416366004610e11565b610bb6565b6040516370a0823160e01b81523360048201526000907f00000000000000000000000000000000000000000000000000000000000000006001600160a01b0316906370a0823190602401602060405180830381865afa158015610482573d6000803e3d6000fd5b505050506040513d601f19601f820116820180604052508101906104a69190610e5a565b50505050565b601e81116104ba5760008190555b50565b6001546001600160a01b031633146105045760405162461bcd60e51b8152602060048201526005602482015264042c2eae8d60db1b60448201526064015b60405180910390fd5b600180546001600160a01b0319166001600160a01b0392909216919091179055565b600a546001600160a01b03161561054f5760405162461bcd60e51b81526004016104fb90610e73565b600a80546001600160a01b0319166001600160a01b0392909216919091179055565b6005546001600160a01b03161561059a5760405162461bcd60e51b81526004016104fb90610e73565b600580546001600160a01b0319166001600160a01b0392909216919091179055565b6001546001600160a01b031633146105fe5760405162461bcd60e51b8152602060048201526005602482015264042c2eae8d60db1b60448201526064016104fb565b6040516370a0823160e01b81526001600160a01b037f0000000000000000000000000000000000000000000000000000000000000000811660048301526000917f0000000000000000000000000000000000000000000000000000000000000000909116906370a0823190602401602060405180830381865afa158015610689573d6000803e3d6000fd5b505050506040513d601f19601f820116820180604052508101906106ad9190610e5a565b9050806000036108925760006106c763077f880042610ead565b9050600062093a806106d98184610ec5565b6106e39190610ee7565b90507f00000000000000000000000000000000000000000000000000000000000000006001600160a01b03166386d1a69f6040518163ffffffff1660e01b8152600401600060405180830381600087803b15801561074057600080fd5b505af1158015610754573d6000803e3d6000fd5b50506040516370a0823160e01b81526001600160a01b037f000000000000000000000000000000000000000000000000000000000000000081166004830152600093507f00000000000000000000000000000000000000000000000000000000000000001691506370a0823190602401602060405180830381865afa1580156107e1573d6000803e3d6000fd5b505050506040513d601f19601f820116820180604052508101906108059190610e5a565b604051635a9602ff60e11b815260048101829052602481018590529091507f00000000000000000000000000000000000000000000000000000000000000006001600160a01b03169063b52c05fe90604401600060405180830381600087803b15801561087157600080fd5b505af1158015610885573d6000803e3d6000fd5b5050506003929092555050505b80156104ba5760405162461bcd60e51b81526020600482015260136024820152727642616c206c6f636b656420616c726561647960681b60448201526064016104fb565b6004546001600160a01b0316156108ff5760405162461bcd60e51b81526004016104fb90610e73565b600480546001600160a01b0319166001600160a01b0392909216919091179055565b6008546001600160a01b03161561094a5760405162461bcd60e51b81526004016104fb90610e73565b600880546001600160a01b0319166001600160a01b0392909216919091179055565b600081116109a25760405162461bcd60e51b81526020600482015260036024820152620213e360ec1b60448201526064016104fb565b60085460405163095ea7b360e01b8152306004820152602481018390526001600160a01b039091169063095ea7b3906044016020604051808303816000875af11580156109f3573d6000803e3d6000fd5b505050506040513d601f19601f82011682018060405250810190610a179190610f06565b506008546040516323b872dd60e01b8152336004820152306024820152604481018390526001600160a01b03909116906323b872dd906064016020604051808303816000875af1158015610a6f573d6000803e3d6000fd5b505050506040513d601f19601f82011682018060405250810190610a939190610f06565b5060085460048054604051633950935160e01b81526001600160a01b039182169281019290925260248201849052909116906339509351906044016020604051808303816000875af1158015610aed573d6000803e3d6000fd5b505050506040513d601f19601f82011682018060405250810190610b119190610f06565b506104ba610c01565b610b22610c01565b60025415610bb4576002546040516340c10f1960e01b815233600482015260248101919091527f00000000000000000000000000000000000000000000000000000000000000006001600160a01b0316906340c10f1990604401600060405180830381600087803b158015610b9657600080fd5b505af1158015610baa573d6000803e3d6000fd5b5050600060025550505b565b6007546001600160a01b031615610bdf5760405162461bcd60e51b81526004016104fb90610e73565b600780546001600160a01b0319166001600160a01b0392909216919091179055565b6008546040516370a0823160e01b81523060048201526000916001600160a01b0316906370a0823190602401602060405180830381865afa158015610c4a573d6000803e3d6000fd5b505050506040513d601f19601f82011682018060405250810190610c6e9190610e5a565b90508015610cff5760048054604051631d23139f60e11b81526001600160a01b037f000000000000000000000000000000000000000000000000000000000000000081169382019390935260248101849052911690633a46273e90604401600060405180830381600087803b158015610ce657600080fd5b505af1158015610cfa573d6000803e3d6000fd5b505050505b6008546040516370a0823160e01b81526001600160a01b037f00000000000000000000000000000000000000000000000000000000000000008116600483015260009216906370a0823190602401602060405180830381865afa158015610d6a573d6000803e3d6000fd5b505050506040513d601f19601f82011682018060405250810190610d8e9190610e5a565b90508060000361039e575050565b80151581146104ba57600080fd5b6001600160a01b03811681146104ba57600080fd5b60008060408385031215610dd257600080fd5b8235610ddd81610d9c565b91506020830135610ded81610daa565b809150509250929050565b600060208284031215610e0a57600080fd5b5035919050565b600060208284031215610e2357600080fd5b8135610e2e81610daa565b9392505050565b60008060408385031215610e4857600080fd5b823591506020830135610ded81610d9c565b600060208284031215610e6c57600080fd5b5051919050565b6020808252600a908201526957524954455f4f4e434560b01b604082015260600190565b634e487b7160e01b600052601160045260246000fd5b60008219821115610ec057610ec0610e97565b500190565b600082610ee257634e487b7160e01b600052601260045260246000fd5b500490565b6000816000190483118215151615610f0157610f01610e97565b500290565b600060208284031215610f1857600080fd5b8151610e2e81610d9c56fea264697066735822122001eda19b1753e416a830738b926fba5273791b304432d6b28ff52dd3ea3b2aff64736f6c634300080d0033",
  "linkReferences": {},
  "deployedLinkReferences": {}
}