{
  "_format": "hh-sol-artifact-1",
  "contractName": "PoolPriceOracle",
  "sourceName": "contracts/test/IVault.sol",
  "abi": [
    {
      "inputs": [
        {
          "internalType": "uint256",
          "name": "index",
          "type": "uint256"
        }
      ],
      "name": "getSample",
      "outputs": [
        {
          "internalType": "int256",
          "name": "logPairPrice",
          "type": "int256"
        },
        {
          "internalType": "int256",
          "name": "accLogPairPrice",
          "type": "int256"
        },
        {
          "internalType": "int256",
          "name": "logBptPrice",
          "type": "int256"
        },
        {
          "internalType": "int256",
          "name": "accLogBptPrice",
          "type": "int256"
        },
        {
          "internalType": "int256",
          "name": "logInvariant",
          "type": "int256"
        },
        {
          "internalType": "int256",
          "name": "accLogInvariant",
          "type": "int256"
        },
        {
          "internalType": "uint256",
          "name": "timestamp",
          "type": "uint256"
        }
      ],
      "stateMutability": "view",
      "type": "function"
    },
    {
      "inputs": [],
      "name": "getTotalSamples",
      "outputs": [
        {
          "internalType": "uint256",
          "name": "",
          "type": "uint256"
        }
      ],
      "stateMutability": "pure",
      "type": "function"
    }
  ],
  "bytecode": "0x608060405234801561001057600080fd5b50610119806100206000396000f3fe6080604052348015600f57600080fd5b506004361060325760003560e01c806360d1507c146037578063b48b5b40146080575b600080fd5b6046604236600460cb565b608e565b604080519788526020880196909652948601939093526060850191909152608084015260a083015260c082015260e0015b60405180910390f35b604051600181526020016077565b60008060008060008060008060af8960009081526020819052604090205490565b506001998a995089985088975087965086955085945092505050565b60006020828403121560dc57600080fd5b503591905056fea2646970667358221220f1651a18a4197376c85a866326b5739e05e2bff3f4266c958214a57e4868945364736f6c634300080d0033",
  "linkReferences": {},
  "deployedLinkReferences": {}
}