{
  "_format": "hh-sol-artifact-1",
  "contractName": "BaseRewardPool",
  "sourceName": "contracts/BaseRewardPool.sol",
  "abi": [
    {
      "inputs": [
        {
          "internalType": "uint256",
          "name": "pid_",
          "type": "uint256"
        },
        {
          "internalType": "address",
          "name": "stakingToken_",
          "type": "address"
        },
        {
          "internalType": "address",
          "name": "rewardToken_",
          "type": "address"
        },
        {
          "internalType": "address",
          "name": "operator_",
          "type": "address"
        },
        {
          "internalType": "address",
          "name": "rewardManager_",
          "type": "address"
        }
      ],
      "stateMutability": "nonpayable",
      "type": "constructor"
    },
    {
      "anonymous": false,
      "inputs": [
        {
          "indexed": false,
          "internalType": "uint256",
          "name": "reward",
          "type": "uint256"
        }
      ],
      "name": "RewardAdded",
      "type": "event"
    },
    {
      "anonymous": false,
      "inputs": [
        {
          "indexed": true,
          "internalType": "address",
          "name": "user",
          "type": "address"
        },
        {
          "indexed": false,
          "internalType": "uint256",
          "name": "reward",
          "type": "uint256"
        }
      ],
      "name": "RewardPaid",
      "type": "event"
    },
    {
      "anonymous": false,
      "inputs": [
        {
          "indexed": true,
          "internalType": "address",
          "name": "user",
          "type": "address"
        },
        {
          "indexed": false,
          "internalType": "uint256",
          "name": "amount",
          "type": "uint256"
        }
      ],
      "name": "Staked",
      "type": "event"
    },
    {
      "anonymous": false,
      "inputs": [
        {
          "indexed": true,
          "internalType": "address",
          "name": "user",
          "type": "address"
        },
        {
          "indexed": false,
          "internalType": "uint256",
          "name": "amount",
          "type": "uint256"
        }
      ],
      "name": "Withdrawn",
      "type": "event"
    },
    {
      "inputs": [
        {
          "internalType": "address",
          "name": "_reward",
          "type": "address"
        }
      ],
      "name": "addExtraReward",
      "outputs": [
        {
          "internalType": "bool",
          "name": "",
          "type": "bool"
        }
      ],
      "stateMutability": "nonpayable",
      "type": "function"
    },
    {
      "inputs": [
        {
          "internalType": "address",
          "name": "account",
          "type": "address"
        }
      ],
      "name": "balanceOf",
      "outputs": [
        {
          "internalType": "uint256",
          "name": "",
          "type": "uint256"
        }
      ],
      "stateMutability": "view",
      "type": "function"
    },
    {
      "inputs": [],
      "name": "clearExtraRewards",
      "outputs": [],
      "stateMutability": "nonpayable",
      "type": "function"
    },
    {
      "inputs": [],
      "name": "currentRewards",
      "outputs": [
        {
          "internalType": "uint256",
          "name": "",
          "type": "uint256"
        }
      ],
      "stateMutability": "view",
      "type": "function"
    },
    {
      "inputs": [
        {
          "internalType": "uint256",
          "name": "_amount",
          "type": "uint256"
        }
      ],
      "name": "donate",
      "outputs": [
        {
          "internalType": "bool",
          "name": "",
          "type": "bool"
        }
      ],
      "stateMutability": "nonpayable",
      "type": "function"
    },
    {
      "inputs": [],
      "name": "duration",
      "outputs": [
        {
          "internalType": "uint256",
          "name": "",
          "type": "uint256"
        }
      ],
      "stateMutability": "view",
      "type": "function"
    },
    {
      "inputs": [
        {
          "internalType": "address",
          "name": "account",
          "type": "address"
        }
      ],
      "name": "earned",
      "outputs": [
        {
          "internalType": "uint256",
          "name": "",
          "type": "uint256"
        }
      ],
      "stateMutability": "view",
      "type": "function"
    },
    {
      "inputs": [
        {
          "internalType": "uint256",
          "name": "",
          "type": "uint256"
        }
      ],
      "name": "extraRewards",
      "outputs": [
        {
          "internalType": "address",
          "name": "",
          "type": "address"
        }
      ],
      "stateMutability": "view",
      "type": "function"
    },
    {
      "inputs": [],
      "name": "extraRewardsLength",
      "outputs": [
        {
          "internalType": "uint256",
          "name": "",
          "type": "uint256"
        }
      ],
      "stateMutability": "view",
      "type": "function"
    },
    {
      "inputs": [],
      "name": "getReward",
      "outputs": [
        {
          "internalType": "bool",
          "name": "",
          "type": "bool"
        }
      ],
      "stateMutability": "nonpayable",
      "type": "function"
    },
    {
      "inputs": [
        {
          "internalType": "address",
          "name": "_account",
          "type": "address"
        },
        {
          "internalType": "bool",
          "name": "_claimExtras",
          "type": "bool"
        }
      ],
      "name": "getReward",
      "outputs": [
        {
          "internalType": "bool",
          "name": "",
          "type": "bool"
        }
      ],
      "stateMutability": "nonpayable",
      "type": "function"
    },
    {
      "inputs": [],
      "name": "historicalRewards",
      "outputs": [
        {
          "internalType": "uint256",
          "name": "",
          "type": "uint256"
        }
      ],
      "stateMutability": "view",
      "type": "function"
    },
    {
      "inputs": [],
      "name": "lastTimeRewardApplicable",
      "outputs": [
        {
          "internalType": "uint256",
          "name": "",
          "type": "uint256"
        }
      ],
      "stateMutability": "view",
      "type": "function"
    },
    {
      "inputs": [],
      "name": "lastUpdateTime",
      "outputs": [
        {
          "internalType": "uint256",
          "name": "",
          "type": "uint256"
        }
      ],
      "stateMutability": "view",
      "type": "function"
    },
    {
      "inputs": [],
      "name": "newRewardRatio",
      "outputs": [
        {
          "internalType": "uint256",
          "name": "",
          "type": "uint256"
        }
      ],
      "stateMutability": "view",
      "type": "function"
    },
    {
      "inputs": [],
      "name": "operator",
      "outputs": [
        {
          "internalType": "address",
          "name": "",
          "type": "address"
        }
      ],
      "stateMutability": "view",
      "type": "function"
    },
    {
      "inputs": [],
      "name": "periodFinish",
      "outputs": [
        {
          "internalType": "uint256",
          "name": "",
          "type": "uint256"
        }
      ],
      "stateMutability": "view",
      "type": "function"
    },
    {
      "inputs": [],
      "name": "pid",
      "outputs": [
        {
          "internalType": "uint256",
          "name": "",
          "type": "uint256"
        }
      ],
      "stateMutability": "view",
      "type": "function"
    },
    {
      "inputs": [
        {
          "internalType": "uint256",
          "name": "_rewards",
          "type": "uint256"
        }
      ],
      "name": "queueNewRewards",
      "outputs": [
        {
          "internalType": "bool",
          "name": "",
          "type": "bool"
        }
      ],
      "stateMutability": "nonpayable",
      "type": "function"
    },
    {
      "inputs": [],
      "name": "queuedRewards",
      "outputs": [
        {
          "internalType": "uint256",
          "name": "",
          "type": "uint256"
        }
      ],
      "stateMutability": "view",
      "type": "function"
    },
    {
      "inputs": [],
      "name": "rewardManager",
      "outputs": [
        {
          "internalType": "address",
          "name": "",
          "type": "address"
        }
      ],
      "stateMutability": "view",
      "type": "function"
    },
    {
      "inputs": [],
      "name": "rewardPerToken",
      "outputs": [
        {
          "internalType": "uint256",
          "name": "",
          "type": "uint256"
        }
      ],
      "stateMutability": "view",
      "type": "function"
    },
    {
      "inputs": [],
      "name": "rewardPerTokenStored",
      "outputs": [
        {
          "internalType": "uint256",
          "name": "",
          "type": "uint256"
        }
      ],
      "stateMutability": "view",
      "type": "function"
    },
    {
      "inputs": [],
      "name": "rewardRate",
      "outputs": [
        {
          "internalType": "uint256",
          "name": "",
          "type": "uint256"
        }
      ],
      "stateMutability": "view",
      "type": "function"
    },
    {
      "inputs": [],
      "name": "rewardToken",
      "outputs": [
        {
          "internalType": "contract IERC20",
          "name": "",
          "type": "address"
        }
      ],
      "stateMutability": "view",
      "type": "function"
    },
    {
      "inputs": [
        {
          "internalType": "address",
          "name": "",
          "type": "address"
        }
      ],
      "name": "rewards",
      "outputs": [
        {
          "internalType": "uint256",
          "name": "",
          "type": "uint256"
        }
      ],
      "stateMutability": "view",
      "type": "function"
    },
    {
      "inputs": [
        {
          "internalType": "uint256",
          "name": "_amount",
          "type": "uint256"
        }
      ],
      "name": "stake",
      "outputs": [
        {
          "internalType": "bool",
          "name": "",
          "type": "bool"
        }
      ],
      "stateMutability": "nonpayable",
      "type": "function"
    },
    {
      "inputs": [],
      "name": "stakeAll",
      "outputs": [
        {
          "internalType": "bool",
          "name": "",
          "type": "bool"
        }
      ],
      "stateMutability": "nonpayable",
      "type": "function"
    },
    {
      "inputs": [
        {
          "internalType": "address",
          "name": "_for",
          "type": "address"
        },
        {
          "internalType": "uint256",
          "name": "_amount",
          "type": "uint256"
        }
      ],
      "name": "stakeFor",
      "outputs": [
        {
          "internalType": "bool",
          "name": "",
          "type": "bool"
        }
      ],
      "stateMutability": "nonpayable",
      "type": "function"
    },
    {
      "inputs": [],
      "name": "stakingToken",
      "outputs": [
        {
          "internalType": "contract IERC20",
          "name": "",
          "type": "address"
        }
      ],
      "stateMutability": "view",
      "type": "function"
    },
    {
      "inputs": [],
      "name": "totalSupply",
      "outputs": [
        {
          "internalType": "uint256",
          "name": "",
          "type": "uint256"
        }
      ],
      "stateMutability": "view",
      "type": "function"
    },
    {
      "inputs": [
        {
          "internalType": "address",
          "name": "",
          "type": "address"
        }
      ],
      "name": "userRewardPerTokenPaid",
      "outputs": [
        {
          "internalType": "uint256",
          "name": "",
          "type": "uint256"
        }
      ],
      "stateMutability": "view",
      "type": "function"
    },
    {
      "inputs": [
        {
          "internalType": "uint256",
          "name": "amount",
          "type": "uint256"
        },
        {
          "internalType": "bool",
          "name": "claim",
          "type": "bool"
        }
      ],
      "name": "withdraw",
      "outputs": [
        {
          "internalType": "bool",
          "name": "",
          "type": "bool"
        }
      ],
      "stateMutability": "nonpayable",
      "type": "function"
    },
    {
      "inputs": [
        {
          "internalType": "bool",
          "name": "claim",
          "type": "bool"
        }
      ],
      "name": "withdrawAll",
      "outputs": [],
      "stateMutability": "nonpayable",
      "type": "function"
    },
    {
      "inputs": [
        {
          "internalType": "bool",
          "name": "claim",
          "type": "bool"
        }
      ],
      "name": "withdrawAllAndUnwrap",
      "outputs": [],
      "stateMutability": "nonpayable",
      "type": "function"
    },
    {
      "inputs": [
        {
          "internalType": "uint256",
          "name": "amount",
          "type": "uint256"
        },
        {
          "internalType": "bool",
          "name": "claim",
          "type": "bool"
        }
      ],
      "name": "withdrawAndUnwrap",
      "outputs": [
        {
          "internalType": "bool",
          "name": "",
          "type": "bool"
        }
      ],
      "stateMutability": "nonpayable",
      "type": "function"
    }
  ],
  "bytecode": "0x60806040526000600555600060065560006009556000600a556000600b553480156200002a57600080fd5b5060405162001ac438038062001ac48339810160408190526200004d91620000c2565b600494909455600180546001600160a01b03199081166001600160a01b039586161790915560008054821693851693909317909255600280548316918416919091179055600380549091169190921617905562000129565b80516001600160a01b0381168114620000bd57600080fd5b919050565b600080600080600060a08688031215620000db57600080fd5b85519450620000ed60208701620000a5565b9350620000fd60408701620000a5565b92506200010d60608701620000a5565b91506200011d60808701620000a5565b90509295509295909350565b61198b80620001396000396000f3fe608060405234801561001057600080fd5b506004361061021b5760003560e01c80637050ccd911610125578063c32e7202116100ad578063df136d651161007c578063df136d6514610448578063ebe2b12b14610451578063f10684541461045a578063f14faf6f14610463578063f7c618c11461047657600080fd5b8063c32e72021461041c578063c8f33c911461042f578063cd3daf9d14610438578063d55a23f41461044057600080fd5b806380faa57d116100f457806380faa57d146103d05780638b876347146103d85780638dcb4061146103f8578063901a7d5314610400578063a694fc3a1461040957600080fd5b80637050ccd91461037857806370a082311461038b57806372f702f3146103b45780637b0a47ee146103c757600080fd5b806338d07436116101a8578063570ca73511610177578063570ca7351461032d578063590a41f5146103405780635e43c47b1461035357806363d38c3b146103665780636c8bcee81461036f57600080fd5b806338d07436146102ec5780633d18b912146102ff57806340c354461461030757806349f039a21461031a57600080fd5b80630fb5a6b4116101ef5780630fb5a6b41461029b57806318160ddd146102a55780631c1c6fe5146102ad578063262d3d6d146102c05780632ee40908146102c957600080fd5b80628cc262146102205780630569d388146102465780630700037d146102505780630f4ef8a614610270575b600080fd5b61023361022e3660046116e5565b610489565b6040519081526020015b60405180910390f35b61024e610508565b005b61023361025e3660046116e5565b600e6020526000908152604090205481565b600354610283906001600160a01b031681565b6040516001600160a01b03909116815260200161023d565b61023362093a8081565b600c54610233565b61024e6102bb36600461170e565b610549565b610233600b5481565b6102dc6102d736600461172b565b610567565b604051901515815260200161023d565b6102dc6102fa366004611755565b610764565b6102dc61095b565b610283610315366004611785565b610970565b61024e61032836600461170e565b61099a565b600254610283906001600160a01b031681565b6102dc61034e366004611785565b6109b4565b6102dc6103613660046116e5565b610a89565b61023360095481565b61023361033e81565b6102dc61038636600461179e565b610b54565b6102336103993660046116e5565b6001600160a01b03166000908152600f602052604090205490565b600154610283906001600160a01b031681565b61023360065481565b610233610d4c565b6102336103e63660046116e5565b600d6020526000908152604090205481565b6102dc610d5f565b610233600a5481565b6102dc610417366004611785565b610de4565b6102dc61042a366004611755565b610fc7565b61023360075481565b6102336111a4565b601054610233565b61023360085481565b61023360055481565b61023360045481565b6102dc610471366004611785565b6111f5565b600054610283906001600160a01b031681565b6001600160a01b0381166000908152600e6020908152604080832054600d90925282205461050291906104fc90670de0b6b3a7640000906104f6906104d6906104d06111a4565b90611223565b6001600160a01b0388166000908152600f60205260409020545b90611236565b90611242565b9061124e565b92915050565b6003546001600160a01b0316331461053b5760405162461bcd60e51b8152600401610532906117ca565b60405180910390fd5b6105476010600061168f565b565b336000908152600f60205260409020546105639082610764565b5050565b6000826105726111a4565b60085561057d610d4c565b6007556001600160a01b038116156105c45761059881610489565b6001600160a01b0382166000908152600e6020908152604080832093909355600854600d909152919020555b600083116106145760405162461bcd60e51b815260206004820152601b60248201527f526577617264506f6f6c203a2043616e6e6f74207374616b65203000000000006044820152606401610532565b60005b6010548110156106b65760108181548110610634576106346117ef565b6000918252602090912001546040516356e4bb9760e11b81526001600160a01b038781166004830152602482018790529091169063adc9772e90604401600060405180830381600087803b15801561068b57600080fd5b505af115801561069f573d6000803e3d6000fd5b5050505080806106ae9061181b565b915050610617565b50600c546106c4908461124e565b600c556001600160a01b0384166000908152600f60205260409020546106ea908461124e565b6001600160a01b038086166000908152600f6020526040902091909155600154610717911633308661125a565b836001600160a01b03167f9e71bc8eea02a63969f509818f2dafb9254532904319f9dbda79b67bd34a5f3d8460405161075291815260200190565b60405180910390a25060019392505050565b60003361076f6111a4565b60085561077a610d4c565b6007556001600160a01b038116156107c15761079581610489565b6001600160a01b0382166000908152600e6020908152604080832093909355600854600d909152919020555b600084116108115760405162461bcd60e51b815260206004820152601e60248201527f526577617264506f6f6c203a2043616e6e6f74207769746864726177203000006044820152606401610532565b60005b6010548110156108b15760108181548110610831576108316117ef565b60009182526020909120015460405163f3fef3a360e01b8152336004820152602481018790526001600160a01b039091169063f3fef3a390604401600060405180830381600087803b15801561088657600080fd5b505af115801561089a573d6000803e3d6000fd5b5050505080806108a99061181b565b915050610814565b50600c546108bf9085611223565b600c55336000908152600f60205260409020546108dc9085611223565b336000818152600f6020526040902091909155600154610908916001600160a01b0390911690866112cb565b60405184815233907f7084f5476618d8e60b11ef0d7d3f06914655adb8793e28ff7f018d4c76d505d5906020015b60405180910390a282156109515761094f336001610b54565b505b5060019392505050565b6000610968336001610b54565b506001905090565b6010818154811061098057600080fd5b6000918252602090912001546001600160a01b0316905081565b336000908152600f60205260409020546105639082610fc7565b6002546000906001600160a01b031633146109e15760405162461bcd60e51b8152600401610532906117ca565b6009546109ef90839061124e565b91506005544210610a0f57610a0382611300565b50506000600955600190565b6000610a33610a2c62093a8060055461122390919063ffffffff16565b4290611223565b9050600081600654610a459190611834565b90506000610a59856104f6846103e8611236565b905061033e811015610a7857610a6e85611300565b6000600955610a7e565b60098590555b506001949350505050565b6003546000906001600160a01b03163314610ab65760405162461bcd60e51b8152600401610532906117ca565b6001600160a01b038216610afe5760405162461bcd60e51b815260206004820152600f60248201526e217265776172642073657474696e6760881b6044820152606401610532565b5060108054600180820183556000929092527f1b6847dc741a1b0cd08d278845f9d819d87b734759afb55fe2de5cb82a9ae6720180546001600160a01b0319166001600160a01b03939093169290921790915590565b600082610b5f6111a4565b600855610b6a610d4c565b6007556001600160a01b03811615610bb157610b8581610489565b6001600160a01b0382166000908152600e6020908152604080832093909355600854600d909152919020555b6000610bbc85610489565b90508015610c9f576001600160a01b038086166000908152600e6020526040812081905554610bed911686836112cb565b600254600480546040516371192b1760e01b8152918201526001600160a01b03878116602483015260448201849052909116906371192b1790606401600060405180830381600087803b158015610c4357600080fd5b505af1158015610c57573d6000803e3d6000fd5b50505050846001600160a01b03167fe2403640ba68fed3a2f88b7557551d1993f84b99bb10ff833f0cf8db0c5e048682604051610c9691815260200190565b60405180910390a25b8315610a7e5760005b601054811015610d405760108181548110610cc557610cc56117ef565b600091825260209091200154604051630c00007b60e41b81526001600160a01b0388811660048301529091169063c00007b090602401600060405180830381600087803b158015610d1557600080fd5b505af1158015610d29573d6000803e3d6000fd5b505050508080610d389061181b565b915050610ca8565b50506001949350505050565b6000610d5a42600554611426565b905090565b6001546040516370a0823160e01b815233600482015260009182916001600160a01b03909116906370a0823190602401602060405180830381865afa158015610dac573d6000803e3d6000fd5b505050506040513d601f19601f82011682018060405250810190610dd09190611853565b9050610ddb81610de4565b50600191505090565b600033610def6111a4565b600855610dfa610d4c565b6007556001600160a01b03811615610e4157610e1581610489565b6001600160a01b0382166000908152600e6020908152604080832093909355600854600d909152919020555b60008311610e915760405162461bcd60e51b815260206004820152601b60248201527f526577617264506f6f6c203a2043616e6e6f74207374616b65203000000000006044820152606401610532565b60005b601054811015610f315760108181548110610eb157610eb16117ef565b6000918252602090912001546040516356e4bb9760e11b8152336004820152602481018690526001600160a01b039091169063adc9772e90604401600060405180830381600087803b158015610f0657600080fd5b505af1158015610f1a573d6000803e3d6000fd5b505050508080610f299061181b565b915050610e94565b50600c54610f3f908461124e565b600c55336000908152600f6020526040902054610f5c908461124e565b336000818152600f6020526040902091909155600154610f89916001600160a01b0390911690308661125a565b60405183815233907f9e71bc8eea02a63969f509818f2dafb9254532904319f9dbda79b67bd34a5f3d9060200160405180910390a250600192915050565b600033610fd26111a4565b600855610fdd610d4c565b6007556001600160a01b0381161561102457610ff881610489565b6001600160a01b0382166000908152600e6020908152604080832093909355600854600d909152919020555b60005b6010548110156110c45760108181548110611044576110446117ef565b60009182526020909120015460405163f3fef3a360e01b8152336004820152602481018790526001600160a01b039091169063f3fef3a390604401600060405180830381600087803b15801561109957600080fd5b505af11580156110ad573d6000803e3d6000fd5b5050505080806110bc9061181b565b915050611027565b50600c546110d29085611223565b600c55336000908152600f60205260409020546110ef9085611223565b336000818152600f602052604090819020929092556002546004805493516305335c3960e21b8152908101939093526024830187905260448301919091526001600160a01b0316906314cd70e490606401600060405180830381600087803b15801561115a57600080fd5b505af115801561116e573d6000803e3d6000fd5b50506040518681523392507f7084f5476618d8e60b11ef0d7d3f06914655adb8793e28ff7f018d4c76d505d59150602001610936565b60006111af600c5490565b6000036111bd575060085490565b610d5a6111ec6111cc600c5490565b6104f6670de0b6b3a76400006104f06006546104f06007546104d0610d4c565b6008549061124e565b6000805461120e906001600160a01b031633308561125a565b60095461121b908361124e565b600955919050565b600061122f828461186c565b9392505050565b600061122f8284611834565b600061122f8284611883565b600061122f82846118a5565b6040516001600160a01b03808516602483015283166044820152606481018290526112c59085906323b872dd60e01b906084015b60408051601f198184030181529190526020810180516001600160e01b03166001600160e01b03199093169290921790915261143c565b50505050565b6040516001600160a01b0383166024820152604481018290526112fb90849063a9059cbb60e01b9060640161128e565b505050565b600061130a6111a4565b600855611315610d4c565b6007556001600160a01b0381161561135c5761133081610489565b6001600160a01b0382166000908152600e6020908152604080832093909355600854600d909152919020555b600b54611369908361124e565b600b55600554421061138a576113828262093a80611242565b6006556113d4565b60055460009061139a9042611223565b905060006113b36006548361123690919063ffffffff16565b90506113bf848261124e565b93506113ce8462093a80611242565b60065550505b600a8290554260078190556113ec9062093a8061124e565b6005556040518281527fde88a922e0d3b88b24e9623efeb464919c6bf9f66857a65e2bfcf2ce87a9433d9060200160405180910390a15050565b6000818310611435578161122f565b5090919050565b6000611491826040518060400160405280602081526020017f5361666545524332303a206c6f772d6c6576656c2063616c6c206661696c6564815250856001600160a01b031661150e9092919063ffffffff16565b8051909150156112fb57808060200190518101906114af91906118bd565b6112fb5760405162461bcd60e51b815260206004820152602a60248201527f5361666545524332303a204552433230206f7065726174696f6e20646964206e6044820152691bdd081cdd58d8d9595960b21b6064820152608401610532565b606061151d8484600085611525565b949350505050565b6060824710156115865760405162461bcd60e51b815260206004820152602660248201527f416464726573733a20696e73756666696369656e742062616c616e636520666f6044820152651c8818d85b1b60d21b6064820152608401610532565b6001600160a01b0385163b6115dd5760405162461bcd60e51b815260206004820152601d60248201527f416464726573733a2063616c6c20746f206e6f6e2d636f6e74726163740000006044820152606401610532565b600080866001600160a01b031685876040516115f99190611906565b60006040518083038185875af1925050503d8060008114611636576040519150601f19603f3d011682016040523d82523d6000602084013e61163b565b606091505b509150915061164b828286611656565b979650505050505050565b6060831561166557508161122f565b8251156116755782518084602001fd5b8160405162461bcd60e51b81526004016105329190611922565b50805460008255906000526020600020908101906116ad91906116b0565b50565b5b808211156116c557600081556001016116b1565b5090565b80356001600160a01b03811681146116e057600080fd5b919050565b6000602082840312156116f757600080fd5b61122f826116c9565b80151581146116ad57600080fd5b60006020828403121561172057600080fd5b813561122f81611700565b6000806040838503121561173e57600080fd5b611747836116c9565b946020939093013593505050565b6000806040838503121561176857600080fd5b82359150602083013561177a81611700565b809150509250929050565b60006020828403121561179757600080fd5b5035919050565b600080604083850312156117b157600080fd5b6117ba836116c9565b9150602083013561177a81611700565b6020808252600b908201526a08585d5d1a1bdc9a5e995960aa1b604082015260600190565b634e487b7160e01b600052603260045260246000fd5b634e487b7160e01b600052601160045260246000fd5b60006001820161182d5761182d611805565b5060010190565b600081600019048311821515161561184e5761184e611805565b500290565b60006020828403121561186557600080fd5b5051919050565b60008282101561187e5761187e611805565b500390565b6000826118a057634e487b7160e01b600052601260045260246000fd5b500490565b600082198211156118b8576118b8611805565b500190565b6000602082840312156118cf57600080fd5b815161122f81611700565b60005b838110156118f55781810151838201526020016118dd565b838111156112c55750506000910152565b600082516119188184602087016118da565b9190910192915050565b60208152600082518060208401526119418160408501602087016118da565b601f01601f1916919091016040019291505056fea26469706673582212206e1a563bb4c1d3e6cd770b0514ae29f6a6d69252a4e590cf87b625774b45d98364736f6c634300080d0033",
  "linkReferences": {},
  "deployedLinkReferences": {}
}