{
  "_format": "hh-sol-artifact-1",
  "contractName": "BaseRewardPool",
  "sourceName": "contracts/BaseRewardPool.sol",
  "abi": [
    {
      "inputs": [
        {
          "internalType": "uint256",
          "name": "pid_",
          "type": "uint256"
        },
        {
          "internalType": "address",
          "name": "stakingToken_",
          "type": "address"
        },
        {
          "internalType": "address",
          "name": "rewardToken_",
          "type": "address"
        },
        {
          "internalType": "address",
          "name": "operator_",
          "type": "address"
        },
        {
          "internalType": "address",
          "name": "rewardManager_",
          "type": "address"
        }
      ],
      "stateMutability": "nonpayable",
      "type": "constructor"
    },
    {
      "anonymous": false,
      "inputs": [
        {
          "indexed": false,
          "internalType": "uint256",
          "name": "reward",
          "type": "uint256"
        }
      ],
      "name": "RewardAdded",
      "type": "event"
    },
    {
      "anonymous": false,
      "inputs": [
        {
          "indexed": true,
          "internalType": "address",
          "name": "user",
          "type": "address"
        },
        {
          "indexed": false,
          "internalType": "uint256",
          "name": "reward",
          "type": "uint256"
        }
      ],
      "name": "RewardPaid",
      "type": "event"
    },
    {
      "anonymous": false,
      "inputs": [
        {
          "indexed": true,
          "internalType": "address",
          "name": "user",
          "type": "address"
        },
        {
          "indexed": false,
          "internalType": "uint256",
          "name": "amount",
          "type": "uint256"
        }
      ],
      "name": "Staked",
      "type": "event"
    },
    {
      "anonymous": false,
      "inputs": [
        {
          "indexed": true,
          "internalType": "address",
          "name": "user",
          "type": "address"
        },
        {
          "indexed": false,
          "internalType": "uint256",
          "name": "amount",
          "type": "uint256"
        }
      ],
      "name": "Withdrawn",
      "type": "event"
    },
    {
      "inputs": [],
      "name": "DURATION",
      "outputs": [
        {
          "internalType": "uint256",
          "name": "",
          "type": "uint256"
        }
      ],
      "stateMutability": "view",
      "type": "function"
    },
    {
      "inputs": [
        {
          "internalType": "address",
          "name": "_reward",
          "type": "address"
        }
      ],
      "name": "addExtraReward",
      "outputs": [
        {
          "internalType": "bool",
          "name": "",
          "type": "bool"
        }
      ],
      "stateMutability": "nonpayable",
      "type": "function"
    },
    {
      "inputs": [
        {
          "internalType": "address",
          "name": "account",
          "type": "address"
        }
      ],
      "name": "balanceOf",
      "outputs": [
        {
          "internalType": "uint256",
          "name": "",
          "type": "uint256"
        }
      ],
      "stateMutability": "view",
      "type": "function"
    },
    {
      "inputs": [],
      "name": "clearExtraRewards",
      "outputs": [],
      "stateMutability": "nonpayable",
      "type": "function"
    },
    {
      "inputs": [],
      "name": "currentRewards",
      "outputs": [
        {
          "internalType": "uint256",
          "name": "",
          "type": "uint256"
        }
      ],
      "stateMutability": "view",
      "type": "function"
    },
    {
      "inputs": [
        {
          "internalType": "uint256",
          "name": "_amount",
          "type": "uint256"
        }
      ],
      "name": "donate",
      "outputs": [
        {
          "internalType": "bool",
          "name": "",
          "type": "bool"
        }
      ],
      "stateMutability": "nonpayable",
      "type": "function"
    },
    {
      "inputs": [
        {
          "internalType": "address",
          "name": "account",
          "type": "address"
        }
      ],
      "name": "earned",
      "outputs": [
        {
          "internalType": "uint256",
          "name": "",
          "type": "uint256"
        }
      ],
      "stateMutability": "view",
      "type": "function"
    },
    {
      "inputs": [
        {
          "internalType": "uint256",
          "name": "",
          "type": "uint256"
        }
      ],
      "name": "extraRewards",
      "outputs": [
        {
          "internalType": "address",
          "name": "",
          "type": "address"
        }
      ],
      "stateMutability": "view",
      "type": "function"
    },
    {
      "inputs": [],
      "name": "extraRewardsLength",
      "outputs": [
        {
          "internalType": "uint256",
          "name": "",
          "type": "uint256"
        }
      ],
      "stateMutability": "view",
      "type": "function"
    },
    {
      "inputs": [],
      "name": "getReward",
      "outputs": [
        {
          "internalType": "bool",
          "name": "",
          "type": "bool"
        }
      ],
      "stateMutability": "nonpayable",
      "type": "function"
    },
    {
      "inputs": [
        {
          "internalType": "address",
          "name": "_account",
          "type": "address"
        },
        {
          "internalType": "bool",
          "name": "_claimExtras",
          "type": "bool"
        }
      ],
      "name": "getReward",
      "outputs": [
        {
          "internalType": "bool",
          "name": "",
          "type": "bool"
        }
      ],
      "stateMutability": "nonpayable",
      "type": "function"
    },
    {
      "inputs": [],
      "name": "historicalRewards",
      "outputs": [
        {
          "internalType": "uint256",
          "name": "",
          "type": "uint256"
        }
      ],
      "stateMutability": "view",
      "type": "function"
    },
    {
      "inputs": [],
      "name": "lastTimeRewardApplicable",
      "outputs": [
        {
          "internalType": "uint256",
          "name": "",
          "type": "uint256"
        }
      ],
      "stateMutability": "view",
      "type": "function"
    },
    {
      "inputs": [],
      "name": "lastUpdateTime",
      "outputs": [
        {
          "internalType": "uint256",
          "name": "",
          "type": "uint256"
        }
      ],
      "stateMutability": "view",
      "type": "function"
    },
    {
      "inputs": [],
      "name": "newRewardRatio",
      "outputs": [
        {
          "internalType": "uint256",
          "name": "",
          "type": "uint256"
        }
      ],
      "stateMutability": "view",
      "type": "function"
    },
    {
      "inputs": [],
      "name": "operator",
      "outputs": [
        {
          "internalType": "address",
          "name": "",
          "type": "address"
        }
      ],
      "stateMutability": "view",
      "type": "function"
    },
    {
      "inputs": [],
      "name": "periodFinish",
      "outputs": [
        {
          "internalType": "uint256",
          "name": "",
          "type": "uint256"
        }
      ],
      "stateMutability": "view",
      "type": "function"
    },
    {
      "inputs": [],
      "name": "pid",
      "outputs": [
        {
          "internalType": "uint256",
          "name": "",
          "type": "uint256"
        }
      ],
      "stateMutability": "view",
      "type": "function"
    },
    {
      "inputs": [
        {
          "internalType": "uint256",
          "name": "_rewards",
          "type": "uint256"
        }
      ],
      "name": "queueNewRewards",
      "outputs": [
        {
          "internalType": "bool",
          "name": "",
          "type": "bool"
        }
      ],
      "stateMutability": "nonpayable",
      "type": "function"
    },
    {
      "inputs": [],
      "name": "queuedRewards",
      "outputs": [
        {
          "internalType": "uint256",
          "name": "",
          "type": "uint256"
        }
      ],
      "stateMutability": "view",
      "type": "function"
    },
    {
      "inputs": [],
      "name": "rewardManager",
      "outputs": [
        {
          "internalType": "address",
          "name": "",
          "type": "address"
        }
      ],
      "stateMutability": "view",
      "type": "function"
    },
    {
      "inputs": [],
      "name": "rewardPerToken",
      "outputs": [
        {
          "internalType": "uint256",
          "name": "",
          "type": "uint256"
        }
      ],
      "stateMutability": "view",
      "type": "function"
    },
    {
      "inputs": [],
      "name": "rewardPerTokenStored",
      "outputs": [
        {
          "internalType": "uint256",
          "name": "",
          "type": "uint256"
        }
      ],
      "stateMutability": "view",
      "type": "function"
    },
    {
      "inputs": [],
      "name": "rewardRate",
      "outputs": [
        {
          "internalType": "uint256",
          "name": "",
          "type": "uint256"
        }
      ],
      "stateMutability": "view",
      "type": "function"
    },
    {
      "inputs": [],
      "name": "rewardToken",
      "outputs": [
        {
          "internalType": "contract IERC20",
          "name": "",
          "type": "address"
        }
      ],
      "stateMutability": "view",
      "type": "function"
    },
    {
      "inputs": [
        {
          "internalType": "address",
          "name": "",
          "type": "address"
        }
      ],
      "name": "rewards",
      "outputs": [
        {
          "internalType": "uint256",
          "name": "",
          "type": "uint256"
        }
      ],
      "stateMutability": "view",
      "type": "function"
    },
    {
      "inputs": [
        {
          "internalType": "uint256",
          "name": "_amount",
          "type": "uint256"
        }
      ],
      "name": "stake",
      "outputs": [
        {
          "internalType": "bool",
          "name": "",
          "type": "bool"
        }
      ],
      "stateMutability": "nonpayable",
      "type": "function"
    },
    {
      "inputs": [],
      "name": "stakeAll",
      "outputs": [
        {
          "internalType": "bool",
          "name": "",
          "type": "bool"
        }
      ],
      "stateMutability": "nonpayable",
      "type": "function"
    },
    {
      "inputs": [
        {
          "internalType": "address",
          "name": "_for",
          "type": "address"
        },
        {
          "internalType": "uint256",
          "name": "_amount",
          "type": "uint256"
        }
      ],
      "name": "stakeFor",
      "outputs": [
        {
          "internalType": "bool",
          "name": "",
          "type": "bool"
        }
      ],
      "stateMutability": "nonpayable",
      "type": "function"
    },
    {
      "inputs": [],
      "name": "stakingToken",
      "outputs": [
        {
          "internalType": "contract IERC20",
          "name": "",
          "type": "address"
        }
      ],
      "stateMutability": "view",
      "type": "function"
    },
    {
      "inputs": [],
      "name": "totalSupply",
      "outputs": [
        {
          "internalType": "uint256",
          "name": "",
          "type": "uint256"
        }
      ],
      "stateMutability": "view",
      "type": "function"
    },
    {
      "inputs": [
        {
          "internalType": "address",
          "name": "",
          "type": "address"
        }
      ],
      "name": "userRewardPerTokenPaid",
      "outputs": [
        {
          "internalType": "uint256",
          "name": "",
          "type": "uint256"
        }
      ],
      "stateMutability": "view",
      "type": "function"
    },
    {
      "inputs": [
        {
          "internalType": "uint256",
          "name": "amount",
          "type": "uint256"
        },
        {
          "internalType": "bool",
          "name": "claim",
          "type": "bool"
        }
      ],
      "name": "withdraw",
      "outputs": [
        {
          "internalType": "bool",
          "name": "",
          "type": "bool"
        }
      ],
      "stateMutability": "nonpayable",
      "type": "function"
    },
    {
      "inputs": [],
      "name": "withdrawAll",
      "outputs": [],
      "stateMutability": "nonpayable",
      "type": "function"
    },
    {
      "inputs": [
        {
          "internalType": "bool",
          "name": "claim",
          "type": "bool"
        }
      ],
      "name": "withdrawAllAndUnwrap",
      "outputs": [],
      "stateMutability": "nonpayable",
      "type": "function"
    },
    {
      "inputs": [
        {
          "internalType": "uint256",
          "name": "amount",
          "type": "uint256"
        },
        {
          "internalType": "bool",
          "name": "claim",
          "type": "bool"
        }
      ],
      "name": "withdrawAndUnwrap",
      "outputs": [
        {
          "internalType": "bool",
          "name": "",
          "type": "bool"
        }
      ],
      "stateMutability": "nonpayable",
      "type": "function"
    }
  ],
  "bytecode": "0x60806040526000600555600060065560006009556000600a556000600b553480156200002a57600080fd5b5060405162001abc38038062001abc8339810160408190526200004d91620000c2565b600494909455600180546001600160a01b03199081166001600160a01b039586161790915560008054821693851693909317909255600280548316918416919091179055600380549091169190921617905562000129565b80516001600160a01b0381168114620000bd57600080fd5b919050565b600080600080600060a08688031215620000db57600080fd5b85519450620000ed60208701620000a5565b9350620000fd60408701620000a5565b92506200010d60608701620000a5565b91506200011d60808701620000a5565b90509295509295909350565b61198380620001396000396000f3fe608060405234801561001057600080fd5b506004361061021b5760003560e01c806370a0823111610125578063c32e7202116100ad578063df136d651161007c578063df136d651461043d578063ebe2b12b14610446578063f10684541461044f578063f14faf6f14610458578063f7c618c11461046b57600080fd5b8063c32e720214610411578063c8f33c9114610424578063cd3daf9d1461042d578063d55a23f41461043557600080fd5b8063853828b6116100f4578063853828b6146103c55780638b876347146103cd5780638dcb4061146103ed578063901a7d53146103f5578063a694fc3a146103fe57600080fd5b806370a082311461037857806372f702f3146103a15780637b0a47ee146103b457806380faa57d146103bd57600080fd5b80633d18b912116101a8578063590a41f511610177578063590a41f51461032d5780635e43c47b1461034057806363d38c3b146103535780636c8bcee81461035c5780637050ccd91461036557600080fd5b80633d18b912146102ec57806340c35446146102f457806349f039a214610307578063570ca7351461031a57600080fd5b806318160ddd116101ef57806318160ddd1461029b5780631be05289146102a3578063262d3d6d146102ad5780632ee40908146102b657806338d07436146102d957600080fd5b80628cc262146102205780630569d388146102465780630700037d146102505780630f4ef8a614610270575b600080fd5b61023361022e3660046116dd565b61047e565b6040519081526020015b60405180910390f35b61024e6104fd565b005b61023361025e3660046116dd565b600e6020526000908152604090205481565b600354610283906001600160a01b031681565b6040516001600160a01b03909116815260200161023d565b600c54610233565b61023362093a8081565b610233600b5481565b6102c96102c43660046116f8565b61053e565b604051901515815260200161023d565b6102c96102e7366004611730565b61073b565b6102c9610932565b610283610302366004611760565b610947565b61024e610315366004611779565b610971565b600254610283906001600160a01b031681565b6102c961033b366004611760565b61098f565b6102c961034e3660046116dd565b610a64565b61023360095481565b61023361033e81565b6102c9610373366004611796565b610b2f565b6102336103863660046116dd565b6001600160a01b03166000908152600f602052604090205490565b600154610283906001600160a01b031681565b61023360065481565b610233610d27565b61024e610d3a565b6102336103db3660046116dd565b600d6020526000908152604090205481565b6102c9610d57565b610233600a5481565b6102c961040c366004611760565b610ddc565b6102c961041f366004611730565b610fbf565b61023360075481565b61023361119c565b601054610233565b61023360085481565b61023360055481565b61023360045481565b6102c9610466366004611760565b6111ed565b600054610283906001600160a01b031681565b6001600160a01b0381166000908152600e6020908152604080832054600d9092528220546104f791906104f190670de0b6b3a7640000906104eb906104cb906104c561119c565b9061121b565b6001600160a01b0388166000908152600f60205260409020545b9061122e565b9061123a565b90611246565b92915050565b6003546001600160a01b031633146105305760405162461bcd60e51b8152600401610527906117c2565b60405180910390fd5b61053c60106000611687565b565b60008261054961119c565b600855610554610d27565b6007556001600160a01b0381161561059b5761056f8161047e565b6001600160a01b0382166000908152600e6020908152604080832093909355600854600d909152919020555b600083116105eb5760405162461bcd60e51b815260206004820152601b60248201527f526577617264506f6f6c203a2043616e6e6f74207374616b65203000000000006044820152606401610527565b60005b60105481101561068d576010818154811061060b5761060b6117e7565b6000918252602090912001546040516356e4bb9760e11b81526001600160a01b038781166004830152602482018790529091169063adc9772e90604401600060405180830381600087803b15801561066257600080fd5b505af1158015610676573d6000803e3d6000fd5b50505050808061068590611813565b9150506105ee565b50600c5461069b9084611246565b600c556001600160a01b0384166000908152600f60205260409020546106c19084611246565b6001600160a01b038086166000908152600f60205260409020919091556001546106ee9116333086611252565b836001600160a01b03167f9e71bc8eea02a63969f509818f2dafb9254532904319f9dbda79b67bd34a5f3d8460405161072991815260200190565b60405180910390a25060019392505050565b60003361074661119c565b600855610751610d27565b6007556001600160a01b038116156107985761076c8161047e565b6001600160a01b0382166000908152600e6020908152604080832093909355600854600d909152919020555b600084116107e85760405162461bcd60e51b815260206004820152601e60248201527f526577617264506f6f6c203a2043616e6e6f74207769746864726177203000006044820152606401610527565b60005b6010548110156108885760108181548110610808576108086117e7565b60009182526020909120015460405163f3fef3a360e01b8152336004820152602481018790526001600160a01b039091169063f3fef3a390604401600060405180830381600087803b15801561085d57600080fd5b505af1158015610871573d6000803e3d6000fd5b50505050808061088090611813565b9150506107eb565b50600c54610896908561121b565b600c55336000908152600f60205260409020546108b3908561121b565b336000818152600f60205260409020919091556001546108df916001600160a01b0390911690866112c3565b60405184815233907f7084f5476618d8e60b11ef0d7d3f06914655adb8793e28ff7f018d4c76d505d5906020015b60405180910390a2821561092857610926336001610b2f565b505b5060019392505050565b600061093f336001610b2f565b506001905090565b6010818154811061095757600080fd5b6000918252602090912001546001600160a01b0316905081565b336000908152600f602052604090205461098b9082610fbf565b5050565b6002546000906001600160a01b031633146109bc5760405162461bcd60e51b8152600401610527906117c2565b6009546109ca908390611246565b915060055442106109ea576109de826112f8565b50506000600955600190565b6000610a0e610a0762093a8060055461121b90919063ffffffff16565b429061121b565b9050600081600654610a20919061182c565b90506000610a34856104eb846103e861122e565b905061033e811015610a5357610a49856112f8565b6000600955610a59565b60098590555b506001949350505050565b6003546000906001600160a01b03163314610a915760405162461bcd60e51b8152600401610527906117c2565b6001600160a01b038216610ad95760405162461bcd60e51b815260206004820152600f60248201526e217265776172642073657474696e6760881b6044820152606401610527565b5060108054600180820183556000929092527f1b6847dc741a1b0cd08d278845f9d819d87b734759afb55fe2de5cb82a9ae6720180546001600160a01b0319166001600160a01b03939093169290921790915590565b600082610b3a61119c565b600855610b45610d27565b6007556001600160a01b03811615610b8c57610b608161047e565b6001600160a01b0382166000908152600e6020908152604080832093909355600854600d909152919020555b6000610b978561047e565b90508015610c7a576001600160a01b038086166000908152600e6020526040812081905554610bc8911686836112c3565b600254600480546040516371192b1760e01b8152918201526001600160a01b03878116602483015260448201849052909116906371192b1790606401600060405180830381600087803b158015610c1e57600080fd5b505af1158015610c32573d6000803e3d6000fd5b50505050846001600160a01b03167fe2403640ba68fed3a2f88b7557551d1993f84b99bb10ff833f0cf8db0c5e048682604051610c7191815260200190565b60405180910390a25b8315610a595760005b601054811015610d1b5760108181548110610ca057610ca06117e7565b600091825260209091200154604051630c00007b60e41b81526001600160a01b0388811660048301529091169063c00007b090602401600060405180830381600087803b158015610cf057600080fd5b505af1158015610d04573d6000803e3d6000fd5b505050508080610d1390611813565b915050610c83565b50506001949350505050565b6000610d354260055461141e565b905090565b336000908152600f602052604090205460019061098b908261073b565b6001546040516370a0823160e01b815233600482015260009182916001600160a01b03909116906370a0823190602401602060405180830381865afa158015610da4573d6000803e3d6000fd5b505050506040513d601f19601f82011682018060405250810190610dc8919061184b565b9050610dd381610ddc565b50600191505090565b600033610de761119c565b600855610df2610d27565b6007556001600160a01b03811615610e3957610e0d8161047e565b6001600160a01b0382166000908152600e6020908152604080832093909355600854600d909152919020555b60008311610e895760405162461bcd60e51b815260206004820152601b60248201527f526577617264506f6f6c203a2043616e6e6f74207374616b65203000000000006044820152606401610527565b60005b601054811015610f295760108181548110610ea957610ea96117e7565b6000918252602090912001546040516356e4bb9760e11b8152336004820152602481018690526001600160a01b039091169063adc9772e90604401600060405180830381600087803b158015610efe57600080fd5b505af1158015610f12573d6000803e3d6000fd5b505050508080610f2190611813565b915050610e8c565b50600c54610f379084611246565b600c55336000908152600f6020526040902054610f549084611246565b336000818152600f6020526040902091909155600154610f81916001600160a01b03909116903086611252565b60405183815233907f9e71bc8eea02a63969f509818f2dafb9254532904319f9dbda79b67bd34a5f3d9060200160405180910390a250600192915050565b600033610fca61119c565b600855610fd5610d27565b6007556001600160a01b0381161561101c57610ff08161047e565b6001600160a01b0382166000908152600e6020908152604080832093909355600854600d909152919020555b60005b6010548110156110bc576010818154811061103c5761103c6117e7565b60009182526020909120015460405163f3fef3a360e01b8152336004820152602481018790526001600160a01b039091169063f3fef3a390604401600060405180830381600087803b15801561109157600080fd5b505af11580156110a5573d6000803e3d6000fd5b5050505080806110b490611813565b91505061101f565b50600c546110ca908561121b565b600c55336000908152600f60205260409020546110e7908561121b565b336000818152600f602052604090819020929092556002546004805493516305335c3960e21b8152908101939093526024830187905260448301919091526001600160a01b0316906314cd70e490606401600060405180830381600087803b15801561115257600080fd5b505af1158015611166573d6000803e3d6000fd5b50506040518681523392507f7084f5476618d8e60b11ef0d7d3f06914655adb8793e28ff7f018d4c76d505d5915060200161090d565b60006111a7600c5490565b6000036111b5575060085490565b610d356111e46111c4600c5490565b6104eb670de0b6b3a76400006104e56006546104e56007546104c5610d27565b60085490611246565b60008054611206906001600160a01b0316333085611252565b6009546112139083611246565b600955919050565b60006112278284611864565b9392505050565b6000611227828461182c565b6000611227828461187b565b6000611227828461189d565b6040516001600160a01b03808516602483015283166044820152606481018290526112bd9085906323b872dd60e01b906084015b60408051601f198184030181529190526020810180516001600160e01b03166001600160e01b031990931692909217909152611434565b50505050565b6040516001600160a01b0383166024820152604481018290526112f390849063a9059cbb60e01b90606401611286565b505050565b600061130261119c565b60085561130d610d27565b6007556001600160a01b03811615611354576113288161047e565b6001600160a01b0382166000908152600e6020908152604080832093909355600854600d909152919020555b600b546113619083611246565b600b5560055442106113825761137a8262093a8061123a565b6006556113cc565b600554600090611392904261121b565b905060006113ab6006548361122e90919063ffffffff16565b90506113b78482611246565b93506113c68462093a8061123a565b60065550505b600a8290554260078190556113e49062093a80611246565b6005556040518281527fde88a922e0d3b88b24e9623efeb464919c6bf9f66857a65e2bfcf2ce87a9433d9060200160405180910390a15050565b600081831061142d5781611227565b5090919050565b6000611489826040518060400160405280602081526020017f5361666545524332303a206c6f772d6c6576656c2063616c6c206661696c6564815250856001600160a01b03166115069092919063ffffffff16565b8051909150156112f357808060200190518101906114a791906118b5565b6112f35760405162461bcd60e51b815260206004820152602a60248201527f5361666545524332303a204552433230206f7065726174696f6e20646964206e6044820152691bdd081cdd58d8d9595960b21b6064820152608401610527565b6060611515848460008561151d565b949350505050565b60608247101561157e5760405162461bcd60e51b815260206004820152602660248201527f416464726573733a20696e73756666696369656e742062616c616e636520666f6044820152651c8818d85b1b60d21b6064820152608401610527565b6001600160a01b0385163b6115d55760405162461bcd60e51b815260206004820152601d60248201527f416464726573733a2063616c6c20746f206e6f6e2d636f6e74726163740000006044820152606401610527565b600080866001600160a01b031685876040516115f191906118fe565b60006040518083038185875af1925050503d806000811461162e576040519150601f19603f3d011682016040523d82523d6000602084013e611633565b606091505b509150915061164382828661164e565b979650505050505050565b6060831561165d575081611227565b82511561166d5782518084602001fd5b8160405162461bcd60e51b8152600401610527919061191a565b50805460008255906000526020600020908101906116a591906116a8565b50565b5b808211156116bd57600081556001016116a9565b5090565b80356001600160a01b03811681146116d857600080fd5b919050565b6000602082840312156116ef57600080fd5b611227826116c1565b6000806040838503121561170b57600080fd5b611714836116c1565b946020939093013593505050565b80151581146116a557600080fd5b6000806040838503121561174357600080fd5b82359150602083013561175581611722565b809150509250929050565b60006020828403121561177257600080fd5b5035919050565b60006020828403121561178b57600080fd5b813561122781611722565b600080604083850312156117a957600080fd5b6117b2836116c1565b9150602083013561175581611722565b6020808252600b908201526a08585d5d1a1bdc9a5e995960aa1b604082015260600190565b634e487b7160e01b600052603260045260246000fd5b634e487b7160e01b600052601160045260246000fd5b600060018201611825576118256117fd565b5060010190565b6000816000190483118215151615611846576118466117fd565b500290565b60006020828403121561185d57600080fd5b5051919050565b600082821015611876576118766117fd565b500390565b60008261189857634e487b7160e01b600052601260045260246000fd5b500490565b600082198211156118b0576118b06117fd565b500190565b6000602082840312156118c757600080fd5b815161122781611722565b60005b838110156118ed5781810151838201526020016118d5565b838111156112bd5750506000910152565b600082516119108184602087016118d2565b9190910192915050565b60208152600082518060208401526119398160408501602087016118d2565b601f01601f1916919091016040019291505056fea26469706673582212206a8f053136d4204a89536cb8ee54b1c8d60488528c7c798b6b30531f9a6ce9b364736f6c634300080d0033",
  "linkReferences": {},
  "deployedLinkReferences": {}
}