{
  "_format": "hh-sol-artifact-1",
  "contractName": "WETHBALMock",
  "sourceName": "contracts/test/WETHBALMock.sol",
  "abi": [
    {
      "inputs": [
        {
          "internalType": "string",
          "name": "tokenName",
          "type": "string"
        },
        {
          "internalType": "string",
          "name": "tokenSymbol",
          "type": "string"
        }
      ],
      "stateMutability": "nonpayable",
      "type": "constructor"
    },
    {
      "anonymous": false,
      "inputs": [
        {
          "indexed": true,
          "internalType": "address",
          "name": "owner",
          "type": "address"
        },
        {
          "indexed": true,
          "internalType": "address",
          "name": "spender",
          "type": "address"
        },
        {
          "indexed": false,
          "internalType": "uint256",
          "name": "value",
          "type": "uint256"
        }
      ],
      "name": "Approval",
      "type": "event"
    },
    {
      "anonymous": false,
      "inputs": [
        {
          "indexed": true,
          "internalType": "address",
          "name": "from",
          "type": "address"
        },
        {
          "indexed": true,
          "internalType": "address",
          "name": "to",
          "type": "address"
        },
        {
          "indexed": false,
          "internalType": "uint256",
          "name": "value",
          "type": "uint256"
        }
      ],
      "name": "Transfer",
      "type": "event"
    },
    {
      "inputs": [],
      "name": "DOMAIN_SEPARATOR",
      "outputs": [
        {
          "internalType": "bytes32",
          "name": "",
          "type": "bytes32"
        }
      ],
      "stateMutability": "view",
      "type": "function"
    },
    {
      "inputs": [
        {
          "internalType": "address",
          "name": "owner",
          "type": "address"
        },
        {
          "internalType": "address",
          "name": "spender",
          "type": "address"
        }
      ],
      "name": "allowance",
      "outputs": [
        {
          "internalType": "uint256",
          "name": "",
          "type": "uint256"
        }
      ],
      "stateMutability": "view",
      "type": "function"
    },
    {
      "inputs": [
        {
          "internalType": "address",
          "name": "spender",
          "type": "address"
        },
        {
          "internalType": "uint256",
          "name": "amount",
          "type": "uint256"
        }
      ],
      "name": "approve",
      "outputs": [
        {
          "internalType": "bool",
          "name": "",
          "type": "bool"
        }
      ],
      "stateMutability": "nonpayable",
      "type": "function"
    },
    {
      "inputs": [
        {
          "internalType": "address",
          "name": "account",
          "type": "address"
        }
      ],
      "name": "balanceOf",
      "outputs": [
        {
          "internalType": "uint256",
          "name": "",
          "type": "uint256"
        }
      ],
      "stateMutability": "view",
      "type": "function"
    },
    {
      "inputs": [],
      "name": "decimals",
      "outputs": [
        {
          "internalType": "uint8",
          "name": "",
          "type": "uint8"
        }
      ],
      "stateMutability": "pure",
      "type": "function"
    },
    {
      "inputs": [
        {
          "internalType": "address",
          "name": "spender",
          "type": "address"
        },
        {
          "internalType": "uint256",
          "name": "amount",
          "type": "uint256"
        }
      ],
      "name": "decreaseApproval",
      "outputs": [
        {
          "internalType": "bool",
          "name": "",
          "type": "bool"
        }
      ],
      "stateMutability": "nonpayable",
      "type": "function"
    },
    {
      "inputs": [
        {
          "internalType": "address",
          "name": "spender",
          "type": "address"
        },
        {
          "internalType": "uint256",
          "name": "amount",
          "type": "uint256"
        }
      ],
      "name": "increaseApproval",
      "outputs": [
        {
          "internalType": "bool",
          "name": "",
          "type": "bool"
        }
      ],
      "stateMutability": "nonpayable",
      "type": "function"
    },
    {
      "inputs": [],
      "name": "name",
      "outputs": [
        {
          "internalType": "string",
          "name": "",
          "type": "string"
        }
      ],
      "stateMutability": "view",
      "type": "function"
    },
    {
      "inputs": [
        {
          "internalType": "address",
          "name": "owner",
          "type": "address"
        }
      ],
      "name": "nonces",
      "outputs": [
        {
          "internalType": "uint256",
          "name": "",
          "type": "uint256"
        }
      ],
      "stateMutability": "view",
      "type": "function"
    },
    {
      "inputs": [
        {
          "internalType": "address",
          "name": "owner",
          "type": "address"
        },
        {
          "internalType": "address",
          "name": "spender",
          "type": "address"
        },
        {
          "internalType": "uint256",
          "name": "value",
          "type": "uint256"
        },
        {
          "internalType": "uint256",
          "name": "deadline",
          "type": "uint256"
        },
        {
          "internalType": "uint8",
          "name": "v",
          "type": "uint8"
        },
        {
          "internalType": "bytes32",
          "name": "r",
          "type": "bytes32"
        },
        {
          "internalType": "bytes32",
          "name": "s",
          "type": "bytes32"
        }
      ],
      "name": "permit",
      "outputs": [],
      "stateMutability": "nonpayable",
      "type": "function"
    },
    {
      "inputs": [],
      "name": "symbol",
      "outputs": [
        {
          "internalType": "string",
          "name": "",
          "type": "string"
        }
      ],
      "stateMutability": "view",
      "type": "function"
    },
    {
      "inputs": [],
      "name": "totalSupply",
      "outputs": [
        {
          "internalType": "uint256",
          "name": "",
          "type": "uint256"
        }
      ],
      "stateMutability": "view",
      "type": "function"
    },
    {
      "inputs": [
        {
          "internalType": "address",
          "name": "recipient",
          "type": "address"
        },
        {
          "internalType": "uint256",
          "name": "amount",
          "type": "uint256"
        }
      ],
      "name": "transfer",
      "outputs": [
        {
          "internalType": "bool",
          "name": "",
          "type": "bool"
        }
      ],
      "stateMutability": "nonpayable",
      "type": "function"
    },
    {
      "inputs": [
        {
          "internalType": "address",
          "name": "sender",
          "type": "address"
        },
        {
          "internalType": "address",
          "name": "recipient",
          "type": "address"
        },
        {
          "internalType": "uint256",
          "name": "amount",
          "type": "uint256"
        }
      ],
      "name": "transferFrom",
      "outputs": [
        {
          "internalType": "bool",
          "name": "",
          "type": "bool"
        }
      ],
      "stateMutability": "nonpayable",
      "type": "function"
    }
  ],
  "bytecode": "0x6101606040527f6e71edae12b1b97f4d1f60370fef10105fa2faae0126114a169c64845d6126c9610140523480156200003757600080fd5b5060405162000f9638038062000f968339810160408190526200005a91620002be565b60408051808201825260018152603160f81b602091820152835184820190812060e08190527fc89efdaa54c0f20c7adf612882df0950f5a951637e0307cdcb4c672f298b8bc66101008190524660a081815286517f8b73c3c69bb8fe3d512ecc4cf759cc79239f7b179b0ffacaa9a75d522b39400f818801819052818901959095526060810193909352608080840192909252308382018190528751808503909201825260c09384019097528051950194909420909352929091526101209190915282516200012c916003916200014b565b508051620001429060049060208401906200014b565b50505062000364565b828054620001599062000328565b90600052602060002090601f0160209004810192826200017d5760008555620001c8565b82601f106200019857805160ff1916838001178555620001c8565b82800160010185558215620001c8579182015b82811115620001c8578251825591602001919060010190620001ab565b50620001d6929150620001da565b5090565b5b80821115620001d65760008155600101620001db565b634e487b7160e01b600052604160045260246000fd5b600082601f8301126200021957600080fd5b81516001600160401b0380821115620002365762000236620001f1565b604051601f8301601f19908116603f01168101908282118183101715620002615762000261620001f1565b816040528381526020925086838588010111156200027e57600080fd5b600091505b83821015620002a2578582018301518183018401529082019062000283565b83821115620002b45760008385830101525b9695505050505050565b60008060408385031215620002d257600080fd5b82516001600160401b0380821115620002ea57600080fd5b620002f88683870162000207565b935060208501519150808211156200030f57600080fd5b506200031e8582860162000207565b9150509250929050565b600181811c908216806200033d57607f821691505b6020821081036200035e57634e487b7160e01b600052602260045260246000fd5b50919050565b60805160a05160c05160e051610100516101205161014051610bd7620003bf600039600061049b0152600061087a015260006108c9015260006108a4015260006107fd01526000610827015260006108510152610bd76000f3fe608060405234801561001057600080fd5b50600436106100ea5760003560e01c806370a082311161008c578063a9059cbb11610066578063a9059cbb146101d9578063d505accf146101ec578063d73dd62314610201578063dd62ed3e1461021457600080fd5b806370a082311461017f5780637ecebe00146101a857806395d89b41146101d157600080fd5b806323b872dd116100c857806323b872dd14610142578063313ce567146101555780633644e51514610164578063661884631461016c57600080fd5b806306fdde03146100ef578063095ea7b31461010d57806318160ddd14610130575b600080fd5b6100f761024d565b604051610104919061098a565b60405180910390f35b61012061011b3660046109fb565b6102df565b6040519015158152602001610104565b6002545b604051908152602001610104565b610120610150366004610a25565b6102f5565b60405160128152602001610104565b6101346103b9565b61012061017a3660046109fb565b6103c8565b61013461018d366004610a61565b6001600160a01b031660009081526020819052604090205490565b6101346101b6366004610a61565b6001600160a01b031660009081526005602052604090205490565b6100f761041d565b6101206101e73660046109fb565b61042c565b6101ff6101fa366004610a7c565b610439565b005b61012061020f3660046109fb565b610610565b610134610222366004610aef565b6001600160a01b03918216600090815260016020908152604080832093909416825291909152205490565b60606003805461025c90610b22565b80601f016020809104026020016040519081016040528092919081815260200182805461028890610b22565b80156102d55780601f106102aa576101008083540402835291602001916102d5565b820191906000526020600020905b8154815290600101906020018083116102b857829003601f168201915b5050505050905090565b60006102ec338484610646565b50600192915050565b6001600160a01b0383166000818152600160209081526040808320338085529252822054919214806103275750828110155b6103715760405162461bcd60e51b8152602060048201526016602482015275494e53554646494349454e545f414c4c4f57414e434560501b60448201526064015b60405180910390fd5b61037c8585856106a7565b336001600160a01b038616148015906103955750600081115b156103ae576103ae85336103a98685610b72565b610646565b506001949350505050565b60006103c36107f0565b905090565b3360009081526001602090815260408083206001600160a01b0386168452909152812054808310610404576103ff33856000610646565b610413565b61041333856103a98487610917565b5060019392505050565b60606004805461025c90610b22565b60006102ec3384846106a7565b8342111561047a5760405162461bcd60e51b815260206004820152600e60248201526d1156141254915117d4115493525560921b6044820152606401610368565b6001600160a01b0387811660008181526005602090815260408083205481517f00000000000000000000000000000000000000000000000000000000000000008185015280830195909552948b166060850152608084018a905260a0840185905260c08085018a90528151808603909101815260e090940190528251920191909120906105068261092a565b6040805160008082526020820180845284905260ff8a169282019290925260608101889052608081018790529192509060019060a0016020604051602081039080840390855afa15801561055e573d6000803e3d6000fd5b5050604051601f1901519150506001600160a01b0381161580159061059457508a6001600160a01b0316816001600160a01b0316145b6105d45760405162461bcd60e51b8152602060048201526011602482015270494e56414c49445f5349474e415455524560781b6044820152606401610368565b6105df846001610b89565b6001600160a01b038c166000908152600560205260409020556106038b8b8b610646565b5050505050505050505050565b3360008181526001602090815260408083206001600160a01b038716845290915281205490916102ec9185906103a9908661097e565b6001600160a01b0383811660008181526001602090815260408083209487168084529482529182902085905590518481527f8c5be1e5ebec7d5bd14f71427d1e84f3dd0314c0f7b2291e5b200ac8c7c3b925910160405180910390a3505050565b6001600160a01b038316600090815260208190526040902054818110156107075760405162461bcd60e51b8152602060048201526014602482015273494e53554646494349454e545f42414c414e434560601b6044820152606401610368565b6001600160a01b03831661075d5760405162461bcd60e51b815260206004820152601e60248201527f45524332305f5452414e534645525f544f5f5a45524f5f4144445245535300006044820152606401610368565b6107678282610b72565b6001600160a01b038086166000908152602081905260408082209390935590851681522054610796908361097e565b6001600160a01b038481166000818152602081815260409182902094909455518581529092918716917fddf252ad1be2c89b69c2b068fc378daa952ba7f163c4a11628f55a4df523b3ef910160405180910390a350505050565b6000306001600160a01b037f00000000000000000000000000000000000000000000000000000000000000001614801561084957507f000000000000000000000000000000000000000000000000000000000000000046145b1561087357507f000000000000000000000000000000000000000000000000000000000000000090565b50604080517f00000000000000000000000000000000000000000000000000000000000000006020808301919091527f0000000000000000000000000000000000000000000000000000000000000000828401527f000000000000000000000000000000000000000000000000000000000000000060608301524660808301523060a0808401919091528351808403909101815260c0909201909252805191012090565b60006109238284610b72565b9392505050565b60006109786109376107f0565b8360405161190160f01b6020820152602281018390526042810182905260009060620160405160208183030381529060405280519060200120905092915050565b92915050565b60006109238284610b89565b600060208083528351808285015260005b818110156109b75785810183015185820160400152820161099b565b818111156109c9576000604083870101525b50601f01601f1916929092016040019392505050565b80356001600160a01b03811681146109f657600080fd5b919050565b60008060408385031215610a0e57600080fd5b610a17836109df565b946020939093013593505050565b600080600060608486031215610a3a57600080fd5b610a43846109df565b9250610a51602085016109df565b9150604084013590509250925092565b600060208284031215610a7357600080fd5b610923826109df565b600080600080600080600060e0888a031215610a9757600080fd5b610aa0886109df565b9650610aae602089016109df565b95506040880135945060608801359350608088013560ff81168114610ad257600080fd5b9699959850939692959460a0840135945060c09093013592915050565b60008060408385031215610b0257600080fd5b610b0b836109df565b9150610b19602084016109df565b90509250929050565b600181811c90821680610b3657607f821691505b602082108103610b5657634e487b7160e01b600052602260045260246000fd5b50919050565b634e487b7160e01b600052601160045260246000fd5b600082821015610b8457610b84610b5c565b500390565b60008219821115610b9c57610b9c610b5c565b50019056fea2646970667358221220602cd23bc69995391ee11f078dbc1b7fa5d134c2d2c2ccc7db246d4c950a219964736f6c634300080d0033",
  "linkReferences": {},
  "deployedLinkReferences": {}
}