{
  "contracts/test/veBalMock.sol": {
    "veBalMock": {
      "abi": [
        {
          "inputs": [
            {
              "internalType": "address",
              "name": "token_addr",
              "type": "address"
            },
            {
              "internalType": "string",
              "name": "_name",
              "type": "string"
            },
            {
              "internalType": "string",
              "name": "_symbol",
              "type": "string"
            },
            {
              "internalType": "address",
              "name": "_authorizer_adaptor",
              "type": "address"
            }
          ],
          "stateMutability": "nonpayable",
          "type": "constructor"
        },
        {
          "anonymous": false,
          "inputs": [
            {
              "indexed": true,
              "internalType": "address",
              "name": "provider",
              "type": "address"
            },
            {
              "indexed": false,
              "internalType": "uint256",
              "name": "value",
              "type": "uint256"
            },
            {
              "indexed": true,
              "internalType": "uint256",
              "name": "locktime",
              "type": "uint256"
            },
            {
              "indexed": false,
              "internalType": "int128",
              "name": "type_",
              "type": "int128"
            },
            {
              "indexed": false,
              "internalType": "uint256",
              "name": "ts",
              "type": "uint256"
            }
          ],
          "name": "Deposit",
          "type": "event"
        },
        {
          "anonymous": false,
          "inputs": [
            {
              "indexed": false,
              "internalType": "uint256",
              "name": "prevSupply",
              "type": "uint256"
            },
            {
              "indexed": false,
              "internalType": "uint256",
              "name": "supply",
              "type": "uint256"
            }
          ],
          "name": "Supply",
          "type": "event"
        },
        {
          "anonymous": false,
          "inputs": [
            {
              "indexed": true,
              "internalType": "address",
              "name": "from",
              "type": "address"
            },
            {
              "indexed": true,
              "internalType": "address",
              "name": "to",
              "type": "address"
            },
            {
              "indexed": false,
              "internalType": "uint256",
              "name": "value",
              "type": "uint256"
            }
          ],
          "name": "Transfer",
          "type": "event"
        },
        {
          "anonymous": false,
          "inputs": [
            {
              "indexed": true,
              "internalType": "address",
              "name": "provider",
              "type": "address"
            },
            {
              "indexed": false,
              "internalType": "uint256",
              "name": "value",
              "type": "uint256"
            },
            {
              "indexed": false,
              "internalType": "uint256",
              "name": "ts",
              "type": "uint256"
            }
          ],
          "name": "Withdraw",
          "type": "event"
        },
        {
          "inputs": [],
          "name": "NAME",
          "outputs": [
            {
              "internalType": "string",
              "name": "",
              "type": "string"
            }
          ],
          "stateMutability": "view",
          "type": "function"
        },
        {
          "inputs": [],
          "name": "SYMBOL",
          "outputs": [
            {
              "internalType": "string",
              "name": "",
              "type": "string"
            }
          ],
          "stateMutability": "view",
          "type": "function"
        },
        {
          "inputs": [],
          "name": "admin",
          "outputs": [
            {
              "internalType": "address",
              "name": "",
              "type": "address"
            }
          ],
          "stateMutability": "view",
          "type": "function"
        },
        {
          "inputs": [],
          "name": "apply_smart_wallet_checker",
          "outputs": [],
          "stateMutability": "nonpayable",
          "type": "function"
        },
        {
          "inputs": [
            {
              "internalType": "address",
              "name": "addr",
              "type": "address"
            },
            {
              "internalType": "uint256",
              "name": "_t",
              "type": "uint256"
            }
          ],
          "name": "balanceOf",
          "outputs": [
            {
              "internalType": "uint256",
              "name": "",
              "type": "uint256"
            }
          ],
          "stateMutability": "view",
          "type": "function"
        },
        {
          "inputs": [
            {
              "internalType": "address",
              "name": "addr",
              "type": "address"
            },
            {
              "internalType": "uint256",
              "name": "_block",
              "type": "uint256"
            }
          ],
          "name": "balanceOfAt",
          "outputs": [
            {
              "internalType": "uint256",
              "name": "",
              "type": "uint256"
            }
          ],
          "stateMutability": "view",
          "type": "function"
        },
        {
          "inputs": [],
          "name": "checkpoint",
          "outputs": [],
          "stateMutability": "nonpayable",
          "type": "function"
        },
        {
          "inputs": [
            {
              "internalType": "address",
              "name": "addr",
              "type": "address"
            }
          ],
          "name": "commit_smart_wallet_checker",
          "outputs": [],
          "stateMutability": "nonpayable",
          "type": "function"
        },
        {
          "inputs": [
            {
              "internalType": "uint256",
              "name": "tokens",
              "type": "uint256"
            }
          ],
          "name": "create_lock",
          "outputs": [],
          "stateMutability": "nonpayable",
          "type": "function"
        },
        {
          "inputs": [],
          "name": "decimals",
          "outputs": [
            {
              "internalType": "uint256",
              "name": "",
              "type": "uint256"
            }
          ],
          "stateMutability": "view",
          "type": "function"
        },
        {
          "inputs": [
            {
              "internalType": "address",
              "name": "_addr",
              "type": "address"
            },
            {
              "internalType": "uint256",
              "name": "_value",
              "type": "uint256"
            }
          ],
          "name": "deposit_for",
          "outputs": [],
          "stateMutability": "nonpayable",
          "type": "function"
        },
        {
          "inputs": [],
          "name": "epoch",
          "outputs": [
            {
              "internalType": "uint256",
              "name": "",
              "type": "uint256"
            }
          ],
          "stateMutability": "view",
          "type": "function"
        },
        {
          "inputs": [],
          "name": "future_smart_wallet_checker",
          "outputs": [
            {
              "internalType": "address",
              "name": "",
              "type": "address"
            }
          ],
          "stateMutability": "view",
          "type": "function"
        },
        {
          "inputs": [
            {
              "internalType": "address",
              "name": "addr",
              "type": "address"
            }
          ],
          "name": "get_last_user_slope",
          "outputs": [
            {
              "internalType": "int128",
              "name": "",
              "type": "int128"
            }
          ],
          "stateMutability": "view",
          "type": "function"
        },
        {
          "inputs": [
            {
              "internalType": "uint256",
              "name": "",
              "type": "uint256"
            }
          ],
          "name": "increase_amount",
          "outputs": [],
          "stateMutability": "nonpayable",
          "type": "function"
        },
        {
          "inputs": [
            {
              "internalType": "uint256",
              "name": "_unlock_time",
              "type": "uint256"
            }
          ],
          "name": "increase_unlock_time",
          "outputs": [],
          "stateMutability": "nonpayable",
          "type": "function"
        },
        {
          "inputs": [
            {
              "internalType": "address",
              "name": "",
              "type": "address"
            }
          ],
          "name": "locked",
          "outputs": [
            {
              "internalType": "int128",
              "name": "amount",
              "type": "int128"
            },
            {
              "internalType": "uint256",
              "name": "end",
              "type": "uint256"
            }
          ],
          "stateMutability": "view",
          "type": "function"
        },
        {
          "inputs": [
            {
              "internalType": "address",
              "name": "_addr",
              "type": "address"
            }
          ],
          "name": "locked__end",
          "outputs": [
            {
              "internalType": "uint256",
              "name": "",
              "type": "uint256"
            }
          ],
          "stateMutability": "view",
          "type": "function"
        },
        {
          "inputs": [],
          "name": "name",
          "outputs": [
            {
              "internalType": "string",
              "name": "",
              "type": "string"
            }
          ],
          "stateMutability": "view",
          "type": "function"
        },
        {
          "inputs": [
            {
              "internalType": "uint256",
              "name": "",
              "type": "uint256"
            }
          ],
          "name": "point_history",
          "outputs": [
            {
              "internalType": "int128",
              "name": "bias",
              "type": "int128"
            },
            {
              "internalType": "int128",
              "name": "slope",
              "type": "int128"
            },
            {
              "internalType": "uint256",
              "name": "ts",
              "type": "uint256"
            },
            {
              "internalType": "uint256",
              "name": "blk",
              "type": "uint256"
            }
          ],
          "stateMutability": "view",
          "type": "function"
        },
        {
          "inputs": [
            {
              "internalType": "uint256",
              "name": "",
              "type": "uint256"
            }
          ],
          "name": "slope_changes",
          "outputs": [
            {
              "internalType": "int128",
              "name": "",
              "type": "int128"
            }
          ],
          "stateMutability": "view",
          "type": "function"
        },
        {
          "inputs": [],
          "name": "smart_wallet_checker",
          "outputs": [
            {
              "internalType": "address",
              "name": "",
              "type": "address"
            }
          ],
          "stateMutability": "view",
          "type": "function"
        },
        {
          "inputs": [],
          "name": "symbol",
          "outputs": [
            {
              "internalType": "string",
              "name": "",
              "type": "string"
            }
          ],
          "stateMutability": "view",
          "type": "function"
        },
        {
          "inputs": [],
          "name": "token",
          "outputs": [
            {
              "internalType": "address",
              "name": "",
              "type": "address"
            }
          ],
          "stateMutability": "view",
          "type": "function"
        },
        {
          "inputs": [
            {
              "internalType": "uint256",
              "name": "t",
              "type": "uint256"
            }
          ],
          "name": "totalSupply",
          "outputs": [
            {
              "internalType": "uint256",
              "name": "",
              "type": "uint256"
            }
          ],
          "stateMutability": "view",
          "type": "function"
        },
        {
          "inputs": [
            {
              "internalType": "uint256",
              "name": "_block",
              "type": "uint256"
            }
          ],
          "name": "totalSupplyAt",
          "outputs": [
            {
              "internalType": "uint256",
              "name": "",
              "type": "uint256"
            }
          ],
          "stateMutability": "view",
          "type": "function"
        },
        {
          "inputs": [
            {
              "internalType": "address",
              "name": "",
              "type": "address"
            }
          ],
          "name": "user_point_epoch",
          "outputs": [
            {
              "internalType": "uint256",
              "name": "",
              "type": "uint256"
            }
          ],
          "stateMutability": "view",
          "type": "function"
        },
        {
          "inputs": [
            {
              "internalType": "address",
              "name": "_addr",
              "type": "address"
            },
            {
              "internalType": "uint256",
              "name": "_idx",
              "type": "uint256"
            }
          ],
          "name": "user_point_history__ts",
          "outputs": [
            {
              "internalType": "uint256",
              "name": "",
              "type": "uint256"
            }
          ],
          "stateMutability": "view",
          "type": "function"
        },
        {
          "inputs": [],
          "name": "withdraw",
          "outputs": [],
          "stateMutability": "nonpayable",
          "type": "function"
        }
      ],
      "devdoc": {
        "kind": "dev",
        "methods": {},
        "version": 1
      },
      "evm": {
        "bytecode": {
          "linkReferences": {},
          "object": "60e06040523480156200001157600080fd5b50604051620010cb380380620010cb83398101604081905262000034916200034c565b60016000556001600160a01b038116620000aa5760405162461bcd60e51b815260206004820152602c60248201527f42616c4d6f636b3a205f617574686f72697a65725f61646170746f72203d3d2060448201526b5a45524f5f4144445245535360a01b60648201526084015b60405180910390fd5b6001600160a01b03848116608081905290821660a05243600955426008556040805163313ce56760e01b815290516000929163313ce5679160048083019260209291908290030181865afa15801562000107573d6000803e3d6000fd5b505050506040513d601f19601f820116820180604052508101906200012d9190620003dc565b905060ff811115620001825760405162461bcd60e51b815260206004820152601860248201527f42616c4d6f636b3a205f646563696d616c73203e2032353500000000000000006044820152606401620000a1565b835162000197906001906020870190620001bc565b508251620001ad906002906020860190620001bc565b5060c052506200043292505050565b828054620001ca90620003f6565b90600052602060002090601f016020900481019282620001ee576000855562000239565b82601f106200020957805160ff191683800117855562000239565b8280016001018555821562000239579182015b82811115620002395782518255916020019190600101906200021c565b50620002479291506200024b565b5090565b5b808211156200024757600081556001016200024c565b80516001600160a01b03811681146200027a57600080fd5b919050565b634e487b7160e01b600052604160045260246000fd5b600082601f830112620002a757600080fd5b81516001600160401b0380821115620002c457620002c46200027f565b604051601f8301601f19908116603f01168101908282118183101715620002ef57620002ef6200027f565b816040528381526020925086838588010111156200030c57600080fd5b600091505b8382101562000330578582018301518183018401529082019062000311565b83821115620003425760008385830101525b9695505050505050565b600080600080608085870312156200036357600080fd5b6200036e8562000262565b60208601519094506001600160401b03808211156200038c57600080fd5b6200039a8883890162000295565b94506040870151915080821115620003b157600080fd5b50620003c08782880162000295565b925050620003d16060860162000262565b905092959194509250565b600060208284031215620003ef57600080fd5b5051919050565b600181811c908216806200040b57607f821691505b6020821081036200042c57634e487b7160e01b600052602260045260246000fd5b50919050565b60805160a05160c051610c6962000462600039600061023f0152600061045b015260006104810152610c696000f3fe608060405234801561001057600080fd5b50600436106101ce5760003560e01c8063900cf0cf11610104578063cbf9fe5f116100a2578063f76f8d7811610071578063f76f8d7814610451578063f851a44014610459578063fc0c546a1461047f578063ffc9514d146104a557600080fd5b8063cbf9fe5f146103bb578063d1febfb914610403578063da020a181461043e578063eff7a6121461028057600080fd5b8063a3f4df7e116100de578063a3f4df7e14610373578063adc635891461037b578063bd85b039146103a7578063c2c4c5c11461027657600080fd5b8063900cf0cf1461034f57806395d89b4114610358578063981b24d01461036057600080fd5b80634ee2cd7e116101715780637175d4f71161014b5780637175d4f7146102e65780637c74a1741461031d5780638e5b490f146102765780638ff36fd11461033057600080fd5b80634ee2cd7e146101d357806357f901e21461029357806371197484146102a457600080fd5b8063313ce567116101ad578063313ce5671461023d5780633a46273e146102635780633ccfd60b146102785780634957677c1461028057600080fd5b8062fdd58e146101d3578063010ae757146101fc57806306fdde0314610228575b600080fd5b6101e96101e1366004610a6c565b600192915050565b6040519081526020015b60405180910390f35b6101e961020a366004610a96565b6c03c95a2f0b4856475fe00000086020526000908152604090205481565b6102306104b8565b6040516101f39190610ab8565b7f00000000000000000000000000000000000000000000000000000000000000006101e9565b610276610271366004610a6c565b61054a565b005b61027661058d565b61027661028e366004610b0d565b6105b6565b6102766102a1366004610a96565b50565b6102d36102b2366004610b0d565b6c03c95a2f0b4856475fe000000960205260009081526040902054600f0b81565b604051600f9190910b81526020016101f3565b6c03c95a2f0b4856475fe000000b54610305906001600160a01b031681565b6040516001600160a01b0390911681526020016101f3565b6102d361032b366004610a96565b6105e0565b6c03c95a2f0b4856475fe000000a54610305906001600160a01b031681565b6101e960065481565b610230610645565b6101e961036e366004610b0d565b610654565b61023061081d565b6101e9610389366004610a96565b6001600160a01b031660009081526005602052604090206001015490565b6101e96103b5366004610b0d565b50600190565b6103e96103c9366004610a96565b60056020526000908152604090208054600190910154600f9190910b9082565b60408051600f9390930b83526020830191909152016101f3565b610416610411366004610b0d565b6108ab565b60408051600f95860b81529390940b60208401529282015260608101919091526080016101f3565b6101e961044c366004610a6c565b6108ef565b610230610937565b7f0000000000000000000000000000000000000000000000000000000000000000610305565b7f0000000000000000000000000000000000000000000000000000000000000000610305565b6102766104b3366004610b0d565b610944565b6060600180546104c790610b26565b80601f01602080910402602001604051908101604052809291908181526020018280546104f390610b26565b80156105405780601f1061051557610100808354040283529160200191610540565b820191906000526020600020905b81548152906001019060200180831161052357829003601f168201915b5050505050905090565b6002600054036105755760405162461bcd60e51b815260040161056c90610b60565b60405180910390fd5b60026000556105848282610971565b50506001600055565b6002600054036105af5760405162461bcd60e51b815260040161056c90610b60565b6001600055565b6002600054036105d85760405162461bcd60e51b815260040161056c90610b60565b506001600055565b6001600160a01b03811660009081526c03c95a2f0b4856475fe000000860209081526040808320546c03c95a2f0b4856475fe0000007909252822081633b9aca00811061062f5761062f610b97565b6003020154600160801b9004600f0b9392505050565b6060600280546104c790610b26565b60004382111561069e5760405162461bcd60e51b81526020600482015260156024820152742fb13637b1b5901f10313637b1b597373ab6b132b960591b604482015260640161056c565b60065460408051608081018252600754600f81810b8352600160801b909104900b60208201526008549181019190915260095460608201526000908183156107b057600060076106ef856001610bc3565b6c01431e0fae6d7217caa0000000811061070b5761070b610b97565b60408051608081018252600392909202929092018054600f81810b8452600160801b909104900b60208301526001810154928201929092526002909101546060808301829052850151919250146107aa57826060015181606001516107709190610bdb565b836040015182604001516107849190610bdb565b6060850151610793908a610bdb565b61079d9190610bf2565b6107a79190610c11565b91505b506107ff565b438260600151146107ff5760608201516107ca9043610bdb565b60408301516107d99042610bdb565b60608401516107e89089610bdb565b6107f29190610bf2565b6107fc9190610c11565b90505b610813828284604001516101e19190610bc3565b9695505050505050565b6001805461082a90610b26565b80601f016020809104026020016040519081016040528092919081815260200182805461085690610b26565b80156108a35780601f10610878576101008083540402835291602001916108a3565b820191906000526020600020905b81548152906001019060200180831161088657829003601f168201915b505050505081565b6007816c01431e0fae6d7217caa000000081106108c757600080fd5b6003020180546001820154600290920154600f82810b9450600160801b90920490910b919084565b6001600160a01b03821660009081526c03c95a2f0b4856475fe00000076020526040812082633b9aca00811061092757610927610b97565b6003020160010154905092915050565b6002805461082a90610b26565b6002600054036109665760405162461bcd60e51b815260040161056c90610b60565b60026000556105d833825b6001600160a01b0382166109c75760405162461bcd60e51b815260206004820152601f60248201527f45524332303a206d696e7420746f20746865207a65726f206164647265737300604482015260640161056c565b80600460008282546109d99190610bc3565b90915550506001600160a01b03821660009081526003602052604081208054839290610a06908490610bc3565b90915550506040518181526001600160a01b038316906000907fddf252ad1be2c89b69c2b068fc378daa952ba7f163c4a11628f55a4df523b3ef9060200160405180910390a35050565b80356001600160a01b0381168114610a6757600080fd5b919050565b60008060408385031215610a7f57600080fd5b610a8883610a50565b946020939093013593505050565b600060208284031215610aa857600080fd5b610ab182610a50565b9392505050565b600060208083528351808285015260005b81811015610ae557858101830151858201604001528201610ac9565b81811115610af7576000604083870101525b50601f01601f1916929092016040019392505050565b600060208284031215610b1f57600080fd5b5035919050565b600181811c90821680610b3a57607f821691505b602082108103610b5a57634e487b7160e01b600052602260045260246000fd5b50919050565b6020808252601f908201527f5265656e7472616e637947756172643a207265656e7472616e742063616c6c00604082015260600190565b634e487b7160e01b600052603260045260246000fd5b634e487b7160e01b600052601160045260246000fd5b60008219821115610bd657610bd6610bad565b500190565b600082821015610bed57610bed610bad565b500390565b6000816000190483118215151615610c0c57610c0c610bad565b500290565b600082610c2e57634e487b7160e01b600052601260045260246000fd5b50049056fea264697066735822122013306a1025ac0f7d78c76b209a0d79401201ddc2f7241b10d40c3a21e5ee547464736f6c634300080d0033",
          "opcodes": "PUSH1 0xE0 PUSH1 0x40 MSTORE CALLVALUE DUP1 ISZERO PUSH3 0x11 JUMPI PUSH1 0x0 DUP1 REVERT JUMPDEST POP PUSH1 0x40 MLOAD PUSH3 0x10CB CODESIZE SUB DUP1 PUSH3 0x10CB DUP4 CODECOPY DUP2 ADD PUSH1 0x40 DUP2 SWAP1 MSTORE PUSH3 0x34 SWAP2 PUSH3 0x34C JUMP JUMPDEST PUSH1 0x1 PUSH1 0x0 SSTORE PUSH1 0x1 PUSH1 0x1 PUSH1 0xA0 SHL SUB DUP2 AND PUSH3 0xAA JUMPI PUSH1 0x40 MLOAD PUSH3 0x461BCD PUSH1 0xE5 SHL DUP2 MSTORE PUSH1 0x20 PUSH1 0x4 DUP3 ADD MSTORE PUSH1 0x2C PUSH1 0x24 DUP3 ADD MSTORE PUSH32 0x42616C4D6F636B3A205F617574686F72697A65725F61646170746F72203D3D20 PUSH1 0x44 DUP3 ADD MSTORE PUSH12 0x5A45524F5F41444452455353 PUSH1 0xA0 SHL PUSH1 0x64 DUP3 ADD MSTORE PUSH1 0x84 ADD JUMPDEST PUSH1 0x40 MLOAD DUP1 SWAP2 SUB SWAP1 REVERT JUMPDEST PUSH1 0x1 PUSH1 0x1 PUSH1 0xA0 SHL SUB DUP5 DUP2 AND PUSH1 0x80 DUP2 SWAP1 MSTORE SWAP1 DUP3 AND PUSH1 0xA0 MSTORE NUMBER PUSH1 0x9 SSTORE TIMESTAMP PUSH1 0x8 SSTORE PUSH1 0x40 DUP1 MLOAD PUSH4 0x313CE567 PUSH1 0xE0 SHL DUP2 MSTORE SWAP1 MLOAD PUSH1 0x0 SWAP3 SWAP2 PUSH4 0x313CE567 SWAP2 PUSH1 0x4 DUP1 DUP4 ADD SWAP3 PUSH1 0x20 SWAP3 SWAP2 SWAP1 DUP3 SWAP1 SUB ADD DUP2 DUP7 GAS STATICCALL ISZERO DUP1 ISZERO PUSH3 0x107 JUMPI RETURNDATASIZE PUSH1 0x0 DUP1 RETURNDATACOPY RETURNDATASIZE PUSH1 0x0 REVERT JUMPDEST POP POP POP POP PUSH1 0x40 MLOAD RETURNDATASIZE PUSH1 0x1F NOT PUSH1 0x1F DUP3 ADD AND DUP3 ADD DUP1 PUSH1 0x40 MSTORE POP DUP2 ADD SWAP1 PUSH3 0x12D SWAP2 SWAP1 PUSH3 0x3DC JUMP JUMPDEST SWAP1 POP PUSH1 0xFF DUP2 GT ISZERO PUSH3 0x182 JUMPI PUSH1 0x40 MLOAD PUSH3 0x461BCD PUSH1 0xE5 SHL DUP2 MSTORE PUSH1 0x20 PUSH1 0x4 DUP3 ADD MSTORE PUSH1 0x18 PUSH1 0x24 DUP3 ADD MSTORE PUSH32 0x42616C4D6F636B3A205F646563696D616C73203E203235350000000000000000 PUSH1 0x44 DUP3 ADD MSTORE PUSH1 0x64 ADD PUSH3 0xA1 JUMP JUMPDEST DUP4 MLOAD PUSH3 0x197 SWAP1 PUSH1 0x1 SWAP1 PUSH1 0x20 DUP8 ADD SWAP1 PUSH3 0x1BC JUMP JUMPDEST POP DUP3 MLOAD PUSH3 0x1AD SWAP1 PUSH1 0x2 SWAP1 PUSH1 0x20 DUP7 ADD SWAP1 PUSH3 0x1BC JUMP JUMPDEST POP PUSH1 0xC0 MSTORE POP PUSH3 0x432 SWAP3 POP POP POP JUMP JUMPDEST DUP3 DUP1 SLOAD PUSH3 0x1CA SWAP1 PUSH3 0x3F6 JUMP JUMPDEST SWAP1 PUSH1 0x0 MSTORE PUSH1 0x20 PUSH1 0x0 KECCAK256 SWAP1 PUSH1 0x1F ADD PUSH1 0x20 SWAP1 DIV DUP2 ADD SWAP3 DUP3 PUSH3 0x1EE JUMPI PUSH1 0x0 DUP6 SSTORE PUSH3 0x239 JUMP JUMPDEST DUP3 PUSH1 0x1F LT PUSH3 0x209 JUMPI DUP1 MLOAD PUSH1 0xFF NOT AND DUP4 DUP1 ADD OR DUP6 SSTORE PUSH3 0x239 JUMP JUMPDEST DUP3 DUP1 ADD PUSH1 0x1 ADD DUP6 SSTORE DUP3 ISZERO PUSH3 0x239 JUMPI SWAP2 DUP3 ADD JUMPDEST DUP3 DUP2 GT ISZERO PUSH3 0x239 JUMPI DUP3 MLOAD DUP3 SSTORE SWAP2 PUSH1 0x20 ADD SWAP2 SWAP1 PUSH1 0x1 ADD SWAP1 PUSH3 0x21C JUMP JUMPDEST POP PUSH3 0x247 SWAP3 SWAP2 POP PUSH3 0x24B JUMP JUMPDEST POP SWAP1 JUMP JUMPDEST JUMPDEST DUP1 DUP3 GT ISZERO PUSH3 0x247 JUMPI PUSH1 0x0 DUP2 SSTORE PUSH1 0x1 ADD PUSH3 0x24C JUMP JUMPDEST DUP1 MLOAD PUSH1 0x1 PUSH1 0x1 PUSH1 0xA0 SHL SUB DUP2 AND DUP2 EQ PUSH3 0x27A JUMPI PUSH1 0x0 DUP1 REVERT JUMPDEST SWAP2 SWAP1 POP JUMP JUMPDEST PUSH4 0x4E487B71 PUSH1 0xE0 SHL PUSH1 0x0 MSTORE PUSH1 0x41 PUSH1 0x4 MSTORE PUSH1 0x24 PUSH1 0x0 REVERT JUMPDEST PUSH1 0x0 DUP3 PUSH1 0x1F DUP4 ADD SLT PUSH3 0x2A7 JUMPI PUSH1 0x0 DUP1 REVERT JUMPDEST DUP2 MLOAD PUSH1 0x1 PUSH1 0x1 PUSH1 0x40 SHL SUB DUP1 DUP3 GT ISZERO PUSH3 0x2C4 JUMPI PUSH3 0x2C4 PUSH3 0x27F JUMP JUMPDEST PUSH1 0x40 MLOAD PUSH1 0x1F DUP4 ADD PUSH1 0x1F NOT SWAP1 DUP2 AND PUSH1 0x3F ADD AND DUP2 ADD SWAP1 DUP3 DUP3 GT DUP2 DUP4 LT OR ISZERO PUSH3 0x2EF JUMPI PUSH3 0x2EF PUSH3 0x27F JUMP JUMPDEST DUP2 PUSH1 0x40 MSTORE DUP4 DUP2 MSTORE PUSH1 0x20 SWAP3 POP DUP7 DUP4 DUP6 DUP9 ADD ADD GT ISZERO PUSH3 0x30C JUMPI PUSH1 0x0 DUP1 REVERT JUMPDEST PUSH1 0x0 SWAP2 POP JUMPDEST DUP4 DUP3 LT ISZERO PUSH3 0x330 JUMPI DUP6 DUP3 ADD DUP4 ADD MLOAD DUP2 DUP4 ADD DUP5 ADD MSTORE SWAP1 DUP3 ADD SWAP1 PUSH3 0x311 JUMP JUMPDEST DUP4 DUP3 GT ISZERO PUSH3 0x342 JUMPI PUSH1 0x0 DUP4 DUP6 DUP4 ADD ADD MSTORE JUMPDEST SWAP7 SWAP6 POP POP POP POP POP POP JUMP JUMPDEST PUSH1 0x0 DUP1 PUSH1 0x0 DUP1 PUSH1 0x80 DUP6 DUP8 SUB SLT ISZERO PUSH3 0x363 JUMPI PUSH1 0x0 DUP1 REVERT JUMPDEST PUSH3 0x36E DUP6 PUSH3 0x262 JUMP JUMPDEST PUSH1 0x20 DUP7 ADD MLOAD SWAP1 SWAP5 POP PUSH1 0x1 PUSH1 0x1 PUSH1 0x40 SHL SUB DUP1 DUP3 GT ISZERO PUSH3 0x38C JUMPI PUSH1 0x0 DUP1 REVERT JUMPDEST PUSH3 0x39A DUP9 DUP4 DUP10 ADD PUSH3 0x295 JUMP JUMPDEST SWAP5 POP PUSH1 0x40 DUP8 ADD MLOAD SWAP2 POP DUP1 DUP3 GT ISZERO PUSH3 0x3B1 JUMPI PUSH1 0x0 DUP1 REVERT JUMPDEST POP PUSH3 0x3C0 DUP8 DUP3 DUP9 ADD PUSH3 0x295 JUMP JUMPDEST SWAP3 POP POP PUSH3 0x3D1 PUSH1 0x60 DUP7 ADD PUSH3 0x262 JUMP JUMPDEST SWAP1 POP SWAP3 SWAP6 SWAP2 SWAP5 POP SWAP3 POP JUMP JUMPDEST PUSH1 0x0 PUSH1 0x20 DUP3 DUP5 SUB SLT ISZERO PUSH3 0x3EF JUMPI PUSH1 0x0 DUP1 REVERT JUMPDEST POP MLOAD SWAP2 SWAP1 POP JUMP JUMPDEST PUSH1 0x1 DUP2 DUP2 SHR SWAP1 DUP3 AND DUP1 PUSH3 0x40B JUMPI PUSH1 0x7F DUP3 AND SWAP2 POP JUMPDEST PUSH1 0x20 DUP3 LT DUP2 SUB PUSH3 0x42C JUMPI PUSH4 0x4E487B71 PUSH1 0xE0 SHL PUSH1 0x0 MSTORE PUSH1 0x22 PUSH1 0x4 MSTORE PUSH1 0x24 PUSH1 0x0 REVERT JUMPDEST POP SWAP2 SWAP1 POP JUMP JUMPDEST PUSH1 0x80 MLOAD PUSH1 0xA0 MLOAD PUSH1 0xC0 MLOAD PUSH2 0xC69 PUSH3 0x462 PUSH1 0x0 CODECOPY PUSH1 0x0 PUSH2 0x23F ADD MSTORE PUSH1 0x0 PUSH2 0x45B ADD MSTORE PUSH1 0x0 PUSH2 0x481 ADD MSTORE PUSH2 0xC69 PUSH1 0x0 RETURN INVALID PUSH1 0x80 PUSH1 0x40 MSTORE CALLVALUE DUP1 ISZERO PUSH2 0x10 JUMPI PUSH1 0x0 DUP1 REVERT JUMPDEST POP PUSH1 0x4 CALLDATASIZE LT PUSH2 0x1CE JUMPI PUSH1 0x0 CALLDATALOAD PUSH1 0xE0 SHR DUP1 PUSH4 0x900CF0CF GT PUSH2 0x104 JUMPI DUP1 PUSH4 0xCBF9FE5F GT PUSH2 0xA2 JUMPI DUP1 PUSH4 0xF76F8D78 GT PUSH2 0x71 JUMPI DUP1 PUSH4 0xF76F8D78 EQ PUSH2 0x451 JUMPI DUP1 PUSH4 0xF851A440 EQ PUSH2 0x459 JUMPI DUP1 PUSH4 0xFC0C546A EQ PUSH2 0x47F JUMPI DUP1 PUSH4 0xFFC9514D EQ PUSH2 0x4A5 JUMPI PUSH1 0x0 DUP1 REVERT JUMPDEST DUP1 PUSH4 0xCBF9FE5F EQ PUSH2 0x3BB JUMPI DUP1 PUSH4 0xD1FEBFB9 EQ PUSH2 0x403 JUMPI DUP1 PUSH4 0xDA020A18 EQ PUSH2 0x43E JUMPI DUP1 PUSH4 0xEFF7A612 EQ PUSH2 0x280 JUMPI PUSH1 0x0 DUP1 REVERT JUMPDEST DUP1 PUSH4 0xA3F4DF7E GT PUSH2 0xDE JUMPI DUP1 PUSH4 0xA3F4DF7E EQ PUSH2 0x373 JUMPI DUP1 PUSH4 0xADC63589 EQ PUSH2 0x37B JUMPI DUP1 PUSH4 0xBD85B039 EQ PUSH2 0x3A7 JUMPI DUP1 PUSH4 0xC2C4C5C1 EQ PUSH2 0x276 JUMPI PUSH1 0x0 DUP1 REVERT JUMPDEST DUP1 PUSH4 0x900CF0CF EQ PUSH2 0x34F JUMPI DUP1 PUSH4 0x95D89B41 EQ PUSH2 0x358 JUMPI DUP1 PUSH4 0x981B24D0 EQ PUSH2 0x360 JUMPI PUSH1 0x0 DUP1 REVERT JUMPDEST DUP1 PUSH4 0x4EE2CD7E GT PUSH2 0x171 JUMPI DUP1 PUSH4 0x7175D4F7 GT PUSH2 0x14B JUMPI DUP1 PUSH4 0x7175D4F7 EQ PUSH2 0x2E6 JUMPI DUP1 PUSH4 0x7C74A174 EQ PUSH2 0x31D JUMPI DUP1 PUSH4 0x8E5B490F EQ PUSH2 0x276 JUMPI DUP1 PUSH4 0x8FF36FD1 EQ PUSH2 0x330 JUMPI PUSH1 0x0 DUP1 REVERT JUMPDEST DUP1 PUSH4 0x4EE2CD7E EQ PUSH2 0x1D3 JUMPI DUP1 PUSH4 0x57F901E2 EQ PUSH2 0x293 JUMPI DUP1 PUSH4 0x71197484 EQ PUSH2 0x2A4 JUMPI PUSH1 0x0 DUP1 REVERT JUMPDEST DUP1 PUSH4 0x313CE567 GT PUSH2 0x1AD JUMPI DUP1 PUSH4 0x313CE567 EQ PUSH2 0x23D JUMPI DUP1 PUSH4 0x3A46273E EQ PUSH2 0x263 JUMPI DUP1 PUSH4 0x3CCFD60B EQ PUSH2 0x278 JUMPI DUP1 PUSH4 0x4957677C EQ PUSH2 0x280 JUMPI PUSH1 0x0 DUP1 REVERT JUMPDEST DUP1 PUSH3 0xFDD58E EQ PUSH2 0x1D3 JUMPI DUP1 PUSH4 0x10AE757 EQ PUSH2 0x1FC JUMPI DUP1 PUSH4 0x6FDDE03 EQ PUSH2 0x228 JUMPI JUMPDEST PUSH1 0x0 DUP1 REVERT JUMPDEST PUSH2 0x1E9 PUSH2 0x1E1 CALLDATASIZE PUSH1 0x4 PUSH2 0xA6C JUMP JUMPDEST PUSH1 0x1 SWAP3 SWAP2 POP POP JUMP JUMPDEST PUSH1 0x40 MLOAD SWAP1 DUP2 MSTORE PUSH1 0x20 ADD JUMPDEST PUSH1 0x40 MLOAD DUP1 SWAP2 SUB SWAP1 RETURN JUMPDEST PUSH2 0x1E9 PUSH2 0x20A CALLDATASIZE PUSH1 0x4 PUSH2 0xA96 JUMP JUMPDEST PUSH13 0x3C95A2F0B4856475FE0000008 PUSH1 0x20 MSTORE PUSH1 0x0 SWAP1 DUP2 MSTORE PUSH1 0x40 SWAP1 KECCAK256 SLOAD DUP2 JUMP JUMPDEST PUSH2 0x230 PUSH2 0x4B8 JUMP JUMPDEST PUSH1 0x40 MLOAD PUSH2 0x1F3 SWAP2 SWAP1 PUSH2 0xAB8 JUMP JUMPDEST PUSH32 0x0 PUSH2 0x1E9 JUMP JUMPDEST PUSH2 0x276 PUSH2 0x271 CALLDATASIZE PUSH1 0x4 PUSH2 0xA6C JUMP JUMPDEST PUSH2 0x54A JUMP JUMPDEST STOP JUMPDEST PUSH2 0x276 PUSH2 0x58D JUMP JUMPDEST PUSH2 0x276 PUSH2 0x28E CALLDATASIZE PUSH1 0x4 PUSH2 0xB0D JUMP JUMPDEST PUSH2 0x5B6 JUMP JUMPDEST PUSH2 0x276 PUSH2 0x2A1 CALLDATASIZE PUSH1 0x4 PUSH2 0xA96 JUMP JUMPDEST POP JUMP JUMPDEST PUSH2 0x2D3 PUSH2 0x2B2 CALLDATASIZE PUSH1 0x4 PUSH2 0xB0D JUMP JUMPDEST PUSH13 0x3C95A2F0B4856475FE0000009 PUSH1 0x20 MSTORE PUSH1 0x0 SWAP1 DUP2 MSTORE PUSH1 0x40 SWAP1 KECCAK256 SLOAD PUSH1 0xF SIGNEXTEND DUP2 JUMP JUMPDEST PUSH1 0x40 MLOAD PUSH1 0xF SWAP2 SWAP1 SWAP2 SIGNEXTEND DUP2 MSTORE PUSH1 0x20 ADD PUSH2 0x1F3 JUMP JUMPDEST PUSH13 0x3C95A2F0B4856475FE000000B SLOAD PUSH2 0x305 SWAP1 PUSH1 0x1 PUSH1 0x1 PUSH1 0xA0 SHL SUB AND DUP2 JUMP JUMPDEST PUSH1 0x40 MLOAD PUSH1 0x1 PUSH1 0x1 PUSH1 0xA0 SHL SUB SWAP1 SWAP2 AND DUP2 MSTORE PUSH1 0x20 ADD PUSH2 0x1F3 JUMP JUMPDEST PUSH2 0x2D3 PUSH2 0x32B CALLDATASIZE PUSH1 0x4 PUSH2 0xA96 JUMP JUMPDEST PUSH2 0x5E0 JUMP JUMPDEST PUSH13 0x3C95A2F0B4856475FE000000A SLOAD PUSH2 0x305 SWAP1 PUSH1 0x1 PUSH1 0x1 PUSH1 0xA0 SHL SUB AND DUP2 JUMP JUMPDEST PUSH2 0x1E9 PUSH1 0x6 SLOAD DUP2 JUMP JUMPDEST PUSH2 0x230 PUSH2 0x645 JUMP JUMPDEST PUSH2 0x1E9 PUSH2 0x36E CALLDATASIZE PUSH1 0x4 PUSH2 0xB0D JUMP JUMPDEST PUSH2 0x654 JUMP JUMPDEST PUSH2 0x230 PUSH2 0x81D JUMP JUMPDEST PUSH2 0x1E9 PUSH2 0x389 CALLDATASIZE PUSH1 0x4 PUSH2 0xA96 JUMP JUMPDEST PUSH1 0x1 PUSH1 0x1 PUSH1 0xA0 SHL SUB AND PUSH1 0x0 SWAP1 DUP2 MSTORE PUSH1 0x5 PUSH1 0x20 MSTORE PUSH1 0x40 SWAP1 KECCAK256 PUSH1 0x1 ADD SLOAD SWAP1 JUMP JUMPDEST PUSH2 0x1E9 PUSH2 0x3B5 CALLDATASIZE PUSH1 0x4 PUSH2 0xB0D JUMP JUMPDEST POP PUSH1 0x1 SWAP1 JUMP JUMPDEST PUSH2 0x3E9 PUSH2 0x3C9 CALLDATASIZE PUSH1 0x4 PUSH2 0xA96 JUMP JUMPDEST PUSH1 0x5 PUSH1 0x20 MSTORE PUSH1 0x0 SWAP1 DUP2 MSTORE PUSH1 0x40 SWAP1 KECCAK256 DUP1 SLOAD PUSH1 0x1 SWAP1 SWAP2 ADD SLOAD PUSH1 0xF SWAP2 SWAP1 SWAP2 SIGNEXTEND SWAP1 DUP3 JUMP JUMPDEST PUSH1 0x40 DUP1 MLOAD PUSH1 0xF SWAP4 SWAP1 SWAP4 SIGNEXTEND DUP4 MSTORE PUSH1 0x20 DUP4 ADD SWAP2 SWAP1 SWAP2 MSTORE ADD PUSH2 0x1F3 JUMP JUMPDEST PUSH2 0x416 PUSH2 0x411 CALLDATASIZE PUSH1 0x4 PUSH2 0xB0D JUMP JUMPDEST PUSH2 0x8AB JUMP JUMPDEST PUSH1 0x40 DUP1 MLOAD PUSH1 0xF SWAP6 DUP7 SIGNEXTEND DUP2 MSTORE SWAP4 SWAP1 SWAP5 SIGNEXTEND PUSH1 0x20 DUP5 ADD MSTORE SWAP3 DUP3 ADD MSTORE PUSH1 0x60 DUP2 ADD SWAP2 SWAP1 SWAP2 MSTORE PUSH1 0x80 ADD PUSH2 0x1F3 JUMP JUMPDEST PUSH2 0x1E9 PUSH2 0x44C CALLDATASIZE PUSH1 0x4 PUSH2 0xA6C JUMP JUMPDEST PUSH2 0x8EF JUMP JUMPDEST PUSH2 0x230 PUSH2 0x937 JUMP JUMPDEST PUSH32 0x0 PUSH2 0x305 JUMP JUMPDEST PUSH32 0x0 PUSH2 0x305 JUMP JUMPDEST PUSH2 0x276 PUSH2 0x4B3 CALLDATASIZE PUSH1 0x4 PUSH2 0xB0D JUMP JUMPDEST PUSH2 0x944 JUMP JUMPDEST PUSH1 0x60 PUSH1 0x1 DUP1 SLOAD PUSH2 0x4C7 SWAP1 PUSH2 0xB26 JUMP JUMPDEST DUP1 PUSH1 0x1F ADD PUSH1 0x20 DUP1 SWAP2 DIV MUL PUSH1 0x20 ADD PUSH1 0x40 MLOAD SWAP1 DUP2 ADD PUSH1 0x40 MSTORE DUP1 SWAP3 SWAP2 SWAP1 DUP2 DUP2 MSTORE PUSH1 0x20 ADD DUP3 DUP1 SLOAD PUSH2 0x4F3 SWAP1 PUSH2 0xB26 JUMP JUMPDEST DUP1 ISZERO PUSH2 0x540 JUMPI DUP1 PUSH1 0x1F LT PUSH2 0x515 JUMPI PUSH2 0x100 DUP1 DUP4 SLOAD DIV MUL DUP4 MSTORE SWAP2 PUSH1 0x20 ADD SWAP2 PUSH2 0x540 JUMP JUMPDEST DUP3 ADD SWAP2 SWAP1 PUSH1 0x0 MSTORE PUSH1 0x20 PUSH1 0x0 KECCAK256 SWAP1 JUMPDEST DUP2 SLOAD DUP2 MSTORE SWAP1 PUSH1 0x1 ADD SWAP1 PUSH1 0x20 ADD DUP1 DUP4 GT PUSH2 0x523 JUMPI DUP3 SWAP1 SUB PUSH1 0x1F AND DUP3 ADD SWAP2 JUMPDEST POP POP POP POP POP SWAP1 POP SWAP1 JUMP JUMPDEST PUSH1 0x2 PUSH1 0x0 SLOAD SUB PUSH2 0x575 JUMPI PUSH1 0x40 MLOAD PUSH3 0x461BCD PUSH1 0xE5 SHL DUP2 MSTORE PUSH1 0x4 ADD PUSH2 0x56C SWAP1 PUSH2 0xB60 JUMP JUMPDEST PUSH1 0x40 MLOAD DUP1 SWAP2 SUB SWAP1 REVERT JUMPDEST PUSH1 0x2 PUSH1 0x0 SSTORE PUSH2 0x584 DUP3 DUP3 PUSH2 0x971 JUMP JUMPDEST POP POP PUSH1 0x1 PUSH1 0x0 SSTORE JUMP JUMPDEST PUSH1 0x2 PUSH1 0x0 SLOAD SUB PUSH2 0x5AF JUMPI PUSH1 0x40 MLOAD PUSH3 0x461BCD PUSH1 0xE5 SHL DUP2 MSTORE PUSH1 0x4 ADD PUSH2 0x56C SWAP1 PUSH2 0xB60 JUMP JUMPDEST PUSH1 0x1 PUSH1 0x0 SSTORE JUMP JUMPDEST PUSH1 0x2 PUSH1 0x0 SLOAD SUB PUSH2 0x5D8 JUMPI PUSH1 0x40 MLOAD PUSH3 0x461BCD PUSH1 0xE5 SHL DUP2 MSTORE PUSH1 0x4 ADD PUSH2 0x56C SWAP1 PUSH2 0xB60 JUMP JUMPDEST POP PUSH1 0x1 PUSH1 0x0 SSTORE JUMP JUMPDEST PUSH1 0x1 PUSH1 0x1 PUSH1 0xA0 SHL SUB DUP2 AND PUSH1 0x0 SWAP1 DUP2 MSTORE PUSH13 0x3C95A2F0B4856475FE0000008 PUSH1 0x20 SWAP1 DUP2 MSTORE PUSH1 0x40 DUP1 DUP4 KECCAK256 SLOAD PUSH13 0x3C95A2F0B4856475FE0000007 SWAP1 SWAP3 MSTORE DUP3 KECCAK256 DUP2 PUSH4 0x3B9ACA00 DUP2 LT PUSH2 0x62F JUMPI PUSH2 0x62F PUSH2 0xB97 JUMP JUMPDEST PUSH1 0x3 MUL ADD SLOAD PUSH1 0x1 PUSH1 0x80 SHL SWAP1 DIV PUSH1 0xF SIGNEXTEND SWAP4 SWAP3 POP POP POP JUMP JUMPDEST PUSH1 0x60 PUSH1 0x2 DUP1 SLOAD PUSH2 0x4C7 SWAP1 PUSH2 0xB26 JUMP JUMPDEST PUSH1 0x0 NUMBER DUP3 GT ISZERO PUSH2 0x69E JUMPI PUSH1 0x40 MLOAD PUSH3 0x461BCD PUSH1 0xE5 SHL DUP2 MSTORE PUSH1 0x20 PUSH1 0x4 DUP3 ADD MSTORE PUSH1 0x15 PUSH1 0x24 DUP3 ADD MSTORE PUSH21 0x2FB13637B1B5901F10313637B1B597373AB6B132B9 PUSH1 0x59 SHL PUSH1 0x44 DUP3 ADD MSTORE PUSH1 0x64 ADD PUSH2 0x56C JUMP JUMPDEST PUSH1 0x6 SLOAD PUSH1 0x40 DUP1 MLOAD PUSH1 0x80 DUP2 ADD DUP3 MSTORE PUSH1 0x7 SLOAD PUSH1 0xF DUP2 DUP2 SIGNEXTEND DUP4 MSTORE PUSH1 0x1 PUSH1 0x80 SHL SWAP1 SWAP2 DIV SWAP1 SIGNEXTEND PUSH1 0x20 DUP3 ADD MSTORE PUSH1 0x8 SLOAD SWAP2 DUP2 ADD SWAP2 SWAP1 SWAP2 MSTORE PUSH1 0x9 SLOAD PUSH1 0x60 DUP3 ADD MSTORE PUSH1 0x0 SWAP1 DUP2 DUP4 ISZERO PUSH2 0x7B0 JUMPI PUSH1 0x0 PUSH1 0x7 PUSH2 0x6EF DUP6 PUSH1 0x1 PUSH2 0xBC3 JUMP JUMPDEST PUSH13 0x1431E0FAE6D7217CAA0000000 DUP2 LT PUSH2 0x70B JUMPI PUSH2 0x70B PUSH2 0xB97 JUMP JUMPDEST PUSH1 0x40 DUP1 MLOAD PUSH1 0x80 DUP2 ADD DUP3 MSTORE PUSH1 0x3 SWAP3 SWAP1 SWAP3 MUL SWAP3 SWAP1 SWAP3 ADD DUP1 SLOAD PUSH1 0xF DUP2 DUP2 SIGNEXTEND DUP5 MSTORE PUSH1 0x1 PUSH1 0x80 SHL SWAP1 SWAP2 DIV SWAP1 SIGNEXTEND PUSH1 0x20 DUP4 ADD MSTORE PUSH1 0x1 DUP2 ADD SLOAD SWAP3 DUP3 ADD SWAP3 SWAP1 SWAP3 MSTORE PUSH1 0x2 SWAP1 SWAP2 ADD SLOAD PUSH1 0x60 DUP1 DUP4 ADD DUP3 SWAP1 MSTORE DUP6 ADD MLOAD SWAP2 SWAP3 POP EQ PUSH2 0x7AA JUMPI DUP3 PUSH1 0x60 ADD MLOAD DUP2 PUSH1 0x60 ADD MLOAD PUSH2 0x770 SWAP2 SWAP1 PUSH2 0xBDB JUMP JUMPDEST DUP4 PUSH1 0x40 ADD MLOAD DUP3 PUSH1 0x40 ADD MLOAD PUSH2 0x784 SWAP2 SWAP1 PUSH2 0xBDB JUMP JUMPDEST PUSH1 0x60 DUP6 ADD MLOAD PUSH2 0x793 SWAP1 DUP11 PUSH2 0xBDB JUMP JUMPDEST PUSH2 0x79D SWAP2 SWAP1 PUSH2 0xBF2 JUMP JUMPDEST PUSH2 0x7A7 SWAP2 SWAP1 PUSH2 0xC11 JUMP JUMPDEST SWAP2 POP JUMPDEST POP PUSH2 0x7FF JUMP JUMPDEST NUMBER DUP3 PUSH1 0x60 ADD MLOAD EQ PUSH2 0x7FF JUMPI PUSH1 0x60 DUP3 ADD MLOAD PUSH2 0x7CA SWAP1 NUMBER PUSH2 0xBDB JUMP JUMPDEST PUSH1 0x40 DUP4 ADD MLOAD PUSH2 0x7D9 SWAP1 TIMESTAMP PUSH2 0xBDB JUMP JUMPDEST PUSH1 0x60 DUP5 ADD MLOAD PUSH2 0x7E8 SWAP1 DUP10 PUSH2 0xBDB JUMP JUMPDEST PUSH2 0x7F2 SWAP2 SWAP1 PUSH2 0xBF2 JUMP JUMPDEST PUSH2 0x7FC SWAP2 SWAP1 PUSH2 0xC11 JUMP JUMPDEST SWAP1 POP JUMPDEST PUSH2 0x813 DUP3 DUP3 DUP5 PUSH1 0x40 ADD MLOAD PUSH2 0x1E1 SWAP2 SWAP1 PUSH2 0xBC3 JUMP JUMPDEST SWAP7 SWAP6 POP POP POP POP POP POP JUMP JUMPDEST PUSH1 0x1 DUP1 SLOAD PUSH2 0x82A SWAP1 PUSH2 0xB26 JUMP JUMPDEST DUP1 PUSH1 0x1F ADD PUSH1 0x20 DUP1 SWAP2 DIV MUL PUSH1 0x20 ADD PUSH1 0x40 MLOAD SWAP1 DUP2 ADD PUSH1 0x40 MSTORE DUP1 SWAP3 SWAP2 SWAP1 DUP2 DUP2 MSTORE PUSH1 0x20 ADD DUP3 DUP1 SLOAD PUSH2 0x856 SWAP1 PUSH2 0xB26 JUMP JUMPDEST DUP1 ISZERO PUSH2 0x8A3 JUMPI DUP1 PUSH1 0x1F LT PUSH2 0x878 JUMPI PUSH2 0x100 DUP1 DUP4 SLOAD DIV MUL DUP4 MSTORE SWAP2 PUSH1 0x20 ADD SWAP2 PUSH2 0x8A3 JUMP JUMPDEST DUP3 ADD SWAP2 SWAP1 PUSH1 0x0 MSTORE PUSH1 0x20 PUSH1 0x0 KECCAK256 SWAP1 JUMPDEST DUP2 SLOAD DUP2 MSTORE SWAP1 PUSH1 0x1 ADD SWAP1 PUSH1 0x20 ADD DUP1 DUP4 GT PUSH2 0x886 JUMPI DUP3 SWAP1 SUB PUSH1 0x1F AND DUP3 ADD SWAP2 JUMPDEST POP POP POP POP POP DUP2 JUMP JUMPDEST PUSH1 0x7 DUP2 PUSH13 0x1431E0FAE6D7217CAA0000000 DUP2 LT PUSH2 0x8C7 JUMPI PUSH1 0x0 DUP1 REVERT JUMPDEST PUSH1 0x3 MUL ADD DUP1 SLOAD PUSH1 0x1 DUP3 ADD SLOAD PUSH1 0x2 SWAP1 SWAP3 ADD SLOAD PUSH1 0xF DUP3 DUP2 SIGNEXTEND SWAP5 POP PUSH1 0x1 PUSH1 0x80 SHL SWAP1 SWAP3 DIV SWAP1 SWAP2 SIGNEXTEND SWAP2 SWAP1 DUP5 JUMP JUMPDEST PUSH1 0x1 PUSH1 0x1 PUSH1 0xA0 SHL SUB DUP3 AND PUSH1 0x0 SWAP1 DUP2 MSTORE PUSH13 0x3C95A2F0B4856475FE0000007 PUSH1 0x20 MSTORE PUSH1 0x40 DUP2 KECCAK256 DUP3 PUSH4 0x3B9ACA00 DUP2 LT PUSH2 0x927 JUMPI PUSH2 0x927 PUSH2 0xB97 JUMP JUMPDEST PUSH1 0x3 MUL ADD PUSH1 0x1 ADD SLOAD SWAP1 POP SWAP3 SWAP2 POP POP JUMP JUMPDEST PUSH1 0x2 DUP1 SLOAD PUSH2 0x82A SWAP1 PUSH2 0xB26 JUMP JUMPDEST PUSH1 0x2 PUSH1 0x0 SLOAD SUB PUSH2 0x966 JUMPI PUSH1 0x40 MLOAD PUSH3 0x461BCD PUSH1 0xE5 SHL DUP2 MSTORE PUSH1 0x4 ADD PUSH2 0x56C SWAP1 PUSH2 0xB60 JUMP JUMPDEST PUSH1 0x2 PUSH1 0x0 SSTORE PUSH2 0x5D8 CALLER DUP3 JUMPDEST PUSH1 0x1 PUSH1 0x1 PUSH1 0xA0 SHL SUB DUP3 AND PUSH2 0x9C7 JUMPI PUSH1 0x40 MLOAD PUSH3 0x461BCD PUSH1 0xE5 SHL DUP2 MSTORE PUSH1 0x20 PUSH1 0x4 DUP3 ADD MSTORE PUSH1 0x1F PUSH1 0x24 DUP3 ADD MSTORE PUSH32 0x45524332303A206D696E7420746F20746865207A65726F206164647265737300 PUSH1 0x44 DUP3 ADD MSTORE PUSH1 0x64 ADD PUSH2 0x56C JUMP JUMPDEST DUP1 PUSH1 0x4 PUSH1 0x0 DUP3 DUP3 SLOAD PUSH2 0x9D9 SWAP2 SWAP1 PUSH2 0xBC3 JUMP JUMPDEST SWAP1 SWAP2 SSTORE POP POP PUSH1 0x1 PUSH1 0x1 PUSH1 0xA0 SHL SUB DUP3 AND PUSH1 0x0 SWAP1 DUP2 MSTORE PUSH1 0x3 PUSH1 0x20 MSTORE PUSH1 0x40 DUP2 KECCAK256 DUP1 SLOAD DUP4 SWAP3 SWAP1 PUSH2 0xA06 SWAP1 DUP5 SWAP1 PUSH2 0xBC3 JUMP JUMPDEST SWAP1 SWAP2 SSTORE POP POP PUSH1 0x40 MLOAD DUP2 DUP2 MSTORE PUSH1 0x1 PUSH1 0x1 PUSH1 0xA0 SHL SUB DUP4 AND SWAP1 PUSH1 0x0 SWAP1 PUSH32 0xDDF252AD1BE2C89B69C2B068FC378DAA952BA7F163C4A11628F55A4DF523B3EF SWAP1 PUSH1 0x20 ADD PUSH1 0x40 MLOAD DUP1 SWAP2 SUB SWAP1 LOG3 POP POP JUMP JUMPDEST DUP1 CALLDATALOAD PUSH1 0x1 PUSH1 0x1 PUSH1 0xA0 SHL SUB DUP2 AND DUP2 EQ PUSH2 0xA67 JUMPI PUSH1 0x0 DUP1 REVERT JUMPDEST SWAP2 SWAP1 POP JUMP JUMPDEST PUSH1 0x0 DUP1 PUSH1 0x40 DUP4 DUP6 SUB SLT ISZERO PUSH2 0xA7F JUMPI PUSH1 0x0 DUP1 REVERT JUMPDEST PUSH2 0xA88 DUP4 PUSH2 0xA50 JUMP JUMPDEST SWAP5 PUSH1 0x20 SWAP4 SWAP1 SWAP4 ADD CALLDATALOAD SWAP4 POP POP POP JUMP JUMPDEST PUSH1 0x0 PUSH1 0x20 DUP3 DUP5 SUB SLT ISZERO PUSH2 0xAA8 JUMPI PUSH1 0x0 DUP1 REVERT JUMPDEST PUSH2 0xAB1 DUP3 PUSH2 0xA50 JUMP JUMPDEST SWAP4 SWAP3 POP POP POP JUMP JUMPDEST PUSH1 0x0 PUSH1 0x20 DUP1 DUP4 MSTORE DUP4 MLOAD DUP1 DUP3 DUP6 ADD MSTORE PUSH1 0x0 JUMPDEST DUP2 DUP2 LT ISZERO PUSH2 0xAE5 JUMPI DUP6 DUP2 ADD DUP4 ADD MLOAD DUP6 DUP3 ADD PUSH1 0x40 ADD MSTORE DUP3 ADD PUSH2 0xAC9 JUMP JUMPDEST DUP2 DUP2 GT ISZERO PUSH2 0xAF7 JUMPI PUSH1 0x0 PUSH1 0x40 DUP4 DUP8 ADD ADD MSTORE JUMPDEST POP PUSH1 0x1F ADD PUSH1 0x1F NOT AND SWAP3 SWAP1 SWAP3 ADD PUSH1 0x40 ADD SWAP4 SWAP3 POP POP POP JUMP JUMPDEST PUSH1 0x0 PUSH1 0x20 DUP3 DUP5 SUB SLT ISZERO PUSH2 0xB1F JUMPI PUSH1 0x0 DUP1 REVERT JUMPDEST POP CALLDATALOAD SWAP2 SWAP1 POP JUMP JUMPDEST PUSH1 0x1 DUP2 DUP2 SHR SWAP1 DUP3 AND DUP1 PUSH2 0xB3A JUMPI PUSH1 0x7F DUP3 AND SWAP2 POP JUMPDEST PUSH1 0x20 DUP3 LT DUP2 SUB PUSH2 0xB5A JUMPI PUSH4 0x4E487B71 PUSH1 0xE0 SHL PUSH1 0x0 MSTORE PUSH1 0x22 PUSH1 0x4 MSTORE PUSH1 0x24 PUSH1 0x0 REVERT JUMPDEST POP SWAP2 SWAP1 POP JUMP JUMPDEST PUSH1 0x20 DUP1 DUP3 MSTORE PUSH1 0x1F SWAP1 DUP3 ADD MSTORE PUSH32 0x5265656E7472616E637947756172643A207265656E7472616E742063616C6C00 PUSH1 0x40 DUP3 ADD MSTORE PUSH1 0x60 ADD SWAP1 JUMP JUMPDEST PUSH4 0x4E487B71 PUSH1 0xE0 SHL PUSH1 0x0 MSTORE PUSH1 0x32 PUSH1 0x4 MSTORE PUSH1 0x24 PUSH1 0x0 REVERT JUMPDEST PUSH4 0x4E487B71 PUSH1 0xE0 SHL PUSH1 0x0 MSTORE PUSH1 0x11 PUSH1 0x4 MSTORE PUSH1 0x24 PUSH1 0x0 REVERT JUMPDEST PUSH1 0x0 DUP3 NOT DUP3 GT ISZERO PUSH2 0xBD6 JUMPI PUSH2 0xBD6 PUSH2 0xBAD JUMP JUMPDEST POP ADD SWAP1 JUMP JUMPDEST PUSH1 0x0 DUP3 DUP3 LT ISZERO PUSH2 0xBED JUMPI PUSH2 0xBED PUSH2 0xBAD JUMP JUMPDEST POP SUB SWAP1 JUMP JUMPDEST PUSH1 0x0 DUP2 PUSH1 0x0 NOT DIV DUP4 GT DUP3 ISZERO ISZERO AND ISZERO PUSH2 0xC0C JUMPI PUSH2 0xC0C PUSH2 0xBAD JUMP JUMPDEST POP MUL SWAP1 JUMP JUMPDEST PUSH1 0x0 DUP3 PUSH2 0xC2E JUMPI PUSH4 0x4E487B71 PUSH1 0xE0 SHL PUSH1 0x0 MSTORE PUSH1 0x12 PUSH1 0x4 MSTORE PUSH1 0x24 PUSH1 0x0 REVERT JUMPDEST POP DIV SWAP1 JUMP INVALID LOG2 PUSH5 0x6970667358 0x22 SLT KECCAK256 SGT ADDRESS PUSH11 0x1025AC0F7D78C76B209A0D PUSH26 0x401201DDC2F7241B10D40C3A21E5EE547464736F6C634300080D STOP CALLER "
        },
        "gasEstimates": {
          "creation": {
            "codeDepositCost": "635400",
            "executionCost": "infinite",
            "totalCost": "infinite"
          },
          "external": {
            "NAME()": "infinite",
            "SYMBOL()": "infinite",
            "admin()": "infinite",
            "apply_smart_wallet_checker()": "209",
            "balanceOf(address,uint256)": "417",
            "balanceOfAt(address,uint256)": "416",
            "checkpoint()": "231",
            "commit_smart_wallet_checker(address)": "360",
            "create_lock(uint256)": "infinite",
            "decimals()": "infinite",
            "deposit_for(address,uint256)": "infinite",
            "epoch()": "2330",
            "future_smart_wallet_checker()": "2448",
            "get_last_user_slope(address)": "4870",
            "increase_amount(uint256)": "24564",
            "increase_unlock_time(uint256)": "24563",
            "locked(address)": "4737",
            "locked__end(address)": "2599",
            "name()": "infinite",
            "point_history(uint256)": "6850",
            "slope_changes(uint256)": "2550",
            "smart_wallet_checker()": "2382",
            "symbol()": "infinite",
            "token()": "infinite",
            "totalSupply(uint256)": "352",
            "totalSupplyAt(uint256)": "infinite",
            "user_point_epoch(address)": "2577",
            "user_point_history__ts(address,uint256)": "2706",
            "withdraw()": "24463"
          },
          "internal": {
            "_afterTokenTransfer(address,address,uint256)": "infinite",
            "_beforeTokenTransfer(address,address,uint256)": "infinite",
            "_checkpoint(address,struct veBalMock.LockedBalance memory,struct veBalMock.LockedBalance memory)": "infinite",
            "_deposit_for(address,uint256,uint256,struct veBalMock.LockedBalance memory,int128)": "infinite",
            "_mint(address,uint256)": "infinite",
            "assert_not_contract(address)": "infinite",
            "find_block_epoch(uint256,uint256)": "infinite",
            "find_block_user_epoch(address,uint256,uint256)": "infinite",
            "find_timestamp_epoch(uint256,uint256)": "infinite",
            "find_timestamp_user_epoch(address,uint256,uint256)": "infinite",
            "supply_at(struct veBalMock.Point memory,uint256)": "infinite"
          }
        },
        "methodIdentifiers": {
          "NAME()": "a3f4df7e",
          "SYMBOL()": "f76f8d78",
          "admin()": "f851a440",
          "apply_smart_wallet_checker()": "8e5b490f",
          "balanceOf(address,uint256)": "00fdd58e",
          "balanceOfAt(address,uint256)": "4ee2cd7e",
          "checkpoint()": "c2c4c5c1",
          "commit_smart_wallet_checker(address)": "57f901e2",
          "create_lock(uint256)": "ffc9514d",
          "decimals()": "313ce567",
          "deposit_for(address,uint256)": "3a46273e",
          "epoch()": "900cf0cf",
          "future_smart_wallet_checker()": "8ff36fd1",
          "get_last_user_slope(address)": "7c74a174",
          "increase_amount(uint256)": "4957677c",
          "increase_unlock_time(uint256)": "eff7a612",
          "locked(address)": "cbf9fe5f",
          "locked__end(address)": "adc63589",
          "name()": "06fdde03",
          "point_history(uint256)": "d1febfb9",
          "slope_changes(uint256)": "71197484",
          "smart_wallet_checker()": "7175d4f7",
          "symbol()": "95d89b41",
          "token()": "fc0c546a",
          "totalSupply(uint256)": "bd85b039",
          "totalSupplyAt(uint256)": "981b24d0",
          "user_point_epoch(address)": "010ae757",
          "user_point_history__ts(address,uint256)": "da020a18",
          "withdraw()": "3ccfd60b"
        }
      },
      "storageLayout": {
        "storage": [
          {
            "astId": 10,
            "contract": "contracts/test/veBalMock.sol:veBalMock",
            "label": "_status",
            "offset": 0,
            "slot": "0",
            "type": "t_uint256"
          },
          {
            "astId": 167,
            "contract": "contracts/test/veBalMock.sol:veBalMock",
            "label": "NAME",
            "offset": 0,
            "slot": "1",
            "type": "t_string_storage"
          },
          {
            "astId": 169,
            "contract": "contracts/test/veBalMock.sol:veBalMock",
            "label": "SYMBOL",
            "offset": 0,
            "slot": "2",
            "type": "t_string_storage"
          },
          {
            "astId": 175,
            "contract": "contracts/test/veBalMock.sol:veBalMock",
            "label": "supply",
            "offset": 0,
            "slot": "3",
            "type": "t_mapping(t_address,t_uint256)"
          },
          {
            "astId": 177,
            "contract": "contracts/test/veBalMock.sol:veBalMock",
            "label": "_totalSupply",
            "offset": 0,
            "slot": "4",
            "type": "t_uint256"
          },
          {
            "astId": 182,
            "contract": "contracts/test/veBalMock.sol:veBalMock",
            "label": "locked",
            "offset": 0,
            "slot": "5",
            "type": "t_mapping(t_address,t_struct(LockedBalance)102_storage)"
          },
          {
            "astId": 184,
            "contract": "contracts/test/veBalMock.sol:veBalMock",
            "label": "epoch",
            "offset": 0,
            "slot": "6",
            "type": "t_uint256"
          },
          {
            "astId": 189,
            "contract": "contracts/test/veBalMock.sol:veBalMock",
            "label": "point_history",
            "offset": 0,
            "slot": "7",
            "type": "t_array(t_struct(Point)97_storage)100000000000000000000000000000_storage"
          },
          {
            "astId": 196,
            "contract": "contracts/test/veBalMock.sol:veBalMock",
            "label": "user_point_history",
            "offset": 0,
            "slot": "300000000000000000000000000007",
            "type": "t_mapping(t_address,t_array(t_struct(Point)97_storage)1000000000_storage)"
          },
          {
            "astId": 200,
            "contract": "contracts/test/veBalMock.sol:veBalMock",
            "label": "user_point_epoch",
            "offset": 0,
            "slot": "300000000000000000000000000008",
            "type": "t_mapping(t_address,t_uint256)"
          },
          {
            "astId": 204,
            "contract": "contracts/test/veBalMock.sol:veBalMock",
            "label": "slope_changes",
            "offset": 0,
            "slot": "300000000000000000000000000009",
            "type": "t_mapping(t_uint256,t_int128)"
          },
          {
            "astId": 206,
            "contract": "contracts/test/veBalMock.sol:veBalMock",
            "label": "future_smart_wallet_checker",
            "offset": 0,
            "slot": "300000000000000000000000000010",
            "type": "t_address"
          },
          {
            "astId": 208,
            "contract": "contracts/test/veBalMock.sol:veBalMock",
            "label": "smart_wallet_checker",
            "offset": 0,
            "slot": "300000000000000000000000000011",
            "type": "t_address"
          }
        ],
        "types": {
          "t_address": {
            "encoding": "inplace",
            "label": "address",
            "numberOfBytes": "20"
          },
          "t_array(t_struct(Point)97_storage)100000000000000000000000000000_storage": {
            "base": "t_struct(Point)97_storage",
            "encoding": "inplace",
            "label": "struct veBalMock.Point[100000000000000000000000000000]",
            "numberOfBytes": "9600000000000000000000000000000"
          },
          "t_array(t_struct(Point)97_storage)1000000000_storage": {
            "base": "t_struct(Point)97_storage",
            "encoding": "inplace",
            "label": "struct veBalMock.Point[1000000000]",
            "numberOfBytes": "96000000000"
          },
          "t_int128": {
            "encoding": "inplace",
            "label": "int128",
            "numberOfBytes": "16"
          },
          "t_mapping(t_address,t_array(t_struct(Point)97_storage)1000000000_storage)": {
            "encoding": "mapping",
            "key": "t_address",
            "label": "mapping(address => struct veBalMock.Point[1000000000])",
            "numberOfBytes": "32",
            "value": "t_array(t_struct(Point)97_storage)1000000000_storage"
          },
          "t_mapping(t_address,t_struct(LockedBalance)102_storage)": {
            "encoding": "mapping",
            "key": "t_address",
            "label": "mapping(address => struct veBalMock.LockedBalance)",
            "numberOfBytes": "32",
            "value": "t_struct(LockedBalance)102_storage"
          },
          "t_mapping(t_address,t_uint256)": {
            "encoding": "mapping",
            "key": "t_address",
            "label": "mapping(address => uint256)",
            "numberOfBytes": "32",
            "value": "t_uint256"
          },
          "t_mapping(t_uint256,t_int128)": {
            "encoding": "mapping",
            "key": "t_uint256",
            "label": "mapping(uint256 => int128)",
            "numberOfBytes": "32",
            "value": "t_int128"
          },
          "t_string_storage": {
            "encoding": "bytes",
            "label": "string",
            "numberOfBytes": "32"
          },
          "t_struct(LockedBalance)102_storage": {
            "encoding": "inplace",
            "label": "struct veBalMock.LockedBalance",
            "members": [
              {
                "astId": 99,
                "contract": "contracts/test/veBalMock.sol:veBalMock",
                "label": "amount",
                "offset": 0,
                "slot": "0",
                "type": "t_int128"
              },
              {
                "astId": 101,
                "contract": "contracts/test/veBalMock.sol:veBalMock",
                "label": "end",
                "offset": 0,
                "slot": "1",
                "type": "t_uint256"
              }
            ],
            "numberOfBytes": "64"
          },
          "t_struct(Point)97_storage": {
            "encoding": "inplace",
            "label": "struct veBalMock.Point",
            "members": [
              {
                "astId": 90,
                "contract": "contracts/test/veBalMock.sol:veBalMock",
                "label": "bias",
                "offset": 0,
                "slot": "0",
                "type": "t_int128"
              },
              {
                "astId": 92,
                "contract": "contracts/test/veBalMock.sol:veBalMock",
                "label": "slope",
                "offset": 16,
                "slot": "0",
                "type": "t_int128"
              },
              {
                "astId": 94,
                "contract": "contracts/test/veBalMock.sol:veBalMock",
                "label": "ts",
                "offset": 0,
                "slot": "1",
                "type": "t_uint256"
              },
              {
                "astId": 96,
                "contract": "contracts/test/veBalMock.sol:veBalMock",
                "label": "blk",
                "offset": 0,
                "slot": "2",
                "type": "t_uint256"
              }
            ],
            "numberOfBytes": "96"
          },
          "t_uint256": {
            "encoding": "inplace",
            "label": "uint256",
            "numberOfBytes": "32"
          }
        }
      },
      "userdoc": {
        "kind": "user",
        "methods": {},
        "version": 1
      }
    }
  }
}