{
  "_format": "hh-sol-artifact-1",
  "contractName": "VoterProxy",
  "sourceName": "contracts/VoterProxy.sol",
  "abi": [
    {
      "inputs": [],
      "stateMutability": "nonpayable",
      "type": "constructor"
    },
    {
      "inputs": [
        {
          "internalType": "address",
          "name": "_gauge",
          "type": "address"
        }
      ],
      "name": "balanceOfPool",
      "outputs": [
        {
          "internalType": "uint256",
          "name": "",
          "type": "uint256"
        }
      ],
      "stateMutability": "view",
      "type": "function"
    },
    {
      "inputs": [
        {
          "internalType": "address",
          "name": "_gauge",
          "type": "address"
        }
      ],
      "name": "claimCrv",
      "outputs": [
        {
          "internalType": "uint256",
          "name": "",
          "type": "uint256"
        }
      ],
      "stateMutability": "nonpayable",
      "type": "function"
    },
    {
      "inputs": [
        {
          "internalType": "address",
          "name": "_distroContract",
          "type": "address"
        },
        {
          "internalType": "address",
          "name": "_token",
          "type": "address"
        }
      ],
      "name": "claimFees",
      "outputs": [
        {
          "internalType": "uint256",
          "name": "",
          "type": "uint256"
        }
      ],
      "stateMutability": "nonpayable",
      "type": "function"
    },
    {
      "inputs": [
        {
          "internalType": "address",
          "name": "_gauge",
          "type": "address"
        }
      ],
      "name": "claimRewards",
      "outputs": [
        {
          "internalType": "bool",
          "name": "",
          "type": "bool"
        }
      ],
      "stateMutability": "nonpayable",
      "type": "function"
    },
    {
      "inputs": [
        {
          "internalType": "uint256",
          "name": "_value",
          "type": "uint256"
        },
        {
          "internalType": "uint256",
          "name": "_unlockTime",
          "type": "uint256"
        }
      ],
      "name": "createLock",
      "outputs": [
        {
          "internalType": "bool",
          "name": "",
          "type": "bool"
        }
      ],
      "stateMutability": "nonpayable",
      "type": "function"
    },
    {
      "inputs": [],
      "name": "crv",
      "outputs": [
        {
          "internalType": "address",
          "name": "",
          "type": "address"
        }
      ],
      "stateMutability": "view",
      "type": "function"
    },
    {
      "inputs": [
        {
          "internalType": "address",
          "name": "_token",
          "type": "address"
        },
        {
          "internalType": "address",
          "name": "_gauge",
          "type": "address"
        }
      ],
      "name": "deposit",
      "outputs": [
        {
          "internalType": "bool",
          "name": "",
          "type": "bool"
        }
      ],
      "stateMutability": "nonpayable",
      "type": "function"
    },
    {
      "inputs": [],
      "name": "depositor",
      "outputs": [
        {
          "internalType": "address",
          "name": "",
          "type": "address"
        }
      ],
      "stateMutability": "view",
      "type": "function"
    },
    {
      "inputs": [],
      "name": "escrow",
      "outputs": [
        {
          "internalType": "address",
          "name": "",
          "type": "address"
        }
      ],
      "stateMutability": "view",
      "type": "function"
    },
    {
      "inputs": [
        {
          "internalType": "address",
          "name": "_to",
          "type": "address"
        },
        {
          "internalType": "uint256",
          "name": "_value",
          "type": "uint256"
        },
        {
          "internalType": "bytes",
          "name": "_data",
          "type": "bytes"
        }
      ],
      "name": "execute",
      "outputs": [
        {
          "internalType": "bool",
          "name": "",
          "type": "bool"
        },
        {
          "internalType": "bytes",
          "name": "",
          "type": "bytes"
        }
      ],
      "stateMutability": "nonpayable",
      "type": "function"
    },
    {
      "inputs": [],
      "name": "gaugeController",
      "outputs": [
        {
          "internalType": "address",
          "name": "",
          "type": "address"
        }
      ],
      "stateMutability": "view",
      "type": "function"
    },
    {
      "inputs": [],
      "name": "getName",
      "outputs": [
        {
          "internalType": "string",
          "name": "",
          "type": "string"
        }
      ],
      "stateMutability": "pure",
      "type": "function"
    },
    {
      "inputs": [
        {
          "internalType": "uint256",
          "name": "_value",
          "type": "uint256"
        }
      ],
      "name": "increaseAmount",
      "outputs": [
        {
          "internalType": "bool",
          "name": "",
          "type": "bool"
        }
      ],
      "stateMutability": "nonpayable",
      "type": "function"
    },
    {
      "inputs": [
        {
          "internalType": "uint256",
          "name": "_value",
          "type": "uint256"
        }
      ],
      "name": "increaseTime",
      "outputs": [
        {
          "internalType": "bool",
          "name": "",
          "type": "bool"
        }
      ],
      "stateMutability": "nonpayable",
      "type": "function"
    },
    {
      "inputs": [],
      "name": "mintr",
      "outputs": [
        {
          "internalType": "address",
          "name": "",
          "type": "address"
        }
      ],
      "stateMutability": "view",
      "type": "function"
    },
    {
      "inputs": [],
      "name": "operator",
      "outputs": [
        {
          "internalType": "address",
          "name": "",
          "type": "address"
        }
      ],
      "stateMutability": "view",
      "type": "function"
    },
    {
      "inputs": [],
      "name": "owner",
      "outputs": [
        {
          "internalType": "address",
          "name": "",
          "type": "address"
        }
      ],
      "stateMutability": "view",
      "type": "function"
    },
    {
      "inputs": [],
      "name": "release",
      "outputs": [
        {
          "internalType": "bool",
          "name": "",
          "type": "bool"
        }
      ],
      "stateMutability": "nonpayable",
      "type": "function"
    },
    {
      "inputs": [
        {
          "internalType": "address",
          "name": "_depositor",
          "type": "address"
        }
      ],
      "name": "setDepositor",
      "outputs": [],
      "stateMutability": "nonpayable",
      "type": "function"
    },
    {
      "inputs": [
        {
          "internalType": "address",
          "name": "_operator",
          "type": "address"
        }
      ],
      "name": "setOperator",
      "outputs": [],
      "stateMutability": "nonpayable",
      "type": "function"
    },
    {
      "inputs": [
        {
          "internalType": "address",
          "name": "_owner",
          "type": "address"
        }
      ],
      "name": "setOwner",
      "outputs": [],
      "stateMutability": "nonpayable",
      "type": "function"
    },
    {
      "inputs": [
        {
          "internalType": "address",
          "name": "_stash",
          "type": "address"
        },
        {
          "internalType": "bool",
          "name": "_status",
          "type": "bool"
        }
      ],
      "name": "setStashAccess",
      "outputs": [
        {
          "internalType": "bool",
          "name": "",
          "type": "bool"
        }
      ],
      "stateMutability": "nonpayable",
      "type": "function"
    },
    {
      "inputs": [
        {
          "internalType": "uint256",
          "name": "_voteId",
          "type": "uint256"
        },
        {
          "internalType": "address",
          "name": "_votingAddress",
          "type": "address"
        },
        {
          "internalType": "bool",
          "name": "_support",
          "type": "bool"
        }
      ],
      "name": "vote",
      "outputs": [
        {
          "internalType": "bool",
          "name": "",
          "type": "bool"
        }
      ],
      "stateMutability": "nonpayable",
      "type": "function"
    },
    {
      "inputs": [
        {
          "internalType": "address",
          "name": "_gauge",
          "type": "address"
        },
        {
          "internalType": "uint256",
          "name": "_weight",
          "type": "uint256"
        }
      ],
      "name": "voteGaugeWeight",
      "outputs": [
        {
          "internalType": "bool",
          "name": "",
          "type": "bool"
        }
      ],
      "stateMutability": "nonpayable",
      "type": "function"
    },
    {
      "inputs": [
        {
          "internalType": "contract IERC20",
          "name": "_asset",
          "type": "address"
        }
      ],
      "name": "withdraw",
      "outputs": [
        {
          "internalType": "uint256",
          "name": "balance",
          "type": "uint256"
        }
      ],
      "stateMutability": "nonpayable",
      "type": "function"
    },
    {
      "inputs": [
        {
          "internalType": "address",
          "name": "_token",
          "type": "address"
        },
        {
          "internalType": "address",
          "name": "_gauge",
          "type": "address"
        },
        {
          "internalType": "uint256",
          "name": "_amount",
          "type": "uint256"
        }
      ],
      "name": "withdraw",
      "outputs": [
        {
          "internalType": "bool",
          "name": "",
          "type": "bool"
        }
      ],
      "stateMutability": "nonpayable",
      "type": "function"
    },
    {
      "inputs": [
        {
          "internalType": "address",
          "name": "_token",
          "type": "address"
        },
        {
          "internalType": "address",
          "name": "_gauge",
          "type": "address"
        }
      ],
      "name": "withdrawAll",
      "outputs": [
        {
          "internalType": "bool",
          "name": "",
          "type": "bool"
        }
      ],
      "stateMutability": "nonpayable",
      "type": "function"
    }
  ],
  "bytecode": "0x608060405234801561001057600080fd5b50600080546001600160a01b031916331790556119fe806100326000396000f3fe608060405234801561001057600080fd5b50600436106101a95760003560e01c806399eecb3b116100f9578063d9caed1211610097578063ef5cfb8c11610071578063ef5cfb8c146103e1578063f2c098b7146103f4578063f9609f0814610407578063fa3964b21461041a57600080fd5b8063d9caed12146103a0578063e2cdd42a146103b3578063e2fdcc17146103c657600080fd5b8063b52c05fe116100d3578063b52c05fe1461033e578063b61d27f614610351578063c7c4ff4614610372578063d1e61dcb1461038557600080fd5b806399eecb3b146102fd578063b0f6379414610318578063b3ab15fb1461032b57600080fd5b80633fe9bc06116101665780635d7e9bcb116101405780635d7e9bcb146102b45780636a4874a1146102c757806386d1a69f146102e25780638da5cb5b146102ea57600080fd5b80633fe9bc061461026357806351cff8d914610276578063570ca7351461028957600080fd5b806309cae2c8146101ae57806313af4035146101d657806315456eba146101eb57806317d7de7c146101fe5780632dbfa7351461022f5780633c9a2a1a14610250575b600080fd5b6101c16101bc366004611673565b61042d565b60405190151581526020015b60405180910390f35b6101e96101e43660046116ac565b6104f9565b005b6101c16101f93660046116c9565b610545565b604080518082018252600f81526e4375727665566f74657250726f787960881b602082015290516101cd919061173e565b61024261023d366004611673565b610594565b6040519081526020016101cd565b6101c161025e3660046116c9565b6106a3565b6102426102713660046116ac565b61073d565b6102426102843660046116ac565b610880565b60015461029c906001600160a01b031681565b6040516001600160a01b0390911681526020016101cd565b6101c16102c2366004611751565b610964565b61029c73d533a949740bb3306d119cc777fa900ba034cd5281565b6101c1610a0f565b60005461029c906001600160a01b031681565b61029c732f50d538606fa9edd2b11e2446beb18c9d5846bb81565b6102426103263660046116ac565b610aaa565b6101e96103393660046116ac565b610b15565b6101c161034c36600461177d565b610c2e565b61036461035f36600461179f565b610d01565b6040516101cd929190611828565b60025461029c906001600160a01b031681565b61029c73d061d61a4d941c39e5453435b6345dc261c2fce081565b6101c16103ae366004611843565b610da1565b6101c16103c1366004611892565b610e79565b61029c735f3b5dfeb7b28cdbd7faba78963ee202a494e2a281565b6101c16103ef3660046116ac565b610f19565b6101e96104023660046116ac565b610f81565b6101c1610415366004611673565b610fe7565b6101c16104283660046118d4565b6111a5565b6001546000906001600160a01b031633146104635760405162461bcd60e51b815260040161045a90611902565b60405180910390fd5b6040516370a0823160e01b81523060048201526000906104e1906001600160a01b038616906370a0823190602401602060405180830381865afa1580156104ae573d6000803e3d6000fd5b505050506040513d601f19601f820116820180604052508101906104d29190611921565b6104db85610aaa565b9061120f565b90506104ee848483610da1565b506001949350505050565b6000546001600160a01b031633146105235760405162461bcd60e51b815260040161045a90611902565b600080546001600160a01b0319166001600160a01b0392909216919091179055565b6002546000906001600160a01b0316331461058c5760405162461bcd60e51b81526020600482015260076024820152662161757468323360c81b604482015260640161045a565b506001919050565b6001546000906001600160a01b031633146105c15760405162461bcd60e51b815260040161045a90611902565b826001600160a01b0316634e71d92d6040518163ffffffff1660e01b8152600401600060405180830381600087803b1580156105fc57600080fd5b505af1158015610610573d6000803e3d6000fd5b50506040516370a0823160e01b8152306004820152600092506001600160a01b03851691506370a0823190602401602060405180830381865afa15801561065b573d6000803e3d6000fd5b505050506040513d601f19601f8201168201806040525081019061067f9190611921565b60015490915061069c906001600160a01b0385811691168361121b565b9392505050565b6002546000906001600160a01b031633146106d05760405162461bcd60e51b815260040161045a90611902565b6040516377fbd30960e11b815260048101839052735f3b5dfeb7b28cdbd7faba78963ee202a494e2a29063eff7a61290602401600060405180830381600087803b15801561071d57600080fd5b505af1158015610731573d6000803e3d6000fd5b50600195945050505050565b6001546000906001600160a01b0316331461076a5760405162461bcd60e51b815260040161045a90611902565b6040516335313c2160e11b81526001600160a01b038316600482015260009073d061d61a4d941c39e5453435b6345dc261c2fce090636a62784290602401600060405180830381600087803b1580156107c257600080fd5b505af19250505080156107d3575060015b1561087a576040516370a0823160e01b815230600482015273d533a949740bb3306d119cc777fa900ba034cd52906370a0823190602401602060405180830381865afa158015610827573d6000803e3d6000fd5b505050506040513d601f19601f8201168201806040525081019061084b9190611921565b60015490915061087a9073d533a949740bb3306d119cc777fa900ba034cd52906001600160a01b03168361121b565b92915050565b3360009081526003602052604081205460ff1615156001146108b45760405162461bcd60e51b815260040161045a90611902565b6001600160a01b03821660009081526004602052604090205460ff1615156001036108e157506000919050565b6040516370a0823160e01b81523060048201526001600160a01b038316906370a0823190602401602060405180830381865afa158015610925573d6000803e3d6000fd5b505050506040513d601f19601f820116820180604052508101906109499190611921565b905061095f6001600160a01b038316338361121b565b919050565b6001546000906001600160a01b031633146109915760405162461bcd60e51b815260040161045a90611902565b604051631ae26c6560e31b81526001600160a01b038416600482015260248101839052732f50d538606fa9edd2b11e2446beb18c9d5846bb9063d7136328906044015b600060405180830381600087803b1580156109ee57600080fd5b505af1158015610a02573d6000803e3d6000fd5b5060019695505050505050565b6002546000906001600160a01b03163314610a3c5760405162461bcd60e51b815260040161045a90611902565b735f3b5dfeb7b28cdbd7faba78963ee202a494e2a26001600160a01b0316633ccfd60b6040518163ffffffff1660e01b8152600401600060405180830381600087803b158015610a8b57600080fd5b505af1158015610a9f573d6000803e3d6000fd5b505050506001905090565b6040516370a0823160e01b81523060048201526000906001600160a01b038316906370a0823190602401602060405180830381865afa158015610af1573d6000803e3d6000fd5b505050506040513d601f19601f8201168201806040525081019061087a9190611921565b6000546001600160a01b03163314610b3f5760405162461bcd60e51b815260040161045a90611902565b6001546001600160a01b03161580610bcf5750600160009054906101000a90046001600160a01b03166001600160a01b031663bf86d6906040518163ffffffff1660e01b8152600401602060405180830381865afa158015610ba5573d6000803e3d6000fd5b505050506040513d601f19601f82011682018060405250810190610bc9919061193a565b15156001145b610c0c5760405162461bcd60e51b815260206004820152600e60248201526d3732b2b2399039b43aba3237bbb760911b604482015260640161045a565b600180546001600160a01b0319166001600160a01b0392909216919091179055565b6002546000906001600160a01b03163314610c5b5760405162461bcd60e51b815260040161045a90611902565b610c8f73d533a949740bb3306d119cc777fa900ba034cd52735f3b5dfeb7b28cdbd7faba78963ee202a494e2a26000611283565b610cc273d533a949740bb3306d119cc777fa900ba034cd52735f3b5dfeb7b28cdbd7faba78963ee202a494e2a285611283565b6040516365fc387360e01b81526004810184905260248101839052735f3b5dfeb7b28cdbd7faba78963ee202a494e2a2906365fc3873906044016109d4565b6001546000906060906001600160a01b03163314610d315760405162461bcd60e51b815260040161045a90611902565b600080876001600160a01b0316878787604051610d4f929190611957565b60006040518083038185875af1925050503d8060008114610d8c576040519150601f19603f3d011682016040523d82523d6000602084013e610d91565b606091505b5090999098509650505050505050565b6001546000906001600160a01b03163314610dce5760405162461bcd60e51b815260040161045a90611902565b6040516370a0823160e01b81523060048201526000906001600160a01b038616906370a0823190602401602060405180830381865afa158015610e15573d6000803e3d6000fd5b505050506040513d601f19601f82011682018060405250810190610e399190611921565b905082811015610e6557610e5684610e518584611398565b6113a4565b9250610e62838261120f565b92505b6104ee6001600160a01b038616338561121b565b6001546000906001600160a01b03163314610ea65760405162461bcd60e51b815260040161045a90611902565b604051636f899de560e11b8152600481018590528215156024820152600060448201526001600160a01b0384169063df133bca90606401600060405180830381600087803b158015610ef757600080fd5b505af1158015610f0b573d6000803e3d6000fd5b506001979650505050505050565b6001546000906001600160a01b03163314610f465760405162461bcd60e51b815260040161045a90611902565b816001600160a01b031663e6f1daf26040518163ffffffff1660e01b8152600401600060405180830381600087803b15801561071d57600080fd5b6000546001600160a01b03163314610fc55760405162461bcd60e51b81526020600482015260076024820152662161757468313160c81b604482015260640161045a565b600280546001600160a01b0319166001600160a01b0392909216919091179055565b6001546000906001600160a01b031633146110145760405162461bcd60e51b815260040161045a90611902565b6001600160a01b03831660009081526004602052604081205460ff161515900361105c576001600160a01b0383166000908152600460205260409020805460ff191660011790555b6001600160a01b03821660009081526004602052604081205460ff16151590036110a4576001600160a01b0382166000908152600460205260409020805460ff191660011790555b6040516370a0823160e01b81523060048201526000906001600160a01b038516906370a0823190602401602060405180830381865afa1580156110eb573d6000803e3d6000fd5b505050506040513d601f19601f8201168201806040525081019061110f9190611921565b9050801561119b5761112c6001600160a01b038516846000611283565b6111406001600160a01b0385168483611283565b60405163b6b55f2560e01b8152600481018290526001600160a01b0384169063b6b55f2590602401600060405180830381600087803b15801561118257600080fd5b505af1158015611196573d6000803e3d6000fd5b505050505b5060019392505050565b6001546000906001600160a01b031633146111d25760405162461bcd60e51b815260040161045a90611902565b6001600160a01b03831615611206576001600160a01b0383166000908152600360205260409020805460ff19168315151790555b50600192915050565b600061069c828461197d565b6040516001600160a01b03831660248201526044810182905261127e90849063a9059cbb60e01b906064015b60408051601f198184030181529190526020810180516001600160e01b03166001600160e01b031990931692909217909152611408565b505050565b8015806112fd5750604051636eb1769f60e11b81523060048201526001600160a01b03838116602483015284169063dd62ed3e90604401602060405180830381865afa1580156112d7573d6000803e3d6000fd5b505050506040513d601f19601f820116820180604052508101906112fb9190611921565b155b6113685760405162461bcd60e51b815260206004820152603660248201527f5361666545524332303a20617070726f76652066726f6d206e6f6e2d7a65726f60448201527520746f206e6f6e2d7a65726f20616c6c6f77616e636560501b606482015260840161045a565b6040516001600160a01b03831660248201526044810182905261127e90849063095ea7b360e01b90606401611247565b600061069c8284611995565b604051632e1a7d4d60e01b8152600481018290526000906001600160a01b03841690632e1a7d4d90602401600060405180830381600087803b1580156113e957600080fd5b505af11580156113fd573d6000803e3d6000fd5b509395945050505050565b600061145d826040518060400160405280602081526020017f5361666545524332303a206c6f772d6c6576656c2063616c6c206661696c6564815250856001600160a01b03166114da9092919063ffffffff16565b80519091501561127e578080602001905181019061147b919061193a565b61127e5760405162461bcd60e51b815260206004820152602a60248201527f5361666545524332303a204552433230206f7065726174696f6e20646964206e6044820152691bdd081cdd58d8d9595960b21b606482015260840161045a565b60606114e984846000856114f1565b949350505050565b6060824710156115525760405162461bcd60e51b815260206004820152602660248201527f416464726573733a20696e73756666696369656e742062616c616e636520666f6044820152651c8818d85b1b60d21b606482015260840161045a565b6001600160a01b0385163b6115a95760405162461bcd60e51b815260206004820152601d60248201527f416464726573733a2063616c6c20746f206e6f6e2d636f6e7472616374000000604482015260640161045a565b600080866001600160a01b031685876040516115c591906119ac565b60006040518083038185875af1925050503d8060008114611602576040519150601f19603f3d011682016040523d82523d6000602084013e611607565b606091505b5091509150611617828286611622565b979650505050505050565b6060831561163157508161069c565b8251156116415782518084602001fd5b8160405162461bcd60e51b815260040161045a919061173e565b6001600160a01b038116811461167057600080fd5b50565b6000806040838503121561168657600080fd5b82356116918161165b565b915060208301356116a18161165b565b809150509250929050565b6000602082840312156116be57600080fd5b813561069c8161165b565b6000602082840312156116db57600080fd5b5035919050565b60005b838110156116fd5781810151838201526020016116e5565b8381111561170c576000848401525b50505050565b6000815180845261172a8160208601602086016116e2565b601f01601f19169290920160200192915050565b60208152600061069c6020830184611712565b6000806040838503121561176457600080fd5b823561176f8161165b565b946020939093013593505050565b6000806040838503121561179057600080fd5b50508035926020909101359150565b600080600080606085870312156117b557600080fd5b84356117c08161165b565b935060208501359250604085013567ffffffffffffffff808211156117e457600080fd5b818701915087601f8301126117f857600080fd5b81358181111561180757600080fd5b88602082850101111561181957600080fd5b95989497505060200194505050565b82151581526040602082015260006114e96040830184611712565b60008060006060848603121561185857600080fd5b83356118638161165b565b925060208401356118738161165b565b929592945050506040919091013590565b801515811461167057600080fd5b6000806000606084860312156118a757600080fd5b8335925060208401356118b98161165b565b915060408401356118c981611884565b809150509250925092565b600080604083850312156118e757600080fd5b82356118f28161165b565b915060208301356116a181611884565b602080825260059082015264042c2eae8d60db1b604082015260600190565b60006020828403121561193357600080fd5b5051919050565b60006020828403121561194c57600080fd5b815161069c81611884565b8183823760009101908152919050565b634e487b7160e01b600052601160045260246000fd5b6000821982111561199057611990611967565b500190565b6000828210156119a7576119a7611967565b500390565b600082516119be8184602087016116e2565b919091019291505056fea264697066735822122018c58bf6b3b923aa5d12db6bd42b3773867885426d2d1674af21d6219a52400b64736f6c634300080d0033",
  "linkReferences": {},
  "deployedLinkReferences": {}
}