{
  "_format": "hh-sol-artifact-1",
  "contractName": "VoterProxy",
  "sourceName": "contracts/VoterProxy.sol",
  "abi": [
    {
      "inputs": [
        {
          "internalType": "address",
          "name": "mintr_",
          "type": "address"
        },
        {
          "internalType": "address",
          "name": "bal_",
          "type": "address"
        },
        {
          "internalType": "address",
          "name": "veBal_",
          "type": "address"
        },
        {
          "internalType": "address",
          "name": "gaugeController_",
          "type": "address"
        }
      ],
      "stateMutability": "nonpayable",
      "type": "constructor"
    },
    {
      "inputs": [],
      "name": "bal",
      "outputs": [
        {
          "internalType": "address",
          "name": "",
          "type": "address"
        }
      ],
      "stateMutability": "view",
      "type": "function"
    },
    {
      "inputs": [
        {
          "internalType": "address",
          "name": "_gauge",
          "type": "address"
        }
      ],
      "name": "balanceOfPool",
      "outputs": [
        {
          "internalType": "uint256",
          "name": "",
          "type": "uint256"
        }
      ],
      "stateMutability": "view",
      "type": "function"
    },
    {
      "inputs": [
        {
          "internalType": "address",
          "name": "_gauge",
          "type": "address"
        }
      ],
      "name": "claimBal",
      "outputs": [
        {
          "internalType": "uint256",
          "name": "",
          "type": "uint256"
        }
      ],
      "stateMutability": "nonpayable",
      "type": "function"
    },
    {
      "inputs": [
        {
          "internalType": "address",
          "name": "_distroContract",
          "type": "address"
        },
        {
          "internalType": "address",
          "name": "_token",
          "type": "address"
        }
      ],
      "name": "claimFees",
      "outputs": [
        {
          "internalType": "uint256",
          "name": "",
          "type": "uint256"
        }
      ],
      "stateMutability": "nonpayable",
      "type": "function"
    },
    {
      "inputs": [
        {
          "internalType": "address",
          "name": "_gauge",
          "type": "address"
        }
      ],
      "name": "claimRewards",
      "outputs": [
        {
          "internalType": "bool",
          "name": "",
          "type": "bool"
        }
      ],
      "stateMutability": "nonpayable",
      "type": "function"
    },
    {
      "inputs": [
        {
          "internalType": "uint256",
          "name": "_value",
          "type": "uint256"
        },
        {
          "internalType": "uint256",
          "name": "_unlockTime",
          "type": "uint256"
        }
      ],
      "name": "createLock",
      "outputs": [
        {
          "internalType": "bool",
          "name": "",
          "type": "bool"
        }
      ],
      "stateMutability": "nonpayable",
      "type": "function"
    },
    {
      "inputs": [
        {
          "internalType": "address",
          "name": "_token",
          "type": "address"
        },
        {
          "internalType": "address",
          "name": "_gauge",
          "type": "address"
        }
      ],
      "name": "deposit",
      "outputs": [
        {
          "internalType": "bool",
          "name": "",
          "type": "bool"
        }
      ],
      "stateMutability": "nonpayable",
      "type": "function"
    },
    {
      "inputs": [],
      "name": "depositor",
      "outputs": [
        {
          "internalType": "address",
          "name": "",
          "type": "address"
        }
      ],
      "stateMutability": "view",
      "type": "function"
    },
    {
      "inputs": [
        {
          "internalType": "address",
          "name": "_to",
          "type": "address"
        },
        {
          "internalType": "uint256",
          "name": "_value",
          "type": "uint256"
        },
        {
          "internalType": "bytes",
          "name": "_data",
          "type": "bytes"
        }
      ],
      "name": "execute",
      "outputs": [
        {
          "internalType": "bool",
          "name": "",
          "type": "bool"
        },
        {
          "internalType": "bytes",
          "name": "",
          "type": "bytes"
        }
      ],
      "stateMutability": "nonpayable",
      "type": "function"
    },
    {
      "inputs": [],
      "name": "gaugeController",
      "outputs": [
        {
          "internalType": "address",
          "name": "",
          "type": "address"
        }
      ],
      "stateMutability": "view",
      "type": "function"
    },
    {
      "inputs": [],
      "name": "getName",
      "outputs": [
        {
          "internalType": "string",
          "name": "",
          "type": "string"
        }
      ],
      "stateMutability": "pure",
      "type": "function"
    },
    {
      "inputs": [
        {
          "internalType": "uint256",
          "name": "_value",
          "type": "uint256"
        }
      ],
      "name": "increaseAmount",
      "outputs": [
        {
          "internalType": "bool",
          "name": "",
          "type": "bool"
        }
      ],
      "stateMutability": "nonpayable",
      "type": "function"
    },
    {
      "inputs": [
        {
          "internalType": "uint256",
          "name": "_value",
          "type": "uint256"
        }
      ],
      "name": "increaseTime",
      "outputs": [
        {
          "internalType": "bool",
          "name": "",
          "type": "bool"
        }
      ],
      "stateMutability": "nonpayable",
      "type": "function"
    },
    {
      "inputs": [],
      "name": "mintr",
      "outputs": [
        {
          "internalType": "address",
          "name": "",
          "type": "address"
        }
      ],
      "stateMutability": "view",
      "type": "function"
    },
    {
      "inputs": [],
      "name": "operator",
      "outputs": [
        {
          "internalType": "address",
          "name": "",
          "type": "address"
        }
      ],
      "stateMutability": "view",
      "type": "function"
    },
    {
      "inputs": [],
      "name": "owner",
      "outputs": [
        {
          "internalType": "address",
          "name": "",
          "type": "address"
        }
      ],
      "stateMutability": "view",
      "type": "function"
    },
    {
      "inputs": [],
      "name": "release",
      "outputs": [
        {
          "internalType": "bool",
          "name": "",
          "type": "bool"
        }
      ],
      "stateMutability": "nonpayable",
      "type": "function"
    },
    {
      "inputs": [
        {
          "internalType": "address",
          "name": "_depositor",
          "type": "address"
        }
      ],
      "name": "setDepositor",
      "outputs": [],
      "stateMutability": "nonpayable",
      "type": "function"
    },
    {
      "inputs": [
        {
          "internalType": "address",
          "name": "_operator",
          "type": "address"
        }
      ],
      "name": "setOperator",
      "outputs": [],
      "stateMutability": "nonpayable",
      "type": "function"
    },
    {
      "inputs": [
        {
          "internalType": "address",
          "name": "_owner",
          "type": "address"
        }
      ],
      "name": "setOwner",
      "outputs": [],
      "stateMutability": "nonpayable",
      "type": "function"
    },
    {
      "inputs": [
        {
          "internalType": "address",
          "name": "_stash",
          "type": "address"
        },
        {
          "internalType": "bool",
          "name": "_status",
          "type": "bool"
        }
      ],
      "name": "setStashAccess",
      "outputs": [
        {
          "internalType": "bool",
          "name": "",
          "type": "bool"
        }
      ],
      "stateMutability": "nonpayable",
      "type": "function"
    },
    {
      "inputs": [],
      "name": "veBal",
      "outputs": [
        {
          "internalType": "address",
          "name": "",
          "type": "address"
        }
      ],
      "stateMutability": "view",
      "type": "function"
    },
    {
      "inputs": [
        {
          "internalType": "uint256",
          "name": "_voteId",
          "type": "uint256"
        },
        {
          "internalType": "address",
          "name": "_votingAddress",
          "type": "address"
        },
        {
          "internalType": "bool",
          "name": "_support",
          "type": "bool"
        }
      ],
      "name": "vote",
      "outputs": [
        {
          "internalType": "bool",
          "name": "",
          "type": "bool"
        }
      ],
      "stateMutability": "nonpayable",
      "type": "function"
    },
    {
      "inputs": [
        {
          "internalType": "address",
          "name": "_gauge",
          "type": "address"
        },
        {
          "internalType": "uint256",
          "name": "_weight",
          "type": "uint256"
        }
      ],
      "name": "voteGaugeWeight",
      "outputs": [
        {
          "internalType": "bool",
          "name": "",
          "type": "bool"
        }
      ],
      "stateMutability": "nonpayable",
      "type": "function"
    },
    {
      "inputs": [
        {
          "internalType": "contract IERC20",
          "name": "_asset",
          "type": "address"
        }
      ],
      "name": "withdraw",
      "outputs": [
        {
          "internalType": "uint256",
          "name": "balance",
          "type": "uint256"
        }
      ],
      "stateMutability": "nonpayable",
      "type": "function"
    },
    {
      "inputs": [
        {
          "internalType": "address",
          "name": "_token",
          "type": "address"
        },
        {
          "internalType": "address",
          "name": "_gauge",
          "type": "address"
        },
        {
          "internalType": "uint256",
          "name": "_amount",
          "type": "uint256"
        }
      ],
      "name": "withdraw",
      "outputs": [
        {
          "internalType": "bool",
          "name": "",
          "type": "bool"
        }
      ],
      "stateMutability": "nonpayable",
      "type": "function"
    },
    {
      "inputs": [
        {
          "internalType": "address",
          "name": "_token",
          "type": "address"
        },
        {
          "internalType": "address",
          "name": "_gauge",
          "type": "address"
        }
      ],
      "name": "withdrawAll",
      "outputs": [
        {
          "internalType": "bool",
          "name": "",
          "type": "bool"
        }
      ],
      "stateMutability": "nonpayable",
      "type": "function"
    }
  ],
  "bytecode": "0x6101006040523480156200001257600080fd5b5060405162001d3038038062001d30833981016040819052620000359162000087565b600080546001600160a01b031916331790556001600160a01b0393841660805291831660a052821660c0521660e052620000e4565b80516001600160a01b03811681146200008257600080fd5b919050565b600080600080608085870312156200009e57600080fd5b620000a9856200006a565b9350620000b9602086016200006a565b9250620000c9604086016200006a565b9150620000d9606086016200006a565b905092959194509250565b60805160a05160c05160e051611ba26200018e600039600081816103350152610b04015260008181610268015281816105d101528181610626015281816106610152818161099601528181610b9901528181610df101528181610e460152610e880152600081816102ba015281816105af015281816106040152818161078e0152818161081501528181610dcf0152610e240152600081816103c9015261071d0152611ba26000f3fe608060405234801561001057600080fd5b50600436106101a95760003560e01c80638da5cb5b116100f9578063d1e61dcb11610097578063ef5cfb8c11610071578063ef5cfb8c14610411578063f2c098b714610424578063f9609f0814610437578063fa3964b21461044a57600080fd5b8063d1e61dcb146103c4578063d9caed12146103eb578063e2cdd42a146103fe57600080fd5b8063b3ab15fb116100d3578063b3ab15fb1461036a578063b52c05fe1461037d578063b61d27f614610390578063c7c4ff46146103b157600080fd5b80638da5cb5b1461031d57806399eecb3b14610330578063b0f637941461035757600080fd5b806334bce9031161016657806351cff8d91161014057806351cff8d9146102dc578063570ca735146102ef5780635d7e9bcb1461030257806386d1a69f1461031557600080fd5b806334bce903146102635780633c9a2a1a146102a25780633d79d1c8146102b557600080fd5b806309cae2c8146101ae57806313af4035146101d657806315456eba146101eb57806317d7de7c146101fe5780631e4b196a1461022f5780632dbfa73514610250575b600080fd5b6101c16101bc366004611817565b61045d565b60405190151581526020015b60405180910390f35b6101e96101e4366004611850565b610529565b005b6101c16101f936600461186d565b610575565b604080518082018252600f81526e4375727665566f74657250726f787960881b602082015290516101cd91906118e2565b61024261023d366004611850565b6106ce565b6040519081526020016101cd565b61024261025e366004611817565b610844565b61028a7f000000000000000000000000000000000000000000000000000000000000000081565b6040516001600160a01b0390911681526020016101cd565b6101c16102b036600461186d565b610953565b61028a7f000000000000000000000000000000000000000000000000000000000000000081565b6102426102ea366004611850565b6109cd565b60015461028a906001600160a01b031681565b6101c16103103660046118f5565b610ab1565b6101c1610b6a565b60005461028a906001600160a01b031681565b61028a7f000000000000000000000000000000000000000000000000000000000000000081565b610242610365366004611850565b610c11565b6101e9610378366004611850565b610c7c565b6101c161038b366004611921565b610d95565b6103a361039e366004611943565b610ebf565b6040516101cd9291906119cc565b60025461028a906001600160a01b031681565b61028a7f000000000000000000000000000000000000000000000000000000000000000081565b6101c16103f93660046119e7565b610f5f565b6101c161040c366004611a36565b611037565b6101c161041f366004611850565b6110d7565b6101e9610432366004611850565b61113f565b6101c1610445366004611817565b61118b565b6101c1610458366004611a78565b611349565b6001546000906001600160a01b031633146104935760405162461bcd60e51b815260040161048a90611aa6565b60405180910390fd5b6040516370a0823160e01b8152306004820152600090610511906001600160a01b038616906370a0823190602401602060405180830381865afa1580156104de573d6000803e3d6000fd5b505050506040513d601f19601f820116820180604052508101906105029190611ac5565b61050b85610c11565b906113b3565b905061051e848483610f5f565b506001949350505050565b6000546001600160a01b031633146105535760405162461bcd60e51b815260040161048a90611aa6565b600080546001600160a01b0319166001600160a01b0392909216919091179055565b6002546000906001600160a01b031633146105a25760405162461bcd60e51b815260040161048a90611aa6565b6105f76001600160a01b037f0000000000000000000000000000000000000000000000000000000000000000167f000000000000000000000000000000000000000000000000000000000000000060006113bf565b61064b6001600160a01b037f0000000000000000000000000000000000000000000000000000000000000000167f0000000000000000000000000000000000000000000000000000000000000000846113bf565b604051631255d9df60e21b8152600481018390527f00000000000000000000000000000000000000000000000000000000000000006001600160a01b031690634957677c906024015b600060405180830381600087803b1580156106ae57600080fd5b505af11580156106c2573d6000803e3d6000fd5b50600195945050505050565b6001546000906001600160a01b031633146106fb5760405162461bcd60e51b815260040161048a90611aa6565b6040516335313c2160e11b81526001600160a01b0383811660048301526000917f000000000000000000000000000000000000000000000000000000000000000090911690636a62784290602401600060405180830381600087803b15801561076357600080fd5b505af1925050508015610774575060015b1561083e576040516370a0823160e01b81523060048201527f00000000000000000000000000000000000000000000000000000000000000006001600160a01b0316906370a0823190602401602060405180830381865afa1580156107dd573d6000803e3d6000fd5b505050506040513d601f19601f820116820180604052508101906108019190611ac5565b60015490915061083e906001600160a01b037f0000000000000000000000000000000000000000000000000000000000000000811691168361150c565b92915050565b6001546000906001600160a01b031633146108715760405162461bcd60e51b815260040161048a90611aa6565b826001600160a01b0316634e71d92d6040518163ffffffff1660e01b8152600401600060405180830381600087803b1580156108ac57600080fd5b505af11580156108c0573d6000803e3d6000fd5b50506040516370a0823160e01b8152306004820152600092506001600160a01b03851691506370a0823190602401602060405180830381865afa15801561090b573d6000803e3d6000fd5b505050506040513d601f19601f8201168201806040525081019061092f9190611ac5565b60015490915061094c906001600160a01b0385811691168361150c565b9392505050565b6002546000906001600160a01b031633146109805760405162461bcd60e51b815260040161048a90611aa6565b6040516377fbd30960e11b8152600481018390527f00000000000000000000000000000000000000000000000000000000000000006001600160a01b03169063eff7a61290602401610694565b3360009081526003602052604081205460ff161515600114610a015760405162461bcd60e51b815260040161048a90611aa6565b6001600160a01b03821660009081526004602052604090205460ff161515600103610a2e57506000919050565b6040516370a0823160e01b81523060048201526001600160a01b038316906370a0823190602401602060405180830381865afa158015610a72573d6000803e3d6000fd5b505050506040513d601f19601f82011682018060405250810190610a969190611ac5565b9050610aac6001600160a01b038316338361150c565b919050565b6001546000906001600160a01b03163314610ade5760405162461bcd60e51b815260040161048a90611aa6565b604051631ae26c6560e31b81526001600160a01b038481166004830152602482018490527f0000000000000000000000000000000000000000000000000000000000000000169063d7136328906044015b600060405180830381600087803b158015610b4957600080fd5b505af1158015610b5d573d6000803e3d6000fd5b5060019695505050505050565b6002546000906001600160a01b03163314610b975760405162461bcd60e51b815260040161048a90611aa6565b7f00000000000000000000000000000000000000000000000000000000000000006001600160a01b0316633ccfd60b6040518163ffffffff1660e01b8152600401600060405180830381600087803b158015610bf257600080fd5b505af1158015610c06573d6000803e3d6000fd5b505050506001905090565b6040516370a0823160e01b81523060048201526000906001600160a01b038316906370a0823190602401602060405180830381865afa158015610c58573d6000803e3d6000fd5b505050506040513d601f19601f8201168201806040525081019061083e9190611ac5565b6000546001600160a01b03163314610ca65760405162461bcd60e51b815260040161048a90611aa6565b6001546001600160a01b03161580610d365750600160009054906101000a90046001600160a01b03166001600160a01b031663bf86d6906040518163ffffffff1660e01b8152600401602060405180830381865afa158015610d0c573d6000803e3d6000fd5b505050506040513d601f19601f82011682018060405250810190610d309190611ade565b15156001145b610d735760405162461bcd60e51b815260206004820152600e60248201526d3732b2b2399039b43aba3237bbb760911b604482015260640161048a565b600180546001600160a01b0319166001600160a01b0392909216919091179055565b6002546000906001600160a01b03163314610dc25760405162461bcd60e51b815260040161048a90611aa6565b610e176001600160a01b037f0000000000000000000000000000000000000000000000000000000000000000167f000000000000000000000000000000000000000000000000000000000000000060006113bf565b610e6b6001600160a01b037f0000000000000000000000000000000000000000000000000000000000000000167f0000000000000000000000000000000000000000000000000000000000000000856113bf565b6040516365fc387360e01b815260048101849052602481018390527f00000000000000000000000000000000000000000000000000000000000000006001600160a01b0316906365fc387390604401610b2f565b6001546000906060906001600160a01b03163314610eef5760405162461bcd60e51b815260040161048a90611aa6565b600080876001600160a01b0316878787604051610f0d929190611afb565b60006040518083038185875af1925050503d8060008114610f4a576040519150601f19603f3d011682016040523d82523d6000602084013e610f4f565b606091505b5090999098509650505050505050565b6001546000906001600160a01b03163314610f8c5760405162461bcd60e51b815260040161048a90611aa6565b6040516370a0823160e01b81523060048201526000906001600160a01b038616906370a0823190602401602060405180830381865afa158015610fd3573d6000803e3d6000fd5b505050506040513d601f19601f82011682018060405250810190610ff79190611ac5565b905082811015611023576110148461100f858461153c565b611548565b925061102083826113b3565b92505b61051e6001600160a01b038616338561150c565b6001546000906001600160a01b031633146110645760405162461bcd60e51b815260040161048a90611aa6565b604051636f899de560e11b8152600481018590528215156024820152600060448201526001600160a01b0384169063df133bca90606401600060405180830381600087803b1580156110b557600080fd5b505af11580156110c9573d6000803e3d6000fd5b506001979650505050505050565b6001546000906001600160a01b031633146111045760405162461bcd60e51b815260040161048a90611aa6565b816001600160a01b031663e6f1daf26040518163ffffffff1660e01b8152600401600060405180830381600087803b1580156106ae57600080fd5b6000546001600160a01b031633146111695760405162461bcd60e51b815260040161048a90611aa6565b600280546001600160a01b0319166001600160a01b0392909216919091179055565b6001546000906001600160a01b031633146111b85760405162461bcd60e51b815260040161048a90611aa6565b6001600160a01b03831660009081526004602052604081205460ff1615159003611200576001600160a01b0383166000908152600460205260409020805460ff191660011790555b6001600160a01b03821660009081526004602052604081205460ff1615159003611248576001600160a01b0382166000908152600460205260409020805460ff191660011790555b6040516370a0823160e01b81523060048201526000906001600160a01b038516906370a0823190602401602060405180830381865afa15801561128f573d6000803e3d6000fd5b505050506040513d601f19601f820116820180604052508101906112b39190611ac5565b9050801561133f576112d06001600160a01b0385168460006113bf565b6112e46001600160a01b03851684836113bf565b60405163b6b55f2560e01b8152600481018290526001600160a01b0384169063b6b55f2590602401600060405180830381600087803b15801561132657600080fd5b505af115801561133a573d6000803e3d6000fd5b505050505b5060019392505050565b6001546000906001600160a01b031633146113765760405162461bcd60e51b815260040161048a90611aa6565b6001600160a01b038316156113aa576001600160a01b0383166000908152600360205260409020805460ff19168315151790555b50600192915050565b600061094c8284611b21565b8015806114395750604051636eb1769f60e11b81523060048201526001600160a01b03838116602483015284169063dd62ed3e90604401602060405180830381865afa158015611413573d6000803e3d6000fd5b505050506040513d601f19601f820116820180604052508101906114379190611ac5565b155b6114a45760405162461bcd60e51b815260206004820152603660248201527f5361666545524332303a20617070726f76652066726f6d206e6f6e2d7a65726f60448201527520746f206e6f6e2d7a65726f20616c6c6f77616e636560501b606482015260840161048a565b6040516001600160a01b03831660248201526044810182905261150790849063095ea7b360e01b906064015b60408051601f198184030181529190526020810180516001600160e01b03166001600160e01b0319909316929092179091526115ac565b505050565b6040516001600160a01b03831660248201526044810182905261150790849063a9059cbb60e01b906064016114d0565b600061094c8284611b39565b604051632e1a7d4d60e01b8152600481018290526000906001600160a01b03841690632e1a7d4d90602401600060405180830381600087803b15801561158d57600080fd5b505af11580156115a1573d6000803e3d6000fd5b509395945050505050565b6000611601826040518060400160405280602081526020017f5361666545524332303a206c6f772d6c6576656c2063616c6c206661696c6564815250856001600160a01b031661167e9092919063ffffffff16565b805190915015611507578080602001905181019061161f9190611ade565b6115075760405162461bcd60e51b815260206004820152602a60248201527f5361666545524332303a204552433230206f7065726174696f6e20646964206e6044820152691bdd081cdd58d8d9595960b21b606482015260840161048a565b606061168d8484600085611695565b949350505050565b6060824710156116f65760405162461bcd60e51b815260206004820152602660248201527f416464726573733a20696e73756666696369656e742062616c616e636520666f6044820152651c8818d85b1b60d21b606482015260840161048a565b6001600160a01b0385163b61174d5760405162461bcd60e51b815260206004820152601d60248201527f416464726573733a2063616c6c20746f206e6f6e2d636f6e7472616374000000604482015260640161048a565b600080866001600160a01b031685876040516117699190611b50565b60006040518083038185875af1925050503d80600081146117a6576040519150601f19603f3d011682016040523d82523d6000602084013e6117ab565b606091505b50915091506117bb8282866117c6565b979650505050505050565b606083156117d557508161094c565b8251156117e55782518084602001fd5b8160405162461bcd60e51b815260040161048a91906118e2565b6001600160a01b038116811461181457600080fd5b50565b6000806040838503121561182a57600080fd5b8235611835816117ff565b91506020830135611845816117ff565b809150509250929050565b60006020828403121561186257600080fd5b813561094c816117ff565b60006020828403121561187f57600080fd5b5035919050565b60005b838110156118a1578181015183820152602001611889565b838111156118b0576000848401525b50505050565b600081518084526118ce816020860160208601611886565b601f01601f19169290920160200192915050565b60208152600061094c60208301846118b6565b6000806040838503121561190857600080fd5b8235611913816117ff565b946020939093013593505050565b6000806040838503121561193457600080fd5b50508035926020909101359150565b6000806000806060858703121561195957600080fd5b8435611964816117ff565b935060208501359250604085013567ffffffffffffffff8082111561198857600080fd5b818701915087601f83011261199c57600080fd5b8135818111156119ab57600080fd5b8860208285010111156119bd57600080fd5b95989497505060200194505050565b821515815260406020820152600061168d60408301846118b6565b6000806000606084860312156119fc57600080fd5b8335611a07816117ff565b92506020840135611a17816117ff565b929592945050506040919091013590565b801515811461181457600080fd5b600080600060608486031215611a4b57600080fd5b833592506020840135611a5d816117ff565b91506040840135611a6d81611a28565b809150509250925092565b60008060408385031215611a8b57600080fd5b8235611a96816117ff565b9150602083013561184581611a28565b602080825260059082015264042c2eae8d60db1b604082015260600190565b600060208284031215611ad757600080fd5b5051919050565b600060208284031215611af057600080fd5b815161094c81611a28565b8183823760009101908152919050565b634e487b7160e01b600052601160045260246000fd5b60008219821115611b3457611b34611b0b565b500190565b600082821015611b4b57611b4b611b0b565b500390565b60008251611b62818460208701611886565b919091019291505056fea2646970667358221220a6643f959c4b6f2876606f0e69ecb35e33416139e124f3039ffb8fbbb53be62464736f6c634300080d0033",
  "linkReferences": {},
  "deployedLinkReferences": {}
}