{
  "_format": "hh-sol-artifact-1",
  "contractName": "RewardFactory",
  "sourceName": "contracts/RewardFactory.sol",
  "abi": [
    {
      "inputs": [
        {
          "internalType": "address",
          "name": "_operator",
          "type": "address"
        },
        {
          "internalType": "address",
          "name": "bal_",
          "type": "address"
        }
      ],
      "stateMutability": "nonpayable",
      "type": "constructor"
    },
    {
      "inputs": [
        {
          "internalType": "uint256",
          "name": "_pid",
          "type": "uint256"
        },
        {
          "internalType": "address",
          "name": "_depositToken",
          "type": "address"
        }
      ],
      "name": "CreateBalRewards",
      "outputs": [
        {
          "internalType": "address",
          "name": "",
          "type": "address"
        }
      ],
      "stateMutability": "nonpayable",
      "type": "function"
    },
    {
      "inputs": [
        {
          "internalType": "address",
          "name": "_token",
          "type": "address"
        },
        {
          "internalType": "address",
          "name": "_mainRewards",
          "type": "address"
        },
        {
          "internalType": "address",
          "name": "_operator",
          "type": "address"
        }
      ],
      "name": "CreateTokenRewards",
      "outputs": [
        {
          "internalType": "address",
          "name": "",
          "type": "address"
        }
      ],
      "stateMutability": "nonpayable",
      "type": "function"
    },
    {
      "inputs": [
        {
          "internalType": "address",
          "name": "_reward",
          "type": "address"
        }
      ],
      "name": "activeRewardCount",
      "outputs": [
        {
          "internalType": "uint256",
          "name": "",
          "type": "uint256"
        }
      ],
      "stateMutability": "view",
      "type": "function"
    },
    {
      "inputs": [
        {
          "internalType": "address",
          "name": "_reward",
          "type": "address"
        },
        {
          "internalType": "uint256",
          "name": "_pid",
          "type": "uint256"
        }
      ],
      "name": "addActiveReward",
      "outputs": [
        {
          "internalType": "bool",
          "name": "",
          "type": "bool"
        }
      ],
      "stateMutability": "nonpayable",
      "type": "function"
    },
    {
      "inputs": [],
      "name": "bal",
      "outputs": [
        {
          "internalType": "address",
          "name": "",
          "type": "address"
        }
      ],
      "stateMutability": "view",
      "type": "function"
    },
    {
      "inputs": [],
      "name": "operator",
      "outputs": [
        {
          "internalType": "address",
          "name": "",
          "type": "address"
        }
      ],
      "stateMutability": "view",
      "type": "function"
    },
    {
      "inputs": [
        {
          "internalType": "address",
          "name": "_reward",
          "type": "address"
        },
        {
          "internalType": "uint256",
          "name": "_pid",
          "type": "uint256"
        }
      ],
      "name": "removeActiveReward",
      "outputs": [
        {
          "internalType": "bool",
          "name": "",
          "type": "bool"
        }
      ],
      "stateMutability": "nonpayable",
      "type": "function"
    },
    {
      "inputs": [
        {
          "internalType": "address",
          "name": "",
          "type": "address"
        },
        {
          "internalType": "uint256",
          "name": "",
          "type": "uint256"
        }
      ],
      "name": "rewardActiveList",
      "outputs": [
        {
          "internalType": "uint256",
          "name": "",
          "type": "uint256"
        }
      ],
      "stateMutability": "view",
      "type": "function"
    },
    {
      "inputs": [
        {
          "internalType": "address",
          "name": "_stash",
          "type": "address"
        },
        {
          "internalType": "bool",
          "name": "_status",
          "type": "bool"
        }
      ],
      "name": "setAccess",
      "outputs": [],
      "stateMutability": "nonpayable",
      "type": "function"
    }
  ],
  "bytecode": "0x608060405234801561001057600080fd5b5060405161339638038061339683398101604081905261002f9161007f565b600080546001600160a01b039283166001600160a01b031991821617909155600180549390921692169190911790556100b2565b80516001600160a01b038116811461007a57600080fd5b919050565b6000806040838503121561009257600080fd5b61009b83610063565b91506100a960208401610063565b90509250929050565b6132d5806100c16000396000f3fe608060405234801561001057600080fd5b50600436106100935760003560e01c80638d9622d9116100665780638d9622d914610125578063b7f927b114610138578063b84614a51461015b578063ef9126ad14610170578063f8d6122e1461018357600080fd5b80630d5843f7146100985780633d79d1c8146100d4578063570ca735146100ff5780637c07b35114610112575b600080fd5b6100c16100a6366004610626565b6001600160a01b031660009081526003602052604090205490565b6040519081526020015b60405180910390f35b6000546100e7906001600160a01b031681565b6040516001600160a01b0390911681526020016100cb565b6001546100e7906001600160a01b031681565b6100e7610120366004610648565b610196565b6100c1610133366004610674565b610246565b61014b610146366004610674565b610277565b60405190151581526020016100cb565b61016e61016936600461069e565b610355565b005b61014b61017e366004610674565b6103aa565b6100e76101913660046106da565b6104ec565b6001546000906001600160a01b031633146101cc5760405162461bcd60e51b81526004016101c39061071d565b60405180910390fd5b60008054600154604051869286926001600160a01b039182169291169030906101f4906105f0565b9485526001600160a01b03938416602086015291831660408501528216606084015216608082015260a001604051809103906000f08015801561023b573d6000803e3d6000fd5b509150505b92915050565b6003602052816000526040600020818154811061026257600080fd5b90600052602060002001600091509150505481565b3360009081526002602052604081205460ff1615156001146102ab5760405162461bcd60e51b81526004016101c39061071d565b6001600160a01b0383166102c157506001610240565b6001600160a01b0383166000908152600360205260408120906102e5846001610752565b825490915060005b8181101561033757828482815481106103085761030861076a565b906000526020600020015403610325576001945050505050610240565b8061032f81610780565b9150506102ed565b50508154600180820184556000938452602090932001559392505050565b6001546001600160a01b0316331461037f5760405162461bcd60e51b81526004016101c39061071d565b6001600160a01b03919091166000908152600260205260409020805460ff1916911515919091179055565b3360009081526002602052604081205460ff1615156001146103de5760405162461bcd60e51b81526004016101c39061071d565b6001600160a01b0383166103f457506001610240565b6001600160a01b038316600090815260036020526040812090610418846001610752565b825490915060005b818110156104df578284828154811061043b5761043b61076a565b9060005260206000200154036104cd57610456600183610799565b81146104a25783610468600184610799565b815481106104785761047861076a565b90600052602060002001548482815481106104955761049561076a565b6000918252602090912001555b838054806104b2576104b26107b0565b600190038181906000526020600020016000905590556104df565b806104d781610780565b915050610420565b5060019695505050505050565b6001546000906001600160a01b031633148061051c57503360009081526002602052604090205460ff1615156001145b6105385760405162461bcd60e51b81526004016101c39061071d565b6000838584604051610549906105fd565b6001600160a01b03938416815291831660208301529091166040820152606001604051809103906000f080158015610585573d6000803e3d6000fd5b50604051635e43c47b60e01b81526001600160a01b0380831660048301529192508291861690635e43c47b90602401600060405180830381600087803b1580156105ce57600080fd5b505af11580156105e2573d6000803e3d6000fd5b509298975050505050505050565b611abc806107c783390190565b61101d8061228383390190565b80356001600160a01b038116811461062157600080fd5b919050565b60006020828403121561063857600080fd5b6106418261060a565b9392505050565b6000806040838503121561065b57600080fd5b8235915061066b6020840161060a565b90509250929050565b6000806040838503121561068757600080fd5b6106908361060a565b946020939093013593505050565b600080604083850312156106b157600080fd5b6106ba8361060a565b9150602083013580151581146106cf57600080fd5b809150509250929050565b6000806000606084860312156106ef57600080fd5b6106f88461060a565b92506107066020850161060a565b91506107146040850161060a565b90509250925092565b602080825260059082015264042c2eae8d60db1b604082015260600190565b634e487b7160e01b600052601160045260246000fd5b600082198211156107655761076561073c565b500190565b634e487b7160e01b600052603260045260246000fd5b6000600182016107925761079261073c565b5060010190565b6000828210156107ab576107ab61073c565b500390565b634e487b7160e01b600052603160045260246000fdfe60806040526000600555600060065560006009556000600a556000600b553480156200002a57600080fd5b5060405162001abc38038062001abc8339810160408190526200004d91620000c2565b600494909455600180546001600160a01b03199081166001600160a01b039586161790915560008054821693851693909317909255600280548316918416919091179055600380549091169190921617905562000129565b80516001600160a01b0381168114620000bd57600080fd5b919050565b600080600080600060a08688031215620000db57600080fd5b85519450620000ed60208701620000a5565b9350620000fd60408701620000a5565b92506200010d60608701620000a5565b91506200011d60808701620000a5565b90509295509295909350565b61198380620001396000396000f3fe608060405234801561001057600080fd5b506004361061021b5760003560e01c806370a0823111610125578063c32e7202116100ad578063df136d651161007c578063df136d651461043d578063ebe2b12b14610446578063f10684541461044f578063f14faf6f14610458578063f7c618c11461046b57600080fd5b8063c32e720214610411578063c8f33c9114610424578063cd3daf9d1461042d578063d55a23f41461043557600080fd5b8063853828b6116100f4578063853828b6146103c55780638b876347146103cd5780638dcb4061146103ed578063901a7d53146103f5578063a694fc3a146103fe57600080fd5b806370a082311461037857806372f702f3146103a15780637b0a47ee146103b457806380faa57d146103bd57600080fd5b80633d18b912116101a8578063590a41f511610177578063590a41f51461032d5780635e43c47b1461034057806363d38c3b146103535780636c8bcee81461035c5780637050ccd91461036557600080fd5b80633d18b912146102ec57806340c35446146102f457806349f039a214610307578063570ca7351461031a57600080fd5b806318160ddd116101ef57806318160ddd1461029b5780631be05289146102a3578063262d3d6d146102ad5780632ee40908146102b657806338d07436146102d957600080fd5b80628cc262146102205780630569d388146102465780630700037d146102505780630f4ef8a614610270575b600080fd5b61023361022e3660046116dd565b61047e565b6040519081526020015b60405180910390f35b61024e6104fd565b005b61023361025e3660046116dd565b600e6020526000908152604090205481565b600354610283906001600160a01b031681565b6040516001600160a01b03909116815260200161023d565b600c54610233565b61023362093a8081565b610233600b5481565b6102c96102c43660046116f8565b61053e565b604051901515815260200161023d565b6102c96102e7366004611730565b61073b565b6102c9610932565b610283610302366004611760565b610947565b61024e610315366004611779565b610971565b600254610283906001600160a01b031681565b6102c961033b366004611760565b61098f565b6102c961034e3660046116dd565b610a64565b61023360095481565b61023361033e81565b6102c9610373366004611796565b610b2f565b6102336103863660046116dd565b6001600160a01b03166000908152600f602052604090205490565b600154610283906001600160a01b031681565b61023360065481565b610233610d27565b61024e610d3a565b6102336103db3660046116dd565b600d6020526000908152604090205481565b6102c9610d57565b610233600a5481565b6102c961040c366004611760565b610ddc565b6102c961041f366004611730565b610fbf565b61023360075481565b61023361119c565b601054610233565b61023360085481565b61023360055481565b61023360045481565b6102c9610466366004611760565b6111ed565b600054610283906001600160a01b031681565b6001600160a01b0381166000908152600e6020908152604080832054600d9092528220546104f791906104f190670de0b6b3a7640000906104eb906104cb906104c561119c565b9061121b565b6001600160a01b0388166000908152600f60205260409020545b9061122e565b9061123a565b90611246565b92915050565b6003546001600160a01b031633146105305760405162461bcd60e51b8152600401610527906117c2565b60405180910390fd5b61053c60106000611687565b565b60008261054961119c565b600855610554610d27565b6007556001600160a01b0381161561059b5761056f8161047e565b6001600160a01b0382166000908152600e6020908152604080832093909355600854600d909152919020555b600083116105eb5760405162461bcd60e51b815260206004820152601b60248201527f526577617264506f6f6c203a2043616e6e6f74207374616b65203000000000006044820152606401610527565b60005b60105481101561068d576010818154811061060b5761060b6117e7565b6000918252602090912001546040516356e4bb9760e11b81526001600160a01b038781166004830152602482018790529091169063adc9772e90604401600060405180830381600087803b15801561066257600080fd5b505af1158015610676573d6000803e3d6000fd5b50505050808061068590611813565b9150506105ee565b50600c5461069b9084611246565b600c556001600160a01b0384166000908152600f60205260409020546106c19084611246565b6001600160a01b038086166000908152600f60205260409020919091556001546106ee9116333086611252565b836001600160a01b03167f9e71bc8eea02a63969f509818f2dafb9254532904319f9dbda79b67bd34a5f3d8460405161072991815260200190565b60405180910390a25060019392505050565b60003361074661119c565b600855610751610d27565b6007556001600160a01b038116156107985761076c8161047e565b6001600160a01b0382166000908152600e6020908152604080832093909355600854600d909152919020555b600084116107e85760405162461bcd60e51b815260206004820152601e60248201527f526577617264506f6f6c203a2043616e6e6f74207769746864726177203000006044820152606401610527565b60005b6010548110156108885760108181548110610808576108086117e7565b60009182526020909120015460405163f3fef3a360e01b8152336004820152602481018790526001600160a01b039091169063f3fef3a390604401600060405180830381600087803b15801561085d57600080fd5b505af1158015610871573d6000803e3d6000fd5b50505050808061088090611813565b9150506107eb565b50600c54610896908561121b565b600c55336000908152600f60205260409020546108b3908561121b565b336000818152600f60205260409020919091556001546108df916001600160a01b0390911690866112c3565b60405184815233907f7084f5476618d8e60b11ef0d7d3f06914655adb8793e28ff7f018d4c76d505d5906020015b60405180910390a2821561092857610926336001610b2f565b505b5060019392505050565b600061093f336001610b2f565b506001905090565b6010818154811061095757600080fd5b6000918252602090912001546001600160a01b0316905081565b336000908152600f602052604090205461098b9082610fbf565b5050565b6002546000906001600160a01b031633146109bc5760405162461bcd60e51b8152600401610527906117c2565b6009546109ca908390611246565b915060055442106109ea576109de826112f8565b50506000600955600190565b6000610a0e610a0762093a8060055461121b90919063ffffffff16565b429061121b565b9050600081600654610a20919061182c565b90506000610a34856104eb846103e861122e565b905061033e811015610a5357610a49856112f8565b6000600955610a59565b60098590555b506001949350505050565b6003546000906001600160a01b03163314610a915760405162461bcd60e51b8152600401610527906117c2565b6001600160a01b038216610ad95760405162461bcd60e51b815260206004820152600f60248201526e217265776172642073657474696e6760881b6044820152606401610527565b5060108054600180820183556000929092527f1b6847dc741a1b0cd08d278845f9d819d87b734759afb55fe2de5cb82a9ae6720180546001600160a01b0319166001600160a01b03939093169290921790915590565b600082610b3a61119c565b600855610b45610d27565b6007556001600160a01b03811615610b8c57610b608161047e565b6001600160a01b0382166000908152600e6020908152604080832093909355600854600d909152919020555b6000610b978561047e565b90508015610c7a576001600160a01b038086166000908152600e6020526040812081905554610bc8911686836112c3565b600254600480546040516371192b1760e01b8152918201526001600160a01b03878116602483015260448201849052909116906371192b1790606401600060405180830381600087803b158015610c1e57600080fd5b505af1158015610c32573d6000803e3d6000fd5b50505050846001600160a01b03167fe2403640ba68fed3a2f88b7557551d1993f84b99bb10ff833f0cf8db0c5e048682604051610c7191815260200190565b60405180910390a25b8315610a595760005b601054811015610d1b5760108181548110610ca057610ca06117e7565b600091825260209091200154604051630c00007b60e41b81526001600160a01b0388811660048301529091169063c00007b090602401600060405180830381600087803b158015610cf057600080fd5b505af1158015610d04573d6000803e3d6000fd5b505050508080610d1390611813565b915050610c83565b50506001949350505050565b6000610d354260055461141e565b905090565b336000908152600f602052604090205460019061098b908261073b565b6001546040516370a0823160e01b815233600482015260009182916001600160a01b03909116906370a0823190602401602060405180830381865afa158015610da4573d6000803e3d6000fd5b505050506040513d601f19601f82011682018060405250810190610dc8919061184b565b9050610dd381610ddc565b50600191505090565b600033610de761119c565b600855610df2610d27565b6007556001600160a01b03811615610e3957610e0d8161047e565b6001600160a01b0382166000908152600e6020908152604080832093909355600854600d909152919020555b60008311610e895760405162461bcd60e51b815260206004820152601b60248201527f526577617264506f6f6c203a2043616e6e6f74207374616b65203000000000006044820152606401610527565b60005b601054811015610f295760108181548110610ea957610ea96117e7565b6000918252602090912001546040516356e4bb9760e11b8152336004820152602481018690526001600160a01b039091169063adc9772e90604401600060405180830381600087803b158015610efe57600080fd5b505af1158015610f12573d6000803e3d6000fd5b505050508080610f2190611813565b915050610e8c565b50600c54610f379084611246565b600c55336000908152600f6020526040902054610f549084611246565b336000818152600f6020526040902091909155600154610f81916001600160a01b03909116903086611252565b60405183815233907f9e71bc8eea02a63969f509818f2dafb9254532904319f9dbda79b67bd34a5f3d9060200160405180910390a250600192915050565b600033610fca61119c565b600855610fd5610d27565b6007556001600160a01b0381161561101c57610ff08161047e565b6001600160a01b0382166000908152600e6020908152604080832093909355600854600d909152919020555b60005b6010548110156110bc576010818154811061103c5761103c6117e7565b60009182526020909120015460405163f3fef3a360e01b8152336004820152602481018790526001600160a01b039091169063f3fef3a390604401600060405180830381600087803b15801561109157600080fd5b505af11580156110a5573d6000803e3d6000fd5b5050505080806110b490611813565b91505061101f565b50600c546110ca908561121b565b600c55336000908152600f60205260409020546110e7908561121b565b336000818152600f602052604090819020929092556002546004805493516305335c3960e21b8152908101939093526024830187905260448301919091526001600160a01b0316906314cd70e490606401600060405180830381600087803b15801561115257600080fd5b505af1158015611166573d6000803e3d6000fd5b50506040518681523392507f7084f5476618d8e60b11ef0d7d3f06914655adb8793e28ff7f018d4c76d505d5915060200161090d565b60006111a7600c5490565b6000036111b5575060085490565b610d356111e46111c4600c5490565b6104eb670de0b6b3a76400006104e56006546104e56007546104c5610d27565b60085490611246565b60008054611206906001600160a01b0316333085611252565b6009546112139083611246565b600955919050565b60006112278284611864565b9392505050565b6000611227828461182c565b6000611227828461187b565b6000611227828461189d565b6040516001600160a01b03808516602483015283166044820152606481018290526112bd9085906323b872dd60e01b906084015b60408051601f198184030181529190526020810180516001600160e01b03166001600160e01b031990931692909217909152611434565b50505050565b6040516001600160a01b0383166024820152604481018290526112f390849063a9059cbb60e01b90606401611286565b505050565b600061130261119c565b60085561130d610d27565b6007556001600160a01b03811615611354576113288161047e565b6001600160a01b0382166000908152600e6020908152604080832093909355600854600d909152919020555b600b546113619083611246565b600b5560055442106113825761137a8262093a8061123a565b6006556113cc565b600554600090611392904261121b565b905060006113ab6006548361122e90919063ffffffff16565b90506113b78482611246565b93506113c68462093a8061123a565b60065550505b600a8290554260078190556113e49062093a80611246565b6005556040518281527fde88a922e0d3b88b24e9623efeb464919c6bf9f66857a65e2bfcf2ce87a9433d9060200160405180910390a15050565b600081831061142d5781611227565b5090919050565b6000611489826040518060400160405280602081526020017f5361666545524332303a206c6f772d6c6576656c2063616c6c206661696c6564815250856001600160a01b03166115069092919063ffffffff16565b8051909150156112f357808060200190518101906114a791906118b5565b6112f35760405162461bcd60e51b815260206004820152602a60248201527f5361666545524332303a204552433230206f7065726174696f6e20646964206e6044820152691bdd081cdd58d8d9595960b21b6064820152608401610527565b6060611515848460008561151d565b949350505050565b60608247101561157e5760405162461bcd60e51b815260206004820152602660248201527f416464726573733a20696e73756666696369656e742062616c616e636520666f6044820152651c8818d85b1b60d21b6064820152608401610527565b6001600160a01b0385163b6115d55760405162461bcd60e51b815260206004820152601d60248201527f416464726573733a2063616c6c20746f206e6f6e2d636f6e74726163740000006044820152606401610527565b600080866001600160a01b031685876040516115f191906118fe565b60006040518083038185875af1925050503d806000811461162e576040519150601f19603f3d011682016040523d82523d6000602084013e611633565b606091505b509150915061164382828661164e565b979650505050505050565b6060831561165d575081611227565b82511561166d5782518084602001fd5b8160405162461bcd60e51b8152600401610527919061191a565b50805460008255906000526020600020908101906116a591906116a8565b50565b5b808211156116bd57600081556001016116a9565b5090565b80356001600160a01b03811681146116d857600080fd5b919050565b6000602082840312156116ef57600080fd5b611227826116c1565b6000806040838503121561170b57600080fd5b611714836116c1565b946020939093013593505050565b80151581146116a557600080fd5b6000806040838503121561174357600080fd5b82359150602083013561175581611722565b809150509250929050565b60006020828403121561177257600080fd5b5035919050565b60006020828403121561178b57600080fd5b813561122781611722565b600080604083850312156117a957600080fd5b6117b2836116c1565b9150602083013561175581611722565b6020808252600b908201526a08585d5d1a1bdc9a5e995960aa1b604082015260600190565b634e487b7160e01b600052603260045260246000fd5b634e487b7160e01b600052601160045260246000fd5b600060018201611825576118256117fd565b5060010190565b6000816000190483118215151615611846576118466117fd565b500290565b60006020828403121561185d57600080fd5b5051919050565b600082821015611876576118766117fd565b500390565b60008261189857634e487b7160e01b600052601260045260246000fd5b500490565b600082198211156118b0576118b06117fd565b500190565b6000602082840312156118c757600080fd5b815161122781611722565b60005b838110156118ed5781810151838201526020016118d5565b838111156112bd5750506000910152565b600082516119108184602087016118d2565b9190910192915050565b60208152600082518060208401526119398160408501602087016118d2565b601f01601f1916919091016040019291505056fea26469706673582212206a8f053136d4204a89536cb8ee54b1c8d60488528c7c798b6b30531f9a6ce9b364736f6c634300080d003360806040526000600355600060045560006007556000600855600060095561033e600a5534801561002f57600080fd5b5060405161101d38038061101d83398101604081905261004e916100ac565b600080546001600160a01b039485166001600160a01b0319918216179091556001805493851693821693909317909255600280549190931691161790556100ef565b80516001600160a01b03811681146100a757600080fd5b919050565b6000806000606084860312156100c157600080fd5b6100ca84610090565b92506100d860208501610090565b91506100e660408501610090565b90509250925092565b610f1f806100fe6000396000f3fe608060405234801561001057600080fd5b50600436106101725760003560e01c80637b0a47ee116100de578063c8f33c9111610097578063ebe2b12b11610071578063ebe2b12b146102d2578063f14faf6f146102db578063f3fef3a3146102fe578063f7c618c11461031157600080fd5b8063c8f33c91146102b8578063cd3daf9d146102c1578063df136d65146102c957600080fd5b80637b0a47ee1461025857806380faa57d146102615780638b87634714610269578063901a7d5314610289578063adc9772e14610292578063c00007b0146102a557600080fd5b80633d18b912116101305780633d18b91214610203578063570ca7351461020d578063590a41f51461022057806363d38c3b146102335780636c8bcee81461023c57806370a082311461024557600080fd5b80628cc262146101775780630700037d1461019d5780630fb5a6b4146101bd57806318160ddd146101c7578063262d3d6d146101cf578063323a5e0b146101d8575b600080fd5b61018a610185366004610d2a565b610324565b6040519081526020015b60405180910390f35b61018a6101ab366004610d2a565b600c6020526000908152604090205481565b61018a62093a8081565b61018a610392565b61018a60095481565b6000546101eb906001600160a01b031681565b6040516001600160a01b039091168152602001610194565b61020b61040f565b005b6002546101eb906001600160a01b031681565b61020b61022e366004610d45565b61041a565b61018a60075481565b61018a600a5481565b61018a610253366004610d2a565b6104ec565b61018a60045481565b61018a61055b565b61018a610277366004610d2a565b600b6020526000908152604090205481565b61018a60085481565b61020b6102a0366004610d5e565b610569565b61020b6102b3366004610d2a565b610697565b61018a60055481565b61018a61076e565b61018a60065481565b61018a60035481565b6102ee6102e9366004610d45565b6107bd565b6040519015158152602001610194565b61020b61030c366004610d5e565b6107ed565b6001546101eb906001600160a01b031681565b6001600160a01b0381166000908152600c6020908152604080832054600b90925282205461038c919061038690670de0b6b3a764000090610380906103719061036b61076e565b906108ad565b61037a886104ec565b906108c0565b906108cc565b906108d8565b92915050565b60008060009054906101000a90046001600160a01b03166001600160a01b03166318160ddd6040518163ffffffff1660e01b8152600401602060405180830381865afa1580156103e6573d6000803e3d6000fd5b505050506040513d601f19601f8201168201806040525081019061040a9190610d88565b905090565b61041833610697565b565b6002546001600160a01b0316331461044d5760405162461bcd60e51b815260040161044490610da1565b60405180910390fd5b60075461045b9082906108d8565b905060035442106104775761046f816108e4565b506000600755565b600061049b61049462093a806003546108ad90919063ffffffff16565b42906108ad565b90506000816004546104ad9190610ddc565b905060006104c184610380846103e86108c0565b9050600a548110156104e0576104d6846108e4565b60006007556104e6565b60078490555b50505050565b600080546040516370a0823160e01b81526001600160a01b038481166004830152909116906370a0823190602401602060405180830381865afa158015610537573d6000803e3d6000fd5b505050506040513d601f19601f8201168201806040525081019061038c9190610d88565b600061040a42600354610a0a565b8161057261076e565b60065561057d61055b565b6005556001600160a01b038116156105c45761059881610324565b6001600160a01b0382166000908152600c6020908152604080832093909355600654600b909152919020555b6000546001600160a01b031633146105ee5760405162461bcd60e51b815260040161044490610da1565b6000821161064f5760405162461bcd60e51b815260206004820152602860248201527f5669727475616c4465706f736974526577617264506f6f6c3a2043616e6e6f746044820152670207374616b6520360c41b6064820152608401610444565b826001600160a01b03167f9e71bc8eea02a63969f509818f2dafb9254532904319f9dbda79b67bd34a5f3d8360405161068a91815260200190565b60405180910390a2505050565b806106a061076e565b6006556106ab61055b565b6005556001600160a01b038116156106f2576106c681610324565b6001600160a01b0382166000908152600c6020908152604080832093909355600654600b909152919020555b60006106fd83610324565b90508015610769576001600160a01b038084166000908152600c602052604081205560015461072e91168483610a20565b826001600160a01b03167fe2403640ba68fed3a2f88b7557551d1993f84b99bb10ff833f0cf8db0c5e04868260405161068a91815260200190565b505050565b6000610778610392565b600003610786575060065490565b61040a6107b4610794610392565b610380670de0b6b3a764000061037a60045461037a60055461036b61055b565b600654906108d8565b6001546000906107d8906001600160a01b0316333085610a83565b6007546107e590836108d8565b600755919050565b816107f661076e565b60065561080161055b565b6005556001600160a01b038116156108485761081c81610324565b6001600160a01b0382166000908152600c6020908152604080832093909355600654600b909152919020555b6000546001600160a01b031633146108725760405162461bcd60e51b815260040161044490610da1565b826001600160a01b03167f7084f5476618d8e60b11ef0d7d3f06914655adb8793e28ff7f018d4c76d505d58360405161068a91815260200190565b60006108b98284610dfb565b9392505050565b60006108b98284610ddc565b60006108b98284610e12565b60006108b98284610e34565b60006108ee61076e565b6006556108f961055b565b6005556001600160a01b038116156109405761091481610324565b6001600160a01b0382166000908152600c6020908152604080832093909355600654600b909152919020555b60095461094d90836108d8565b600955600354421061096e576109668262093a806108cc565b6004556109b8565b60035460009061097e90426108ad565b90506000610997600454836108c090919063ffffffff16565b90506109a384826108d8565b93506109b28462093a806108cc565b60045550505b60088290554260058190556109d09062093a806108d8565b6003556040518281527fde88a922e0d3b88b24e9623efeb464919c6bf9f66857a65e2bfcf2ce87a9433d9060200160405180910390a15050565b6000818310610a1957816108b9565b5090919050565b6040516001600160a01b03831660248201526044810182905261076990849063a9059cbb60e01b906064015b60408051601f198184030181529190526020810180516001600160e01b03166001600160e01b031990931692909217909152610abb565b6040516001600160a01b03808516602483015283166044820152606481018290526104e69085906323b872dd60e01b90608401610a4c565b6000610b10826040518060400160405280602081526020017f5361666545524332303a206c6f772d6c6576656c2063616c6c206661696c6564815250856001600160a01b0316610b8d9092919063ffffffff16565b8051909150156107695780806020019051810190610b2e9190610e4c565b6107695760405162461bcd60e51b815260206004820152602a60248201527f5361666545524332303a204552433230206f7065726174696f6e20646964206e6044820152691bdd081cdd58d8d9595960b21b6064820152608401610444565b6060610b9c8484600085610ba4565b949350505050565b606082471015610c055760405162461bcd60e51b815260206004820152602660248201527f416464726573733a20696e73756666696369656e742062616c616e636520666f6044820152651c8818d85b1b60d21b6064820152608401610444565b6001600160a01b0385163b610c5c5760405162461bcd60e51b815260206004820152601d60248201527f416464726573733a2063616c6c20746f206e6f6e2d636f6e74726163740000006044820152606401610444565b600080866001600160a01b03168587604051610c789190610e9a565b60006040518083038185875af1925050503d8060008114610cb5576040519150601f19603f3d011682016040523d82523d6000602084013e610cba565b606091505b5091509150610cca828286610cd5565b979650505050505050565b60608315610ce45750816108b9565b825115610cf45782518084602001fd5b8160405162461bcd60e51b81526004016104449190610eb6565b80356001600160a01b0381168114610d2557600080fd5b919050565b600060208284031215610d3c57600080fd5b6108b982610d0e565b600060208284031215610d5757600080fd5b5035919050565b60008060408385031215610d7157600080fd5b610d7a83610d0e565b946020939093013593505050565b600060208284031215610d9a57600080fd5b5051919050565b6020808252600b908201526a08585d5d1a1bdc9a5e995960aa1b604082015260600190565b634e487b7160e01b600052601160045260246000fd5b6000816000190483118215151615610df657610df6610dc6565b500290565b600082821015610e0d57610e0d610dc6565b500390565b600082610e2f57634e487b7160e01b600052601260045260246000fd5b500490565b60008219821115610e4757610e47610dc6565b500190565b600060208284031215610e5e57600080fd5b815180151581146108b957600080fd5b60005b83811015610e89578181015183820152602001610e71565b838111156104e65750506000910152565b60008251610eac818460208701610e6e565b9190910192915050565b6020815260008251806020840152610ed5816040850160208701610e6e565b601f01601f1916919091016040019291505056fea264697066735822122024dc5e8600fa17eb713529ff8841d65da58e42b19903103888d3383e8a8525db64736f6c634300080d0033a2646970667358221220d9e6f3a5cca4d9e13faa9c08c253c7c5c8cbcd7fc4751404abb1b7b47bf0ee0664736f6c634300080d0033",
  "linkReferences": {},
  "deployedLinkReferences": {}
}