{
  "_format": "hh-sol-artifact-1",
  "contractName": "MockVoteProxy",
  "sourceName": "contracts/MockVoteProxy.sol",
  "abi": [
    {
      "inputs": [],
      "stateMutability": "nonpayable",
      "type": "constructor"
    },
    {
      "inputs": [],
      "name": "owner",
      "outputs": [
        {
          "internalType": "address",
          "name": "",
          "type": "address"
        }
      ],
      "stateMutability": "view",
      "type": "function"
    }
  ],
  "bytecode": "0x6080604052348015600f57600080fd5b50600080546001600160a01b031916331790556091806100306000396000f3fe6080604052348015600f57600080fd5b506004361060285760003560e01c80638da5cb5b14602d575b600080fd5b600054603f906001600160a01b031681565b6040516001600160a01b03909116815260200160405180910390f3fea26469706673582212201364e87c5a759af7484c01b14c20cdae14ab55a5aaf7f39c3629f5ab394f85ee64736f6c634300080d0033",
  "linkReferences": {},
  "deployedLinkReferences": {}
}