{
  "_format": "hh-sol-artifact-1",
  "contractName": "MockVBAL",
  "sourceName": "contracts/MockVBAL.sol",
  "abi": [
    {
      "inputs": [],
      "stateMutability": "nonpayable",
      "type": "constructor"
    },
    {
      "anonymous": false,
      "inputs": [
        {
          "indexed": true,
          "internalType": "address",
          "name": "owner",
          "type": "address"
        },
        {
          "indexed": true,
          "internalType": "address",
          "name": "spender",
          "type": "address"
        },
        {
          "indexed": false,
          "internalType": "uint256",
          "name": "value",
          "type": "uint256"
        }
      ],
      "name": "Approval",
      "type": "event"
    },
    {
      "anonymous": false,
      "inputs": [
        {
          "indexed": false,
          "internalType": "address",
          "name": "from",
          "type": "address"
        },
        {
          "indexed": false,
          "internalType": "uint256",
          "name": "amount",
          "type": "uint256"
        }
      ],
      "name": "NewDeposit",
      "type": "event"
    },
    {
      "anonymous": false,
      "inputs": [
        {
          "indexed": true,
          "internalType": "address",
          "name": "from",
          "type": "address"
        },
        {
          "indexed": true,
          "internalType": "address",
          "name": "to",
          "type": "address"
        },
        {
          "indexed": false,
          "internalType": "uint256",
          "name": "value",
          "type": "uint256"
        }
      ],
      "name": "Transfer",
      "type": "event"
    },
    {
      "inputs": [
        {
          "internalType": "address",
          "name": "owner",
          "type": "address"
        },
        {
          "internalType": "address",
          "name": "spender",
          "type": "address"
        }
      ],
      "name": "allowance",
      "outputs": [
        {
          "internalType": "uint256",
          "name": "",
          "type": "uint256"
        }
      ],
      "stateMutability": "view",
      "type": "function"
    },
    {
      "inputs": [
        {
          "internalType": "address",
          "name": "spender",
          "type": "address"
        },
        {
          "internalType": "uint256",
          "name": "amount",
          "type": "uint256"
        }
      ],
      "name": "approve",
      "outputs": [
        {
          "internalType": "bool",
          "name": "",
          "type": "bool"
        }
      ],
      "stateMutability": "nonpayable",
      "type": "function"
    },
    {
      "inputs": [
        {
          "internalType": "address",
          "name": "account",
          "type": "address"
        }
      ],
      "name": "balanceOf",
      "outputs": [
        {
          "internalType": "uint256",
          "name": "",
          "type": "uint256"
        }
      ],
      "stateMutability": "view",
      "type": "function"
    },
    {
      "inputs": [],
      "name": "coin",
      "outputs": [
        {
          "internalType": "contract SampleERC",
          "name": "",
          "type": "address"
        }
      ],
      "stateMutability": "view",
      "type": "function"
    },
    {
      "inputs": [],
      "name": "decimals",
      "outputs": [
        {
          "internalType": "uint8",
          "name": "",
          "type": "uint8"
        }
      ],
      "stateMutability": "view",
      "type": "function"
    },
    {
      "inputs": [
        {
          "internalType": "address",
          "name": "spender",
          "type": "address"
        },
        {
          "internalType": "uint256",
          "name": "subtractedValue",
          "type": "uint256"
        }
      ],
      "name": "decreaseAllowance",
      "outputs": [
        {
          "internalType": "bool",
          "name": "",
          "type": "bool"
        }
      ],
      "stateMutability": "nonpayable",
      "type": "function"
    },
    {
      "inputs": [
        {
          "internalType": "address",
          "name": "_addr",
          "type": "address"
        },
        {
          "internalType": "uint256",
          "name": "_amount",
          "type": "uint256"
        }
      ],
      "name": "deposit_for",
      "outputs": [],
      "stateMutability": "nonpayable",
      "type": "function"
    },
    {
      "inputs": [
        {
          "internalType": "address",
          "name": "",
          "type": "address"
        }
      ],
      "name": "deposits",
      "outputs": [
        {
          "internalType": "uint256",
          "name": "",
          "type": "uint256"
        }
      ],
      "stateMutability": "view",
      "type": "function"
    },
    {
      "inputs": [
        {
          "internalType": "address",
          "name": "spender",
          "type": "address"
        },
        {
          "internalType": "uint256",
          "name": "addedValue",
          "type": "uint256"
        }
      ],
      "name": "increaseAllowance",
      "outputs": [
        {
          "internalType": "bool",
          "name": "",
          "type": "bool"
        }
      ],
      "stateMutability": "nonpayable",
      "type": "function"
    },
    {
      "inputs": [],
      "name": "name",
      "outputs": [
        {
          "internalType": "string",
          "name": "",
          "type": "string"
        }
      ],
      "stateMutability": "view",
      "type": "function"
    },
    {
      "inputs": [],
      "name": "owner",
      "outputs": [
        {
          "internalType": "address",
          "name": "",
          "type": "address"
        }
      ],
      "stateMutability": "view",
      "type": "function"
    },
    {
      "inputs": [
        {
          "internalType": "contract SampleERC",
          "name": "_coin",
          "type": "address"
        }
      ],
      "name": "setCoinAddress",
      "outputs": [],
      "stateMutability": "nonpayable",
      "type": "function"
    },
    {
      "inputs": [],
      "name": "symbol",
      "outputs": [
        {
          "internalType": "string",
          "name": "",
          "type": "string"
        }
      ],
      "stateMutability": "view",
      "type": "function"
    },
    {
      "inputs": [],
      "name": "totalSupply",
      "outputs": [
        {
          "internalType": "uint256",
          "name": "",
          "type": "uint256"
        }
      ],
      "stateMutability": "view",
      "type": "function"
    },
    {
      "inputs": [
        {
          "internalType": "address",
          "name": "to",
          "type": "address"
        },
        {
          "internalType": "uint256",
          "name": "amount",
          "type": "uint256"
        }
      ],
      "name": "transfer",
      "outputs": [
        {
          "internalType": "bool",
          "name": "",
          "type": "bool"
        }
      ],
      "stateMutability": "nonpayable",
      "type": "function"
    },
    {
      "inputs": [
        {
          "internalType": "address",
          "name": "from",
          "type": "address"
        },
        {
          "internalType": "address",
          "name": "to",
          "type": "address"
        },
        {
          "internalType": "uint256",
          "name": "amount",
          "type": "uint256"
        }
      ],
      "name": "transferFrom",
      "outputs": [
        {
          "internalType": "bool",
          "name": "",
          "type": "bool"
        }
      ],
      "stateMutability": "nonpayable",
      "type": "function"
    }
  ],
  "bytecode": "0x60806040523480156200001157600080fd5b506040518060400160405280600981526020016829b830b1b2b1b7b4b760b91b8152506040518060400160405280600381526020016253504360e81b815250816003908051906020019062000068929190620001b4565b5080516200007e906004906020840190620001b4565b5050600680546001600160a01b03191633908117909155620000c69150620000a4601290565b620000b190600a6200036f565b620000c0906207a12062000387565b620000cc565b62000400565b6001600160a01b038216620001275760405162461bcd60e51b815260206004820152601f60248201527f45524332303a206d696e7420746f20746865207a65726f206164647265737300604482015260640160405180910390fd5b80600260008282546200013b9190620003a9565b90915550506001600160a01b038216600090815260208190526040812080548392906200016a908490620003a9565b90915550506040518181526001600160a01b038316906000907fddf252ad1be2c89b69c2b068fc378daa952ba7f163c4a11628f55a4df523b3ef9060200160405180910390a35050565b828054620001c290620003c4565b90600052602060002090601f016020900481019282620001e6576000855562000231565b82601f106200020157805160ff191683800117855562000231565b8280016001018555821562000231579182015b828111156200023157825182559160200191906001019062000214565b506200023f92915062000243565b5090565b5b808211156200023f576000815560010162000244565b634e487b7160e01b600052601160045260246000fd5b600181815b80851115620002b15781600019048211156200029557620002956200025a565b80851615620002a357918102915b93841c939080029062000275565b509250929050565b600082620002ca5750600162000369565b81620002d95750600062000369565b8160018114620002f25760028114620002fd576200031d565b600191505062000369565b60ff8411156200031157620003116200025a565b50506001821b62000369565b5060208310610133831016604e8410600b841016171562000342575081810a62000369565b6200034e838362000270565b80600019048211156200036557620003656200025a565b0290505b92915050565b60006200038060ff841683620002b9565b9392505050565b6000816000190483118215151615620003a457620003a46200025a565b500290565b60008219821115620003bf57620003bf6200025a565b500190565b600181811c90821680620003d957607f821691505b602082108103620003fa57634e487b7160e01b600052602260045260246000fd5b50919050565b610aba80620004106000396000f3fe608060405234801561001057600080fd5b50600436106101005760003560e01c806370a0823111610097578063a9059cbb11610066578063a9059cbb14610224578063b0bdacc614610237578063dd62ed3e1461024a578063fc7e286d1461025d57600080fd5b806370a08231146101cd5780638da5cb5b146101f657806395d89b4114610209578063a457c2d71461021157600080fd5b806323b872dd116100d357806323b872dd14610183578063313ce5671461019657806339509351146101a55780633a46273e146101b857600080fd5b806306fdde0314610105578063095ea7b31461012357806311df99951461014657806318160ddd14610171575b600080fd5b61010d61027d565b60405161011a91906108cb565b60405180910390f35b610136610131366004610938565b61030f565b604051901515815260200161011a565b600554610159906001600160a01b031681565b6040516001600160a01b03909116815260200161011a565b6002545b60405190815260200161011a565b610136610191366004610964565b610327565b6040516012815260200161011a565b6101366101b3366004610938565b61034b565b6101cb6101c6366004610938565b61036d565b005b6101756101db3660046109a5565b6001600160a01b031660009081526020819052604090205490565b600654610159906001600160a01b031681565b61010d61042f565b61013661021f366004610938565b61043e565b610136610232366004610938565b6104be565b6101cb6102453660046109a5565b6104cc565b6101756102583660046109c9565b610534565b61017561026b3660046109a5565b60076020526000908152604090205481565b60606003805461028c90610a02565b80601f01602080910402602001604051908101604052809291908181526020018280546102b890610a02565b80156103055780601f106102da57610100808354040283529160200191610305565b820191906000526020600020905b8154815290600101906020018083116102e857829003601f168201915b5050505050905090565b60003361031d81858561055f565b5060019392505050565b600033610335858285610683565b6103408585856106fd565b506001949350505050565b60003361031d81858561035e8383610534565b6103689190610a3c565b61055f565b6005546040516323b872dd60e01b8152336004820152306024820152604481018390526001600160a01b03909116906323b872dd906064016020604051808303816000875af11580156103c4573d6000803e3d6000fd5b505050506040513d601f19601f820116820180604052508101906103e89190610a62565b50604080516001600160a01b0384168152602081018390527f2cb77763bc1e8490c1a904905c4d74b4269919aca114464f4bb4d911e60de364910160405180910390a15050565b60606004805461028c90610a02565b6000338161044c8286610534565b9050838110156104b15760405162461bcd60e51b815260206004820152602560248201527f45524332303a2064656372656173656420616c6c6f77616e63652062656c6f77604482015264207a65726f60d81b60648201526084015b60405180910390fd5b610340828686840361055f565b60003361031d8185856106fd565b6005546001600160a01b0316156105125760405162461bcd60e51b815260206004820152600a60248201526957524954455f4f4e434560b01b60448201526064016104a8565b600580546001600160a01b0319166001600160a01b0392909216919091179055565b6001600160a01b03918216600090815260016020908152604080832093909416825291909152205490565b6001600160a01b0383166105c15760405162461bcd60e51b8152602060048201526024808201527f45524332303a20617070726f76652066726f6d20746865207a65726f206164646044820152637265737360e01b60648201526084016104a8565b6001600160a01b0382166106225760405162461bcd60e51b815260206004820152602260248201527f45524332303a20617070726f766520746f20746865207a65726f206164647265604482015261737360f01b60648201526084016104a8565b6001600160a01b0383811660008181526001602090815260408083209487168084529482529182902085905590518481527f8c5be1e5ebec7d5bd14f71427d1e84f3dd0314c0f7b2291e5b200ac8c7c3b925910160405180910390a3505050565b600061068f8484610534565b905060001981146106f757818110156106ea5760405162461bcd60e51b815260206004820152601d60248201527f45524332303a20696e73756666696369656e7420616c6c6f77616e636500000060448201526064016104a8565b6106f7848484840361055f565b50505050565b6001600160a01b0383166107615760405162461bcd60e51b815260206004820152602560248201527f45524332303a207472616e736665722066726f6d20746865207a65726f206164604482015264647265737360d81b60648201526084016104a8565b6001600160a01b0382166107c35760405162461bcd60e51b815260206004820152602360248201527f45524332303a207472616e7366657220746f20746865207a65726f206164647260448201526265737360e81b60648201526084016104a8565b6001600160a01b0383166000908152602081905260409020548181101561083b5760405162461bcd60e51b815260206004820152602660248201527f45524332303a207472616e7366657220616d6f756e7420657863656564732062604482015265616c616e636560d01b60648201526084016104a8565b6001600160a01b03808516600090815260208190526040808220858503905591851681529081208054849290610872908490610a3c565b92505081905550826001600160a01b0316846001600160a01b03167fddf252ad1be2c89b69c2b068fc378daa952ba7f163c4a11628f55a4df523b3ef846040516108be91815260200190565b60405180910390a36106f7565b600060208083528351808285015260005b818110156108f8578581018301518582016040015282016108dc565b8181111561090a576000604083870101525b50601f01601f1916929092016040019392505050565b6001600160a01b038116811461093557600080fd5b50565b6000806040838503121561094b57600080fd5b823561095681610920565b946020939093013593505050565b60008060006060848603121561097957600080fd5b833561098481610920565b9250602084013561099481610920565b929592945050506040919091013590565b6000602082840312156109b757600080fd5b81356109c281610920565b9392505050565b600080604083850312156109dc57600080fd5b82356109e781610920565b915060208301356109f781610920565b809150509250929050565b600181811c90821680610a1657607f821691505b602082108103610a3657634e487b7160e01b600052602260045260246000fd5b50919050565b60008219821115610a5d57634e487b7160e01b600052601160045260246000fd5b500190565b600060208284031215610a7457600080fd5b815180151581146109c257600080fdfea264697066735822122099a403d9635cf80474cf95c0e95f425cb8974b43c7f29339199ef367b96a609e64736f6c634300080d0033",
  "linkReferences": {},
  "deployedLinkReferences": {}
}