{
  "address": "0x9D2Bfc794F8e5f8Dc911499049aeCf46E74c58A7",
  "abi": [
    {
      "inputs": [
        {
          "internalType": "address",
          "name": "token_addr",
          "type": "address"
        },
        {
          "internalType": "string",
          "name": "_name",
          "type": "string"
        },
        {
          "internalType": "string",
          "name": "_symbol",
          "type": "string"
        },
        {
          "internalType": "address",
          "name": "_authorizer_adaptor",
          "type": "address"
        }
      ],
      "stateMutability": "nonpayable",
      "type": "constructor"
    },
    {
      "anonymous": false,
      "inputs": [
        {
          "indexed": true,
          "internalType": "address",
          "name": "provider",
          "type": "address"
        },
        {
          "indexed": false,
          "internalType": "uint256",
          "name": "value",
          "type": "uint256"
        },
        {
          "indexed": true,
          "internalType": "uint256",
          "name": "locktime",
          "type": "uint256"
        },
        {
          "indexed": false,
          "internalType": "int128",
          "name": "type_",
          "type": "int128"
        },
        {
          "indexed": false,
          "internalType": "uint256",
          "name": "ts",
          "type": "uint256"
        }
      ],
      "name": "Deposit",
      "type": "event"
    },
    {
      "anonymous": false,
      "inputs": [
        {
          "indexed": false,
          "internalType": "uint256",
          "name": "prevSupply",
          "type": "uint256"
        },
        {
          "indexed": false,
          "internalType": "uint256",
          "name": "supply",
          "type": "uint256"
        }
      ],
      "name": "Supply",
      "type": "event"
    },
    {
      "anonymous": false,
      "inputs": [
        {
          "indexed": true,
          "internalType": "address",
          "name": "from",
          "type": "address"
        },
        {
          "indexed": true,
          "internalType": "address",
          "name": "to",
          "type": "address"
        },
        {
          "indexed": false,
          "internalType": "uint256",
          "name": "value",
          "type": "uint256"
        }
      ],
      "name": "Transfer",
      "type": "event"
    },
    {
      "anonymous": false,
      "inputs": [
        {
          "indexed": true,
          "internalType": "address",
          "name": "provider",
          "type": "address"
        },
        {
          "indexed": false,
          "internalType": "uint256",
          "name": "value",
          "type": "uint256"
        },
        {
          "indexed": false,
          "internalType": "uint256",
          "name": "ts",
          "type": "uint256"
        }
      ],
      "name": "Withdraw",
      "type": "event"
    },
    {
      "inputs": [],
      "name": "NAME",
      "outputs": [
        {
          "internalType": "string",
          "name": "",
          "type": "string"
        }
      ],
      "stateMutability": "view",
      "type": "function"
    },
    {
      "inputs": [],
      "name": "SYMBOL",
      "outputs": [
        {
          "internalType": "string",
          "name": "",
          "type": "string"
        }
      ],
      "stateMutability": "view",
      "type": "function"
    },
    {
      "inputs": [],
      "name": "admin",
      "outputs": [
        {
          "internalType": "address",
          "name": "",
          "type": "address"
        }
      ],
      "stateMutability": "view",
      "type": "function"
    },
    {
      "inputs": [],
      "name": "apply_smart_wallet_checker",
      "outputs": [],
      "stateMutability": "nonpayable",
      "type": "function"
    },
    {
      "inputs": [
        {
          "internalType": "address",
          "name": "addr",
          "type": "address"
        },
        {
          "internalType": "uint256",
          "name": "_t",
          "type": "uint256"
        }
      ],
      "name": "balanceOf",
      "outputs": [
        {
          "internalType": "uint256",
          "name": "",
          "type": "uint256"
        }
      ],
      "stateMutability": "view",
      "type": "function"
    },
    {
      "inputs": [
        {
          "internalType": "address",
          "name": "addr",
          "type": "address"
        },
        {
          "internalType": "uint256",
          "name": "_block",
          "type": "uint256"
        }
      ],
      "name": "balanceOfAt",
      "outputs": [
        {
          "internalType": "uint256",
          "name": "",
          "type": "uint256"
        }
      ],
      "stateMutability": "view",
      "type": "function"
    },
    {
      "inputs": [],
      "name": "checkpoint",
      "outputs": [],
      "stateMutability": "nonpayable",
      "type": "function"
    },
    {
      "inputs": [
        {
          "internalType": "address",
          "name": "addr",
          "type": "address"
        }
      ],
      "name": "commit_smart_wallet_checker",
      "outputs": [],
      "stateMutability": "nonpayable",
      "type": "function"
    },
    {
      "inputs": [
        {
          "internalType": "uint256",
          "name": "tokens",
          "type": "uint256"
        }
      ],
      "name": "create_lock",
      "outputs": [],
      "stateMutability": "nonpayable",
      "type": "function"
    },
    {
      "inputs": [],
      "name": "decimals",
      "outputs": [
        {
          "internalType": "uint256",
          "name": "",
          "type": "uint256"
        }
      ],
      "stateMutability": "view",
      "type": "function"
    },
    {
      "inputs": [
        {
          "internalType": "address",
          "name": "_addr",
          "type": "address"
        },
        {
          "internalType": "uint256",
          "name": "_value",
          "type": "uint256"
        }
      ],
      "name": "deposit_for",
      "outputs": [],
      "stateMutability": "nonpayable",
      "type": "function"
    },
    {
      "inputs": [],
      "name": "epoch",
      "outputs": [
        {
          "internalType": "uint256",
          "name": "",
          "type": "uint256"
        }
      ],
      "stateMutability": "view",
      "type": "function"
    },
    {
      "inputs": [],
      "name": "future_smart_wallet_checker",
      "outputs": [
        {
          "internalType": "address",
          "name": "",
          "type": "address"
        }
      ],
      "stateMutability": "view",
      "type": "function"
    },
    {
      "inputs": [
        {
          "internalType": "address",
          "name": "addr",
          "type": "address"
        }
      ],
      "name": "get_last_user_slope",
      "outputs": [
        {
          "internalType": "int128",
          "name": "",
          "type": "int128"
        }
      ],
      "stateMutability": "view",
      "type": "function"
    },
    {
      "inputs": [
        {
          "internalType": "uint256",
          "name": "",
          "type": "uint256"
        }
      ],
      "name": "increase_amount",
      "outputs": [],
      "stateMutability": "nonpayable",
      "type": "function"
    },
    {
      "inputs": [
        {
          "internalType": "uint256",
          "name": "_unlock_time",
          "type": "uint256"
        }
      ],
      "name": "increase_unlock_time",
      "outputs": [],
      "stateMutability": "nonpayable",
      "type": "function"
    },
    {
      "inputs": [
        {
          "internalType": "address",
          "name": "",
          "type": "address"
        }
      ],
      "name": "locked",
      "outputs": [
        {
          "internalType": "int128",
          "name": "amount",
          "type": "int128"
        },
        {
          "internalType": "uint256",
          "name": "end",
          "type": "uint256"
        }
      ],
      "stateMutability": "view",
      "type": "function"
    },
    {
      "inputs": [
        {
          "internalType": "address",
          "name": "_addr",
          "type": "address"
        }
      ],
      "name": "locked__end",
      "outputs": [
        {
          "internalType": "uint256",
          "name": "",
          "type": "uint256"
        }
      ],
      "stateMutability": "view",
      "type": "function"
    },
    {
      "inputs": [],
      "name": "name",
      "outputs": [
        {
          "internalType": "string",
          "name": "",
          "type": "string"
        }
      ],
      "stateMutability": "view",
      "type": "function"
    },
    {
      "inputs": [
        {
          "internalType": "uint256",
          "name": "",
          "type": "uint256"
        }
      ],
      "name": "point_history",
      "outputs": [
        {
          "internalType": "int128",
          "name": "bias",
          "type": "int128"
        },
        {
          "internalType": "int128",
          "name": "slope",
          "type": "int128"
        },
        {
          "internalType": "uint256",
          "name": "ts",
          "type": "uint256"
        },
        {
          "internalType": "uint256",
          "name": "blk",
          "type": "uint256"
        }
      ],
      "stateMutability": "view",
      "type": "function"
    },
    {
      "inputs": [
        {
          "internalType": "uint256",
          "name": "",
          "type": "uint256"
        }
      ],
      "name": "slope_changes",
      "outputs": [
        {
          "internalType": "int128",
          "name": "",
          "type": "int128"
        }
      ],
      "stateMutability": "view",
      "type": "function"
    },
    {
      "inputs": [],
      "name": "smart_wallet_checker",
      "outputs": [
        {
          "internalType": "address",
          "name": "",
          "type": "address"
        }
      ],
      "stateMutability": "view",
      "type": "function"
    },
    {
      "inputs": [],
      "name": "symbol",
      "outputs": [
        {
          "internalType": "string",
          "name": "",
          "type": "string"
        }
      ],
      "stateMutability": "view",
      "type": "function"
    },
    {
      "inputs": [],
      "name": "token",
      "outputs": [
        {
          "internalType": "address",
          "name": "",
          "type": "address"
        }
      ],
      "stateMutability": "view",
      "type": "function"
    },
    {
      "inputs": [
        {
          "internalType": "uint256",
          "name": "t",
          "type": "uint256"
        }
      ],
      "name": "totalSupply",
      "outputs": [
        {
          "internalType": "uint256",
          "name": "",
          "type": "uint256"
        }
      ],
      "stateMutability": "view",
      "type": "function"
    },
    {
      "inputs": [
        {
          "internalType": "uint256",
          "name": "_block",
          "type": "uint256"
        }
      ],
      "name": "totalSupplyAt",
      "outputs": [
        {
          "internalType": "uint256",
          "name": "",
          "type": "uint256"
        }
      ],
      "stateMutability": "view",
      "type": "function"
    },
    {
      "inputs": [
        {
          "internalType": "address",
          "name": "",
          "type": "address"
        }
      ],
      "name": "user_point_epoch",
      "outputs": [
        {
          "internalType": "uint256",
          "name": "",
          "type": "uint256"
        }
      ],
      "stateMutability": "view",
      "type": "function"
    },
    {
      "inputs": [
        {
          "internalType": "address",
          "name": "_addr",
          "type": "address"
        },
        {
          "internalType": "uint256",
          "name": "_idx",
          "type": "uint256"
        }
      ],
      "name": "user_point_history__ts",
      "outputs": [
        {
          "internalType": "uint256",
          "name": "",
          "type": "uint256"
        }
      ],
      "stateMutability": "view",
      "type": "function"
    },
    {
      "inputs": [],
      "name": "withdraw",
      "outputs": [],
      "stateMutability": "nonpayable",
      "type": "function"
    }
  ],
  "transactionHash": "0xe4b61f15c88e17b7b04b465adbd6c0b3238380df70736b7be6cdda0e01ee37e0",
  "args": [
    "0x1A4B29cB74FB2A8f549002ABB1953a1b93A07f51",
    "veBalMock",
    "VBM",
    "0xEFc3a819695932394D89b8AF6f49e0D89EDf9A40"
  ],
  "solcInputHash": "a30e732298cffd13029ce67a93a326ae",
  "bytecode": "0x60e06040523480156200001157600080fd5b50604051620010cb380380620010cb83398101604081905262000034916200034c565b60016000556001600160a01b038116620000aa5760405162461bcd60e51b815260206004820152602c60248201527f42616c4d6f636b3a205f617574686f72697a65725f61646170746f72203d3d2060448201526b5a45524f5f4144445245535360a01b60648201526084015b60405180910390fd5b6001600160a01b03848116608081905290821660a05243600955426008556040805163313ce56760e01b815290516000929163313ce5679160048083019260209291908290030181865afa15801562000107573d6000803e3d6000fd5b505050506040513d601f19601f820116820180604052508101906200012d9190620003dc565b905060ff811115620001825760405162461bcd60e51b815260206004820152601860248201527f42616c4d6f636b3a205f646563696d616c73203e2032353500000000000000006044820152606401620000a1565b835162000197906001906020870190620001bc565b508251620001ad906002906020860190620001bc565b5060c052506200043292505050565b828054620001ca90620003f6565b90600052602060002090601f016020900481019282620001ee576000855562000239565b82601f106200020957805160ff191683800117855562000239565b8280016001018555821562000239579182015b82811115620002395782518255916020019190600101906200021c565b50620002479291506200024b565b5090565b5b808211156200024757600081556001016200024c565b80516001600160a01b03811681146200027a57600080fd5b919050565b634e487b7160e01b600052604160045260246000fd5b600082601f830112620002a757600080fd5b81516001600160401b0380821115620002c457620002c46200027f565b604051601f8301601f19908116603f01168101908282118183101715620002ef57620002ef6200027f565b816040528381526020925086838588010111156200030c57600080fd5b600091505b8382101562000330578582018301518183018401529082019062000311565b83821115620003425760008385830101525b9695505050505050565b600080600080608085870312156200036357600080fd5b6200036e8562000262565b60208601519094506001600160401b03808211156200038c57600080fd5b6200039a8883890162000295565b94506040870151915080821115620003b157600080fd5b50620003c08782880162000295565b925050620003d16060860162000262565b905092959194509250565b600060208284031215620003ef57600080fd5b5051919050565b600181811c908216806200040b57607f821691505b6020821081036200042c57634e487b7160e01b600052602260045260246000fd5b50919050565b60805160a05160c051610c6962000462600039600061023f0152600061045b015260006104810152610c696000f3fe608060405234801561001057600080fd5b50600436106101ce5760003560e01c8063900cf0cf11610104578063cbf9fe5f116100a2578063f76f8d7811610071578063f76f8d7814610451578063f851a44014610459578063fc0c546a1461047f578063ffc9514d146104a557600080fd5b8063cbf9fe5f146103bb578063d1febfb914610403578063da020a181461043e578063eff7a6121461028057600080fd5b8063a3f4df7e116100de578063a3f4df7e14610373578063adc635891461037b578063bd85b039146103a7578063c2c4c5c11461027657600080fd5b8063900cf0cf1461034f57806395d89b4114610358578063981b24d01461036057600080fd5b80634ee2cd7e116101715780637175d4f71161014b5780637175d4f7146102e65780637c74a1741461031d5780638e5b490f146102765780638ff36fd11461033057600080fd5b80634ee2cd7e146101d357806357f901e21461029357806371197484146102a457600080fd5b8063313ce567116101ad578063313ce5671461023d5780633a46273e146102635780633ccfd60b146102785780634957677c1461028057600080fd5b8062fdd58e146101d3578063010ae757146101fc57806306fdde0314610228575b600080fd5b6101e96101e1366004610a6c565b600192915050565b6040519081526020015b60405180910390f35b6101e961020a366004610a96565b6c03c95a2f0b4856475fe00000086020526000908152604090205481565b6102306104b8565b6040516101f39190610ab8565b7f00000000000000000000000000000000000000000000000000000000000000006101e9565b610276610271366004610a6c565b61054a565b005b61027661058d565b61027661028e366004610b0d565b6105b6565b6102766102a1366004610a96565b50565b6102d36102b2366004610b0d565b6c03c95a2f0b4856475fe000000960205260009081526040902054600f0b81565b604051600f9190910b81526020016101f3565b6c03c95a2f0b4856475fe000000b54610305906001600160a01b031681565b6040516001600160a01b0390911681526020016101f3565b6102d361032b366004610a96565b6105e0565b6c03c95a2f0b4856475fe000000a54610305906001600160a01b031681565b6101e960065481565b610230610645565b6101e961036e366004610b0d565b610654565b61023061081d565b6101e9610389366004610a96565b6001600160a01b031660009081526005602052604090206001015490565b6101e96103b5366004610b0d565b50600190565b6103e96103c9366004610a96565b60056020526000908152604090208054600190910154600f9190910b9082565b60408051600f9390930b83526020830191909152016101f3565b610416610411366004610b0d565b6108ab565b60408051600f95860b81529390940b60208401529282015260608101919091526080016101f3565b6101e961044c366004610a6c565b6108ef565b610230610937565b7f0000000000000000000000000000000000000000000000000000000000000000610305565b7f0000000000000000000000000000000000000000000000000000000000000000610305565b6102766104b3366004610b0d565b610944565b6060600180546104c790610b26565b80601f01602080910402602001604051908101604052809291908181526020018280546104f390610b26565b80156105405780601f1061051557610100808354040283529160200191610540565b820191906000526020600020905b81548152906001019060200180831161052357829003601f168201915b5050505050905090565b6002600054036105755760405162461bcd60e51b815260040161056c90610b60565b60405180910390fd5b60026000556105848282610971565b50506001600055565b6002600054036105af5760405162461bcd60e51b815260040161056c90610b60565b6001600055565b6002600054036105d85760405162461bcd60e51b815260040161056c90610b60565b506001600055565b6001600160a01b03811660009081526c03c95a2f0b4856475fe000000860209081526040808320546c03c95a2f0b4856475fe0000007909252822081633b9aca00811061062f5761062f610b97565b6003020154600160801b9004600f0b9392505050565b6060600280546104c790610b26565b60004382111561069e5760405162461bcd60e51b81526020600482015260156024820152742fb13637b1b5901f10313637b1b597373ab6b132b960591b604482015260640161056c565b60065460408051608081018252600754600f81810b8352600160801b909104900b60208201526008549181019190915260095460608201526000908183156107b057600060076106ef856001610bc3565b6c01431e0fae6d7217caa0000000811061070b5761070b610b97565b60408051608081018252600392909202929092018054600f81810b8452600160801b909104900b60208301526001810154928201929092526002909101546060808301829052850151919250146107aa57826060015181606001516107709190610bdb565b836040015182604001516107849190610bdb565b6060850151610793908a610bdb565b61079d9190610bf2565b6107a79190610c11565b91505b506107ff565b438260600151146107ff5760608201516107ca9043610bdb565b60408301516107d99042610bdb565b60608401516107e89089610bdb565b6107f29190610bf2565b6107fc9190610c11565b90505b610813828284604001516101e19190610bc3565b9695505050505050565b6001805461082a90610b26565b80601f016020809104026020016040519081016040528092919081815260200182805461085690610b26565b80156108a35780601f10610878576101008083540402835291602001916108a3565b820191906000526020600020905b81548152906001019060200180831161088657829003601f168201915b505050505081565b6007816c01431e0fae6d7217caa000000081106108c757600080fd5b6003020180546001820154600290920154600f82810b9450600160801b90920490910b919084565b6001600160a01b03821660009081526c03c95a2f0b4856475fe00000076020526040812082633b9aca00811061092757610927610b97565b6003020160010154905092915050565b6002805461082a90610b26565b6002600054036109665760405162461bcd60e51b815260040161056c90610b60565b60026000556105d833825b6001600160a01b0382166109c75760405162461bcd60e51b815260206004820152601f60248201527f45524332303a206d696e7420746f20746865207a65726f206164647265737300604482015260640161056c565b80600460008282546109d99190610bc3565b90915550506001600160a01b03821660009081526003602052604081208054839290610a06908490610bc3565b90915550506040518181526001600160a01b038316906000907fddf252ad1be2c89b69c2b068fc378daa952ba7f163c4a11628f55a4df523b3ef9060200160405180910390a35050565b80356001600160a01b0381168114610a6757600080fd5b919050565b60008060408385031215610a7f57600080fd5b610a8883610a50565b946020939093013593505050565b600060208284031215610aa857600080fd5b610ab182610a50565b9392505050565b600060208083528351808285015260005b81811015610ae557858101830151858201604001528201610ac9565b81811115610af7576000604083870101525b50601f01601f1916929092016040019392505050565b600060208284031215610b1f57600080fd5b5035919050565b600181811c90821680610b3a57607f821691505b602082108103610b5a57634e487b7160e01b600052602260045260246000fd5b50919050565b6020808252601f908201527f5265656e7472616e637947756172643a207265656e7472616e742063616c6c00604082015260600190565b634e487b7160e01b600052603260045260246000fd5b634e487b7160e01b600052601160045260246000fd5b60008219821115610bd657610bd6610bad565b500190565b600082821015610bed57610bed610bad565b500390565b6000816000190483118215151615610c0c57610c0c610bad565b500290565b600082610c2e57634e487b7160e01b600052601260045260246000fd5b50049056fea264697066735822122013306a1025ac0f7d78c76b209a0d79401201ddc2f7241b10d40c3a21e5ee547464736f6c634300080d0033",
  "devdoc": {
    "kind": "dev",
    "methods": {},
    "version": 1
  },
  "userdoc": {
    "kind": "user",
    "methods": {},
    "version": 1
  },
  "storageLayout": {
    "storage": [
      {
        "astId": 10,
        "contract": "contracts/test/veBalMock.sol:veBalMock",
        "label": "_status",
        "offset": 0,
        "slot": "0",
        "type": "t_uint256"
      },
      {
        "astId": 167,
        "contract": "contracts/test/veBalMock.sol:veBalMock",
        "label": "NAME",
        "offset": 0,
        "slot": "1",
        "type": "t_string_storage"
      },
      {
        "astId": 169,
        "contract": "contracts/test/veBalMock.sol:veBalMock",
        "label": "SYMBOL",
        "offset": 0,
        "slot": "2",
        "type": "t_string_storage"
      },
      {
        "astId": 175,
        "contract": "contracts/test/veBalMock.sol:veBalMock",
        "label": "supply",
        "offset": 0,
        "slot": "3",
        "type": "t_mapping(t_address,t_uint256)"
      },
      {
        "astId": 177,
        "contract": "contracts/test/veBalMock.sol:veBalMock",
        "label": "_totalSupply",
        "offset": 0,
        "slot": "4",
        "type": "t_uint256"
      },
      {
        "astId": 182,
        "contract": "contracts/test/veBalMock.sol:veBalMock",
        "label": "locked",
        "offset": 0,
        "slot": "5",
        "type": "t_mapping(t_address,t_struct(LockedBalance)102_storage)"
      },
      {
        "astId": 184,
        "contract": "contracts/test/veBalMock.sol:veBalMock",
        "label": "epoch",
        "offset": 0,
        "slot": "6",
        "type": "t_uint256"
      },
      {
        "astId": 189,
        "contract": "contracts/test/veBalMock.sol:veBalMock",
        "label": "point_history",
        "offset": 0,
        "slot": "7",
        "type": "t_array(t_struct(Point)97_storage)100000000000000000000000000000_storage"
      },
      {
        "astId": 196,
        "contract": "contracts/test/veBalMock.sol:veBalMock",
        "label": "user_point_history",
        "offset": 0,
        "slot": "300000000000000000000000000007",
        "type": "t_mapping(t_address,t_array(t_struct(Point)97_storage)1000000000_storage)"
      },
      {
        "astId": 200,
        "contract": "contracts/test/veBalMock.sol:veBalMock",
        "label": "user_point_epoch",
        "offset": 0,
        "slot": "300000000000000000000000000008",
        "type": "t_mapping(t_address,t_uint256)"
      },
      {
        "astId": 204,
        "contract": "contracts/test/veBalMock.sol:veBalMock",
        "label": "slope_changes",
        "offset": 0,
        "slot": "300000000000000000000000000009",
        "type": "t_mapping(t_uint256,t_int128)"
      },
      {
        "astId": 206,
        "contract": "contracts/test/veBalMock.sol:veBalMock",
        "label": "future_smart_wallet_checker",
        "offset": 0,
        "slot": "300000000000000000000000000010",
        "type": "t_address"
      },
      {
        "astId": 208,
        "contract": "contracts/test/veBalMock.sol:veBalMock",
        "label": "smart_wallet_checker",
        "offset": 0,
        "slot": "300000000000000000000000000011",
        "type": "t_address"
      }
    ],
    "types": {
      "t_address": {
        "encoding": "inplace",
        "label": "address",
        "numberOfBytes": "20"
      },
      "t_array(t_struct(Point)97_storage)100000000000000000000000000000_storage": {
        "base": "t_struct(Point)97_storage",
        "encoding": "inplace",
        "label": "struct veBalMock.Point[100000000000000000000000000000]",
        "numberOfBytes": "9600000000000000000000000000000"
      },
      "t_array(t_struct(Point)97_storage)1000000000_storage": {
        "base": "t_struct(Point)97_storage",
        "encoding": "inplace",
        "label": "struct veBalMock.Point[1000000000]",
        "numberOfBytes": "96000000000"
      },
      "t_int128": {
        "encoding": "inplace",
        "label": "int128",
        "numberOfBytes": "16"
      },
      "t_mapping(t_address,t_array(t_struct(Point)97_storage)1000000000_storage)": {
        "encoding": "mapping",
        "key": "t_address",
        "label": "mapping(address => struct veBalMock.Point[1000000000])",
        "numberOfBytes": "32",
        "value": "t_array(t_struct(Point)97_storage)1000000000_storage"
      },
      "t_mapping(t_address,t_struct(LockedBalance)102_storage)": {
        "encoding": "mapping",
        "key": "t_address",
        "label": "mapping(address => struct veBalMock.LockedBalance)",
        "numberOfBytes": "32",
        "value": "t_struct(LockedBalance)102_storage"
      },
      "t_mapping(t_address,t_uint256)": {
        "encoding": "mapping",
        "key": "t_address",
        "label": "mapping(address => uint256)",
        "numberOfBytes": "32",
        "value": "t_uint256"
      },
      "t_mapping(t_uint256,t_int128)": {
        "encoding": "mapping",
        "key": "t_uint256",
        "label": "mapping(uint256 => int128)",
        "numberOfBytes": "32",
        "value": "t_int128"
      },
      "t_string_storage": {
        "encoding": "bytes",
        "label": "string",
        "numberOfBytes": "32"
      },
      "t_struct(LockedBalance)102_storage": {
        "encoding": "inplace",
        "label": "struct veBalMock.LockedBalance",
        "members": [
          {
            "astId": 99,
            "contract": "contracts/test/veBalMock.sol:veBalMock",
            "label": "amount",
            "offset": 0,
            "slot": "0",
            "type": "t_int128"
          },
          {
            "astId": 101,
            "contract": "contracts/test/veBalMock.sol:veBalMock",
            "label": "end",
            "offset": 0,
            "slot": "1",
            "type": "t_uint256"
          }
        ],
        "numberOfBytes": "64"
      },
      "t_struct(Point)97_storage": {
        "encoding": "inplace",
        "label": "struct veBalMock.Point",
        "members": [
          {
            "astId": 90,
            "contract": "contracts/test/veBalMock.sol:veBalMock",
            "label": "bias",
            "offset": 0,
            "slot": "0",
            "type": "t_int128"
          },
          {
            "astId": 92,
            "contract": "contracts/test/veBalMock.sol:veBalMock",
            "label": "slope",
            "offset": 16,
            "slot": "0",
            "type": "t_int128"
          },
          {
            "astId": 94,
            "contract": "contracts/test/veBalMock.sol:veBalMock",
            "label": "ts",
            "offset": 0,
            "slot": "1",
            "type": "t_uint256"
          },
          {
            "astId": 96,
            "contract": "contracts/test/veBalMock.sol:veBalMock",
            "label": "blk",
            "offset": 0,
            "slot": "2",
            "type": "t_uint256"
          }
        ],
        "numberOfBytes": "96"
      },
      "t_uint256": {
        "encoding": "inplace",
        "label": "uint256",
        "numberOfBytes": "32"
      }
    }
  }
}