{
  "address": "0xd60DeE1b240f14A4bd22aeA4363D08FA6dA40F25",
  "abi": [
    {
      "inputs": [
        {
          "internalType": "address",
          "name": "_wethBal",
          "type": "address"
        },
        {
          "internalType": "address",
          "name": "_veBal",
          "type": "address"
        },
        {
          "internalType": "address",
          "name": "_staker",
          "type": "address"
        },
        {
          "internalType": "address",
          "name": "_d2dBal",
          "type": "address"
        }
      ],
      "stateMutability": "nonpayable",
      "type": "constructor"
    },
    {
      "inputs": [],
      "name": "InvalidAmount",
      "type": "error"
    },
    {
      "inputs": [],
      "name": "Unauthorized",
      "type": "error"
    },
    {
      "anonymous": false,
      "inputs": [
        {
          "indexed": false,
          "internalType": "address",
          "name": "newFeeManager",
          "type": "address"
        }
      ],
      "name": "FeeManagerChanged",
      "type": "event"
    },
    {
      "anonymous": false,
      "inputs": [
        {
          "indexed": false,
          "internalType": "uint256",
          "name": "newLockIncentive",
          "type": "uint256"
        }
      ],
      "name": "LockIncentiveChanged",
      "type": "event"
    },
    {
      "inputs": [],
      "name": "FEE_DENOMINATOR",
      "outputs": [
        {
          "internalType": "uint256",
          "name": "",
          "type": "uint256"
        }
      ],
      "stateMutability": "view",
      "type": "function"
    },
    {
      "inputs": [
        {
          "internalType": "address",
          "name": "_from",
          "type": "address"
        },
        {
          "internalType": "uint256",
          "name": "_amount",
          "type": "uint256"
        }
      ],
      "name": "burnD2DBal",
      "outputs": [],
      "stateMutability": "nonpayable",
      "type": "function"
    },
    {
      "inputs": [],
      "name": "d2dBal",
      "outputs": [
        {
          "internalType": "address",
          "name": "",
          "type": "address"
        }
      ],
      "stateMutability": "view",
      "type": "function"
    },
    {
      "inputs": [
        {
          "internalType": "uint256",
          "name": "_amount",
          "type": "uint256"
        },
        {
          "internalType": "bool",
          "name": "_lock",
          "type": "bool"
        },
        {
          "internalType": "address",
          "name": "_stakeAddress",
          "type": "address"
        }
      ],
      "name": "deposit",
      "outputs": [],
      "stateMutability": "nonpayable",
      "type": "function"
    },
    {
      "inputs": [
        {
          "internalType": "bool",
          "name": "_lock",
          "type": "bool"
        },
        {
          "internalType": "address",
          "name": "_stakeAddress",
          "type": "address"
        }
      ],
      "name": "depositAll",
      "outputs": [],
      "stateMutability": "nonpayable",
      "type": "function"
    },
    {
      "inputs": [],
      "name": "feeManager",
      "outputs": [
        {
          "internalType": "address",
          "name": "",
          "type": "address"
        }
      ],
      "stateMutability": "view",
      "type": "function"
    },
    {
      "inputs": [],
      "name": "incentiveBal",
      "outputs": [
        {
          "internalType": "uint256",
          "name": "",
          "type": "uint256"
        }
      ],
      "stateMutability": "view",
      "type": "function"
    },
    {
      "inputs": [],
      "name": "initialLock",
      "outputs": [],
      "stateMutability": "nonpayable",
      "type": "function"
    },
    {
      "inputs": [],
      "name": "lockBalancer",
      "outputs": [],
      "stateMutability": "nonpayable",
      "type": "function"
    },
    {
      "inputs": [],
      "name": "lockIncentive",
      "outputs": [
        {
          "internalType": "uint256",
          "name": "",
          "type": "uint256"
        }
      ],
      "stateMutability": "view",
      "type": "function"
    },
    {
      "inputs": [
        {
          "internalType": "address",
          "name": "_feeManager",
          "type": "address"
        }
      ],
      "name": "setFeeManager",
      "outputs": [],
      "stateMutability": "nonpayable",
      "type": "function"
    },
    {
      "inputs": [
        {
          "internalType": "uint256",
          "name": "_lockIncentive",
          "type": "uint256"
        }
      ],
      "name": "setFees",
      "outputs": [],
      "stateMutability": "nonpayable",
      "type": "function"
    },
    {
      "inputs": [],
      "name": "staker",
      "outputs": [
        {
          "internalType": "address",
          "name": "",
          "type": "address"
        }
      ],
      "stateMutability": "view",
      "type": "function"
    },
    {
      "inputs": [],
      "name": "unlockTime",
      "outputs": [
        {
          "internalType": "uint256",
          "name": "",
          "type": "uint256"
        }
      ],
      "stateMutability": "view",
      "type": "function"
    },
    {
      "inputs": [],
      "name": "veBal",
      "outputs": [
        {
          "internalType": "address",
          "name": "",
          "type": "address"
        }
      ],
      "stateMutability": "view",
      "type": "function"
    },
    {
      "inputs": [],
      "name": "wethBal",
      "outputs": [
        {
          "internalType": "address",
          "name": "",
          "type": "address"
        }
      ],
      "stateMutability": "view",
      "type": "function"
    }
  ],
  "transactionHash": "0x74742a88ccff6f71db26c566f5317f57c21f9e9233faf2b8fb0bdbf222a2d93e",
  "args": [
    "0x5c6ee304399dbdb9c8ef030ab642b10820db8f56",
    "0xC128a9954e6c874eA3d62ce62B468bA073093F25",
    "0xE25E53220Df33D41b0422FeDBD2D23A94045cFf3",
    "0xc54e6F16A1940d000C6ADEE341D11570490a86F6"
  ],
  "solcInputHash": "74d87a39c2f5002629cc62ce8e120808",
  "bytecode": "0x610100604052600a6001553480156200001757600080fd5b506040516200161a3803806200161a8339810160408190526200003a916200008c565b6001600160a01b0393841660805291831660a052821660c0521660e052600080546001600160a01b03191633179055620000e9565b80516001600160a01b03811681146200008757600080fd5b919050565b60008060008060808587031215620000a357600080fd5b620000ae856200006f565b9350620000be602086016200006f565b9250620000ce604086016200006f565b9150620000de606086016200006f565b905092959194509250565b60805160a05160c05160e0516114806200019a600039600081816101f8015281816104f4015281816107e8015281816108a30152610e3e0152600081816101be015281816105f001528181610a2c01528181610ae201528181610b9b01528181610c6c01528181610d010152610eee01526000818161013b0152610a57015260008181610227015281816102bf0152818161061f015281816106f201528181610bc70152610ecc01526114806000f3fe608060405234801561001057600080fd5b50600436106101005760003560e01c806380ed71e411610097578063c5230deb11610066578063c5230deb14610249578063d0fb020314610252578063d73792a914610272578063fcacfb6b1461027b57600080fd5b806380ed71e4146101e0578063815a90da146101f3578063836f8f201461021a578063c17af1a71461022257600080fd5b8063472d35b9116100d3578063472d35b9146101955780634f805abb146101a857806350940618146101b05780635ebaf1db146101b957600080fd5b8063215537fd14610105578063251c1aa31461011a57806334bce903146101365780633d18678e14610182575b600080fd5b61011861011336600461123d565b61028e565b005b61012360035481565b6040519081526020015b60405180910390f35b61015d7f000000000000000000000000000000000000000000000000000000000000000081565b60405173ffffffffffffffffffffffffffffffffffffffff909116815260200161012d565b610118610190366004611276565b610351565b6101186101a336600461128f565b6103e7565b6101186104ab565b61012360015481565b61015d7f000000000000000000000000000000000000000000000000000000000000000081565b6101186101ee3660046112b3565b61056d565b61015d7f000000000000000000000000000000000000000000000000000000000000000081565b61011861099e565b61015d7f000000000000000000000000000000000000000000000000000000000000000081565b61012360025481565b60005461015d9073ffffffffffffffffffffffffffffffffffffffff1681565b61012361271081565b6101186102893660046112f5565b610cff565b6040517f70a082310000000000000000000000000000000000000000000000000000000081523360048201526000907f000000000000000000000000000000000000000000000000000000000000000073ffffffffffffffffffffffffffffffffffffffff16906370a0823190602401602060405180830381865afa15801561031b573d6000803e3d6000fd5b505050506040513d601f19601f8201168201806040525081019061033f9190611321565b905061034c81848461056d565b505050565b60005473ffffffffffffffffffffffffffffffffffffffff1633146103a2576040517f82b4290000000000000000000000000000000000000000000000000000000000815260040160405180910390fd5b601e81116103e45760018190556040518181527f3de926a42b72fa09501ec9644cb235fb5ad75b8263c987761a644d93996976ca906020015b60405180910390a15b50565b60005473ffffffffffffffffffffffffffffffffffffffff163314610438576040517f82b4290000000000000000000000000000000000000000000000000000000000815260040160405180910390fd5b600080547fffffffffffffffffffffffff00000000000000000000000000000000000000001673ffffffffffffffffffffffffffffffffffffffff83169081179091556040519081527f45d7e621935e768c84854481fb8a41a30200fbe59f86660d5e02dd876563d898906020016103db565b6104b3610e9e565b6002541561056b576002546040517f40c10f1900000000000000000000000000000000000000000000000000000000815233600482015260248101919091527f000000000000000000000000000000000000000000000000000000000000000073ffffffffffffffffffffffffffffffffffffffff16906340c10f1990604401600060405180830381600087803b15801561054d57600080fd5b505af1158015610561573d6000803e3d6000fd5b5050600060025550505b565b826000036105a7576040517f2c5211c600000000000000000000000000000000000000000000000000000000815260040160405180910390fd5b81156106b7576040517f23b872dd00000000000000000000000000000000000000000000000000000000815233600482015273ffffffffffffffffffffffffffffffffffffffff7f000000000000000000000000000000000000000000000000000000000000000081166024830152604482018590527f000000000000000000000000000000000000000000000000000000000000000016906323b872dd906064016020604051808303816000875af1158015610668573d6000803e3d6000fd5b505050506040513d601f19601f8201168201806040525081019061068c919061133a565b50610695610e9e565b600254156106b2576002546106aa9084611386565b600060025592505b6107b3565b6040517f23b872dd000000000000000000000000000000000000000000000000000000008152336004820152306024820152604481018490527f000000000000000000000000000000000000000000000000000000000000000073ffffffffffffffffffffffffffffffffffffffff16906323b872dd906064016020604051808303816000875af1158015610750573d6000803e3d6000fd5b505050506040513d601f19601f82011682018060405250810190610774919061133a565b50600061271060015485610788919061139e565b61079291906113db565b905061079e8185611416565b9350806002546107ae9190611386565b600255505b6040517f40c10f19000000000000000000000000000000000000000000000000000000008152306004820152602481018490527f000000000000000000000000000000000000000000000000000000000000000073ffffffffffffffffffffffffffffffffffffffff16906340c10f1990604401600060405180830381600087803b15801561084157600080fd5b505af1158015610855573d6000803e3d6000fd5b50506040517f095ea7b300000000000000000000000000000000000000000000000000000000815273ffffffffffffffffffffffffffffffffffffffff8481166004830152602482018790527f000000000000000000000000000000000000000000000000000000000000000016925063095ea7b391506044016020604051808303816000875af11580156108ee573d6000803e3d6000fd5b505050506040513d601f19601f82011682018060405250810190610912919061133a565b506040517f2ee409080000000000000000000000000000000000000000000000000000000081523360048201526024810184905273ffffffffffffffffffffffffffffffffffffffff821690632ee4090890604401600060405180830381600087803b15801561098157600080fd5b505af1158015610995573d6000803e3d6000fd5b50505050505050565b60005473ffffffffffffffffffffffffffffffffffffffff1633146109ef576040517f82b4290000000000000000000000000000000000000000000000000000000000815260040160405180910390fd5b6040517f70a0823100000000000000000000000000000000000000000000000000000000815273ffffffffffffffffffffffffffffffffffffffff7f0000000000000000000000000000000000000000000000000000000000000000811660048301526000917f0000000000000000000000000000000000000000000000000000000000000000909116906370a0823190602401602060405180830381865afa158015610aa0573d6000803e3d6000fd5b505050506040513d601f19601f82011682018060405250810190610ac49190611321565b9050806000036103e4576000610ade6301e1338042611386565b90507f000000000000000000000000000000000000000000000000000000000000000073ffffffffffffffffffffffffffffffffffffffff166386d1a69f6040518163ffffffff1660e01b8152600401600060405180830381600087803b158015610b4857600080fd5b505af1158015610b5c573d6000803e3d6000fd5b50506040517f70a0823100000000000000000000000000000000000000000000000000000000815273ffffffffffffffffffffffffffffffffffffffff7f000000000000000000000000000000000000000000000000000000000000000081166004830152600093507f00000000000000000000000000000000000000000000000000000000000000001691506370a0823190602401602060405180830381865afa158015610c0f573d6000803e3d6000fd5b505050506040513d601f19601f82011682018060405250810190610c339190611321565b6040517fb52c05fe00000000000000000000000000000000000000000000000000000000815260048101829052602481018490529091507f000000000000000000000000000000000000000000000000000000000000000073ffffffffffffffffffffffffffffffffffffffff169063b52c05fe90604401600060405180830381600087803b158015610cc557600080fd5b505af1158015610cd9573d6000803e3d6000fd5b5050505062093a808083610ced91906113db565b610cf7919061139e565b600355505050565b7f000000000000000000000000000000000000000000000000000000000000000073ffffffffffffffffffffffffffffffffffffffff1663570ca7356040518163ffffffff1660e01b8152600401602060405180830381865afa158015610d6a573d6000803e3d6000fd5b505050506040513d601f19601f82011682018060405250810190610d8e919061142d565b73ffffffffffffffffffffffffffffffffffffffff163373ffffffffffffffffffffffffffffffffffffffff1614610df2576040517f82b4290000000000000000000000000000000000000000000000000000000000815260040160405180910390fd5b6040517f9dc29fac00000000000000000000000000000000000000000000000000000000815273ffffffffffffffffffffffffffffffffffffffff8381166004830152602482018390527f00000000000000000000000000000000000000000000000000000000000000001690639dc29fac90604401600060405180830381600087803b158015610e8257600080fd5b505af1158015610e96573d6000803e3d6000fd5b505050505050565b6040517f70a082310000000000000000000000000000000000000000000000000000000081523060048201527f0000000000000000000000000000000000000000000000000000000000000000907f00000000000000000000000000000000000000000000000000000000000000009060009073ffffffffffffffffffffffffffffffffffffffff8416906370a0823190602401602060405180830381865afa158015610f4f573d6000803e3d6000fd5b505050506040513d601f19601f82011682018060405250810190610f739190611321565b90508015611016576040517fa9059cbb00000000000000000000000000000000000000000000000000000000815273ffffffffffffffffffffffffffffffffffffffff83811660048301526024820183905284169063a9059cbb906044016020604051808303816000875af1158015610ff0573d6000803e3d6000fd5b505050506040513d601f19601f82011682018060405250810190611014919061133a565b505b6040517f70a0823100000000000000000000000000000000000000000000000000000000815273ffffffffffffffffffffffffffffffffffffffff8381166004830152600091908516906370a0823190602401602060405180830381865afa158015611086573d6000803e3d6000fd5b505050506040513d601f19601f820116820180604052508101906110aa9190611321565b9050806000036110ba5750505050565b6040517f15456eba0000000000000000000000000000000000000000000000000000000081526004810182905273ffffffffffffffffffffffffffffffffffffffff8416906315456eba90602401600060405180830381600087803b15801561112257600080fd5b505af1158015611136573d6000803e3d6000fd5b5050505060006301e133804261114c9190611386565b9050600062093a8061115e81846113db565b611168919061139e565b905060026003548261117a9190611416565b1115610e96576040517f3c9a2a1a0000000000000000000000000000000000000000000000000000000081526004810183905273ffffffffffffffffffffffffffffffffffffffff861690633c9a2a1a90602401600060405180830381600087803b1580156111e857600080fd5b505af11580156111fc573d6000803e3d6000fd5b505050600383905550505050505050565b80151581146103e457600080fd5b73ffffffffffffffffffffffffffffffffffffffff811681146103e457600080fd5b6000806040838503121561125057600080fd5b823561125b8161120d565b9150602083013561126b8161121b565b809150509250929050565b60006020828403121561128857600080fd5b5035919050565b6000602082840312156112a157600080fd5b81356112ac8161121b565b9392505050565b6000806000606084860312156112c857600080fd5b8335925060208401356112da8161120d565b915060408401356112ea8161121b565b809150509250925092565b6000806040838503121561130857600080fd5b82356113138161121b565b946020939093013593505050565b60006020828403121561133357600080fd5b5051919050565b60006020828403121561134c57600080fd5b81516112ac8161120d565b7f4e487b7100000000000000000000000000000000000000000000000000000000600052601160045260246000fd5b6000821982111561139957611399611357565b500190565b6000817fffffffffffffffffffffffffffffffffffffffffffffffffffffffffffffffff04831182151516156113d6576113d6611357565b500290565b600082611411577f4e487b7100000000000000000000000000000000000000000000000000000000600052601260045260246000fd5b500490565b60008282101561142857611428611357565b500390565b60006020828403121561143f57600080fd5b81516112ac8161121b56fea2646970667358221220ef4c959bab065ce6c64633a38ccbfee0b5f9728805b0950cc0f20dad1a878dd264736f6c634300080f0033",
  "devdoc": {
    "details": "Deposit contract for Prime Pools is based on the convex contract crvDepositor.sol",
    "kind": "dev",
    "methods": {
      "burnD2DBal(address,uint256)": {
        "details": "Only Controller can call this"
      },
      "deposit(uint256,bool,address)": {
        "details": "VoterProxy `staker` is responsible for sending Weth/Bal tokens to veBal contract via _locktoken() All of the minted d2dBal will be automatically staked to the Rewards contract",
        "params": {
          "_amount": "The amount of tokens user wants to stake",
          "_lock": "boolean whether depositor wants to lock funds immediately",
          "_stakeAddress": "The Reward contract address"
        }
      },
      "depositAll(bool,address)": {
        "params": {
          "_lock": "boolean whether depositor wants to lock funds immediately",
          "_stakeAddress": "The Reward contract address"
        }
      },
      "lockBalancer()": {
        "details": "Needed in order to lockFunds on behalf of someone else"
      },
      "setFeeManager(address)": {
        "params": {
          "_feeManager": "The address of the fee manager"
        }
      },
      "setFees(uint256)": {
        "params": {
          "_lockIncentive": "Time to lock tokens"
        }
      }
    },
    "title": "BalDepositor contract",
    "version": 1
  },
  "userdoc": {
    "kind": "user",
    "methods": {
      "burnD2DBal(address,uint256)": {
        "notice": "Burns D2DBal from some address"
      },
      "deposit(uint256,bool,address)": {
        "notice": "Locks initial balance of Weth/Bal in Voter Proxy. Then stakes `_amount` of Weth/Bal tokens to veBal contract Mints & stakes d2dBal in Rewards contract on behalf of caller"
      },
      "depositAll(bool,address)": {
        "notice": "Deposits entire Weth/Bal balance of caller. Stakes same amount in Rewards contract"
      },
      "initialLock()": {
        "notice": "Locks initial Weth/Bal balance in veBal contract via voterProxy contract"
      },
      "lockBalancer()": {
        "notice": "Locks tokens in vBal contract and mints reward tokens to sender"
      },
      "setFeeManager(address)": {
        "notice": "Sets the contracts feeManager variable"
      },
      "setFees(uint256)": {
        "notice": "Sets the lock incentive variable"
      }
    },
    "version": 1
  },
  "storageLayout": {
    "storage": [
      {
        "astId": 2858,
        "contract": "contracts/BalDepositor.sol:BalDepositor",
        "label": "feeManager",
        "offset": 0,
        "slot": "0",
        "type": "t_address"
      },
      {
        "astId": 2861,
        "contract": "contracts/BalDepositor.sol:BalDepositor",
        "label": "lockIncentive",
        "offset": 0,
        "slot": "1",
        "type": "t_uint256"
      },
      {
        "astId": 2863,
        "contract": "contracts/BalDepositor.sol:BalDepositor",
        "label": "incentiveBal",
        "offset": 0,
        "slot": "2",
        "type": "t_uint256"
      },
      {
        "astId": 2865,
        "contract": "contracts/BalDepositor.sol:BalDepositor",
        "label": "unlockTime",
        "offset": 0,
        "slot": "3",
        "type": "t_uint256"
      }
    ],
    "types": {
      "t_address": {
        "encoding": "inplace",
        "label": "address",
        "numberOfBytes": "20"
      },
      "t_uint256": {
        "encoding": "inplace",
        "label": "uint256",
        "numberOfBytes": "32"
      }
    }
  }
}