{
  "address": "0x3428Eb569f5776e2f44D14BDe6CA6c59d7Fcea51",
  "abi": [
    {
      "inputs": [
        {
          "internalType": "uint256",
          "name": "pid_",
          "type": "uint256"
        },
        {
          "internalType": "address",
          "name": "stakingToken_",
          "type": "address"
        },
        {
          "internalType": "address",
          "name": "rewardToken_",
          "type": "address"
        },
        {
          "internalType": "address",
          "name": "operator_",
          "type": "address"
        },
        {
          "internalType": "address",
          "name": "rewardManager_",
          "type": "address"
        }
      ],
      "stateMutability": "nonpayable",
      "type": "constructor"
    },
    {
      "inputs": [],
      "name": "InvalidAmount",
      "type": "error"
    },
    {
      "inputs": [],
      "name": "Unauthorized",
      "type": "error"
    },
    {
      "anonymous": false,
      "inputs": [
        {
          "indexed": false,
          "internalType": "address",
          "name": "extraReward",
          "type": "address"
        }
      ],
      "name": "ExtraRewardCleared",
      "type": "event"
    },
    {
      "anonymous": false,
      "inputs": [],
      "name": "ExtraRewardsCleared",
      "type": "event"
    },
    {
      "anonymous": false,
      "inputs": [
        {
          "indexed": false,
          "internalType": "uint256",
          "name": "reward",
          "type": "uint256"
        }
      ],
      "name": "RewardAdded",
      "type": "event"
    },
    {
      "anonymous": false,
      "inputs": [
        {
          "indexed": true,
          "internalType": "address",
          "name": "user",
          "type": "address"
        },
        {
          "indexed": false,
          "internalType": "uint256",
          "name": "reward",
          "type": "uint256"
        }
      ],
      "name": "RewardPaid",
      "type": "event"
    },
    {
      "anonymous": false,
      "inputs": [
        {
          "indexed": true,
          "internalType": "address",
          "name": "user",
          "type": "address"
        },
        {
          "indexed": false,
          "internalType": "uint256",
          "name": "amount",
          "type": "uint256"
        }
      ],
      "name": "Staked",
      "type": "event"
    },
    {
      "anonymous": false,
      "inputs": [
        {
          "indexed": true,
          "internalType": "address",
          "name": "user",
          "type": "address"
        },
        {
          "indexed": false,
          "internalType": "uint256",
          "name": "amount",
          "type": "uint256"
        }
      ],
      "name": "Withdrawn",
      "type": "event"
    },
    {
      "inputs": [],
      "name": "DURATION",
      "outputs": [
        {
          "internalType": "uint256",
          "name": "",
          "type": "uint256"
        }
      ],
      "stateMutability": "view",
      "type": "function"
    },
    {
      "inputs": [],
      "name": "NEW_REWARD_RATIO",
      "outputs": [
        {
          "internalType": "uint256",
          "name": "",
          "type": "uint256"
        }
      ],
      "stateMutability": "view",
      "type": "function"
    },
    {
      "inputs": [
        {
          "internalType": "address",
          "name": "_reward",
          "type": "address"
        }
      ],
      "name": "addExtraReward",
      "outputs": [],
      "stateMutability": "nonpayable",
      "type": "function"
    },
    {
      "inputs": [
        {
          "internalType": "address",
          "name": "account",
          "type": "address"
        }
      ],
      "name": "balanceOf",
      "outputs": [
        {
          "internalType": "uint256",
          "name": "",
          "type": "uint256"
        }
      ],
      "stateMutability": "view",
      "type": "function"
    },
    {
      "inputs": [
        {
          "internalType": "uint256",
          "name": "index",
          "type": "uint256"
        }
      ],
      "name": "clearExtraReward",
      "outputs": [],
      "stateMutability": "nonpayable",
      "type": "function"
    },
    {
      "inputs": [],
      "name": "clearExtraRewards",
      "outputs": [],
      "stateMutability": "nonpayable",
      "type": "function"
    },
    {
      "inputs": [],
      "name": "currentRewards",
      "outputs": [
        {
          "internalType": "uint256",
          "name": "",
          "type": "uint256"
        }
      ],
      "stateMutability": "view",
      "type": "function"
    },
    {
      "inputs": [
        {
          "internalType": "uint256",
          "name": "_amount",
          "type": "uint256"
        }
      ],
      "name": "donate",
      "outputs": [],
      "stateMutability": "nonpayable",
      "type": "function"
    },
    {
      "inputs": [
        {
          "internalType": "address",
          "name": "account",
          "type": "address"
        }
      ],
      "name": "earned",
      "outputs": [
        {
          "internalType": "uint256",
          "name": "",
          "type": "uint256"
        }
      ],
      "stateMutability": "view",
      "type": "function"
    },
    {
      "inputs": [
        {
          "internalType": "uint256",
          "name": "",
          "type": "uint256"
        }
      ],
      "name": "extraRewards",
      "outputs": [
        {
          "internalType": "address",
          "name": "",
          "type": "address"
        }
      ],
      "stateMutability": "view",
      "type": "function"
    },
    {
      "inputs": [],
      "name": "extraRewardsLength",
      "outputs": [
        {
          "internalType": "uint256",
          "name": "",
          "type": "uint256"
        }
      ],
      "stateMutability": "view",
      "type": "function"
    },
    {
      "inputs": [],
      "name": "getReward",
      "outputs": [],
      "stateMutability": "nonpayable",
      "type": "function"
    },
    {
      "inputs": [
        {
          "internalType": "address",
          "name": "_account",
          "type": "address"
        },
        {
          "internalType": "bool",
          "name": "_claimExtras",
          "type": "bool"
        }
      ],
      "name": "getReward",
      "outputs": [],
      "stateMutability": "nonpayable",
      "type": "function"
    },
    {
      "inputs": [],
      "name": "historicalRewards",
      "outputs": [
        {
          "internalType": "uint256",
          "name": "",
          "type": "uint256"
        }
      ],
      "stateMutability": "view",
      "type": "function"
    },
    {
      "inputs": [],
      "name": "lastTimeRewardApplicable",
      "outputs": [
        {
          "internalType": "uint256",
          "name": "",
          "type": "uint256"
        }
      ],
      "stateMutability": "view",
      "type": "function"
    },
    {
      "inputs": [],
      "name": "lastUpdateTime",
      "outputs": [
        {
          "internalType": "uint256",
          "name": "",
          "type": "uint256"
        }
      ],
      "stateMutability": "view",
      "type": "function"
    },
    {
      "inputs": [],
      "name": "operator",
      "outputs": [
        {
          "internalType": "address",
          "name": "",
          "type": "address"
        }
      ],
      "stateMutability": "view",
      "type": "function"
    },
    {
      "inputs": [],
      "name": "periodFinish",
      "outputs": [
        {
          "internalType": "uint256",
          "name": "",
          "type": "uint256"
        }
      ],
      "stateMutability": "view",
      "type": "function"
    },
    {
      "inputs": [],
      "name": "pid",
      "outputs": [
        {
          "internalType": "uint256",
          "name": "",
          "type": "uint256"
        }
      ],
      "stateMutability": "view",
      "type": "function"
    },
    {
      "inputs": [
        {
          "internalType": "uint256",
          "name": "_rewards",
          "type": "uint256"
        }
      ],
      "name": "queueNewRewards",
      "outputs": [],
      "stateMutability": "nonpayable",
      "type": "function"
    },
    {
      "inputs": [],
      "name": "queuedRewards",
      "outputs": [
        {
          "internalType": "uint256",
          "name": "",
          "type": "uint256"
        }
      ],
      "stateMutability": "view",
      "type": "function"
    },
    {
      "inputs": [],
      "name": "rewardManager",
      "outputs": [
        {
          "internalType": "address",
          "name": "",
          "type": "address"
        }
      ],
      "stateMutability": "view",
      "type": "function"
    },
    {
      "inputs": [],
      "name": "rewardPerToken",
      "outputs": [
        {
          "internalType": "uint256",
          "name": "",
          "type": "uint256"
        }
      ],
      "stateMutability": "view",
      "type": "function"
    },
    {
      "inputs": [],
      "name": "rewardPerTokenStored",
      "outputs": [
        {
          "internalType": "uint256",
          "name": "",
          "type": "uint256"
        }
      ],
      "stateMutability": "view",
      "type": "function"
    },
    {
      "inputs": [],
      "name": "rewardRate",
      "outputs": [
        {
          "internalType": "uint256",
          "name": "",
          "type": "uint256"
        }
      ],
      "stateMutability": "view",
      "type": "function"
    },
    {
      "inputs": [],
      "name": "rewardToken",
      "outputs": [
        {
          "internalType": "contract IERC20",
          "name": "",
          "type": "address"
        }
      ],
      "stateMutability": "view",
      "type": "function"
    },
    {
      "inputs": [
        {
          "internalType": "address",
          "name": "",
          "type": "address"
        }
      ],
      "name": "rewards",
      "outputs": [
        {
          "internalType": "uint256",
          "name": "",
          "type": "uint256"
        }
      ],
      "stateMutability": "view",
      "type": "function"
    },
    {
      "inputs": [
        {
          "internalType": "uint256",
          "name": "_amount",
          "type": "uint256"
        }
      ],
      "name": "stake",
      "outputs": [],
      "stateMutability": "nonpayable",
      "type": "function"
    },
    {
      "inputs": [],
      "name": "stakeAll",
      "outputs": [],
      "stateMutability": "nonpayable",
      "type": "function"
    },
    {
      "inputs": [
        {
          "internalType": "address",
          "name": "_for",
          "type": "address"
        },
        {
          "internalType": "uint256",
          "name": "_amount",
          "type": "uint256"
        }
      ],
      "name": "stakeFor",
      "outputs": [],
      "stateMutability": "nonpayable",
      "type": "function"
    },
    {
      "inputs": [],
      "name": "stakingToken",
      "outputs": [
        {
          "internalType": "contract IERC20",
          "name": "",
          "type": "address"
        }
      ],
      "stateMutability": "view",
      "type": "function"
    },
    {
      "inputs": [],
      "name": "totalSupply",
      "outputs": [
        {
          "internalType": "uint256",
          "name": "",
          "type": "uint256"
        }
      ],
      "stateMutability": "view",
      "type": "function"
    },
    {
      "inputs": [
        {
          "internalType": "address",
          "name": "",
          "type": "address"
        }
      ],
      "name": "userRewardPerTokenPaid",
      "outputs": [
        {
          "internalType": "uint256",
          "name": "",
          "type": "uint256"
        }
      ],
      "stateMutability": "view",
      "type": "function"
    },
    {
      "inputs": [
        {
          "internalType": "uint256",
          "name": "_amount",
          "type": "uint256"
        },
        {
          "internalType": "bool",
          "name": "_claim",
          "type": "bool"
        },
        {
          "internalType": "bool",
          "name": "_unwrap",
          "type": "bool"
        }
      ],
      "name": "withdraw",
      "outputs": [],
      "stateMutability": "nonpayable",
      "type": "function"
    },
    {
      "inputs": [
        {
          "internalType": "bool",
          "name": "_claim",
          "type": "bool"
        }
      ],
      "name": "withdrawAll",
      "outputs": [],
      "stateMutability": "nonpayable",
      "type": "function"
    },
    {
      "inputs": [
        {
          "internalType": "bool",
          "name": "_claim",
          "type": "bool"
        }
      ],
      "name": "withdrawAllAndUnwrap",
      "outputs": [],
      "stateMutability": "nonpayable",
      "type": "function"
    }
  ],
  "transactionHash": "0x932993d5cfae0a512d6155ebf72a4aaae8d21dbd5b615468c09686e855be8fa7",
  "args": [
    0,
    "0xb5f927da2815ba62c675fa2b6204b5270d6c0e38",
    "0xba100000625a3754423978a60c9317c58a424e3d",
    "0x190Bfc8FC0BC0C734c34383eAD884D00E00E91c0",
    "0x5F9a7EA6A79Ef04F103bfe7BD45dA65476a5155C"
  ],
  "solcInputHash": "7e57f81a6be83430d315781a62c52ee2",
  "bytecode": "0x6101006040523480156200001257600080fd5b506040516200223d3803806200223d83398101604081905262000035916200007b565b6000949094556001600160a01b0392831660a052908216608052811660c0521660e052620000e2565b80516001600160a01b03811681146200007657600080fd5b919050565b600080600080600060a086880312156200009457600080fd5b85519450620000a6602087016200005e565b9350620000b6604087016200005e565b9250620000c6606087016200005e565b9150620000d6608087016200005e565b90509295509295909350565b60805160a05160c05160e0516120db62000162600039600081816102b50152610d0001526000818161038c015281816105bc015281816106f201528181610bf001526112f001526000818161042b01528181610ac901528181611129015261139b01526000818161050101528181610f3601526114f901526120db6000f3fe608060405234801561001057600080fd5b506004361061025b5760003560e01c80637050ccd911610145578063a694fc3a116100bd578063df136d651161008c578063f106845411610071578063f1068454146104e0578063f14faf6f146104e9578063f7c618c1146104fc57600080fd5b8063df136d65146104ce578063ebe2b12b146104d757600080fd5b8063a694fc3a146104a2578063c8f33c91146104b5578063cd3daf9d146104be578063d55a23f4146104c657600080fd5b806380faa57d116101145780638dcb4061116100f95780638dcb40611461047e578063901a7d531461048657806392930b451461048f57600080fd5b806380faa57d146104565780638b8763471461045e57600080fd5b80637050ccd9146103dd57806370a08231146103f057806372f702f3146104265780637b0a47ee1461044d57600080fd5b80632ee40908116101d85780634cfe2f4a116101a7578063590a41f51161018c578063590a41f5146103ae5780635e43c47b146103c157806363d38c3b146103d457600080fd5b80634cfe2f4a1461037e578063570ca7351461038757600080fd5b80632ee409081461033d5780633d18b9121461035057806340c354461461035857806349f039a21461036b57600080fd5b806318160ddd1161022f5780631c1c6fe5116102145780631c1c6fe51461030e57806321ef0fae14610321578063262d3d6d1461033457600080fd5b806318160ddd146102fc5780631be052891461030457600080fd5b80628cc262146102605780630569d388146102865780630700037d146102905780630f4ef8a6146102b0575b600080fd5b61027361026e366004611d7d565b610523565b6040519081526020015b60405180910390f35b61028e6105ba565b005b61027361029e366004611d7d565b600a6020526000908152604090205481565b6102d77f000000000000000000000000000000000000000000000000000000000000000081565b60405173ffffffffffffffffffffffffffffffffffffffff909116815260200161027d565b600854610273565b61027362093a8081565b61028e61031c366004611da8565b6106d2565b61028e61032f366004611dc5565b6106f0565b61027360075481565b61028e61034b366004611dde565b610967565b61028e610b8e565b6102d7610366366004611dc5565b610b9b565b61028e610379366004611da8565b610bd2565b61027361033e81565b6102d77f000000000000000000000000000000000000000000000000000000000000000081565b61028e6103bc366004611dc5565b610bee565b61028e6103cf366004611d7d565b610cfe565b61027360055481565b61028e6103eb366004611e0a565b610e68565b6102736103fe366004611d7d565b73ffffffffffffffffffffffffffffffffffffffff166000908152600b602052604090205490565b6102d77f000000000000000000000000000000000000000000000000000000000000000081565b61027360025481565b6102736110e5565b61027361046c366004611d7d565b60096020526000908152604090205481565b61028e6110f8565b61027360065481565b61028e61049d366004611e43565b6111b4565b61028e6104b0366004611dc5565b611465565b61027360035481565b61027361146f565b600c54610273565b61027360045481565b61027360015481565b61027360005481565b61028e6104f7366004611dc5565b6114df565b6102d77f000000000000000000000000000000000000000000000000000000000000000081565b73ffffffffffffffffffffffffffffffffffffffff81166000908152600a60209081526040808320546009909252822054670de0b6b3a76400009061056661146f565b6105709190611eb4565b73ffffffffffffffffffffffffffffffffffffffff85166000908152600b60205260409020546105a09190611ecb565b6105aa9190611f08565b6105b49190611f43565b92915050565b7f000000000000000000000000000000000000000000000000000000000000000073ffffffffffffffffffffffffffffffffffffffff16638da5cb5b6040518163ffffffff1660e01b81526004016020604051808303816000875af1158015610627573d6000803e3d6000fd5b505050506040513d601f19601f8201168201806040525081019061064b9190611f5b565b3373ffffffffffffffffffffffffffffffffffffffff82161461069a576040517f82b4290000000000000000000000000000000000000000000000000000000000815260040160405180910390fd5b6106a6600c6000611d29565b6040517f1a53a10dfbef82dfcf34ce946c284b478164f6e7496a07fc0cbe69d01ff44f0990600090a150565b336000908152600b60205260408120546106ed9183906111b4565b50565b7f000000000000000000000000000000000000000000000000000000000000000073ffffffffffffffffffffffffffffffffffffffff16638da5cb5b6040518163ffffffff1660e01b81526004016020604051808303816000875af115801561075d573d6000803e3d6000fd5b505050506040513d601f19601f820116820180604052508101906107819190611f5b565b3373ffffffffffffffffffffffffffffffffffffffff8216146107d0576040517f82b4290000000000000000000000000000000000000000000000000000000000815260040160405180910390fd5b6000600c83815481106107e5576107e5611f78565b600091825260209091200154600c805473ffffffffffffffffffffffffffffffffffffffff90921692509061081c90600190611eb4565b8154811061082c5761082c611f78565b600091825260209091200154600c805473ffffffffffffffffffffffffffffffffffffffff909216918590811061086557610865611f78565b9060005260206000200160006101000a81548173ffffffffffffffffffffffffffffffffffffffff021916908373ffffffffffffffffffffffffffffffffffffffff160217905550600c8054806108be576108be611fa7565b60008281526020908190207fffffffffffffffffffffffffffffffffffffffffffffffffffffffffffffffff908301810180547fffffffffffffffffffffffff000000000000000000000000000000000000000016905590910190915560405173ffffffffffffffffffffffffffffffffffffffff831681527f34304d78213ed24f75e323bc823dc4883b456fbe135029e6ae3c1597e6c7d436910160405180910390a1505050565b8161097061146f565b60045561097b6110e5565b60035573ffffffffffffffffffffffffffffffffffffffff8116156109dc576109a381610523565b73ffffffffffffffffffffffffffffffffffffffff82166000908152600a60209081526040808320939093556004546009909152919020555b6001821015610a17576040517f2c5211c600000000000000000000000000000000000000000000000000000000815260040160405180910390fd5b610a218383611535565b81600854610a2f9190611f43565b60085573ffffffffffffffffffffffffffffffffffffffff83166000908152600b6020526040902054610a63908390611f43565b73ffffffffffffffffffffffffffffffffffffffff8481166000908152600b6020526040908190209290925590517f23b872dd000000000000000000000000000000000000000000000000000000008152336004820152306024820152604481018490527f0000000000000000000000000000000000000000000000000000000000000000909116906323b872dd906064016020604051808303816000875af1158015610b14573d6000803e3d6000fd5b505050506040513d601f19601f82011682018060405250810190610b389190611fd6565b508273ffffffffffffffffffffffffffffffffffffffff167f9e71bc8eea02a63969f509818f2dafb9254532904319f9dbda79b67bd34a5f3d83604051610b8191815260200190565b60405180910390a2505050565b610b99336001610e68565b565b600c8181548110610bab57600080fd5b60009182526020909120015473ffffffffffffffffffffffffffffffffffffffff16905081565b336000908152600b60205260409020546106ed908260016111b4565b7f00000000000000000000000000000000000000000000000000000000000000003373ffffffffffffffffffffffffffffffffffffffff821614610c5e576040517f82b4290000000000000000000000000000000000000000000000000000000000815260040160405180910390fd5b600554610c6b9083611f43565b91506001544210610c8857610c7f82611664565b60006005555050565b600062093a80600154610c9b9190611eb4565b610ca59042611eb4565b9050600081600254610cb79190611ecb565b9050600084610cc8836103e8611ecb565b610cd29190611f08565b905061033e811015610cf157610ce785611664565b6000600555610cf7565b60058590555b5050505050565b7f00000000000000000000000000000000000000000000000000000000000000003373ffffffffffffffffffffffffffffffffffffffff821614610d6e576040517f82b4290000000000000000000000000000000000000000000000000000000000815260040160405180910390fd5b73ffffffffffffffffffffffffffffffffffffffff8216610df0576040517f08c379a000000000000000000000000000000000000000000000000000000000815260206004820152600f60248201527f217265776172642073657474696e67000000000000000000000000000000000060448201526064015b60405180910390fd5b50600c80546001810182556000919091527fdf6966c971051c3d54ec59162606531493a51404a002842f56009d7e5cf4a8c70180547fffffffffffffffffffffffff00000000000000000000000000000000000000001673ffffffffffffffffffffffffffffffffffffffff92909216919091179055565b81610e7161146f565b600455610e7c6110e5565b60035573ffffffffffffffffffffffffffffffffffffffff811615610edd57610ea481610523565b73ffffffffffffffffffffffffffffffffffffffff82166000908152600a60209081526040808320939093556004546009909152919020555b73ffffffffffffffffffffffffffffffffffffffff83166000908152600a60205260409020548015610fae5773ffffffffffffffffffffffffffffffffffffffff8085166000908152600a6020526040812055610f5d907f000000000000000000000000000000000000000000000000000000000000000016858361179f565b8373ffffffffffffffffffffffffffffffffffffffff167fe2403640ba68fed3a2f88b7557551d1993f84b99bb10ff833f0cf8db0c5e048682604051610fa591815260200190565b60405180910390a25b82156110df576000600c80548060200260200160405190810160405280929190818152602001828054801561101957602002820191906000526020600020905b815473ffffffffffffffffffffffffffffffffffffffff168152600190910190602001808311610fee575b5050505050905060005b81518110156110dc5781818151811061103e5761103e611f78565b60209081029190910101516040517fc00007b000000000000000000000000000000000000000000000000000000000815273ffffffffffffffffffffffffffffffffffffffff88811660048301529091169063c00007b090602401600060405180830381600087803b1580156110b357600080fd5b505af11580156110c7573d6000803e3d6000fd5b505050506110d58160010190565b9050611023565b50505b50505050565b60006110f342600154611878565b905090565b6040517f70a082310000000000000000000000000000000000000000000000000000000081523360048201526000907f000000000000000000000000000000000000000000000000000000000000000073ffffffffffffffffffffffffffffffffffffffff16906370a0823190602401602060405180830381865afa158015611185573d6000803e3d6000fd5b505050506040513d601f19601f820116820180604052508101906111a99190611ff3565b90506106ed81611465565b336111bd61146f565b6004556111c86110e5565b60035573ffffffffffffffffffffffffffffffffffffffff811615611229576111f081610523565b73ffffffffffffffffffffffffffffffffffffffff82166000908152600a60209081526040808320939093556004546009909152919020555b6001841015611264576040517f2c5211c600000000000000000000000000000000000000000000000000000000815260040160405180910390fd5b61126e3385611890565b8360085461127c9190611eb4565b600855336000908152600b602052604090205461129a908590611eb4565b336000908152600b60205260409020558115611366576000546040517f14cd70e40000000000000000000000000000000000000000000000000000000081526004810191909152602481018590523360448201527f000000000000000000000000000000000000000000000000000000000000000073ffffffffffffffffffffffffffffffffffffffff16906314cd70e490606401600060405180830381600087803b15801561134957600080fd5b505af115801561135d573d6000803e3d6000fd5b5050505061141f565b6040517fa9059cbb000000000000000000000000000000000000000000000000000000008152336004820152602481018590527f000000000000000000000000000000000000000000000000000000000000000073ffffffffffffffffffffffffffffffffffffffff169063a9059cbb906044016020604051808303816000875af11580156113f9573d6000803e3d6000fd5b505050506040513d601f19601f8201168201806040525081019061141d9190611fd6565b505b60405184815233907f7084f5476618d8e60b11ef0d7d3f06914655adb8793e28ff7f018d4c76d505d59060200160405180910390a282156110df576110df336001610e68565b6106ed3382610967565b60008061147b60085490565b90508060000361148d57505060045490565b8060025460035461149c6110e5565b6114a69190611eb4565b6114b09190611ecb565b6114c290670de0b6b3a7640000611ecb565b6114cc9190611f08565b6004546114d99190611f43565b91505090565b61152173ffffffffffffffffffffffffffffffffffffffff7f0000000000000000000000000000000000000000000000000000000000000000163330846119bf565b8060055461152f9190611f43565b60055550565b6000600c80548060200260200160405190810160405280929190818152602001828054801561159a57602002820191906000526020600020905b815473ffffffffffffffffffffffffffffffffffffffff16815260019091019060200180831161156f575b5050505050905060005b81518110156110df578181815181106115bf576115bf611f78565b60209081029190910101516040517fadc9772e00000000000000000000000000000000000000000000000000000000815273ffffffffffffffffffffffffffffffffffffffff8681166004830152602482018690529091169063adc9772e90604401600060405180830381600087803b15801561163b57600080fd5b505af115801561164f573d6000803e3d6000fd5b5050505061165d8160010190565b90506115a4565b600061166e61146f565b6004556116796110e5565b60035573ffffffffffffffffffffffffffffffffffffffff8116156116da576116a181610523565b73ffffffffffffffffffffffffffffffffffffffff82166000908152600a60209081526040808320939093556004546009909152919020555b816007546116e89190611f43565b60075560015442106117095761170162093a8083611f08565b60025561174c565b6000426001546117199190611eb4565b905060006002548261172b9190611ecb565b90506117378185611f43565b935061174662093a8085611f08565b60025550505b60068290554260038190556117659062093a8090611f43565b6001556040518281527fde88a922e0d3b88b24e9623efeb464919c6bf9f66857a65e2bfcf2ce87a9433d9060200160405180910390a15050565b60405173ffffffffffffffffffffffffffffffffffffffff83166024820152604481018290526118739084907fa9059cbb00000000000000000000000000000000000000000000000000000000906064015b604080517fffffffffffffffffffffffffffffffffffffffffffffffffffffffffffffffe08184030181529190526020810180517bffffffffffffffffffffffffffffffffffffffffffffffffffffffff167fffffffff0000000000000000000000000000000000000000000000000000000090931692909217909152611a1d565b505050565b60008183106118875781611889565b825b9392505050565b6000600c8054806020026020016040519081016040528092919081815260200182805480156118f557602002820191906000526020600020905b815473ffffffffffffffffffffffffffffffffffffffff1681526001909101906020018083116118ca575b5050505050905060005b81518110156110df5781818151811061191a5761191a611f78565b60209081029190910101516040517ff3fef3a300000000000000000000000000000000000000000000000000000000815273ffffffffffffffffffffffffffffffffffffffff8681166004830152602482018690529091169063f3fef3a390604401600060405180830381600087803b15801561199657600080fd5b505af11580156119aa573d6000803e3d6000fd5b505050506119b88160010190565b90506118ff565b60405173ffffffffffffffffffffffffffffffffffffffff808516602483015283166044820152606481018290526110df9085907f23b872dd00000000000000000000000000000000000000000000000000000000906084016117f1565b6000611a7f826040518060400160405280602081526020017f5361666545524332303a206c6f772d6c6576656c2063616c6c206661696c65648152508573ffffffffffffffffffffffffffffffffffffffff16611b299092919063ffffffff16565b8051909150156118735780806020019051810190611a9d9190611fd6565b611873576040517f08c379a000000000000000000000000000000000000000000000000000000000815260206004820152602a60248201527f5361666545524332303a204552433230206f7065726174696f6e20646964206e60448201527f6f742073756363656564000000000000000000000000000000000000000000006064820152608401610de7565b6060611b388484600085611b40565b949350505050565b606082471015611bd2576040517f08c379a000000000000000000000000000000000000000000000000000000000815260206004820152602660248201527f416464726573733a20696e73756666696369656e742062616c616e636520666f60448201527f722063616c6c00000000000000000000000000000000000000000000000000006064820152608401610de7565b73ffffffffffffffffffffffffffffffffffffffff85163b611c50576040517f08c379a000000000000000000000000000000000000000000000000000000000815260206004820152601d60248201527f416464726573733a2063616c6c20746f206e6f6e2d636f6e74726163740000006044820152606401610de7565b6000808673ffffffffffffffffffffffffffffffffffffffff168587604051611c799190612038565b60006040518083038185875af1925050503d8060008114611cb6576040519150601f19603f3d011682016040523d82523d6000602084013e611cbb565b606091505b5091509150611ccb828286611cd6565b979650505050505050565b60608315611ce5575081611889565b825115611cf55782518084602001fd5b816040517f08c379a0000000000000000000000000000000000000000000000000000000008152600401610de79190612054565b50805460008255906000526020600020908101906106ed91905b80821115611d575760008155600101611d43565b5090565b73ffffffffffffffffffffffffffffffffffffffff811681146106ed57600080fd5b600060208284031215611d8f57600080fd5b813561188981611d5b565b80151581146106ed57600080fd5b600060208284031215611dba57600080fd5b813561188981611d9a565b600060208284031215611dd757600080fd5b5035919050565b60008060408385031215611df157600080fd5b8235611dfc81611d5b565b946020939093013593505050565b60008060408385031215611e1d57600080fd5b8235611e2881611d5b565b91506020830135611e3881611d9a565b809150509250929050565b600080600060608486031215611e5857600080fd5b833592506020840135611e6a81611d9a565b91506040840135611e7a81611d9a565b809150509250925092565b7f4e487b7100000000000000000000000000000000000000000000000000000000600052601160045260246000fd5b600082821015611ec657611ec6611e85565b500390565b6000817fffffffffffffffffffffffffffffffffffffffffffffffffffffffffffffffff0483118215151615611f0357611f03611e85565b500290565b600082611f3e577f4e487b7100000000000000000000000000000000000000000000000000000000600052601260045260246000fd5b500490565b60008219821115611f5657611f56611e85565b500190565b600060208284031215611f6d57600080fd5b815161188981611d5b565b7f4e487b7100000000000000000000000000000000000000000000000000000000600052603260045260246000fd5b7f4e487b7100000000000000000000000000000000000000000000000000000000600052603160045260246000fd5b600060208284031215611fe857600080fd5b815161188981611d9a565b60006020828403121561200557600080fd5b5051919050565b60005b8381101561202757818101518382015260200161200f565b838111156110df5750506000910152565b6000825161204a81846020870161200c565b9190910192915050565b602081526000825180602084015261207381604085016020870161200c565b601f017fffffffffffffffffffffffffffffffffffffffffffffffffffffffffffffffe016919091016040019291505056fea26469706673582212201b9f910874aa5d59d1c87c27499fb617a13474e789963a2f1048d1ac6ae1ae6564736f6c634300080f0033",
  "devdoc": {
    "details": "Rewards contract for Prime Pools is based on the convex contract",
    "kind": "dev",
    "methods": {
      "addExtraReward(address)": {
        "details": "only `rewardManager` can add extra rewards",
        "params": {
          "_reward": "token address of the reward"
        }
      },
      "balanceOf(address)": {
        "params": {
          "account": "The address of the token holder"
        },
        "returns": {
          "_0": "The `account`'s balance"
        }
      },
      "clearExtraReward(uint256)": {
        "params": {
          "index": "index of the extra reward to clear"
        }
      },
      "clearExtraRewards()": {
        "details": "Only Prime multising has the ability to do this if you want to remove only one token, use `clearExtraReward`"
      },
      "donate(uint256)": {
        "params": {
          "_amount": "The amount of tokens to donate"
        }
      },
      "earned(address)": {
        "params": {
          "account": "The address of the token holder"
        },
        "returns": {
          "_0": "The `account`'s earned rewards"
        }
      },
      "getReward(address,bool)": {
        "params": {
          "_account": "The account to claim rewards for",
          "_claimExtras": "Whether or not the user wants to claim extra rewards"
        }
      },
      "lastTimeRewardApplicable()": {
        "returns": {
          "_0": "The lower value of current block.timestamp or last time reward applicable"
        }
      },
      "queueNewRewards(uint256)": {
        "details": "Only the operator can queue new rewards",
        "params": {
          "_rewards": "The amount of tokens to queue"
        }
      },
      "rewardPerToken()": {
        "returns": {
          "_0": "The rewards per token staked"
        }
      },
      "stake(uint256)": {
        "params": {
          "_amount": "The amount of tokens user wants to stake"
        }
      },
      "stakeFor(address,uint256)": {
        "params": {
          "_amount": "The amount of tokens user wants to stake",
          "_for": "Who are we staking for"
        }
      },
      "withdraw(uint256,bool,bool)": {
        "params": {
          "_amount": "The amount of tokens that the user wants to withdraw",
          "_claim": "Whether or not the user wants to claim their rewards",
          "_unwrap": "Whether or not the user wants to unwrap to BLP tokens"
        }
      },
      "withdrawAll(bool)": {
        "params": {
          "_claim": "Whether or not the user wants to claim their rewards"
        }
      },
      "withdrawAllAndUnwrap(bool)": {
        "params": {
          "_claim": "Whether or not the user wants to claim their rewards"
        }
      }
    },
    "title": "Base Reward Pool contract",
    "version": 1
  },
  "userdoc": {
    "kind": "user",
    "methods": {
      "addExtraReward(address)": {
        "notice": "Adds an extra reward"
      },
      "balanceOf(address)": {
        "notice": "Get the specified address' balance"
      },
      "clearExtraReward(uint256)": {
        "notice": "Clears extra reward by index"
      },
      "clearExtraRewards()": {
        "notice": "Clears extra rewards"
      },
      "donate(uint256)": {
        "notice": "Donates reward token to this contract"
      },
      "earned(address)": {
        "notice": "Returns the `account`'s earned rewards"
      },
      "extraRewardsLength()": {
        "notice": "Returns number of extra rewards"
      },
      "getReward()": {
        "notice": "Claims Reward for signer"
      },
      "getReward(address,bool)": {
        "notice": "Claims Rewards for `_account`"
      },
      "lastTimeRewardApplicable()": {
        "notice": "Returns last time reward applicable"
      },
      "queueNewRewards(uint256)": {
        "notice": "Queue new rewards"
      },
      "rewardPerToken()": {
        "notice": "Returns rewards per token staked"
      },
      "stake(uint256)": {
        "notice": "Stakes `amount` tokens"
      },
      "stakeAll()": {
        "notice": "Stakes all BAL tokens"
      },
      "stakeFor(address,uint256)": {
        "notice": "Stakes `amount` tokens for `_for`"
      },
      "totalSupply()": {
        "notice": "Returns total supply"
      },
      "withdraw(uint256,bool,bool)": {
        "notice": "Withdraw `amount` tokens and possibly unwrap"
      },
      "withdrawAll(bool)": {
        "notice": "Withdraw all tokens"
      },
      "withdrawAllAndUnwrap(bool)": {
        "notice": "Withdraw all tokens and unwrap"
      }
    },
    "version": 1
  },
  "storageLayout": {
    "storage": [
      {
        "astId": 3370,
        "contract": "contracts/BaseRewardPool.sol:BaseRewardPool",
        "label": "pid",
        "offset": 0,
        "slot": "0",
        "type": "t_uint256"
      },
      {
        "astId": 3372,
        "contract": "contracts/BaseRewardPool.sol:BaseRewardPool",
        "label": "periodFinish",
        "offset": 0,
        "slot": "1",
        "type": "t_uint256"
      },
      {
        "astId": 3374,
        "contract": "contracts/BaseRewardPool.sol:BaseRewardPool",
        "label": "rewardRate",
        "offset": 0,
        "slot": "2",
        "type": "t_uint256"
      },
      {
        "astId": 3376,
        "contract": "contracts/BaseRewardPool.sol:BaseRewardPool",
        "label": "lastUpdateTime",
        "offset": 0,
        "slot": "3",
        "type": "t_uint256"
      },
      {
        "astId": 3378,
        "contract": "contracts/BaseRewardPool.sol:BaseRewardPool",
        "label": "rewardPerTokenStored",
        "offset": 0,
        "slot": "4",
        "type": "t_uint256"
      },
      {
        "astId": 3380,
        "contract": "contracts/BaseRewardPool.sol:BaseRewardPool",
        "label": "queuedRewards",
        "offset": 0,
        "slot": "5",
        "type": "t_uint256"
      },
      {
        "astId": 3382,
        "contract": "contracts/BaseRewardPool.sol:BaseRewardPool",
        "label": "currentRewards",
        "offset": 0,
        "slot": "6",
        "type": "t_uint256"
      },
      {
        "astId": 3384,
        "contract": "contracts/BaseRewardPool.sol:BaseRewardPool",
        "label": "historicalRewards",
        "offset": 0,
        "slot": "7",
        "type": "t_uint256"
      },
      {
        "astId": 3386,
        "contract": "contracts/BaseRewardPool.sol:BaseRewardPool",
        "label": "_totalSupply",
        "offset": 0,
        "slot": "8",
        "type": "t_uint256"
      },
      {
        "astId": 3390,
        "contract": "contracts/BaseRewardPool.sol:BaseRewardPool",
        "label": "userRewardPerTokenPaid",
        "offset": 0,
        "slot": "9",
        "type": "t_mapping(t_address,t_uint256)"
      },
      {
        "astId": 3394,
        "contract": "contracts/BaseRewardPool.sol:BaseRewardPool",
        "label": "rewards",
        "offset": 0,
        "slot": "10",
        "type": "t_mapping(t_address,t_uint256)"
      },
      {
        "astId": 3398,
        "contract": "contracts/BaseRewardPool.sol:BaseRewardPool",
        "label": "_balances",
        "offset": 0,
        "slot": "11",
        "type": "t_mapping(t_address,t_uint256)"
      },
      {
        "astId": 3401,
        "contract": "contracts/BaseRewardPool.sol:BaseRewardPool",
        "label": "extraRewards",
        "offset": 0,
        "slot": "12",
        "type": "t_array(t_address)dyn_storage"
      }
    ],
    "types": {
      "t_address": {
        "encoding": "inplace",
        "label": "address",
        "numberOfBytes": "20"
      },
      "t_array(t_address)dyn_storage": {
        "base": "t_address",
        "encoding": "dynamic_array",
        "label": "address[]",
        "numberOfBytes": "32"
      },
      "t_mapping(t_address,t_uint256)": {
        "encoding": "mapping",
        "key": "t_address",
        "label": "mapping(address => uint256)",
        "numberOfBytes": "32",
        "value": "t_uint256"
      },
      "t_uint256": {
        "encoding": "inplace",
        "label": "uint256",
        "numberOfBytes": "32"
      }
    }
  }
}