{
  "address": "0x55eEFF0eEc6884aB3Ac1F3C454501dd9a8f2Df85",
  "abi": [
    {
      "inputs": [
        {
          "internalType": "address",
          "name": "_operator",
          "type": "address"
        },
        {
          "internalType": "address",
          "name": "_bal",
          "type": "address"
        }
      ],
      "stateMutability": "nonpayable",
      "type": "constructor"
    },
    {
      "inputs": [],
      "name": "Unauthorized",
      "type": "error"
    },
    {
      "anonymous": false,
      "inputs": [
        {
          "indexed": false,
          "internalType": "address",
          "name": "poolAddress",
          "type": "address"
        }
      ],
      "name": "BaseRewardPoolCreated",
      "type": "event"
    },
    {
      "anonymous": false,
      "inputs": [
        {
          "indexed": false,
          "internalType": "address",
          "name": "reward",
          "type": "address"
        },
        {
          "indexed": false,
          "internalType": "uint256",
          "name": "pid",
          "type": "uint256"
        }
      ],
      "name": "ExtraRewardAdded",
      "type": "event"
    },
    {
      "anonymous": false,
      "inputs": [
        {
          "indexed": false,
          "internalType": "address",
          "name": "reward",
          "type": "address"
        },
        {
          "indexed": false,
          "internalType": "uint256",
          "name": "pid",
          "type": "uint256"
        }
      ],
      "name": "ExtraRewardRemoved",
      "type": "event"
    },
    {
      "anonymous": false,
      "inputs": [
        {
          "indexed": false,
          "internalType": "address",
          "name": "stash",
          "type": "address"
        }
      ],
      "name": "StashAccessGranted",
      "type": "event"
    },
    {
      "anonymous": false,
      "inputs": [
        {
          "indexed": false,
          "internalType": "address",
          "name": "baseRewardPool",
          "type": "address"
        },
        {
          "indexed": false,
          "internalType": "address",
          "name": "poolAddress",
          "type": "address"
        },
        {
          "indexed": false,
          "internalType": "address",
          "name": "token",
          "type": "address"
        }
      ],
      "name": "VirtualBalanceRewardPoolCreated",
      "type": "event"
    },
    {
      "inputs": [
        {
          "internalType": "address",
          "name": "_reward",
          "type": "address"
        }
      ],
      "name": "activeRewardCount",
      "outputs": [
        {
          "internalType": "uint256",
          "name": "",
          "type": "uint256"
        }
      ],
      "stateMutability": "view",
      "type": "function"
    },
    {
      "inputs": [
        {
          "internalType": "address",
          "name": "_reward",
          "type": "address"
        },
        {
          "internalType": "uint256",
          "name": "_pid",
          "type": "uint256"
        }
      ],
      "name": "addActiveReward",
      "outputs": [
        {
          "internalType": "bool",
          "name": "",
          "type": "bool"
        }
      ],
      "stateMutability": "nonpayable",
      "type": "function"
    },
    {
      "inputs": [],
      "name": "bal",
      "outputs": [
        {
          "internalType": "address",
          "name": "",
          "type": "address"
        }
      ],
      "stateMutability": "view",
      "type": "function"
    },
    {
      "inputs": [
        {
          "internalType": "uint256",
          "name": "_pid",
          "type": "uint256"
        },
        {
          "internalType": "address",
          "name": "_depositToken",
          "type": "address"
        }
      ],
      "name": "createBalRewards",
      "outputs": [
        {
          "internalType": "address",
          "name": "",
          "type": "address"
        }
      ],
      "stateMutability": "nonpayable",
      "type": "function"
    },
    {
      "inputs": [
        {
          "internalType": "address",
          "name": "_token",
          "type": "address"
        },
        {
          "internalType": "address",
          "name": "_mainRewards",
          "type": "address"
        },
        {
          "internalType": "address",
          "name": "_rewardPoolOwner",
          "type": "address"
        }
      ],
      "name": "createTokenRewards",
      "outputs": [
        {
          "internalType": "address",
          "name": "",
          "type": "address"
        }
      ],
      "stateMutability": "nonpayable",
      "type": "function"
    },
    {
      "inputs": [
        {
          "internalType": "address",
          "name": "_stash",
          "type": "address"
        }
      ],
      "name": "grantRewardStashAccess",
      "outputs": [],
      "stateMutability": "nonpayable",
      "type": "function"
    },
    {
      "inputs": [],
      "name": "operator",
      "outputs": [
        {
          "internalType": "address",
          "name": "",
          "type": "address"
        }
      ],
      "stateMutability": "view",
      "type": "function"
    },
    {
      "inputs": [
        {
          "internalType": "address",
          "name": "_reward",
          "type": "address"
        },
        {
          "internalType": "uint256",
          "name": "_pid",
          "type": "uint256"
        }
      ],
      "name": "removeActiveReward",
      "outputs": [
        {
          "internalType": "bool",
          "name": "",
          "type": "bool"
        }
      ],
      "stateMutability": "nonpayable",
      "type": "function"
    },
    {
      "inputs": [
        {
          "internalType": "address",
          "name": "",
          "type": "address"
        },
        {
          "internalType": "uint256",
          "name": "",
          "type": "uint256"
        }
      ],
      "name": "rewardActiveList",
      "outputs": [
        {
          "internalType": "uint256",
          "name": "",
          "type": "uint256"
        }
      ],
      "stateMutability": "view",
      "type": "function"
    }
  ],
  "transactionHash": "0x03ecb961980ced3adfe9220d59336a8a07054cba192f37e49ce0a32258d38dda",
  "args": [
    "0x190Bfc8FC0BC0C734c34383eAD884D00E00E91c0",
    "0xba100000625a3754423978a60c9317c58a424e3d"
  ],
  "solcInputHash": "7e57f81a6be83430d315781a62c52ee2",
  "bytecode": "0x60c060405234801561001057600080fd5b5060405161430638038061430683398101604081905261002f91610062565b6001600160a01b0391821660a05216608052610095565b80516001600160a01b038116811461005d57600080fd5b919050565b6000806040838503121561007557600080fd5b61007e83610046565b915061008c60208401610046565b90509250929050565b60805160a0516142306100d66000396000818161016801528181610202015281816103500152610522015260008181610141015261025f01526142306000f3fe608060405234801561001057600080fd5b50600436106100a35760003560e01c8063570ca735116100765780638d9622d91161005b5780638d9622d91461019f578063b7f927b1146101b2578063ef9126ad146101d557600080fd5b8063570ca735146101635780635e4e27db1461018a57600080fd5b80630d5843f7146100a857806315914c99146100f15780632f1b3271146101295780633d79d1c81461013c575b600080fd5b6100de6100b6366004610a70565b73ffffffffffffffffffffffffffffffffffffffff1660009081526001602052604090205490565b6040519081526020015b60405180910390f35b6101046100ff366004610a92565b6101e8565b60405173ffffffffffffffffffffffffffffffffffffffff90911681526020016100e8565b610104610137366004610abe565b610336565b6101047f000000000000000000000000000000000000000000000000000000000000000081565b6101047f000000000000000000000000000000000000000000000000000000000000000081565b61019d610198366004610a70565b61050a565b005b6100de6101ad366004610b01565b6105fc565b6101c56101c0366004610b01565b61062d565b60405190151581526020016100e8565b6101c56101e3366004610b01565b6107b6565b60003373ffffffffffffffffffffffffffffffffffffffff7f00000000000000000000000000000000000000000000000000000000000000001614610259576040517f82b4290000000000000000000000000000000000000000000000000000000000815260040160405180910390fd5b600083837f0000000000000000000000000000000000000000000000000000000000000000333060405161028c90610a2d565b94855273ffffffffffffffffffffffffffffffffffffffff938416602086015291831660408501528216606084015216608082015260a001604051809103906000f0801580156102e0573d6000803e3d6000fd5b5060405173ffffffffffffffffffffffffffffffffffffffff821681529091507f5bd44d764a58e71a25d2b30b54bed1ee46db8a4e6cae6b612922e01753648cd89060200160405180910390a190505b92915050565b60003373ffffffffffffffffffffffffffffffffffffffff7f0000000000000000000000000000000000000000000000000000000000000000161480159061038e57503360009081526020819052604090205460ff16155b156103c5576040517f82b4290000000000000000000000000000000000000000000000000000000000815260040160405180910390fd5b60008385846040516103d690610a3a565b73ffffffffffffffffffffffffffffffffffffffff938416815291831660208301529091166040820152606001604051809103906000f08015801561041f573d6000803e3d6000fd5b506040805173ffffffffffffffffffffffffffffffffffffffff8781168252838116602083015288168183015290519192507fe87c21edfbea3bd3b4baad66630e4c80d5a21832ae8d463ed86968848c306965919081900360600190a16040517f5e43c47b00000000000000000000000000000000000000000000000000000000815273ffffffffffffffffffffffffffffffffffffffff8083166004830152829190861690635e43c47b90602401600060405180830381600087803b1580156104e857600080fd5b505af11580156104fc573d6000803e3d6000fd5b509298975050505050505050565b3373ffffffffffffffffffffffffffffffffffffffff7f00000000000000000000000000000000000000000000000000000000000000001614610579576040517f82b4290000000000000000000000000000000000000000000000000000000000815260040160405180910390fd5b73ffffffffffffffffffffffffffffffffffffffff81166000818152602081815260409182902080547fffffffffffffffffffffffffffffffffffffffffffffffffffffffffffffff0016600117905590519182527fcf1795ce10e0d72fcbcf5bbb54ccf220665e482448f7eb2d098c312508f20f1e910160405180910390a150565b6001602052816000526040600020818154811061061857600080fd5b90600052602060002001600091509150505481565b3360009081526020819052604081205460ff16610676576040517f82b4290000000000000000000000000000000000000000000000000000000000815260040160405180910390fd5b6000610683836001610b5a565b73ffffffffffffffffffffffffffffffffffffffff85166000908152600160209081526040808320805482518185028101850190935280835294955092939092918301828280156106f357602002820191906000526020600020905b8154815260200190600101908083116106df575b5050505050905060005b815181101561073a578282828151811061071957610719610b72565b6020026020010151036107325760019350505050610330565b6001016106fd565b5073ffffffffffffffffffffffffffffffffffffffff8516600081815260016020818152604080842080549384018155845292819020909101859055815192835282018690527fccaa4228edc196fe326dc22a0e85f8229bb3ade47ee6aaa15ce84cd8f655103c910160405180910390a1506001949350505050565b3360009081526020819052604081205460ff166107ff576040517f82b4290000000000000000000000000000000000000000000000000000000000815260040160405180910390fd5b600061080c836001610b5a565b73ffffffffffffffffffffffffffffffffffffffff851660009081526001602090815260408083208054825181850281018501909352808352949550929390929183018282801561087c57602002820191906000526020600020905b815481526020019060010190808311610868575b5050505050905060005b8151811015610a2157828282815181106108a2576108a2610b72565b602002602001015103610a1957600182516108bd9190610ba1565b81146109705773ffffffffffffffffffffffffffffffffffffffff86166000908152600160208190526040909120835190916108f891610ba1565b8154811061090857610908610b72565b9060005260206000200154600160008873ffffffffffffffffffffffffffffffffffffffff1673ffffffffffffffffffffffffffffffffffffffff168152602001908152602001600020828154811061096357610963610b72565b6000918252602090912001555b73ffffffffffffffffffffffffffffffffffffffff861660009081526001602052604090208054806109a4576109a4610bb8565b600190038181906000526020600020016000905590557fbc9ef12cf81dc2bfe808c00e39a5cf69b38ff4e9e7f8bd964be6d463254a24668686604051610a0c92919073ffffffffffffffffffffffffffffffffffffffff929092168252602082015260400190565b60405180910390a1610a21565b600101610886565b50600195945050505050565b61223d80610be883390190565b6113d680612e2583390190565b803573ffffffffffffffffffffffffffffffffffffffff81168114610a6b57600080fd5b919050565b600060208284031215610a8257600080fd5b610a8b82610a47565b9392505050565b60008060408385031215610aa557600080fd5b82359150610ab560208401610a47565b90509250929050565b600080600060608486031215610ad357600080fd5b610adc84610a47565b9250610aea60208501610a47565b9150610af860408501610a47565b90509250925092565b60008060408385031215610b1457600080fd5b610b1d83610a47565b946020939093013593505050565b7f4e487b7100000000000000000000000000000000000000000000000000000000600052601160045260246000fd5b60008219821115610b6d57610b6d610b2b565b500190565b7f4e487b7100000000000000000000000000000000000000000000000000000000600052603260045260246000fd5b600082821015610bb357610bb3610b2b565b500390565b7f4e487b7100000000000000000000000000000000000000000000000000000000600052603160045260246000fdfe6101006040523480156200001257600080fd5b506040516200223d3803806200223d83398101604081905262000035916200007b565b6000949094556001600160a01b0392831660a052908216608052811660c0521660e052620000e2565b80516001600160a01b03811681146200007657600080fd5b919050565b600080600080600060a086880312156200009457600080fd5b85519450620000a6602087016200005e565b9350620000b6604087016200005e565b9250620000c6606087016200005e565b9150620000d6608087016200005e565b90509295509295909350565b60805160a05160c05160e0516120db62000162600039600081816102b50152610d0001526000818161038c015281816105bc015281816106f201528181610bf001526112f001526000818161042b01528181610ac901528181611129015261139b01526000818161050101528181610f3601526114f901526120db6000f3fe608060405234801561001057600080fd5b506004361061025b5760003560e01c80637050ccd911610145578063a694fc3a116100bd578063df136d651161008c578063f106845411610071578063f1068454146104e0578063f14faf6f146104e9578063f7c618c1146104fc57600080fd5b8063df136d65146104ce578063ebe2b12b146104d757600080fd5b8063a694fc3a146104a2578063c8f33c91146104b5578063cd3daf9d146104be578063d55a23f4146104c657600080fd5b806380faa57d116101145780638dcb4061116100f95780638dcb40611461047e578063901a7d531461048657806392930b451461048f57600080fd5b806380faa57d146104565780638b8763471461045e57600080fd5b80637050ccd9146103dd57806370a08231146103f057806372f702f3146104265780637b0a47ee1461044d57600080fd5b80632ee40908116101d85780634cfe2f4a116101a7578063590a41f51161018c578063590a41f5146103ae5780635e43c47b146103c157806363d38c3b146103d457600080fd5b80634cfe2f4a1461037e578063570ca7351461038757600080fd5b80632ee409081461033d5780633d18b9121461035057806340c354461461035857806349f039a21461036b57600080fd5b806318160ddd1161022f5780631c1c6fe5116102145780631c1c6fe51461030e57806321ef0fae14610321578063262d3d6d1461033457600080fd5b806318160ddd146102fc5780631be052891461030457600080fd5b80628cc262146102605780630569d388146102865780630700037d146102905780630f4ef8a6146102b0575b600080fd5b61027361026e366004611d7d565b610523565b6040519081526020015b60405180910390f35b61028e6105ba565b005b61027361029e366004611d7d565b600a6020526000908152604090205481565b6102d77f000000000000000000000000000000000000000000000000000000000000000081565b60405173ffffffffffffffffffffffffffffffffffffffff909116815260200161027d565b600854610273565b61027362093a8081565b61028e61031c366004611da8565b6106d2565b61028e61032f366004611dc5565b6106f0565b61027360075481565b61028e61034b366004611dde565b610967565b61028e610b8e565b6102d7610366366004611dc5565b610b9b565b61028e610379366004611da8565b610bd2565b61027361033e81565b6102d77f000000000000000000000000000000000000000000000000000000000000000081565b61028e6103bc366004611dc5565b610bee565b61028e6103cf366004611d7d565b610cfe565b61027360055481565b61028e6103eb366004611e0a565b610e68565b6102736103fe366004611d7d565b73ffffffffffffffffffffffffffffffffffffffff166000908152600b602052604090205490565b6102d77f000000000000000000000000000000000000000000000000000000000000000081565b61027360025481565b6102736110e5565b61027361046c366004611d7d565b60096020526000908152604090205481565b61028e6110f8565b61027360065481565b61028e61049d366004611e43565b6111b4565b61028e6104b0366004611dc5565b611465565b61027360035481565b61027361146f565b600c54610273565b61027360045481565b61027360015481565b61027360005481565b61028e6104f7366004611dc5565b6114df565b6102d77f000000000000000000000000000000000000000000000000000000000000000081565b73ffffffffffffffffffffffffffffffffffffffff81166000908152600a60209081526040808320546009909252822054670de0b6b3a76400009061056661146f565b6105709190611eb4565b73ffffffffffffffffffffffffffffffffffffffff85166000908152600b60205260409020546105a09190611ecb565b6105aa9190611f08565b6105b49190611f43565b92915050565b7f000000000000000000000000000000000000000000000000000000000000000073ffffffffffffffffffffffffffffffffffffffff16638da5cb5b6040518163ffffffff1660e01b81526004016020604051808303816000875af1158015610627573d6000803e3d6000fd5b505050506040513d601f19601f8201168201806040525081019061064b9190611f5b565b3373ffffffffffffffffffffffffffffffffffffffff82161461069a576040517f82b4290000000000000000000000000000000000000000000000000000000000815260040160405180910390fd5b6106a6600c6000611d29565b6040517f1a53a10dfbef82dfcf34ce946c284b478164f6e7496a07fc0cbe69d01ff44f0990600090a150565b336000908152600b60205260408120546106ed9183906111b4565b50565b7f000000000000000000000000000000000000000000000000000000000000000073ffffffffffffffffffffffffffffffffffffffff16638da5cb5b6040518163ffffffff1660e01b81526004016020604051808303816000875af115801561075d573d6000803e3d6000fd5b505050506040513d601f19601f820116820180604052508101906107819190611f5b565b3373ffffffffffffffffffffffffffffffffffffffff8216146107d0576040517f82b4290000000000000000000000000000000000000000000000000000000000815260040160405180910390fd5b6000600c83815481106107e5576107e5611f78565b600091825260209091200154600c805473ffffffffffffffffffffffffffffffffffffffff90921692509061081c90600190611eb4565b8154811061082c5761082c611f78565b600091825260209091200154600c805473ffffffffffffffffffffffffffffffffffffffff909216918590811061086557610865611f78565b9060005260206000200160006101000a81548173ffffffffffffffffffffffffffffffffffffffff021916908373ffffffffffffffffffffffffffffffffffffffff160217905550600c8054806108be576108be611fa7565b60008281526020908190207fffffffffffffffffffffffffffffffffffffffffffffffffffffffffffffffff908301810180547fffffffffffffffffffffffff000000000000000000000000000000000000000016905590910190915560405173ffffffffffffffffffffffffffffffffffffffff831681527f34304d78213ed24f75e323bc823dc4883b456fbe135029e6ae3c1597e6c7d436910160405180910390a1505050565b8161097061146f565b60045561097b6110e5565b60035573ffffffffffffffffffffffffffffffffffffffff8116156109dc576109a381610523565b73ffffffffffffffffffffffffffffffffffffffff82166000908152600a60209081526040808320939093556004546009909152919020555b6001821015610a17576040517f2c5211c600000000000000000000000000000000000000000000000000000000815260040160405180910390fd5b610a218383611535565b81600854610a2f9190611f43565b60085573ffffffffffffffffffffffffffffffffffffffff83166000908152600b6020526040902054610a63908390611f43565b73ffffffffffffffffffffffffffffffffffffffff8481166000908152600b6020526040908190209290925590517f23b872dd000000000000000000000000000000000000000000000000000000008152336004820152306024820152604481018490527f0000000000000000000000000000000000000000000000000000000000000000909116906323b872dd906064016020604051808303816000875af1158015610b14573d6000803e3d6000fd5b505050506040513d601f19601f82011682018060405250810190610b389190611fd6565b508273ffffffffffffffffffffffffffffffffffffffff167f9e71bc8eea02a63969f509818f2dafb9254532904319f9dbda79b67bd34a5f3d83604051610b8191815260200190565b60405180910390a2505050565b610b99336001610e68565b565b600c8181548110610bab57600080fd5b60009182526020909120015473ffffffffffffffffffffffffffffffffffffffff16905081565b336000908152600b60205260409020546106ed908260016111b4565b7f00000000000000000000000000000000000000000000000000000000000000003373ffffffffffffffffffffffffffffffffffffffff821614610c5e576040517f82b4290000000000000000000000000000000000000000000000000000000000815260040160405180910390fd5b600554610c6b9083611f43565b91506001544210610c8857610c7f82611664565b60006005555050565b600062093a80600154610c9b9190611eb4565b610ca59042611eb4565b9050600081600254610cb79190611ecb565b9050600084610cc8836103e8611ecb565b610cd29190611f08565b905061033e811015610cf157610ce785611664565b6000600555610cf7565b60058590555b5050505050565b7f00000000000000000000000000000000000000000000000000000000000000003373ffffffffffffffffffffffffffffffffffffffff821614610d6e576040517f82b4290000000000000000000000000000000000000000000000000000000000815260040160405180910390fd5b73ffffffffffffffffffffffffffffffffffffffff8216610df0576040517f08c379a000000000000000000000000000000000000000000000000000000000815260206004820152600f60248201527f217265776172642073657474696e67000000000000000000000000000000000060448201526064015b60405180910390fd5b50600c80546001810182556000919091527fdf6966c971051c3d54ec59162606531493a51404a002842f56009d7e5cf4a8c70180547fffffffffffffffffffffffff00000000000000000000000000000000000000001673ffffffffffffffffffffffffffffffffffffffff92909216919091179055565b81610e7161146f565b600455610e7c6110e5565b60035573ffffffffffffffffffffffffffffffffffffffff811615610edd57610ea481610523565b73ffffffffffffffffffffffffffffffffffffffff82166000908152600a60209081526040808320939093556004546009909152919020555b73ffffffffffffffffffffffffffffffffffffffff83166000908152600a60205260409020548015610fae5773ffffffffffffffffffffffffffffffffffffffff8085166000908152600a6020526040812055610f5d907f000000000000000000000000000000000000000000000000000000000000000016858361179f565b8373ffffffffffffffffffffffffffffffffffffffff167fe2403640ba68fed3a2f88b7557551d1993f84b99bb10ff833f0cf8db0c5e048682604051610fa591815260200190565b60405180910390a25b82156110df576000600c80548060200260200160405190810160405280929190818152602001828054801561101957602002820191906000526020600020905b815473ffffffffffffffffffffffffffffffffffffffff168152600190910190602001808311610fee575b5050505050905060005b81518110156110dc5781818151811061103e5761103e611f78565b60209081029190910101516040517fc00007b000000000000000000000000000000000000000000000000000000000815273ffffffffffffffffffffffffffffffffffffffff88811660048301529091169063c00007b090602401600060405180830381600087803b1580156110b357600080fd5b505af11580156110c7573d6000803e3d6000fd5b505050506110d58160010190565b9050611023565b50505b50505050565b60006110f342600154611878565b905090565b6040517f70a082310000000000000000000000000000000000000000000000000000000081523360048201526000907f000000000000000000000000000000000000000000000000000000000000000073ffffffffffffffffffffffffffffffffffffffff16906370a0823190602401602060405180830381865afa158015611185573d6000803e3d6000fd5b505050506040513d601f19601f820116820180604052508101906111a99190611ff3565b90506106ed81611465565b336111bd61146f565b6004556111c86110e5565b60035573ffffffffffffffffffffffffffffffffffffffff811615611229576111f081610523565b73ffffffffffffffffffffffffffffffffffffffff82166000908152600a60209081526040808320939093556004546009909152919020555b6001841015611264576040517f2c5211c600000000000000000000000000000000000000000000000000000000815260040160405180910390fd5b61126e3385611890565b8360085461127c9190611eb4565b600855336000908152600b602052604090205461129a908590611eb4565b336000908152600b60205260409020558115611366576000546040517f14cd70e40000000000000000000000000000000000000000000000000000000081526004810191909152602481018590523360448201527f000000000000000000000000000000000000000000000000000000000000000073ffffffffffffffffffffffffffffffffffffffff16906314cd70e490606401600060405180830381600087803b15801561134957600080fd5b505af115801561135d573d6000803e3d6000fd5b5050505061141f565b6040517fa9059cbb000000000000000000000000000000000000000000000000000000008152336004820152602481018590527f000000000000000000000000000000000000000000000000000000000000000073ffffffffffffffffffffffffffffffffffffffff169063a9059cbb906044016020604051808303816000875af11580156113f9573d6000803e3d6000fd5b505050506040513d601f19601f8201168201806040525081019061141d9190611fd6565b505b60405184815233907f7084f5476618d8e60b11ef0d7d3f06914655adb8793e28ff7f018d4c76d505d59060200160405180910390a282156110df576110df336001610e68565b6106ed3382610967565b60008061147b60085490565b90508060000361148d57505060045490565b8060025460035461149c6110e5565b6114a69190611eb4565b6114b09190611ecb565b6114c290670de0b6b3a7640000611ecb565b6114cc9190611f08565b6004546114d99190611f43565b91505090565b61152173ffffffffffffffffffffffffffffffffffffffff7f0000000000000000000000000000000000000000000000000000000000000000163330846119bf565b8060055461152f9190611f43565b60055550565b6000600c80548060200260200160405190810160405280929190818152602001828054801561159a57602002820191906000526020600020905b815473ffffffffffffffffffffffffffffffffffffffff16815260019091019060200180831161156f575b5050505050905060005b81518110156110df578181815181106115bf576115bf611f78565b60209081029190910101516040517fadc9772e00000000000000000000000000000000000000000000000000000000815273ffffffffffffffffffffffffffffffffffffffff8681166004830152602482018690529091169063adc9772e90604401600060405180830381600087803b15801561163b57600080fd5b505af115801561164f573d6000803e3d6000fd5b5050505061165d8160010190565b90506115a4565b600061166e61146f565b6004556116796110e5565b60035573ffffffffffffffffffffffffffffffffffffffff8116156116da576116a181610523565b73ffffffffffffffffffffffffffffffffffffffff82166000908152600a60209081526040808320939093556004546009909152919020555b816007546116e89190611f43565b60075560015442106117095761170162093a8083611f08565b60025561174c565b6000426001546117199190611eb4565b905060006002548261172b9190611ecb565b90506117378185611f43565b935061174662093a8085611f08565b60025550505b60068290554260038190556117659062093a8090611f43565b6001556040518281527fde88a922e0d3b88b24e9623efeb464919c6bf9f66857a65e2bfcf2ce87a9433d9060200160405180910390a15050565b60405173ffffffffffffffffffffffffffffffffffffffff83166024820152604481018290526118739084907fa9059cbb00000000000000000000000000000000000000000000000000000000906064015b604080517fffffffffffffffffffffffffffffffffffffffffffffffffffffffffffffffe08184030181529190526020810180517bffffffffffffffffffffffffffffffffffffffffffffffffffffffff167fffffffff0000000000000000000000000000000000000000000000000000000090931692909217909152611a1d565b505050565b60008183106118875781611889565b825b9392505050565b6000600c8054806020026020016040519081016040528092919081815260200182805480156118f557602002820191906000526020600020905b815473ffffffffffffffffffffffffffffffffffffffff1681526001909101906020018083116118ca575b5050505050905060005b81518110156110df5781818151811061191a5761191a611f78565b60209081029190910101516040517ff3fef3a300000000000000000000000000000000000000000000000000000000815273ffffffffffffffffffffffffffffffffffffffff8681166004830152602482018690529091169063f3fef3a390604401600060405180830381600087803b15801561199657600080fd5b505af11580156119aa573d6000803e3d6000fd5b505050506119b88160010190565b90506118ff565b60405173ffffffffffffffffffffffffffffffffffffffff808516602483015283166044820152606481018290526110df9085907f23b872dd00000000000000000000000000000000000000000000000000000000906084016117f1565b6000611a7f826040518060400160405280602081526020017f5361666545524332303a206c6f772d6c6576656c2063616c6c206661696c65648152508573ffffffffffffffffffffffffffffffffffffffff16611b299092919063ffffffff16565b8051909150156118735780806020019051810190611a9d9190611fd6565b611873576040517f08c379a000000000000000000000000000000000000000000000000000000000815260206004820152602a60248201527f5361666545524332303a204552433230206f7065726174696f6e20646964206e60448201527f6f742073756363656564000000000000000000000000000000000000000000006064820152608401610de7565b6060611b388484600085611b40565b949350505050565b606082471015611bd2576040517f08c379a000000000000000000000000000000000000000000000000000000000815260206004820152602660248201527f416464726573733a20696e73756666696369656e742062616c616e636520666f60448201527f722063616c6c00000000000000000000000000000000000000000000000000006064820152608401610de7565b73ffffffffffffffffffffffffffffffffffffffff85163b611c50576040517f08c379a000000000000000000000000000000000000000000000000000000000815260206004820152601d60248201527f416464726573733a2063616c6c20746f206e6f6e2d636f6e74726163740000006044820152606401610de7565b6000808673ffffffffffffffffffffffffffffffffffffffff168587604051611c799190612038565b60006040518083038185875af1925050503d8060008114611cb6576040519150601f19603f3d011682016040523d82523d6000602084013e611cbb565b606091505b5091509150611ccb828286611cd6565b979650505050505050565b60608315611ce5575081611889565b825115611cf55782518084602001fd5b816040517f08c379a0000000000000000000000000000000000000000000000000000000008152600401610de79190612054565b50805460008255906000526020600020908101906106ed91905b80821115611d575760008155600101611d43565b5090565b73ffffffffffffffffffffffffffffffffffffffff811681146106ed57600080fd5b600060208284031215611d8f57600080fd5b813561188981611d5b565b80151581146106ed57600080fd5b600060208284031215611dba57600080fd5b813561188981611d9a565b600060208284031215611dd757600080fd5b5035919050565b60008060408385031215611df157600080fd5b8235611dfc81611d5b565b946020939093013593505050565b60008060408385031215611e1d57600080fd5b8235611e2881611d5b565b91506020830135611e3881611d9a565b809150509250929050565b600080600060608486031215611e5857600080fd5b833592506020840135611e6a81611d9a565b91506040840135611e7a81611d9a565b809150509250925092565b7f4e487b7100000000000000000000000000000000000000000000000000000000600052601160045260246000fd5b600082821015611ec657611ec6611e85565b500390565b6000817fffffffffffffffffffffffffffffffffffffffffffffffffffffffffffffffff0483118215151615611f0357611f03611e85565b500290565b600082611f3e577f4e487b7100000000000000000000000000000000000000000000000000000000600052601260045260246000fd5b500490565b60008219821115611f5657611f56611e85565b500190565b600060208284031215611f6d57600080fd5b815161188981611d5b565b7f4e487b7100000000000000000000000000000000000000000000000000000000600052603260045260246000fd5b7f4e487b7100000000000000000000000000000000000000000000000000000000600052603160045260246000fd5b600060208284031215611fe857600080fd5b815161188981611d9a565b60006020828403121561200557600080fd5b5051919050565b60005b8381101561202757818101518382015260200161200f565b838111156110df5750506000910152565b6000825161204a81846020870161200c565b9190910192915050565b602081526000825180602084015261207381604085016020870161200c565b601f017fffffffffffffffffffffffffffffffffffffffffffffffffffffffffffffffe016919091016040019291505056fea26469706673582212201b9f910874aa5d59d1c87c27499fb617a13474e789963a2f1048d1ac6ae1ae6564736f6c634300080f003360e060405234801561001057600080fd5b50604051620013d6380380620013d68339810160408190526100319161006a565b6001600160a01b0392831660805290821660a0521660c0526100ad565b80516001600160a01b038116811461006557600080fd5b919050565b60008060006060848603121561007f57600080fd5b6100888461004e565b92506100966020850161004e565b91506100a46040850161004e565b90509250925092565b60805160a05160c0516112c86200010e6000396000818161026c01526104c001526000818161036b01528181610866015261096301526000818161020d0152818161040b015281816105fd015281816107050152610a2c01526112c86000f3fe608060405234801561001057600080fd5b50600436106101a25760003560e01c80637b0a47ee116100ee578063c8f33c9111610097578063ebe2b12b11610071578063ebe2b12b14610337578063f14faf6f14610340578063f3fef3a314610353578063f7c618c11461036657600080fd5b8063c8f33c911461031d578063cd3daf9d14610326578063df136d651461032e57600080fd5b8063901a7d53116100c8578063901a7d53146102ee578063adc9772e146102f7578063c00007b01461030a57600080fd5b80637b0a47ee146102bd57806380faa57d146102c65780638b876347146102ce57600080fd5b80633d18b91211610150578063590a41f51161012a578063590a41f51461028e57806363d38c3b146102a157806370a08231146102aa57600080fd5b80633d18b912146102545780634cfe2f4a1461025e578063570ca7351461026757600080fd5b80631be05289116101815780631be05289146101f5578063262d3d6d146101ff578063323a5e0b1461020857600080fd5b80628cc262146101a75780630700037d146101cd57806318160ddd146101ed575b600080fd5b6101ba6101b536600461108a565b61038d565b6040519081526020015b60405180910390f35b6101ba6101db36600461108a565b60086020526000908152604090205481565b6101ba610407565b6101ba62093a8081565b6101ba60065481565b61022f7f000000000000000000000000000000000000000000000000000000000000000081565b60405173ffffffffffffffffffffffffffffffffffffffff90911681526020016101c4565b61025c61049d565b005b6101ba61033e81565b61022f7f000000000000000000000000000000000000000000000000000000000000000081565b61025c61029c3660046110a5565b6104a8565b6101ba60045481565b6101ba6102b836600461108a565b6105b5565b6101ba60015481565b6101ba61066a565b6101ba6102dc36600461108a565b60076020526000908152604090205481565b6101ba60055481565b61025c6103053660046110be565b610678565b61025c61031836600461108a565b6107b1565b6101ba60025481565b6101ba6108da565b6101ba60035481565b6101ba60005481565b61025c61034e3660046110a5565b610949565b61025c6103613660046110be565b61099f565b61022f7f000000000000000000000000000000000000000000000000000000000000000081565b73ffffffffffffffffffffffffffffffffffffffff81166000908152600860209081526040808320546007909252822054670de0b6b3a7640000906103d06108da565b6103da9190611117565b6103e3856105b5565b6103ed919061112e565b6103f7919061116b565b61040191906111a6565b92915050565b60007f000000000000000000000000000000000000000000000000000000000000000073ffffffffffffffffffffffffffffffffffffffff166318160ddd6040518163ffffffff1660e01b8152600401602060405180830381865afa158015610474573d6000803e3d6000fd5b505050506040513d601f19601f8201168201806040525081019061049891906111be565b905090565b6104a6336107b1565b565b3373ffffffffffffffffffffffffffffffffffffffff7f00000000000000000000000000000000000000000000000000000000000000001614610517576040517f82b4290000000000000000000000000000000000000000000000000000000000815260040160405180910390fd5b60045461052490826111a6565b905060005442106105405761053881610acb565b506000600455565b600062093a806000546105539190611117565b61055d9042611117565b905060008160015461056f919061112e565b9050600083610580836103e861112e565b61058a919061116b565b905061033e8110156105a95761059f84610acb565b60006004556105af565b60048490555b50505050565b6040517f70a0823100000000000000000000000000000000000000000000000000000000815273ffffffffffffffffffffffffffffffffffffffff82811660048301526000917f0000000000000000000000000000000000000000000000000000000000000000909116906370a0823190602401602060405180830381865afa158015610646573d6000803e3d6000fd5b505050506040513d601f19601f8201168201806040525081019061040191906111be565b600061049842600054610c06565b816106816108da565b60035561068c61066a565b60025573ffffffffffffffffffffffffffffffffffffffff8116156106ed576106b48161038d565b73ffffffffffffffffffffffffffffffffffffffff82166000908152600860209081526040808320939093556003546007909152919020555b3373ffffffffffffffffffffffffffffffffffffffff7f0000000000000000000000000000000000000000000000000000000000000000161461075c576040517f82b4290000000000000000000000000000000000000000000000000000000000815260040160405180910390fd5b8273ffffffffffffffffffffffffffffffffffffffff167f9e71bc8eea02a63969f509818f2dafb9254532904319f9dbda79b67bd34a5f3d836040516107a491815260200190565b60405180910390a2505050565b806107ba6108da565b6003556107c561066a565b60025573ffffffffffffffffffffffffffffffffffffffff811615610826576107ed8161038d565b73ffffffffffffffffffffffffffffffffffffffff82166000908152600860209081526040808320939093556003546007909152919020555b60006108318361038d565b905080156108d55773ffffffffffffffffffffffffffffffffffffffff80841660009081526008602052604081205561088d907f0000000000000000000000000000000000000000000000000000000000000000168483610c1e565b8273ffffffffffffffffffffffffffffffffffffffff167fe2403640ba68fed3a2f88b7557551d1993f84b99bb10ff833f0cf8db0c5e0486826040516107a491815260200190565b505050565b6000806108e5610407565b9050806000036108f757505060035490565b8060015460025461090661066a565b6109109190611117565b61091a919061112e565b61092c90670de0b6b3a764000061112e565b610936919061116b565b60035461094391906111a6565b91505090565b61098b73ffffffffffffffffffffffffffffffffffffffff7f000000000000000000000000000000000000000000000000000000000000000016333084610cf2565b8060045461099991906111a6565b60045550565b816109a86108da565b6003556109b361066a565b60025573ffffffffffffffffffffffffffffffffffffffff811615610a14576109db8161038d565b73ffffffffffffffffffffffffffffffffffffffff82166000908152600860209081526040808320939093556003546007909152919020555b3373ffffffffffffffffffffffffffffffffffffffff7f00000000000000000000000000000000000000000000000000000000000000001614610a83576040517f82b4290000000000000000000000000000000000000000000000000000000000815260040160405180910390fd5b8273ffffffffffffffffffffffffffffffffffffffff167f7084f5476618d8e60b11ef0d7d3f06914655adb8793e28ff7f018d4c76d505d5836040516107a491815260200190565b6000610ad56108da565b600355610ae061066a565b60025573ffffffffffffffffffffffffffffffffffffffff811615610b4157610b088161038d565b73ffffffffffffffffffffffffffffffffffffffff82166000908152600860209081526040808320939093556003546007909152919020555b81600654610b4f91906111a6565b6006556000544210610b7057610b6862093a808361116b565b600155610bb3565b600042600054610b809190611117565b9050600060015482610b92919061112e565b9050610b9e81856111a6565b9350610bad62093a808561116b565b60015550505b6005829055426002819055610bcc9062093a80906111a6565b6000556040518281527fde88a922e0d3b88b24e9623efeb464919c6bf9f66857a65e2bfcf2ce87a9433d9060200160405180910390a15050565b6000818310610c155781610c17565b825b9392505050565b60405173ffffffffffffffffffffffffffffffffffffffff83166024820152604481018290526108d59084907fa9059cbb00000000000000000000000000000000000000000000000000000000906064015b604080517fffffffffffffffffffffffffffffffffffffffffffffffffffffffffffffffe08184030181529190526020810180517bffffffffffffffffffffffffffffffffffffffffffffffffffffffff167fffffffff0000000000000000000000000000000000000000000000000000000090931692909217909152610d50565b60405173ffffffffffffffffffffffffffffffffffffffff808516602483015283166044820152606481018290526105af9085907f23b872dd0000000000000000000000000000000000000000000000000000000090608401610c70565b6000610db2826040518060400160405280602081526020017f5361666545524332303a206c6f772d6c6576656c2063616c6c206661696c65648152508573ffffffffffffffffffffffffffffffffffffffff16610e619092919063ffffffff16565b8051909150156108d55780806020019051810190610dd091906111d7565b6108d5576040517f08c379a000000000000000000000000000000000000000000000000000000000815260206004820152602a60248201527f5361666545524332303a204552433230206f7065726174696f6e20646964206e60448201527f6f7420737563636565640000000000000000000000000000000000000000000060648201526084015b60405180910390fd5b6060610e708484600085610e78565b949350505050565b606082471015610f0a576040517f08c379a000000000000000000000000000000000000000000000000000000000815260206004820152602660248201527f416464726573733a20696e73756666696369656e742062616c616e636520666f60448201527f722063616c6c00000000000000000000000000000000000000000000000000006064820152608401610e58565b73ffffffffffffffffffffffffffffffffffffffff85163b610f88576040517f08c379a000000000000000000000000000000000000000000000000000000000815260206004820152601d60248201527f416464726573733a2063616c6c20746f206e6f6e2d636f6e74726163740000006044820152606401610e58565b6000808673ffffffffffffffffffffffffffffffffffffffff168587604051610fb19190611225565b60006040518083038185875af1925050503d8060008114610fee576040519150601f19603f3d011682016040523d82523d6000602084013e610ff3565b606091505b509150915061100382828661100e565b979650505050505050565b6060831561101d575081610c17565b82511561102d5782518084602001fd5b816040517f08c379a0000000000000000000000000000000000000000000000000000000008152600401610e589190611241565b803573ffffffffffffffffffffffffffffffffffffffff8116811461108557600080fd5b919050565b60006020828403121561109c57600080fd5b610c1782611061565b6000602082840312156110b757600080fd5b5035919050565b600080604083850312156110d157600080fd5b6110da83611061565b946020939093013593505050565b7f4e487b7100000000000000000000000000000000000000000000000000000000600052601160045260246000fd5b600082821015611129576111296110e8565b500390565b6000817fffffffffffffffffffffffffffffffffffffffffffffffffffffffffffffffff0483118215151615611166576111666110e8565b500290565b6000826111a1577f4e487b7100000000000000000000000000000000000000000000000000000000600052601260045260246000fd5b500490565b600082198211156111b9576111b96110e8565b500190565b6000602082840312156111d057600080fd5b5051919050565b6000602082840312156111e957600080fd5b81518015158114610c1757600080fd5b60005b838110156112145781810151838201526020016111fc565b838111156105af5750506000910152565b600082516112378184602087016111f9565b9190910192915050565b60208152600082518060208401526112608160408501602087016111f9565b601f017fffffffffffffffffffffffffffffffffffffffffffffffffffffffffffffffe016919091016040019291505056fea264697066735822122012aa2dbef1c1a55d385e960f535c9cd926414d31df78c440684643013336c85464736f6c634300080f0033a26469706673582212202e630ff46575264224f70701db6b9f58c99218741aaace5793baee20503f16ba64736f6c634300080f0033",
  "devdoc": {
    "kind": "dev",
    "methods": {
      "activeRewardCount(address)": {
        "returns": {
          "_0": "uint256 number of active rewards"
        }
      },
      "addActiveReward(address,uint256)": {
        "returns": {
          "_0": "true on success"
        }
      },
      "createBalRewards(uint256,address)": {
        "params": {
          "_depositToken": "address of the token",
          "_pid": "The pid of the pool"
        }
      },
      "createTokenRewards(address,address,address)": {
        "details": "used for extra incentive tokens(ex. snx) as well as vebal fees",
        "params": {
          "_mainRewards": "address of the main reward pool contract",
          "_rewardPoolOwner": "address of the reward pool owner",
          "_token": "address of the token"
        },
        "returns": {
          "_0": "address of the new reward pool"
        }
      },
      "grantRewardStashAccess(address)": {
        "details": "Stash contracts need access to create new Virtual balance pools for extra gauge incentives(ex. snx)"
      },
      "removeActiveReward(address,uint256)": {
        "params": {
          "_pid": "The pid of the pool",
          "_reward": "The address of the reward contract"
        },
        "returns": {
          "_0": "true on success"
        }
      }
    },
    "title": "RewardFactory contract",
    "version": 1
  },
  "userdoc": {
    "kind": "user",
    "methods": {
      "activeRewardCount(address)": {
        "notice": "Get active rewards count"
      },
      "addActiveReward(address,uint256)": {
        "notice": "Adds a new reward to the active list"
      },
      "createBalRewards(uint256,address)": {
        "notice": "Creates a new Reward pool"
      },
      "createTokenRewards(address,address,address)": {
        "notice": "Create a virtual balance reward pool that mimicks the balance of a pool's main reward contract"
      },
      "grantRewardStashAccess(address)": {
        "notice": "Grants rewardAccess to stash"
      },
      "removeActiveReward(address,uint256)": {
        "notice": "Removes active reward"
      }
    },
    "version": 1
  },
  "storageLayout": {
    "storage": [
      {
        "astId": 7614,
        "contract": "contracts/factories/RewardFactory.sol:RewardFactory",
        "label": "rewardAccess",
        "offset": 0,
        "slot": "0",
        "type": "t_mapping(t_address,t_bool)"
      },
      {
        "astId": 7619,
        "contract": "contracts/factories/RewardFactory.sol:RewardFactory",
        "label": "rewardActiveList",
        "offset": 0,
        "slot": "1",
        "type": "t_mapping(t_address,t_array(t_uint256)dyn_storage)"
      }
    ],
    "types": {
      "t_address": {
        "encoding": "inplace",
        "label": "address",
        "numberOfBytes": "20"
      },
      "t_array(t_uint256)dyn_storage": {
        "base": "t_uint256",
        "encoding": "dynamic_array",
        "label": "uint256[]",
        "numberOfBytes": "32"
      },
      "t_bool": {
        "encoding": "inplace",
        "label": "bool",
        "numberOfBytes": "1"
      },
      "t_mapping(t_address,t_array(t_uint256)dyn_storage)": {
        "encoding": "mapping",
        "key": "t_address",
        "label": "mapping(address => uint256[])",
        "numberOfBytes": "32",
        "value": "t_array(t_uint256)dyn_storage"
      },
      "t_mapping(t_address,t_bool)": {
        "encoding": "mapping",
        "key": "t_address",
        "label": "mapping(address => bool)",
        "numberOfBytes": "32",
        "value": "t_bool"
      },
      "t_uint256": {
        "encoding": "inplace",
        "label": "uint256",
        "numberOfBytes": "32"
      }
    }
  }
}