{
  "address": "0xE5aE3C88c0113E24D097772AcA35b1b31d04D9a6",
  "abi": [
    {
      "inputs": [
        {
          "internalType": "address",
          "name": "_operator",
          "type": "address"
        },
        {
          "internalType": "address",
          "name": "_rewardFactory",
          "type": "address"
        },
        {
          "internalType": "address",
          "name": "_proxyFactory",
          "type": "address"
        }
      ],
      "stateMutability": "nonpayable",
      "type": "constructor"
    },
    {
      "inputs": [],
      "name": "Unauthorized",
      "type": "error"
    },
    {
      "anonymous": false,
      "inputs": [
        {
          "indexed": false,
          "internalType": "address",
          "name": "_newImplementation",
          "type": "address"
        }
      ],
      "name": "ImpelemntationChanged",
      "type": "event"
    },
    {
      "inputs": [
        {
          "internalType": "uint256",
          "name": "_pid",
          "type": "uint256"
        },
        {
          "internalType": "address",
          "name": "_gauge",
          "type": "address"
        }
      ],
      "name": "createStash",
      "outputs": [
        {
          "internalType": "address",
          "name": "",
          "type": "address"
        }
      ],
      "stateMutability": "nonpayable",
      "type": "function"
    },
    {
      "inputs": [],
      "name": "implementation",
      "outputs": [
        {
          "internalType": "address",
          "name": "",
          "type": "address"
        }
      ],
      "stateMutability": "view",
      "type": "function"
    },
    {
      "inputs": [],
      "name": "operator",
      "outputs": [
        {
          "internalType": "address",
          "name": "",
          "type": "address"
        }
      ],
      "stateMutability": "view",
      "type": "function"
    },
    {
      "inputs": [],
      "name": "proxyFactory",
      "outputs": [
        {
          "internalType": "address",
          "name": "",
          "type": "address"
        }
      ],
      "stateMutability": "view",
      "type": "function"
    },
    {
      "inputs": [],
      "name": "rewardFactory",
      "outputs": [
        {
          "internalType": "address",
          "name": "",
          "type": "address"
        }
      ],
      "stateMutability": "view",
      "type": "function"
    },
    {
      "inputs": [
        {
          "internalType": "address",
          "name": "_newImplementation",
          "type": "address"
        }
      ],
      "name": "setImplementation",
      "outputs": [],
      "stateMutability": "nonpayable",
      "type": "function"
    }
  ],
  "transactionHash": "0xb0029c7f2adab0c28df0ad9ed9a5a5957043404f50c759d773195546752c34f3",
  "args": [
    "0x190Bfc8FC0BC0C734c34383eAD884D00E00E91c0",
    "0x55eEFF0eEc6884aB3Ac1F3C454501dd9a8f2Df85",
    "0x7Ef8705647d8D1974625A6A8C71c8B24e59BcB72"
  ],
  "solcInputHash": "7e57f81a6be83430d315781a62c52ee2",
  "bytecode": "0x60e060405234801561001057600080fd5b5060405161067638038061067683398101604081905261002f91610068565b6001600160a01b0392831660805290821660a0521660c0526100ab565b80516001600160a01b038116811461006357600080fd5b919050565b60008060006060848603121561007d57600080fd5b6100868461004c565b92506100946020850161004c565b91506100a26040850161004c565b90509250925092565b60805160a05160c0516105826100f4600039600081816101260152610217015260008181607c01526102d801526000818160df01528181610177015261034a01526105826000f3fe608060405234801561001057600080fd5b50600436106100725760003560e01c80635c60da1b116100505780635c60da1b14610101578063c10f1a7514610121578063d784d4261461014857600080fd5b8063245e4bf01461007757806331c49cba146100c7578063570ca735146100da575b600080fd5b61009e7f000000000000000000000000000000000000000000000000000000000000000081565b60405173ffffffffffffffffffffffffffffffffffffffff909116815260200160405180910390f35b61009e6100d53660046104db565b61015d565b61009e7f000000000000000000000000000000000000000000000000000000000000000081565b60005461009e9073ffffffffffffffffffffffffffffffffffffffff1681565b61009e7f000000000000000000000000000000000000000000000000000000000000000081565b61015b61015636600461050b565b610348565b005b60003373ffffffffffffffffffffffffffffffffffffffff7f000000000000000000000000000000000000000000000000000000000000000016146101ce576040517f82b4290000000000000000000000000000000000000000000000000000000000815260040160405180910390fd5b600080546040517f8124b78e00000000000000000000000000000000000000000000000000000000815273ffffffffffffffffffffffffffffffffffffffff91821660048201527f000000000000000000000000000000000000000000000000000000000000000090911690638124b78e906024016020604051808303816000875af1158015610262573d6000803e3d6000fd5b505050506040513d601f19601f82011682018060405250810190610286919061052f565b6040517f754d1d540000000000000000000000000000000000000000000000000000000081526004810186905233602482015273ffffffffffffffffffffffffffffffffffffffff85811660448301527f0000000000000000000000000000000000000000000000000000000000000000811660648301529192509082169063754d1d5490608401600060405180830381600087803b15801561032857600080fd5b505af115801561033c573d6000803e3d6000fd5b50929695505050505050565b7f000000000000000000000000000000000000000000000000000000000000000073ffffffffffffffffffffffffffffffffffffffff16638da5cb5b6040518163ffffffff1660e01b81526004016020604051808303816000875af11580156103b5573d6000803e3d6000fd5b505050506040513d601f19601f820116820180604052508101906103d9919061052f565b73ffffffffffffffffffffffffffffffffffffffff163373ffffffffffffffffffffffffffffffffffffffff161461043d576040517f82b4290000000000000000000000000000000000000000000000000000000000815260040160405180910390fd5b600080547fffffffffffffffffffffffff00000000000000000000000000000000000000001673ffffffffffffffffffffffffffffffffffffffff83169081179091556040519081527f7257141c42cbfb2d9a0e100abb7adaed82a5b3c36107b22bc02efe8122ae81479060200160405180910390a150565b73ffffffffffffffffffffffffffffffffffffffff811681146104d857600080fd5b50565b600080604083850312156104ee57600080fd5b823591506020830135610500816104b6565b809150509250929050565b60006020828403121561051d57600080fd5b8135610528816104b6565b9392505050565b60006020828403121561054157600080fd5b8151610528816104b656fea26469706673582212208b4d3db7daafd23bd4d1359f43e6bd3f3e9bfb8772ce4bf0fca431ec0542058764736f6c634300080f0033",
  "devdoc": {
    "kind": "dev",
    "methods": {
      "createStash(uint256,address)": {
        "params": {
          "_gauge": "Gauge address",
          "_pid": "The PID of the pool"
        }
      },
      "setImplementation(address)": {
        "params": {
          "_newImplementation": "Address of new implementation contract"
        }
      }
    },
    "title": "Stash Factory",
    "version": 1
  },
  "userdoc": {
    "kind": "user",
    "methods": {
      "createStash(uint256,address)": {
        "notice": "Create a stash contract for the given gauge"
      },
      "setImplementation(address)": {
        "notice": "Used to set address for new implementation contract"
      }
    },
    "version": 1
  },
  "storageLayout": {
    "storage": [
      {
        "astId": 7979,
        "contract": "contracts/factories/StashFactory.sol:StashFactory",
        "label": "implementation",
        "offset": 0,
        "slot": "0",
        "type": "t_address"
      }
    ],
    "types": {
      "t_address": {
        "encoding": "inplace",
        "label": "address",
        "numberOfBytes": "20"
      }
    }
  }
}