{
  "address": "0xE25E53220Df33D41b0422FeDBD2D23A94045cFf3",
  "abi": [
    {
      "inputs": [
        {
          "internalType": "address",
          "name": "_mintr",
          "type": "address"
        },
        {
          "internalType": "address",
          "name": "_bal",
          "type": "address"
        },
        {
          "internalType": "address",
          "name": "_wethBal",
          "type": "address"
        },
        {
          "internalType": "address",
          "name": "_veBal",
          "type": "address"
        },
        {
          "internalType": "address",
          "name": "_gaugeController",
          "type": "address"
        }
      ],
      "stateMutability": "nonpayable",
      "type": "constructor"
    },
    {
      "inputs": [],
      "name": "BadInput",
      "type": "error"
    },
    {
      "inputs": [],
      "name": "NeedsShutdown",
      "type": "error"
    },
    {
      "inputs": [],
      "name": "Unauthorized",
      "type": "error"
    },
    {
      "anonymous": false,
      "inputs": [
        {
          "indexed": false,
          "internalType": "address",
          "name": "newDepositor",
          "type": "address"
        }
      ],
      "name": "DepositorChanged",
      "type": "event"
    },
    {
      "anonymous": false,
      "inputs": [
        {
          "indexed": false,
          "internalType": "address",
          "name": "newOperator",
          "type": "address"
        }
      ],
      "name": "OperatorChanged",
      "type": "event"
    },
    {
      "anonymous": false,
      "inputs": [
        {
          "indexed": false,
          "internalType": "address",
          "name": "newOwner",
          "type": "address"
        }
      ],
      "name": "OwnerChanged",
      "type": "event"
    },
    {
      "anonymous": false,
      "inputs": [
        {
          "indexed": false,
          "internalType": "address",
          "name": "stash",
          "type": "address"
        }
      ],
      "name": "StashAccessGranted",
      "type": "event"
    },
    {
      "anonymous": false,
      "inputs": [],
      "name": "VotingPowerCleared",
      "type": "event"
    },
    {
      "anonymous": false,
      "inputs": [
        {
          "indexed": false,
          "internalType": "address",
          "name": "_delegate",
          "type": "address"
        }
      ],
      "name": "VotingPowerDelegated",
      "type": "event"
    },
    {
      "inputs": [],
      "name": "BALANCER_SNAPSHOT_ID",
      "outputs": [
        {
          "internalType": "bytes32",
          "name": "",
          "type": "bytes32"
        }
      ],
      "stateMutability": "view",
      "type": "function"
    },
    {
      "inputs": [],
      "name": "SNAPSHOT_REGISTRY",
      "outputs": [
        {
          "internalType": "address",
          "name": "",
          "type": "address"
        }
      ],
      "stateMutability": "view",
      "type": "function"
    },
    {
      "inputs": [],
      "name": "bal",
      "outputs": [
        {
          "internalType": "address",
          "name": "",
          "type": "address"
        }
      ],
      "stateMutability": "view",
      "type": "function"
    },
    {
      "inputs": [
        {
          "internalType": "address",
          "name": "_gauge",
          "type": "address"
        }
      ],
      "name": "balanceOfPool",
      "outputs": [
        {
          "internalType": "uint256",
          "name": "",
          "type": "uint256"
        }
      ],
      "stateMutability": "view",
      "type": "function"
    },
    {
      "inputs": [
        {
          "internalType": "address",
          "name": "_gauge",
          "type": "address"
        }
      ],
      "name": "claimBal",
      "outputs": [
        {
          "internalType": "uint256",
          "name": "",
          "type": "uint256"
        }
      ],
      "stateMutability": "nonpayable",
      "type": "function"
    },
    {
      "inputs": [
        {
          "internalType": "address",
          "name": "_distroContract",
          "type": "address"
        },
        {
          "internalType": "contract IERC20[]",
          "name": "_tokens",
          "type": "address[]"
        }
      ],
      "name": "claimFees",
      "outputs": [],
      "stateMutability": "nonpayable",
      "type": "function"
    },
    {
      "inputs": [
        {
          "internalType": "address",
          "name": "_gauge",
          "type": "address"
        }
      ],
      "name": "claimRewards",
      "outputs": [],
      "stateMutability": "nonpayable",
      "type": "function"
    },
    {
      "inputs": [],
      "name": "clearDelegate",
      "outputs": [],
      "stateMutability": "nonpayable",
      "type": "function"
    },
    {
      "inputs": [
        {
          "internalType": "uint256",
          "name": "_value",
          "type": "uint256"
        },
        {
          "internalType": "uint256",
          "name": "_unlockTime",
          "type": "uint256"
        }
      ],
      "name": "createLock",
      "outputs": [],
      "stateMutability": "nonpayable",
      "type": "function"
    },
    {
      "inputs": [
        {
          "internalType": "address",
          "name": "_delegateTo",
          "type": "address"
        }
      ],
      "name": "delegateVotingPower",
      "outputs": [],
      "stateMutability": "nonpayable",
      "type": "function"
    },
    {
      "inputs": [
        {
          "internalType": "address",
          "name": "_token",
          "type": "address"
        },
        {
          "internalType": "address",
          "name": "_gauge",
          "type": "address"
        }
      ],
      "name": "deposit",
      "outputs": [],
      "stateMutability": "nonpayable",
      "type": "function"
    },
    {
      "inputs": [],
      "name": "depositor",
      "outputs": [
        {
          "internalType": "address",
          "name": "",
          "type": "address"
        }
      ],
      "stateMutability": "view",
      "type": "function"
    },
    {
      "inputs": [
        {
          "internalType": "address",
          "name": "_to",
          "type": "address"
        },
        {
          "internalType": "uint256",
          "name": "_value",
          "type": "uint256"
        },
        {
          "internalType": "bytes",
          "name": "_data",
          "type": "bytes"
        }
      ],
      "name": "execute",
      "outputs": [
        {
          "internalType": "bool",
          "name": "",
          "type": "bool"
        },
        {
          "internalType": "bytes",
          "name": "",
          "type": "bytes"
        }
      ],
      "stateMutability": "nonpayable",
      "type": "function"
    },
    {
      "inputs": [],
      "name": "gaugeController",
      "outputs": [
        {
          "internalType": "address",
          "name": "",
          "type": "address"
        }
      ],
      "stateMutability": "view",
      "type": "function"
    },
    {
      "inputs": [
        {
          "internalType": "uint256",
          "name": "_value",
          "type": "uint256"
        }
      ],
      "name": "increaseAmount",
      "outputs": [],
      "stateMutability": "nonpayable",
      "type": "function"
    },
    {
      "inputs": [
        {
          "internalType": "uint256",
          "name": "_value",
          "type": "uint256"
        }
      ],
      "name": "increaseTime",
      "outputs": [],
      "stateMutability": "nonpayable",
      "type": "function"
    },
    {
      "inputs": [],
      "name": "mintr",
      "outputs": [
        {
          "internalType": "address",
          "name": "",
          "type": "address"
        }
      ],
      "stateMutability": "view",
      "type": "function"
    },
    {
      "inputs": [],
      "name": "operator",
      "outputs": [
        {
          "internalType": "address",
          "name": "",
          "type": "address"
        }
      ],
      "stateMutability": "view",
      "type": "function"
    },
    {
      "inputs": [],
      "name": "owner",
      "outputs": [
        {
          "internalType": "address",
          "name": "",
          "type": "address"
        }
      ],
      "stateMutability": "view",
      "type": "function"
    },
    {
      "inputs": [],
      "name": "release",
      "outputs": [],
      "stateMutability": "nonpayable",
      "type": "function"
    },
    {
      "inputs": [
        {
          "internalType": "address",
          "name": "_depositor",
          "type": "address"
        }
      ],
      "name": "setDepositor",
      "outputs": [],
      "stateMutability": "nonpayable",
      "type": "function"
    },
    {
      "inputs": [
        {
          "internalType": "address",
          "name": "_operator",
          "type": "address"
        }
      ],
      "name": "setOperator",
      "outputs": [],
      "stateMutability": "nonpayable",
      "type": "function"
    },
    {
      "inputs": [
        {
          "internalType": "address",
          "name": "_newOwner",
          "type": "address"
        }
      ],
      "name": "setOwner",
      "outputs": [],
      "stateMutability": "nonpayable",
      "type": "function"
    },
    {
      "inputs": [],
      "name": "veBal",
      "outputs": [
        {
          "internalType": "address",
          "name": "",
          "type": "address"
        }
      ],
      "stateMutability": "view",
      "type": "function"
    },
    {
      "inputs": [
        {
          "internalType": "address[]",
          "name": "_gauges",
          "type": "address[]"
        },
        {
          "internalType": "uint256[]",
          "name": "_weights",
          "type": "uint256[]"
        }
      ],
      "name": "voteMultipleGauges",
      "outputs": [],
      "stateMutability": "nonpayable",
      "type": "function"
    },
    {
      "inputs": [],
      "name": "wethBal",
      "outputs": [
        {
          "internalType": "address",
          "name": "",
          "type": "address"
        }
      ],
      "stateMutability": "view",
      "type": "function"
    },
    {
      "inputs": [
        {
          "internalType": "address",
          "name": "_token",
          "type": "address"
        },
        {
          "internalType": "address",
          "name": "_gauge",
          "type": "address"
        },
        {
          "internalType": "uint256",
          "name": "_amount",
          "type": "uint256"
        }
      ],
      "name": "withdraw",
      "outputs": [],
      "stateMutability": "nonpayable",
      "type": "function"
    },
    {
      "inputs": [
        {
          "internalType": "address",
          "name": "_token",
          "type": "address"
        },
        {
          "internalType": "address",
          "name": "_gauge",
          "type": "address"
        }
      ],
      "name": "withdrawAll",
      "outputs": [],
      "stateMutability": "nonpayable",
      "type": "function"
    },
    {
      "inputs": [
        {
          "internalType": "address",
          "name": "_to",
          "type": "address"
        }
      ],
      "name": "withdrawWethBal",
      "outputs": [],
      "stateMutability": "nonpayable",
      "type": "function"
    }
  ],
  "transactionHash": "0xc37783604d79f8faaf56ad0a5b111a70a389e7f5ae4894214a8dab6a44848e8b",
  "args": [
    "0x239e55F427D44C3cc793f49bFB507ebe76638a2b",
    "0xba100000625a3754423978a60c9317c58a424e3d",
    "0x5c6ee304399dbdb9c8ef030ab642b10820db8f56",
    "0xC128a9954e6c874eA3d62ce62B468bA073093F25",
    "0xC128468b7Ce63eA702C1f104D55A2566b13D3ABD"
  ],
  "solcInputHash": "74d87a39c2f5002629cc62ce8e120808",
  "bytecode": "0x6101206040523480156200001257600080fd5b506040516200295d3803806200295d833981016040819052620000359162000108565b6001600160a01b0385811660805284811660a05283811660c081905283821660e081905291831661010052600080546001600160a01b0319163317905560405163095ea7b360e01b8152600481019290925260001960248301529063095ea7b3906044016020604051808303816000875af1158015620000b9573d6000803e3d6000fd5b505050506040513d601f19601f82011682018060405250810190620000df919062000178565b505050505050620001a3565b80516001600160a01b03811681146200010357600080fd5b919050565b600080600080600060a086880312156200012157600080fd5b6200012c86620000eb565b94506200013c60208701620000eb565b93506200014c60408701620000eb565b92506200015c60608701620000eb565b91506200016c60808701620000eb565b90509295509295909350565b6000602082840312156200018b57600080fd5b815180151581146200019c57600080fd5b9392505050565b60805160a05160c05160e05161010051612728620002356000396000818161034a0152610a4e01526000818161024d015281816106d501528181610bde01528181610d8e0152818161113601526114e301526000818161040c015281816111e401526112810152600081816102ac01528181610870015261094201526000818161045301526107e601526127286000f3fe608060405234801561001057600080fd5b50600436106101cf5760003560e01c8063a81d2f4711610104578063c17af1a7116100a2578063ef5cfb8c11610071578063ef5cfb8c14610488578063f2c098b71461049b578063f3ff955a146104ae578063f9609f08146104c157600080fd5b8063c17af1a714610407578063c7c4ff461461042e578063d1e61dcb1461044e578063d9caed121461047557600080fd5b8063b287ff31116100de578063b287ff31146103ad578063b3ab15fb146103c0578063b52c05fe146103d3578063b61d27f6146103e657600080fd5b8063a81d2f471461036c578063b0f637941461037f578063b21f3eaa1461039257600080fd5b80633d79d1c8116101715780636ea447ba1161014b5780636ea447ba1461031557806386d1a69f1461031d5780638da5cb5b1461032557806399eecb3b1461034557600080fd5b80633d79d1c8146102a7578063570ca735146102ce5780635ba3c6a6146102ee57600080fd5b80631e4b196a116101ad5780631e4b196a1461020f57806328fa28a91461023557806334bce903146102485780633c9a2a1a1461029457600080fd5b806309cae2c8146101d457806313af4035146101e957806315456eba146101fc575b600080fd5b6101e76101e236600461217e565b6104d4565b005b6101e76101f73660046121b7565b61058a565b6101e761020a3660046121d4565b610655565b61022261021d3660046121b7565b61074a565b6040519081526020015b60405180910390f35b6101e7610243366004612239565b6109b7565b61026f7f000000000000000000000000000000000000000000000000000000000000000081565b60405173ffffffffffffffffffffffffffffffffffffffff909116815260200161022c565b6101e76102a23660046121d4565b610b5e565b61026f7f000000000000000000000000000000000000000000000000000000000000000081565b60015461026f9073ffffffffffffffffffffffffffffffffffffffff1681565b6102227f62616c616e6365722e657468000000000000000000000000000000000000000081565b6101e7610c22565b6101e7610d3b565b60005461026f9073ffffffffffffffffffffffffffffffffffffffff1681565b61026f7f000000000000000000000000000000000000000000000000000000000000000081565b6101e761037a3660046122a5565b610e0e565b61022261038d3660046121b7565b611052565b61026f73469788fe6e9e9681c6ebf3bf78e7fd26fc01544681565b6101e76103bb3660046121b7565b6110e3565b6101e76103ce3660046121b7565b6112ac565b6101e76103e13660046122fa565b61145c565b6103f96103f436600461231c565b611558565b60405161022c92919061241b565b61026f7f000000000000000000000000000000000000000000000000000000000000000081565b60025461026f9073ffffffffffffffffffffffffffffffffffffffff1681565b61026f7f000000000000000000000000000000000000000000000000000000000000000081565b6101e7610483366004612436565b61162c565b6101e76104963660046121b7565b611826565b6101e76104a93660046121b7565b6118bf565b6101e76104bc3660046121b7565b611983565b6101e76104cf36600461217e565b611ad4565b6040517f70a0823100000000000000000000000000000000000000000000000000000000815230600482015260009073ffffffffffffffffffffffffffffffffffffffff8416906370a0823190602401602060405180830381865afa158015610541573d6000803e3d6000fd5b505050506040513d601f19601f820116820180604052508101906105659190612477565b61056e83611052565b61057891906124bf565b905061058583838361162c565b505050565b60005473ffffffffffffffffffffffffffffffffffffffff1633146105db576040517f82b4290000000000000000000000000000000000000000000000000000000000815260040160405180910390fd5b600080547fffffffffffffffffffffffff00000000000000000000000000000000000000001673ffffffffffffffffffffffffffffffffffffffff83169081179091556040519081527fa2ea9883a321a3e97b8266c2b078bfeec6d50c711ed71f874a90d500ae2eaf36906020015b60405180910390a150565b60025473ffffffffffffffffffffffffffffffffffffffff1633146106a6576040517f82b4290000000000000000000000000000000000000000000000000000000000815260040160405180910390fd5b6040517f4957677c000000000000000000000000000000000000000000000000000000008152600481018290527f000000000000000000000000000000000000000000000000000000000000000073ffffffffffffffffffffffffffffffffffffffff1690634957677c906024015b600060405180830381600087803b15801561072f57600080fd5b505af1158015610743573d6000803e3d6000fd5b5050505050565b60015460009073ffffffffffffffffffffffffffffffffffffffff16331461079e576040517f82b4290000000000000000000000000000000000000000000000000000000000815260040160405180910390fd5b6040517f6a62784200000000000000000000000000000000000000000000000000000000815273ffffffffffffffffffffffffffffffffffffffff83811660048301526000917f000000000000000000000000000000000000000000000000000000000000000090911690636a62784290602401600060405180830381600087803b15801561082c57600080fd5b505af192505050801561083d575060015b156109b1576040517f70a082310000000000000000000000000000000000000000000000000000000081523060048201527f000000000000000000000000000000000000000000000000000000000000000073ffffffffffffffffffffffffffffffffffffffff16906370a0823190602401602060405180830381865afa1580156108cc573d6000803e3d6000fd5b505050506040513d601f19601f820116820180604052508101906108f09190612477565b6001546040517fa9059cbb00000000000000000000000000000000000000000000000000000000815273ffffffffffffffffffffffffffffffffffffffff9182166004820152602481018390529192507f0000000000000000000000000000000000000000000000000000000000000000169063a9059cbb906044016020604051808303816000875af115801561098b573d6000803e3d6000fd5b505050506040513d601f19601f820116820180604052508101906109af91906124d7565b505b92915050565b60015473ffffffffffffffffffffffffffffffffffffffff163314610a08576040517f82b4290000000000000000000000000000000000000000000000000000000000815260040160405180910390fd5b828114610a41576040517f2bb9acf700000000000000000000000000000000000000000000000000000000815260040160405180910390fd5b60005b83811015610743577f000000000000000000000000000000000000000000000000000000000000000073ffffffffffffffffffffffffffffffffffffffff1663d7136328868684818110610a9a57610a9a6124f9565b9050602002016020810190610aaf91906121b7565b858585818110610ac157610ac16124f9565b6040517fffffffff0000000000000000000000000000000000000000000000000000000060e087901b16815273ffffffffffffffffffffffffffffffffffffffff90941660048501526020029190910135602483015250604401600060405180830381600087803b158015610b3557600080fd5b505af1158015610b49573d6000803e3d6000fd5b50505050610b578160010190565b9050610a44565b60025473ffffffffffffffffffffffffffffffffffffffff163314610baf576040517f82b4290000000000000000000000000000000000000000000000000000000000815260040160405180910390fd5b6040517feff7a612000000000000000000000000000000000000000000000000000000008152600481018290527f000000000000000000000000000000000000000000000000000000000000000073ffffffffffffffffffffffffffffffffffffffff169063eff7a61290602401610715565b60015473ffffffffffffffffffffffffffffffffffffffff163314610c73576040517f82b4290000000000000000000000000000000000000000000000000000000000815260040160405180910390fd5b6040517ff0bedbe20000000000000000000000000000000000000000000000000000000081527f62616c616e6365722e6574680000000000000000000000000000000000000000600482015273469788fe6e9e9681c6ebf3bf78e7fd26fc0154469063f0bedbe290602401600060405180830381600087803b158015610cf857600080fd5b505af1158015610d0c573d6000803e3d6000fd5b50506040517fa7febde3d063f85cd125edf1098752804757b63e77a6b3b12d146aaed3a00b8a925060009150a1565b60025473ffffffffffffffffffffffffffffffffffffffff163314610d8c576040517f82b4290000000000000000000000000000000000000000000000000000000000815260040160405180910390fd5b7f000000000000000000000000000000000000000000000000000000000000000073ffffffffffffffffffffffffffffffffffffffff16633ccfd60b6040518163ffffffff1660e01b8152600401600060405180830381600087803b158015610df457600080fd5b505af1158015610e08573d6000803e3d6000fd5b50505050565b60015473ffffffffffffffffffffffffffffffffffffffff163314610e5f576040517f82b4290000000000000000000000000000000000000000000000000000000000815260040160405180910390fd5b6040517f8872046700000000000000000000000000000000000000000000000000000000815273ffffffffffffffffffffffffffffffffffffffff841690638872046790610eb590309086908690600401612528565b6000604051808303816000875af1158015610ed4573d6000803e3d6000fd5b505050506040513d6000823e601f3d9081017fffffffffffffffffffffffffffffffffffffffffffffffffffffffffffffffe0168201604052610f1a91908101906125c0565b5060005b81811015610e08576000838383818110610f3a57610f3a6124f9565b9050602002016020810190610f4f91906121b7565b6040517f70a0823100000000000000000000000000000000000000000000000000000000815230600482015273ffffffffffffffffffffffffffffffffffffffff91909116906370a0823190602401602060405180830381865afa158015610fbb573d6000803e3d6000fd5b505050506040513d601f19601f82011682018060405250810190610fdf9190612477565b90508015611049576001546110499073ffffffffffffffffffffffffffffffffffffffff1682868686818110611017576110176124f9565b905060200201602081019061102c91906121b7565b73ffffffffffffffffffffffffffffffffffffffff169190611ddd565b50600101610f1e565b6040517f70a0823100000000000000000000000000000000000000000000000000000000815230600482015260009073ffffffffffffffffffffffffffffffffffffffff8316906370a0823190602401602060405180830381865afa1580156110bf573d6000803e3d6000fd5b505050506040513d601f19601f820116820180604052508101906109b19190612477565b60015473ffffffffffffffffffffffffffffffffffffffff163314611134576040517f82b4290000000000000000000000000000000000000000000000000000000000815260040160405180910390fd5b7f000000000000000000000000000000000000000000000000000000000000000073ffffffffffffffffffffffffffffffffffffffff16633ccfd60b6040518163ffffffff1660e01b8152600401600060405180830381600087803b15801561119c57600080fd5b505af11580156111b0573d6000803e3d6000fd5b50506040517f70a08231000000000000000000000000000000000000000000000000000000008152306004820152600092507f000000000000000000000000000000000000000000000000000000000000000073ffffffffffffffffffffffffffffffffffffffff1691506370a0823190602401602060405180830381865afa158015611241573d6000803e3d6000fd5b505050506040513d601f19601f820116820180604052508101906112659190612477565b90506112a873ffffffffffffffffffffffffffffffffffffffff7f0000000000000000000000000000000000000000000000000000000000000000168383611ddd565b5050565b60005473ffffffffffffffffffffffffffffffffffffffff1633146112fd576040517f82b4290000000000000000000000000000000000000000000000000000000000815260040160405180910390fd5b60015473ffffffffffffffffffffffffffffffffffffffff16158015906113b25750600160009054906101000a900473ffffffffffffffffffffffffffffffffffffffff1673ffffffffffffffffffffffffffffffffffffffff1663bf86d6906040518163ffffffff1660e01b8152600401602060405180830381865afa15801561138c573d6000803e3d6000fd5b505050506040513d601f19601f820116820180604052508101906113b091906124d7565b155b156113e9576040517fa88a170d00000000000000000000000000000000000000000000000000000000815260040160405180910390fd5b600180547fffffffffffffffffffffffff00000000000000000000000000000000000000001673ffffffffffffffffffffffffffffffffffffffff83169081179091556040519081527f4721129e0e676ed6a92909bb24e853ccdd63ad72280cc2e974e38e480e0e6e549060200161064a565b60025473ffffffffffffffffffffffffffffffffffffffff1633146114ad576040517f82b4290000000000000000000000000000000000000000000000000000000000815260040160405180910390fd5b6040517f65fc387300000000000000000000000000000000000000000000000000000000815260048101839052602481018290527f000000000000000000000000000000000000000000000000000000000000000073ffffffffffffffffffffffffffffffffffffffff16906365fc387390604401600060405180830381600087803b15801561153c57600080fd5b505af1158015611550573d6000803e3d6000fd5b505050505050565b60015460009060609073ffffffffffffffffffffffffffffffffffffffff1633146115af576040517f82b4290000000000000000000000000000000000000000000000000000000000815260040160405180910390fd5b6000808773ffffffffffffffffffffffffffffffffffffffff168787876040516115da92919061269c565b60006040518083038185875af1925050503d8060008114611617576040519150601f19603f3d011682016040523d82523d6000602084013e61161c565b606091505b5090999098509650505050505050565b60015473ffffffffffffffffffffffffffffffffffffffff16331461167d576040517f82b4290000000000000000000000000000000000000000000000000000000000815260040160405180910390fd5b6040517f70a0823100000000000000000000000000000000000000000000000000000000815230600482015260009073ffffffffffffffffffffffffffffffffffffffff8516906370a0823190602401602060405180830381865afa1580156116ea573d6000803e3d6000fd5b505050506040513d601f19601f8201168201806040525081019061170e9190612477565b90508181101561178f5773ffffffffffffffffffffffffffffffffffffffff8316632e1a7d4d61173e83856126ac565b6040518263ffffffff1660e01b815260040161175c91815260200190565b600060405180830381600087803b15801561177657600080fd5b505af115801561178a573d6000803e3d6000fd5b505050505b6040517fa9059cbb0000000000000000000000000000000000000000000000000000000081523360048201526024810183905273ffffffffffffffffffffffffffffffffffffffff85169063a9059cbb906044016020604051808303816000875af1158015611802573d6000803e3d6000fd5b505050506040513d601f19601f8201168201806040525081019061074391906124d7565b60015473ffffffffffffffffffffffffffffffffffffffff163314611877576040517f82b4290000000000000000000000000000000000000000000000000000000000815260040160405180910390fd5b8073ffffffffffffffffffffffffffffffffffffffff1663e6f1daf26040518163ffffffff1660e01b8152600401600060405180830381600087803b15801561072f57600080fd5b60005473ffffffffffffffffffffffffffffffffffffffff163314611910576040517f82b4290000000000000000000000000000000000000000000000000000000000815260040160405180910390fd5b600280547fffffffffffffffffffffffff00000000000000000000000000000000000000001673ffffffffffffffffffffffffffffffffffffffff83169081179091556040519081527f165ea44172651427010df987e6fd454678cc3c3f3e7331ab563c596bc8e787f69060200161064a565b60015473ffffffffffffffffffffffffffffffffffffffff1633146119d4576040517f82b4290000000000000000000000000000000000000000000000000000000000815260040160405180910390fd5b6040517fbd86e5080000000000000000000000000000000000000000000000000000000081527f62616c616e6365722e6574680000000000000000000000000000000000000000600482015273ffffffffffffffffffffffffffffffffffffffff8216602482015273469788fe6e9e9681c6ebf3bf78e7fd26fc0154469063bd86e50890604401600060405180830381600087803b158015611a7557600080fd5b505af1158015611a89573d6000803e3d6000fd5b505060405173ffffffffffffffffffffffffffffffffffffffff841681527f9765f939e65a9a6667affea71ad5d97f51fd25883d233f2b8e44c811395fc0509250602001905061064a565b60015473ffffffffffffffffffffffffffffffffffffffff163314611b25576040517f82b4290000000000000000000000000000000000000000000000000000000000815260040160405180910390fd5b73ffffffffffffffffffffffffffffffffffffffff821660009081526004602052604081205460ff1615159003611ba55773ffffffffffffffffffffffffffffffffffffffff8216600090815260046020526040902080547fffffffffffffffffffffffffffffffffffffffffffffffffffffffffffffff001660011790555b73ffffffffffffffffffffffffffffffffffffffff811660009081526004602052604081205460ff1615159003611c255773ffffffffffffffffffffffffffffffffffffffff8116600090815260046020526040902080547fffffffffffffffffffffffffffffffffffffffffffffffffffffffffffffff001660011790555b6040517f70a0823100000000000000000000000000000000000000000000000000000000815230600482015260009073ffffffffffffffffffffffffffffffffffffffff8416906370a0823190602401602060405180830381865afa158015611c92573d6000803e3d6000fd5b505050506040513d601f19601f82011682018060405250810190611cb69190612477565b90508015610585576040517f095ea7b300000000000000000000000000000000000000000000000000000000815273ffffffffffffffffffffffffffffffffffffffff83811660048301526024820183905284169063095ea7b3906044016020604051808303816000875af1158015611d33573d6000803e3d6000fd5b505050506040513d601f19601f82011682018060405250810190611d5791906124d7565b506040517fb6b55f250000000000000000000000000000000000000000000000000000000081526004810182905273ffffffffffffffffffffffffffffffffffffffff83169063b6b55f2590602401600060405180830381600087803b158015611dc057600080fd5b505af1158015611dd4573d6000803e3d6000fd5b50505050505050565b6040805173ffffffffffffffffffffffffffffffffffffffff848116602483015260448083018590528351808403909101815260649092018352602080830180517bffffffffffffffffffffffffffffffffffffffffffffffffffffffff167fa9059cbb0000000000000000000000000000000000000000000000000000000017905283518085019094528084527f5361666545524332303a206c6f772d6c6576656c2063616c6c206661696c65649084015261058592869291600091611ea8918516908490611f57565b8051909150156105855780806020019051810190611ec691906124d7565b610585576040517f08c379a000000000000000000000000000000000000000000000000000000000815260206004820152602a60248201527f5361666545524332303a204552433230206f7065726174696f6e20646964206e60448201527f6f7420737563636565640000000000000000000000000000000000000000000060648201526084015b60405180910390fd5b6060611f668484600085611f70565b90505b9392505050565b606082471015612002576040517f08c379a000000000000000000000000000000000000000000000000000000000815260206004820152602660248201527f416464726573733a20696e73756666696369656e742062616c616e636520666f60448201527f722063616c6c00000000000000000000000000000000000000000000000000006064820152608401611f4e565b73ffffffffffffffffffffffffffffffffffffffff85163b612080576040517f08c379a000000000000000000000000000000000000000000000000000000000815260206004820152601d60248201527f416464726573733a2063616c6c20746f206e6f6e2d636f6e74726163740000006044820152606401611f4e565b6000808673ffffffffffffffffffffffffffffffffffffffff1685876040516120a991906126c3565b60006040518083038185875af1925050503d80600081146120e6576040519150601f19603f3d011682016040523d82523d6000602084013e6120eb565b606091505b50915091506120fb828286612106565b979650505050505050565b60608315612115575081611f69565b8251156121255782518084602001fd5b816040517f08c379a0000000000000000000000000000000000000000000000000000000008152600401611f4e91906126df565b73ffffffffffffffffffffffffffffffffffffffff8116811461217b57600080fd5b50565b6000806040838503121561219157600080fd5b823561219c81612159565b915060208301356121ac81612159565b809150509250929050565b6000602082840312156121c957600080fd5b8135611f6981612159565b6000602082840312156121e657600080fd5b5035919050565b60008083601f8401126121ff57600080fd5b50813567ffffffffffffffff81111561221757600080fd5b6020830191508360208260051b850101111561223257600080fd5b9250929050565b6000806000806040858703121561224f57600080fd5b843567ffffffffffffffff8082111561226757600080fd5b612273888389016121ed565b9096509450602087013591508082111561228c57600080fd5b50612299878288016121ed565b95989497509550505050565b6000806000604084860312156122ba57600080fd5b83356122c581612159565b9250602084013567ffffffffffffffff8111156122e157600080fd5b6122ed868287016121ed565b9497909650939450505050565b6000806040838503121561230d57600080fd5b50508035926020909101359150565b6000806000806060858703121561233257600080fd5b843561233d81612159565b935060208501359250604085013567ffffffffffffffff8082111561236157600080fd5b818701915087601f83011261237557600080fd5b81358181111561238457600080fd5b88602082850101111561239657600080fd5b95989497505060200194505050565b60005b838110156123c05781810151838201526020016123a8565b83811115610e085750506000910152565b600081518084526123e98160208601602086016123a5565b601f017fffffffffffffffffffffffffffffffffffffffffffffffffffffffffffffffe0169290920160200192915050565b8215158152604060208201526000611f6660408301846123d1565b60008060006060848603121561244b57600080fd5b833561245681612159565b9250602084013561246681612159565b929592945050506040919091013590565b60006020828403121561248957600080fd5b5051919050565b7f4e487b7100000000000000000000000000000000000000000000000000000000600052601160045260246000fd5b600082198211156124d2576124d2612490565b500190565b6000602082840312156124e957600080fd5b81518015158114611f6957600080fd5b7f4e487b7100000000000000000000000000000000000000000000000000000000600052603260045260246000fd5b73ffffffffffffffffffffffffffffffffffffffff848116825260406020808401829052908301849052600091859160608501845b8781101561258457843561257081612159565b84168252938201939082019060010161255d565b5098975050505050505050565b7f4e487b7100000000000000000000000000000000000000000000000000000000600052604160045260246000fd5b600060208083850312156125d357600080fd5b825167ffffffffffffffff808211156125eb57600080fd5b818501915085601f8301126125ff57600080fd5b81518181111561261157612611612591565b8060051b6040517fffffffffffffffffffffffffffffffffffffffffffffffffffffffffffffffe0603f8301168101818110858211171561265457612654612591565b60405291825284820192508381018501918883111561267257600080fd5b938501935b8285101561269057845184529385019392850192612677565b98975050505050505050565b8183823760009101908152919050565b6000828210156126be576126be612490565b500390565b600082516126d58184602087016123a5565b9190910192915050565b602081526000611f6960208301846123d156fea26469706673582212200d0d97d7eed6060c8a778c1085d8ef9d2bfb733ecf47a70316f85ab552d383ed64736f6c634300080f0033",
  "devdoc": {
    "details": "based on Convex's VoterProxy smart contract      https://etherscan.io/address/0x989AEb4d175e16225E39E87d0D97A3360524AD80#code",
    "kind": "dev",
    "methods": {
      "balanceOfPool(address)": {
        "params": {
          "_gauge": "The gauge to check"
        },
        "returns": {
          "_0": "uint256 balance"
        }
      },
      "claimBal(address)": {
        "params": {
          "_gauge": "The gauge to claim from"
        },
        "returns": {
          "_0": "amount claimed"
        }
      },
      "claimFees(address,address[])": {
        "params": {
          "_distroContract": "The distro contract to claim from",
          "_tokens": "The tokens to claim"
        }
      },
      "createLock(uint256,uint256)": {
        "params": {
          "_unlockTime": "Epoch time when tokens unlock, rounded down to whole weeks",
          "_value": "The amount of BAL tokens to lock"
        }
      },
      "delegateVotingPower(address)": {
        "params": {
          "_delegateTo": "to whom we delegate voting power"
        }
      },
      "deposit(address,address)": {
        "params": {
          "_gauge": "The gauge to deposit to",
          "_token": "The address of the LP token"
        }
      },
      "execute(address,uint256,bytes)": {
        "params": {
          "_data": "calldata",
          "_to": "The address to call",
          "_value": "The ETH value to send"
        },
        "returns": {
          "_0": "The result of the call (bool, result)"
        }
      },
      "increaseAmount(uint256)": {
        "params": {
          "_value": "The amount of veBal tokens to increase"
        }
      },
      "increaseTime(uint256)": {
        "params": {
          "_value": "New epoch time for unlocking"
        }
      },
      "release()": {
        "details": "Only possible if the lock has expired"
      },
      "setDepositor(address)": {
        "details": "Only the owner can change the depositor",
        "params": {
          "_depositor": "The new depositor of the contract"
        }
      },
      "setOperator(address)": {
        "details": "Only the owner can change the operator      Current operator must be shutdown before changing the operator      Or we can set operator to address(0)",
        "params": {
          "_operator": "The new operator of the contract"
        }
      },
      "setOwner(address)": {
        "params": {
          "_newOwner": "The new owner of the contract"
        }
      },
      "voteMultipleGauges(address[],uint256[])": {
        "details": "Input arrays must have same length",
        "params": {
          "_gauges": "The gauges to vote for",
          "_weights": "The weights for a gauge in basis points (units of 0.01%). Minimal is 0.01%. Ignored if 0"
        }
      },
      "withdraw(address,address,uint256)": {
        "details": "If this contract doesn't have enough tokens it will withdraw them from gauge",
        "params": {
          "_amount": "The amount of tokens to withdraw",
          "_gauge": "The gauge to withdraw from",
          "_token": "ERC20 token address"
        }
      },
      "withdrawAll(address,address)": {
        "details": "If this contract doesn't have enough tokens it will withdraw them from gauge",
        "params": {
          "_gauge": "The gauge to withdraw from",
          "_token": "ERC20 token address"
        }
      },
      "withdrawWethBal(address)": {
        "params": {
          "_to": "send to address"
        }
      }
    },
    "title": "VoterProxy contract",
    "version": 1
  },
  "userdoc": {
    "kind": "user",
    "methods": {
      "balanceOfPool(address)": {
        "notice": "Balance of gauge"
      },
      "claimBal(address)": {
        "notice": "Claims VeBal tokens"
      },
      "claimFees(address,address[])": {
        "notice": "Claims fees"
      },
      "claimRewards(address)": {
        "notice": "Claims rewards_gauge The gauge to claim from"
      },
      "clearDelegate()": {
        "notice": "Clears delegation"
      },
      "createLock(uint256,uint256)": {
        "notice": "Locks BAL tokens to veBal"
      },
      "delegateVotingPower(address)": {
        "notice": "Delegates voting power to EOA so that it can vote on behalf of DAO off chain (Snapshot)"
      },
      "deposit(address,address)": {
        "notice": "Used to deposit tokens"
      },
      "execute(address,uint256,bytes)": {
        "notice": "Executes a call to `_to` with calldata `_data`"
      },
      "increaseAmount(uint256)": {
        "notice": "Increases amount of veBal tokens without modifying the unlock time"
      },
      "increaseTime(uint256)": {
        "notice": "Extend the unlock time"
      },
      "release()": {
        "notice": "Redeems veBal tokens"
      },
      "setDepositor(address)": {
        "notice": "Changes the depositor of the contract"
      },
      "setOperator(address)": {
        "notice": "Changes the operator of the contract"
      },
      "setOwner(address)": {
        "notice": "Used to change the owner of the contract"
      },
      "voteMultipleGauges(address[],uint256[])": {
        "notice": "Votes for multiple gauge weights"
      },
      "withdraw(address,address,uint256)": {
        "notice": "Used for withdrawing tokens"
      },
      "withdrawAll(address,address)": {
        "notice": "Used for withdrawing tokens"
      },
      "withdrawWethBal(address)": {
        "notice": "Used for withdrawing wethBal tokens to address"
      }
    },
    "version": 1
  },
  "storageLayout": {
    "storage": [
      {
        "astId": 6853,
        "contract": "contracts/VoterProxy.sol:VoterProxy",
        "label": "owner",
        "offset": 0,
        "slot": "0",
        "type": "t_address"
      },
      {
        "astId": 6855,
        "contract": "contracts/VoterProxy.sol:VoterProxy",
        "label": "operator",
        "offset": 0,
        "slot": "1",
        "type": "t_address"
      },
      {
        "astId": 6857,
        "contract": "contracts/VoterProxy.sol:VoterProxy",
        "label": "depositor",
        "offset": 0,
        "slot": "2",
        "type": "t_address"
      },
      {
        "astId": 6861,
        "contract": "contracts/VoterProxy.sol:VoterProxy",
        "label": "stashAccess",
        "offset": 0,
        "slot": "3",
        "type": "t_mapping(t_address,t_bool)"
      },
      {
        "astId": 6865,
        "contract": "contracts/VoterProxy.sol:VoterProxy",
        "label": "protectedTokens",
        "offset": 0,
        "slot": "4",
        "type": "t_mapping(t_address,t_bool)"
      }
    ],
    "types": {
      "t_address": {
        "encoding": "inplace",
        "label": "address",
        "numberOfBytes": "20"
      },
      "t_bool": {
        "encoding": "inplace",
        "label": "bool",
        "numberOfBytes": "1"
      },
      "t_mapping(t_address,t_bool)": {
        "encoding": "mapping",
        "key": "t_address",
        "label": "mapping(address => bool)",
        "numberOfBytes": "32",
        "value": "t_bool"
      }
    }
  }
}