{
  "address": "0x196eE7C235D45799D2091166BE115Bd049e6b9d3",
  "abi": [
    {
      "inputs": [
        {
          "internalType": "address",
          "name": "_wethBal",
          "type": "address"
        },
        {
          "internalType": "address",
          "name": "_veBal",
          "type": "address"
        },
        {
          "internalType": "address",
          "name": "_staker",
          "type": "address"
        },
        {
          "internalType": "address",
          "name": "_d2dBal",
          "type": "address"
        }
      ],
      "stateMutability": "nonpayable",
      "type": "constructor"
    },
    {
      "inputs": [],
      "name": "InvalidAmount",
      "type": "error"
    },
    {
      "inputs": [],
      "name": "Unauthorized",
      "type": "error"
    },
    {
      "anonymous": false,
      "inputs": [
        {
          "indexed": false,
          "internalType": "address",
          "name": "newFeeManager",
          "type": "address"
        }
      ],
      "name": "FeeManagerChanged",
      "type": "event"
    },
    {
      "anonymous": false,
      "inputs": [
        {
          "indexed": false,
          "internalType": "uint256",
          "name": "newLockIncentive",
          "type": "uint256"
        }
      ],
      "name": "LockIncentiveChanged",
      "type": "event"
    },
    {
      "inputs": [],
      "name": "FEE_DENOMINATOR",
      "outputs": [
        {
          "internalType": "uint256",
          "name": "",
          "type": "uint256"
        }
      ],
      "stateMutability": "view",
      "type": "function"
    },
    {
      "inputs": [],
      "name": "d2dBal",
      "outputs": [
        {
          "internalType": "address",
          "name": "",
          "type": "address"
        }
      ],
      "stateMutability": "view",
      "type": "function"
    },
    {
      "inputs": [
        {
          "internalType": "uint256",
          "name": "_amount",
          "type": "uint256"
        },
        {
          "internalType": "bool",
          "name": "_lock",
          "type": "bool"
        },
        {
          "internalType": "address",
          "name": "_stakeAddress",
          "type": "address"
        }
      ],
      "name": "deposit",
      "outputs": [],
      "stateMutability": "nonpayable",
      "type": "function"
    },
    {
      "inputs": [
        {
          "internalType": "bool",
          "name": "_lock",
          "type": "bool"
        },
        {
          "internalType": "address",
          "name": "_stakeAddress",
          "type": "address"
        }
      ],
      "name": "depositAll",
      "outputs": [],
      "stateMutability": "nonpayable",
      "type": "function"
    },
    {
      "inputs": [],
      "name": "feeManager",
      "outputs": [
        {
          "internalType": "address",
          "name": "",
          "type": "address"
        }
      ],
      "stateMutability": "view",
      "type": "function"
    },
    {
      "inputs": [],
      "name": "incentiveBal",
      "outputs": [
        {
          "internalType": "uint256",
          "name": "",
          "type": "uint256"
        }
      ],
      "stateMutability": "view",
      "type": "function"
    },
    {
      "inputs": [],
      "name": "initialLock",
      "outputs": [],
      "stateMutability": "nonpayable",
      "type": "function"
    },
    {
      "inputs": [],
      "name": "lockBalancer",
      "outputs": [],
      "stateMutability": "nonpayable",
      "type": "function"
    },
    {
      "inputs": [],
      "name": "lockIncentive",
      "outputs": [
        {
          "internalType": "uint256",
          "name": "",
          "type": "uint256"
        }
      ],
      "stateMutability": "view",
      "type": "function"
    },
    {
      "inputs": [
        {
          "internalType": "address",
          "name": "_feeManager",
          "type": "address"
        }
      ],
      "name": "setFeeManager",
      "outputs": [],
      "stateMutability": "nonpayable",
      "type": "function"
    },
    {
      "inputs": [
        {
          "internalType": "uint256",
          "name": "_lockIncentive",
          "type": "uint256"
        }
      ],
      "name": "setFees",
      "outputs": [],
      "stateMutability": "nonpayable",
      "type": "function"
    },
    {
      "inputs": [],
      "name": "staker",
      "outputs": [
        {
          "internalType": "address",
          "name": "",
          "type": "address"
        }
      ],
      "stateMutability": "view",
      "type": "function"
    },
    {
      "inputs": [],
      "name": "unlockTime",
      "outputs": [
        {
          "internalType": "uint256",
          "name": "",
          "type": "uint256"
        }
      ],
      "stateMutability": "view",
      "type": "function"
    },
    {
      "inputs": [],
      "name": "veBal",
      "outputs": [
        {
          "internalType": "address",
          "name": "",
          "type": "address"
        }
      ],
      "stateMutability": "view",
      "type": "function"
    },
    {
      "inputs": [],
      "name": "wethBal",
      "outputs": [
        {
          "internalType": "address",
          "name": "",
          "type": "address"
        }
      ],
      "stateMutability": "view",
      "type": "function"
    }
  ],
  "transactionHash": "0x9d6d054edd9fa53d88e2f5bf9ea2bb32eceb94a42509351f93475f7edc2dcee9",
  "args": [
    "0xf8a0623ab66F985EfFc1C69D05F1af4BaDB01b00",
    "0x33A99Dcc4C85C014cf12626959111D5898bbCAbF",
    "0x424e01E3101663cf2E27f97cB95dFbC6FdAeE034",
    "0xCB2005B8C9C3BDF116186652a8943FBfc8e0FBAC"
  ],
  "solcInputHash": "ebe1c95c0cd8bda8bee95bcd82211d40",
  "bytecode": "0x610100604052600a6001553480156200001757600080fd5b5060405162001404380380620014048339810160408190526200003a916200008c565b6001600160a01b0393841660805291831660a052821660c0521660e052600080546001600160a01b03191633179055620000e9565b80516001600160a01b03811681146200008757600080fd5b919050565b60008060008060808587031215620000a357600080fd5b620000ae856200006f565b9350620000be602086016200006f565b9250620000ce604086016200006f565b9150620000de606086016200006f565b905092959194509250565b60805160a05160c05160e0516112786200018c600039600081816101ed015281816104d6015281816107ca01526108850152600081816101b3015281816105d201528181610a0e01528181610ac401528181610b7d01528181610c4e0152610d310152600081816101300152610a3901526000818161021c015281816102a101528181610601015281816106d401528181610ba90152610d0f01526112786000f3fe608060405234801561001057600080fd5b50600436106100f55760003560e01c80635ebaf1db11610097578063c17af1a711610066578063c17af1a714610217578063c5230deb1461023e578063d0fb020314610247578063d73792a91461026757600080fd5b80635ebaf1db146101ae57806380ed71e4146101d5578063815a90da146101e8578063836f8f201461020f57600080fd5b80633d18678e116100d35780633d18678e14610177578063472d35b91461018a5780634f805abb1461019d57806350940618146101a557600080fd5b8063215537fd146100fa578063251c1aa31461010f57806334bce9031461012b575b600080fd5b61010d610108366004611088565b610270565b005b61011860035481565b6040519081526020015b60405180910390f35b6101527f000000000000000000000000000000000000000000000000000000000000000081565b60405173ffffffffffffffffffffffffffffffffffffffff9091168152602001610122565b61010d6101853660046110bd565b610333565b61010d6101983660046110d6565b6103c9565b61010d61048d565b61011860015481565b6101527f000000000000000000000000000000000000000000000000000000000000000081565b61010d6101e33660046110f8565b61054f565b6101527f000000000000000000000000000000000000000000000000000000000000000081565b61010d610980565b6101527f000000000000000000000000000000000000000000000000000000000000000081565b61011860025481565b6000546101529073ffffffffffffffffffffffffffffffffffffffff1681565b61011861271081565b6040517f70a082310000000000000000000000000000000000000000000000000000000081523360048201526000907f000000000000000000000000000000000000000000000000000000000000000073ffffffffffffffffffffffffffffffffffffffff16906370a0823190602401602060405180830381865afa1580156102fd573d6000803e3d6000fd5b505050506040513d601f19601f820116820180604052508101906103219190611136565b905061032e81848461054f565b505050565b60005473ffffffffffffffffffffffffffffffffffffffff163314610384576040517f82b4290000000000000000000000000000000000000000000000000000000000815260040160405180910390fd5b601e81116103c65760018190556040518181527f3de926a42b72fa09501ec9644cb235fb5ad75b8263c987761a644d93996976ca906020015b60405180910390a15b50565b60005473ffffffffffffffffffffffffffffffffffffffff16331461041a576040517f82b4290000000000000000000000000000000000000000000000000000000000815260040160405180910390fd5b600080547fffffffffffffffffffffffff00000000000000000000000000000000000000001673ffffffffffffffffffffffffffffffffffffffff83169081179091556040519081527f45d7e621935e768c84854481fb8a41a30200fbe59f86660d5e02dd876563d898906020016103bd565b610495610ce1565b6002541561054d576002546040517f40c10f1900000000000000000000000000000000000000000000000000000000815233600482015260248101919091527f000000000000000000000000000000000000000000000000000000000000000073ffffffffffffffffffffffffffffffffffffffff16906340c10f1990604401600060405180830381600087803b15801561052f57600080fd5b505af1158015610543573d6000803e3d6000fd5b5050600060025550505b565b82600003610589576040517f2c5211c600000000000000000000000000000000000000000000000000000000815260040160405180910390fd5b8115610699576040517f23b872dd00000000000000000000000000000000000000000000000000000000815233600482015273ffffffffffffffffffffffffffffffffffffffff7f000000000000000000000000000000000000000000000000000000000000000081166024830152604482018590527f000000000000000000000000000000000000000000000000000000000000000016906323b872dd906064016020604051808303816000875af115801561064a573d6000803e3d6000fd5b505050506040513d601f19601f8201168201806040525081019061066e919061114f565b50610677610ce1565b600254156106945760025461068c908461119b565b600060025592505b610795565b6040517f23b872dd000000000000000000000000000000000000000000000000000000008152336004820152306024820152604481018490527f000000000000000000000000000000000000000000000000000000000000000073ffffffffffffffffffffffffffffffffffffffff16906323b872dd906064016020604051808303816000875af1158015610732573d6000803e3d6000fd5b505050506040513d601f19601f82011682018060405250810190610756919061114f565b5060006127106001548561076a91906111b3565b61077491906111f0565b9050610780818561122b565b935080600254610790919061119b565b600255505b6040517f40c10f19000000000000000000000000000000000000000000000000000000008152306004820152602481018490527f000000000000000000000000000000000000000000000000000000000000000073ffffffffffffffffffffffffffffffffffffffff16906340c10f1990604401600060405180830381600087803b15801561082357600080fd5b505af1158015610837573d6000803e3d6000fd5b50506040517f095ea7b300000000000000000000000000000000000000000000000000000000815273ffffffffffffffffffffffffffffffffffffffff8481166004830152602482018790527f000000000000000000000000000000000000000000000000000000000000000016925063095ea7b391506044016020604051808303816000875af11580156108d0573d6000803e3d6000fd5b505050506040513d601f19601f820116820180604052508101906108f4919061114f565b506040517f2ee409080000000000000000000000000000000000000000000000000000000081523360048201526024810184905273ffffffffffffffffffffffffffffffffffffffff821690632ee4090890604401600060405180830381600087803b15801561096357600080fd5b505af1158015610977573d6000803e3d6000fd5b50505050505050565b60005473ffffffffffffffffffffffffffffffffffffffff1633146109d1576040517f82b4290000000000000000000000000000000000000000000000000000000000815260040160405180910390fd5b6040517f70a0823100000000000000000000000000000000000000000000000000000000815273ffffffffffffffffffffffffffffffffffffffff7f0000000000000000000000000000000000000000000000000000000000000000811660048301526000917f0000000000000000000000000000000000000000000000000000000000000000909116906370a0823190602401602060405180830381865afa158015610a82573d6000803e3d6000fd5b505050506040513d601f19601f82011682018060405250810190610aa69190611136565b9050806000036103c6576000610ac06301e133804261119b565b90507f000000000000000000000000000000000000000000000000000000000000000073ffffffffffffffffffffffffffffffffffffffff166386d1a69f6040518163ffffffff1660e01b8152600401600060405180830381600087803b158015610b2a57600080fd5b505af1158015610b3e573d6000803e3d6000fd5b50506040517f70a0823100000000000000000000000000000000000000000000000000000000815273ffffffffffffffffffffffffffffffffffffffff7f000000000000000000000000000000000000000000000000000000000000000081166004830152600093507f00000000000000000000000000000000000000000000000000000000000000001691506370a0823190602401602060405180830381865afa158015610bf1573d6000803e3d6000fd5b505050506040513d601f19601f82011682018060405250810190610c159190611136565b6040517fb52c05fe00000000000000000000000000000000000000000000000000000000815260048101829052602481018490529091507f000000000000000000000000000000000000000000000000000000000000000073ffffffffffffffffffffffffffffffffffffffff169063b52c05fe90604401600060405180830381600087803b158015610ca757600080fd5b505af1158015610cbb573d6000803e3d6000fd5b5050505062093a808083610ccf91906111f0565b610cd991906111b3565b600355505050565b6040517f70a082310000000000000000000000000000000000000000000000000000000081523060048201527f0000000000000000000000000000000000000000000000000000000000000000907f00000000000000000000000000000000000000000000000000000000000000009060009073ffffffffffffffffffffffffffffffffffffffff8416906370a0823190602401602060405180830381865afa158015610d92573d6000803e3d6000fd5b505050506040513d601f19601f82011682018060405250810190610db69190611136565b90508015610e59576040517fa9059cbb00000000000000000000000000000000000000000000000000000000815273ffffffffffffffffffffffffffffffffffffffff83811660048301526024820183905284169063a9059cbb906044016020604051808303816000875af1158015610e33573d6000803e3d6000fd5b505050506040513d601f19601f82011682018060405250810190610e57919061114f565b505b6040517f70a0823100000000000000000000000000000000000000000000000000000000815273ffffffffffffffffffffffffffffffffffffffff8381166004830152600091908516906370a0823190602401602060405180830381865afa158015610ec9573d6000803e3d6000fd5b505050506040513d601f19601f82011682018060405250810190610eed9190611136565b905080600003610efd5750505050565b6040517f15456eba0000000000000000000000000000000000000000000000000000000081526004810182905273ffffffffffffffffffffffffffffffffffffffff8416906315456eba90602401600060405180830381600087803b158015610f6557600080fd5b505af1158015610f79573d6000803e3d6000fd5b5050505060006301e1338042610f8f919061119b565b9050600062093a80610fa181846111f0565b610fab91906111b3565b9050600260035482610fbd919061122b565b1115611049576040517f3c9a2a1a0000000000000000000000000000000000000000000000000000000081526004810183905273ffffffffffffffffffffffffffffffffffffffff861690633c9a2a1a90602401600060405180830381600087803b15801561102b57600080fd5b505af115801561103f573d6000803e3d6000fd5b5050506003839055505b505050505050565b80151581146103c657600080fd5b803573ffffffffffffffffffffffffffffffffffffffff8116811461108357600080fd5b919050565b6000806040838503121561109b57600080fd5b82356110a681611051565b91506110b46020840161105f565b90509250929050565b6000602082840312156110cf57600080fd5b5035919050565b6000602082840312156110e857600080fd5b6110f18261105f565b9392505050565b60008060006060848603121561110d57600080fd5b83359250602084013561111f81611051565b915061112d6040850161105f565b90509250925092565b60006020828403121561114857600080fd5b5051919050565b60006020828403121561116157600080fd5b81516110f181611051565b7f4e487b7100000000000000000000000000000000000000000000000000000000600052601160045260246000fd5b600082198211156111ae576111ae61116c565b500190565b6000817fffffffffffffffffffffffffffffffffffffffffffffffffffffffffffffffff04831182151516156111eb576111eb61116c565b500290565b600082611226577f4e487b7100000000000000000000000000000000000000000000000000000000600052601260045260246000fd5b500490565b60008282101561123d5761123d61116c565b50039056fea2646970667358221220c7f8b4ba9e7dbef986c08a5051b4bf8d0015270d7b6f7f68a5061fb995302e9f64736f6c634300080e0033",
  "devdoc": {
    "details": "Deposit contract for Prime Pools is based on the convex contract",
    "kind": "dev",
    "methods": {
      "deposit(uint256,bool,address)": {
        "details": "VoterProxy `staker` is responsible for sending Weth/Bal tokens to veBal contract via _locktoken() All of the minted d2dBal will be automatically staked to the Rewards contract",
        "params": {
          "_amount": "The amount of tokens user wants to stake",
          "_lock": "boolean whether depositor wants to lock funds immediately",
          "_stakeAddress": "The Reward contract address"
        }
      },
      "depositAll(bool,address)": {
        "params": {
          "_lock": "boolean whether depositor wants to lock funds immediately",
          "_stakeAddress": "The Reward contract address"
        }
      },
      "lockBalancer()": {
        "details": "Needed in order to lockFunds on behalf of someone else"
      },
      "setFeeManager(address)": {
        "params": {
          "_feeManager": "The address of the fee manager"
        }
      },
      "setFees(uint256)": {
        "params": {
          "_lockIncentive": "Time to lock tokens"
        }
      }
    },
    "title": "BalDepositor contract",
    "version": 1
  },
  "userdoc": {
    "kind": "user",
    "methods": {
      "deposit(uint256,bool,address)": {
        "notice": "Locks initial balance of Weth/Bal in Voter Proxy. Then stakes `_amount` of Weth/Bal tokens to veBal contract Mints & stakes d2dBal in Rewards contract on behalf of caller"
      },
      "depositAll(bool,address)": {
        "notice": "Deposits entire Weth/Bal balance of caller. Stakes same amount in Rewards contract"
      },
      "initialLock()": {
        "notice": "Locks initial Weth/Bal balance in veBal contract via voterProxy contract"
      },
      "lockBalancer()": {
        "notice": "Locks tokens in vBal contract and mints reward tokens to sender"
      },
      "setFeeManager(address)": {
        "notice": "Sets the contracts feeManager variable"
      },
      "setFees(uint256)": {
        "notice": "Sets the lock incentive variable"
      }
    },
    "version": 1
  },
  "storageLayout": {
    "storage": [
      {
        "astId": 2543,
        "contract": "contracts/BalDepositor.sol:BalDepositor",
        "label": "feeManager",
        "offset": 0,
        "slot": "0",
        "type": "t_address"
      },
      {
        "astId": 2546,
        "contract": "contracts/BalDepositor.sol:BalDepositor",
        "label": "lockIncentive",
        "offset": 0,
        "slot": "1",
        "type": "t_uint256"
      },
      {
        "astId": 2548,
        "contract": "contracts/BalDepositor.sol:BalDepositor",
        "label": "incentiveBal",
        "offset": 0,
        "slot": "2",
        "type": "t_uint256"
      },
      {
        "astId": 2550,
        "contract": "contracts/BalDepositor.sol:BalDepositor",
        "label": "unlockTime",
        "offset": 0,
        "slot": "3",
        "type": "t_uint256"
      }
    ],
    "types": {
      "t_address": {
        "encoding": "inplace",
        "label": "address",
        "numberOfBytes": "20"
      },
      "t_uint256": {
        "encoding": "inplace",
        "label": "uint256",
        "numberOfBytes": "32"
      }
    }
  }
}