{
  "address": "0x82bE00cCc2c14864be34f8a0386D244Ce2d122E5",
  "abi": [
    {
      "inputs": [
        {
          "internalType": "uint256",
          "name": "pid_",
          "type": "uint256"
        },
        {
          "internalType": "address",
          "name": "stakingToken_",
          "type": "address"
        },
        {
          "internalType": "address",
          "name": "rewardToken_",
          "type": "address"
        },
        {
          "internalType": "address",
          "name": "operator_",
          "type": "address"
        },
        {
          "internalType": "address",
          "name": "rewardManager_",
          "type": "address"
        }
      ],
      "stateMutability": "nonpayable",
      "type": "constructor"
    },
    {
      "inputs": [],
      "name": "InvalidAmount",
      "type": "error"
    },
    {
      "inputs": [],
      "name": "Unauthorized",
      "type": "error"
    },
    {
      "anonymous": false,
      "inputs": [
        {
          "indexed": false,
          "internalType": "uint256",
          "name": "reward",
          "type": "uint256"
        }
      ],
      "name": "RewardAdded",
      "type": "event"
    },
    {
      "anonymous": false,
      "inputs": [
        {
          "indexed": true,
          "internalType": "address",
          "name": "user",
          "type": "address"
        },
        {
          "indexed": false,
          "internalType": "uint256",
          "name": "reward",
          "type": "uint256"
        }
      ],
      "name": "RewardPaid",
      "type": "event"
    },
    {
      "anonymous": false,
      "inputs": [
        {
          "indexed": true,
          "internalType": "address",
          "name": "user",
          "type": "address"
        },
        {
          "indexed": false,
          "internalType": "uint256",
          "name": "amount",
          "type": "uint256"
        }
      ],
      "name": "Staked",
      "type": "event"
    },
    {
      "anonymous": false,
      "inputs": [
        {
          "indexed": true,
          "internalType": "address",
          "name": "user",
          "type": "address"
        },
        {
          "indexed": false,
          "internalType": "uint256",
          "name": "amount",
          "type": "uint256"
        }
      ],
      "name": "Withdrawn",
      "type": "event"
    },
    {
      "inputs": [],
      "name": "DURATION",
      "outputs": [
        {
          "internalType": "uint256",
          "name": "",
          "type": "uint256"
        }
      ],
      "stateMutability": "view",
      "type": "function"
    },
    {
      "inputs": [],
      "name": "NEW_REWARD_RATIO",
      "outputs": [
        {
          "internalType": "uint256",
          "name": "",
          "type": "uint256"
        }
      ],
      "stateMutability": "view",
      "type": "function"
    },
    {
      "inputs": [
        {
          "internalType": "address",
          "name": "_reward",
          "type": "address"
        }
      ],
      "name": "addExtraReward",
      "outputs": [],
      "stateMutability": "nonpayable",
      "type": "function"
    },
    {
      "inputs": [
        {
          "internalType": "address",
          "name": "account",
          "type": "address"
        }
      ],
      "name": "balanceOf",
      "outputs": [
        {
          "internalType": "uint256",
          "name": "",
          "type": "uint256"
        }
      ],
      "stateMutability": "view",
      "type": "function"
    },
    {
      "inputs": [],
      "name": "currentRewards",
      "outputs": [
        {
          "internalType": "uint256",
          "name": "",
          "type": "uint256"
        }
      ],
      "stateMutability": "view",
      "type": "function"
    },
    {
      "inputs": [
        {
          "internalType": "uint256",
          "name": "_amount",
          "type": "uint256"
        }
      ],
      "name": "donate",
      "outputs": [],
      "stateMutability": "nonpayable",
      "type": "function"
    },
    {
      "inputs": [
        {
          "internalType": "address",
          "name": "account",
          "type": "address"
        }
      ],
      "name": "earned",
      "outputs": [
        {
          "internalType": "uint256",
          "name": "",
          "type": "uint256"
        }
      ],
      "stateMutability": "view",
      "type": "function"
    },
    {
      "inputs": [
        {
          "internalType": "uint256",
          "name": "",
          "type": "uint256"
        }
      ],
      "name": "extraRewards",
      "outputs": [
        {
          "internalType": "address",
          "name": "",
          "type": "address"
        }
      ],
      "stateMutability": "view",
      "type": "function"
    },
    {
      "inputs": [],
      "name": "extraRewardsLength",
      "outputs": [
        {
          "internalType": "uint256",
          "name": "",
          "type": "uint256"
        }
      ],
      "stateMutability": "view",
      "type": "function"
    },
    {
      "inputs": [],
      "name": "getReward",
      "outputs": [],
      "stateMutability": "nonpayable",
      "type": "function"
    },
    {
      "inputs": [
        {
          "internalType": "address",
          "name": "_account",
          "type": "address"
        },
        {
          "internalType": "bool",
          "name": "_claimExtras",
          "type": "bool"
        }
      ],
      "name": "getReward",
      "outputs": [],
      "stateMutability": "nonpayable",
      "type": "function"
    },
    {
      "inputs": [],
      "name": "historicalRewards",
      "outputs": [
        {
          "internalType": "uint256",
          "name": "",
          "type": "uint256"
        }
      ],
      "stateMutability": "view",
      "type": "function"
    },
    {
      "inputs": [],
      "name": "lastTimeRewardApplicable",
      "outputs": [
        {
          "internalType": "uint256",
          "name": "",
          "type": "uint256"
        }
      ],
      "stateMutability": "view",
      "type": "function"
    },
    {
      "inputs": [],
      "name": "lastUpdateTime",
      "outputs": [
        {
          "internalType": "uint256",
          "name": "",
          "type": "uint256"
        }
      ],
      "stateMutability": "view",
      "type": "function"
    },
    {
      "inputs": [],
      "name": "operator",
      "outputs": [
        {
          "internalType": "address",
          "name": "",
          "type": "address"
        }
      ],
      "stateMutability": "view",
      "type": "function"
    },
    {
      "inputs": [],
      "name": "periodFinish",
      "outputs": [
        {
          "internalType": "uint256",
          "name": "",
          "type": "uint256"
        }
      ],
      "stateMutability": "view",
      "type": "function"
    },
    {
      "inputs": [],
      "name": "pid",
      "outputs": [
        {
          "internalType": "uint256",
          "name": "",
          "type": "uint256"
        }
      ],
      "stateMutability": "view",
      "type": "function"
    },
    {
      "inputs": [
        {
          "internalType": "uint256",
          "name": "_rewards",
          "type": "uint256"
        }
      ],
      "name": "queueNewRewards",
      "outputs": [],
      "stateMutability": "nonpayable",
      "type": "function"
    },
    {
      "inputs": [],
      "name": "queuedRewards",
      "outputs": [
        {
          "internalType": "uint256",
          "name": "",
          "type": "uint256"
        }
      ],
      "stateMutability": "view",
      "type": "function"
    },
    {
      "inputs": [],
      "name": "rewardManager",
      "outputs": [
        {
          "internalType": "address",
          "name": "",
          "type": "address"
        }
      ],
      "stateMutability": "view",
      "type": "function"
    },
    {
      "inputs": [],
      "name": "rewardPerToken",
      "outputs": [
        {
          "internalType": "uint256",
          "name": "",
          "type": "uint256"
        }
      ],
      "stateMutability": "view",
      "type": "function"
    },
    {
      "inputs": [],
      "name": "rewardPerTokenStored",
      "outputs": [
        {
          "internalType": "uint256",
          "name": "",
          "type": "uint256"
        }
      ],
      "stateMutability": "view",
      "type": "function"
    },
    {
      "inputs": [],
      "name": "rewardRate",
      "outputs": [
        {
          "internalType": "uint256",
          "name": "",
          "type": "uint256"
        }
      ],
      "stateMutability": "view",
      "type": "function"
    },
    {
      "inputs": [],
      "name": "rewardToken",
      "outputs": [
        {
          "internalType": "contract IERC20",
          "name": "",
          "type": "address"
        }
      ],
      "stateMutability": "view",
      "type": "function"
    },
    {
      "inputs": [
        {
          "internalType": "address",
          "name": "",
          "type": "address"
        }
      ],
      "name": "rewards",
      "outputs": [
        {
          "internalType": "uint256",
          "name": "",
          "type": "uint256"
        }
      ],
      "stateMutability": "view",
      "type": "function"
    },
    {
      "inputs": [
        {
          "internalType": "uint256",
          "name": "_amount",
          "type": "uint256"
        }
      ],
      "name": "stake",
      "outputs": [],
      "stateMutability": "nonpayable",
      "type": "function"
    },
    {
      "inputs": [],
      "name": "stakeAll",
      "outputs": [],
      "stateMutability": "nonpayable",
      "type": "function"
    },
    {
      "inputs": [
        {
          "internalType": "address",
          "name": "_for",
          "type": "address"
        },
        {
          "internalType": "uint256",
          "name": "_amount",
          "type": "uint256"
        }
      ],
      "name": "stakeFor",
      "outputs": [],
      "stateMutability": "nonpayable",
      "type": "function"
    },
    {
      "inputs": [],
      "name": "stakingToken",
      "outputs": [
        {
          "internalType": "contract IERC20",
          "name": "",
          "type": "address"
        }
      ],
      "stateMutability": "view",
      "type": "function"
    },
    {
      "inputs": [],
      "name": "totalSupply",
      "outputs": [
        {
          "internalType": "uint256",
          "name": "",
          "type": "uint256"
        }
      ],
      "stateMutability": "view",
      "type": "function"
    },
    {
      "inputs": [
        {
          "internalType": "address",
          "name": "",
          "type": "address"
        }
      ],
      "name": "userRewardPerTokenPaid",
      "outputs": [
        {
          "internalType": "uint256",
          "name": "",
          "type": "uint256"
        }
      ],
      "stateMutability": "view",
      "type": "function"
    },
    {
      "inputs": [
        {
          "internalType": "uint256",
          "name": "_amount",
          "type": "uint256"
        },
        {
          "internalType": "bool",
          "name": "_claim",
          "type": "bool"
        }
      ],
      "name": "withdraw",
      "outputs": [],
      "stateMutability": "nonpayable",
      "type": "function"
    },
    {
      "inputs": [
        {
          "internalType": "bool",
          "name": "_claim",
          "type": "bool"
        }
      ],
      "name": "withdrawAll",
      "outputs": [],
      "stateMutability": "nonpayable",
      "type": "function"
    },
    {
      "inputs": [
        {
          "internalType": "bool",
          "name": "_claim",
          "type": "bool"
        }
      ],
      "name": "withdrawAllAndUnwrap",
      "outputs": [],
      "stateMutability": "nonpayable",
      "type": "function"
    },
    {
      "inputs": [
        {
          "internalType": "uint256",
          "name": "_amount",
          "type": "uint256"
        },
        {
          "internalType": "bool",
          "name": "_claim",
          "type": "bool"
        }
      ],
      "name": "withdrawAndUnwrap",
      "outputs": [],
      "stateMutability": "nonpayable",
      "type": "function"
    }
  ],
  "transactionHash": "0xab07179bd7bc5429ef04ea0f961cef7950855b17d6078f6f6df0931479e60c4f",
  "args": [
    0,
    "0xC9261Ae09349D043A7078378a7D7681F54349c36",
    "0xfa8449189744799ad2ace7e0ebac8bb7575eff47",
    "0xB6d123953E292f9f25abd795F5faE53fB4e1e5d2",
    "0x6B8D579B0364955d047A19a2B4CC62Ca765D66c2"
  ],
  "solcInputHash": "82c5721fa3575cbe537c986d26759d4a",
  "bytecode": "0x6101006040523480156200001257600080fd5b5060405162001ced38038062001ced83398101604081905262000035916200007b565b6000949094556001600160a01b0392831660a052908216608052811660c0521660e052620000e2565b80516001600160a01b03811681146200007657600080fd5b919050565b600080600080600060a086880312156200009457600080fd5b85519450620000a6602087016200005e565b9350620000b6604087016200005e565b9250620000c6606087016200005e565b9150620000d6608087016200005e565b90509295509295909350565b60805160a05160c05160e051611b926200015b600039600081816102900152610b4b01526000818161036901528181610a3b015261139b015260008181610408015281816107160152818161092101528181610fd601526111a90152600081816104de01528181610d9a01526114cb0152611b926000f3fe608060405234801561001057600080fd5b50600436106102405760003560e01c80637050ccd911610145578063c32e7202116100bd578063df136d651161008c578063f106845411610071578063f1068454146104bd578063f14faf6f146104c6578063f7c618c1146104d957600080fd5b8063df136d65146104ab578063ebe2b12b146104b457600080fd5b8063c32e72021461047f578063c8f33c9114610492578063cd3daf9d1461049b578063d55a23f4146104a357600080fd5b806380faa57d116101145780638dcb4061116100f95780638dcb40611461045b578063901a7d5314610463578063a694fc3a1461046c57600080fd5b806380faa57d146104335780638b8763471461043b57600080fd5b80637050ccd9146103ba57806370a08231146103cd57806372f702f3146104035780637b0a47ee1461042a57600080fd5b806338d07436116101d85780634cfe2f4a116101a7578063590a41f51161018c578063590a41f51461038b5780635e43c47b1461039e57806363d38c3b146103b157600080fd5b80634cfe2f4a1461035b578063570ca7351461036457600080fd5b806338d074361461031a5780633d18b9121461032d57806340c354461461033557806349f039a21461034857600080fd5b80631be05289116102145780631be05289146102df5780631c1c6fe5146102e9578063262d3d6d146102fe5780632ee409081461030757600080fd5b80628cc262146102455780630700037d1461026b5780630f4ef8a61461028b57806318160ddd146102d7575b600080fd5b61025861025336600461193c565b610500565b6040519081526020015b60405180910390f35b61025861027936600461193c565b600a6020526000908152604090205481565b6102b27f000000000000000000000000000000000000000000000000000000000000000081565b60405173ffffffffffffffffffffffffffffffffffffffff9091168152602001610262565b600854610258565b61025862093a8081565b6102fc6102f7366004611965565b610597565b005b61025860075481565b6102fc610315366004611982565b6105b4565b6102fc6103283660046119ac565b6107db565b6102fc6109db565b6102b26103433660046119dc565b6109e8565b6102fc610356366004611965565b610a1f565b61025861033e81565b6102b27f000000000000000000000000000000000000000000000000000000000000000081565b6102fc6103993660046119dc565b610a39565b6102fc6103ac36600461193c565b610b49565b61025860055481565b6102fc6103c83660046119f5565b610cb2565b6102586103db36600461193c565b73ffffffffffffffffffffffffffffffffffffffff166000908152600b602052604090205490565b6102b27f000000000000000000000000000000000000000000000000000000000000000081565b61025860025481565b610258610f92565b61025861044936600461193c565b60096020526000908152604090205481565b6102fc610fa5565b61025860065481565b6102fc61047a3660046119dc565b61105d565b6102fc61048d3660046119ac565b611250565b61025860035481565b610258611429565b600c54610258565b61025860045481565b61025860015481565b61025860005481565b6102fc6104d43660046119dc565b611490565b6102b27f000000000000000000000000000000000000000000000000000000000000000081565b73ffffffffffffffffffffffffffffffffffffffff81166000908152600a60209081526040808320546009909252822054670de0b6b3a764000090610543611429565b61054d9190611a50565b73ffffffffffffffffffffffffffffffffffffffff85166000908152600b602052604090205461057d9190611a67565b6105879190611aa4565b6105919190611adf565b92915050565b336000908152600b60205260409020546105b190826107db565b50565b816105bd611429565b6004556105c8610f92565b60035573ffffffffffffffffffffffffffffffffffffffff811615610629576105f081610500565b73ffffffffffffffffffffffffffffffffffffffff82166000908152600a60209081526040808320939093556004546009909152919020555b6001821015610664576040517f2c5211c600000000000000000000000000000000000000000000000000000000815260040160405180910390fd5b61066e8383611562565b8160085461067c9190611adf565b60085573ffffffffffffffffffffffffffffffffffffffff83166000908152600b60205260409020546106b0908390611adf565b73ffffffffffffffffffffffffffffffffffffffff8481166000908152600b6020526040908190209290925590517f23b872dd000000000000000000000000000000000000000000000000000000008152336004820152306024820152604481018490527f0000000000000000000000000000000000000000000000000000000000000000909116906323b872dd906064016020604051808303816000875af1158015610761573d6000803e3d6000fd5b505050506040513d601f19601f820116820180604052508101906107859190611af7565b508273ffffffffffffffffffffffffffffffffffffffff167f9e71bc8eea02a63969f509818f2dafb9254532904319f9dbda79b67bd34a5f3d836040516107ce91815260200190565b60405180910390a2505050565b336107e4611429565b6004556107ef610f92565b60035573ffffffffffffffffffffffffffffffffffffffff8116156108505761081781610500565b73ffffffffffffffffffffffffffffffffffffffff82166000908152600a60209081526040808320939093556004546009909152919020555b600183101561088b576040517f2c5211c600000000000000000000000000000000000000000000000000000000815260040160405180910390fd5b6108953384611691565b826008546108a39190611a50565b600855336000908152600b60205260409020546108c1908490611a50565b336000818152600b6020526040908190209290925590517fa9059cbb00000000000000000000000000000000000000000000000000000000815260048101919091526024810184905273ffffffffffffffffffffffffffffffffffffffff7f0000000000000000000000000000000000000000000000000000000000000000169063a9059cbb906044016020604051808303816000875af115801561096a573d6000803e3d6000fd5b505050506040513d601f19601f8201168201806040525081019061098e9190611af7565b5060405183815233907f7084f5476618d8e60b11ef0d7d3f06914655adb8793e28ff7f018d4c76d505d5906020015b60405180910390a281156109d6576109d6336001610cb2565b505050565b6109e6336001610cb2565b565b600c81815481106109f857600080fd5b60009182526020909120015473ffffffffffffffffffffffffffffffffffffffff16905081565b336000908152600b60205260409020546105b19082611250565b7f00000000000000000000000000000000000000000000000000000000000000003373ffffffffffffffffffffffffffffffffffffffff821614610aa9576040517f82b4290000000000000000000000000000000000000000000000000000000000815260040160405180910390fd5b600554610ab69083611adf565b91506001544210610ad357610aca826117c0565b60006005555050565b600062093a80600154610ae69190611a50565b610af09042611a50565b9050600081600254610b029190611a67565b9050600084610b13836103e8611a67565b610b1d9190611aa4565b905061033e811015610b3c57610b32856117c0565b6000600555610b42565b60058590555b5050505050565b7f00000000000000000000000000000000000000000000000000000000000000003373ffffffffffffffffffffffffffffffffffffffff821614610bb9576040517f82b4290000000000000000000000000000000000000000000000000000000000815260040160405180910390fd5b73ffffffffffffffffffffffffffffffffffffffff8216610c3a576040517f08c379a000000000000000000000000000000000000000000000000000000000815260206004820152600f60248201527f217265776172642073657474696e670000000000000000000000000000000000604482015260640160405180910390fd5b50600c80546001810182556000919091527fdf6966c971051c3d54ec59162606531493a51404a002842f56009d7e5cf4a8c70180547fffffffffffffffffffffffff00000000000000000000000000000000000000001673ffffffffffffffffffffffffffffffffffffffff92909216919091179055565b81610cbb611429565b600455610cc6610f92565b60035573ffffffffffffffffffffffffffffffffffffffff811615610d2757610cee81610500565b73ffffffffffffffffffffffffffffffffffffffff82166000908152600a60209081526040808320939093556004546009909152919020555b6000610d3284610500565b90508015610e5b5773ffffffffffffffffffffffffffffffffffffffff8481166000818152600a602052604080822091909155517fa9059cbb0000000000000000000000000000000000000000000000000000000081526004810191909152602481018390527f00000000000000000000000000000000000000000000000000000000000000009091169063a9059cbb906044016020604051808303816000875af1158015610de5573d6000803e3d6000fd5b505050506040513d601f19601f82011682018060405250810190610e099190611af7565b508373ffffffffffffffffffffffffffffffffffffffff167fe2403640ba68fed3a2f88b7557551d1993f84b99bb10ff833f0cf8db0c5e048682604051610e5291815260200190565b60405180910390a25b8215610f8c576000600c805480602002602001604051908101604052809291908181526020018280548015610ec657602002820191906000526020600020905b815473ffffffffffffffffffffffffffffffffffffffff168152600190910190602001808311610e9b575b5050505050905060005b8151811015610f8957818181518110610eeb57610eeb611b14565b60209081029190910101516040517fc00007b000000000000000000000000000000000000000000000000000000000815273ffffffffffffffffffffffffffffffffffffffff88811660048301529091169063c00007b090602401600060405180830381600087803b158015610f6057600080fd5b505af1158015610f74573d6000803e3d6000fd5b50505050610f828160010190565b9050610ed0565b50505b50505050565b6000610fa0426001546118fb565b905090565b6040517f70a082310000000000000000000000000000000000000000000000000000000081523360048201526000907f000000000000000000000000000000000000000000000000000000000000000073ffffffffffffffffffffffffffffffffffffffff16906370a0823190602401602060405180830381865afa158015611032573d6000803e3d6000fd5b505050506040513d601f19601f820116820180604052508101906110569190611b43565b90506105b1815b33611066611429565b600455611071610f92565b60035573ffffffffffffffffffffffffffffffffffffffff8116156110d25761109981610500565b73ffffffffffffffffffffffffffffffffffffffff82166000908152600a60209081526040808320939093556004546009909152919020555b600182101561110d576040517f2c5211c600000000000000000000000000000000000000000000000000000000815260040160405180910390fd5b6111173383611562565b816008546111259190611adf565b600855336000908152600b6020526040902054611143908390611adf565b336000818152600b6020526040908190209290925590517f23b872dd00000000000000000000000000000000000000000000000000000000815260048101919091523060248201526044810183905273ffffffffffffffffffffffffffffffffffffffff7f000000000000000000000000000000000000000000000000000000000000000016906323b872dd906064016020604051808303816000875af11580156111f2573d6000803e3d6000fd5b505050506040513d601f19601f820116820180604052508101906112169190611af7565b5060405182815233907f9e71bc8eea02a63969f509818f2dafb9254532904319f9dbda79b67bd34a5f3d9060200160405180910390a25050565b33611259611429565b600455611264610f92565b60035573ffffffffffffffffffffffffffffffffffffffff8116156112c55761128c81610500565b73ffffffffffffffffffffffffffffffffffffffff82166000908152600a60209081526040808320939093556004546009909152919020555b6001831015611300576040517f2c5211c600000000000000000000000000000000000000000000000000000000815260040160405180910390fd5b61130a3384611691565b826008546113189190611a50565b600855336000908152600b6020526040902054611336908490611a50565b336000818152600b6020526040808220939093555491517f14cd70e4000000000000000000000000000000000000000000000000000000008152600481019290925260248201859052604482015273ffffffffffffffffffffffffffffffffffffffff7f000000000000000000000000000000000000000000000000000000000000000016906314cd70e490606401600060405180830381600087803b1580156113df57600080fd5b505af11580156113f3573d6000803e3d6000fd5b50506040518581523392507f7084f5476618d8e60b11ef0d7d3f06914655adb8793e28ff7f018d4c76d505d591506020016109bd565b600061143460085490565b600003611442575060045490565b600854600254600354611453610f92565b61145d9190611a50565b6114679190611a67565b61147990670de0b6b3a7640000611a67565b6114839190611aa4565b600454610fa09190611adf565b6040517f23b872dd000000000000000000000000000000000000000000000000000000008152336004820152306024820152604481018290527f000000000000000000000000000000000000000000000000000000000000000073ffffffffffffffffffffffffffffffffffffffff16906323b872dd906064016020604051808303816000875af1158015611529573d6000803e3d6000fd5b505050506040513d601f19601f8201168201806040525081019061154d9190611af7565b508060055461155c9190611adf565b60055550565b6000600c8054806020026020016040519081016040528092919081815260200182805480156115c757602002820191906000526020600020905b815473ffffffffffffffffffffffffffffffffffffffff16815260019091019060200180831161159c575b5050505050905060005b8151811015610f8c578181815181106115ec576115ec611b14565b60209081029190910101516040517fadc9772e00000000000000000000000000000000000000000000000000000000815273ffffffffffffffffffffffffffffffffffffffff8681166004830152602482018690529091169063adc9772e90604401600060405180830381600087803b15801561166857600080fd5b505af115801561167c573d6000803e3d6000fd5b5050505061168a8160010190565b90506115d1565b6000600c8054806020026020016040519081016040528092919081815260200182805480156116f657602002820191906000526020600020905b815473ffffffffffffffffffffffffffffffffffffffff1681526001909101906020018083116116cb575b5050505050905060005b8151811015610f8c5781818151811061171b5761171b611b14565b60209081029190910101516040517ff3fef3a300000000000000000000000000000000000000000000000000000000815273ffffffffffffffffffffffffffffffffffffffff8681166004830152602482018690529091169063f3fef3a390604401600060405180830381600087803b15801561179757600080fd5b505af11580156117ab573d6000803e3d6000fd5b505050506117b98160010190565b9050611700565b60006117ca611429565b6004556117d5610f92565b60035573ffffffffffffffffffffffffffffffffffffffff811615611836576117fd81610500565b73ffffffffffffffffffffffffffffffffffffffff82166000908152600a60209081526040808320939093556004546009909152919020555b816007546118449190611adf565b60075560015442106118655761185d62093a8083611aa4565b6002556118a8565b6000426001546118759190611a50565b90506000600254826118879190611a67565b90506118938185611adf565b93506118a262093a8085611aa4565b60025550505b60068290554260038190556118c19062093a8090611adf565b6001556040518281527fde88a922e0d3b88b24e9623efeb464919c6bf9f66857a65e2bfcf2ce87a9433d9060200160405180910390a15050565b600081831061190a578161190c565b825b9392505050565b803573ffffffffffffffffffffffffffffffffffffffff8116811461193757600080fd5b919050565b60006020828403121561194e57600080fd5b61190c82611913565b80151581146105b157600080fd5b60006020828403121561197757600080fd5b813561190c81611957565b6000806040838503121561199557600080fd5b61199e83611913565b946020939093013593505050565b600080604083850312156119bf57600080fd5b8235915060208301356119d181611957565b809150509250929050565b6000602082840312156119ee57600080fd5b5035919050565b60008060408385031215611a0857600080fd5b611a1183611913565b915060208301356119d181611957565b7f4e487b7100000000000000000000000000000000000000000000000000000000600052601160045260246000fd5b600082821015611a6257611a62611a21565b500390565b6000817fffffffffffffffffffffffffffffffffffffffffffffffffffffffffffffffff0483118215151615611a9f57611a9f611a21565b500290565b600082611ada577f4e487b7100000000000000000000000000000000000000000000000000000000600052601260045260246000fd5b500490565b60008219821115611af257611af2611a21565b500190565b600060208284031215611b0957600080fd5b815161190c81611957565b7f4e487b7100000000000000000000000000000000000000000000000000000000600052603260045260246000fd5b600060208284031215611b5557600080fd5b505191905056fea2646970667358221220b014f1a513cf0d9e7f442e2afde8498a8191b302c81ee3fc43d61057773913a164736f6c634300080e0033",
  "devdoc": {
    "details": "Rewards contract for Prime Pools is based on the convex contract",
    "kind": "dev",
    "methods": {
      "addExtraReward(address)": {
        "details": "only `rewardManager` can add extra rewards",
        "params": {
          "_reward": "token address of the reward"
        }
      },
      "balanceOf(address)": {
        "params": {
          "account": "The address of the token holder"
        },
        "returns": {
          "_0": "The `account`'s balance"
        }
      },
      "donate(uint256)": {
        "params": {
          "_amount": "The amount of tokens to donate"
        }
      },
      "earned(address)": {
        "params": {
          "account": "The address of the token holder"
        },
        "returns": {
          "_0": "The `account`'s earned rewards"
        }
      },
      "getReward(address,bool)": {
        "params": {
          "_account": "The account to claim rewards for",
          "_claimExtras": "Whether or not the user wants to claim extra rewards"
        }
      },
      "lastTimeRewardApplicable()": {
        "returns": {
          "_0": "The lower value of current block.timestamp or last time reward applicable"
        }
      },
      "queueNewRewards(uint256)": {
        "details": "Only the operator can queue new rewards",
        "params": {
          "_rewards": "The amount of tokens to queue"
        }
      },
      "rewardPerToken()": {
        "returns": {
          "_0": "The rewards per token staked"
        }
      },
      "stake(uint256)": {
        "params": {
          "_amount": "The amount of tokens user wants to stake"
        }
      },
      "stakeFor(address,uint256)": {
        "params": {
          "_amount": "The amount of tokens user wants to stake",
          "_for": "Who are we staking for"
        }
      },
      "withdraw(uint256,bool)": {
        "params": {
          "_amount": "The amount of tokens that the user wants to withdraw",
          "_claim": "Whether or not the user wants to claim their rewards"
        }
      },
      "withdrawAllAndUnwrap(bool)": {
        "params": {
          "_claim": "Whether or not the user wants to claim their rewards"
        }
      },
      "withdrawAndUnwrap(uint256,bool)": {
        "params": {
          "_amount": "The amount of tokens that the user wants to withdraw",
          "_claim": "Whether or not the user wants to claim their rewards"
        }
      }
    },
    "title": "Base Reward Pool contract",
    "version": 1
  },
  "userdoc": {
    "kind": "user",
    "methods": {
      "addExtraReward(address)": {
        "notice": "Adds an extra reward"
      },
      "balanceOf(address)": {
        "notice": "Get the specified address' balance"
      },
      "donate(uint256)": {
        "notice": "Donates reward token to this contract"
      },
      "earned(address)": {
        "notice": "Returns the `account`'s earned rewards"
      },
      "extraRewardsLength()": {
        "notice": "Returns number of extra rewards"
      },
      "getReward()": {
        "notice": "Claims Reward for signer"
      },
      "getReward(address,bool)": {
        "notice": "Claims Rewards for `_account`"
      },
      "lastTimeRewardApplicable()": {
        "notice": "Returns last time reward applicable"
      },
      "queueNewRewards(uint256)": {
        "notice": "Queue new rewards"
      },
      "rewardPerToken()": {
        "notice": "Returns rewards per token staked"
      },
      "stake(uint256)": {
        "notice": "Stakes `amount` tokens"
      },
      "stakeAll()": {
        "notice": "Stakes all BAL tokens"
      },
      "stakeFor(address,uint256)": {
        "notice": "Stakes `amount` tokens for `_for`"
      },
      "totalSupply()": {
        "notice": "Returns total supply"
      },
      "withdraw(uint256,bool)": {
        "notice": "Unstakes `amount` tokens"
      },
      "withdrawAll(bool)": {
        "notice": "Withdraw all tokens"
      },
      "withdrawAllAndUnwrap(bool)": {
        "notice": "Withdraw all tokens and unwrap"
      },
      "withdrawAndUnwrap(uint256,bool)": {
        "notice": "Withdraw `amount` tokens and unwrap"
      }
    },
    "version": 1
  },
  "storageLayout": {
    "storage": [
      {
        "astId": 3011,
        "contract": "contracts/BaseRewardPool.sol:BaseRewardPool",
        "label": "pid",
        "offset": 0,
        "slot": "0",
        "type": "t_uint256"
      },
      {
        "astId": 3013,
        "contract": "contracts/BaseRewardPool.sol:BaseRewardPool",
        "label": "periodFinish",
        "offset": 0,
        "slot": "1",
        "type": "t_uint256"
      },
      {
        "astId": 3015,
        "contract": "contracts/BaseRewardPool.sol:BaseRewardPool",
        "label": "rewardRate",
        "offset": 0,
        "slot": "2",
        "type": "t_uint256"
      },
      {
        "astId": 3017,
        "contract": "contracts/BaseRewardPool.sol:BaseRewardPool",
        "label": "lastUpdateTime",
        "offset": 0,
        "slot": "3",
        "type": "t_uint256"
      },
      {
        "astId": 3019,
        "contract": "contracts/BaseRewardPool.sol:BaseRewardPool",
        "label": "rewardPerTokenStored",
        "offset": 0,
        "slot": "4",
        "type": "t_uint256"
      },
      {
        "astId": 3021,
        "contract": "contracts/BaseRewardPool.sol:BaseRewardPool",
        "label": "queuedRewards",
        "offset": 0,
        "slot": "5",
        "type": "t_uint256"
      },
      {
        "astId": 3023,
        "contract": "contracts/BaseRewardPool.sol:BaseRewardPool",
        "label": "currentRewards",
        "offset": 0,
        "slot": "6",
        "type": "t_uint256"
      },
      {
        "astId": 3025,
        "contract": "contracts/BaseRewardPool.sol:BaseRewardPool",
        "label": "historicalRewards",
        "offset": 0,
        "slot": "7",
        "type": "t_uint256"
      },
      {
        "astId": 3027,
        "contract": "contracts/BaseRewardPool.sol:BaseRewardPool",
        "label": "_totalSupply",
        "offset": 0,
        "slot": "8",
        "type": "t_uint256"
      },
      {
        "astId": 3031,
        "contract": "contracts/BaseRewardPool.sol:BaseRewardPool",
        "label": "userRewardPerTokenPaid",
        "offset": 0,
        "slot": "9",
        "type": "t_mapping(t_address,t_uint256)"
      },
      {
        "astId": 3035,
        "contract": "contracts/BaseRewardPool.sol:BaseRewardPool",
        "label": "rewards",
        "offset": 0,
        "slot": "10",
        "type": "t_mapping(t_address,t_uint256)"
      },
      {
        "astId": 3039,
        "contract": "contracts/BaseRewardPool.sol:BaseRewardPool",
        "label": "_balances",
        "offset": 0,
        "slot": "11",
        "type": "t_mapping(t_address,t_uint256)"
      },
      {
        "astId": 3042,
        "contract": "contracts/BaseRewardPool.sol:BaseRewardPool",
        "label": "extraRewards",
        "offset": 0,
        "slot": "12",
        "type": "t_array(t_address)dyn_storage"
      }
    ],
    "types": {
      "t_address": {
        "encoding": "inplace",
        "label": "address",
        "numberOfBytes": "20"
      },
      "t_array(t_address)dyn_storage": {
        "base": "t_address",
        "encoding": "dynamic_array",
        "label": "address[]",
        "numberOfBytes": "32"
      },
      "t_mapping(t_address,t_uint256)": {
        "encoding": "mapping",
        "key": "t_address",
        "label": "mapping(address => uint256)",
        "numberOfBytes": "32",
        "value": "t_uint256"
      },
      "t_uint256": {
        "encoding": "inplace",
        "label": "uint256",
        "numberOfBytes": "32"
      }
    }
  }
}