{
  "address": "0x1C82cdDe4559C28b872657ad20af9A469c99857B",
  "abi": [
    {
      "inputs": [
        {
          "internalType": "uint256",
          "name": "pid_",
          "type": "uint256"
        },
        {
          "internalType": "address",
          "name": "stakingToken_",
          "type": "address"
        },
        {
          "internalType": "address",
          "name": "rewardToken_",
          "type": "address"
        },
        {
          "internalType": "address",
          "name": "operator_",
          "type": "address"
        },
        {
          "internalType": "address",
          "name": "rewardManager_",
          "type": "address"
        }
      ],
      "stateMutability": "nonpayable",
      "type": "constructor"
    },
    {
      "inputs": [],
      "name": "InvalidAmount",
      "type": "error"
    },
    {
      "inputs": [],
      "name": "Unauthorized",
      "type": "error"
    },
    {
      "anonymous": false,
      "inputs": [],
      "name": "ExtraRewardsCleared",
      "type": "event"
    },
    {
      "anonymous": false,
      "inputs": [
        {
          "indexed": false,
          "internalType": "uint256",
          "name": "reward",
          "type": "uint256"
        }
      ],
      "name": "RewardAdded",
      "type": "event"
    },
    {
      "anonymous": false,
      "inputs": [
        {
          "indexed": true,
          "internalType": "address",
          "name": "user",
          "type": "address"
        },
        {
          "indexed": false,
          "internalType": "uint256",
          "name": "reward",
          "type": "uint256"
        }
      ],
      "name": "RewardPaid",
      "type": "event"
    },
    {
      "anonymous": false,
      "inputs": [
        {
          "indexed": true,
          "internalType": "address",
          "name": "user",
          "type": "address"
        },
        {
          "indexed": false,
          "internalType": "uint256",
          "name": "amount",
          "type": "uint256"
        }
      ],
      "name": "Staked",
      "type": "event"
    },
    {
      "anonymous": false,
      "inputs": [
        {
          "indexed": true,
          "internalType": "address",
          "name": "user",
          "type": "address"
        },
        {
          "indexed": false,
          "internalType": "uint256",
          "name": "amount",
          "type": "uint256"
        }
      ],
      "name": "Withdrawn",
      "type": "event"
    },
    {
      "inputs": [],
      "name": "DURATION",
      "outputs": [
        {
          "internalType": "uint256",
          "name": "",
          "type": "uint256"
        }
      ],
      "stateMutability": "view",
      "type": "function"
    },
    {
      "inputs": [],
      "name": "NEW_REWARD_RATIO",
      "outputs": [
        {
          "internalType": "uint256",
          "name": "",
          "type": "uint256"
        }
      ],
      "stateMutability": "view",
      "type": "function"
    },
    {
      "inputs": [
        {
          "internalType": "address",
          "name": "_reward",
          "type": "address"
        }
      ],
      "name": "addExtraReward",
      "outputs": [],
      "stateMutability": "nonpayable",
      "type": "function"
    },
    {
      "inputs": [
        {
          "internalType": "address",
          "name": "account",
          "type": "address"
        }
      ],
      "name": "balanceOf",
      "outputs": [
        {
          "internalType": "uint256",
          "name": "",
          "type": "uint256"
        }
      ],
      "stateMutability": "view",
      "type": "function"
    },
    {
      "inputs": [],
      "name": "clearExtraRewards",
      "outputs": [],
      "stateMutability": "nonpayable",
      "type": "function"
    },
    {
      "inputs": [],
      "name": "currentRewards",
      "outputs": [
        {
          "internalType": "uint256",
          "name": "",
          "type": "uint256"
        }
      ],
      "stateMutability": "view",
      "type": "function"
    },
    {
      "inputs": [
        {
          "internalType": "uint256",
          "name": "_amount",
          "type": "uint256"
        }
      ],
      "name": "donate",
      "outputs": [],
      "stateMutability": "nonpayable",
      "type": "function"
    },
    {
      "inputs": [
        {
          "internalType": "address",
          "name": "account",
          "type": "address"
        }
      ],
      "name": "earned",
      "outputs": [
        {
          "internalType": "uint256",
          "name": "",
          "type": "uint256"
        }
      ],
      "stateMutability": "view",
      "type": "function"
    },
    {
      "inputs": [
        {
          "internalType": "uint256",
          "name": "",
          "type": "uint256"
        }
      ],
      "name": "extraRewards",
      "outputs": [
        {
          "internalType": "address",
          "name": "",
          "type": "address"
        }
      ],
      "stateMutability": "view",
      "type": "function"
    },
    {
      "inputs": [],
      "name": "extraRewardsLength",
      "outputs": [
        {
          "internalType": "uint256",
          "name": "",
          "type": "uint256"
        }
      ],
      "stateMutability": "view",
      "type": "function"
    },
    {
      "inputs": [],
      "name": "getReward",
      "outputs": [],
      "stateMutability": "nonpayable",
      "type": "function"
    },
    {
      "inputs": [
        {
          "internalType": "address",
          "name": "_account",
          "type": "address"
        },
        {
          "internalType": "bool",
          "name": "_claimExtras",
          "type": "bool"
        }
      ],
      "name": "getReward",
      "outputs": [],
      "stateMutability": "nonpayable",
      "type": "function"
    },
    {
      "inputs": [],
      "name": "historicalRewards",
      "outputs": [
        {
          "internalType": "uint256",
          "name": "",
          "type": "uint256"
        }
      ],
      "stateMutability": "view",
      "type": "function"
    },
    {
      "inputs": [],
      "name": "lastTimeRewardApplicable",
      "outputs": [
        {
          "internalType": "uint256",
          "name": "",
          "type": "uint256"
        }
      ],
      "stateMutability": "view",
      "type": "function"
    },
    {
      "inputs": [],
      "name": "lastUpdateTime",
      "outputs": [
        {
          "internalType": "uint256",
          "name": "",
          "type": "uint256"
        }
      ],
      "stateMutability": "view",
      "type": "function"
    },
    {
      "inputs": [],
      "name": "operator",
      "outputs": [
        {
          "internalType": "address",
          "name": "",
          "type": "address"
        }
      ],
      "stateMutability": "view",
      "type": "function"
    },
    {
      "inputs": [],
      "name": "periodFinish",
      "outputs": [
        {
          "internalType": "uint256",
          "name": "",
          "type": "uint256"
        }
      ],
      "stateMutability": "view",
      "type": "function"
    },
    {
      "inputs": [],
      "name": "pid",
      "outputs": [
        {
          "internalType": "uint256",
          "name": "",
          "type": "uint256"
        }
      ],
      "stateMutability": "view",
      "type": "function"
    },
    {
      "inputs": [
        {
          "internalType": "uint256",
          "name": "_rewards",
          "type": "uint256"
        }
      ],
      "name": "queueNewRewards",
      "outputs": [],
      "stateMutability": "nonpayable",
      "type": "function"
    },
    {
      "inputs": [],
      "name": "queuedRewards",
      "outputs": [
        {
          "internalType": "uint256",
          "name": "",
          "type": "uint256"
        }
      ],
      "stateMutability": "view",
      "type": "function"
    },
    {
      "inputs": [],
      "name": "rewardManager",
      "outputs": [
        {
          "internalType": "address",
          "name": "",
          "type": "address"
        }
      ],
      "stateMutability": "view",
      "type": "function"
    },
    {
      "inputs": [],
      "name": "rewardPerToken",
      "outputs": [
        {
          "internalType": "uint256",
          "name": "",
          "type": "uint256"
        }
      ],
      "stateMutability": "view",
      "type": "function"
    },
    {
      "inputs": [],
      "name": "rewardPerTokenStored",
      "outputs": [
        {
          "internalType": "uint256",
          "name": "",
          "type": "uint256"
        }
      ],
      "stateMutability": "view",
      "type": "function"
    },
    {
      "inputs": [],
      "name": "rewardRate",
      "outputs": [
        {
          "internalType": "uint256",
          "name": "",
          "type": "uint256"
        }
      ],
      "stateMutability": "view",
      "type": "function"
    },
    {
      "inputs": [],
      "name": "rewardToken",
      "outputs": [
        {
          "internalType": "contract IERC20",
          "name": "",
          "type": "address"
        }
      ],
      "stateMutability": "view",
      "type": "function"
    },
    {
      "inputs": [
        {
          "internalType": "address",
          "name": "",
          "type": "address"
        }
      ],
      "name": "rewards",
      "outputs": [
        {
          "internalType": "uint256",
          "name": "",
          "type": "uint256"
        }
      ],
      "stateMutability": "view",
      "type": "function"
    },
    {
      "inputs": [
        {
          "internalType": "uint256",
          "name": "_amount",
          "type": "uint256"
        }
      ],
      "name": "stake",
      "outputs": [],
      "stateMutability": "nonpayable",
      "type": "function"
    },
    {
      "inputs": [],
      "name": "stakeAll",
      "outputs": [],
      "stateMutability": "nonpayable",
      "type": "function"
    },
    {
      "inputs": [
        {
          "internalType": "address",
          "name": "_for",
          "type": "address"
        },
        {
          "internalType": "uint256",
          "name": "_amount",
          "type": "uint256"
        }
      ],
      "name": "stakeFor",
      "outputs": [],
      "stateMutability": "nonpayable",
      "type": "function"
    },
    {
      "inputs": [],
      "name": "stakingToken",
      "outputs": [
        {
          "internalType": "contract IERC20",
          "name": "",
          "type": "address"
        }
      ],
      "stateMutability": "view",
      "type": "function"
    },
    {
      "inputs": [],
      "name": "totalSupply",
      "outputs": [
        {
          "internalType": "uint256",
          "name": "",
          "type": "uint256"
        }
      ],
      "stateMutability": "view",
      "type": "function"
    },
    {
      "inputs": [
        {
          "internalType": "address",
          "name": "",
          "type": "address"
        }
      ],
      "name": "userRewardPerTokenPaid",
      "outputs": [
        {
          "internalType": "uint256",
          "name": "",
          "type": "uint256"
        }
      ],
      "stateMutability": "view",
      "type": "function"
    },
    {
      "inputs": [
        {
          "internalType": "uint256",
          "name": "_amount",
          "type": "uint256"
        },
        {
          "internalType": "bool",
          "name": "_claim",
          "type": "bool"
        },
        {
          "internalType": "bool",
          "name": "_unwrap",
          "type": "bool"
        }
      ],
      "name": "withdraw",
      "outputs": [],
      "stateMutability": "nonpayable",
      "type": "function"
    },
    {
      "inputs": [
        {
          "internalType": "bool",
          "name": "_claim",
          "type": "bool"
        }
      ],
      "name": "withdrawAll",
      "outputs": [],
      "stateMutability": "nonpayable",
      "type": "function"
    },
    {
      "inputs": [
        {
          "internalType": "bool",
          "name": "_claim",
          "type": "bool"
        }
      ],
      "name": "withdrawAllAndUnwrap",
      "outputs": [],
      "stateMutability": "nonpayable",
      "type": "function"
    }
  ],
  "transactionHash": "0xef73cd27cee0c5d40ad198fd9dafb5d259c44bccd6bba7708033de2647816482",
  "args": [
    0,
    "0x74c019b9eb58E22fF853F91f18da4917378339C6",
    "0xfa8449189744799ad2ace7e0ebac8bb7575eff47",
    "0x4414D7f87D16420A7073a9Cd7d56f995566c3922",
    "0xB98a506e9fb09871FF63b4e7B56Ce9bB067a5120"
  ],
  "solcInputHash": "a7d91ab37d5735063eec3feef42edd7e",
  "bytecode": "0x6101006040523480156200001257600080fd5b5060405162001f6238038062001f6283398101604081905262000035916200007b565b6000949094556001600160a01b0392831660a052908216608052811660c0521660e052620000e2565b80516001600160a01b03811681146200007657600080fd5b919050565b600080600080600060a086880312156200009457600080fd5b85519450620000a6602087016200005e565b9350620000b6604087016200005e565b9250620000c6606087016200005e565b9150620000d6608087016200005e565b90509295509295909350565b60805160a05160c05160e051611e076200015b6000396000818161029a0152610a5b01526000818161035e0152818161058e0152818161094b015261104b0152600081816103fd0152818161082401528181610e8401526110f60152600081816104d301528181610c9101526112540152611e076000f3fe608060405234801561001057600080fd5b50600436106102405760003560e01c80637050ccd911610145578063a694fc3a116100bd578063df136d651161008c578063f106845411610071578063f1068454146104b2578063f14faf6f146104bb578063f7c618c1146104ce57600080fd5b8063df136d65146104a0578063ebe2b12b146104a957600080fd5b8063a694fc3a14610474578063c8f33c9114610487578063cd3daf9d14610490578063d55a23f41461049857600080fd5b806380faa57d116101145780638dcb4061116100f95780638dcb406114610450578063901a7d531461045857806392930b451461046157600080fd5b806380faa57d146104285780638b8763471461043057600080fd5b80637050ccd9146103af57806370a08231146103c257806372f702f3146103f85780637b0a47ee1461041f57600080fd5b80632ee40908116101d85780634cfe2f4a116101a7578063590a41f51161018c578063590a41f5146103805780635e43c47b1461039357806363d38c3b146103a657600080fd5b80634cfe2f4a14610350578063570ca7351461035957600080fd5b80632ee409081461030f5780633d18b9121461032257806340c354461461032a57806349f039a21461033d57600080fd5b806318160ddd1161021457806318160ddd146102e15780631be05289146102e95780631c1c6fe5146102f3578063262d3d6d1461030657600080fd5b80628cc262146102455780630569d3881461026b5780630700037d146102755780630f4ef8a614610295575b600080fd5b610258610253366004611ad8565b6104f5565b6040519081526020015b60405180910390f35b61027361058c565b005b610258610283366004611ad8565b600a6020526000908152604090205481565b6102bc7f000000000000000000000000000000000000000000000000000000000000000081565b60405173ffffffffffffffffffffffffffffffffffffffff9091168152602001610262565b600854610258565b61025862093a8081565b610273610301366004611b03565b6106a4565b61025860075481565b61027361031d366004611b20565b6106c2565b6102736108e9565b6102bc610338366004611b4c565b6108f6565b61027361034b366004611b03565b61092d565b61025861033e81565b6102bc7f000000000000000000000000000000000000000000000000000000000000000081565b61027361038e366004611b4c565b610949565b6102736103a1366004611ad8565b610a59565b61025860055481565b6102736103bd366004611b65565b610bc3565b6102586103d0366004611ad8565b73ffffffffffffffffffffffffffffffffffffffff166000908152600b602052604090205490565b6102bc7f000000000000000000000000000000000000000000000000000000000000000081565b61025860025481565b610258610e40565b61025861043e366004611ad8565b60096020526000908152604090205481565b610273610e53565b61025860065481565b61027361046f366004611b9e565b610f0f565b610273610482366004611b4c565b6111c0565b61025860035481565b6102586111ca565b600c54610258565b61025860045481565b61025860015481565b61025860005481565b6102736104c9366004611b4c565b61123a565b6102bc7f000000000000000000000000000000000000000000000000000000000000000081565b73ffffffffffffffffffffffffffffffffffffffff81166000908152600a60209081526040808320546009909252822054670de0b6b3a7640000906105386111ca565b6105429190611c0f565b73ffffffffffffffffffffffffffffffffffffffff85166000908152600b60205260409020546105729190611c26565b61057c9190611c63565b6105869190611c9e565b92915050565b7f000000000000000000000000000000000000000000000000000000000000000073ffffffffffffffffffffffffffffffffffffffff16638da5cb5b6040518163ffffffff1660e01b81526004016020604051808303816000875af11580156105f9573d6000803e3d6000fd5b505050506040513d601f19601f8201168201806040525081019061061d9190611cb6565b3373ffffffffffffffffffffffffffffffffffffffff82161461066c576040517f82b4290000000000000000000000000000000000000000000000000000000000815260040160405180910390fd5b610678600c6000611a84565b6040517f1a53a10dfbef82dfcf34ce946c284b478164f6e7496a07fc0cbe69d01ff44f0990600090a150565b336000908152600b60205260408120546106bf918390610f0f565b50565b816106cb6111ca565b6004556106d6610e40565b60035573ffffffffffffffffffffffffffffffffffffffff811615610737576106fe816104f5565b73ffffffffffffffffffffffffffffffffffffffff82166000908152600a60209081526040808320939093556004546009909152919020555b6001821015610772576040517f2c5211c600000000000000000000000000000000000000000000000000000000815260040160405180910390fd5b61077c8383611290565b8160085461078a9190611c9e565b60085573ffffffffffffffffffffffffffffffffffffffff83166000908152600b60205260409020546107be908390611c9e565b73ffffffffffffffffffffffffffffffffffffffff8481166000908152600b6020526040908190209290925590517f23b872dd000000000000000000000000000000000000000000000000000000008152336004820152306024820152604481018490527f0000000000000000000000000000000000000000000000000000000000000000909116906323b872dd906064016020604051808303816000875af115801561086f573d6000803e3d6000fd5b505050506040513d601f19601f820116820180604052508101906108939190611cd3565b508273ffffffffffffffffffffffffffffffffffffffff167f9e71bc8eea02a63969f509818f2dafb9254532904319f9dbda79b67bd34a5f3d836040516108dc91815260200190565b60405180910390a2505050565b6108f4336001610bc3565b565b600c818154811061090657600080fd5b60009182526020909120015473ffffffffffffffffffffffffffffffffffffffff16905081565b336000908152600b60205260409020546106bf90826001610f0f565b7f00000000000000000000000000000000000000000000000000000000000000003373ffffffffffffffffffffffffffffffffffffffff8216146109b9576040517f82b4290000000000000000000000000000000000000000000000000000000000815260040160405180910390fd5b6005546109c69083611c9e565b915060015442106109e3576109da826113bf565b60006005555050565b600062093a806001546109f69190611c0f565b610a009042611c0f565b9050600081600254610a129190611c26565b9050600084610a23836103e8611c26565b610a2d9190611c63565b905061033e811015610a4c57610a42856113bf565b6000600555610a52565b60058590555b5050505050565b7f00000000000000000000000000000000000000000000000000000000000000003373ffffffffffffffffffffffffffffffffffffffff821614610ac9576040517f82b4290000000000000000000000000000000000000000000000000000000000815260040160405180910390fd5b73ffffffffffffffffffffffffffffffffffffffff8216610b4b576040517f08c379a000000000000000000000000000000000000000000000000000000000815260206004820152600f60248201527f217265776172642073657474696e67000000000000000000000000000000000060448201526064015b60405180910390fd5b50600c80546001810182556000919091527fdf6966c971051c3d54ec59162606531493a51404a002842f56009d7e5cf4a8c70180547fffffffffffffffffffffffff00000000000000000000000000000000000000001673ffffffffffffffffffffffffffffffffffffffff92909216919091179055565b81610bcc6111ca565b600455610bd7610e40565b60035573ffffffffffffffffffffffffffffffffffffffff811615610c3857610bff816104f5565b73ffffffffffffffffffffffffffffffffffffffff82166000908152600a60209081526040808320939093556004546009909152919020555b73ffffffffffffffffffffffffffffffffffffffff83166000908152600a60205260409020548015610d095773ffffffffffffffffffffffffffffffffffffffff8085166000908152600a6020526040812055610cb8907f00000000000000000000000000000000000000000000000000000000000000001685836114fa565b8373ffffffffffffffffffffffffffffffffffffffff167fe2403640ba68fed3a2f88b7557551d1993f84b99bb10ff833f0cf8db0c5e048682604051610d0091815260200190565b60405180910390a25b8215610e3a576000600c805480602002602001604051908101604052809291908181526020018280548015610d7457602002820191906000526020600020905b815473ffffffffffffffffffffffffffffffffffffffff168152600190910190602001808311610d49575b5050505050905060005b8151811015610e3757818181518110610d9957610d99611cf0565b60209081029190910101516040517fc00007b000000000000000000000000000000000000000000000000000000000815273ffffffffffffffffffffffffffffffffffffffff88811660048301529091169063c00007b090602401600060405180830381600087803b158015610e0e57600080fd5b505af1158015610e22573d6000803e3d6000fd5b50505050610e308160010190565b9050610d7e565b50505b50505050565b6000610e4e426001546115d3565b905090565b6040517f70a082310000000000000000000000000000000000000000000000000000000081523360048201526000907f000000000000000000000000000000000000000000000000000000000000000073ffffffffffffffffffffffffffffffffffffffff16906370a0823190602401602060405180830381865afa158015610ee0573d6000803e3d6000fd5b505050506040513d601f19601f82011682018060405250810190610f049190611d1f565b90506106bf816111c0565b33610f186111ca565b600455610f23610e40565b60035573ffffffffffffffffffffffffffffffffffffffff811615610f8457610f4b816104f5565b73ffffffffffffffffffffffffffffffffffffffff82166000908152600a60209081526040808320939093556004546009909152919020555b6001841015610fbf576040517f2c5211c600000000000000000000000000000000000000000000000000000000815260040160405180910390fd5b610fc933856115eb565b83600854610fd79190611c0f565b600855336000908152600b6020526040902054610ff5908590611c0f565b336000908152600b602052604090205581156110c1576000546040517f14cd70e40000000000000000000000000000000000000000000000000000000081526004810191909152602481018590523360448201527f000000000000000000000000000000000000000000000000000000000000000073ffffffffffffffffffffffffffffffffffffffff16906314cd70e490606401600060405180830381600087803b1580156110a457600080fd5b505af11580156110b8573d6000803e3d6000fd5b5050505061117a565b6040517fa9059cbb000000000000000000000000000000000000000000000000000000008152336004820152602481018590527f000000000000000000000000000000000000000000000000000000000000000073ffffffffffffffffffffffffffffffffffffffff169063a9059cbb906044016020604051808303816000875af1158015611154573d6000803e3d6000fd5b505050506040513d601f19601f820116820180604052508101906111789190611cd3565b505b60405184815233907f7084f5476618d8e60b11ef0d7d3f06914655adb8793e28ff7f018d4c76d505d59060200160405180910390a28215610e3a57610e3a336001610bc3565b6106bf33826106c2565b6000806111d660085490565b9050806000036111e857505060045490565b806002546003546111f7610e40565b6112019190611c0f565b61120b9190611c26565b61121d90670de0b6b3a7640000611c26565b6112279190611c63565b6004546112349190611c9e565b91505090565b61127c73ffffffffffffffffffffffffffffffffffffffff7f00000000000000000000000000000000000000000000000000000000000000001633308461171a565b8060055461128a9190611c9e565b60055550565b6000600c8054806020026020016040519081016040528092919081815260200182805480156112f557602002820191906000526020600020905b815473ffffffffffffffffffffffffffffffffffffffff1681526001909101906020018083116112ca575b5050505050905060005b8151811015610e3a5781818151811061131a5761131a611cf0565b60209081029190910101516040517fadc9772e00000000000000000000000000000000000000000000000000000000815273ffffffffffffffffffffffffffffffffffffffff8681166004830152602482018690529091169063adc9772e90604401600060405180830381600087803b15801561139657600080fd5b505af11580156113aa573d6000803e3d6000fd5b505050506113b88160010190565b90506112ff565b60006113c96111ca565b6004556113d4610e40565b60035573ffffffffffffffffffffffffffffffffffffffff811615611435576113fc816104f5565b73ffffffffffffffffffffffffffffffffffffffff82166000908152600a60209081526040808320939093556004546009909152919020555b816007546114439190611c9e565b60075560015442106114645761145c62093a8083611c63565b6002556114a7565b6000426001546114749190611c0f565b90506000600254826114869190611c26565b90506114928185611c9e565b93506114a162093a8085611c63565b60025550505b60068290554260038190556114c09062093a8090611c9e565b6001556040518281527fde88a922e0d3b88b24e9623efeb464919c6bf9f66857a65e2bfcf2ce87a9433d9060200160405180910390a15050565b60405173ffffffffffffffffffffffffffffffffffffffff83166024820152604481018290526115ce9084907fa9059cbb00000000000000000000000000000000000000000000000000000000906064015b604080517fffffffffffffffffffffffffffffffffffffffffffffffffffffffffffffffe08184030181529190526020810180517bffffffffffffffffffffffffffffffffffffffffffffffffffffffff167fffffffff0000000000000000000000000000000000000000000000000000000090931692909217909152611778565b505050565b60008183106115e257816115e4565b825b9392505050565b6000600c80548060200260200160405190810160405280929190818152602001828054801561165057602002820191906000526020600020905b815473ffffffffffffffffffffffffffffffffffffffff168152600190910190602001808311611625575b5050505050905060005b8151811015610e3a5781818151811061167557611675611cf0565b60209081029190910101516040517ff3fef3a300000000000000000000000000000000000000000000000000000000815273ffffffffffffffffffffffffffffffffffffffff8681166004830152602482018690529091169063f3fef3a390604401600060405180830381600087803b1580156116f157600080fd5b505af1158015611705573d6000803e3d6000fd5b505050506117138160010190565b905061165a565b60405173ffffffffffffffffffffffffffffffffffffffff80851660248301528316604482015260648101829052610e3a9085907f23b872dd000000000000000000000000000000000000000000000000000000009060840161154c565b60006117da826040518060400160405280602081526020017f5361666545524332303a206c6f772d6c6576656c2063616c6c206661696c65648152508573ffffffffffffffffffffffffffffffffffffffff166118849092919063ffffffff16565b8051909150156115ce57808060200190518101906117f89190611cd3565b6115ce576040517f08c379a000000000000000000000000000000000000000000000000000000000815260206004820152602a60248201527f5361666545524332303a204552433230206f7065726174696f6e20646964206e60448201527f6f742073756363656564000000000000000000000000000000000000000000006064820152608401610b42565b6060611893848460008561189b565b949350505050565b60608247101561192d576040517f08c379a000000000000000000000000000000000000000000000000000000000815260206004820152602660248201527f416464726573733a20696e73756666696369656e742062616c616e636520666f60448201527f722063616c6c00000000000000000000000000000000000000000000000000006064820152608401610b42565b73ffffffffffffffffffffffffffffffffffffffff85163b6119ab576040517f08c379a000000000000000000000000000000000000000000000000000000000815260206004820152601d60248201527f416464726573733a2063616c6c20746f206e6f6e2d636f6e74726163740000006044820152606401610b42565b6000808673ffffffffffffffffffffffffffffffffffffffff1685876040516119d49190611d64565b60006040518083038185875af1925050503d8060008114611a11576040519150601f19603f3d011682016040523d82523d6000602084013e611a16565b606091505b5091509150611a26828286611a31565b979650505050505050565b60608315611a405750816115e4565b825115611a505782518084602001fd5b816040517f08c379a0000000000000000000000000000000000000000000000000000000008152600401610b429190611d80565b50805460008255906000526020600020908101906106bf91905b80821115611ab25760008155600101611a9e565b5090565b73ffffffffffffffffffffffffffffffffffffffff811681146106bf57600080fd5b600060208284031215611aea57600080fd5b81356115e481611ab6565b80151581146106bf57600080fd5b600060208284031215611b1557600080fd5b81356115e481611af5565b60008060408385031215611b3357600080fd5b8235611b3e81611ab6565b946020939093013593505050565b600060208284031215611b5e57600080fd5b5035919050565b60008060408385031215611b7857600080fd5b8235611b8381611ab6565b91506020830135611b9381611af5565b809150509250929050565b600080600060608486031215611bb357600080fd5b833592506020840135611bc581611af5565b91506040840135611bd581611af5565b809150509250925092565b7f4e487b7100000000000000000000000000000000000000000000000000000000600052601160045260246000fd5b600082821015611c2157611c21611be0565b500390565b6000817fffffffffffffffffffffffffffffffffffffffffffffffffffffffffffffffff0483118215151615611c5e57611c5e611be0565b500290565b600082611c99577f4e487b7100000000000000000000000000000000000000000000000000000000600052601260045260246000fd5b500490565b60008219821115611cb157611cb1611be0565b500190565b600060208284031215611cc857600080fd5b81516115e481611ab6565b600060208284031215611ce557600080fd5b81516115e481611af5565b7f4e487b7100000000000000000000000000000000000000000000000000000000600052603260045260246000fd5b600060208284031215611d3157600080fd5b5051919050565b60005b83811015611d53578181015183820152602001611d3b565b83811115610e3a5750506000910152565b60008251611d76818460208701611d38565b9190910192915050565b6020815260008251806020840152611d9f816040850160208701611d38565b601f017fffffffffffffffffffffffffffffffffffffffffffffffffffffffffffffffe016919091016040019291505056fea26469706673582212204475decea148457b8125fcfcc5738f48f80ef277374c65ea1cdcbe33d55667ba64736f6c634300080f0033",
  "devdoc": {
    "details": "Rewards contract for Prime Pools is based on the convex contract",
    "kind": "dev",
    "methods": {
      "addExtraReward(address)": {
        "details": "only `rewardManager` can add extra rewards",
        "params": {
          "_reward": "token address of the reward"
        }
      },
      "balanceOf(address)": {
        "params": {
          "account": "The address of the token holder"
        },
        "returns": {
          "_0": "The `account`'s balance"
        }
      },
      "clearExtraRewards()": {
        "details": "Only Prime multising has the ability to do this"
      },
      "donate(uint256)": {
        "params": {
          "_amount": "The amount of tokens to donate"
        }
      },
      "earned(address)": {
        "params": {
          "account": "The address of the token holder"
        },
        "returns": {
          "_0": "The `account`'s earned rewards"
        }
      },
      "getReward(address,bool)": {
        "params": {
          "_account": "The account to claim rewards for",
          "_claimExtras": "Whether or not the user wants to claim extra rewards"
        }
      },
      "lastTimeRewardApplicable()": {
        "returns": {
          "_0": "The lower value of current block.timestamp or last time reward applicable"
        }
      },
      "queueNewRewards(uint256)": {
        "details": "Only the operator can queue new rewards",
        "params": {
          "_rewards": "The amount of tokens to queue"
        }
      },
      "rewardPerToken()": {
        "returns": {
          "_0": "The rewards per token staked"
        }
      },
      "stake(uint256)": {
        "params": {
          "_amount": "The amount of tokens user wants to stake"
        }
      },
      "stakeFor(address,uint256)": {
        "params": {
          "_amount": "The amount of tokens user wants to stake",
          "_for": "Who are we staking for"
        }
      },
      "withdraw(uint256,bool,bool)": {
        "params": {
          "_amount": "The amount of tokens that the user wants to withdraw",
          "_claim": "Whether or not the user wants to claim their rewards",
          "_unwrap": "Whether or not the user wants to unwrap to BLP tokens"
        }
      },
      "withdrawAll(bool)": {
        "params": {
          "_claim": "Whether or not the user wants to claim their rewards"
        }
      },
      "withdrawAllAndUnwrap(bool)": {
        "params": {
          "_claim": "Whether or not the user wants to claim their rewards"
        }
      }
    },
    "title": "Base Reward Pool contract",
    "version": 1
  },
  "userdoc": {
    "kind": "user",
    "methods": {
      "addExtraReward(address)": {
        "notice": "Adds an extra reward"
      },
      "balanceOf(address)": {
        "notice": "Get the specified address' balance"
      },
      "clearExtraRewards()": {
        "notice": "Clears extra rewards"
      },
      "donate(uint256)": {
        "notice": "Donates reward token to this contract"
      },
      "earned(address)": {
        "notice": "Returns the `account`'s earned rewards"
      },
      "extraRewardsLength()": {
        "notice": "Returns number of extra rewards"
      },
      "getReward()": {
        "notice": "Claims Reward for signer"
      },
      "getReward(address,bool)": {
        "notice": "Claims Rewards for `_account`"
      },
      "lastTimeRewardApplicable()": {
        "notice": "Returns last time reward applicable"
      },
      "queueNewRewards(uint256)": {
        "notice": "Queue new rewards"
      },
      "rewardPerToken()": {
        "notice": "Returns rewards per token staked"
      },
      "stake(uint256)": {
        "notice": "Stakes `amount` tokens"
      },
      "stakeAll()": {
        "notice": "Stakes all BAL tokens"
      },
      "stakeFor(address,uint256)": {
        "notice": "Stakes `amount` tokens for `_for`"
      },
      "totalSupply()": {
        "notice": "Returns total supply"
      },
      "withdraw(uint256,bool,bool)": {
        "notice": "Withdraw `amount` tokens and possibly unwrap"
      },
      "withdrawAll(bool)": {
        "notice": "Withdraw all tokens"
      },
      "withdrawAllAndUnwrap(bool)": {
        "notice": "Withdraw all tokens and unwrap"
      }
    },
    "version": 1
  },
  "storageLayout": {
    "storage": [
      {
        "astId": 3334,
        "contract": "contracts/BaseRewardPool.sol:BaseRewardPool",
        "label": "pid",
        "offset": 0,
        "slot": "0",
        "type": "t_uint256"
      },
      {
        "astId": 3336,
        "contract": "contracts/BaseRewardPool.sol:BaseRewardPool",
        "label": "periodFinish",
        "offset": 0,
        "slot": "1",
        "type": "t_uint256"
      },
      {
        "astId": 3338,
        "contract": "contracts/BaseRewardPool.sol:BaseRewardPool",
        "label": "rewardRate",
        "offset": 0,
        "slot": "2",
        "type": "t_uint256"
      },
      {
        "astId": 3340,
        "contract": "contracts/BaseRewardPool.sol:BaseRewardPool",
        "label": "lastUpdateTime",
        "offset": 0,
        "slot": "3",
        "type": "t_uint256"
      },
      {
        "astId": 3342,
        "contract": "contracts/BaseRewardPool.sol:BaseRewardPool",
        "label": "rewardPerTokenStored",
        "offset": 0,
        "slot": "4",
        "type": "t_uint256"
      },
      {
        "astId": 3344,
        "contract": "contracts/BaseRewardPool.sol:BaseRewardPool",
        "label": "queuedRewards",
        "offset": 0,
        "slot": "5",
        "type": "t_uint256"
      },
      {
        "astId": 3346,
        "contract": "contracts/BaseRewardPool.sol:BaseRewardPool",
        "label": "currentRewards",
        "offset": 0,
        "slot": "6",
        "type": "t_uint256"
      },
      {
        "astId": 3348,
        "contract": "contracts/BaseRewardPool.sol:BaseRewardPool",
        "label": "historicalRewards",
        "offset": 0,
        "slot": "7",
        "type": "t_uint256"
      },
      {
        "astId": 3350,
        "contract": "contracts/BaseRewardPool.sol:BaseRewardPool",
        "label": "_totalSupply",
        "offset": 0,
        "slot": "8",
        "type": "t_uint256"
      },
      {
        "astId": 3354,
        "contract": "contracts/BaseRewardPool.sol:BaseRewardPool",
        "label": "userRewardPerTokenPaid",
        "offset": 0,
        "slot": "9",
        "type": "t_mapping(t_address,t_uint256)"
      },
      {
        "astId": 3358,
        "contract": "contracts/BaseRewardPool.sol:BaseRewardPool",
        "label": "rewards",
        "offset": 0,
        "slot": "10",
        "type": "t_mapping(t_address,t_uint256)"
      },
      {
        "astId": 3362,
        "contract": "contracts/BaseRewardPool.sol:BaseRewardPool",
        "label": "_balances",
        "offset": 0,
        "slot": "11",
        "type": "t_mapping(t_address,t_uint256)"
      },
      {
        "astId": 3365,
        "contract": "contracts/BaseRewardPool.sol:BaseRewardPool",
        "label": "extraRewards",
        "offset": 0,
        "slot": "12",
        "type": "t_array(t_address)dyn_storage"
      }
    ],
    "types": {
      "t_address": {
        "encoding": "inplace",
        "label": "address",
        "numberOfBytes": "20"
      },
      "t_array(t_address)dyn_storage": {
        "base": "t_address",
        "encoding": "dynamic_array",
        "label": "address[]",
        "numberOfBytes": "32"
      },
      "t_mapping(t_address,t_uint256)": {
        "encoding": "mapping",
        "key": "t_address",
        "label": "mapping(address => uint256)",
        "numberOfBytes": "32",
        "value": "t_uint256"
      },
      "t_uint256": {
        "encoding": "inplace",
        "label": "uint256",
        "numberOfBytes": "32"
      }
    }
  }
}