{
  "address": "0x4414D7f87D16420A7073a9Cd7d56f995566c3922",
  "abi": [
    {
      "inputs": [
        {
          "internalType": "address",
          "name": "_staker",
          "type": "address"
        },
        {
          "internalType": "address",
          "name": "_bal",
          "type": "address"
        },
        {
          "internalType": "address",
          "name": "_feeDistro",
          "type": "address"
        }
      ],
      "stateMutability": "nonpayable",
      "type": "constructor"
    },
    {
      "inputs": [],
      "name": "InvalidParameters",
      "type": "error"
    },
    {
      "inputs": [],
      "name": "InvalidStash",
      "type": "error"
    },
    {
      "inputs": [],
      "name": "PoolIsClosed",
      "type": "error"
    },
    {
      "inputs": [],
      "name": "RedirectFailed",
      "type": "error"
    },
    {
      "inputs": [],
      "name": "Shutdown",
      "type": "error"
    },
    {
      "inputs": [],
      "name": "Unauthorized",
      "type": "error"
    },
    {
      "anonymous": false,
      "inputs": [
        {
          "indexed": false,
          "internalType": "uint256",
          "name": "_pid",
          "type": "uint256"
        },
        {
          "indexed": false,
          "internalType": "address",
          "name": "_lpToken",
          "type": "address"
        },
        {
          "indexed": false,
          "internalType": "address",
          "name": "_token",
          "type": "address"
        },
        {
          "indexed": false,
          "internalType": "address",
          "name": "_gauge",
          "type": "address"
        },
        {
          "indexed": false,
          "internalType": "address",
          "name": "_baseRewardsPool",
          "type": "address"
        },
        {
          "indexed": false,
          "internalType": "address",
          "name": "_stash",
          "type": "address"
        }
      ],
      "name": "AddedPool",
      "type": "event"
    },
    {
      "anonymous": false,
      "inputs": [
        {
          "indexed": false,
          "internalType": "address",
          "name": "_user",
          "type": "address"
        },
        {
          "indexed": false,
          "internalType": "uint256",
          "name": "_pid",
          "type": "uint256"
        },
        {
          "indexed": false,
          "internalType": "uint256",
          "name": "_amount",
          "type": "uint256"
        },
        {
          "indexed": false,
          "internalType": "bool",
          "name": "_stake",
          "type": "bool"
        }
      ],
      "name": "Deposited",
      "type": "event"
    },
    {
      "anonymous": false,
      "inputs": [
        {
          "indexed": false,
          "internalType": "address",
          "name": "_newFeeManager",
          "type": "address"
        }
      ],
      "name": "FeeManagerChanged",
      "type": "event"
    },
    {
      "anonymous": false,
      "inputs": [],
      "name": "FeeTokensCleared",
      "type": "event"
    },
    {
      "anonymous": false,
      "inputs": [
        {
          "indexed": false,
          "internalType": "uint256",
          "name": "_newPlatformFee",
          "type": "uint256"
        },
        {
          "indexed": false,
          "internalType": "uint256",
          "name": "_newProfitFee",
          "type": "uint256"
        }
      ],
      "name": "FeesChanged",
      "type": "event"
    },
    {
      "anonymous": false,
      "inputs": [
        {
          "indexed": false,
          "internalType": "address",
          "name": "_newOwner",
          "type": "address"
        }
      ],
      "name": "OwnerChanged",
      "type": "event"
    },
    {
      "anonymous": false,
      "inputs": [
        {
          "indexed": false,
          "internalType": "address",
          "name": "_newPoolManager",
          "type": "address"
        }
      ],
      "name": "PoolManagerChanged",
      "type": "event"
    },
    {
      "anonymous": false,
      "inputs": [
        {
          "indexed": false,
          "internalType": "uint256",
          "name": "_pid",
          "type": "uint256"
        }
      ],
      "name": "PoolShutDown",
      "type": "event"
    },
    {
      "anonymous": false,
      "inputs": [],
      "name": "SystemShutdown",
      "type": "event"
    },
    {
      "anonymous": false,
      "inputs": [
        {
          "indexed": false,
          "internalType": "address",
          "name": "_newTreasury",
          "type": "address"
        }
      ],
      "name": "TreasuryChanged",
      "type": "event"
    },
    {
      "anonymous": false,
      "inputs": [
        {
          "indexed": false,
          "internalType": "address",
          "name": "_newVoteDelegate",
          "type": "address"
        }
      ],
      "name": "VoteDelegateChanged",
      "type": "event"
    },
    {
      "anonymous": false,
      "inputs": [
        {
          "indexed": false,
          "internalType": "address",
          "name": "_user",
          "type": "address"
        },
        {
          "indexed": false,
          "internalType": "uint256",
          "name": "_pid",
          "type": "uint256"
        },
        {
          "indexed": false,
          "internalType": "uint256",
          "name": "_amount",
          "type": "uint256"
        }
      ],
      "name": "Withdrawn",
      "type": "event"
    },
    {
      "inputs": [],
      "name": "FEE_DENOMINATOR",
      "outputs": [
        {
          "internalType": "uint256",
          "name": "",
          "type": "uint256"
        }
      ],
      "stateMutability": "view",
      "type": "function"
    },
    {
      "inputs": [],
      "name": "MAX_FEES",
      "outputs": [
        {
          "internalType": "uint256",
          "name": "",
          "type": "uint256"
        }
      ],
      "stateMutability": "view",
      "type": "function"
    },
    {
      "inputs": [],
      "name": "MAX_LOCK_TIME",
      "outputs": [
        {
          "internalType": "uint256",
          "name": "",
          "type": "uint256"
        }
      ],
      "stateMutability": "view",
      "type": "function"
    },
    {
      "inputs": [
        {
          "internalType": "contract IERC20",
          "name": "_feeToken",
          "type": "address"
        }
      ],
      "name": "addFeeToken",
      "outputs": [],
      "stateMutability": "nonpayable",
      "type": "function"
    },
    {
      "inputs": [
        {
          "internalType": "address",
          "name": "_lptoken",
          "type": "address"
        },
        {
          "internalType": "address",
          "name": "_gauge",
          "type": "address"
        }
      ],
      "name": "addPool",
      "outputs": [],
      "stateMutability": "nonpayable",
      "type": "function"
    },
    {
      "inputs": [],
      "name": "bal",
      "outputs": [
        {
          "internalType": "address",
          "name": "",
          "type": "address"
        }
      ],
      "stateMutability": "view",
      "type": "function"
    },
    {
      "inputs": [
        {
          "internalType": "uint256",
          "name": "_startPoolIdx",
          "type": "uint256"
        },
        {
          "internalType": "uint256",
          "name": "_endPoolIdx",
          "type": "uint256"
        }
      ],
      "name": "bulkPoolShutdown",
      "outputs": [],
      "stateMutability": "nonpayable",
      "type": "function"
    },
    {
      "inputs": [
        {
          "internalType": "uint256",
          "name": "_pid",
          "type": "uint256"
        },
        {
          "internalType": "address",
          "name": "_gauge",
          "type": "address"
        }
      ],
      "name": "claimRewards",
      "outputs": [],
      "stateMutability": "nonpayable",
      "type": "function"
    },
    {
      "inputs": [],
      "name": "clearDelegation",
      "outputs": [],
      "stateMutability": "nonpayable",
      "type": "function"
    },
    {
      "inputs": [],
      "name": "clearFeeTokens",
      "outputs": [],
      "stateMutability": "nonpayable",
      "type": "function"
    },
    {
      "inputs": [
        {
          "internalType": "address",
          "name": "_delegateTo",
          "type": "address"
        }
      ],
      "name": "delegateVotingPower",
      "outputs": [],
      "stateMutability": "nonpayable",
      "type": "function"
    },
    {
      "inputs": [
        {
          "internalType": "uint256",
          "name": "_pid",
          "type": "uint256"
        },
        {
          "internalType": "uint256",
          "name": "_amount",
          "type": "uint256"
        },
        {
          "internalType": "bool",
          "name": "_stake",
          "type": "bool"
        }
      ],
      "name": "deposit",
      "outputs": [],
      "stateMutability": "nonpayable",
      "type": "function"
    },
    {
      "inputs": [
        {
          "internalType": "uint256",
          "name": "_pid",
          "type": "uint256"
        },
        {
          "internalType": "bool",
          "name": "_stake",
          "type": "bool"
        }
      ],
      "name": "depositAll",
      "outputs": [],
      "stateMutability": "nonpayable",
      "type": "function"
    },
    {
      "inputs": [],
      "name": "earmarkFees",
      "outputs": [],
      "stateMutability": "nonpayable",
      "type": "function"
    },
    {
      "inputs": [
        {
          "internalType": "uint256",
          "name": "_pid",
          "type": "uint256"
        }
      ],
      "name": "earmarkRewards",
      "outputs": [],
      "stateMutability": "nonpayable",
      "type": "function"
    },
    {
      "inputs": [],
      "name": "feeDistro",
      "outputs": [
        {
          "internalType": "address",
          "name": "",
          "type": "address"
        }
      ],
      "stateMutability": "view",
      "type": "function"
    },
    {
      "inputs": [],
      "name": "feeManager",
      "outputs": [
        {
          "internalType": "address",
          "name": "",
          "type": "address"
        }
      ],
      "stateMutability": "view",
      "type": "function"
    },
    {
      "inputs": [
        {
          "internalType": "address",
          "name": "",
          "type": "address"
        }
      ],
      "name": "feeTokenToPool",
      "outputs": [
        {
          "internalType": "address",
          "name": "",
          "type": "address"
        }
      ],
      "stateMutability": "view",
      "type": "function"
    },
    {
      "inputs": [
        {
          "internalType": "uint256",
          "name": "",
          "type": "uint256"
        }
      ],
      "name": "feeTokens",
      "outputs": [
        {
          "internalType": "contract IERC20",
          "name": "",
          "type": "address"
        }
      ],
      "stateMutability": "view",
      "type": "function"
    },
    {
      "inputs": [],
      "name": "feeTokensLength",
      "outputs": [
        {
          "internalType": "uint256",
          "name": "",
          "type": "uint256"
        }
      ],
      "stateMutability": "view",
      "type": "function"
    },
    {
      "inputs": [
        {
          "internalType": "address",
          "name": "",
          "type": "address"
        }
      ],
      "name": "gaugeMap",
      "outputs": [
        {
          "internalType": "bool",
          "name": "",
          "type": "bool"
        }
      ],
      "stateMutability": "view",
      "type": "function"
    },
    {
      "inputs": [],
      "name": "isShutdown",
      "outputs": [
        {
          "internalType": "bool",
          "name": "",
          "type": "bool"
        }
      ],
      "stateMutability": "view",
      "type": "function"
    },
    {
      "inputs": [],
      "name": "lockRewards",
      "outputs": [
        {
          "internalType": "address",
          "name": "",
          "type": "address"
        }
      ],
      "stateMutability": "view",
      "type": "function"
    },
    {
      "inputs": [],
      "name": "owner",
      "outputs": [
        {
          "internalType": "address",
          "name": "",
          "type": "address"
        }
      ],
      "stateMutability": "view",
      "type": "function"
    },
    {
      "inputs": [],
      "name": "platformFees",
      "outputs": [
        {
          "internalType": "uint256",
          "name": "",
          "type": "uint256"
        }
      ],
      "stateMutability": "view",
      "type": "function"
    },
    {
      "inputs": [
        {
          "internalType": "uint256",
          "name": "",
          "type": "uint256"
        }
      ],
      "name": "poolInfo",
      "outputs": [
        {
          "internalType": "address",
          "name": "lptoken",
          "type": "address"
        },
        {
          "internalType": "address",
          "name": "token",
          "type": "address"
        },
        {
          "internalType": "address",
          "name": "gauge",
          "type": "address"
        },
        {
          "internalType": "address",
          "name": "balRewards",
          "type": "address"
        },
        {
          "internalType": "address",
          "name": "stash",
          "type": "address"
        },
        {
          "internalType": "bool",
          "name": "shutdown",
          "type": "bool"
        }
      ],
      "stateMutability": "view",
      "type": "function"
    },
    {
      "inputs": [],
      "name": "poolLength",
      "outputs": [
        {
          "internalType": "uint256",
          "name": "",
          "type": "uint256"
        }
      ],
      "stateMutability": "view",
      "type": "function"
    },
    {
      "inputs": [],
      "name": "poolManager",
      "outputs": [
        {
          "internalType": "address",
          "name": "",
          "type": "address"
        }
      ],
      "stateMutability": "view",
      "type": "function"
    },
    {
      "inputs": [],
      "name": "profitFees",
      "outputs": [
        {
          "internalType": "uint256",
          "name": "",
          "type": "uint256"
        }
      ],
      "stateMutability": "view",
      "type": "function"
    },
    {
      "inputs": [],
      "name": "rewardFactory",
      "outputs": [
        {
          "internalType": "address",
          "name": "",
          "type": "address"
        }
      ],
      "stateMutability": "view",
      "type": "function"
    },
    {
      "inputs": [
        {
          "internalType": "address",
          "name": "_rfactory",
          "type": "address"
        },
        {
          "internalType": "address",
          "name": "_sfactory",
          "type": "address"
        },
        {
          "internalType": "address",
          "name": "_tfactory",
          "type": "address"
        }
      ],
      "name": "setFactories",
      "outputs": [],
      "stateMutability": "nonpayable",
      "type": "function"
    },
    {
      "inputs": [
        {
          "internalType": "address",
          "name": "_feeM",
          "type": "address"
        }
      ],
      "name": "setFeeManager",
      "outputs": [],
      "stateMutability": "nonpayable",
      "type": "function"
    },
    {
      "inputs": [
        {
          "internalType": "uint256",
          "name": "_platformFee",
          "type": "uint256"
        },
        {
          "internalType": "uint256",
          "name": "_profitFee",
          "type": "uint256"
        }
      ],
      "name": "setFees",
      "outputs": [],
      "stateMutability": "nonpayable",
      "type": "function"
    },
    {
      "inputs": [
        {
          "internalType": "address",
          "name": "_owner",
          "type": "address"
        }
      ],
      "name": "setOwner",
      "outputs": [],
      "stateMutability": "nonpayable",
      "type": "function"
    },
    {
      "inputs": [
        {
          "internalType": "address",
          "name": "_poolM",
          "type": "address"
        }
      ],
      "name": "setPoolManager",
      "outputs": [],
      "stateMutability": "nonpayable",
      "type": "function"
    },
    {
      "inputs": [
        {
          "internalType": "address",
          "name": "_rewards",
          "type": "address"
        }
      ],
      "name": "setRewardContracts",
      "outputs": [],
      "stateMutability": "nonpayable",
      "type": "function"
    },
    {
      "inputs": [
        {
          "internalType": "address",
          "name": "_treasury",
          "type": "address"
        }
      ],
      "name": "setTreasury",
      "outputs": [],
      "stateMutability": "nonpayable",
      "type": "function"
    },
    {
      "inputs": [
        {
          "internalType": "address",
          "name": "_voteDelegate",
          "type": "address"
        }
      ],
      "name": "setVoteDelegate",
      "outputs": [],
      "stateMutability": "nonpayable",
      "type": "function"
    },
    {
      "inputs": [],
      "name": "shutdownSystem",
      "outputs": [],
      "stateMutability": "nonpayable",
      "type": "function"
    },
    {
      "inputs": [],
      "name": "staker",
      "outputs": [
        {
          "internalType": "address",
          "name": "",
          "type": "address"
        }
      ],
      "stateMutability": "view",
      "type": "function"
    },
    {
      "inputs": [],
      "name": "stashFactory",
      "outputs": [
        {
          "internalType": "address",
          "name": "",
          "type": "address"
        }
      ],
      "stateMutability": "view",
      "type": "function"
    },
    {
      "inputs": [],
      "name": "tokenFactory",
      "outputs": [
        {
          "internalType": "address",
          "name": "",
          "type": "address"
        }
      ],
      "stateMutability": "view",
      "type": "function"
    },
    {
      "inputs": [],
      "name": "treasury",
      "outputs": [
        {
          "internalType": "address",
          "name": "",
          "type": "address"
        }
      ],
      "stateMutability": "view",
      "type": "function"
    },
    {
      "inputs": [],
      "name": "voteDelegate",
      "outputs": [
        {
          "internalType": "address",
          "name": "",
          "type": "address"
        }
      ],
      "stateMutability": "view",
      "type": "function"
    },
    {
      "inputs": [
        {
          "internalType": "address[]",
          "name": "_gauges",
          "type": "address[]"
        },
        {
          "internalType": "uint256[]",
          "name": "_weights",
          "type": "uint256[]"
        }
      ],
      "name": "voteGaugeWeight",
      "outputs": [],
      "stateMutability": "nonpayable",
      "type": "function"
    },
    {
      "inputs": [
        {
          "internalType": "uint256",
          "name": "_pid",
          "type": "uint256"
        },
        {
          "internalType": "uint256",
          "name": "_amount",
          "type": "uint256"
        }
      ],
      "name": "withdraw",
      "outputs": [],
      "stateMutability": "nonpayable",
      "type": "function"
    },
    {
      "inputs": [
        {
          "internalType": "uint256",
          "name": "_pid",
          "type": "uint256"
        }
      ],
      "name": "withdrawAll",
      "outputs": [],
      "stateMutability": "nonpayable",
      "type": "function"
    },
    {
      "inputs": [
        {
          "internalType": "uint256",
          "name": "_pid",
          "type": "uint256"
        },
        {
          "internalType": "uint256",
          "name": "_amount",
          "type": "uint256"
        },
        {
          "internalType": "address",
          "name": "_to",
          "type": "address"
        }
      ],
      "name": "withdrawTo",
      "outputs": [],
      "stateMutability": "nonpayable",
      "type": "function"
    },
    {
      "inputs": [
        {
          "internalType": "uint256",
          "name": "_amount",
          "type": "uint256"
        }
      ],
      "name": "withdrawUnlockedWethBal",
      "outputs": [],
      "stateMutability": "nonpayable",
      "type": "function"
    }
  ],
  "transactionHash": "0x998cf15c5587cf29142fe7773217d101e97536de3df3b4e50e8835ba390e333c",
  "args": [
    "0xFF5Dc82257E61788514e6F05a4AD114d4ae97745",
    "0xfa8449189744799ad2ace7e0ebac8bb7575eff47",
    "0x7F91dcdE02F72b478Dc73cB21730cAcA907c8c44"
  ],
  "solcInputHash": "a7d91ab37d5735063eec3feef42edd7e",
  "bytecode": "0x60e060405260fa6000556103e86001553480156200001c57600080fd5b50604051620040aa380380620040aa8339810160408190526200003f91620000af565b6001600160a01b03918216608052811660c0521660a05260028054336001600160a01b031991821681179092556008805482168317905560038054821683179055600480549091169091179055620000f9565b80516001600160a01b0381168114620000aa57600080fd5b919050565b600080600060608486031215620000c557600080fd5b620000d08462000092565b9250620000e06020850162000092565b9150620000f06040850162000092565b90509250925092565b60805160a05160c051613f03620001a76000396000818161071e0152610cd601526000818161055401528181610ca701528181610fc6015281816111370152818161120c0152818161161e0152818161199301528181611b08015281816120fd0152818161298301528181612b2101528181612dc101526133e70152600081816104e101528181611eed01528181612f42015281816130390152818161317401526132440152613f036000f3fe608060405234801561001057600080fd5b506004361061032b5760003560e01c806374874323116101b2578063c2300bef116100f9578063dc4c90d3116100a2578063f0f442601161007c578063f0f442601461079c578063f3074b93146107af578063f3ff955a146107b7578063fa78668f146107ca57600080fd5b8063dc4c90d314610749578063e77772fe14610769578063eb511dd41461078957600080fd5b8063d0fb0203116100d3578063d0fb0203146106f9578063d6a0f53014610719578063d73792a91461074057600080fd5b8063c2300bef146106ba578063cb0d5b52146106c3578063cc956f3f146106e657600080fd5b8063958e2d311161015b578063b4d2e3d111610135578063b4d2e3d114610681578063bf86d6901461068a578063bfad96ba146106a757600080fd5b8063958e2d311461063b5780639f00332b1461064e578063aa2eded21461066e57600080fd5b80637bd3b9951161018c5780637bd3b995146105f55780638da5cb5b146106085780638ef4403c1461062857600080fd5b806374874323146105bc57806378b7960d146105cf5780637aef6715146105e257600080fd5b8063354af91911610276578063452e97ac1161021f57806360759fce116101f957806360759fce1461057657806361d027b3146105895780636c7b69cb146105a957600080fd5b8063452e97ac14610529578063472d35b91461053c5780635ebaf1db1461054f57600080fd5b80633d79d1c8116102505780633d79d1c8146104dc57806343a0d06614610503578063441a3e701461051657600080fd5b8063354af919146104ac578063376d771a146104b45780633b632bb9146104d457600080fd5b8063194a4e7e116102d857806322230b96116102b257806322230b961461044e578063245e4bf014610456578063275e86c01461047657600080fd5b8063194a4e7e1461042a5780631b5d3670146104335780631cc51d401461043b57600080fd5b806313af40351161030957806313af4035146103a157806314cd70e4146103b45780631526fe27146103c757600080fd5b8063068eb19e14610330578063081e3eda1461037a5780630b78f9c01461038c575b600080fd5b6006546103509073ffffffffffffffffffffffffffffffffffffffff1681565b60405173ffffffffffffffffffffffffffffffffffffffff90911681526020015b60405180910390f35b600e545b604051908152602001610371565b61039f61039a366004613806565b6107d5565b005b61039f6103af36600461384a565b6108ef565b61039f6103c2366004613867565b6109bc565b6103da6103d53660046138a0565b610a42565b6040805173ffffffffffffffffffffffffffffffffffffffff97881681529587166020870152938616938501939093529084166060840152909216608082015290151560a082015260c001610371565b61037e60015481565b61039f610ac1565b61039f61044936600461384a565b610b4b565b61039f610bff565b6005546103509073ffffffffffffffffffffffffffffffffffffffff1681565b61035061048436600461384a565b600c6020526000908152604090205473ffffffffffffffffffffffffffffffffffffffff1681565b61039f610ec9565b600a546103509073ffffffffffffffffffffffffffffffffffffffff1681565b61039f610f72565b6103507f000000000000000000000000000000000000000000000000000000000000000081565b61039f6105113660046138c7565b611047565b61039f610524366004613806565b611517565b61039f610537366004613806565b611523565b61039f61054a36600461384a565b61174a565b6103507f000000000000000000000000000000000000000000000000000000000000000081565b61039f6105843660046138f5565b61180f565b6009546103509073ffffffffffffffffffffffffffffffffffffffff1681565b61039f6105b7366004613925565b6118d4565b61039f6105ca36600461384a565b6119f4565b61039f6105dd3660046138a0565b611ab9565b61039f6105f036600461384a565b611b4e565b61039f61060336600461394a565b611c13565b6002546103509073ffffffffffffffffffffffffffffffffffffffff1681565b6103506106363660046138a0565b611d22565b61039f6106493660046138a0565b611d59565b6008546103509073ffffffffffffffffffffffffffffffffffffffff1681565b61039f61067c36600461384a565b611e25565b61037e60005481565b600d546106979060ff1681565b6040519015158152602001610371565b61039f6106b53660046139d6565b61206e565b61037e610bb881565b6106976106d136600461384a565b600f6020526000908152604090205460ff1681565b61039f6106f43660046138a0565b612171565b6003546103509073ffffffffffffffffffffffffffffffffffffffff1681565b6103507f000000000000000000000000000000000000000000000000000000000000000081565b61037e61271081565b6004546103509073ffffffffffffffffffffffffffffffffffffffff1681565b6007546103509073ffffffffffffffffffffffffffffffffffffffff1681565b61039f610797366004613a42565b61217d565b61039f6107aa36600461384a565b612827565b600b5461037e565b61039f6107c536600461384a565b6128ec565b61037e6301e1338081565b60035473ffffffffffffffffffffffffffffffffffffffff16338114610827576040517f82b4290000000000000000000000000000000000000000000000000000000000815260040160405180910390fd5b60006108338484613a9f565b9050610bb8811115610871576040517fe523909000000000000000000000000000000000000000000000000000000000815260040160405180910390fd5b6101f4841015801561088557506107d08411155b8015610892575060648310155b80156108a057506103e88311155b156108e9576001849055600083905560408051858152602081018590527f64f84976d9c917a44796104a59950fdbd9b3c16a5dd348b546d738301f6bd068910160405180910390a15b50505050565b60025473ffffffffffffffffffffffffffffffffffffffff16338114610941576040517f82b4290000000000000000000000000000000000000000000000000000000000815260040160405180910390fd5b600280547fffffffffffffffffffffffff00000000000000000000000000000000000000001673ffffffffffffffffffffffffffffffffffffffff84169081179091556040519081527fa2ea9883a321a3e97b8266c2b078bfeec6d50c711ed71f874a90d500ae2eaf36906020015b60405180910390a15050565b6000600e84815481106109d1576109d1613ab7565b600091825260209091206003600590920201015473ffffffffffffffffffffffffffffffffffffffff169050338114610a36576040517f82b4290000000000000000000000000000000000000000000000000000000000815260040160405180910390fd5b6108e9848433856129e3565b600e8181548110610a5257600080fd5b60009182526020909120600590910201805460018201546002830154600384015460049094015473ffffffffffffffffffffffffffffffffffffffff93841695509183169390831692908116919081169074010000000000000000000000000000000000000000900460ff1686565b60035473ffffffffffffffffffffffffffffffffffffffff16338114610b13576040517f82b4290000000000000000000000000000000000000000000000000000000000815260040160405180910390fd5b610b1f600b60006137d4565b6040517f6c476c8f4aa224f57d954654c067fdcae2391e2a93c16d3296ecea1d41aeed0590600090a150565b60025473ffffffffffffffffffffffffffffffffffffffff16338114610b9d576040517f82b4290000000000000000000000000000000000000000000000000000000000815260040160405180910390fd5b600a5473ffffffffffffffffffffffffffffffffffffffff16610bfb57600a80547fffffffffffffffffffffffff00000000000000000000000000000000000000001673ffffffffffffffffffffffffffffffffffffffff84161790555b5050565b6000600b805480602002602001604051908101604052809291908181526020018280548015610c6457602002820191906000526020600020905b815473ffffffffffffffffffffffffffffffffffffffff168152600190910190602001808311610c39575b50506040517fa81d2f470000000000000000000000000000000000000000000000000000000081529394505073ffffffffffffffffffffffffffffffffffffffff7f0000000000000000000000000000000000000000000000000000000000000000169263a81d2f479250610d0091507f0000000000000000000000000000000000000000000000000000000000000000908590600401613ae6565b600060405180830381600087803b158015610d1a57600080fd5b505af1158015610d2e573d6000803e3d6000fd5b5050505060005b8151811015610bfb576000828281518110610d5257610d52613ab7565b60209081029190910101516040517f70a0823100000000000000000000000000000000000000000000000000000000815230600482015290915060009073ffffffffffffffffffffffffffffffffffffffff8316906370a0823190602401602060405180830381865afa158015610dcd573d6000803e3d6000fd5b505050506040513d601f19601f82011682018060405250810190610df19190613b4e565b90508015610ebf5773ffffffffffffffffffffffffffffffffffffffff8083166000818152600c6020526040902054610e2b921683612c79565b73ffffffffffffffffffffffffffffffffffffffff8281166000908152600c6020526040908190205490517f590a41f50000000000000000000000000000000000000000000000000000000081526004810184905291169063590a41f590602401600060405180830381600087803b158015610ea657600080fd5b505af1158015610eba573d6000803e3d6000fd5b505050505b5050600101610d35565b60025473ffffffffffffffffffffffffffffffffffffffff16338114610f1b576040517f82b4290000000000000000000000000000000000000000000000000000000000815260040160405180910390fd5b600d80547fffffffffffffffffffffffffffffffffffffffffffffffffffffffffffffff001660011790556040517fa7f1177ac6d0519232556de7d5158b9c7142cfeaebb1ff60315c49d364c75dfa90600090a150565b60025473ffffffffffffffffffffffffffffffffffffffff16338114610fc4576040517f82b4290000000000000000000000000000000000000000000000000000000000815260040160405180910390fd5b7f000000000000000000000000000000000000000000000000000000000000000073ffffffffffffffffffffffffffffffffffffffff16636ea447ba6040518163ffffffff1660e01b8152600401600060405180830381600087803b15801561102c57600080fd5b505af1158015611040573d6000803e3d6000fd5b5050505050565b600d5460ff1615611084576040517f4426aa1f00000000000000000000000000000000000000000000000000000000815260040160405180910390fd5b6000600e848154811061109957611099613ab7565b906000526020600020906005020190508060040160149054906101000a900460ff16156110f2576040517fefc869b400000000000000000000000000000000000000000000000000000000815260040160405180910390fd5b80546040517f23b872dd00000000000000000000000000000000000000000000000000000000815233600482015273ffffffffffffffffffffffffffffffffffffffff7f000000000000000000000000000000000000000000000000000000000000000081166024830152604482018690529091169081906323b872dd906064016020604051808303816000875af1158015611192573d6000803e3d6000fd5b505050506040513d601f19601f820116820180604052508101906111b69190613b67565b5060028201546040517ff9609f0800000000000000000000000000000000000000000000000000000000815273ffffffffffffffffffffffffffffffffffffffff838116600483015291821660248201819052917f0000000000000000000000000000000000000000000000000000000000000000169063f9609f0890604401600060405180830381600087803b15801561125057600080fd5b505af1158015611264573d6000803e3d6000fd5b50505050600183015473ffffffffffffffffffffffffffffffffffffffff16841561143d576040517f40c10f190000000000000000000000000000000000000000000000000000000081523060048201526024810187905273ffffffffffffffffffffffffffffffffffffffff8216906340c10f1990604401600060405180830381600087803b1580156112f757600080fd5b505af115801561130b573d6000803e3d6000fd5b5050505060038401546040517f095ea7b300000000000000000000000000000000000000000000000000000000815273ffffffffffffffffffffffffffffffffffffffff91821660048201819052602482018990529183169063095ea7b3906044016020604051808303816000875af115801561138c573d6000803e3d6000fd5b505050506040513d601f19601f820116820180604052508101906113b09190613b67565b506040517f2ee409080000000000000000000000000000000000000000000000000000000081523360048201526024810188905273ffffffffffffffffffffffffffffffffffffffff821690632ee4090890604401600060405180830381600087803b15801561141f57600080fd5b505af1158015611433573d6000803e3d6000fd5b50505050506114c4565b6040517f40c10f190000000000000000000000000000000000000000000000000000000081523360048201526024810187905273ffffffffffffffffffffffffffffffffffffffff8216906340c10f1990604401600060405180830381600087803b1580156114ab57600080fd5b505af11580156114bf573d6000803e3d6000fd5b505050505b604080513381526020810189905290810187905285151560608201527f65e6f89b6907d6277741ee4ccbc4ae260163a17f16bbb55b5344dff064867c40906080015b60405180910390a150505050505050565b610bfb828233336129e3565b60045473ffffffffffffffffffffffffffffffffffffffff16338114611575576040517f82b4290000000000000000000000000000000000000000000000000000000000815260040160405180910390fd5b825b828110156108e9576000600e828154811061159457611594613ab7565b906000526020600020906005020190508060040160149054906101000a900460ff16156115c15750611742565b6115ca82612d06565b805460028201546040517f09cae2c800000000000000000000000000000000000000000000000000000000815273ffffffffffffffffffffffffffffffffffffffff928316600482015290821660248201527f0000000000000000000000000000000000000000000000000000000000000000909116906309cae2c890604401600060405180830381600087803b15801561166457600080fd5b505af1925050508015611675575060015b506004810180547fffffffffffffffffffffff00ffffffffffffffffffffffffffffffffffffffff1674010000000000000000000000000000000000000000179055600281015473ffffffffffffffffffffffffffffffffffffffff166000908152600f60205260409081902080547fffffffffffffffffffffffffffffffffffffffffffffffffffffffffffffff00169055517f26b91c5ee7016e010d571b6baf5f465e048be724ce3b1cc7a6e25230b42ce47d906117389084815260200190565b60405180910390a1505b600101611577565b60035473ffffffffffffffffffffffffffffffffffffffff1633811461179c576040517f82b4290000000000000000000000000000000000000000000000000000000000815260040160405180910390fd5b600380547fffffffffffffffffffffffff00000000000000000000000000000000000000001673ffffffffffffffffffffffffffffffffffffffff84169081179091556040519081527f45d7e621935e768c84854481fb8a41a30200fbe59f86660d5e02dd876563d898906020016109b0565b6000600e838154811061182457611824613ab7565b60009182526020822060059190910201546040517f70a0823100000000000000000000000000000000000000000000000000000000815233600482015273ffffffffffffffffffffffffffffffffffffffff909116925082906370a0823190602401602060405180830381865afa1580156118a3573d6000803e3d6000fd5b505050506040513d601f19601f820116820180604052508101906118c79190613b4e565b90506108e9848285611047565b6000600e83815481106118e9576118e9613ab7565b600091825260209091206004600590920201015473ffffffffffffffffffffffffffffffffffffffff16905033811461194e576040517f82b4290000000000000000000000000000000000000000000000000000000000815260040160405180910390fd5b6040517fef5cfb8c00000000000000000000000000000000000000000000000000000000815273ffffffffffffffffffffffffffffffffffffffff83811660048301527f0000000000000000000000000000000000000000000000000000000000000000169063ef5cfb8c90602401600060405180830381600087803b1580156119d757600080fd5b505af11580156119eb573d6000803e3d6000fd5b50505050505050565b60085473ffffffffffffffffffffffffffffffffffffffff16338114611a46576040517f82b4290000000000000000000000000000000000000000000000000000000000815260040160405180910390fd5b600880547fffffffffffffffffffffffff00000000000000000000000000000000000000001673ffffffffffffffffffffffffffffffffffffffff84169081179091556040519081527f2a1362e990f0ede76fc346823fb053633a4e6e30dfe212bf6c162ab895c3e24d906020016109b0565b6009546040517ff40a614500000000000000000000000000000000000000000000000000000000815273ffffffffffffffffffffffffffffffffffffffff9182166004820152602481018390527f00000000000000000000000000000000000000000000000000000000000000009091169063f40a614590604401600060405180830381600087803b15801561102c57600080fd5b60045473ffffffffffffffffffffffffffffffffffffffff16338114611ba0576040517f82b4290000000000000000000000000000000000000000000000000000000000815260040160405180910390fd5b600480547fffffffffffffffffffffffff00000000000000000000000000000000000000001673ffffffffffffffffffffffffffffffffffffffff84169081179091556040519081527fe53395243914ebc025ce712146f66fa5e9d3f04b308fae19ac4123350d1cd20f906020016109b0565b60025473ffffffffffffffffffffffffffffffffffffffff16338114611c65576040517f82b4290000000000000000000000000000000000000000000000000000000000815260040160405180910390fd5b60055473ffffffffffffffffffffffffffffffffffffffff16611cd8576005805473ffffffffffffffffffffffffffffffffffffffff8087167fffffffffffffffffffffffff00000000000000000000000000000000000000009283161790925560078054928516929091169190911790555b5050600680547fffffffffffffffffffffffff00000000000000000000000000000000000000001673ffffffffffffffffffffffffffffffffffffffff9290921691909117905550565b600b8181548110611d3257600080fd5b60009182526020909120015473ffffffffffffffffffffffffffffffffffffffff16905081565b6000600e8281548110611d6e57611d6e613ab7565b60009182526020822060059190910201600101546040517f70a0823100000000000000000000000000000000000000000000000000000000815233600482015273ffffffffffffffffffffffffffffffffffffffff909116925082906370a0823190602401602060405180830381865afa158015611df0573d6000803e3d6000fd5b505050506040513d601f19601f82011682018060405250810190611e149190613b4e565b9050611e208382611517565b505050565b60035473ffffffffffffffffffffffffffffffffffffffff16338114611e77576040517f82b4290000000000000000000000000000000000000000000000000000000000815260040160405180910390fd5b600b80546001810182556000919091527f0175b7a638427703f0dbe7bb9bbf987a2551717b34e79f33b5b1008d1fa01db90180547fffffffffffffffffffffffff00000000000000000000000000000000000000001673ffffffffffffffffffffffffffffffffffffffff8481169182179092557f00000000000000000000000000000000000000000000000000000000000000009091169003611f6d57600a5473ffffffffffffffffffffffffffffffffffffffff8381166000908152600c6020526040902080547fffffffffffffffffffffffff000000000000000000000000000000000000000016919092161790555050565b600554600a546040517f2f1b327100000000000000000000000000000000000000000000000000000000815273ffffffffffffffffffffffffffffffffffffffff858116600483015291821660248201523060448201526000929190911690632f1b3271906064016020604051808303816000875af1158015611ff4573d6000803e3d6000fd5b505050506040513d601f19601f820116820180604052508101906120189190613b84565b73ffffffffffffffffffffffffffffffffffffffff9384166000908152600c6020526040902080547fffffffffffffffffffffffff00000000000000000000000000000000000000001691909416179092555050565b60085473ffffffffffffffffffffffffffffffffffffffff163381146120c0576040517f82b4290000000000000000000000000000000000000000000000000000000000815260040160405180910390fd5b6040517f28fa28a900000000000000000000000000000000000000000000000000000000815273ffffffffffffffffffffffffffffffffffffffff7f000000000000000000000000000000000000000000000000000000000000000016906328fa28a990612138908890889088908890600401613ba1565b600060405180830381600087803b15801561215257600080fd5b505af1158015612166573d6000803e3d6000fd5b505050505050505050565b61217a81612d06565b50565b60045473ffffffffffffffffffffffffffffffffffffffff163381146121cf576040517f82b4290000000000000000000000000000000000000000000000000000000000815260040160405180910390fd5b600d5460ff161561220c576040517f4426aa1f00000000000000000000000000000000000000000000000000000000815260040160405180910390fd5b73ffffffffffffffffffffffffffffffffffffffff82161580612243575073ffffffffffffffffffffffffffffffffffffffff8316155b80612273575073ffffffffffffffffffffffffffffffffffffffff82166000908152600f602052604090205460ff165b156122aa576040517fe523909000000000000000000000000000000000000000000000000000000000815260040160405180910390fd5b600e546007546040517f40923cf700000000000000000000000000000000000000000000000000000000815273ffffffffffffffffffffffffffffffffffffffff868116600483015260009216906340923cf7906024016020604051808303816000875af1158015612320573d6000803e3d6000fd5b505050506040513d601f19601f820116820180604052508101906123449190613b84565b6005546040517f15914c990000000000000000000000000000000000000000000000000000000081526004810185905273ffffffffffffffffffffffffffffffffffffffff8084166024830152929350600092909116906315914c99906044016020604051808303816000875af11580156123c3573d6000803e3d6000fd5b505050506040513d601f19601f820116820180604052508101906123e79190613b84565b6006546040517f31c49cba0000000000000000000000000000000000000000000000000000000081526004810186905273ffffffffffffffffffffffffffffffffffffffff8881166024830152929350600092909116906331c49cba906044016020604051808303816000875af1158015612466573d6000803e3d6000fd5b505050506040513d601f19601f8201168201806040525081019061248a9190613b84565b905073ffffffffffffffffffffffffffffffffffffffff81166124d9576040517f01485c8f00000000000000000000000000000000000000000000000000000000815260040160405180910390fd5b6040805160c08101825273ffffffffffffffffffffffffffffffffffffffff808a16825285811660208084019182528a83168486018181528885166060870190815288861660808801908152600060a08901818152600e8054600181810183558285529b5160059091027fbb7b4a454dc3493923482f07822329ed19e8244eff582cc204f8554c3620c3fd81018054928d167fffffffffffffffffffffffff000000000000000000000000000000000000000093841617905599517fbb7b4a454dc3493923482f07822329ed19e8244eff582cc204f8554c3620c3fe8b018054918d1691831691909117905595517fbb7b4a454dc3493923482f07822329ed19e8244eff582cc204f8554c3620c3ff8a018054918c1691881691909117905593517fbb7b4a454dc3493923482f07822329ed19e8244eff582cc204f8554c3620c40089018054918b16919096161790945590517fbb7b4a454dc3493923482f07822329ed19e8244eff582cc204f8554c3620c40190960180549351151574010000000000000000000000000000000000000000027fffffffffffffffffffffff0000000000000000000000000000000000000000009094169690971695909517919091179094558252600f90529290922080547fffffffffffffffffffffffffffffffffffffffffffffffffffffffffffffff001690911790558054829190869081106126e8576126e8613ab7565b60009182526020909120600591820201600490810180547fffffffffffffffffffffffff00000000000000000000000000000000000000001673ffffffffffffffffffffffffffffffffffffffff94851617905590546040517f5e4e27db0000000000000000000000000000000000000000000000000000000081528484169281019290925290911690635e4e27db90602401600060405180830381600087803b15801561279557600080fd5b505af11580156127a9573d6000803e3d6000fd5b505050506127b7818761333d565b6040805185815273ffffffffffffffffffffffffffffffffffffffff808a166020830152808616928201929092528188166060820152818416608082015290821660a08201527f9b0d65965b5814a300c8080287057711dfee63c4041c4c69d4086c4679bb4f1c9060c001611506565b60035473ffffffffffffffffffffffffffffffffffffffff16338114612879576040517f82b4290000000000000000000000000000000000000000000000000000000000815260040160405180910390fd5b600980547fffffffffffffffffffffffff00000000000000000000000000000000000000001673ffffffffffffffffffffffffffffffffffffffff84169081179091556040519081527fc714d22a2f08b695f81e7c707058db484aa5b4d6b4c9fd64beb10fe85832f608906020016109b0565b60025473ffffffffffffffffffffffffffffffffffffffff1633811461293e576040517f82b4290000000000000000000000000000000000000000000000000000000000815260040160405180910390fd5b6040517ff3ff955a00000000000000000000000000000000000000000000000000000000815273ffffffffffffffffffffffffffffffffffffffff83811660048301527f0000000000000000000000000000000000000000000000000000000000000000169063f3ff955a90602401600060405180830381600087803b1580156129c757600080fd5b505af11580156129db573d6000803e3d6000fd5b505050505050565b6000600e85815481106129f8576129f8613ab7565b600091825260209091206005909102018054600282015460018301546040517f9dc29fac00000000000000000000000000000000000000000000000000000000815273ffffffffffffffffffffffffffffffffffffffff8881166004830152602482018a905294955092841693918216929116908190639dc29fac90604401600060405180830381600087803b158015612a9157600080fd5b505af1158015612aa5573d6000803e3d6000fd5b50505050600484015474010000000000000000000000000000000000000000900460ff16612b7e576040517fd9caed1200000000000000000000000000000000000000000000000000000000815273ffffffffffffffffffffffffffffffffffffffff84811660048301528381166024830152604482018990527f0000000000000000000000000000000000000000000000000000000000000000169063d9caed1290606401600060405180830381600087803b158015612b6557600080fd5b505af1158015612b79573d6000803e3d6000fd5b505050505b6040517fa9059cbb00000000000000000000000000000000000000000000000000000000815273ffffffffffffffffffffffffffffffffffffffff86811660048301526024820189905284169063a9059cbb906044016020604051808303816000875af1158015612bf3573d6000803e3d6000fd5b505050506040513d601f19601f82011682018060405250810190612c179190613b67565b506040805173ffffffffffffffffffffffffffffffffffffffff87168152602081018a90529081018890527f92ccf450a286a957af52509bc1c9939d1a6a481783e142e41e2499f0bb66ebc69060600160405180910390a15050505050505050565b6040805173ffffffffffffffffffffffffffffffffffffffff8416602482015260448082018490528251808303909101815260649091019091526020810180517bffffffffffffffffffffffffffffffffffffffffffffffffffffffff167fa9059cbb00000000000000000000000000000000000000000000000000000000179052611e209084906134c1565b6000600e8281548110612d1b57612d1b613ab7565b906000526020600020906005020190508060040160149054906101000a900460ff1615612d74576040517fefc869b400000000000000000000000000000000000000000000000000000000815260040160405180910390fd5b60028101546040517f1e4b196a00000000000000000000000000000000000000000000000000000000815273ffffffffffffffffffffffffffffffffffffffff91821660048201819052917f00000000000000000000000000000000000000000000000000000000000000001690631e4b196a906024016020604051808303816000875af1158015612e0a573d6000803e3d6000fd5b505050506040513d601f19601f82011682018060405250810190612e2e9190613b4e565b50600482015473ffffffffffffffffffffffffffffffffffffffff168015612f11578073ffffffffffffffffffffffffffffffffffffffff1663372500ab6040518163ffffffff1660e01b8152600401600060405180830381600087803b158015612e9857600080fd5b505af1158015612eac573d6000803e3d6000fd5b505050508073ffffffffffffffffffffffffffffffffffffffff1663ca8b01766040518163ffffffff1660e01b8152600401600060405180830381600087803b158015612ef857600080fd5b505af1158015612f0c573d6000803e3d6000fd5b505050505b6040517f70a082310000000000000000000000000000000000000000000000000000000081523060048201526000907f000000000000000000000000000000000000000000000000000000000000000073ffffffffffffffffffffffffffffffffffffffff16906370a0823190602401602060405180830381865afa158015612f9e573d6000803e3d6000fd5b505050506040513d601f19601f82011682018060405250810190612fc29190613b4e565b9050801561104057600061271060005483612fdd9190613c4b565b612fe79190613c88565b6003546040517fa9059cbb00000000000000000000000000000000000000000000000000000000815273ffffffffffffffffffffffffffffffffffffffff9182166004820152602481018390529192507f0000000000000000000000000000000000000000000000000000000000000000169063a9059cbb906044016020604051808303816000875af1158015613082573d6000803e3d6000fd5b505050506040513d601f19601f820116820180604052508101906130a69190613b67565b5060095473ffffffffffffffffffffffffffffffffffffffff16158015906130e6575060095473ffffffffffffffffffffffffffffffffffffffff163014155b80156130f457506000600154115b156131e45760006127106001548461310c9190613c4b565b6131169190613c88565b90506131228184613cc3565b6009546040517fa9059cbb00000000000000000000000000000000000000000000000000000000815273ffffffffffffffffffffffffffffffffffffffff9182166004820152602481018490529194507f0000000000000000000000000000000000000000000000000000000000000000169063a9059cbb906044016020604051808303816000875af11580156131bd573d6000803e3d6000fd5b505050506040513d601f19601f820116820180604052508101906131e19190613b67565b50505b6131ee8183613cc3565b60038601546040517fa9059cbb00000000000000000000000000000000000000000000000000000000815273ffffffffffffffffffffffffffffffffffffffff91821660048201819052602482018490529294507f00000000000000000000000000000000000000000000000000000000000000009091169063a9059cbb906044016020604051808303816000875af115801561328f573d6000803e3d6000fd5b505050506040513d601f19601f820116820180604052508101906132b39190613b67565b506040517f590a41f50000000000000000000000000000000000000000000000000000000081526004810184905273ffffffffffffffffffffffffffffffffffffffff82169063590a41f590602401600060405180830381600087803b15801561331c57600080fd5b505af1158015613330573d6000803e3d6000fd5b5050505050505050505050565b6040805173ffffffffffffffffffffffffffffffffffffffff84811660248084019190915283518084039091018152604490920183526020820180517bffffffffffffffffffffffffffffffffffffffffffffffffffffffff167fbdf981160000000000000000000000000000000000000000000000000000000017905291517fb61d27f600000000000000000000000000000000000000000000000000000000815290916000917f00000000000000000000000000000000000000000000000000000000000000009091169063b61d27f69061342290869085908790600401613d50565b6000604051808303816000875af1158015613441573d6000803e3d6000fd5b505050506040513d6000823e601f3d9081017fffffffffffffffffffffffffffffffffffffffffffffffffffffffffffffffe01682016040526134879190810190613dbd565b509050806108e9576040517f613f5a7300000000000000000000000000000000000000000000000000000000815260040160405180910390fd5b6000613523826040518060400160405280602081526020017f5361666545524332303a206c6f772d6c6576656c2063616c6c206661696c65648152508573ffffffffffffffffffffffffffffffffffffffff166135d29092919063ffffffff16565b805190915015611e2057808060200190518101906135419190613b67565b611e20576040517f08c379a000000000000000000000000000000000000000000000000000000000815260206004820152602a60248201527f5361666545524332303a204552433230206f7065726174696f6e20646964206e60448201527f6f7420737563636565640000000000000000000000000000000000000000000060648201526084015b60405180910390fd5b60606135e184846000856135eb565b90505b9392505050565b60608247101561367d576040517f08c379a000000000000000000000000000000000000000000000000000000000815260206004820152602660248201527f416464726573733a20696e73756666696369656e742062616c616e636520666f60448201527f722063616c6c000000000000000000000000000000000000000000000000000060648201526084016135c9565b73ffffffffffffffffffffffffffffffffffffffff85163b6136fb576040517f08c379a000000000000000000000000000000000000000000000000000000000815260206004820152601d60248201527f416464726573733a2063616c6c20746f206e6f6e2d636f6e747261637400000060448201526064016135c9565b6000808673ffffffffffffffffffffffffffffffffffffffff1685876040516137249190613e9e565b60006040518083038185875af1925050503d8060008114613761576040519150601f19603f3d011682016040523d82523d6000602084013e613766565b606091505b5091509150613776828286613781565b979650505050505050565b606083156137905750816135e4565b8251156137a05782518084602001fd5b816040517f08c379a00000000000000000000000000000000000000000000000000000000081526004016135c99190613eba565b508054600082559060005260206000209081019061217a91905b8082111561380257600081556001016137ee565b5090565b6000806040838503121561381957600080fd5b50508035926020909101359150565b73ffffffffffffffffffffffffffffffffffffffff8116811461217a57600080fd5b60006020828403121561385c57600080fd5b81356135e481613828565b60008060006060848603121561387c57600080fd5b8335925060208401359150604084013561389581613828565b809150509250925092565b6000602082840312156138b257600080fd5b5035919050565b801515811461217a57600080fd5b6000806000606084860312156138dc57600080fd5b83359250602084013591506040840135613895816138b9565b6000806040838503121561390857600080fd5b82359150602083013561391a816138b9565b809150509250929050565b6000806040838503121561393857600080fd5b82359150602083013561391a81613828565b60008060006060848603121561395f57600080fd5b833561396a81613828565b9250602084013561397a81613828565b9150604084013561389581613828565b60008083601f84011261399c57600080fd5b50813567ffffffffffffffff8111156139b457600080fd5b6020830191508360208260051b85010111156139cf57600080fd5b9250929050565b600080600080604085870312156139ec57600080fd5b843567ffffffffffffffff80821115613a0457600080fd5b613a108883890161398a565b90965094506020870135915080821115613a2957600080fd5b50613a368782880161398a565b95989497509550505050565b60008060408385031215613a5557600080fd5b8235613a6081613828565b9150602083013561391a81613828565b7f4e487b7100000000000000000000000000000000000000000000000000000000600052601160045260246000fd5b60008219821115613ab257613ab2613a70565b500190565b7f4e487b7100000000000000000000000000000000000000000000000000000000600052603260045260246000fd5b60006040820173ffffffffffffffffffffffffffffffffffffffff80861684526020604081860152828651808552606087019150828801945060005b81811015613b40578551851683529483019491830191600101613b22565b509098975050505050505050565b600060208284031215613b6057600080fd5b5051919050565b600060208284031215613b7957600080fd5b81516135e4816138b9565b600060208284031215613b9657600080fd5b81516135e481613828565b6040808252810184905260008560608301825b87811015613bf1578235613bc781613828565b73ffffffffffffffffffffffffffffffffffffffff16825260209283019290910190600101613bb4565b5083810360208501528481527f07ffffffffffffffffffffffffffffffffffffffffffffffffffffffffffffff851115613c2a57600080fd5b8460051b915081866020830137600091016020019081529695505050505050565b6000817fffffffffffffffffffffffffffffffffffffffffffffffffffffffffffffffff0483118215151615613c8357613c83613a70565b500290565b600082613cbe577f4e487b7100000000000000000000000000000000000000000000000000000000600052601260045260246000fd5b500490565b600082821015613cd557613cd5613a70565b500390565b60005b83811015613cf5578181015183820152602001613cdd565b838111156108e95750506000910152565b60008151808452613d1e816020860160208601613cda565b601f017fffffffffffffffffffffffffffffffffffffffffffffffffffffffffffffffe0169290920160200192915050565b73ffffffffffffffffffffffffffffffffffffffff84168152826020820152606060408201526000613d856060830184613d06565b95945050505050565b7f4e487b7100000000000000000000000000000000000000000000000000000000600052604160045260246000fd5b60008060408385031215613dd057600080fd5b8251613ddb816138b9565b602084015190925067ffffffffffffffff80821115613df957600080fd5b818501915085601f830112613e0d57600080fd5b815181811115613e1f57613e1f613d8e565b604051601f82017fffffffffffffffffffffffffffffffffffffffffffffffffffffffffffffffe0908116603f01168101908382118183101715613e6557613e65613d8e565b81604052828152886020848701011115613e7e57600080fd5b613e8f836020830160208801613cda565b80955050505050509250929050565b60008251613eb0818460208701613cda565b9190910192915050565b6020815260006135e46020830184613d0656fea264697066735822122059e17937eed6105b19146a010f9ef9b5febec32ca8b6c62ba7827b693c92327564736f6c634300080f0033",
  "devdoc": {
    "details": "Controller contract for Prime Pools is based on the convex Booster.sol contract",
    "kind": "dev",
    "methods": {
      "addFeeToken(address)": {
        "params": {
          "_feeToken": "feeToken"
        }
      },
      "addPool(address,address)": {
        "params": {
          "_gauge": "The address of the gauge controller",
          "_lptoken": "The address of the lp token"
        }
      },
      "bulkPoolShutdown(uint256,uint256)": {
        "details": "Claims rewards for that pool before shutting it down",
        "params": {
          "_endPoolIdx": "End pool index (excluded)",
          "_startPoolIdx": "Start pool index"
        }
      },
      "claimRewards(uint256,address)": {
        "params": {
          "_gauge": "address of the gauge",
          "_pid": "the id of the pool"
        }
      },
      "delegateVotingPower(address)": {
        "params": {
          "_delegateTo": "to whom we delegate voting power"
        }
      },
      "deposit(uint256,uint256,bool)": {
        "details": "Sender must approve LP tokens to Controller smart contract",
        "params": {
          "_amount": "The amount of lp tokens to be deposited",
          "_pid": "The pool id to deposit lp tokens into",
          "_stake": "bool for wheather the tokens should be staked"
        }
      },
      "depositAll(uint256,bool)": {
        "details": "Sender must approve LP tokens to Controller smart contract",
        "params": {
          "_pid": "The pool id to deposit lp tokens into",
          "_stake": "bool for wheather the tokens should be staked"
        }
      },
      "earmarkRewards(uint256)": {
        "params": {
          "_pid": "the id of the pool where lp tokens are held"
        }
      },
      "setFactories(address,address,address)": {
        "params": {
          "_rfactory": "The address of the reward factory",
          "_sfactory": "The address of the stash factory",
          "_tfactory": "The address of the token factory"
        }
      },
      "setFeeManager(address)": {
        "params": {
          "_feeM": "The address of the fee manager"
        }
      },
      "setFees(uint256,uint256)": {
        "params": {
          "_platformFee": "The amount to set for the platform fees",
          "_profitFee": "The amount to set for the profit fees"
        }
      },
      "setOwner(address)": {
        "params": {
          "_owner": "The address of the owner of the contract"
        }
      },
      "setPoolManager(address)": {
        "params": {
          "_poolM": "The address of the pool manager"
        }
      },
      "setRewardContracts(address)": {
        "params": {
          "_rewards": "The address of the rewards contract"
        }
      },
      "setTreasury(address)": {
        "params": {
          "_treasury": "The address of the treasury contract"
        }
      },
      "setVoteDelegate(address)": {
        "params": {
          "_voteDelegate": "The address of whom votes will be delegated to"
        }
      },
      "shutdownSystem()": {
        "details": "This shuts down the contract"
      },
      "voteGaugeWeight(address[],uint256[])": {
        "params": {
          "_gauges": "array of gauge addresses",
          "_weights": "array of vote weights"
        }
      },
      "withdraw(uint256,uint256)": {
        "params": {
          "_amount": "amount of LP tokens to withdraw",
          "_pid": "The pool id to withdraw lp tokens from"
        }
      },
      "withdrawAll(uint256)": {
        "params": {
          "_pid": "The pool id to withdraw lp tokens from"
        }
      },
      "withdrawTo(uint256,uint256,address)": {
        "params": {
          "_amount": "amount of LP tokens to withdraw",
          "_pid": "The pool id to deposit lp tokens into"
        }
      },
      "withdrawUnlockedWethBal(uint256)": {
        "params": {
          "_amount": "amount of tokens to withdraw"
        }
      }
    },
    "title": "Controller contract",
    "version": 1
  },
  "userdoc": {
    "kind": "user",
    "methods": {
      "addFeeToken(address)": {
        "notice": "sets the address of the feeToken"
      },
      "addPool(address,address)": {
        "notice": "creates a new pool"
      },
      "bulkPoolShutdown(uint256,uint256)": {
        "notice": "Shuts down multiple pools"
      },
      "claimRewards(uint256,address)": {
        "notice": "claims rewards from a specific pool"
      },
      "clearDelegation()": {
        "notice": "Clears delegation of voting power from EOA for VoterProxy"
      },
      "clearFeeTokens()": {
        "notice": "Clears fee tokens"
      },
      "delegateVotingPower(address)": {
        "notice": "Delegates voting power from VoterProxy"
      },
      "deposit(uint256,uint256,bool)": {
        "notice": "Deposits an amount of LP token into a specific pool, mints reward and optionally tokens and  stakes them into the reward contract"
      },
      "depositAll(uint256,bool)": {
        "notice": "Deposits and stakes all LP tokens"
      },
      "earmarkFees()": {
        "notice": "Claims rewards from the Balancer's fee distributor contract and transfers the tokens into the rewards contract"
      },
      "earmarkRewards(uint256)": {
        "notice": "Claims rewards from a pool and disperses them to the rewards contract"
      },
      "poolLength()": {
        "notice": "returns the number of pools"
      },
      "setFactories(address,address,address)": {
        "notice": "sets the reward, token, and stash factory addresses"
      },
      "setFeeManager(address)": {
        "notice": "sets the feeManager variable"
      },
      "setFees(uint256,uint256)": {
        "notice": "sets the lock, staker, caller, platform fees and profit fees"
      },
      "setOwner(address)": {
        "notice": "sets the owner variable"
      },
      "setPoolManager(address)": {
        "notice": "sets the poolManager variable"
      },
      "setRewardContracts(address)": {
        "notice": "sets the lockRewards variable"
      },
      "setTreasury(address)": {
        "notice": "sets the contracts treasury variables"
      },
      "setVoteDelegate(address)": {
        "notice": "sets the voteDelegate variable"
      },
      "shutdownSystem()": {
        "notice": "shuts down all pools"
      },
      "voteGaugeWeight(address[],uint256[])": {
        "notice": "Votes for multiple gauges"
      },
      "withdraw(uint256,uint256)": {
        "notice": "Withdraws lp tokens from the pool"
      },
      "withdrawAll(uint256)": {
        "notice": "Withdraws all of the lp tokens in the pool"
      },
      "withdrawTo(uint256,uint256,address)": {
        "notice": "Withdraws LP tokens and sends them to a specified address"
      },
      "withdrawUnlockedWethBal(uint256)": {
        "notice": "Withdraws `amount` of unlocked WethBal to treasury"
      }
    },
    "version": 1
  },
  "storageLayout": {
    "storage": [
      {
        "astId": 4277,
        "contract": "contracts/Controller.sol:Controller",
        "label": "profitFees",
        "offset": 0,
        "slot": "0",
        "type": "t_uint256"
      },
      {
        "astId": 4280,
        "contract": "contracts/Controller.sol:Controller",
        "label": "platformFees",
        "offset": 0,
        "slot": "1",
        "type": "t_uint256"
      },
      {
        "astId": 4282,
        "contract": "contracts/Controller.sol:Controller",
        "label": "owner",
        "offset": 0,
        "slot": "2",
        "type": "t_address"
      },
      {
        "astId": 4284,
        "contract": "contracts/Controller.sol:Controller",
        "label": "feeManager",
        "offset": 0,
        "slot": "3",
        "type": "t_address"
      },
      {
        "astId": 4286,
        "contract": "contracts/Controller.sol:Controller",
        "label": "poolManager",
        "offset": 0,
        "slot": "4",
        "type": "t_address"
      },
      {
        "astId": 4288,
        "contract": "contracts/Controller.sol:Controller",
        "label": "rewardFactory",
        "offset": 0,
        "slot": "5",
        "type": "t_address"
      },
      {
        "astId": 4290,
        "contract": "contracts/Controller.sol:Controller",
        "label": "stashFactory",
        "offset": 0,
        "slot": "6",
        "type": "t_address"
      },
      {
        "astId": 4292,
        "contract": "contracts/Controller.sol:Controller",
        "label": "tokenFactory",
        "offset": 0,
        "slot": "7",
        "type": "t_address"
      },
      {
        "astId": 4294,
        "contract": "contracts/Controller.sol:Controller",
        "label": "voteDelegate",
        "offset": 0,
        "slot": "8",
        "type": "t_address"
      },
      {
        "astId": 4296,
        "contract": "contracts/Controller.sol:Controller",
        "label": "treasury",
        "offset": 0,
        "slot": "9",
        "type": "t_address"
      },
      {
        "astId": 4298,
        "contract": "contracts/Controller.sol:Controller",
        "label": "lockRewards",
        "offset": 0,
        "slot": "10",
        "type": "t_address"
      },
      {
        "astId": 4302,
        "contract": "contracts/Controller.sol:Controller",
        "label": "feeTokens",
        "offset": 0,
        "slot": "11",
        "type": "t_array(t_contract(IERC20)816)dyn_storage"
      },
      {
        "astId": 4306,
        "contract": "contracts/Controller.sol:Controller",
        "label": "feeTokenToPool",
        "offset": 0,
        "slot": "12",
        "type": "t_mapping(t_address,t_address)"
      },
      {
        "astId": 4308,
        "contract": "contracts/Controller.sol:Controller",
        "label": "isShutdown",
        "offset": 0,
        "slot": "13",
        "type": "t_bool"
      },
      {
        "astId": 4325,
        "contract": "contracts/Controller.sol:Controller",
        "label": "poolInfo",
        "offset": 0,
        "slot": "14",
        "type": "t_array(t_struct(PoolInfo)4321_storage)dyn_storage"
      },
      {
        "astId": 4329,
        "contract": "contracts/Controller.sol:Controller",
        "label": "gaugeMap",
        "offset": 0,
        "slot": "15",
        "type": "t_mapping(t_address,t_bool)"
      }
    ],
    "types": {
      "t_address": {
        "encoding": "inplace",
        "label": "address",
        "numberOfBytes": "20"
      },
      "t_array(t_contract(IERC20)816)dyn_storage": {
        "base": "t_contract(IERC20)816",
        "encoding": "dynamic_array",
        "label": "contract IERC20[]",
        "numberOfBytes": "32"
      },
      "t_array(t_struct(PoolInfo)4321_storage)dyn_storage": {
        "base": "t_struct(PoolInfo)4321_storage",
        "encoding": "dynamic_array",
        "label": "struct Controller.PoolInfo[]",
        "numberOfBytes": "32"
      },
      "t_bool": {
        "encoding": "inplace",
        "label": "bool",
        "numberOfBytes": "1"
      },
      "t_contract(IERC20)816": {
        "encoding": "inplace",
        "label": "contract IERC20",
        "numberOfBytes": "20"
      },
      "t_mapping(t_address,t_address)": {
        "encoding": "mapping",
        "key": "t_address",
        "label": "mapping(address => address)",
        "numberOfBytes": "32",
        "value": "t_address"
      },
      "t_mapping(t_address,t_bool)": {
        "encoding": "mapping",
        "key": "t_address",
        "label": "mapping(address => bool)",
        "numberOfBytes": "32",
        "value": "t_bool"
      },
      "t_struct(PoolInfo)4321_storage": {
        "encoding": "inplace",
        "label": "struct Controller.PoolInfo",
        "members": [
          {
            "astId": 4310,
            "contract": "contracts/Controller.sol:Controller",
            "label": "lptoken",
            "offset": 0,
            "slot": "0",
            "type": "t_address"
          },
          {
            "astId": 4312,
            "contract": "contracts/Controller.sol:Controller",
            "label": "token",
            "offset": 0,
            "slot": "1",
            "type": "t_address"
          },
          {
            "astId": 4314,
            "contract": "contracts/Controller.sol:Controller",
            "label": "gauge",
            "offset": 0,
            "slot": "2",
            "type": "t_address"
          },
          {
            "astId": 4316,
            "contract": "contracts/Controller.sol:Controller",
            "label": "balRewards",
            "offset": 0,
            "slot": "3",
            "type": "t_address"
          },
          {
            "astId": 4318,
            "contract": "contracts/Controller.sol:Controller",
            "label": "stash",
            "offset": 0,
            "slot": "4",
            "type": "t_address"
          },
          {
            "astId": 4320,
            "contract": "contracts/Controller.sol:Controller",
            "label": "shutdown",
            "offset": 20,
            "slot": "4",
            "type": "t_bool"
          }
        ],
        "numberOfBytes": "160"
      },
      "t_uint256": {
        "encoding": "inplace",
        "label": "uint256",
        "numberOfBytes": "32"
      }
    }
  }
}