{
  "address": "0xbad3492fB518dBA222F8B7f09b1Ef6E45A44929d",
  "abi": [
    {
      "inputs": [
        {
          "internalType": "address",
          "name": "_staker",
          "type": "address"
        },
        {
          "internalType": "address",
          "name": "_bal",
          "type": "address"
        },
        {
          "internalType": "address",
          "name": "_feeDistro",
          "type": "address"
        }
      ],
      "stateMutability": "nonpayable",
      "type": "constructor"
    },
    {
      "inputs": [],
      "name": "InvalidParameters",
      "type": "error"
    },
    {
      "inputs": [],
      "name": "InvalidStash",
      "type": "error"
    },
    {
      "inputs": [],
      "name": "PoolIsClosed",
      "type": "error"
    },
    {
      "inputs": [],
      "name": "RedirectFailed",
      "type": "error"
    },
    {
      "inputs": [],
      "name": "Shutdown",
      "type": "error"
    },
    {
      "inputs": [],
      "name": "Unauthorized",
      "type": "error"
    },
    {
      "anonymous": false,
      "inputs": [
        {
          "indexed": false,
          "internalType": "uint256",
          "name": "_pid",
          "type": "uint256"
        },
        {
          "indexed": false,
          "internalType": "address",
          "name": "_lpToken",
          "type": "address"
        },
        {
          "indexed": false,
          "internalType": "address",
          "name": "_token",
          "type": "address"
        },
        {
          "indexed": false,
          "internalType": "address",
          "name": "_gauge",
          "type": "address"
        },
        {
          "indexed": false,
          "internalType": "address",
          "name": "_baseRewardsPool",
          "type": "address"
        },
        {
          "indexed": false,
          "internalType": "address",
          "name": "_stash",
          "type": "address"
        }
      ],
      "name": "AddedPool",
      "type": "event"
    },
    {
      "anonymous": false,
      "inputs": [
        {
          "indexed": false,
          "internalType": "address",
          "name": "_user",
          "type": "address"
        },
        {
          "indexed": false,
          "internalType": "uint256",
          "name": "_pid",
          "type": "uint256"
        },
        {
          "indexed": false,
          "internalType": "uint256",
          "name": "_amount",
          "type": "uint256"
        },
        {
          "indexed": false,
          "internalType": "bool",
          "name": "_stake",
          "type": "bool"
        }
      ],
      "name": "Deposited",
      "type": "event"
    },
    {
      "anonymous": false,
      "inputs": [
        {
          "indexed": false,
          "internalType": "address",
          "name": "_newFeeManager",
          "type": "address"
        }
      ],
      "name": "FeeManagerChanged",
      "type": "event"
    },
    {
      "anonymous": false,
      "inputs": [],
      "name": "FeeTokensCleared",
      "type": "event"
    },
    {
      "anonymous": false,
      "inputs": [
        {
          "indexed": false,
          "internalType": "uint256",
          "name": "_newPlatformFee",
          "type": "uint256"
        },
        {
          "indexed": false,
          "internalType": "uint256",
          "name": "_newProfitFee",
          "type": "uint256"
        }
      ],
      "name": "FeesChanged",
      "type": "event"
    },
    {
      "anonymous": false,
      "inputs": [
        {
          "indexed": false,
          "internalType": "address",
          "name": "_newOwner",
          "type": "address"
        }
      ],
      "name": "OwnerChanged",
      "type": "event"
    },
    {
      "anonymous": false,
      "inputs": [
        {
          "indexed": false,
          "internalType": "address",
          "name": "_newPoolManager",
          "type": "address"
        }
      ],
      "name": "PoolManagerChanged",
      "type": "event"
    },
    {
      "anonymous": false,
      "inputs": [
        {
          "indexed": false,
          "internalType": "uint256",
          "name": "_pid",
          "type": "uint256"
        }
      ],
      "name": "PoolShutDown",
      "type": "event"
    },
    {
      "anonymous": false,
      "inputs": [],
      "name": "SystemShutdown",
      "type": "event"
    },
    {
      "anonymous": false,
      "inputs": [
        {
          "indexed": false,
          "internalType": "address",
          "name": "_newTreasury",
          "type": "address"
        }
      ],
      "name": "TreasuryChanged",
      "type": "event"
    },
    {
      "anonymous": false,
      "inputs": [
        {
          "indexed": false,
          "internalType": "address",
          "name": "_newVoteDelegate",
          "type": "address"
        }
      ],
      "name": "VoteDelegateChanged",
      "type": "event"
    },
    {
      "anonymous": false,
      "inputs": [
        {
          "indexed": false,
          "internalType": "address",
          "name": "_user",
          "type": "address"
        },
        {
          "indexed": false,
          "internalType": "uint256",
          "name": "_pid",
          "type": "uint256"
        },
        {
          "indexed": false,
          "internalType": "uint256",
          "name": "_amount",
          "type": "uint256"
        }
      ],
      "name": "Withdrawn",
      "type": "event"
    },
    {
      "inputs": [],
      "name": "FEE_DENOMINATOR",
      "outputs": [
        {
          "internalType": "uint256",
          "name": "",
          "type": "uint256"
        }
      ],
      "stateMutability": "view",
      "type": "function"
    },
    {
      "inputs": [],
      "name": "MAX_FEES",
      "outputs": [
        {
          "internalType": "uint256",
          "name": "",
          "type": "uint256"
        }
      ],
      "stateMutability": "view",
      "type": "function"
    },
    {
      "inputs": [],
      "name": "MAX_LOCK_TIME",
      "outputs": [
        {
          "internalType": "uint256",
          "name": "",
          "type": "uint256"
        }
      ],
      "stateMutability": "view",
      "type": "function"
    },
    {
      "inputs": [
        {
          "internalType": "contract IERC20",
          "name": "_feeToken",
          "type": "address"
        }
      ],
      "name": "addFeeToken",
      "outputs": [],
      "stateMutability": "nonpayable",
      "type": "function"
    },
    {
      "inputs": [
        {
          "internalType": "address",
          "name": "_lptoken",
          "type": "address"
        },
        {
          "internalType": "address",
          "name": "_gauge",
          "type": "address"
        }
      ],
      "name": "addPool",
      "outputs": [],
      "stateMutability": "nonpayable",
      "type": "function"
    },
    {
      "inputs": [],
      "name": "bal",
      "outputs": [
        {
          "internalType": "address",
          "name": "",
          "type": "address"
        }
      ],
      "stateMutability": "view",
      "type": "function"
    },
    {
      "inputs": [
        {
          "internalType": "uint256",
          "name": "_startPoolIdx",
          "type": "uint256"
        },
        {
          "internalType": "uint256",
          "name": "_endPoolIdx",
          "type": "uint256"
        }
      ],
      "name": "bulkPoolShutdown",
      "outputs": [],
      "stateMutability": "nonpayable",
      "type": "function"
    },
    {
      "inputs": [],
      "name": "canClaim",
      "outputs": [
        {
          "internalType": "bool",
          "name": "",
          "type": "bool"
        }
      ],
      "stateMutability": "view",
      "type": "function"
    },
    {
      "inputs": [
        {
          "internalType": "uint256",
          "name": "_pid",
          "type": "uint256"
        },
        {
          "internalType": "address",
          "name": "_gauge",
          "type": "address"
        }
      ],
      "name": "claimRewards",
      "outputs": [],
      "stateMutability": "nonpayable",
      "type": "function"
    },
    {
      "inputs": [],
      "name": "clearDelegation",
      "outputs": [],
      "stateMutability": "nonpayable",
      "type": "function"
    },
    {
      "inputs": [],
      "name": "clearFeeTokens",
      "outputs": [],
      "stateMutability": "nonpayable",
      "type": "function"
    },
    {
      "inputs": [
        {
          "internalType": "address",
          "name": "_delegateTo",
          "type": "address"
        }
      ],
      "name": "delegateVotingPower",
      "outputs": [],
      "stateMutability": "nonpayable",
      "type": "function"
    },
    {
      "inputs": [
        {
          "internalType": "uint256",
          "name": "_pid",
          "type": "uint256"
        },
        {
          "internalType": "uint256",
          "name": "_amount",
          "type": "uint256"
        },
        {
          "internalType": "bool",
          "name": "_stake",
          "type": "bool"
        }
      ],
      "name": "deposit",
      "outputs": [],
      "stateMutability": "nonpayable",
      "type": "function"
    },
    {
      "inputs": [
        {
          "internalType": "uint256",
          "name": "_pid",
          "type": "uint256"
        },
        {
          "internalType": "bool",
          "name": "_stake",
          "type": "bool"
        }
      ],
      "name": "depositAll",
      "outputs": [],
      "stateMutability": "nonpayable",
      "type": "function"
    },
    {
      "inputs": [],
      "name": "earmarkFees",
      "outputs": [],
      "stateMutability": "nonpayable",
      "type": "function"
    },
    {
      "inputs": [
        {
          "internalType": "uint256",
          "name": "_pid",
          "type": "uint256"
        }
      ],
      "name": "earmarkRewards",
      "outputs": [],
      "stateMutability": "nonpayable",
      "type": "function"
    },
    {
      "inputs": [],
      "name": "feeDistro",
      "outputs": [
        {
          "internalType": "address",
          "name": "",
          "type": "address"
        }
      ],
      "stateMutability": "view",
      "type": "function"
    },
    {
      "inputs": [],
      "name": "feeManager",
      "outputs": [
        {
          "internalType": "address",
          "name": "",
          "type": "address"
        }
      ],
      "stateMutability": "view",
      "type": "function"
    },
    {
      "inputs": [
        {
          "internalType": "address",
          "name": "",
          "type": "address"
        }
      ],
      "name": "feeTokenToPool",
      "outputs": [
        {
          "internalType": "address",
          "name": "",
          "type": "address"
        }
      ],
      "stateMutability": "view",
      "type": "function"
    },
    {
      "inputs": [
        {
          "internalType": "uint256",
          "name": "",
          "type": "uint256"
        }
      ],
      "name": "feeTokens",
      "outputs": [
        {
          "internalType": "contract IERC20",
          "name": "",
          "type": "address"
        }
      ],
      "stateMutability": "view",
      "type": "function"
    },
    {
      "inputs": [],
      "name": "feeTokensLength",
      "outputs": [
        {
          "internalType": "uint256",
          "name": "",
          "type": "uint256"
        }
      ],
      "stateMutability": "view",
      "type": "function"
    },
    {
      "inputs": [
        {
          "internalType": "address",
          "name": "",
          "type": "address"
        }
      ],
      "name": "gaugeMap",
      "outputs": [
        {
          "internalType": "bool",
          "name": "",
          "type": "bool"
        }
      ],
      "stateMutability": "view",
      "type": "function"
    },
    {
      "inputs": [],
      "name": "isShutdown",
      "outputs": [
        {
          "internalType": "bool",
          "name": "",
          "type": "bool"
        }
      ],
      "stateMutability": "view",
      "type": "function"
    },
    {
      "inputs": [],
      "name": "lockRewards",
      "outputs": [
        {
          "internalType": "address",
          "name": "",
          "type": "address"
        }
      ],
      "stateMutability": "view",
      "type": "function"
    },
    {
      "inputs": [],
      "name": "owner",
      "outputs": [
        {
          "internalType": "address",
          "name": "",
          "type": "address"
        }
      ],
      "stateMutability": "view",
      "type": "function"
    },
    {
      "inputs": [],
      "name": "platformFees",
      "outputs": [
        {
          "internalType": "uint256",
          "name": "",
          "type": "uint256"
        }
      ],
      "stateMutability": "view",
      "type": "function"
    },
    {
      "inputs": [
        {
          "internalType": "uint256",
          "name": "",
          "type": "uint256"
        }
      ],
      "name": "poolInfo",
      "outputs": [
        {
          "internalType": "address",
          "name": "lptoken",
          "type": "address"
        },
        {
          "internalType": "address",
          "name": "token",
          "type": "address"
        },
        {
          "internalType": "address",
          "name": "gauge",
          "type": "address"
        },
        {
          "internalType": "address",
          "name": "balRewards",
          "type": "address"
        },
        {
          "internalType": "address",
          "name": "stash",
          "type": "address"
        },
        {
          "internalType": "bool",
          "name": "shutdown",
          "type": "bool"
        }
      ],
      "stateMutability": "view",
      "type": "function"
    },
    {
      "inputs": [],
      "name": "poolLength",
      "outputs": [
        {
          "internalType": "uint256",
          "name": "",
          "type": "uint256"
        }
      ],
      "stateMutability": "view",
      "type": "function"
    },
    {
      "inputs": [],
      "name": "poolManager",
      "outputs": [
        {
          "internalType": "address",
          "name": "",
          "type": "address"
        }
      ],
      "stateMutability": "view",
      "type": "function"
    },
    {
      "inputs": [],
      "name": "profitFees",
      "outputs": [
        {
          "internalType": "uint256",
          "name": "",
          "type": "uint256"
        }
      ],
      "stateMutability": "view",
      "type": "function"
    },
    {
      "inputs": [],
      "name": "redeemWethBal",
      "outputs": [],
      "stateMutability": "nonpayable",
      "type": "function"
    },
    {
      "inputs": [],
      "name": "rewardFactory",
      "outputs": [
        {
          "internalType": "address",
          "name": "",
          "type": "address"
        }
      ],
      "stateMutability": "view",
      "type": "function"
    },
    {
      "inputs": [
        {
          "internalType": "address",
          "name": "_rfactory",
          "type": "address"
        },
        {
          "internalType": "address",
          "name": "_sfactory",
          "type": "address"
        },
        {
          "internalType": "address",
          "name": "_tfactory",
          "type": "address"
        }
      ],
      "name": "setFactories",
      "outputs": [],
      "stateMutability": "nonpayable",
      "type": "function"
    },
    {
      "inputs": [
        {
          "internalType": "address",
          "name": "_feeM",
          "type": "address"
        }
      ],
      "name": "setFeeManager",
      "outputs": [],
      "stateMutability": "nonpayable",
      "type": "function"
    },
    {
      "inputs": [
        {
          "internalType": "uint256",
          "name": "_platformFee",
          "type": "uint256"
        },
        {
          "internalType": "uint256",
          "name": "_profitFee",
          "type": "uint256"
        }
      ],
      "name": "setFees",
      "outputs": [],
      "stateMutability": "nonpayable",
      "type": "function"
    },
    {
      "inputs": [
        {
          "internalType": "address",
          "name": "_owner",
          "type": "address"
        }
      ],
      "name": "setOwner",
      "outputs": [],
      "stateMutability": "nonpayable",
      "type": "function"
    },
    {
      "inputs": [
        {
          "internalType": "address",
          "name": "_poolM",
          "type": "address"
        }
      ],
      "name": "setPoolManager",
      "outputs": [],
      "stateMutability": "nonpayable",
      "type": "function"
    },
    {
      "inputs": [
        {
          "internalType": "address",
          "name": "_rewards",
          "type": "address"
        }
      ],
      "name": "setRewardContracts",
      "outputs": [],
      "stateMutability": "nonpayable",
      "type": "function"
    },
    {
      "inputs": [
        {
          "internalType": "address",
          "name": "_treasury",
          "type": "address"
        }
      ],
      "name": "setTreasury",
      "outputs": [],
      "stateMutability": "nonpayable",
      "type": "function"
    },
    {
      "inputs": [
        {
          "internalType": "address",
          "name": "_voteDelegate",
          "type": "address"
        }
      ],
      "name": "setVoteDelegate",
      "outputs": [],
      "stateMutability": "nonpayable",
      "type": "function"
    },
    {
      "inputs": [],
      "name": "shutdownSystem",
      "outputs": [],
      "stateMutability": "nonpayable",
      "type": "function"
    },
    {
      "inputs": [],
      "name": "staker",
      "outputs": [
        {
          "internalType": "address",
          "name": "",
          "type": "address"
        }
      ],
      "stateMutability": "view",
      "type": "function"
    },
    {
      "inputs": [],
      "name": "stashFactory",
      "outputs": [
        {
          "internalType": "address",
          "name": "",
          "type": "address"
        }
      ],
      "stateMutability": "view",
      "type": "function"
    },
    {
      "inputs": [],
      "name": "tokenFactory",
      "outputs": [
        {
          "internalType": "address",
          "name": "",
          "type": "address"
        }
      ],
      "stateMutability": "view",
      "type": "function"
    },
    {
      "inputs": [],
      "name": "treasury",
      "outputs": [
        {
          "internalType": "address",
          "name": "",
          "type": "address"
        }
      ],
      "stateMutability": "view",
      "type": "function"
    },
    {
      "inputs": [],
      "name": "voteDelegate",
      "outputs": [
        {
          "internalType": "address",
          "name": "",
          "type": "address"
        }
      ],
      "stateMutability": "view",
      "type": "function"
    },
    {
      "inputs": [
        {
          "internalType": "address[]",
          "name": "_gauges",
          "type": "address[]"
        },
        {
          "internalType": "uint256[]",
          "name": "_weights",
          "type": "uint256[]"
        }
      ],
      "name": "voteGaugeWeight",
      "outputs": [],
      "stateMutability": "nonpayable",
      "type": "function"
    },
    {
      "inputs": [
        {
          "internalType": "uint256",
          "name": "_pid",
          "type": "uint256"
        },
        {
          "internalType": "uint256",
          "name": "_amount",
          "type": "uint256"
        }
      ],
      "name": "withdraw",
      "outputs": [],
      "stateMutability": "nonpayable",
      "type": "function"
    },
    {
      "inputs": [
        {
          "internalType": "uint256",
          "name": "_pid",
          "type": "uint256"
        }
      ],
      "name": "withdrawAll",
      "outputs": [],
      "stateMutability": "nonpayable",
      "type": "function"
    },
    {
      "inputs": [
        {
          "internalType": "uint256",
          "name": "_pid",
          "type": "uint256"
        },
        {
          "internalType": "uint256",
          "name": "_amount",
          "type": "uint256"
        },
        {
          "internalType": "address",
          "name": "_to",
          "type": "address"
        }
      ],
      "name": "withdrawTo",
      "outputs": [],
      "stateMutability": "nonpayable",
      "type": "function"
    },
    {
      "inputs": [],
      "name": "withdrawUnlockedWethBal",
      "outputs": [],
      "stateMutability": "nonpayable",
      "type": "function"
    }
  ],
  "transactionHash": "0x12b310591e435d7f55e8d2e5ae6834522a793f3e115b925114a2abdc9ae201e1",
  "args": [
    "0x3495698Ca1ce983B8bE5814C2b7f8EB00E423a82",
    "0xfa8449189744799ad2ace7e0ebac8bb7575eff47",
    "0x7F91dcdE02F72b478Dc73cB21730cAcA907c8c44"
  ],
  "solcInputHash": "7e57f81a6be83430d315781a62c52ee2",
  "bytecode": "0x60e060405260fa6000556103e86001553480156200001c57600080fd5b5060405162004408380380620044088339810160408190526200003f91620000af565b6001600160a01b03918216608052811660c0521660a05260028054336001600160a01b031991821681179092556008805482168317905560038054821683179055600480549091169091179055620000f9565b80516001600160a01b0381168114620000aa57600080fd5b919050565b600080600060608486031215620000c557600080fd5b620000d08462000092565b9250620000e06020850162000092565b9150620000f06040850162000092565b90509250925092565b60805160a05160c05161425a620001ae600039600081816107430152610e1b01526000818161057201528181610ce501528181610dec0152818161110b01528181611261015281816113360152818161174801528181611abd0152818161211b0152818161245401528181612cda01528181612e7801528181613118015261373e0152600081816104ff01528181611f820152818161329901528181613390015281816134cb015261359b015261425a6000f3fe608060405234801561001057600080fd5b50600436106103415760003560e01c80636dc7a627116101bd578063c2300bef116100f9578063dc4c90d3116100a2578063f0f442601161007c578063f0f44260146107c1578063f3074b93146107d4578063f3ff955a146107dc578063fa78668f146107ef57600080fd5b8063dc4c90d31461076e578063e77772fe1461078e578063eb511dd4146107ae57600080fd5b8063d0fb0203116100d3578063d0fb02031461071e578063d6a0f5301461073e578063d73792a91461076557600080fd5b8063c2300bef146106df578063cb0d5b52146106e8578063cc956f3f1461070b57600080fd5b8063958e2d3111610166578063b4d2e3d111610140578063b4d2e3d1146106ae578063b5c4a5ad146106b7578063bf86d690146106bf578063bfad96ba146106cc57600080fd5b8063958e2d31146106685780639f00332b1461067b578063aa2eded21461069b57600080fd5b80637bd3b995116101975780637bd3b995146106225780638da5cb5b146106355780638ef4403c1461065557600080fd5b80636dc7a627146105da57806374874323146105fc5780637aef67151461060f57600080fd5b8063275e86c01161028c578063441a3e70116102355780635ebaf1db1161020f5780635ebaf1db1461056d57806360759fce1461059457806361d027b3146105a75780636c7b69cb146105c757600080fd5b8063441a3e7014610534578063452e97ac14610547578063472d35b91461055a57600080fd5b80633b632bb9116102665780633b632bb9146104f25780633d79d1c8146104fa57806343a0d0661461052157600080fd5b8063275e86c014610494578063354af919146104ca578063376d771a146104d257600080fd5b8063194a4e7e116102ee5780631f9eddb3116102c85780631f9eddb31461046457806322230b961461046c578063245e4bf01461047457600080fd5b8063194a4e7e146104405780631b5d3670146104495780631cc51d401461045157600080fd5b806313af40351161031f57806313af4035146103b757806314cd70e4146103ca5780631526fe27146103dd57600080fd5b8063068eb19e14610346578063081e3eda146103905780630b78f9c0146103a2575b600080fd5b6006546103669073ffffffffffffffffffffffffffffffffffffffff1681565b60405173ffffffffffffffffffffffffffffffffffffffff90911681526020015b60405180910390f35b600e545b604051908152602001610387565b6103b56103b0366004613b5d565b6107fa565b005b6103b56103c5366004613ba1565b610914565b6103b56103d8366004613bbe565b6109e1565b6103f06103eb366004613bf7565b610a67565b6040805173ffffffffffffffffffffffffffffffffffffffff97881681529587166020870152938616938501939093529084166060840152909216608082015290151560a082015260c001610387565b61039460015481565b6103b5610ae6565b6103b561045f366004613ba1565b610b70565b6103b5610c24565b6103b5610d44565b6005546103669073ffffffffffffffffffffffffffffffffffffffff1681565b6103666104a2366004613ba1565b600c6020526000908152604090205473ffffffffffffffffffffffffffffffffffffffff1681565b6103b561100e565b600a546103669073ffffffffffffffffffffffffffffffffffffffff1681565b6103b56110b7565b6103667f000000000000000000000000000000000000000000000000000000000000000081565b6103b561052f366004613c1e565b611171565b6103b5610542366004613b5d565b611641565b6103b5610555366004613b5d565b61164d565b6103b5610568366004613ba1565b611874565b6103667f000000000000000000000000000000000000000000000000000000000000000081565b6103b56105a2366004613c4c565b611939565b6009546103669073ffffffffffffffffffffffffffffffffffffffff1681565b6103b56105d5366004613c7c565b6119fe565b600d546105ec90610100900460ff1681565b6040519015158152602001610387565b6103b561060a366004613ba1565b611b1e565b6103b561061d366004613ba1565b611be3565b6103b5610630366004613ca1565b611ca8565b6002546103669073ffffffffffffffffffffffffffffffffffffffff1681565b610366610663366004613bf7565b611db7565b6103b5610676366004613bf7565b611dee565b6008546103669073ffffffffffffffffffffffffffffffffffffffff1681565b6103b56106a9366004613ba1565b611eba565b61039460005481565b6103b5612103565b600d546105ec9060ff1681565b6103b56106da366004613d2d565b6123c5565b610394610bb881565b6105ec6106f6366004613ba1565b600f6020526000908152604090205460ff1681565b6103b5610719366004613bf7565b6124c8565b6003546103669073ffffffffffffffffffffffffffffffffffffffff1681565b6103667f000000000000000000000000000000000000000000000000000000000000000081565b61039461271081565b6004546103669073ffffffffffffffffffffffffffffffffffffffff1681565b6007546103669073ffffffffffffffffffffffffffffffffffffffff1681565b6103b56107bc366004613d99565b6124d4565b6103b56107cf366004613ba1565b612b7e565b600b54610394565b6103b56107ea366004613ba1565b612c43565b6103946301e1338081565b60035473ffffffffffffffffffffffffffffffffffffffff1633811461084c576040517f82b4290000000000000000000000000000000000000000000000000000000000815260040160405180910390fd5b60006108588484613df6565b9050610bb8811115610896576040517fe523909000000000000000000000000000000000000000000000000000000000815260040160405180910390fd5b6101f484101580156108aa57506107d08411155b80156108b7575060648310155b80156108c557506103e88311155b1561090e576001849055600083905560408051858152602081018590527f64f84976d9c917a44796104a59950fdbd9b3c16a5dd348b546d738301f6bd068910160405180910390a15b50505050565b60025473ffffffffffffffffffffffffffffffffffffffff16338114610966576040517f82b4290000000000000000000000000000000000000000000000000000000000815260040160405180910390fd5b600280547fffffffffffffffffffffffff00000000000000000000000000000000000000001673ffffffffffffffffffffffffffffffffffffffff84169081179091556040519081527fa2ea9883a321a3e97b8266c2b078bfeec6d50c711ed71f874a90d500ae2eaf36906020015b60405180910390a15050565b6000600e84815481106109f6576109f6613e0e565b600091825260209091206003600590920201015473ffffffffffffffffffffffffffffffffffffffff169050338114610a5b576040517f82b4290000000000000000000000000000000000000000000000000000000000815260040160405180910390fd5b61090e84843385612d3a565b600e8181548110610a7757600080fd5b60009182526020909120600590910201805460018201546002830154600384015460049094015473ffffffffffffffffffffffffffffffffffffffff93841695509183169390831692908116919081169074010000000000000000000000000000000000000000900460ff1686565b60035473ffffffffffffffffffffffffffffffffffffffff16338114610b38576040517f82b4290000000000000000000000000000000000000000000000000000000000815260040160405180910390fd5b610b44600b6000613b2b565b6040517f6c476c8f4aa224f57d954654c067fdcae2391e2a93c16d3296ecea1d41aeed0590600090a150565b60025473ffffffffffffffffffffffffffffffffffffffff16338114610bc2576040517f82b4290000000000000000000000000000000000000000000000000000000000815260040160405180910390fd5b600a5473ffffffffffffffffffffffffffffffffffffffff16610c2057600a80547fffffffffffffffffffffffff00000000000000000000000000000000000000001673ffffffffffffffffffffffffffffffffffffffff84161790555b5050565b60025473ffffffffffffffffffffffffffffffffffffffff16338114610c76576040517f82b4290000000000000000000000000000000000000000000000000000000000815260040160405180910390fd5b600d80547fffffffffffffffffffffffffffffffffffffffffffffffffffffffffffff00ff166101001790556040517fb287ff3100000000000000000000000000000000000000000000000000000000815230600482015273ffffffffffffffffffffffffffffffffffffffff7f0000000000000000000000000000000000000000000000000000000000000000169063b287ff3190602401600060405180830381600087803b158015610d2957600080fd5b505af1158015610d3d573d6000803e3d6000fd5b5050505050565b6000600b805480602002602001604051908101604052809291908181526020018280548015610da957602002820191906000526020600020905b815473ffffffffffffffffffffffffffffffffffffffff168152600190910190602001808311610d7e575b50506040517fa81d2f470000000000000000000000000000000000000000000000000000000081529394505073ffffffffffffffffffffffffffffffffffffffff7f0000000000000000000000000000000000000000000000000000000000000000169263a81d2f479250610e4591507f0000000000000000000000000000000000000000000000000000000000000000908590600401613e3d565b600060405180830381600087803b158015610e5f57600080fd5b505af1158015610e73573d6000803e3d6000fd5b5050505060005b8151811015610c20576000828281518110610e9757610e97613e0e565b60209081029190910101516040517f70a0823100000000000000000000000000000000000000000000000000000000815230600482015290915060009073ffffffffffffffffffffffffffffffffffffffff8316906370a0823190602401602060405180830381865afa158015610f12573d6000803e3d6000fd5b505050506040513d601f19601f82011682018060405250810190610f369190613ea5565b905080156110045773ffffffffffffffffffffffffffffffffffffffff8083166000818152600c6020526040902054610f70921683612fd0565b73ffffffffffffffffffffffffffffffffffffffff8281166000908152600c6020526040908190205490517f590a41f50000000000000000000000000000000000000000000000000000000081526004810184905291169063590a41f590602401600060405180830381600087803b158015610feb57600080fd5b505af1158015610fff573d6000803e3d6000fd5b505050505b5050600101610e7a565b60025473ffffffffffffffffffffffffffffffffffffffff16338114611060576040517f82b4290000000000000000000000000000000000000000000000000000000000815260040160405180910390fd5b600d80547fffffffffffffffffffffffffffffffffffffffffffffffffffffffffffffff001660011790556040517fa7f1177ac6d0519232556de7d5158b9c7142cfeaebb1ff60315c49d364c75dfa90600090a150565b60025473ffffffffffffffffffffffffffffffffffffffff16338114611109576040517f82b4290000000000000000000000000000000000000000000000000000000000815260040160405180910390fd5b7f000000000000000000000000000000000000000000000000000000000000000073ffffffffffffffffffffffffffffffffffffffff16636ea447ba6040518163ffffffff1660e01b8152600401600060405180830381600087803b158015610d2957600080fd5b600d5460ff16156111ae576040517f4426aa1f00000000000000000000000000000000000000000000000000000000815260040160405180910390fd5b6000600e84815481106111c3576111c3613e0e565b906000526020600020906005020190508060040160149054906101000a900460ff161561121c576040517fefc869b400000000000000000000000000000000000000000000000000000000815260040160405180910390fd5b80546040517f23b872dd00000000000000000000000000000000000000000000000000000000815233600482015273ffffffffffffffffffffffffffffffffffffffff7f000000000000000000000000000000000000000000000000000000000000000081166024830152604482018690529091169081906323b872dd906064016020604051808303816000875af11580156112bc573d6000803e3d6000fd5b505050506040513d601f19601f820116820180604052508101906112e09190613ebe565b5060028201546040517ff9609f0800000000000000000000000000000000000000000000000000000000815273ffffffffffffffffffffffffffffffffffffffff838116600483015291821660248201819052917f0000000000000000000000000000000000000000000000000000000000000000169063f9609f0890604401600060405180830381600087803b15801561137a57600080fd5b505af115801561138e573d6000803e3d6000fd5b50505050600183015473ffffffffffffffffffffffffffffffffffffffff168415611567576040517f40c10f190000000000000000000000000000000000000000000000000000000081523060048201526024810187905273ffffffffffffffffffffffffffffffffffffffff8216906340c10f1990604401600060405180830381600087803b15801561142157600080fd5b505af1158015611435573d6000803e3d6000fd5b5050505060038401546040517f095ea7b300000000000000000000000000000000000000000000000000000000815273ffffffffffffffffffffffffffffffffffffffff91821660048201819052602482018990529183169063095ea7b3906044016020604051808303816000875af11580156114b6573d6000803e3d6000fd5b505050506040513d601f19601f820116820180604052508101906114da9190613ebe565b506040517f2ee409080000000000000000000000000000000000000000000000000000000081523360048201526024810188905273ffffffffffffffffffffffffffffffffffffffff821690632ee4090890604401600060405180830381600087803b15801561154957600080fd5b505af115801561155d573d6000803e3d6000fd5b50505050506115ee565b6040517f40c10f190000000000000000000000000000000000000000000000000000000081523360048201526024810187905273ffffffffffffffffffffffffffffffffffffffff8216906340c10f1990604401600060405180830381600087803b1580156115d557600080fd5b505af11580156115e9573d6000803e3d6000fd5b505050505b604080513381526020810189905290810187905285151560608201527f65e6f89b6907d6277741ee4ccbc4ae260163a17f16bbb55b5344dff064867c40906080015b60405180910390a150505050505050565b610c2082823333612d3a565b60045473ffffffffffffffffffffffffffffffffffffffff1633811461169f576040517f82b4290000000000000000000000000000000000000000000000000000000000815260040160405180910390fd5b825b8281101561090e576000600e82815481106116be576116be613e0e565b906000526020600020906005020190508060040160149054906101000a900460ff16156116eb575061186c565b6116f48261305d565b805460028201546040517f09cae2c800000000000000000000000000000000000000000000000000000000815273ffffffffffffffffffffffffffffffffffffffff928316600482015290821660248201527f0000000000000000000000000000000000000000000000000000000000000000909116906309cae2c890604401600060405180830381600087803b15801561178e57600080fd5b505af192505050801561179f575060015b506004810180547fffffffffffffffffffffff00ffffffffffffffffffffffffffffffffffffffff1674010000000000000000000000000000000000000000179055600281015473ffffffffffffffffffffffffffffffffffffffff166000908152600f60205260409081902080547fffffffffffffffffffffffffffffffffffffffffffffffffffffffffffffff00169055517f26b91c5ee7016e010d571b6baf5f465e048be724ce3b1cc7a6e25230b42ce47d906118629084815260200190565b60405180910390a1505b6001016116a1565b60035473ffffffffffffffffffffffffffffffffffffffff163381146118c6576040517f82b4290000000000000000000000000000000000000000000000000000000000815260040160405180910390fd5b600380547fffffffffffffffffffffffff00000000000000000000000000000000000000001673ffffffffffffffffffffffffffffffffffffffff84169081179091556040519081527f45d7e621935e768c84854481fb8a41a30200fbe59f86660d5e02dd876563d898906020016109d5565b6000600e838154811061194e5761194e613e0e565b60009182526020822060059190910201546040517f70a0823100000000000000000000000000000000000000000000000000000000815233600482015273ffffffffffffffffffffffffffffffffffffffff909116925082906370a0823190602401602060405180830381865afa1580156119cd573d6000803e3d6000fd5b505050506040513d601f19601f820116820180604052508101906119f19190613ea5565b905061090e848285611171565b6000600e8381548110611a1357611a13613e0e565b600091825260209091206004600590920201015473ffffffffffffffffffffffffffffffffffffffff169050338114611a78576040517f82b4290000000000000000000000000000000000000000000000000000000000815260040160405180910390fd5b6040517fef5cfb8c00000000000000000000000000000000000000000000000000000000815273ffffffffffffffffffffffffffffffffffffffff83811660048301527f0000000000000000000000000000000000000000000000000000000000000000169063ef5cfb8c90602401600060405180830381600087803b158015611b0157600080fd5b505af1158015611b15573d6000803e3d6000fd5b50505050505050565b60085473ffffffffffffffffffffffffffffffffffffffff16338114611b70576040517f82b4290000000000000000000000000000000000000000000000000000000000815260040160405180910390fd5b600880547fffffffffffffffffffffffff00000000000000000000000000000000000000001673ffffffffffffffffffffffffffffffffffffffff84169081179091556040519081527f2a1362e990f0ede76fc346823fb053633a4e6e30dfe212bf6c162ab895c3e24d906020016109d5565b60045473ffffffffffffffffffffffffffffffffffffffff16338114611c35576040517f82b4290000000000000000000000000000000000000000000000000000000000815260040160405180910390fd5b600480547fffffffffffffffffffffffff00000000000000000000000000000000000000001673ffffffffffffffffffffffffffffffffffffffff84169081179091556040519081527fe53395243914ebc025ce712146f66fa5e9d3f04b308fae19ac4123350d1cd20f906020016109d5565b60025473ffffffffffffffffffffffffffffffffffffffff16338114611cfa576040517f82b4290000000000000000000000000000000000000000000000000000000000815260040160405180910390fd5b60055473ffffffffffffffffffffffffffffffffffffffff16611d6d576005805473ffffffffffffffffffffffffffffffffffffffff8087167fffffffffffffffffffffffff00000000000000000000000000000000000000009283161790925560078054928516929091169190911790555b5050600680547fffffffffffffffffffffffff00000000000000000000000000000000000000001673ffffffffffffffffffffffffffffffffffffffff9290921691909117905550565b600b8181548110611dc757600080fd5b60009182526020909120015473ffffffffffffffffffffffffffffffffffffffff16905081565b6000600e8281548110611e0357611e03613e0e565b60009182526020822060059190910201600101546040517f70a0823100000000000000000000000000000000000000000000000000000000815233600482015273ffffffffffffffffffffffffffffffffffffffff909116925082906370a0823190602401602060405180830381865afa158015611e85573d6000803e3d6000fd5b505050506040513d601f19601f82011682018060405250810190611ea99190613ea5565b9050611eb58382611641565b505050565b60035473ffffffffffffffffffffffffffffffffffffffff16338114611f0c576040517f82b4290000000000000000000000000000000000000000000000000000000000815260040160405180910390fd5b600b80546001810182556000919091527f0175b7a638427703f0dbe7bb9bbf987a2551717b34e79f33b5b1008d1fa01db90180547fffffffffffffffffffffffff00000000000000000000000000000000000000001673ffffffffffffffffffffffffffffffffffffffff8481169182179092557f0000000000000000000000000000000000000000000000000000000000000000909116900361200257600a5473ffffffffffffffffffffffffffffffffffffffff8381166000908152600c6020526040902080547fffffffffffffffffffffffff000000000000000000000000000000000000000016919092161790555050565b600554600a546040517f2f1b327100000000000000000000000000000000000000000000000000000000815273ffffffffffffffffffffffffffffffffffffffff858116600483015291821660248201523060448201526000929190911690632f1b3271906064016020604051808303816000875af1158015612089573d6000803e3d6000fd5b505050506040513d601f19601f820116820180604052508101906120ad9190613edb565b73ffffffffffffffffffffffffffffffffffffffff9384166000908152600c6020526040902080547fffffffffffffffffffffffff00000000000000000000000000000000000000001691909416179092555050565b600d54610100900460ff1661211757600080fd5b60007f000000000000000000000000000000000000000000000000000000000000000073ffffffffffffffffffffffffffffffffffffffff1663c7c4ff466040518163ffffffff1660e01b8152600401602060405180830381865afa158015612184573d6000803e3d6000fd5b505050506040513d601f19601f820116820180604052508101906121a89190613edb565b905060008173ffffffffffffffffffffffffffffffffffffffff1663815a90da6040518163ffffffff1660e01b8152600401602060405180830381865afa1580156121f7573d6000803e3d6000fd5b505050506040513d601f19601f8201168201806040525081019061221b9190613edb565b6040517f70a0823100000000000000000000000000000000000000000000000000000000815233600482015273ffffffffffffffffffffffffffffffffffffffff91909116906370a0823190602401602060405180830381865afa158015612287573d6000803e3d6000fd5b505050506040513d601f19601f820116820180604052508101906122ab9190613ea5565b6040517ffcacfb6b0000000000000000000000000000000000000000000000000000000081523360048201526024810182905290915073ffffffffffffffffffffffffffffffffffffffff83169063fcacfb6b90604401600060405180830381600087803b15801561231c57600080fd5b505af1158015612330573d6000803e3d6000fd5b50505050610c2033828473ffffffffffffffffffffffffffffffffffffffff1663c17af1a76040518163ffffffff1660e01b8152600401602060405180830381865afa158015612384573d6000803e3d6000fd5b505050506040513d601f19601f820116820180604052508101906123a89190613edb565b73ffffffffffffffffffffffffffffffffffffffff169190612fd0565b60085473ffffffffffffffffffffffffffffffffffffffff16338114612417576040517f82b4290000000000000000000000000000000000000000000000000000000000815260040160405180910390fd5b6040517f28fa28a900000000000000000000000000000000000000000000000000000000815273ffffffffffffffffffffffffffffffffffffffff7f000000000000000000000000000000000000000000000000000000000000000016906328fa28a99061248f908890889088908890600401613ef8565b600060405180830381600087803b1580156124a957600080fd5b505af11580156124bd573d6000803e3d6000fd5b505050505050505050565b6124d18161305d565b50565b60045473ffffffffffffffffffffffffffffffffffffffff16338114612526576040517f82b4290000000000000000000000000000000000000000000000000000000000815260040160405180910390fd5b600d5460ff1615612563576040517f4426aa1f00000000000000000000000000000000000000000000000000000000815260040160405180910390fd5b73ffffffffffffffffffffffffffffffffffffffff8216158061259a575073ffffffffffffffffffffffffffffffffffffffff8316155b806125ca575073ffffffffffffffffffffffffffffffffffffffff82166000908152600f602052604090205460ff165b15612601576040517fe523909000000000000000000000000000000000000000000000000000000000815260040160405180910390fd5b600e546007546040517f40923cf700000000000000000000000000000000000000000000000000000000815273ffffffffffffffffffffffffffffffffffffffff868116600483015260009216906340923cf7906024016020604051808303816000875af1158015612677573d6000803e3d6000fd5b505050506040513d601f19601f8201168201806040525081019061269b9190613edb565b6005546040517f15914c990000000000000000000000000000000000000000000000000000000081526004810185905273ffffffffffffffffffffffffffffffffffffffff8084166024830152929350600092909116906315914c99906044016020604051808303816000875af115801561271a573d6000803e3d6000fd5b505050506040513d601f19601f8201168201806040525081019061273e9190613edb565b6006546040517f31c49cba0000000000000000000000000000000000000000000000000000000081526004810186905273ffffffffffffffffffffffffffffffffffffffff8881166024830152929350600092909116906331c49cba906044016020604051808303816000875af11580156127bd573d6000803e3d6000fd5b505050506040513d601f19601f820116820180604052508101906127e19190613edb565b905073ffffffffffffffffffffffffffffffffffffffff8116612830576040517f01485c8f00000000000000000000000000000000000000000000000000000000815260040160405180910390fd5b6040805160c08101825273ffffffffffffffffffffffffffffffffffffffff808a16825285811660208084019182528a83168486018181528885166060870190815288861660808801908152600060a08901818152600e8054600181810183558285529b5160059091027fbb7b4a454dc3493923482f07822329ed19e8244eff582cc204f8554c3620c3fd81018054928d167fffffffffffffffffffffffff000000000000000000000000000000000000000093841617905599517fbb7b4a454dc3493923482f07822329ed19e8244eff582cc204f8554c3620c3fe8b018054918d1691831691909117905595517fbb7b4a454dc3493923482f07822329ed19e8244eff582cc204f8554c3620c3ff8a018054918c1691881691909117905593517fbb7b4a454dc3493923482f07822329ed19e8244eff582cc204f8554c3620c40089018054918b16919096161790945590517fbb7b4a454dc3493923482f07822329ed19e8244eff582cc204f8554c3620c40190960180549351151574010000000000000000000000000000000000000000027fffffffffffffffffffffff0000000000000000000000000000000000000000009094169690971695909517919091179094558252600f90529290922080547fffffffffffffffffffffffffffffffffffffffffffffffffffffffffffffff00169091179055805482919086908110612a3f57612a3f613e0e565b60009182526020909120600591820201600490810180547fffffffffffffffffffffffff00000000000000000000000000000000000000001673ffffffffffffffffffffffffffffffffffffffff94851617905590546040517f5e4e27db0000000000000000000000000000000000000000000000000000000081528484169281019290925290911690635e4e27db90602401600060405180830381600087803b158015612aec57600080fd5b505af1158015612b00573d6000803e3d6000fd5b50505050612b0e8187613694565b6040805185815273ffffffffffffffffffffffffffffffffffffffff808a166020830152808616928201929092528188166060820152818416608082015290821660a08201527f9b0d65965b5814a300c8080287057711dfee63c4041c4c69d4086c4679bb4f1c9060c001611630565b60035473ffffffffffffffffffffffffffffffffffffffff16338114612bd0576040517f82b4290000000000000000000000000000000000000000000000000000000000815260040160405180910390fd5b600980547fffffffffffffffffffffffff00000000000000000000000000000000000000001673ffffffffffffffffffffffffffffffffffffffff84169081179091556040519081527fc714d22a2f08b695f81e7c707058db484aa5b4d6b4c9fd64beb10fe85832f608906020016109d5565b60025473ffffffffffffffffffffffffffffffffffffffff16338114612c95576040517f82b4290000000000000000000000000000000000000000000000000000000000815260040160405180910390fd5b6040517ff3ff955a00000000000000000000000000000000000000000000000000000000815273ffffffffffffffffffffffffffffffffffffffff83811660048301527f0000000000000000000000000000000000000000000000000000000000000000169063f3ff955a90602401600060405180830381600087803b158015612d1e57600080fd5b505af1158015612d32573d6000803e3d6000fd5b505050505050565b6000600e8581548110612d4f57612d4f613e0e565b600091825260209091206005909102018054600282015460018301546040517f9dc29fac00000000000000000000000000000000000000000000000000000000815273ffffffffffffffffffffffffffffffffffffffff8881166004830152602482018a905294955092841693918216929116908190639dc29fac90604401600060405180830381600087803b158015612de857600080fd5b505af1158015612dfc573d6000803e3d6000fd5b50505050600484015474010000000000000000000000000000000000000000900460ff16612ed5576040517fd9caed1200000000000000000000000000000000000000000000000000000000815273ffffffffffffffffffffffffffffffffffffffff84811660048301528381166024830152604482018990527f0000000000000000000000000000000000000000000000000000000000000000169063d9caed1290606401600060405180830381600087803b158015612ebc57600080fd5b505af1158015612ed0573d6000803e3d6000fd5b505050505b6040517fa9059cbb00000000000000000000000000000000000000000000000000000000815273ffffffffffffffffffffffffffffffffffffffff86811660048301526024820189905284169063a9059cbb906044016020604051808303816000875af1158015612f4a573d6000803e3d6000fd5b505050506040513d601f19601f82011682018060405250810190612f6e9190613ebe565b506040805173ffffffffffffffffffffffffffffffffffffffff87168152602081018a90529081018890527f92ccf450a286a957af52509bc1c9939d1a6a481783e142e41e2499f0bb66ebc69060600160405180910390a15050505050505050565b6040805173ffffffffffffffffffffffffffffffffffffffff8416602482015260448082018490528251808303909101815260649091019091526020810180517bffffffffffffffffffffffffffffffffffffffffffffffffffffffff167fa9059cbb00000000000000000000000000000000000000000000000000000000179052611eb5908490613818565b6000600e828154811061307257613072613e0e565b906000526020600020906005020190508060040160149054906101000a900460ff16156130cb576040517fefc869b400000000000000000000000000000000000000000000000000000000815260040160405180910390fd5b60028101546040517f1e4b196a00000000000000000000000000000000000000000000000000000000815273ffffffffffffffffffffffffffffffffffffffff91821660048201819052917f00000000000000000000000000000000000000000000000000000000000000001690631e4b196a906024016020604051808303816000875af1158015613161573d6000803e3d6000fd5b505050506040513d601f19601f820116820180604052508101906131859190613ea5565b50600482015473ffffffffffffffffffffffffffffffffffffffff168015613268578073ffffffffffffffffffffffffffffffffffffffff1663372500ab6040518163ffffffff1660e01b8152600401600060405180830381600087803b1580156131ef57600080fd5b505af1158015613203573d6000803e3d6000fd5b505050508073ffffffffffffffffffffffffffffffffffffffff1663ca8b01766040518163ffffffff1660e01b8152600401600060405180830381600087803b15801561324f57600080fd5b505af1158015613263573d6000803e3d6000fd5b505050505b6040517f70a082310000000000000000000000000000000000000000000000000000000081523060048201526000907f000000000000000000000000000000000000000000000000000000000000000073ffffffffffffffffffffffffffffffffffffffff16906370a0823190602401602060405180830381865afa1580156132f5573d6000803e3d6000fd5b505050506040513d601f19601f820116820180604052508101906133199190613ea5565b90508015610d3d576000612710600054836133349190613fa2565b61333e9190613fdf565b6003546040517fa9059cbb00000000000000000000000000000000000000000000000000000000815273ffffffffffffffffffffffffffffffffffffffff9182166004820152602481018390529192507f0000000000000000000000000000000000000000000000000000000000000000169063a9059cbb906044016020604051808303816000875af11580156133d9573d6000803e3d6000fd5b505050506040513d601f19601f820116820180604052508101906133fd9190613ebe565b5060095473ffffffffffffffffffffffffffffffffffffffff161580159061343d575060095473ffffffffffffffffffffffffffffffffffffffff163014155b801561344b57506000600154115b1561353b576000612710600154846134639190613fa2565b61346d9190613fdf565b9050613479818461401a565b6009546040517fa9059cbb00000000000000000000000000000000000000000000000000000000815273ffffffffffffffffffffffffffffffffffffffff9182166004820152602481018490529194507f0000000000000000000000000000000000000000000000000000000000000000169063a9059cbb906044016020604051808303816000875af1158015613514573d6000803e3d6000fd5b505050506040513d601f19601f820116820180604052508101906135389190613ebe565b50505b613545818361401a565b60038601546040517fa9059cbb00000000000000000000000000000000000000000000000000000000815273ffffffffffffffffffffffffffffffffffffffff91821660048201819052602482018490529294507f00000000000000000000000000000000000000000000000000000000000000009091169063a9059cbb906044016020604051808303816000875af11580156135e6573d6000803e3d6000fd5b505050506040513d601f19601f8201168201806040525081019061360a9190613ebe565b506040517f590a41f50000000000000000000000000000000000000000000000000000000081526004810184905273ffffffffffffffffffffffffffffffffffffffff82169063590a41f590602401600060405180830381600087803b15801561367357600080fd5b505af1158015613687573d6000803e3d6000fd5b5050505050505050505050565b6040805173ffffffffffffffffffffffffffffffffffffffff84811660248084019190915283518084039091018152604490920183526020820180517bffffffffffffffffffffffffffffffffffffffffffffffffffffffff167fbdf981160000000000000000000000000000000000000000000000000000000017905291517fb61d27f600000000000000000000000000000000000000000000000000000000815290916000917f00000000000000000000000000000000000000000000000000000000000000009091169063b61d27f690613779908690859087906004016140a7565b6000604051808303816000875af1158015613798573d6000803e3d6000fd5b505050506040513d6000823e601f3d9081017fffffffffffffffffffffffffffffffffffffffffffffffffffffffffffffffe01682016040526137de9190810190614114565b5090508061090e576040517f613f5a7300000000000000000000000000000000000000000000000000000000815260040160405180910390fd5b600061387a826040518060400160405280602081526020017f5361666545524332303a206c6f772d6c6576656c2063616c6c206661696c65648152508573ffffffffffffffffffffffffffffffffffffffff166139299092919063ffffffff16565b805190915015611eb557808060200190518101906138989190613ebe565b611eb5576040517f08c379a000000000000000000000000000000000000000000000000000000000815260206004820152602a60248201527f5361666545524332303a204552433230206f7065726174696f6e20646964206e60448201527f6f7420737563636565640000000000000000000000000000000000000000000060648201526084015b60405180910390fd5b60606139388484600085613942565b90505b9392505050565b6060824710156139d4576040517f08c379a000000000000000000000000000000000000000000000000000000000815260206004820152602660248201527f416464726573733a20696e73756666696369656e742062616c616e636520666f60448201527f722063616c6c00000000000000000000000000000000000000000000000000006064820152608401613920565b73ffffffffffffffffffffffffffffffffffffffff85163b613a52576040517f08c379a000000000000000000000000000000000000000000000000000000000815260206004820152601d60248201527f416464726573733a2063616c6c20746f206e6f6e2d636f6e74726163740000006044820152606401613920565b6000808673ffffffffffffffffffffffffffffffffffffffff168587604051613a7b91906141f5565b60006040518083038185875af1925050503d8060008114613ab8576040519150601f19603f3d011682016040523d82523d6000602084013e613abd565b606091505b5091509150613acd828286613ad8565b979650505050505050565b60608315613ae757508161393b565b825115613af75782518084602001fd5b816040517f08c379a00000000000000000000000000000000000000000000000000000000081526004016139209190614211565b50805460008255906000526020600020908101906124d191905b80821115613b595760008155600101613b45565b5090565b60008060408385031215613b7057600080fd5b50508035926020909101359150565b73ffffffffffffffffffffffffffffffffffffffff811681146124d157600080fd5b600060208284031215613bb357600080fd5b813561393b81613b7f565b600080600060608486031215613bd357600080fd5b83359250602084013591506040840135613bec81613b7f565b809150509250925092565b600060208284031215613c0957600080fd5b5035919050565b80151581146124d157600080fd5b600080600060608486031215613c3357600080fd5b83359250602084013591506040840135613bec81613c10565b60008060408385031215613c5f57600080fd5b823591506020830135613c7181613c10565b809150509250929050565b60008060408385031215613c8f57600080fd5b823591506020830135613c7181613b7f565b600080600060608486031215613cb657600080fd5b8335613cc181613b7f565b92506020840135613cd181613b7f565b91506040840135613bec81613b7f565b60008083601f840112613cf357600080fd5b50813567ffffffffffffffff811115613d0b57600080fd5b6020830191508360208260051b8501011115613d2657600080fd5b9250929050565b60008060008060408587031215613d4357600080fd5b843567ffffffffffffffff80821115613d5b57600080fd5b613d6788838901613ce1565b90965094506020870135915080821115613d8057600080fd5b50613d8d87828801613ce1565b95989497509550505050565b60008060408385031215613dac57600080fd5b8235613db781613b7f565b91506020830135613c7181613b7f565b7f4e487b7100000000000000000000000000000000000000000000000000000000600052601160045260246000fd5b60008219821115613e0957613e09613dc7565b500190565b7f4e487b7100000000000000000000000000000000000000000000000000000000600052603260045260246000fd5b60006040820173ffffffffffffffffffffffffffffffffffffffff80861684526020604081860152828651808552606087019150828801945060005b81811015613e97578551851683529483019491830191600101613e79565b509098975050505050505050565b600060208284031215613eb757600080fd5b5051919050565b600060208284031215613ed057600080fd5b815161393b81613c10565b600060208284031215613eed57600080fd5b815161393b81613b7f565b6040808252810184905260008560608301825b87811015613f48578235613f1e81613b7f565b73ffffffffffffffffffffffffffffffffffffffff16825260209283019290910190600101613f0b565b5083810360208501528481527f07ffffffffffffffffffffffffffffffffffffffffffffffffffffffffffffff851115613f8157600080fd5b8460051b915081866020830137600091016020019081529695505050505050565b6000817fffffffffffffffffffffffffffffffffffffffffffffffffffffffffffffffff0483118215151615613fda57613fda613dc7565b500290565b600082614015577f4e487b7100000000000000000000000000000000000000000000000000000000600052601260045260246000fd5b500490565b60008282101561402c5761402c613dc7565b500390565b60005b8381101561404c578181015183820152602001614034565b8381111561090e5750506000910152565b60008151808452614075816020860160208601614031565b601f017fffffffffffffffffffffffffffffffffffffffffffffffffffffffffffffffe0169290920160200192915050565b73ffffffffffffffffffffffffffffffffffffffff841681528260208201526060604082015260006140dc606083018461405d565b95945050505050565b7f4e487b7100000000000000000000000000000000000000000000000000000000600052604160045260246000fd5b6000806040838503121561412757600080fd5b825161413281613c10565b602084015190925067ffffffffffffffff8082111561415057600080fd5b818501915085601f83011261416457600080fd5b815181811115614176576141766140e5565b604051601f82017fffffffffffffffffffffffffffffffffffffffffffffffffffffffffffffffe0908116603f011681019083821181831017156141bc576141bc6140e5565b816040528281528860208487010111156141d557600080fd5b6141e6836020830160208801614031565b80955050505050509250929050565b60008251614207818460208701614031565b9190910192915050565b60208152600061393b602083018461405d56fea26469706673582212200f895d8650bc9912c6c894e4f9a76302e7f89b63d63987ab2e20f4216a9c11ab64736f6c634300080f0033",
  "devdoc": {
    "details": "Controller contract for Prime Pools is based on the convex Booster.sol contract",
    "kind": "dev",
    "methods": {
      "addFeeToken(address)": {
        "params": {
          "_feeToken": "feeToken"
        }
      },
      "addPool(address,address)": {
        "params": {
          "_gauge": "The address of the gauge controller",
          "_lptoken": "The address of the lp token"
        }
      },
      "bulkPoolShutdown(uint256,uint256)": {
        "details": "Claims rewards for that pool before shutting it down",
        "params": {
          "_endPoolIdx": "End pool index (excluded)",
          "_startPoolIdx": "Start pool index"
        }
      },
      "claimRewards(uint256,address)": {
        "params": {
          "_gauge": "address of the gauge",
          "_pid": "the id of the pool"
        }
      },
      "delegateVotingPower(address)": {
        "params": {
          "_delegateTo": "to whom we delegate voting power"
        }
      },
      "deposit(uint256,uint256,bool)": {
        "details": "Sender must approve LP tokens to Controller smart contract",
        "params": {
          "_amount": "The amount of lp tokens to be deposited",
          "_pid": "The pool id to deposit lp tokens into",
          "_stake": "bool for wheather the tokens should be staked"
        }
      },
      "depositAll(uint256,bool)": {
        "details": "Sender must approve LP tokens to Controller smart contract",
        "params": {
          "_pid": "The pool id to deposit lp tokens into",
          "_stake": "bool for wheather the tokens should be staked"
        }
      },
      "earmarkRewards(uint256)": {
        "params": {
          "_pid": "the id of the pool where lp tokens are held"
        }
      },
      "setFactories(address,address,address)": {
        "params": {
          "_rfactory": "The address of the reward factory",
          "_sfactory": "The address of the stash factory",
          "_tfactory": "The address of the token factory"
        }
      },
      "setFeeManager(address)": {
        "params": {
          "_feeM": "The address of the fee manager"
        }
      },
      "setFees(uint256,uint256)": {
        "params": {
          "_platformFee": "The amount to set for the platform fees",
          "_profitFee": "The amount to set for the profit fees"
        }
      },
      "setOwner(address)": {
        "params": {
          "_owner": "The address of the owner of the contract"
        }
      },
      "setPoolManager(address)": {
        "params": {
          "_poolM": "The address of the pool manager"
        }
      },
      "setRewardContracts(address)": {
        "params": {
          "_rewards": "The address of the rewards contract"
        }
      },
      "setTreasury(address)": {
        "params": {
          "_treasury": "The address of the treasury contract"
        }
      },
      "setVoteDelegate(address)": {
        "params": {
          "_voteDelegate": "The address of whom votes will be delegated to"
        }
      },
      "shutdownSystem()": {
        "details": "This shuts down the contract"
      },
      "voteGaugeWeight(address[],uint256[])": {
        "params": {
          "_gauges": "array of gauge addresses",
          "_weights": "array of vote weights"
        }
      },
      "withdraw(uint256,uint256)": {
        "params": {
          "_amount": "amount of LP tokens to withdraw",
          "_pid": "The pool id to withdraw lp tokens from"
        }
      },
      "withdrawAll(uint256)": {
        "params": {
          "_pid": "The pool id to withdraw lp tokens from"
        }
      },
      "withdrawTo(uint256,uint256,address)": {
        "params": {
          "_amount": "amount of LP tokens to withdraw",
          "_pid": "The pool id to deposit lp tokens into"
        }
      },
      "withdrawUnlockedWethBal()": {
        "details": "WethBal is redeemable by burning equivalent amount of D2D WethBal"
      }
    },
    "title": "Controller contract",
    "version": 1
  },
  "userdoc": {
    "kind": "user",
    "methods": {
      "addFeeToken(address)": {
        "notice": "sets the address of the feeToken"
      },
      "addPool(address,address)": {
        "notice": "creates a new pool"
      },
      "bulkPoolShutdown(uint256,uint256)": {
        "notice": "Shuts down multiple pools"
      },
      "claimRewards(uint256,address)": {
        "notice": "claims rewards from a specific pool"
      },
      "clearDelegation()": {
        "notice": "Clears delegation of voting power from EOA for VoterProxy"
      },
      "clearFeeTokens()": {
        "notice": "Clears fee tokens"
      },
      "delegateVotingPower(address)": {
        "notice": "Delegates voting power from VoterProxy"
      },
      "deposit(uint256,uint256,bool)": {
        "notice": "Deposits an amount of LP token into a specific pool, mints reward and optionally tokens and  stakes them into the reward contract"
      },
      "depositAll(uint256,bool)": {
        "notice": "Deposits and stakes all LP tokens"
      },
      "earmarkFees()": {
        "notice": "Claims rewards from the Balancer's fee distributor contract and transfers the tokens into the rewards contract"
      },
      "earmarkRewards(uint256)": {
        "notice": "Claims rewards from a pool and disperses them to the rewards contract"
      },
      "poolLength()": {
        "notice": "returns the number of pools"
      },
      "redeemWethBal()": {
        "notice": "Burns all D2DWethBal from a user, and transfers the equivalent amount of unlocked WethBal tokes"
      },
      "setFactories(address,address,address)": {
        "notice": "sets the reward, token, and stash factory addresses"
      },
      "setFeeManager(address)": {
        "notice": "sets the feeManager variable"
      },
      "setFees(uint256,uint256)": {
        "notice": "sets the lock, staker, caller, platform fees and profit fees"
      },
      "setOwner(address)": {
        "notice": "sets the owner variable"
      },
      "setPoolManager(address)": {
        "notice": "sets the poolManager variable"
      },
      "setRewardContracts(address)": {
        "notice": "sets the lockRewards variable"
      },
      "setTreasury(address)": {
        "notice": "sets the contracts treasury variables"
      },
      "setVoteDelegate(address)": {
        "notice": "sets the voteDelegate variable"
      },
      "shutdownSystem()": {
        "notice": "shuts down all pools"
      },
      "voteGaugeWeight(address[],uint256[])": {
        "notice": "Votes for multiple gauges"
      },
      "withdraw(uint256,uint256)": {
        "notice": "Withdraws lp tokens from the pool"
      },
      "withdrawAll(uint256)": {
        "notice": "Withdraws all of the lp tokens in the pool"
      },
      "withdrawTo(uint256,uint256,address)": {
        "notice": "Withdraws LP tokens and sends them to a specified address"
      },
      "withdrawUnlockedWethBal()": {
        "notice": "Withdraws `amount` of unlocked WethBal to controller"
      }
    },
    "version": 1
  },
  "storageLayout": {
    "storage": [
      {
        "astId": 4353,
        "contract": "contracts/Controller.sol:Controller",
        "label": "profitFees",
        "offset": 0,
        "slot": "0",
        "type": "t_uint256"
      },
      {
        "astId": 4356,
        "contract": "contracts/Controller.sol:Controller",
        "label": "platformFees",
        "offset": 0,
        "slot": "1",
        "type": "t_uint256"
      },
      {
        "astId": 4358,
        "contract": "contracts/Controller.sol:Controller",
        "label": "owner",
        "offset": 0,
        "slot": "2",
        "type": "t_address"
      },
      {
        "astId": 4360,
        "contract": "contracts/Controller.sol:Controller",
        "label": "feeManager",
        "offset": 0,
        "slot": "3",
        "type": "t_address"
      },
      {
        "astId": 4362,
        "contract": "contracts/Controller.sol:Controller",
        "label": "poolManager",
        "offset": 0,
        "slot": "4",
        "type": "t_address"
      },
      {
        "astId": 4364,
        "contract": "contracts/Controller.sol:Controller",
        "label": "rewardFactory",
        "offset": 0,
        "slot": "5",
        "type": "t_address"
      },
      {
        "astId": 4366,
        "contract": "contracts/Controller.sol:Controller",
        "label": "stashFactory",
        "offset": 0,
        "slot": "6",
        "type": "t_address"
      },
      {
        "astId": 4368,
        "contract": "contracts/Controller.sol:Controller",
        "label": "tokenFactory",
        "offset": 0,
        "slot": "7",
        "type": "t_address"
      },
      {
        "astId": 4370,
        "contract": "contracts/Controller.sol:Controller",
        "label": "voteDelegate",
        "offset": 0,
        "slot": "8",
        "type": "t_address"
      },
      {
        "astId": 4372,
        "contract": "contracts/Controller.sol:Controller",
        "label": "treasury",
        "offset": 0,
        "slot": "9",
        "type": "t_address"
      },
      {
        "astId": 4374,
        "contract": "contracts/Controller.sol:Controller",
        "label": "lockRewards",
        "offset": 0,
        "slot": "10",
        "type": "t_address"
      },
      {
        "astId": 4378,
        "contract": "contracts/Controller.sol:Controller",
        "label": "feeTokens",
        "offset": 0,
        "slot": "11",
        "type": "t_array(t_contract(IERC20)816)dyn_storage"
      },
      {
        "astId": 4382,
        "contract": "contracts/Controller.sol:Controller",
        "label": "feeTokenToPool",
        "offset": 0,
        "slot": "12",
        "type": "t_mapping(t_address,t_address)"
      },
      {
        "astId": 4384,
        "contract": "contracts/Controller.sol:Controller",
        "label": "isShutdown",
        "offset": 0,
        "slot": "13",
        "type": "t_bool"
      },
      {
        "astId": 4386,
        "contract": "contracts/Controller.sol:Controller",
        "label": "canClaim",
        "offset": 1,
        "slot": "13",
        "type": "t_bool"
      },
      {
        "astId": 4403,
        "contract": "contracts/Controller.sol:Controller",
        "label": "poolInfo",
        "offset": 0,
        "slot": "14",
        "type": "t_array(t_struct(PoolInfo)4399_storage)dyn_storage"
      },
      {
        "astId": 4407,
        "contract": "contracts/Controller.sol:Controller",
        "label": "gaugeMap",
        "offset": 0,
        "slot": "15",
        "type": "t_mapping(t_address,t_bool)"
      }
    ],
    "types": {
      "t_address": {
        "encoding": "inplace",
        "label": "address",
        "numberOfBytes": "20"
      },
      "t_array(t_contract(IERC20)816)dyn_storage": {
        "base": "t_contract(IERC20)816",
        "encoding": "dynamic_array",
        "label": "contract IERC20[]",
        "numberOfBytes": "32"
      },
      "t_array(t_struct(PoolInfo)4399_storage)dyn_storage": {
        "base": "t_struct(PoolInfo)4399_storage",
        "encoding": "dynamic_array",
        "label": "struct Controller.PoolInfo[]",
        "numberOfBytes": "32"
      },
      "t_bool": {
        "encoding": "inplace",
        "label": "bool",
        "numberOfBytes": "1"
      },
      "t_contract(IERC20)816": {
        "encoding": "inplace",
        "label": "contract IERC20",
        "numberOfBytes": "20"
      },
      "t_mapping(t_address,t_address)": {
        "encoding": "mapping",
        "key": "t_address",
        "label": "mapping(address => address)",
        "numberOfBytes": "32",
        "value": "t_address"
      },
      "t_mapping(t_address,t_bool)": {
        "encoding": "mapping",
        "key": "t_address",
        "label": "mapping(address => bool)",
        "numberOfBytes": "32",
        "value": "t_bool"
      },
      "t_struct(PoolInfo)4399_storage": {
        "encoding": "inplace",
        "label": "struct Controller.PoolInfo",
        "members": [
          {
            "astId": 4388,
            "contract": "contracts/Controller.sol:Controller",
            "label": "lptoken",
            "offset": 0,
            "slot": "0",
            "type": "t_address"
          },
          {
            "astId": 4390,
            "contract": "contracts/Controller.sol:Controller",
            "label": "token",
            "offset": 0,
            "slot": "1",
            "type": "t_address"
          },
          {
            "astId": 4392,
            "contract": "contracts/Controller.sol:Controller",
            "label": "gauge",
            "offset": 0,
            "slot": "2",
            "type": "t_address"
          },
          {
            "astId": 4394,
            "contract": "contracts/Controller.sol:Controller",
            "label": "balRewards",
            "offset": 0,
            "slot": "3",
            "type": "t_address"
          },
          {
            "astId": 4396,
            "contract": "contracts/Controller.sol:Controller",
            "label": "stash",
            "offset": 0,
            "slot": "4",
            "type": "t_address"
          },
          {
            "astId": 4398,
            "contract": "contracts/Controller.sol:Controller",
            "label": "shutdown",
            "offset": 20,
            "slot": "4",
            "type": "t_bool"
          }
        ],
        "numberOfBytes": "160"
      },
      "t_uint256": {
        "encoding": "inplace",
        "label": "uint256",
        "numberOfBytes": "32"
      }
    }
  }
}