{
  "address": "0x4D0b160307f2D93029d0A16a075875Ef581A4616",
  "abi": [
    {
      "inputs": [
        {
          "internalType": "address",
          "name": "_staker",
          "type": "address"
        },
        {
          "internalType": "address",
          "name": "_bal",
          "type": "address"
        },
        {
          "internalType": "address",
          "name": "_feeDistro",
          "type": "address"
        },
        {
          "internalType": "address",
          "name": "_voteOwnership",
          "type": "address"
        },
        {
          "internalType": "address",
          "name": "_voteParameter",
          "type": "address"
        }
      ],
      "stateMutability": "nonpayable",
      "type": "constructor"
    },
    {
      "inputs": [],
      "name": "InvalidParameters",
      "type": "error"
    },
    {
      "inputs": [],
      "name": "InvalidStash",
      "type": "error"
    },
    {
      "inputs": [],
      "name": "PoolIsClosed",
      "type": "error"
    },
    {
      "inputs": [],
      "name": "Shutdown",
      "type": "error"
    },
    {
      "inputs": [],
      "name": "Unauthorized",
      "type": "error"
    },
    {
      "anonymous": false,
      "inputs": [
        {
          "indexed": false,
          "internalType": "uint256",
          "name": "_pid",
          "type": "uint256"
        },
        {
          "indexed": false,
          "internalType": "address",
          "name": "_lpToken",
          "type": "address"
        },
        {
          "indexed": false,
          "internalType": "address",
          "name": "_token",
          "type": "address"
        },
        {
          "indexed": false,
          "internalType": "address",
          "name": "_gauge",
          "type": "address"
        },
        {
          "indexed": false,
          "internalType": "address",
          "name": "_baseRewardsPool",
          "type": "address"
        },
        {
          "indexed": false,
          "internalType": "address",
          "name": "_stash",
          "type": "address"
        }
      ],
      "name": "AddedPool",
      "type": "event"
    },
    {
      "anonymous": false,
      "inputs": [
        {
          "indexed": false,
          "internalType": "address",
          "name": "_user",
          "type": "address"
        },
        {
          "indexed": false,
          "internalType": "uint256",
          "name": "_pid",
          "type": "uint256"
        },
        {
          "indexed": false,
          "internalType": "uint256",
          "name": "_amount",
          "type": "uint256"
        },
        {
          "indexed": false,
          "internalType": "bool",
          "name": "_stake",
          "type": "bool"
        }
      ],
      "name": "Deposited",
      "type": "event"
    },
    {
      "anonymous": false,
      "inputs": [
        {
          "indexed": false,
          "internalType": "address",
          "name": "_newFeeManager",
          "type": "address"
        }
      ],
      "name": "FeeManagerChanged",
      "type": "event"
    },
    {
      "anonymous": false,
      "inputs": [
        {
          "indexed": false,
          "internalType": "uint256",
          "name": "_newPlatformFee",
          "type": "uint256"
        },
        {
          "indexed": false,
          "internalType": "uint256",
          "name": "_newProfitFee",
          "type": "uint256"
        }
      ],
      "name": "FeesChanged",
      "type": "event"
    },
    {
      "anonymous": false,
      "inputs": [
        {
          "indexed": false,
          "internalType": "address",
          "name": "_newOwner",
          "type": "address"
        }
      ],
      "name": "OwnerChanged",
      "type": "event"
    },
    {
      "anonymous": false,
      "inputs": [
        {
          "indexed": false,
          "internalType": "address",
          "name": "_newPoolManager",
          "type": "address"
        }
      ],
      "name": "PoolManagerChanged",
      "type": "event"
    },
    {
      "anonymous": false,
      "inputs": [
        {
          "indexed": false,
          "internalType": "uint256",
          "name": "_pid",
          "type": "uint256"
        }
      ],
      "name": "PoolShutDown",
      "type": "event"
    },
    {
      "anonymous": false,
      "inputs": [],
      "name": "SystemShutdown",
      "type": "event"
    },
    {
      "anonymous": false,
      "inputs": [
        {
          "indexed": false,
          "internalType": "address",
          "name": "_newTreasury",
          "type": "address"
        }
      ],
      "name": "TreasuryChanged",
      "type": "event"
    },
    {
      "anonymous": false,
      "inputs": [
        {
          "indexed": false,
          "internalType": "address",
          "name": "_newVoteDelegate",
          "type": "address"
        }
      ],
      "name": "VoteDelegateChanged",
      "type": "event"
    },
    {
      "anonymous": false,
      "inputs": [
        {
          "indexed": false,
          "internalType": "address",
          "name": "_user",
          "type": "address"
        },
        {
          "indexed": false,
          "internalType": "uint256",
          "name": "_pid",
          "type": "uint256"
        },
        {
          "indexed": false,
          "internalType": "uint256",
          "name": "_amount",
          "type": "uint256"
        }
      ],
      "name": "Withdrawn",
      "type": "event"
    },
    {
      "inputs": [],
      "name": "FEE_DENOMINATOR",
      "outputs": [
        {
          "internalType": "uint256",
          "name": "",
          "type": "uint256"
        }
      ],
      "stateMutability": "view",
      "type": "function"
    },
    {
      "inputs": [],
      "name": "MAX_FEES",
      "outputs": [
        {
          "internalType": "uint256",
          "name": "",
          "type": "uint256"
        }
      ],
      "stateMutability": "view",
      "type": "function"
    },
    {
      "inputs": [],
      "name": "MAX_LOCK_TIME",
      "outputs": [
        {
          "internalType": "uint256",
          "name": "",
          "type": "uint256"
        }
      ],
      "stateMutability": "view",
      "type": "function"
    },
    {
      "inputs": [
        {
          "internalType": "address",
          "name": "_lptoken",
          "type": "address"
        },
        {
          "internalType": "address",
          "name": "_gauge",
          "type": "address"
        }
      ],
      "name": "addPool",
      "outputs": [],
      "stateMutability": "nonpayable",
      "type": "function"
    },
    {
      "inputs": [],
      "name": "bal",
      "outputs": [
        {
          "internalType": "address",
          "name": "",
          "type": "address"
        }
      ],
      "stateMutability": "view",
      "type": "function"
    },
    {
      "inputs": [
        {
          "internalType": "uint256",
          "name": "_pid",
          "type": "uint256"
        },
        {
          "internalType": "address",
          "name": "_gauge",
          "type": "address"
        }
      ],
      "name": "claimRewards",
      "outputs": [],
      "stateMutability": "nonpayable",
      "type": "function"
    },
    {
      "inputs": [],
      "name": "clearDelegation",
      "outputs": [],
      "stateMutability": "nonpayable",
      "type": "function"
    },
    {
      "inputs": [
        {
          "internalType": "address",
          "name": "_delegateTo",
          "type": "address"
        }
      ],
      "name": "delegateVotingPower",
      "outputs": [],
      "stateMutability": "nonpayable",
      "type": "function"
    },
    {
      "inputs": [
        {
          "internalType": "uint256",
          "name": "_pid",
          "type": "uint256"
        },
        {
          "internalType": "uint256",
          "name": "_amount",
          "type": "uint256"
        },
        {
          "internalType": "bool",
          "name": "_stake",
          "type": "bool"
        }
      ],
      "name": "deposit",
      "outputs": [],
      "stateMutability": "nonpayable",
      "type": "function"
    },
    {
      "inputs": [
        {
          "internalType": "uint256",
          "name": "_pid",
          "type": "uint256"
        },
        {
          "internalType": "bool",
          "name": "_stake",
          "type": "bool"
        }
      ],
      "name": "depositAll",
      "outputs": [],
      "stateMutability": "nonpayable",
      "type": "function"
    },
    {
      "inputs": [],
      "name": "earmarkFees",
      "outputs": [],
      "stateMutability": "nonpayable",
      "type": "function"
    },
    {
      "inputs": [
        {
          "internalType": "uint256",
          "name": "_pid",
          "type": "uint256"
        }
      ],
      "name": "earmarkRewards",
      "outputs": [],
      "stateMutability": "nonpayable",
      "type": "function"
    },
    {
      "inputs": [],
      "name": "feeDistro",
      "outputs": [
        {
          "internalType": "address",
          "name": "",
          "type": "address"
        }
      ],
      "stateMutability": "view",
      "type": "function"
    },
    {
      "inputs": [],
      "name": "feeManager",
      "outputs": [
        {
          "internalType": "address",
          "name": "",
          "type": "address"
        }
      ],
      "stateMutability": "view",
      "type": "function"
    },
    {
      "inputs": [],
      "name": "feeToken",
      "outputs": [
        {
          "internalType": "contract IERC20",
          "name": "",
          "type": "address"
        }
      ],
      "stateMutability": "view",
      "type": "function"
    },
    {
      "inputs": [
        {
          "internalType": "address",
          "name": "",
          "type": "address"
        }
      ],
      "name": "gaugeMap",
      "outputs": [
        {
          "internalType": "bool",
          "name": "",
          "type": "bool"
        }
      ],
      "stateMutability": "view",
      "type": "function"
    },
    {
      "inputs": [],
      "name": "isShutdown",
      "outputs": [
        {
          "internalType": "bool",
          "name": "",
          "type": "bool"
        }
      ],
      "stateMutability": "view",
      "type": "function"
    },
    {
      "inputs": [],
      "name": "lockFees",
      "outputs": [
        {
          "internalType": "address",
          "name": "",
          "type": "address"
        }
      ],
      "stateMutability": "view",
      "type": "function"
    },
    {
      "inputs": [],
      "name": "lockRewards",
      "outputs": [
        {
          "internalType": "address",
          "name": "",
          "type": "address"
        }
      ],
      "stateMutability": "view",
      "type": "function"
    },
    {
      "inputs": [],
      "name": "owner",
      "outputs": [
        {
          "internalType": "address",
          "name": "",
          "type": "address"
        }
      ],
      "stateMutability": "view",
      "type": "function"
    },
    {
      "inputs": [],
      "name": "platformFees",
      "outputs": [
        {
          "internalType": "uint256",
          "name": "",
          "type": "uint256"
        }
      ],
      "stateMutability": "view",
      "type": "function"
    },
    {
      "inputs": [
        {
          "internalType": "uint256",
          "name": "",
          "type": "uint256"
        }
      ],
      "name": "poolInfo",
      "outputs": [
        {
          "internalType": "address",
          "name": "lptoken",
          "type": "address"
        },
        {
          "internalType": "address",
          "name": "token",
          "type": "address"
        },
        {
          "internalType": "address",
          "name": "gauge",
          "type": "address"
        },
        {
          "internalType": "address",
          "name": "balRewards",
          "type": "address"
        },
        {
          "internalType": "address",
          "name": "stash",
          "type": "address"
        },
        {
          "internalType": "bool",
          "name": "shutdown",
          "type": "bool"
        }
      ],
      "stateMutability": "view",
      "type": "function"
    },
    {
      "inputs": [],
      "name": "poolLength",
      "outputs": [
        {
          "internalType": "uint256",
          "name": "",
          "type": "uint256"
        }
      ],
      "stateMutability": "view",
      "type": "function"
    },
    {
      "inputs": [],
      "name": "poolManager",
      "outputs": [
        {
          "internalType": "address",
          "name": "",
          "type": "address"
        }
      ],
      "stateMutability": "view",
      "type": "function"
    },
    {
      "inputs": [],
      "name": "profitFees",
      "outputs": [
        {
          "internalType": "uint256",
          "name": "",
          "type": "uint256"
        }
      ],
      "stateMutability": "view",
      "type": "function"
    },
    {
      "inputs": [],
      "name": "rewardFactory",
      "outputs": [
        {
          "internalType": "address",
          "name": "",
          "type": "address"
        }
      ],
      "stateMutability": "view",
      "type": "function"
    },
    {
      "inputs": [
        {
          "internalType": "address",
          "name": "_rfactory",
          "type": "address"
        },
        {
          "internalType": "address",
          "name": "_sfactory",
          "type": "address"
        },
        {
          "internalType": "address",
          "name": "_tfactory",
          "type": "address"
        }
      ],
      "name": "setFactories",
      "outputs": [],
      "stateMutability": "nonpayable",
      "type": "function"
    },
    {
      "inputs": [
        {
          "internalType": "contract IERC20",
          "name": "_feeToken",
          "type": "address"
        }
      ],
      "name": "setFeeInfo",
      "outputs": [],
      "stateMutability": "nonpayable",
      "type": "function"
    },
    {
      "inputs": [
        {
          "internalType": "address",
          "name": "_feeM",
          "type": "address"
        }
      ],
      "name": "setFeeManager",
      "outputs": [],
      "stateMutability": "nonpayable",
      "type": "function"
    },
    {
      "inputs": [
        {
          "internalType": "uint256",
          "name": "_platformFee",
          "type": "uint256"
        },
        {
          "internalType": "uint256",
          "name": "_profitFee",
          "type": "uint256"
        }
      ],
      "name": "setFees",
      "outputs": [],
      "stateMutability": "nonpayable",
      "type": "function"
    },
    {
      "inputs": [
        {
          "internalType": "address",
          "name": "_owner",
          "type": "address"
        }
      ],
      "name": "setOwner",
      "outputs": [],
      "stateMutability": "nonpayable",
      "type": "function"
    },
    {
      "inputs": [
        {
          "internalType": "address",
          "name": "_poolM",
          "type": "address"
        }
      ],
      "name": "setPoolManager",
      "outputs": [],
      "stateMutability": "nonpayable",
      "type": "function"
    },
    {
      "inputs": [
        {
          "internalType": "address",
          "name": "_rewards",
          "type": "address"
        }
      ],
      "name": "setRewardContracts",
      "outputs": [],
      "stateMutability": "nonpayable",
      "type": "function"
    },
    {
      "inputs": [
        {
          "internalType": "address",
          "name": "_treasury",
          "type": "address"
        }
      ],
      "name": "setTreasury",
      "outputs": [],
      "stateMutability": "nonpayable",
      "type": "function"
    },
    {
      "inputs": [
        {
          "internalType": "address",
          "name": "_voteDelegate",
          "type": "address"
        }
      ],
      "name": "setVoteDelegate",
      "outputs": [],
      "stateMutability": "nonpayable",
      "type": "function"
    },
    {
      "inputs": [
        {
          "internalType": "uint256",
          "name": "_pid",
          "type": "uint256"
        }
      ],
      "name": "shutdownPool",
      "outputs": [],
      "stateMutability": "nonpayable",
      "type": "function"
    },
    {
      "inputs": [],
      "name": "shutdownSystem",
      "outputs": [],
      "stateMutability": "nonpayable",
      "type": "function"
    },
    {
      "inputs": [],
      "name": "staker",
      "outputs": [
        {
          "internalType": "address",
          "name": "",
          "type": "address"
        }
      ],
      "stateMutability": "view",
      "type": "function"
    },
    {
      "inputs": [],
      "name": "stashFactory",
      "outputs": [
        {
          "internalType": "address",
          "name": "",
          "type": "address"
        }
      ],
      "stateMutability": "view",
      "type": "function"
    },
    {
      "inputs": [],
      "name": "tokenFactory",
      "outputs": [
        {
          "internalType": "address",
          "name": "",
          "type": "address"
        }
      ],
      "stateMutability": "view",
      "type": "function"
    },
    {
      "inputs": [],
      "name": "treasury",
      "outputs": [
        {
          "internalType": "address",
          "name": "",
          "type": "address"
        }
      ],
      "stateMutability": "view",
      "type": "function"
    },
    {
      "inputs": [],
      "name": "voteDelegate",
      "outputs": [
        {
          "internalType": "address",
          "name": "",
          "type": "address"
        }
      ],
      "stateMutability": "view",
      "type": "function"
    },
    {
      "inputs": [
        {
          "internalType": "address[]",
          "name": "_gauges",
          "type": "address[]"
        },
        {
          "internalType": "uint256[]",
          "name": "_weights",
          "type": "uint256[]"
        }
      ],
      "name": "voteGaugeWeight",
      "outputs": [],
      "stateMutability": "nonpayable",
      "type": "function"
    },
    {
      "inputs": [],
      "name": "voteOwnership",
      "outputs": [
        {
          "internalType": "address",
          "name": "",
          "type": "address"
        }
      ],
      "stateMutability": "view",
      "type": "function"
    },
    {
      "inputs": [],
      "name": "voteParameter",
      "outputs": [
        {
          "internalType": "address",
          "name": "",
          "type": "address"
        }
      ],
      "stateMutability": "view",
      "type": "function"
    },
    {
      "inputs": [
        {
          "internalType": "uint256",
          "name": "_pid",
          "type": "uint256"
        },
        {
          "internalType": "uint256",
          "name": "_amount",
          "type": "uint256"
        }
      ],
      "name": "withdraw",
      "outputs": [],
      "stateMutability": "nonpayable",
      "type": "function"
    },
    {
      "inputs": [
        {
          "internalType": "uint256",
          "name": "_pid",
          "type": "uint256"
        }
      ],
      "name": "withdrawAll",
      "outputs": [],
      "stateMutability": "nonpayable",
      "type": "function"
    },
    {
      "inputs": [
        {
          "internalType": "uint256",
          "name": "_pid",
          "type": "uint256"
        },
        {
          "internalType": "uint256",
          "name": "_amount",
          "type": "uint256"
        },
        {
          "internalType": "address",
          "name": "_to",
          "type": "address"
        }
      ],
      "name": "withdrawTo",
      "outputs": [],
      "stateMutability": "nonpayable",
      "type": "function"
    },
    {
      "inputs": [
        {
          "internalType": "uint256",
          "name": "_amount",
          "type": "uint256"
        }
      ],
      "name": "withdrawUnlockedWethBal",
      "outputs": [],
      "stateMutability": "nonpayable",
      "type": "function"
    }
  ],
  "transactionHash": "0x4f3848ca01665819f758e76284179ae17288106945ca29b06c2a5a0b62715405",
  "args": [
    "0x424e01E3101663cf2E27f97cB95dFbC6FdAeE034",
    "0xfa8449189744799ad2ace7e0ebac8bb7575eff47",
    "0x7F91dcdE02F72b478Dc73cB21730cAcA907c8c44",
    "0xbF63Afb77A49159b4502E91CD3f4EbDcc161431f",
    "0xbF63Afb77A49159b4502E91CD3f4EbDcc161431f"
  ],
  "solcInputHash": "ebe1c95c0cd8bda8bee95bcd82211d40",
  "bytecode": "0x61012060405260fa6000556103e86001553480156200001d57600080fd5b5060405162003d5b38038062003d5b8339810160408190526200004091620000bc565b6001600160a01b0393841660805291831661010052821660c052811660e0521660a05260028054336001600160a01b0319918216811790925560088054821683179055600380548216831790556004805490911690911790556200012c565b80516001600160a01b0381168114620000b757600080fd5b919050565b600080600080600060a08688031215620000d557600080fd5b620000e0866200009f565b9450620000f0602087016200009f565b935062000100604087016200009f565b925062000110606087016200009f565b915062000120608087016200009f565b90509295509295909350565b60805160a05160c05160e05161010051613b65620001f6600039600081816107730152610c02015260006106890152600061064201526000818161050301528181610c3201528181610f99015281816110cc0152818161123a0152818161130f0152818161187e01528181611a6201528181611bd701528181611f3701528181612735015281816129ee01528181612b8c01528181612d9f01526133c50152600081816104a301528181612f20015281816130170152818161315201526132220152613b656000f3fe608060405234801561001057600080fd5b506004361061032b5760003560e01c806378b7960d116101b2578063c2300bef116100f9578063d73792a9116100a2578063eb511dd41161007c578063eb511dd4146107de578063f0f44260146107f1578063f3ff955a14610804578063fa78668f1461081757600080fd5b8063d73792a914610795578063dc4c90d31461079e578063e77772fe146107be57600080fd5b8063cc956f3f116100d3578063cc956f3f1461073b578063d0fb02031461074e578063d6a0f5301461076e57600080fd5b8063c2300bef146106fc578063ca10ec2314610705578063cb0d5b521461071857600080fd5b8063a386a0801161015b578063b4d2e3d111610135578063b4d2e3d1146106ab578063bf86d690146106b4578063bfad96ba146106e957600080fd5b8063a386a0801461063d578063ab36629214610664578063b42eda711461068457600080fd5b80638da5cb5b1161018c5780638da5cb5b146105ea578063958e2d311461060a5780639f00332b1461061d57600080fd5b806378b7960d146105b15780637aef6715146105c45780637bd3b995146105d757600080fd5b80633b632bb91161027657806360759fce1161021f578063647846a5116101f9578063647846a51461056b5780636c7b69cb1461058b578063748743231461059e57600080fd5b806360759fce1461052557806360cafe841461053857806361d027b31461054b57600080fd5b8063441a3e7011610250578063441a3e70146104d8578063472d35b9146104eb5780635ebaf1db146104fe57600080fd5b80633b632bb9146104965780633d79d1c81461049e57806343a0d066146104c557600080fd5b8063194a4e7e116102d8578063245e4bf0116102b2578063245e4bf01461044e578063354af9191461046e578063376d771a1461047657600080fd5b8063194a4e7e1461042a5780631cc51d401461043357806322230b961461044657600080fd5b806313af40351161030957806313af4035146103a157806314cd70e4146103b45780631526fe27146103c757600080fd5b8063068eb19e14610330578063081e3eda1461037a5780630b78f9c01461038c575b600080fd5b6006546103509073ffffffffffffffffffffffffffffffffffffffff1681565b60405173ffffffffffffffffffffffffffffffffffffffff90911681526020015b60405180910390f35b600d545b604051908152602001610371565b61039f61039a3660046134d3565b610822565b005b61039f6103af366004613517565b61093c565b61039f6103c236600461353b565b610a09565b6103da6103d5366004613574565b610a8f565b6040805173ffffffffffffffffffffffffffffffffffffffff97881681529587166020870152938616938501939093529084166060840152909216608082015290151560a082015260c001610371565b61037e60015481565b61039f610441366004613517565b610b0e565b61039f610bc2565b6005546103509073ffffffffffffffffffffffffffffffffffffffff1681565b61039f610e5f565b600a546103509073ffffffffffffffffffffffffffffffffffffffff1681565b61039f611078565b6103507f000000000000000000000000000000000000000000000000000000000000000081565b61039f6104d336600461359b565b611132565b61039f6104e63660046134d3565b61161a565b61039f6104f9366004613517565b611626565b6103507f000000000000000000000000000000000000000000000000000000000000000081565b61039f6105333660046135c9565b6116eb565b61039f610546366004613574565b6117b0565b6009546103509073ffffffffffffffffffffffffffffffffffffffff1681565b600c546103509073ffffffffffffffffffffffffffffffffffffffff1681565b61039f6105993660046135f9565b6119a3565b61039f6105ac366004613517565b611ac3565b61039f6105bf366004613574565b611b88565b61039f6105d2366004613517565b611c08565b61039f6105e536600461361e565b611ccd565b6002546103509073ffffffffffffffffffffffffffffffffffffffff1681565b61039f610618366004613574565b611ddc565b6008546103509073ffffffffffffffffffffffffffffffffffffffff1681565b6103507f000000000000000000000000000000000000000000000000000000000000000081565b600b546103509073ffffffffffffffffffffffffffffffffffffffff1681565b6103507f000000000000000000000000000000000000000000000000000000000000000081565b61037e60005481565b600c546106d99074010000000000000000000000000000000000000000900460ff1681565b6040519015158152602001610371565b61039f6106f73660046136aa565b611ea8565b61037e610bb881565b61039f610713366004613517565b611fab565b6106d9610726366004613517565b600e6020526000908152604090205460ff1681565b61039f610749366004613574565b6120fb565b6003546103509073ffffffffffffffffffffffffffffffffffffffff1681565b6103507f000000000000000000000000000000000000000000000000000000000000000081565b61037e61271081565b6004546103509073ffffffffffffffffffffffffffffffffffffffff1681565b6007546103509073ffffffffffffffffffffffffffffffffffffffff1681565b61039f6107ec366004613716565b61215c565b61039f6107ff366004613517565b612892565b61039f610812366004613517565b612957565b61037e6301e1338081565b60035473ffffffffffffffffffffffffffffffffffffffff16338114610874576040517f82b4290000000000000000000000000000000000000000000000000000000000815260040160405180910390fd5b60006108808484613773565b9050610bb88111156108be576040517fe523909000000000000000000000000000000000000000000000000000000000815260040160405180910390fd5b6101f484101580156108d257506107d08411155b80156108df575060648310155b80156108ed57506103e88311155b15610936576001849055600083905560408051858152602081018590527f64f84976d9c917a44796104a59950fdbd9b3c16a5dd348b546d738301f6bd068910160405180910390a15b50505050565b60025473ffffffffffffffffffffffffffffffffffffffff1633811461098e576040517f82b4290000000000000000000000000000000000000000000000000000000000815260040160405180910390fd5b600280547fffffffffffffffffffffffff00000000000000000000000000000000000000001673ffffffffffffffffffffffffffffffffffffffff84169081179091556040519081527fa2ea9883a321a3e97b8266c2b078bfeec6d50c711ed71f874a90d500ae2eaf36906020015b60405180910390a15050565b6000600d8481548110610a1e57610a1e61378b565b600091825260209091206003600590920201015473ffffffffffffffffffffffffffffffffffffffff169050338114610a83576040517f82b4290000000000000000000000000000000000000000000000000000000000815260040160405180910390fd5b61093684843385612a4e565b600d8181548110610a9f57600080fd5b60009182526020909120600590910201805460018201546002830154600384015460049094015473ffffffffffffffffffffffffffffffffffffffff93841695509183169390831692908116919081169074010000000000000000000000000000000000000000900460ff1686565b60025473ffffffffffffffffffffffffffffffffffffffff16338114610b60576040517f82b4290000000000000000000000000000000000000000000000000000000000815260040160405180910390fd5b600a5473ffffffffffffffffffffffffffffffffffffffff16610bbe57600a80547fffffffffffffffffffffffff00000000000000000000000000000000000000001673ffffffffffffffffffffffffffffffffffffffff84161790555b5050565b600c546040517f2dbfa73500000000000000000000000000000000000000000000000000000000815273ffffffffffffffffffffffffffffffffffffffff7f00000000000000000000000000000000000000000000000000000000000000008116600483015291821660248201527f000000000000000000000000000000000000000000000000000000000000000090911690632dbfa735906044016020604051808303816000875af1158015610c7d573d6000803e3d6000fd5b505050506040513d601f19601f82011682018060405250810190610ca191906137ba565b50600c546040517f70a0823100000000000000000000000000000000000000000000000000000000815230600482015260009173ffffffffffffffffffffffffffffffffffffffff16906370a0823190602401602060405180830381865afa158015610d11573d6000803e3d6000fd5b505050506040513d601f19601f82011682018060405250810190610d3591906137ba565b600c54600b546040517fa9059cbb00000000000000000000000000000000000000000000000000000000815273ffffffffffffffffffffffffffffffffffffffff918216600482015260248101849052929350169063a9059cbb906044016020604051808303816000875af1158015610db2573d6000803e3d6000fd5b505050506040513d601f19601f82011682018060405250810190610dd691906137d3565b50600b546040517f590a41f50000000000000000000000000000000000000000000000000000000081526004810183905273ffffffffffffffffffffffffffffffffffffffff9091169063590a41f5906024015b600060405180830381600087803b158015610e4457600080fd5b505af1158015610e58573d6000803e3d6000fd5b5050505050565b60025473ffffffffffffffffffffffffffffffffffffffff16338114610eb1576040517f82b4290000000000000000000000000000000000000000000000000000000000815260040160405180910390fd5b600c80547fffffffffffffffffffffff00ffffffffffffffffffffffffffffffffffffffff167401000000000000000000000000000000000000000017905560005b600d5481101561104b576000600d8281548110610f1257610f1261378b565b906000526020600020906005020190508060040160149054906101000a900460ff1615610f3f5750611039565b805460028201546040517f09cae2c800000000000000000000000000000000000000000000000000000000815273ffffffffffffffffffffffffffffffffffffffff928316600482018190529183166024820181905291927f000000000000000000000000000000000000000000000000000000000000000016906309cae2c890604401600060405180830381600087803b158015610fdd57600080fd5b505af1925050508015610fee575060015b15611035576004830180547fffffffffffffffffffffff00ffffffffffffffffffffffffffffffffffffffff16740100000000000000000000000000000000000000001790555b5050505b80611043816137f0565b915050610ef3565b506040517fa7f1177ac6d0519232556de7d5158b9c7142cfeaebb1ff60315c49d364c75dfa90600090a150565b60025473ffffffffffffffffffffffffffffffffffffffff163381146110ca576040517f82b4290000000000000000000000000000000000000000000000000000000000815260040160405180910390fd5b7f000000000000000000000000000000000000000000000000000000000000000073ffffffffffffffffffffffffffffffffffffffff16636ea447ba6040518163ffffffff1660e01b8152600401600060405180830381600087803b158015610e4457600080fd5b600c5474010000000000000000000000000000000000000000900460ff1615611187576040517f4426aa1f00000000000000000000000000000000000000000000000000000000815260040160405180910390fd5b6000600d848154811061119c5761119c61378b565b906000526020600020906005020190508060040160149054906101000a900460ff16156111f5576040517fefc869b400000000000000000000000000000000000000000000000000000000815260040160405180910390fd5b80546040517f23b872dd00000000000000000000000000000000000000000000000000000000815233600482015273ffffffffffffffffffffffffffffffffffffffff7f000000000000000000000000000000000000000000000000000000000000000081166024830152604482018690529091169081906323b872dd906064016020604051808303816000875af1158015611295573d6000803e3d6000fd5b505050506040513d601f19601f820116820180604052508101906112b991906137d3565b5060028201546040517ff9609f0800000000000000000000000000000000000000000000000000000000815273ffffffffffffffffffffffffffffffffffffffff838116600483015291821660248201819052917f0000000000000000000000000000000000000000000000000000000000000000169063f9609f0890604401600060405180830381600087803b15801561135357600080fd5b505af1158015611367573d6000803e3d6000fd5b50505050600183015473ffffffffffffffffffffffffffffffffffffffff168415611540576040517f40c10f190000000000000000000000000000000000000000000000000000000081523060048201526024810187905273ffffffffffffffffffffffffffffffffffffffff8216906340c10f1990604401600060405180830381600087803b1580156113fa57600080fd5b505af115801561140e573d6000803e3d6000fd5b5050505060038401546040517f095ea7b300000000000000000000000000000000000000000000000000000000815273ffffffffffffffffffffffffffffffffffffffff91821660048201819052602482018990529183169063095ea7b3906044016020604051808303816000875af115801561148f573d6000803e3d6000fd5b505050506040513d601f19601f820116820180604052508101906114b391906137d3565b506040517f2ee409080000000000000000000000000000000000000000000000000000000081523360048201526024810188905273ffffffffffffffffffffffffffffffffffffffff821690632ee4090890604401600060405180830381600087803b15801561152257600080fd5b505af1158015611536573d6000803e3d6000fd5b50505050506115c7565b6040517f40c10f190000000000000000000000000000000000000000000000000000000081523360048201526024810187905273ffffffffffffffffffffffffffffffffffffffff8216906340c10f1990604401600060405180830381600087803b1580156115ae57600080fd5b505af11580156115c2573d6000803e3d6000fd5b505050505b604080513381526020810189905290810187905285151560608201527f65e6f89b6907d6277741ee4ccbc4ae260163a17f16bbb55b5344dff064867c40906080015b60405180910390a150505050505050565b610bbe82823333612a4e565b60035473ffffffffffffffffffffffffffffffffffffffff16338114611678576040517f82b4290000000000000000000000000000000000000000000000000000000000815260040160405180910390fd5b600380547fffffffffffffffffffffffff00000000000000000000000000000000000000001673ffffffffffffffffffffffffffffffffffffffff84169081179091556040519081527f45d7e621935e768c84854481fb8a41a30200fbe59f86660d5e02dd876563d898906020016109fd565b6000600d83815481106117005761170061378b565b60009182526020822060059190910201546040517f70a0823100000000000000000000000000000000000000000000000000000000815233600482015273ffffffffffffffffffffffffffffffffffffffff909116925082906370a0823190602401602060405180830381865afa15801561177f573d6000803e3d6000fd5b505050506040513d601f19601f820116820180604052508101906117a391906137ba565b9050610936848285611132565b60045473ffffffffffffffffffffffffffffffffffffffff16338114611802576040517f82b4290000000000000000000000000000000000000000000000000000000000815260040160405180910390fd5b6000600d83815481106118175761181761378b565b60009182526020909120600590910201805460028201546040517f09cae2c800000000000000000000000000000000000000000000000000000000815273ffffffffffffffffffffffffffffffffffffffff928316600482015290821660248201529192507f000000000000000000000000000000000000000000000000000000000000000016906309cae2c890604401600060405180830381600087803b1580156118c257600080fd5b505af19250505080156118d3575060015b506004810180547fffffffffffffffffffffff00ffffffffffffffffffffffffffffffffffffffff1674010000000000000000000000000000000000000000179055600281015473ffffffffffffffffffffffffffffffffffffffff166000908152600e60205260409081902080547fffffffffffffffffffffffffffffffffffffffffffffffffffffffffffffff00169055517f26b91c5ee7016e010d571b6baf5f465e048be724ce3b1cc7a6e25230b42ce47d906119969085815260200190565b60405180910390a1505050565b6000600d83815481106119b8576119b861378b565b600091825260209091206004600590920201015473ffffffffffffffffffffffffffffffffffffffff169050338114611a1d576040517f82b4290000000000000000000000000000000000000000000000000000000000815260040160405180910390fd5b6040517fef5cfb8c00000000000000000000000000000000000000000000000000000000815273ffffffffffffffffffffffffffffffffffffffff83811660048301527f0000000000000000000000000000000000000000000000000000000000000000169063ef5cfb8c90602401600060405180830381600087803b158015611aa657600080fd5b505af1158015611aba573d6000803e3d6000fd5b50505050505050565b60085473ffffffffffffffffffffffffffffffffffffffff16338114611b15576040517f82b4290000000000000000000000000000000000000000000000000000000000815260040160405180910390fd5b600880547fffffffffffffffffffffffff00000000000000000000000000000000000000001673ffffffffffffffffffffffffffffffffffffffff84169081179091556040519081527f2a1362e990f0ede76fc346823fb053633a4e6e30dfe212bf6c162ab895c3e24d906020016109fd565b6009546040517ff40a614500000000000000000000000000000000000000000000000000000000815273ffffffffffffffffffffffffffffffffffffffff9182166004820152602481018390527f00000000000000000000000000000000000000000000000000000000000000009091169063f40a614590604401610e2a565b60045473ffffffffffffffffffffffffffffffffffffffff16338114611c5a576040517f82b4290000000000000000000000000000000000000000000000000000000000815260040160405180910390fd5b600480547fffffffffffffffffffffffff00000000000000000000000000000000000000001673ffffffffffffffffffffffffffffffffffffffff84169081179091556040519081527fe53395243914ebc025ce712146f66fa5e9d3f04b308fae19ac4123350d1cd20f906020016109fd565b60025473ffffffffffffffffffffffffffffffffffffffff16338114611d1f576040517f82b4290000000000000000000000000000000000000000000000000000000000815260040160405180910390fd5b60055473ffffffffffffffffffffffffffffffffffffffff16611d92576005805473ffffffffffffffffffffffffffffffffffffffff8087167fffffffffffffffffffffffff00000000000000000000000000000000000000009283161790925560078054928516929091169190911790555b5050600680547fffffffffffffffffffffffff00000000000000000000000000000000000000001673ffffffffffffffffffffffffffffffffffffffff9290921691909117905550565b6000600d8281548110611df157611df161378b565b60009182526020822060059190910201600101546040517f70a0823100000000000000000000000000000000000000000000000000000000815233600482015273ffffffffffffffffffffffffffffffffffffffff909116925082906370a0823190602401602060405180830381865afa158015611e73573d6000803e3d6000fd5b505050506040513d601f19601f82011682018060405250810190611e9791906137ba565b9050611ea3838261161a565b505050565b60085473ffffffffffffffffffffffffffffffffffffffff16338114611efa576040517f82b4290000000000000000000000000000000000000000000000000000000000815260040160405180910390fd5b6040517f28fa28a900000000000000000000000000000000000000000000000000000000815273ffffffffffffffffffffffffffffffffffffffff7f000000000000000000000000000000000000000000000000000000000000000016906328fa28a990611f72908890889088908890600401613828565b600060405180830381600087803b158015611f8c57600080fd5b505af1158015611fa0573d6000803e3d6000fd5b505050505050505050565b60035473ffffffffffffffffffffffffffffffffffffffff16338114611ffd576040517f82b4290000000000000000000000000000000000000000000000000000000000815260040160405180910390fd5b600554600a546040517f2f1b327100000000000000000000000000000000000000000000000000000000815273ffffffffffffffffffffffffffffffffffffffff85811660048301529182166024820152306044820152911690632f1b3271906064016020604051808303816000875af115801561207f573d6000803e3d6000fd5b505050506040513d601f19601f820116820180604052508101906120a391906138d2565b600b805473ffffffffffffffffffffffffffffffffffffffff9283167fffffffffffffffffffffffff000000000000000000000000000000000000000091821617909155600c80549490921693169290921790915550565b600c5474010000000000000000000000000000000000000000900460ff1615612150576040517f4426aa1f00000000000000000000000000000000000000000000000000000000815260040160405180910390fd5b61215981612ce4565b50565b60045473ffffffffffffffffffffffffffffffffffffffff163381146121ae576040517f82b4290000000000000000000000000000000000000000000000000000000000815260040160405180910390fd5b600c5474010000000000000000000000000000000000000000900460ff1615612203576040517f4426aa1f00000000000000000000000000000000000000000000000000000000815260040160405180910390fd5b73ffffffffffffffffffffffffffffffffffffffff8216158061223a575073ffffffffffffffffffffffffffffffffffffffff8316155b15612271576040517fe523909000000000000000000000000000000000000000000000000000000000815260040160405180910390fd5b600d546007546040517f40923cf700000000000000000000000000000000000000000000000000000000815273ffffffffffffffffffffffffffffffffffffffff868116600483015260009216906340923cf7906024016020604051808303816000875af11580156122e7573d6000803e3d6000fd5b505050506040513d601f19601f8201168201806040525081019061230b91906138d2565b6005546040517f15914c990000000000000000000000000000000000000000000000000000000081526004810185905273ffffffffffffffffffffffffffffffffffffffff8084166024830152929350600092909116906315914c99906044016020604051808303816000875af115801561238a573d6000803e3d6000fd5b505050506040513d601f19601f820116820180604052508101906123ae91906138d2565b6006546040517f31c49cba0000000000000000000000000000000000000000000000000000000081526004810186905273ffffffffffffffffffffffffffffffffffffffff8881166024830152929350600092909116906331c49cba906044016020604051808303816000875af115801561242d573d6000803e3d6000fd5b505050506040513d601f19601f8201168201806040525081019061245191906138d2565b905073ffffffffffffffffffffffffffffffffffffffff81166124a0576040517f01485c8f00000000000000000000000000000000000000000000000000000000815260040160405180910390fd5b6040805160c08101825273ffffffffffffffffffffffffffffffffffffffff808a16825285811660208084019182528a83168486018181528885166060870190815288861660808801908152600060a08901818152600d8054600181810183558285529b5160059091027fd7b6990105719101dabeb77144f2a3385c8033acd3af97e9423a695e81ad1eb581018054928d167fffffffffffffffffffffffff000000000000000000000000000000000000000093841617905599517fd7b6990105719101dabeb77144f2a3385c8033acd3af97e9423a695e81ad1eb68b018054918d1691831691909117905595517fd7b6990105719101dabeb77144f2a3385c8033acd3af97e9423a695e81ad1eb78a018054918c1691881691909117905593517fd7b6990105719101dabeb77144f2a3385c8033acd3af97e9423a695e81ad1eb889018054918b16919096161790945590517fd7b6990105719101dabeb77144f2a3385c8033acd3af97e9423a695e81ad1eb990960180549351151574010000000000000000000000000000000000000000027fffffffffffffffffffffff0000000000000000000000000000000000000000009094169690971695909517919091179094558252600e90529290922080547fffffffffffffffffffffffffffffffffffffffffffffffffffffffffffffff001690911790558054829190869081106126af576126af61378b565b60009182526020909120600590910201600490810180547fffffffffffffffffffffffff00000000000000000000000000000000000000001673ffffffffffffffffffffffffffffffffffffffff9384161790556040517f4591dc51000000000000000000000000000000000000000000000000000000008152838316918101919091527f000000000000000000000000000000000000000000000000000000000000000090911690634591dc5190602401600060405180830381600087803b15801561277b57600080fd5b505af115801561278f573d6000803e3d6000fd5b50506005546040517f5e4e27db00000000000000000000000000000000000000000000000000000000815273ffffffffffffffffffffffffffffffffffffffff85811660048301529091169250635e4e27db9150602401600060405180830381600087803b15801561280057600080fd5b505af1158015612814573d6000803e3d6000fd5b50505050612822818761331b565b6040805185815273ffffffffffffffffffffffffffffffffffffffff808a166020830152808616928201929092528188166060820152818416608082015290821660a08201527f9b0d65965b5814a300c8080287057711dfee63c4041c4c69d4086c4679bb4f1c9060c001611609565b60035473ffffffffffffffffffffffffffffffffffffffff163381146128e4576040517f82b4290000000000000000000000000000000000000000000000000000000000815260040160405180910390fd5b600980547fffffffffffffffffffffffff00000000000000000000000000000000000000001673ffffffffffffffffffffffffffffffffffffffff84169081179091556040519081527fc714d22a2f08b695f81e7c707058db484aa5b4d6b4c9fd64beb10fe85832f608906020016109fd565b60025473ffffffffffffffffffffffffffffffffffffffff163381146129a9576040517f82b4290000000000000000000000000000000000000000000000000000000000815260040160405180910390fd5b6040517ff3ff955a00000000000000000000000000000000000000000000000000000000815273ffffffffffffffffffffffffffffffffffffffff83811660048301527f0000000000000000000000000000000000000000000000000000000000000000169063f3ff955a90602401600060405180830381600087803b158015612a3257600080fd5b505af1158015612a46573d6000803e3d6000fd5b505050505050565b6000600d8581548110612a6357612a6361378b565b600091825260209091206005909102018054600282015460018301546040517f9dc29fac00000000000000000000000000000000000000000000000000000000815273ffffffffffffffffffffffffffffffffffffffff8881166004830152602482018a905294955092841693918216929116908190639dc29fac90604401600060405180830381600087803b158015612afc57600080fd5b505af1158015612b10573d6000803e3d6000fd5b50505050600484015474010000000000000000000000000000000000000000900460ff16612be9576040517fd9caed1200000000000000000000000000000000000000000000000000000000815273ffffffffffffffffffffffffffffffffffffffff84811660048301528381166024830152604482018990527f0000000000000000000000000000000000000000000000000000000000000000169063d9caed1290606401600060405180830381600087803b158015612bd057600080fd5b505af1158015612be4573d6000803e3d6000fd5b505050505b6040517fa9059cbb00000000000000000000000000000000000000000000000000000000815273ffffffffffffffffffffffffffffffffffffffff86811660048301526024820189905284169063a9059cbb906044016020604051808303816000875af1158015612c5e573d6000803e3d6000fd5b505050506040513d601f19601f82011682018060405250810190612c8291906137d3565b506040805173ffffffffffffffffffffffffffffffffffffffff87168152602081018a90529081018890527f92ccf450a286a957af52509bc1c9939d1a6a481783e142e41e2499f0bb66ebc69060600160405180910390a15050505050505050565b6000600d8281548110612cf957612cf961378b565b906000526020600020906005020190508060040160149054906101000a900460ff1615612d52576040517fefc869b400000000000000000000000000000000000000000000000000000000815260040160405180910390fd5b60028101546040517f1e4b196a00000000000000000000000000000000000000000000000000000000815273ffffffffffffffffffffffffffffffffffffffff91821660048201819052917f00000000000000000000000000000000000000000000000000000000000000001690631e4b196a906024016020604051808303816000875af1158015612de8573d6000803e3d6000fd5b505050506040513d601f19601f82011682018060405250810190612e0c91906137ba565b50600482015473ffffffffffffffffffffffffffffffffffffffff168015612eef578073ffffffffffffffffffffffffffffffffffffffff1663372500ab6040518163ffffffff1660e01b8152600401600060405180830381600087803b158015612e7657600080fd5b505af1158015612e8a573d6000803e3d6000fd5b505050508073ffffffffffffffffffffffffffffffffffffffff1663ca8b01766040518163ffffffff1660e01b8152600401600060405180830381600087803b158015612ed657600080fd5b505af1158015612eea573d6000803e3d6000fd5b505050505b6040517f70a082310000000000000000000000000000000000000000000000000000000081523060048201526000907f000000000000000000000000000000000000000000000000000000000000000073ffffffffffffffffffffffffffffffffffffffff16906370a0823190602401602060405180830381865afa158015612f7c573d6000803e3d6000fd5b505050506040513d601f19601f82011682018060405250810190612fa091906137ba565b90508015610e5857600061271060005483612fbb91906138ef565b612fc5919061392c565b6003546040517fa9059cbb00000000000000000000000000000000000000000000000000000000815273ffffffffffffffffffffffffffffffffffffffff9182166004820152602481018390529192507f0000000000000000000000000000000000000000000000000000000000000000169063a9059cbb906044016020604051808303816000875af1158015613060573d6000803e3d6000fd5b505050506040513d601f19601f8201168201806040525081019061308491906137d3565b5060095473ffffffffffffffffffffffffffffffffffffffff16158015906130c4575060095473ffffffffffffffffffffffffffffffffffffffff163014155b80156130d257506000600154115b156131c2576000612710600154846130ea91906138ef565b6130f4919061392c565b90506131008184613967565b6009546040517fa9059cbb00000000000000000000000000000000000000000000000000000000815273ffffffffffffffffffffffffffffffffffffffff9182166004820152602481018490529194507f0000000000000000000000000000000000000000000000000000000000000000169063a9059cbb906044016020604051808303816000875af115801561319b573d6000803e3d6000fd5b505050506040513d601f19601f820116820180604052508101906131bf91906137d3565b50505b6131cc8183613967565b60038601546040517fa9059cbb00000000000000000000000000000000000000000000000000000000815273ffffffffffffffffffffffffffffffffffffffff91821660048201819052602482018490529294507f00000000000000000000000000000000000000000000000000000000000000009091169063a9059cbb906044016020604051808303816000875af115801561326d573d6000803e3d6000fd5b505050506040513d601f19601f8201168201806040525081019061329191906137d3565b506040517f590a41f50000000000000000000000000000000000000000000000000000000081526004810184905273ffffffffffffffffffffffffffffffffffffffff82169063590a41f590602401600060405180830381600087803b1580156132fa57600080fd5b505af115801561330e573d6000803e3d6000fd5b5050505050505050505050565b6040805173ffffffffffffffffffffffffffffffffffffffff84811660248084019190915283518084039091018152604490920183526020820180517bffffffffffffffffffffffffffffffffffffffffffffffffffffffff167fbdf981160000000000000000000000000000000000000000000000000000000017905291517fb61d27f600000000000000000000000000000000000000000000000000000000815290916000917f00000000000000000000000000000000000000000000000000000000000000009091169063b61d27f690613400908690859087906004016139aa565b6000604051808303816000875af115801561341f573d6000803e3d6000fd5b505050506040513d6000823e601f3d9081017fffffffffffffffffffffffffffffffffffffffffffffffffffffffffffffffe01682016040526134659190810190613a4e565b50905080610936576040517f08c379a000000000000000000000000000000000000000000000000000000000815260206004820152600f60248201527f7265646972656374206661696c65640000000000000000000000000000000000604482015260640160405180910390fd5b600080604083850312156134e657600080fd5b50508035926020909101359150565b73ffffffffffffffffffffffffffffffffffffffff8116811461215957600080fd5b60006020828403121561352957600080fd5b8135613534816134f5565b9392505050565b60008060006060848603121561355057600080fd5b83359250602084013591506040840135613569816134f5565b809150509250925092565b60006020828403121561358657600080fd5b5035919050565b801515811461215957600080fd5b6000806000606084860312156135b057600080fd5b833592506020840135915060408401356135698161358d565b600080604083850312156135dc57600080fd5b8235915060208301356135ee8161358d565b809150509250929050565b6000806040838503121561360c57600080fd5b8235915060208301356135ee816134f5565b60008060006060848603121561363357600080fd5b833561363e816134f5565b9250602084013561364e816134f5565b91506040840135613569816134f5565b60008083601f84011261367057600080fd5b50813567ffffffffffffffff81111561368857600080fd5b6020830191508360208260051b85010111156136a357600080fd5b9250929050565b600080600080604085870312156136c057600080fd5b843567ffffffffffffffff808211156136d857600080fd5b6136e48883890161365e565b909650945060208701359150808211156136fd57600080fd5b5061370a8782880161365e565b95989497509550505050565b6000806040838503121561372957600080fd5b8235613734816134f5565b915060208301356135ee816134f5565b7f4e487b7100000000000000000000000000000000000000000000000000000000600052601160045260246000fd5b6000821982111561378657613786613744565b500190565b7f4e487b7100000000000000000000000000000000000000000000000000000000600052603260045260246000fd5b6000602082840312156137cc57600080fd5b5051919050565b6000602082840312156137e557600080fd5b81516135348161358d565b60007fffffffffffffffffffffffffffffffffffffffffffffffffffffffffffffffff820361382157613821613744565b5060010190565b6040808252810184905260008560608301825b8781101561387857823561384e816134f5565b73ffffffffffffffffffffffffffffffffffffffff1682526020928301929091019060010161383b565b5083810360208501528481527f07ffffffffffffffffffffffffffffffffffffffffffffffffffffffffffffff8511156138b157600080fd5b8460051b915081866020830137600091016020019081529695505050505050565b6000602082840312156138e457600080fd5b8151613534816134f5565b6000817fffffffffffffffffffffffffffffffffffffffffffffffffffffffffffffffff048311821515161561392757613927613744565b500290565b600082613962577f4e487b7100000000000000000000000000000000000000000000000000000000600052601260045260246000fd5b500490565b60008282101561397957613979613744565b500390565b60005b83811015613999578181015183820152602001613981565b838111156109365750506000910152565b73ffffffffffffffffffffffffffffffffffffffff8416815282602082015260606040820152600082518060608401526139eb81608085016020870161397e565b601f017fffffffffffffffffffffffffffffffffffffffffffffffffffffffffffffffe01691909101608001949350505050565b7f4e487b7100000000000000000000000000000000000000000000000000000000600052604160045260246000fd5b60008060408385031215613a6157600080fd5b8251613a6c8161358d565b602084015190925067ffffffffffffffff80821115613a8a57600080fd5b818501915085601f830112613a9e57600080fd5b815181811115613ab057613ab0613a1f565b604051601f82017fffffffffffffffffffffffffffffffffffffffffffffffffffffffffffffffe0908116603f01168101908382118183101715613af657613af6613a1f565b81604052828152886020848701011115613b0f57600080fd5b613b2083602083016020880161397e565b8095505050505050925092905056fea26469706673582212208715673e1d336ab8877879bfc4bb3a383716a036a630b74b095bd7eab1c94e0164736f6c634300080e0033",
  "devdoc": {
    "details": "Controller contract for Prime Pools is based on the convex Booster.sol contract",
    "kind": "dev",
    "methods": {
      "addPool(address,address)": {
        "params": {
          "_gauge": "The address of the gauge controller",
          "_lptoken": "The address of the lp token"
        }
      },
      "claimRewards(uint256,address)": {
        "params": {
          "_gauge": "address of the gauge",
          "_pid": "the id of the pool"
        }
      },
      "delegateVotingPower(address)": {
        "params": {
          "_delegateTo": "to whom we delegate voting power"
        }
      },
      "deposit(uint256,uint256,bool)": {
        "details": "Sender must approve LP tokens to Controller smart contract",
        "params": {
          "_amount": "The amount of lp tokens to be deposited",
          "_pid": "The pool id to deposit lp tokens into",
          "_stake": "bool for wheather the tokens should be staked"
        }
      },
      "depositAll(uint256,bool)": {
        "details": "Sender must approve LP tokens to Controller smart contract",
        "params": {
          "_pid": "The pool id to deposit lp tokens into",
          "_stake": "bool for wheather the tokens should be staked"
        }
      },
      "earmarkRewards(uint256)": {
        "params": {
          "_pid": "the id of the pool where lp tokens are held"
        }
      },
      "setFactories(address,address,address)": {
        "params": {
          "_rfactory": "The address of the reward factory",
          "_sfactory": "The address of the stash factory",
          "_tfactory": "The address of the token factory"
        }
      },
      "setFeeInfo(address)": {
        "params": {
          "_feeToken": "feeToken"
        }
      },
      "setFeeManager(address)": {
        "params": {
          "_feeM": "The address of the fee manager"
        }
      },
      "setFees(uint256,uint256)": {
        "params": {
          "_platformFee": "The amount to set for the platform fees",
          "_profitFee": "The amount to set for the profit fees"
        }
      },
      "setOwner(address)": {
        "params": {
          "_owner": "The address of the owner of the contract"
        }
      },
      "setPoolManager(address)": {
        "params": {
          "_poolM": "The address of the pool manager"
        }
      },
      "setRewardContracts(address)": {
        "params": {
          "_rewards": "The address of the rewards contract"
        }
      },
      "setTreasury(address)": {
        "params": {
          "_treasury": "The address of the treasury contract"
        }
      },
      "setVoteDelegate(address)": {
        "params": {
          "_voteDelegate": "The address of whom votes will be delegated to"
        }
      },
      "shutdownPool(uint256)": {
        "params": {
          "_pid": "The id of the pool to shutdown"
        }
      },
      "shutdownSystem()": {
        "details": "This shuts down the contract, unstakes and withdraws all LP tokens"
      },
      "voteGaugeWeight(address[],uint256[])": {
        "params": {
          "_gauges": "array of gauge addresses",
          "_weights": "array of vote weights"
        }
      },
      "withdraw(uint256,uint256)": {
        "params": {
          "_amount": "amount of LP tokens to withdraw",
          "_pid": "The pool id to withdraw lp tokens from"
        }
      },
      "withdrawAll(uint256)": {
        "params": {
          "_pid": "The pool id to withdraw lp tokens from"
        }
      },
      "withdrawTo(uint256,uint256,address)": {
        "params": {
          "_amount": "amount of LP tokens to withdraw",
          "_pid": "The pool id to deposit lp tokens into"
        }
      },
      "withdrawUnlockedWethBal(uint256)": {
        "params": {
          "_amount": "amount of tokens to withdraw"
        }
      }
    },
    "title": "Controller contract",
    "version": 1
  },
  "userdoc": {
    "kind": "user",
    "methods": {
      "addPool(address,address)": {
        "notice": "creates a new pool"
      },
      "claimRewards(uint256,address)": {
        "notice": "claims rewards from a specific pool"
      },
      "clearDelegation()": {
        "notice": "Clears delegation of voting power from EOA for VoterProxy"
      },
      "delegateVotingPower(address)": {
        "notice": "Delegates voting power from VoterProxy"
      },
      "deposit(uint256,uint256,bool)": {
        "notice": "Deposits an amount of LP token into a specific pool, mints reward and optionally tokens and  stakes them into the reward contract"
      },
      "depositAll(uint256,bool)": {
        "notice": "Deposits and stakes all LP tokens"
      },
      "earmarkFees()": {
        "notice": "Claims fees from the Balancer's fee distributor contract and transfers the tokens into the rewards contract"
      },
      "earmarkRewards(uint256)": {
        "notice": "Claims rewards from a pool and disperses them to the rewards contract"
      },
      "poolLength()": {
        "notice": "returns the number of pools"
      },
      "setFactories(address,address,address)": {
        "notice": "sets the reward, token, and stash factory addresses"
      },
      "setFeeInfo(address)": {
        "notice": "sets the address of the feeToken"
      },
      "setFeeManager(address)": {
        "notice": "sets the feeManager variable"
      },
      "setFees(uint256,uint256)": {
        "notice": "sets the lock, staker, caller, platform fees and profit fees"
      },
      "setOwner(address)": {
        "notice": "sets the owner variable"
      },
      "setPoolManager(address)": {
        "notice": "sets the poolManager variable"
      },
      "setRewardContracts(address)": {
        "notice": "sets the lockRewards variable"
      },
      "setTreasury(address)": {
        "notice": "sets the contracts treasury variables"
      },
      "setVoteDelegate(address)": {
        "notice": "sets the voteDelegate variable"
      },
      "shutdownPool(uint256)": {
        "notice": "shuts down a currently active pool"
      },
      "shutdownSystem()": {
        "notice": "shuts down all pools"
      },
      "voteGaugeWeight(address[],uint256[])": {
        "notice": "Votes for multiple gauges"
      },
      "withdraw(uint256,uint256)": {
        "notice": "Withdraws lp tokens from the pool"
      },
      "withdrawAll(uint256)": {
        "notice": "Withdraws all of the lp tokens in the pool"
      },
      "withdrawTo(uint256,uint256,address)": {
        "notice": "Withdraws LP tokens and sends them to a specified address"
      },
      "withdrawUnlockedWethBal(uint256)": {
        "notice": "Withdraws `amount` of unlocked WethBal to treasury"
      }
    },
    "version": 1
  },
  "storageLayout": {
    "storage": [
      {
        "astId": 4043,
        "contract": "contracts/Controller.sol:Controller",
        "label": "profitFees",
        "offset": 0,
        "slot": "0",
        "type": "t_uint256"
      },
      {
        "astId": 4046,
        "contract": "contracts/Controller.sol:Controller",
        "label": "platformFees",
        "offset": 0,
        "slot": "1",
        "type": "t_uint256"
      },
      {
        "astId": 4048,
        "contract": "contracts/Controller.sol:Controller",
        "label": "owner",
        "offset": 0,
        "slot": "2",
        "type": "t_address"
      },
      {
        "astId": 4050,
        "contract": "contracts/Controller.sol:Controller",
        "label": "feeManager",
        "offset": 0,
        "slot": "3",
        "type": "t_address"
      },
      {
        "astId": 4052,
        "contract": "contracts/Controller.sol:Controller",
        "label": "poolManager",
        "offset": 0,
        "slot": "4",
        "type": "t_address"
      },
      {
        "astId": 4054,
        "contract": "contracts/Controller.sol:Controller",
        "label": "rewardFactory",
        "offset": 0,
        "slot": "5",
        "type": "t_address"
      },
      {
        "astId": 4056,
        "contract": "contracts/Controller.sol:Controller",
        "label": "stashFactory",
        "offset": 0,
        "slot": "6",
        "type": "t_address"
      },
      {
        "astId": 4058,
        "contract": "contracts/Controller.sol:Controller",
        "label": "tokenFactory",
        "offset": 0,
        "slot": "7",
        "type": "t_address"
      },
      {
        "astId": 4060,
        "contract": "contracts/Controller.sol:Controller",
        "label": "voteDelegate",
        "offset": 0,
        "slot": "8",
        "type": "t_address"
      },
      {
        "astId": 4062,
        "contract": "contracts/Controller.sol:Controller",
        "label": "treasury",
        "offset": 0,
        "slot": "9",
        "type": "t_address"
      },
      {
        "astId": 4064,
        "contract": "contracts/Controller.sol:Controller",
        "label": "lockRewards",
        "offset": 0,
        "slot": "10",
        "type": "t_address"
      },
      {
        "astId": 4066,
        "contract": "contracts/Controller.sol:Controller",
        "label": "lockFees",
        "offset": 0,
        "slot": "11",
        "type": "t_address"
      },
      {
        "astId": 4069,
        "contract": "contracts/Controller.sol:Controller",
        "label": "feeToken",
        "offset": 0,
        "slot": "12",
        "type": "t_contract(IERC20)810"
      },
      {
        "astId": 4071,
        "contract": "contracts/Controller.sol:Controller",
        "label": "isShutdown",
        "offset": 20,
        "slot": "12",
        "type": "t_bool"
      },
      {
        "astId": 4088,
        "contract": "contracts/Controller.sol:Controller",
        "label": "poolInfo",
        "offset": 0,
        "slot": "13",
        "type": "t_array(t_struct(PoolInfo)4084_storage)dyn_storage"
      },
      {
        "astId": 4092,
        "contract": "contracts/Controller.sol:Controller",
        "label": "gaugeMap",
        "offset": 0,
        "slot": "14",
        "type": "t_mapping(t_address,t_bool)"
      }
    ],
    "types": {
      "t_address": {
        "encoding": "inplace",
        "label": "address",
        "numberOfBytes": "20"
      },
      "t_array(t_struct(PoolInfo)4084_storage)dyn_storage": {
        "base": "t_struct(PoolInfo)4084_storage",
        "encoding": "dynamic_array",
        "label": "struct Controller.PoolInfo[]",
        "numberOfBytes": "32"
      },
      "t_bool": {
        "encoding": "inplace",
        "label": "bool",
        "numberOfBytes": "1"
      },
      "t_contract(IERC20)810": {
        "encoding": "inplace",
        "label": "contract IERC20",
        "numberOfBytes": "20"
      },
      "t_mapping(t_address,t_bool)": {
        "encoding": "mapping",
        "key": "t_address",
        "label": "mapping(address => bool)",
        "numberOfBytes": "32",
        "value": "t_bool"
      },
      "t_struct(PoolInfo)4084_storage": {
        "encoding": "inplace",
        "label": "struct Controller.PoolInfo",
        "members": [
          {
            "astId": 4073,
            "contract": "contracts/Controller.sol:Controller",
            "label": "lptoken",
            "offset": 0,
            "slot": "0",
            "type": "t_address"
          },
          {
            "astId": 4075,
            "contract": "contracts/Controller.sol:Controller",
            "label": "token",
            "offset": 0,
            "slot": "1",
            "type": "t_address"
          },
          {
            "astId": 4077,
            "contract": "contracts/Controller.sol:Controller",
            "label": "gauge",
            "offset": 0,
            "slot": "2",
            "type": "t_address"
          },
          {
            "astId": 4079,
            "contract": "contracts/Controller.sol:Controller",
            "label": "balRewards",
            "offset": 0,
            "slot": "3",
            "type": "t_address"
          },
          {
            "astId": 4081,
            "contract": "contracts/Controller.sol:Controller",
            "label": "stash",
            "offset": 0,
            "slot": "4",
            "type": "t_address"
          },
          {
            "astId": 4083,
            "contract": "contracts/Controller.sol:Controller",
            "label": "shutdown",
            "offset": 20,
            "slot": "4",
            "type": "t_bool"
          }
        ],
        "numberOfBytes": "160"
      },
      "t_uint256": {
        "encoding": "inplace",
        "label": "uint256",
        "numberOfBytes": "32"
      }
    }
  }
}