{
  "address": "0x2a1BE0010c62701bc455af6b4025A8d4059D3348",
  "abi": [
    {
      "inputs": [
        {
          "internalType": "address",
          "name": "_bal",
          "type": "address"
        }
      ],
      "stateMutability": "nonpayable",
      "type": "constructor"
    },
    {
      "inputs": [],
      "name": "AlreadyInitialized",
      "type": "error"
    },
    {
      "inputs": [],
      "name": "Unauthorized",
      "type": "error"
    },
    {
      "anonymous": false,
      "inputs": [],
      "name": "ExtraRewardsCleared",
      "type": "event"
    },
    {
      "anonymous": false,
      "inputs": [
        {
          "indexed": false,
          "internalType": "address",
          "name": "newRewardHook",
          "type": "address"
        }
      ],
      "name": "RewardHookSet",
      "type": "event"
    },
    {
      "inputs": [],
      "name": "bal",
      "outputs": [
        {
          "internalType": "address",
          "name": "",
          "type": "address"
        }
      ],
      "stateMutability": "view",
      "type": "function"
    },
    {
      "inputs": [],
      "name": "claimRewards",
      "outputs": [],
      "stateMutability": "nonpayable",
      "type": "function"
    },
    {
      "inputs": [],
      "name": "clearExtraRewards",
      "outputs": [],
      "stateMutability": "nonpayable",
      "type": "function"
    },
    {
      "inputs": [],
      "name": "gauge",
      "outputs": [
        {
          "internalType": "address",
          "name": "",
          "type": "address"
        }
      ],
      "stateMutability": "view",
      "type": "function"
    },
    {
      "inputs": [],
      "name": "hasBalRewards",
      "outputs": [
        {
          "internalType": "bool",
          "name": "",
          "type": "bool"
        }
      ],
      "stateMutability": "view",
      "type": "function"
    },
    {
      "inputs": [
        {
          "internalType": "address",
          "name": "",
          "type": "address"
        }
      ],
      "name": "historicalRewards",
      "outputs": [
        {
          "internalType": "uint256",
          "name": "",
          "type": "uint256"
        }
      ],
      "stateMutability": "view",
      "type": "function"
    },
    {
      "inputs": [
        {
          "internalType": "uint256",
          "name": "_pid",
          "type": "uint256"
        },
        {
          "internalType": "address",
          "name": "_operator",
          "type": "address"
        },
        {
          "internalType": "address",
          "name": "_gauge",
          "type": "address"
        },
        {
          "internalType": "address",
          "name": "_rFactory",
          "type": "address"
        }
      ],
      "name": "initialize",
      "outputs": [],
      "stateMutability": "nonpayable",
      "type": "function"
    },
    {
      "inputs": [],
      "name": "operator",
      "outputs": [
        {
          "internalType": "address",
          "name": "",
          "type": "address"
        }
      ],
      "stateMutability": "view",
      "type": "function"
    },
    {
      "inputs": [],
      "name": "pid",
      "outputs": [
        {
          "internalType": "uint256",
          "name": "",
          "type": "uint256"
        }
      ],
      "stateMutability": "view",
      "type": "function"
    },
    {
      "inputs": [],
      "name": "processStash",
      "outputs": [],
      "stateMutability": "nonpayable",
      "type": "function"
    },
    {
      "inputs": [],
      "name": "rewardFactory",
      "outputs": [
        {
          "internalType": "address",
          "name": "",
          "type": "address"
        }
      ],
      "stateMutability": "view",
      "type": "function"
    },
    {
      "inputs": [],
      "name": "rewardHook",
      "outputs": [
        {
          "internalType": "address",
          "name": "",
          "type": "address"
        }
      ],
      "stateMutability": "view",
      "type": "function"
    },
    {
      "inputs": [
        {
          "internalType": "address",
          "name": "_token",
          "type": "address"
        }
      ],
      "name": "setExtraReward",
      "outputs": [],
      "stateMutability": "nonpayable",
      "type": "function"
    },
    {
      "inputs": [
        {
          "internalType": "address",
          "name": "_hook",
          "type": "address"
        }
      ],
      "name": "setRewardHook",
      "outputs": [],
      "stateMutability": "nonpayable",
      "type": "function"
    },
    {
      "inputs": [],
      "name": "tokenCount",
      "outputs": [
        {
          "internalType": "uint256",
          "name": "",
          "type": "uint256"
        }
      ],
      "stateMutability": "view",
      "type": "function"
    },
    {
      "inputs": [
        {
          "internalType": "address",
          "name": "",
          "type": "address"
        }
      ],
      "name": "tokenInfo",
      "outputs": [
        {
          "internalType": "address",
          "name": "token",
          "type": "address"
        },
        {
          "internalType": "address",
          "name": "rewardAddress",
          "type": "address"
        }
      ],
      "stateMutability": "view",
      "type": "function"
    },
    {
      "inputs": [
        {
          "internalType": "uint256",
          "name": "",
          "type": "uint256"
        }
      ],
      "name": "tokenList",
      "outputs": [
        {
          "internalType": "address",
          "name": "",
          "type": "address"
        }
      ],
      "stateMutability": "view",
      "type": "function"
    }
  ],
  "transactionHash": "0x8fa30ddc06f7360bd7a677ec8c3aa28d181ed2374d109fde416574c4f69a39f2",
  "args": [
    "0xfa8449189744799ad2ace7e0ebac8bb7575eff47"
  ],
  "solcInputHash": "a7d91ab37d5735063eec3feef42edd7e",
  "bytecode": "0x60a060405234801561001057600080fd5b5060405161171c38038061171c83398101604081905261002f91610040565b6001600160a01b0316608052610070565b60006020828403121561005257600080fd5b81516001600160a01b038116811461006957600080fd5b9392505050565b608051611683610099600039600081816101a701528181610aec0152610c5a01526116836000f3fe608060405234801561001057600080fd5b506004361061011b5760003560e01c8063754d1d54116100b2578063ca8b017611610081578063e0a5095111610066578063e0a5095114610289578063f1068454146102be578063f5dab711146102c757600080fd5b8063ca8b017614610261578063cb00aa731461026957600080fd5b8063754d1d54146102095780639ead72221461021c5780639f181b5e1461022f578063a6f19c841461024157600080fd5b8063372500ab116100ee578063372500ab1461019a5780633d79d1c8146101a257806344214ecf146101c9578063570ca735146101e957600080fd5b80630569d388146101205780630d5225de1461012a5780632223686f1461013d578063245e4bf014610150575b600080fd5b610128610335565b005b610128610138366004611391565b61044f565b61012861014b366004611391565b6105ab565b6003546101709073ffffffffffffffffffffffffffffffffffffffff1681565b60405173ffffffffffffffffffffffffffffffffffffffff90911681526020015b60405180910390f35b61012861069a565b6101707f000000000000000000000000000000000000000000000000000000000000000081565b6004546101709073ffffffffffffffffffffffffffffffffffffffff1681565b6001546101709073ffffffffffffffffffffffffffffffffffffffff1681565b6101286102173660046113ae565b610844565b61017061022a366004611401565b6108fe565b6007545b604051908152602001610191565b6002546101709073ffffffffffffffffffffffffffffffffffffffff1681565b610128610935565b610233610277366004611391565b60056020526000908152604090205481565b6004546102ae9074010000000000000000000000000000000000000000900460ff1681565b6040519015158152602001610191565b61023360005481565b6103086102d5366004611391565b6006602052600090815260409020805460019091015473ffffffffffffffffffffffffffffffffffffffff918216911682565b6040805173ffffffffffffffffffffffffffffffffffffffff938416815292909116602083015201610191565b600160009054906101000a900473ffffffffffffffffffffffffffffffffffffffff1673ffffffffffffffffffffffffffffffffffffffff16638da5cb5b6040518163ffffffff1660e01b81526004016020604051808303816000875af11580156103a4573d6000803e3d6000fd5b505050506040513d601f19601f820116820180604052508101906103c8919061141a565b3373ffffffffffffffffffffffffffffffffffffffff821614610417576040517f82b4290000000000000000000000000000000000000000000000000000000000815260040160405180910390fd5b6104236007600061133d565b6040517f1a53a10dfbef82dfcf34ce946c284b478164f6e7496a07fc0cbe69d01ff44f0990600090a150565b600160009054906101000a900473ffffffffffffffffffffffffffffffffffffffff1673ffffffffffffffffffffffffffffffffffffffff16638da5cb5b6040518163ffffffff1660e01b81526004016020604051808303816000875af11580156104be573d6000803e3d6000fd5b505050506040513d601f19601f820116820180604052508101906104e2919061141a565b3373ffffffffffffffffffffffffffffffffffffffff821614610531576040517f82b4290000000000000000000000000000000000000000000000000000000000815260040160405180910390fd5b600480547fffffffffffffffffffffffff00000000000000000000000000000000000000001673ffffffffffffffffffffffffffffffffffffffff84169081179091556040519081527fd6665c7fd9e04cb4f58d8bd09095b335663c64fe4e75463435fe373a2da6337c9060200160405180910390a15050565b600160009054906101000a900473ffffffffffffffffffffffffffffffffffffffff1673ffffffffffffffffffffffffffffffffffffffff16638da5cb5b6040518163ffffffff1660e01b81526004016020604051808303816000875af115801561061a573d6000803e3d6000fd5b505050506040513d601f19601f8201168201806040525081019061063e919061141a565b3373ffffffffffffffffffffffffffffffffffffffff82161461068d576040517f82b4290000000000000000000000000000000000000000000000000000000000815260040160405180910390fd5b61069682610c09565b5050565b60015473ffffffffffffffffffffffffffffffffffffffff163381146106ec576040517f82b4290000000000000000000000000000000000000000000000000000000000815260040160405180910390fd5b6106f4610e8c565b60045474010000000000000000000000000000000000000000900460ff16156107ab576001546000546002546040517f6c7b69cb000000000000000000000000000000000000000000000000000000008152600481019290925273ffffffffffffffffffffffffffffffffffffffff908116602483015290911690636c7b69cb90604401600060405180830381600087803b15801561079257600080fd5b505af11580156107a6573d6000803e3d6000fd5b505050505b60045473ffffffffffffffffffffffffffffffffffffffff16156108415760048054604080517f2663fcfc000000000000000000000000000000000000000000000000000000008152905173ffffffffffffffffffffffffffffffffffffffff90921692632663fcfc92828201926000929082900301818387803b15801561083257600080fd5b505af192505050801561069657505b50565b60025473ffffffffffffffffffffffffffffffffffffffff1615610894576040517f0dc149f000000000000000000000000000000000000000000000000000000000815260040160405180910390fd5b600093909355600180547fffffffffffffffffffffffff000000000000000000000000000000000000000090811673ffffffffffffffffffffffffffffffffffffffff94851617909155600280548216928416929092179091556003805490911691909216179055565b6007818154811061090e57600080fd5b60009182526020909120015473ffffffffffffffffffffffffffffffffffffffff16905081565b60015473ffffffffffffffffffffffffffffffffffffffff16338114610987576040517f82b4290000000000000000000000000000000000000000000000000000000000815260040160405180910390fd5b60075460005b81811015610c0457600060066000600784815481106109ae576109ae611437565b600091825260208083209091015473ffffffffffffffffffffffffffffffffffffffff90811684529083019390935260409091019020805490925016806109f6575050610bf2565b6040517f70a0823100000000000000000000000000000000000000000000000000000000815230600482015260009073ffffffffffffffffffffffffffffffffffffffff8316906370a0823190602401602060405180830381865afa158015610a63573d6000803e3d6000fd5b505050506040513d601f19601f82011682018060405250810190610a879190611466565b90508015610bee5773ffffffffffffffffffffffffffffffffffffffff8216600090815260056020526040902054610ac09082906114ae565b73ffffffffffffffffffffffffffffffffffffffff8084166000818152600560205260409020929092557f0000000000000000000000000000000000000000000000000000000000000000169003610b4157600154610b399073ffffffffffffffffffffffffffffffffffffffff848116911683610fc1565b505050610bf2565b600183015473ffffffffffffffffffffffffffffffffffffffff90811690610b6c9084168284610fc1565b6040517f590a41f50000000000000000000000000000000000000000000000000000000081526004810183905273ffffffffffffffffffffffffffffffffffffffff82169063590a41f590602401600060405180830381600087803b158015610bd457600080fd5b505af1158015610be8573d6000803e3d6000fd5b50505050505b5050505b80610bfc816114c6565b91505061098d565b505050565b73ffffffffffffffffffffffffffffffffffffffff808216600081815260066020526040902080547fffffffffffffffffffffffff00000000000000000000000000000000000000001682178155917f00000000000000000000000000000000000000000000000000000000000000001614610e1457600154600080546040517f1526fe27000000000000000000000000000000000000000000000000000000008152919273ffffffffffffffffffffffffffffffffffffffff1691631526fe2791610cdb9160040190815260200190565b60c060405180830381865afa158015610cf8573d6000803e3d6000fd5b505050506040513d601f19601f82011682018060405250810190610d1c9190611513565b50506003546040517f2f1b327100000000000000000000000000000000000000000000000000000000815273ffffffffffffffffffffffffffffffffffffffff898116600483015280841660248301523060448301529296506000955091169250632f1b327191506064016020604051808303816000875af1158015610da6573d6000803e3d6000fd5b505050506040513d601f19601f82011682018060405250810190610dca919061141a565b6001840180547fffffffffffffffffffffffff00000000000000000000000000000000000000001673ffffffffffffffffffffffffffffffffffffffff9290921691909117905550505b50600780546001810182556000919091527fa66cc928b5edb82af9bd49922954155ab7b0942694bea4ce44661d9a8736c6880180547fffffffffffffffffffffffff00000000000000000000000000000000000000001673ffffffffffffffffffffffffffffffffffffffff92909216919091179055565b60005b6008811015610841576002546040517f54c49fe90000000000000000000000000000000000000000000000000000000081526004810183905260009173ffffffffffffffffffffffffffffffffffffffff16906354c49fe990602401602060405180830381865afa158015610f08573d6000803e3d6000fd5b505050506040513d601f19601f82011682018060405250810190610f2c919061141a565b905073ffffffffffffffffffffffffffffffffffffffff8116610f4d575050565b60045474010000000000000000000000000000000000000000900460ff16610faf57600480547fffffffffffffffffffffff00ffffffffffffffffffffffffffffffffffffffff16740100000000000000000000000000000000000000001790555b610fb881610c09565b50600101610e8f565b6040805173ffffffffffffffffffffffffffffffffffffffff848116602483015260448083018590528351808403909101815260649092018352602080830180517bffffffffffffffffffffffffffffffffffffffffffffffffffffffff167fa9059cbb0000000000000000000000000000000000000000000000000000000017905283518085019094528084527f5361666545524332303a206c6f772d6c6576656c2063616c6c206661696c656490840152610c049286929160009161108c91851690849061113b565b805190915015610c0457808060200190518101906110aa9190611595565b610c04576040517f08c379a000000000000000000000000000000000000000000000000000000000815260206004820152602a60248201527f5361666545524332303a204552433230206f7065726174696f6e20646964206e60448201527f6f7420737563636565640000000000000000000000000000000000000000000060648201526084015b60405180910390fd5b606061114a8484600085611154565b90505b9392505050565b6060824710156111e6576040517f08c379a000000000000000000000000000000000000000000000000000000000815260206004820152602660248201527f416464726573733a20696e73756666696369656e742062616c616e636520666f60448201527f722063616c6c00000000000000000000000000000000000000000000000000006064820152608401611132565b73ffffffffffffffffffffffffffffffffffffffff85163b611264576040517f08c379a000000000000000000000000000000000000000000000000000000000815260206004820152601d60248201527f416464726573733a2063616c6c20746f206e6f6e2d636f6e74726163740000006044820152606401611132565b6000808673ffffffffffffffffffffffffffffffffffffffff16858760405161128d91906115e0565b60006040518083038185875af1925050503d80600081146112ca576040519150601f19603f3d011682016040523d82523d6000602084013e6112cf565b606091505b50915091506112df8282866112ea565b979650505050505050565b606083156112f957508161114d565b8251156113095782518084602001fd5b816040517f08c379a000000000000000000000000000000000000000000000000000000000815260040161113291906115fc565b508054600082559060005260206000209081019061084191905b8082111561136b5760008155600101611357565b5090565b73ffffffffffffffffffffffffffffffffffffffff8116811461084157600080fd5b6000602082840312156113a357600080fd5b813561114d8161136f565b600080600080608085870312156113c457600080fd5b8435935060208501356113d68161136f565b925060408501356113e68161136f565b915060608501356113f68161136f565b939692955090935050565b60006020828403121561141357600080fd5b5035919050565b60006020828403121561142c57600080fd5b815161114d8161136f565b7f4e487b7100000000000000000000000000000000000000000000000000000000600052603260045260246000fd5b60006020828403121561147857600080fd5b5051919050565b7f4e487b7100000000000000000000000000000000000000000000000000000000600052601160045260246000fd5b600082198211156114c1576114c161147f565b500190565b60007fffffffffffffffffffffffffffffffffffffffffffffffffffffffffffffffff82036114f7576114f761147f565b5060010190565b8051801515811461150e57600080fd5b919050565b60008060008060008060c0878903121561152c57600080fd5b86516115378161136f565b60208801519096506115488161136f565b60408801519095506115598161136f565b606088015190945061156a8161136f565b608088015190935061157b8161136f565b915061158960a088016114fe565b90509295509295509295565b6000602082840312156115a757600080fd5b61114d826114fe565b60005b838110156115cb5781810151838201526020016115b3565b838111156115da576000848401525b50505050565b600082516115f28184602087016115b0565b9190910192915050565b602081526000825180602084015261161b8160408501602087016115b0565b601f017fffffffffffffffffffffffffffffffffffffffffffffffffffffffffffffffe016919091016040019291505056fea26469706673582212202f875abbaac2366f5df23dcb3b537c67afae39b00ea6446dabb24f88dd138ed964736f6c634300080f0033",
  "devdoc": {
    "kind": "dev",
    "methods": {
      "clearExtraRewards()": {
        "details": "Only Prime multising has the ability to do this"
      },
      "setExtraReward(address)": {
        "details": "Used for any new incentive that is not directly on balancer gauges",
        "params": {
          "_token": "The reward token address"
        }
      },
      "setRewardHook(address)": {
        "params": {
          "_hook": "The address of the reward hook"
        }
      }
    },
    "title": "ExtraRewardStash",
    "version": 1
  },
  "userdoc": {
    "kind": "user",
    "methods": {
      "claimRewards()": {
        "notice": "Claims registered reward tokens"
      },
      "clearExtraRewards()": {
        "notice": "Clears extra rewards"
      },
      "processStash()": {
        "notice": "Sends all of the extra rewards to the reward contracts"
      },
      "setExtraReward(address)": {
        "notice": "Registers an extra reward token to be handled"
      },
      "setRewardHook(address)": {
        "notice": "Sets the reward hook address"
      },
      "tokenCount()": {
        "notice": "Returns the length of the tokenList"
      }
    },
    "version": 1
  },
  "storageLayout": {
    "storage": [
      {
        "astId": 5638,
        "contract": "contracts/ExtraRewardStash.sol:ExtraRewardStash",
        "label": "pid",
        "offset": 0,
        "slot": "0",
        "type": "t_uint256"
      },
      {
        "astId": 5640,
        "contract": "contracts/ExtraRewardStash.sol:ExtraRewardStash",
        "label": "operator",
        "offset": 0,
        "slot": "1",
        "type": "t_address"
      },
      {
        "astId": 5642,
        "contract": "contracts/ExtraRewardStash.sol:ExtraRewardStash",
        "label": "gauge",
        "offset": 0,
        "slot": "2",
        "type": "t_address"
      },
      {
        "astId": 5644,
        "contract": "contracts/ExtraRewardStash.sol:ExtraRewardStash",
        "label": "rewardFactory",
        "offset": 0,
        "slot": "3",
        "type": "t_address"
      },
      {
        "astId": 5646,
        "contract": "contracts/ExtraRewardStash.sol:ExtraRewardStash",
        "label": "rewardHook",
        "offset": 0,
        "slot": "4",
        "type": "t_address"
      },
      {
        "astId": 5648,
        "contract": "contracts/ExtraRewardStash.sol:ExtraRewardStash",
        "label": "hasBalRewards",
        "offset": 20,
        "slot": "4",
        "type": "t_bool"
      },
      {
        "astId": 5652,
        "contract": "contracts/ExtraRewardStash.sol:ExtraRewardStash",
        "label": "historicalRewards",
        "offset": 0,
        "slot": "5",
        "type": "t_mapping(t_address,t_uint256)"
      },
      {
        "astId": 5662,
        "contract": "contracts/ExtraRewardStash.sol:ExtraRewardStash",
        "label": "tokenInfo",
        "offset": 0,
        "slot": "6",
        "type": "t_mapping(t_address,t_struct(TokenInfo)5657_storage)"
      },
      {
        "astId": 5665,
        "contract": "contracts/ExtraRewardStash.sol:ExtraRewardStash",
        "label": "tokenList",
        "offset": 0,
        "slot": "7",
        "type": "t_array(t_address)dyn_storage"
      }
    ],
    "types": {
      "t_address": {
        "encoding": "inplace",
        "label": "address",
        "numberOfBytes": "20"
      },
      "t_array(t_address)dyn_storage": {
        "base": "t_address",
        "encoding": "dynamic_array",
        "label": "address[]",
        "numberOfBytes": "32"
      },
      "t_bool": {
        "encoding": "inplace",
        "label": "bool",
        "numberOfBytes": "1"
      },
      "t_mapping(t_address,t_struct(TokenInfo)5657_storage)": {
        "encoding": "mapping",
        "key": "t_address",
        "label": "mapping(address => struct ExtraRewardStash.TokenInfo)",
        "numberOfBytes": "32",
        "value": "t_struct(TokenInfo)5657_storage"
      },
      "t_mapping(t_address,t_uint256)": {
        "encoding": "mapping",
        "key": "t_address",
        "label": "mapping(address => uint256)",
        "numberOfBytes": "32",
        "value": "t_uint256"
      },
      "t_struct(TokenInfo)5657_storage": {
        "encoding": "inplace",
        "label": "struct ExtraRewardStash.TokenInfo",
        "members": [
          {
            "astId": 5654,
            "contract": "contracts/ExtraRewardStash.sol:ExtraRewardStash",
            "label": "token",
            "offset": 0,
            "slot": "0",
            "type": "t_address"
          },
          {
            "astId": 5656,
            "contract": "contracts/ExtraRewardStash.sol:ExtraRewardStash",
            "label": "rewardAddress",
            "offset": 0,
            "slot": "1",
            "type": "t_address"
          }
        ],
        "numberOfBytes": "64"
      },
      "t_uint256": {
        "encoding": "inplace",
        "label": "uint256",
        "numberOfBytes": "32"
      }
    }
  }
}