{
  "address": "0x4cabd220393Eb833b472F4B3ffE677523577394b",
  "abi": [
    {
      "inputs": [
        {
          "internalType": "address",
          "name": "_bal",
          "type": "address"
        }
      ],
      "stateMutability": "nonpayable",
      "type": "constructor"
    },
    {
      "inputs": [],
      "name": "AlreadyInitialized",
      "type": "error"
    },
    {
      "inputs": [],
      "name": "Unauthorized",
      "type": "error"
    },
    {
      "anonymous": false,
      "inputs": [
        {
          "indexed": false,
          "internalType": "address",
          "name": "extraReward",
          "type": "address"
        }
      ],
      "name": "ExtraRewardCleared",
      "type": "event"
    },
    {
      "anonymous": false,
      "inputs": [],
      "name": "ExtraRewardsCleared",
      "type": "event"
    },
    {
      "anonymous": false,
      "inputs": [
        {
          "indexed": false,
          "internalType": "address",
          "name": "newRewardHook",
          "type": "address"
        }
      ],
      "name": "RewardHookSet",
      "type": "event"
    },
    {
      "inputs": [],
      "name": "bal",
      "outputs": [
        {
          "internalType": "address",
          "name": "",
          "type": "address"
        }
      ],
      "stateMutability": "view",
      "type": "function"
    },
    {
      "inputs": [],
      "name": "claimRewards",
      "outputs": [],
      "stateMutability": "nonpayable",
      "type": "function"
    },
    {
      "inputs": [
        {
          "internalType": "uint256",
          "name": "index",
          "type": "uint256"
        }
      ],
      "name": "clearExtraReward",
      "outputs": [],
      "stateMutability": "nonpayable",
      "type": "function"
    },
    {
      "inputs": [],
      "name": "clearExtraRewards",
      "outputs": [],
      "stateMutability": "nonpayable",
      "type": "function"
    },
    {
      "inputs": [],
      "name": "gauge",
      "outputs": [
        {
          "internalType": "address",
          "name": "",
          "type": "address"
        }
      ],
      "stateMutability": "view",
      "type": "function"
    },
    {
      "inputs": [],
      "name": "hasBalRewards",
      "outputs": [
        {
          "internalType": "bool",
          "name": "",
          "type": "bool"
        }
      ],
      "stateMutability": "view",
      "type": "function"
    },
    {
      "inputs": [
        {
          "internalType": "address",
          "name": "",
          "type": "address"
        }
      ],
      "name": "historicalRewards",
      "outputs": [
        {
          "internalType": "uint256",
          "name": "",
          "type": "uint256"
        }
      ],
      "stateMutability": "view",
      "type": "function"
    },
    {
      "inputs": [
        {
          "internalType": "uint256",
          "name": "_pid",
          "type": "uint256"
        },
        {
          "internalType": "address",
          "name": "_operator",
          "type": "address"
        },
        {
          "internalType": "address",
          "name": "_gauge",
          "type": "address"
        },
        {
          "internalType": "address",
          "name": "_rFactory",
          "type": "address"
        }
      ],
      "name": "initialize",
      "outputs": [],
      "stateMutability": "nonpayable",
      "type": "function"
    },
    {
      "inputs": [],
      "name": "operator",
      "outputs": [
        {
          "internalType": "address",
          "name": "",
          "type": "address"
        }
      ],
      "stateMutability": "view",
      "type": "function"
    },
    {
      "inputs": [],
      "name": "pid",
      "outputs": [
        {
          "internalType": "uint256",
          "name": "",
          "type": "uint256"
        }
      ],
      "stateMutability": "view",
      "type": "function"
    },
    {
      "inputs": [],
      "name": "processStash",
      "outputs": [],
      "stateMutability": "nonpayable",
      "type": "function"
    },
    {
      "inputs": [],
      "name": "rewardFactory",
      "outputs": [
        {
          "internalType": "address",
          "name": "",
          "type": "address"
        }
      ],
      "stateMutability": "view",
      "type": "function"
    },
    {
      "inputs": [],
      "name": "rewardHook",
      "outputs": [
        {
          "internalType": "address",
          "name": "",
          "type": "address"
        }
      ],
      "stateMutability": "view",
      "type": "function"
    },
    {
      "inputs": [
        {
          "internalType": "address",
          "name": "_token",
          "type": "address"
        }
      ],
      "name": "setExtraReward",
      "outputs": [],
      "stateMutability": "nonpayable",
      "type": "function"
    },
    {
      "inputs": [
        {
          "internalType": "address",
          "name": "_hook",
          "type": "address"
        }
      ],
      "name": "setRewardHook",
      "outputs": [],
      "stateMutability": "nonpayable",
      "type": "function"
    },
    {
      "inputs": [],
      "name": "tokenCount",
      "outputs": [
        {
          "internalType": "uint256",
          "name": "",
          "type": "uint256"
        }
      ],
      "stateMutability": "view",
      "type": "function"
    },
    {
      "inputs": [
        {
          "internalType": "address",
          "name": "",
          "type": "address"
        }
      ],
      "name": "tokenInfo",
      "outputs": [
        {
          "internalType": "address",
          "name": "token",
          "type": "address"
        },
        {
          "internalType": "address",
          "name": "rewardAddress",
          "type": "address"
        }
      ],
      "stateMutability": "view",
      "type": "function"
    },
    {
      "inputs": [
        {
          "internalType": "uint256",
          "name": "",
          "type": "uint256"
        }
      ],
      "name": "tokenList",
      "outputs": [
        {
          "internalType": "address",
          "name": "",
          "type": "address"
        }
      ],
      "stateMutability": "view",
      "type": "function"
    }
  ],
  "transactionHash": "0x19e858887b8e2129e47dbaf411469c221dd56146a9ba36139874731f09a3af67",
  "args": [
    "0xfa8449189744799ad2ace7e0ebac8bb7575eff47"
  ],
  "solcInputHash": "7e57f81a6be83430d315781a62c52ee2",
  "bytecode": "0x60a060405234801561001057600080fd5b50604051611b40380380611b4083398101604081905261002f91610040565b6001600160a01b0316608052610070565b60006020828403121561005257600080fd5b81516001600160a01b038116811461006957600080fd5b9392505050565b608051611aa7610099600039600081816101d501528181610eab015261103a0152611aa76000f3fe608060405234801561001057600080fd5b50600436106101365760003560e01c8063754d1d54116100b2578063ca8b017611610081578063e0a5095111610066578063e0a50951146102b7578063f1068454146102ec578063f5dab711146102f557600080fd5b8063ca8b01761461028f578063cb00aa731461029757600080fd5b8063754d1d54146102375780639ead72221461024a5780639f181b5e1461025d578063a6f19c841461026f57600080fd5b8063245e4bf0116101095780633d79d1c8116100ee5780633d79d1c8146101d057806344214ecf146101f7578063570ca7351461021757600080fd5b8063245e4bf01461017e578063372500ab146101c857600080fd5b80630569d3881461013b5780630d5225de1461014557806321ef0fae146101585780632223686f1461016b575b600080fd5b610143610363565b005b61014361015336600461176f565b610577565b61014361016636600461178c565b6106d3565b61014361017936600461176f565b61096a565b60035461019e9073ffffffffffffffffffffffffffffffffffffffff1681565b60405173ffffffffffffffffffffffffffffffffffffffff90911681526020015b60405180910390f35b610143610a59565b61019e7f000000000000000000000000000000000000000000000000000000000000000081565b60045461019e9073ffffffffffffffffffffffffffffffffffffffff1681565b60015461019e9073ffffffffffffffffffffffffffffffffffffffff1681565b6101436102453660046117a5565b610c03565b61019e61025836600461178c565b610cbd565b6007545b6040519081526020016101bf565b60025461019e9073ffffffffffffffffffffffffffffffffffffffff1681565b610143610cf4565b6102616102a536600461176f565b60056020526000908152604090205481565b6004546102dc9074010000000000000000000000000000000000000000900460ff1681565b60405190151581526020016101bf565b61026160005481565b61033661030336600461176f565b6006602052600090815260409020805460019091015473ffffffffffffffffffffffffffffffffffffffff918216911682565b6040805173ffffffffffffffffffffffffffffffffffffffff9384168152929091166020830152016101bf565b600160009054906101000a900473ffffffffffffffffffffffffffffffffffffffff1673ffffffffffffffffffffffffffffffffffffffff16638da5cb5b6040518163ffffffff1660e01b81526004016020604051808303816000875af11580156103d2573d6000803e3d6000fd5b505050506040513d601f19601f820116820180604052508101906103f691906117f8565b3373ffffffffffffffffffffffffffffffffffffffff821614610445576040517f82b4290000000000000000000000000000000000000000000000000000000000815260040160405180910390fd5b600060078054806020026020016040519081016040528092919081815260200182805480156104aa57602002820191906000526020600020905b815473ffffffffffffffffffffffffffffffffffffffff16815260019091019060200180831161047f575b5050505050905060005b815181101561053d57600660008383815181106104d3576104d3611815565b60209081029190910181015173ffffffffffffffffffffffffffffffffffffffff16825281019190915260400160002080547fffffffffffffffffffffffff00000000000000000000000000000000000000009081168255600191820180549091169055016104b4565b5061054a6007600061171b565b6040517f1a53a10dfbef82dfcf34ce946c284b478164f6e7496a07fc0cbe69d01ff44f0990600090a15050565b600160009054906101000a900473ffffffffffffffffffffffffffffffffffffffff1673ffffffffffffffffffffffffffffffffffffffff16638da5cb5b6040518163ffffffff1660e01b81526004016020604051808303816000875af11580156105e6573d6000803e3d6000fd5b505050506040513d601f19601f8201168201806040525081019061060a91906117f8565b3373ffffffffffffffffffffffffffffffffffffffff821614610659576040517f82b4290000000000000000000000000000000000000000000000000000000000815260040160405180910390fd5b600480547fffffffffffffffffffffffff00000000000000000000000000000000000000001673ffffffffffffffffffffffffffffffffffffffff84169081179091556040519081527fd6665c7fd9e04cb4f58d8bd09095b335663c64fe4e75463435fe373a2da6337c9060200160405180910390a15050565b600160009054906101000a900473ffffffffffffffffffffffffffffffffffffffff1673ffffffffffffffffffffffffffffffffffffffff16638da5cb5b6040518163ffffffff1660e01b81526004016020604051808303816000875af1158015610742573d6000803e3d6000fd5b505050506040513d601f19601f8201168201806040525081019061076691906117f8565b3373ffffffffffffffffffffffffffffffffffffffff8216146107b5576040517f82b4290000000000000000000000000000000000000000000000000000000000815260040160405180910390fd5b6000600783815481106107ca576107ca611815565b6000918252602090912001546007805473ffffffffffffffffffffffffffffffffffffffff90921692509061080190600190611873565b8154811061081157610811611815565b6000918252602090912001546007805473ffffffffffffffffffffffffffffffffffffffff909216918590811061084a5761084a611815565b9060005260206000200160006101000a81548173ffffffffffffffffffffffffffffffffffffffff021916908373ffffffffffffffffffffffffffffffffffffffff16021790555060078054806108a3576108a361188a565b600082815260208082207fffffffffffffffffffffffffffffffffffffffffffffffffffffffffffffffff908401810180547fffffffffffffffffffffffff0000000000000000000000000000000000000000908116909155930190935573ffffffffffffffffffffffffffffffffffffffff8416808252600684526040918290208054841681556001018054909316909255519081527f34304d78213ed24f75e323bc823dc4883b456fbe135029e6ae3c1597e6c7d436910160405180910390a1505050565b600160009054906101000a900473ffffffffffffffffffffffffffffffffffffffff1673ffffffffffffffffffffffffffffffffffffffff16638da5cb5b6040518163ffffffff1660e01b81526004016020604051808303816000875af11580156109d9573d6000803e3d6000fd5b505050506040513d601f19601f820116820180604052508101906109fd91906117f8565b3373ffffffffffffffffffffffffffffffffffffffff821614610a4c576040517f82b4290000000000000000000000000000000000000000000000000000000000815260040160405180910390fd5b610a5582610fc8565b5050565b60015473ffffffffffffffffffffffffffffffffffffffff16338114610aab576040517f82b4290000000000000000000000000000000000000000000000000000000000815260040160405180910390fd5b610ab361126a565b60045474010000000000000000000000000000000000000000900460ff1615610b6a576001546000546002546040517f6c7b69cb000000000000000000000000000000000000000000000000000000008152600481019290925273ffffffffffffffffffffffffffffffffffffffff908116602483015290911690636c7b69cb90604401600060405180830381600087803b158015610b5157600080fd5b505af1158015610b65573d6000803e3d6000fd5b505050505b60045473ffffffffffffffffffffffffffffffffffffffff1615610c005760048054604080517f2663fcfc000000000000000000000000000000000000000000000000000000008152905173ffffffffffffffffffffffffffffffffffffffff90921692632663fcfc92828201926000929082900301818387803b158015610bf157600080fd5b505af1925050508015610a5557505b50565b60025473ffffffffffffffffffffffffffffffffffffffff1615610c53576040517f0dc149f000000000000000000000000000000000000000000000000000000000815260040160405180910390fd5b600093909355600180547fffffffffffffffffffffffff000000000000000000000000000000000000000090811673ffffffffffffffffffffffffffffffffffffffff94851617909155600280548216928416929092179091556003805490911691909216179055565b60078181548110610ccd57600080fd5b60009182526020909120015473ffffffffffffffffffffffffffffffffffffffff16905081565b60015473ffffffffffffffffffffffffffffffffffffffff16338114610d46576040517f82b4290000000000000000000000000000000000000000000000000000000000815260040160405180910390fd5b60075460005b81811015610fc35760006006600060078481548110610d6d57610d6d611815565b600091825260208083209091015473ffffffffffffffffffffffffffffffffffffffff9081168452908301939093526040909101902080549092501680610db5575050610fb1565b6040517f70a0823100000000000000000000000000000000000000000000000000000000815230600482015260009073ffffffffffffffffffffffffffffffffffffffff8316906370a0823190602401602060405180830381865afa158015610e22573d6000803e3d6000fd5b505050506040513d601f19601f82011682018060405250810190610e4691906118b9565b90508015610fad5773ffffffffffffffffffffffffffffffffffffffff8216600090815260056020526040902054610e7f9082906118d2565b73ffffffffffffffffffffffffffffffffffffffff8084166000818152600560205260409020929092557f0000000000000000000000000000000000000000000000000000000000000000169003610f0057600154610ef89073ffffffffffffffffffffffffffffffffffffffff84811691168361139f565b505050610fb1565b600183015473ffffffffffffffffffffffffffffffffffffffff90811690610f2b908416828461139f565b6040517f590a41f50000000000000000000000000000000000000000000000000000000081526004810183905273ffffffffffffffffffffffffffffffffffffffff82169063590a41f590602401600060405180830381600087803b158015610f9357600080fd5b505af1158015610fa7573d6000803e3d6000fd5b50505050505b5050505b80610fbb816118ea565b915050610d4c565b505050565b73ffffffffffffffffffffffffffffffffffffffff80821660009081526006602052604090208054909116610a555780547fffffffffffffffffffffffff00000000000000000000000000000000000000001673ffffffffffffffffffffffffffffffffffffffff83811691821783557f000000000000000000000000000000000000000000000000000000000000000016146111f457600154600080546040517f1526fe27000000000000000000000000000000000000000000000000000000008152919273ffffffffffffffffffffffffffffffffffffffff1691631526fe27916110bb9160040190815260200190565b60c060405180830381865afa1580156110d8573d6000803e3d6000fd5b505050506040513d601f19601f820116820180604052508101906110fc9190611937565b50506003546040517f2f1b327100000000000000000000000000000000000000000000000000000000815273ffffffffffffffffffffffffffffffffffffffff898116600483015280841660248301523060448301529296506000955091169250632f1b327191506064016020604051808303816000875af1158015611186573d6000803e3d6000fd5b505050506040513d601f19601f820116820180604052508101906111aa91906117f8565b6001840180547fffffffffffffffffffffffff00000000000000000000000000000000000000001673ffffffffffffffffffffffffffffffffffffffff9290921691909117905550505b600780546001810182556000919091527fa66cc928b5edb82af9bd49922954155ab7b0942694bea4ce44661d9a8736c68801805473ffffffffffffffffffffffffffffffffffffffff84167fffffffffffffffffffffffff00000000000000000000000000000000000000009091161790555050565b60005b6008811015610c00576002546040517f54c49fe90000000000000000000000000000000000000000000000000000000081526004810183905260009173ffffffffffffffffffffffffffffffffffffffff16906354c49fe990602401602060405180830381865afa1580156112e6573d6000803e3d6000fd5b505050506040513d601f19601f8201168201806040525081019061130a91906117f8565b905073ffffffffffffffffffffffffffffffffffffffff811661132b575050565b60045474010000000000000000000000000000000000000000900460ff1661138d57600480547fffffffffffffffffffffff00ffffffffffffffffffffffffffffffffffffffff16740100000000000000000000000000000000000000001790555b61139681610fc8565b5060010161126d565b6040805173ffffffffffffffffffffffffffffffffffffffff848116602483015260448083018590528351808403909101815260649092018352602080830180517bffffffffffffffffffffffffffffffffffffffffffffffffffffffff167fa9059cbb0000000000000000000000000000000000000000000000000000000017905283518085019094528084527f5361666545524332303a206c6f772d6c6576656c2063616c6c206661696c656490840152610fc39286929160009161146a918516908490611519565b805190915015610fc3578080602001905181019061148891906119b9565b610fc3576040517f08c379a000000000000000000000000000000000000000000000000000000000815260206004820152602a60248201527f5361666545524332303a204552433230206f7065726174696f6e20646964206e60448201527f6f7420737563636565640000000000000000000000000000000000000000000060648201526084015b60405180910390fd5b60606115288484600085611532565b90505b9392505050565b6060824710156115c4576040517f08c379a000000000000000000000000000000000000000000000000000000000815260206004820152602660248201527f416464726573733a20696e73756666696369656e742062616c616e636520666f60448201527f722063616c6c00000000000000000000000000000000000000000000000000006064820152608401611510565b73ffffffffffffffffffffffffffffffffffffffff85163b611642576040517f08c379a000000000000000000000000000000000000000000000000000000000815260206004820152601d60248201527f416464726573733a2063616c6c20746f206e6f6e2d636f6e74726163740000006044820152606401611510565b6000808673ffffffffffffffffffffffffffffffffffffffff16858760405161166b9190611a04565b60006040518083038185875af1925050503d80600081146116a8576040519150601f19603f3d011682016040523d82523d6000602084013e6116ad565b606091505b50915091506116bd8282866116c8565b979650505050505050565b606083156116d757508161152b565b8251156116e75782518084602001fd5b816040517f08c379a00000000000000000000000000000000000000000000000000000000081526004016115109190611a20565b5080546000825590600052602060002090810190610c0091905b808211156117495760008155600101611735565b5090565b73ffffffffffffffffffffffffffffffffffffffff81168114610c0057600080fd5b60006020828403121561178157600080fd5b813561152b8161174d565b60006020828403121561179e57600080fd5b5035919050565b600080600080608085870312156117bb57600080fd5b8435935060208501356117cd8161174d565b925060408501356117dd8161174d565b915060608501356117ed8161174d565b939692955090935050565b60006020828403121561180a57600080fd5b815161152b8161174d565b7f4e487b7100000000000000000000000000000000000000000000000000000000600052603260045260246000fd5b7f4e487b7100000000000000000000000000000000000000000000000000000000600052601160045260246000fd5b60008282101561188557611885611844565b500390565b7f4e487b7100000000000000000000000000000000000000000000000000000000600052603160045260246000fd5b6000602082840312156118cb57600080fd5b5051919050565b600082198211156118e5576118e5611844565b500190565b60007fffffffffffffffffffffffffffffffffffffffffffffffffffffffffffffffff820361191b5761191b611844565b5060010190565b8051801515811461193257600080fd5b919050565b60008060008060008060c0878903121561195057600080fd5b865161195b8161174d565b602088015190965061196c8161174d565b604088015190955061197d8161174d565b606088015190945061198e8161174d565b608088015190935061199f8161174d565b91506119ad60a08801611922565b90509295509295509295565b6000602082840312156119cb57600080fd5b61152b82611922565b60005b838110156119ef5781810151838201526020016119d7565b838111156119fe576000848401525b50505050565b60008251611a168184602087016119d4565b9190910192915050565b6020815260008251806020840152611a3f8160408501602087016119d4565b601f017fffffffffffffffffffffffffffffffffffffffffffffffffffffffffffffffe016919091016040019291505056fea26469706673582212206136c0c2e8bc97c61a5e20135bcb9fd5dcfae588a6f0aae20cf5b2e1a4085f0d64736f6c634300080f0033",
  "devdoc": {
    "kind": "dev",
    "methods": {
      "clearExtraReward(uint256)": {
        "params": {
          "index": "index of the extra reward to clear"
        }
      },
      "clearExtraRewards()": {
        "details": "Only Prime multising has the ability to do this if you want to remove only one token, use `clearExtraReward`"
      },
      "setExtraReward(address)": {
        "details": "Used for any new incentive that is not directly on balancer gauges",
        "params": {
          "_token": "The reward token address"
        }
      },
      "setRewardHook(address)": {
        "params": {
          "_hook": "The address of the reward hook"
        }
      }
    },
    "title": "ExtraRewardStash",
    "version": 1
  },
  "userdoc": {
    "kind": "user",
    "methods": {
      "claimRewards()": {
        "notice": "Claims registered reward tokens"
      },
      "clearExtraReward(uint256)": {
        "notice": "Clears extra reward by index"
      },
      "clearExtraRewards()": {
        "notice": "Clears extra rewards"
      },
      "processStash()": {
        "notice": "Sends all of the extra rewards to the reward contracts"
      },
      "setExtraReward(address)": {
        "notice": "Registers an extra reward token to be handled"
      },
      "setRewardHook(address)": {
        "notice": "Sets the reward hook address"
      },
      "tokenCount()": {
        "notice": "Returns the length of the tokenList"
      }
    },
    "version": 1
  },
  "storageLayout": {
    "storage": [
      {
        "astId": 5778,
        "contract": "contracts/ExtraRewardStash.sol:ExtraRewardStash",
        "label": "pid",
        "offset": 0,
        "slot": "0",
        "type": "t_uint256"
      },
      {
        "astId": 5780,
        "contract": "contracts/ExtraRewardStash.sol:ExtraRewardStash",
        "label": "operator",
        "offset": 0,
        "slot": "1",
        "type": "t_address"
      },
      {
        "astId": 5782,
        "contract": "contracts/ExtraRewardStash.sol:ExtraRewardStash",
        "label": "gauge",
        "offset": 0,
        "slot": "2",
        "type": "t_address"
      },
      {
        "astId": 5784,
        "contract": "contracts/ExtraRewardStash.sol:ExtraRewardStash",
        "label": "rewardFactory",
        "offset": 0,
        "slot": "3",
        "type": "t_address"
      },
      {
        "astId": 5786,
        "contract": "contracts/ExtraRewardStash.sol:ExtraRewardStash",
        "label": "rewardHook",
        "offset": 0,
        "slot": "4",
        "type": "t_address"
      },
      {
        "astId": 5788,
        "contract": "contracts/ExtraRewardStash.sol:ExtraRewardStash",
        "label": "hasBalRewards",
        "offset": 20,
        "slot": "4",
        "type": "t_bool"
      },
      {
        "astId": 5792,
        "contract": "contracts/ExtraRewardStash.sol:ExtraRewardStash",
        "label": "historicalRewards",
        "offset": 0,
        "slot": "5",
        "type": "t_mapping(t_address,t_uint256)"
      },
      {
        "astId": 5802,
        "contract": "contracts/ExtraRewardStash.sol:ExtraRewardStash",
        "label": "tokenInfo",
        "offset": 0,
        "slot": "6",
        "type": "t_mapping(t_address,t_struct(TokenInfo)5797_storage)"
      },
      {
        "astId": 5805,
        "contract": "contracts/ExtraRewardStash.sol:ExtraRewardStash",
        "label": "tokenList",
        "offset": 0,
        "slot": "7",
        "type": "t_array(t_address)dyn_storage"
      }
    ],
    "types": {
      "t_address": {
        "encoding": "inplace",
        "label": "address",
        "numberOfBytes": "20"
      },
      "t_array(t_address)dyn_storage": {
        "base": "t_address",
        "encoding": "dynamic_array",
        "label": "address[]",
        "numberOfBytes": "32"
      },
      "t_bool": {
        "encoding": "inplace",
        "label": "bool",
        "numberOfBytes": "1"
      },
      "t_mapping(t_address,t_struct(TokenInfo)5797_storage)": {
        "encoding": "mapping",
        "key": "t_address",
        "label": "mapping(address => struct ExtraRewardStash.TokenInfo)",
        "numberOfBytes": "32",
        "value": "t_struct(TokenInfo)5797_storage"
      },
      "t_mapping(t_address,t_uint256)": {
        "encoding": "mapping",
        "key": "t_address",
        "label": "mapping(address => uint256)",
        "numberOfBytes": "32",
        "value": "t_uint256"
      },
      "t_struct(TokenInfo)5797_storage": {
        "encoding": "inplace",
        "label": "struct ExtraRewardStash.TokenInfo",
        "members": [
          {
            "astId": 5794,
            "contract": "contracts/ExtraRewardStash.sol:ExtraRewardStash",
            "label": "token",
            "offset": 0,
            "slot": "0",
            "type": "t_address"
          },
          {
            "astId": 5796,
            "contract": "contracts/ExtraRewardStash.sol:ExtraRewardStash",
            "label": "rewardAddress",
            "offset": 0,
            "slot": "1",
            "type": "t_address"
          }
        ],
        "numberOfBytes": "64"
      },
      "t_uint256": {
        "encoding": "inplace",
        "label": "uint256",
        "numberOfBytes": "32"
      }
    }
  }
}