{
  "address": "0xc1e1b5AfC42f968e30301d2f917b977D86D1Ce1e",
  "abi": [
    {
      "inputs": [
        {
          "internalType": "address",
          "name": "_bal",
          "type": "address"
        }
      ],
      "stateMutability": "nonpayable",
      "type": "constructor"
    },
    {
      "inputs": [],
      "name": "AlreadyInitialized",
      "type": "error"
    },
    {
      "inputs": [],
      "name": "Unauthorized",
      "type": "error"
    },
    {
      "anonymous": false,
      "inputs": [
        {
          "indexed": false,
          "internalType": "address",
          "name": "newRewardHook",
          "type": "address"
        }
      ],
      "name": "RewardHookSet",
      "type": "event"
    },
    {
      "inputs": [],
      "name": "bal",
      "outputs": [
        {
          "internalType": "address",
          "name": "",
          "type": "address"
        }
      ],
      "stateMutability": "view",
      "type": "function"
    },
    {
      "inputs": [],
      "name": "claimRewards",
      "outputs": [],
      "stateMutability": "nonpayable",
      "type": "function"
    },
    {
      "inputs": [],
      "name": "gauge",
      "outputs": [
        {
          "internalType": "address",
          "name": "",
          "type": "address"
        }
      ],
      "stateMutability": "view",
      "type": "function"
    },
    {
      "inputs": [],
      "name": "hasBalRewards",
      "outputs": [
        {
          "internalType": "bool",
          "name": "",
          "type": "bool"
        }
      ],
      "stateMutability": "view",
      "type": "function"
    },
    {
      "inputs": [
        {
          "internalType": "address",
          "name": "",
          "type": "address"
        }
      ],
      "name": "historicalRewards",
      "outputs": [
        {
          "internalType": "uint256",
          "name": "",
          "type": "uint256"
        }
      ],
      "stateMutability": "view",
      "type": "function"
    },
    {
      "inputs": [
        {
          "internalType": "uint256",
          "name": "_pid",
          "type": "uint256"
        },
        {
          "internalType": "address",
          "name": "_operator",
          "type": "address"
        },
        {
          "internalType": "address",
          "name": "_gauge",
          "type": "address"
        },
        {
          "internalType": "address",
          "name": "_rFactory",
          "type": "address"
        }
      ],
      "name": "initialize",
      "outputs": [],
      "stateMutability": "nonpayable",
      "type": "function"
    },
    {
      "inputs": [],
      "name": "operator",
      "outputs": [
        {
          "internalType": "address",
          "name": "",
          "type": "address"
        }
      ],
      "stateMutability": "view",
      "type": "function"
    },
    {
      "inputs": [],
      "name": "pid",
      "outputs": [
        {
          "internalType": "uint256",
          "name": "",
          "type": "uint256"
        }
      ],
      "stateMutability": "view",
      "type": "function"
    },
    {
      "inputs": [],
      "name": "processStash",
      "outputs": [],
      "stateMutability": "nonpayable",
      "type": "function"
    },
    {
      "inputs": [],
      "name": "rewardFactory",
      "outputs": [
        {
          "internalType": "address",
          "name": "",
          "type": "address"
        }
      ],
      "stateMutability": "view",
      "type": "function"
    },
    {
      "inputs": [],
      "name": "rewardHook",
      "outputs": [
        {
          "internalType": "address",
          "name": "",
          "type": "address"
        }
      ],
      "stateMutability": "view",
      "type": "function"
    },
    {
      "inputs": [
        {
          "internalType": "address",
          "name": "_token",
          "type": "address"
        }
      ],
      "name": "setExtraReward",
      "outputs": [],
      "stateMutability": "nonpayable",
      "type": "function"
    },
    {
      "inputs": [
        {
          "internalType": "address",
          "name": "_hook",
          "type": "address"
        }
      ],
      "name": "setRewardHook",
      "outputs": [],
      "stateMutability": "nonpayable",
      "type": "function"
    },
    {
      "inputs": [],
      "name": "tokenCount",
      "outputs": [
        {
          "internalType": "uint256",
          "name": "",
          "type": "uint256"
        }
      ],
      "stateMutability": "view",
      "type": "function"
    },
    {
      "inputs": [
        {
          "internalType": "address",
          "name": "",
          "type": "address"
        }
      ],
      "name": "tokenInfo",
      "outputs": [
        {
          "internalType": "address",
          "name": "token",
          "type": "address"
        },
        {
          "internalType": "address",
          "name": "rewardAddress",
          "type": "address"
        }
      ],
      "stateMutability": "view",
      "type": "function"
    },
    {
      "inputs": [
        {
          "internalType": "uint256",
          "name": "",
          "type": "uint256"
        }
      ],
      "name": "tokenList",
      "outputs": [
        {
          "internalType": "address",
          "name": "",
          "type": "address"
        }
      ],
      "stateMutability": "view",
      "type": "function"
    }
  ],
  "transactionHash": "0x408efacc4745b5398e5415a62e2d95c1c3e6521e07ed11da75b6be4e30af90c1",
  "args": [
    "0xfa8449189744799ad2ace7e0ebac8bb7575eff47"
  ],
  "solcInputHash": "82c5721fa3575cbe537c986d26759d4a",
  "bytecode": "0x60a060405234801561001057600080fd5b506040516112f73803806112f783398101604081905261002f91610040565b6001600160a01b0316608052610070565b60006020828403121561005257600080fd5b81516001600160a01b038116811461006957600080fd5b9392505050565b60805161125e61009960003960008181610184015281816109d40152610c71015261125e6000f3fe608060405234801561001057600080fd5b50600436106101005760003560e01c80639ead722211610097578063cb00aa7311610066578063cb00aa7314610246578063e0a5095114610266578063f10684541461029b578063f5dab711146102a457600080fd5b80639ead7222146101f95780639f181b5e1461020c578063a6f19c841461021e578063ca8b01761461023e57600080fd5b80633d79d1c8116100d35780633d79d1c81461017f57806344214ecf146101a6578063570ca735146101c6578063754d1d54146101e657600080fd5b80630d5225de146101055780632223686f1461011a578063245e4bf01461012d578063372500ab14610177575b600080fd5b610118610113366004611002565b610312565b005b610118610128366004611002565b610482565b60035461014d9073ffffffffffffffffffffffffffffffffffffffff1681565b60405173ffffffffffffffffffffffffffffffffffffffff90911681526020015b60405180910390f35b610118610585565b61014d7f000000000000000000000000000000000000000000000000000000000000000081565b60045461014d9073ffffffffffffffffffffffffffffffffffffffff1681565b60015461014d9073ffffffffffffffffffffffffffffffffffffffff1681565b6101186101f4366004611026565b61072d565b61014d610207366004611079565b6107e7565b6007545b60405190815260200161016e565b60025461014d9073ffffffffffffffffffffffffffffffffffffffff1681565b61011861081e565b610210610254366004611002565b60056020526000908152604090205481565b60045461028b9074010000000000000000000000000000000000000000900460ff1681565b604051901515815260200161016e565b61021060005481565b6102e56102b2366004611002565b6006602052600090815260409020805460019091015473ffffffffffffffffffffffffffffffffffffffff918216911682565b6040805173ffffffffffffffffffffffffffffffffffffffff93841681529290911660208301520161016e565b600160009054906101000a900473ffffffffffffffffffffffffffffffffffffffff1673ffffffffffffffffffffffffffffffffffffffff16638da5cb5b6040518163ffffffff1660e01b81526004016020604051808303816000875af1158015610381573d6000803e3d6000fd5b505050506040513d601f19601f820116820180604052508101906103a59190611092565b73ffffffffffffffffffffffffffffffffffffffff163373ffffffffffffffffffffffffffffffffffffffff1614610409576040517f82b4290000000000000000000000000000000000000000000000000000000000815260040160405180910390fd5b600480547fffffffffffffffffffffffff00000000000000000000000000000000000000001673ffffffffffffffffffffffffffffffffffffffff83169081179091556040519081527fd6665c7fd9e04cb4f58d8bd09095b335663c64fe4e75463435fe373a2da6337c9060200160405180910390a150565b600160009054906101000a900473ffffffffffffffffffffffffffffffffffffffff1673ffffffffffffffffffffffffffffffffffffffff16638da5cb5b6040518163ffffffff1660e01b81526004016020604051808303816000875af11580156104f1573d6000803e3d6000fd5b505050506040513d601f19601f820116820180604052508101906105159190611092565b73ffffffffffffffffffffffffffffffffffffffff163373ffffffffffffffffffffffffffffffffffffffff1614610579576040517f82b4290000000000000000000000000000000000000000000000000000000000815260040160405180910390fd5b61058281610bff565b50565b60015473ffffffffffffffffffffffffffffffffffffffff1633146105d6576040517f82b4290000000000000000000000000000000000000000000000000000000000815260040160405180910390fd5b6105de610ea1565b60045474010000000000000000000000000000000000000000900460ff1615610695576001546000546002546040517f6c7b69cb000000000000000000000000000000000000000000000000000000008152600481019290925273ffffffffffffffffffffffffffffffffffffffff908116602483015290911690636c7b69cb90604401600060405180830381600087803b15801561067c57600080fd5b505af1158015610690573d6000803e3d6000fd5b505050505b60045473ffffffffffffffffffffffffffffffffffffffff161561072b5760048054604080517f2663fcfc000000000000000000000000000000000000000000000000000000008152905173ffffffffffffffffffffffffffffffffffffffff90921692632663fcfc92828201926000929082900301818387803b15801561071c57600080fd5b505af192505050801561058257505b565b60025473ffffffffffffffffffffffffffffffffffffffff161561077d576040517f0dc149f000000000000000000000000000000000000000000000000000000000815260040160405180910390fd5b600093909355600180547fffffffffffffffffffffffff000000000000000000000000000000000000000090811673ffffffffffffffffffffffffffffffffffffffff94851617909155600280548216928416929092179091556003805490911691909216179055565b600781815481106107f757600080fd5b60009182526020909120015473ffffffffffffffffffffffffffffffffffffffff16905081565b60015473ffffffffffffffffffffffffffffffffffffffff16331461086f576040517f82b4290000000000000000000000000000000000000000000000000000000000815260040160405180910390fd5b60075460005b81811015610bfb5760006006600060078481548110610896576108966110af565b600091825260208083209091015473ffffffffffffffffffffffffffffffffffffffff90811684529083019390935260409091019020805490925016806108de575050610be9565b6040517f70a0823100000000000000000000000000000000000000000000000000000000815230600482015260009073ffffffffffffffffffffffffffffffffffffffff8316906370a0823190602401602060405180830381865afa15801561094b573d6000803e3d6000fd5b505050506040513d601f19601f8201168201806040525081019061096f91906110de565b90508015610be55773ffffffffffffffffffffffffffffffffffffffff82166000908152600560205260409020546109a8908290611126565b73ffffffffffffffffffffffffffffffffffffffff8084166000818152600560205260409020929092557f0000000000000000000000000000000000000000000000000000000000000000169003610aa0576001546040517fa9059cbb00000000000000000000000000000000000000000000000000000000815273ffffffffffffffffffffffffffffffffffffffff9182166004820152602481018390529083169063a9059cbb906044016020604051808303816000875af1158015610a73573d6000803e3d6000fd5b505050506040513d601f19601f82011682018060405250810190610a979190611153565b50505050610be9565b600183015473ffffffffffffffffffffffffffffffffffffffff1680610ac95750505050610be9565b6040517fa9059cbb00000000000000000000000000000000000000000000000000000000815273ffffffffffffffffffffffffffffffffffffffff82811660048301526024820184905284169063a9059cbb906044016020604051808303816000875af1158015610b3e573d6000803e3d6000fd5b505050506040513d601f19601f82011682018060405250810190610b629190611153565b506040517f590a41f50000000000000000000000000000000000000000000000000000000081526004810183905273ffffffffffffffffffffffffffffffffffffffff82169063590a41f590602401600060405180830381600087803b158015610bcb57600080fd5b505af1158015610bdf573d6000803e3d6000fd5b50505050505b5050505b80610bf38161116e565b915050610875565b5050565b73ffffffffffffffffffffffffffffffffffffffff80821660009081526006602052604090208054909116610bfb5780547fffffffffffffffffffffffff00000000000000000000000000000000000000001673ffffffffffffffffffffffffffffffffffffffff83811691821783557f00000000000000000000000000000000000000000000000000000000000000001614610e2b57600154600080546040517f1526fe27000000000000000000000000000000000000000000000000000000008152919273ffffffffffffffffffffffffffffffffffffffff1691631526fe2791610cf29160040190815260200190565b60c060405180830381865afa158015610d0f573d6000803e3d6000fd5b505050506040513d601f19601f82011682018060405250810190610d3391906111a6565b50506003546040517f2f1b327100000000000000000000000000000000000000000000000000000000815273ffffffffffffffffffffffffffffffffffffffff898116600483015280841660248301523060448301529296506000955091169250632f1b327191506064016020604051808303816000875af1158015610dbd573d6000803e3d6000fd5b505050506040513d601f19601f82011682018060405250810190610de19190611092565b6001840180547fffffffffffffffffffffffff00000000000000000000000000000000000000001673ffffffffffffffffffffffffffffffffffffffff9290921691909117905550505b600780546001810182556000919091527fa66cc928b5edb82af9bd49922954155ab7b0942694bea4ce44661d9a8736c68801805473ffffffffffffffffffffffffffffffffffffffff84167fffffffffffffffffffffffff00000000000000000000000000000000000000009091161790555050565b60005b6008811015610582576002546040517f54c49fe90000000000000000000000000000000000000000000000000000000081526004810183905260009173ffffffffffffffffffffffffffffffffffffffff16906354c49fe990602401602060405180830381865afa158015610f1d573d6000803e3d6000fd5b505050506040513d601f19601f82011682018060405250810190610f419190611092565b905073ffffffffffffffffffffffffffffffffffffffff8116610f62575050565b60045474010000000000000000000000000000000000000000900460ff16610fc457600480547fffffffffffffffffffffff00ffffffffffffffffffffffffffffffffffffffff16740100000000000000000000000000000000000000001790555b610fcd81610bff565b5080610fd88161116e565b915050610ea4565b73ffffffffffffffffffffffffffffffffffffffff8116811461058257600080fd5b60006020828403121561101457600080fd5b813561101f81610fe0565b9392505050565b6000806000806080858703121561103c57600080fd5b84359350602085013561104e81610fe0565b9250604085013561105e81610fe0565b9150606085013561106e81610fe0565b939692955090935050565b60006020828403121561108b57600080fd5b5035919050565b6000602082840312156110a457600080fd5b815161101f81610fe0565b7f4e487b7100000000000000000000000000000000000000000000000000000000600052603260045260246000fd5b6000602082840312156110f057600080fd5b5051919050565b7f4e487b7100000000000000000000000000000000000000000000000000000000600052601160045260246000fd5b60008219821115611139576111396110f7565b500190565b8051801515811461114e57600080fd5b919050565b60006020828403121561116557600080fd5b61101f8261113e565b60007fffffffffffffffffffffffffffffffffffffffffffffffffffffffffffffffff820361119f5761119f6110f7565b5060010190565b60008060008060008060c087890312156111bf57600080fd5b86516111ca81610fe0565b60208801519096506111db81610fe0565b60408801519095506111ec81610fe0565b60608801519094506111fd81610fe0565b608088015190935061120e81610fe0565b915061121c60a0880161113e565b9050929550929550929556fea2646970667358221220cd6f7638b2dbdc12562310ae4833bfd43f72a8cde5d25bfe9779b792bc91cc6d64736f6c634300080e0033",
  "devdoc": {
    "kind": "dev",
    "methods": {
      "setExtraReward(address)": {
        "details": "Used for any new incentive that is not directly on curve gauges",
        "params": {
          "_token": "The reward token address"
        }
      },
      "setRewardHook(address)": {
        "params": {
          "_hook": "The address of the reward hook"
        }
      }
    },
    "title": "ExtraRewardStash",
    "version": 1
  },
  "userdoc": {
    "kind": "user",
    "methods": {
      "claimRewards()": {
        "notice": "Claims registered reward tokens"
      },
      "processStash()": {
        "notice": "Sends all of the extra rewards to the reward contracts"
      },
      "setExtraReward(address)": {
        "notice": "Registers an extra reward token to be handled"
      },
      "setRewardHook(address)": {
        "notice": "Sets the reward hook address"
      },
      "tokenCount()": {
        "notice": "Returns the length of the tokenList"
      }
    },
    "version": 1
  },
  "storageLayout": {
    "storage": [
      {
        "astId": 5312,
        "contract": "contracts/ExtraRewardStash.sol:ExtraRewardStash",
        "label": "pid",
        "offset": 0,
        "slot": "0",
        "type": "t_uint256"
      },
      {
        "astId": 5314,
        "contract": "contracts/ExtraRewardStash.sol:ExtraRewardStash",
        "label": "operator",
        "offset": 0,
        "slot": "1",
        "type": "t_address"
      },
      {
        "astId": 5316,
        "contract": "contracts/ExtraRewardStash.sol:ExtraRewardStash",
        "label": "gauge",
        "offset": 0,
        "slot": "2",
        "type": "t_address"
      },
      {
        "astId": 5318,
        "contract": "contracts/ExtraRewardStash.sol:ExtraRewardStash",
        "label": "rewardFactory",
        "offset": 0,
        "slot": "3",
        "type": "t_address"
      },
      {
        "astId": 5320,
        "contract": "contracts/ExtraRewardStash.sol:ExtraRewardStash",
        "label": "rewardHook",
        "offset": 0,
        "slot": "4",
        "type": "t_address"
      },
      {
        "astId": 5322,
        "contract": "contracts/ExtraRewardStash.sol:ExtraRewardStash",
        "label": "hasBalRewards",
        "offset": 20,
        "slot": "4",
        "type": "t_bool"
      },
      {
        "astId": 5326,
        "contract": "contracts/ExtraRewardStash.sol:ExtraRewardStash",
        "label": "historicalRewards",
        "offset": 0,
        "slot": "5",
        "type": "t_mapping(t_address,t_uint256)"
      },
      {
        "astId": 5336,
        "contract": "contracts/ExtraRewardStash.sol:ExtraRewardStash",
        "label": "tokenInfo",
        "offset": 0,
        "slot": "6",
        "type": "t_mapping(t_address,t_struct(TokenInfo)5331_storage)"
      },
      {
        "astId": 5339,
        "contract": "contracts/ExtraRewardStash.sol:ExtraRewardStash",
        "label": "tokenList",
        "offset": 0,
        "slot": "7",
        "type": "t_array(t_address)dyn_storage"
      }
    ],
    "types": {
      "t_address": {
        "encoding": "inplace",
        "label": "address",
        "numberOfBytes": "20"
      },
      "t_array(t_address)dyn_storage": {
        "base": "t_address",
        "encoding": "dynamic_array",
        "label": "address[]",
        "numberOfBytes": "32"
      },
      "t_bool": {
        "encoding": "inplace",
        "label": "bool",
        "numberOfBytes": "1"
      },
      "t_mapping(t_address,t_struct(TokenInfo)5331_storage)": {
        "encoding": "mapping",
        "key": "t_address",
        "label": "mapping(address => struct ExtraRewardStash.TokenInfo)",
        "numberOfBytes": "32",
        "value": "t_struct(TokenInfo)5331_storage"
      },
      "t_mapping(t_address,t_uint256)": {
        "encoding": "mapping",
        "key": "t_address",
        "label": "mapping(address => uint256)",
        "numberOfBytes": "32",
        "value": "t_uint256"
      },
      "t_struct(TokenInfo)5331_storage": {
        "encoding": "inplace",
        "label": "struct ExtraRewardStash.TokenInfo",
        "members": [
          {
            "astId": 5328,
            "contract": "contracts/ExtraRewardStash.sol:ExtraRewardStash",
            "label": "token",
            "offset": 0,
            "slot": "0",
            "type": "t_address"
          },
          {
            "astId": 5330,
            "contract": "contracts/ExtraRewardStash.sol:ExtraRewardStash",
            "label": "rewardAddress",
            "offset": 0,
            "slot": "1",
            "type": "t_address"
          }
        ],
        "numberOfBytes": "64"
      },
      "t_uint256": {
        "encoding": "inplace",
        "label": "uint256",
        "numberOfBytes": "32"
      }
    }
  }
}