{
  "address": "0xb7765151f0b87d2AD52cdddC55fc20515e664047",
  "abi": [
    {
      "inputs": [
        {
          "internalType": "address",
          "name": "target",
          "type": "address"
        }
      ],
      "name": "clone",
      "outputs": [
        {
          "internalType": "address",
          "name": "result",
          "type": "address"
        }
      ],
      "stateMutability": "nonpayable",
      "type": "function"
    }
  ],
  "transactionHash": "0xf7c57a08ac6db793ae962d098b9bea247604d3b3e1a126f82e8341b34a588dbd",
  "args": [],
  "solcInputHash": "7e57f81a6be83430d315781a62c52ee2",
  "bytecode": "0x608060405234801561001057600080fd5b50610148806100206000396000f3fe608060405234801561001057600080fd5b506004361061002b5760003560e01c80638124b78e14610030575b600080fd5b61004361003e3660046100d5565b61006c565b60405173ffffffffffffffffffffffffffffffffffffffff909116815260200160405180910390f35b6000808260601b90506040517f3d602d80600a3d3981f3363d3d373d3d3d363d7300000000000000000000000081528160148201527f5af43d82803e903d91602b57fd5bf3000000000000000000000000000000000060288201526037816000f0949350505050565b6000602082840312156100e757600080fd5b813573ffffffffffffffffffffffffffffffffffffffff8116811461010b57600080fd5b939250505056fea2646970667358221220860c58f68894a661668ee4e2cf1de914dfb2d1e0da3a9987b80400ccc2a1229e64736f6c634300080f0033",
  "devdoc": {
    "kind": "dev",
    "methods": {
      "clone(address)": {
        "params": {
          "target": "contract address to be cloned"
        },
        "returns": {
          "result": "address of the new contract"
        }
      }
    },
    "title": "ProxyFactory contract",
    "version": 1
  },
  "userdoc": {
    "kind": "user",
    "methods": {
      "clone(address)": {
        "notice": "Creates a new contract based on the target contract address provided"
      }
    },
    "version": 1
  },
  "storageLayout": {
    "storage": [],
    "types": null
  }
}