{
  "address": "0x57aABc64D9de52be80521Ece3268AEA6f07aca8A",
  "abi": [
    {
      "inputs": [
        {
          "internalType": "address",
          "name": "target",
          "type": "address"
        }
      ],
      "name": "clone",
      "outputs": [
        {
          "internalType": "address",
          "name": "result",
          "type": "address"
        }
      ],
      "stateMutability": "nonpayable",
      "type": "function"
    }
  ],
  "transactionHash": "0x9b7eeea8e74c39e76010a3a5e18795a04d78a3b86109091e4f06a3b59bd0353d",
  "args": [],
  "solcInputHash": "ebe1c95c0cd8bda8bee95bcd82211d40",
  "bytecode": "0x608060405234801561001057600080fd5b50610148806100206000396000f3fe608060405234801561001057600080fd5b506004361061002b5760003560e01c80638124b78e14610030575b600080fd5b61004361003e3660046100d5565b61006c565b60405173ffffffffffffffffffffffffffffffffffffffff909116815260200160405180910390f35b6000808260601b90506040517f3d602d80600a3d3981f3363d3d373d3d3d363d7300000000000000000000000081528160148201527f5af43d82803e903d91602b57fd5bf3000000000000000000000000000000000060288201526037816000f0949350505050565b6000602082840312156100e757600080fd5b813573ffffffffffffffffffffffffffffffffffffffff8116811461010b57600080fd5b939250505056fea26469706673582212201bbbb2a4ffd88936daf55ddf6cde4057f6f8d558804ba152146bf394d76f4c8f64736f6c634300080e0033",
  "devdoc": {
    "kind": "dev",
    "methods": {
      "clone(address)": {
        "params": {
          "target": "contract address to be cloned"
        },
        "returns": {
          "result": "address of the new contract"
        }
      }
    },
    "title": "ProxyFactory contract",
    "version": 1
  },
  "userdoc": {
    "kind": "user",
    "methods": {
      "clone(address)": {
        "notice": "Creates a new contract based on the target contract address provided"
      }
    },
    "version": 1
  },
  "storageLayout": {
    "storage": [],
    "types": null
  }
}