{
  "address": "0x6B8D579B0364955d047A19a2B4CC62Ca765D66c2",
  "abi": [
    {
      "inputs": [
        {
          "internalType": "address",
          "name": "_operator",
          "type": "address"
        },
        {
          "internalType": "address",
          "name": "_bal",
          "type": "address"
        }
      ],
      "stateMutability": "nonpayable",
      "type": "constructor"
    },
    {
      "inputs": [],
      "name": "Unauthorized",
      "type": "error"
    },
    {
      "anonymous": false,
      "inputs": [
        {
          "indexed": false,
          "internalType": "address",
          "name": "poolAddress",
          "type": "address"
        }
      ],
      "name": "BaseRewardPoolCreated",
      "type": "event"
    },
    {
      "anonymous": false,
      "inputs": [
        {
          "indexed": false,
          "internalType": "address",
          "name": "reward",
          "type": "address"
        },
        {
          "indexed": false,
          "internalType": "uint256",
          "name": "pid",
          "type": "uint256"
        }
      ],
      "name": "ExtraRewardAdded",
      "type": "event"
    },
    {
      "anonymous": false,
      "inputs": [
        {
          "indexed": false,
          "internalType": "address",
          "name": "reward",
          "type": "address"
        },
        {
          "indexed": false,
          "internalType": "uint256",
          "name": "pid",
          "type": "uint256"
        }
      ],
      "name": "ExtraRewardRemoved",
      "type": "event"
    },
    {
      "anonymous": false,
      "inputs": [
        {
          "indexed": false,
          "internalType": "address",
          "name": "stash",
          "type": "address"
        }
      ],
      "name": "StashAccessGranted",
      "type": "event"
    },
    {
      "anonymous": false,
      "inputs": [
        {
          "indexed": false,
          "internalType": "address",
          "name": "poolAddress",
          "type": "address"
        }
      ],
      "name": "VirtualBalanceRewardPoolCreated",
      "type": "event"
    },
    {
      "inputs": [
        {
          "internalType": "address",
          "name": "_reward",
          "type": "address"
        }
      ],
      "name": "activeRewardCount",
      "outputs": [
        {
          "internalType": "uint256",
          "name": "",
          "type": "uint256"
        }
      ],
      "stateMutability": "view",
      "type": "function"
    },
    {
      "inputs": [
        {
          "internalType": "address",
          "name": "_reward",
          "type": "address"
        },
        {
          "internalType": "uint256",
          "name": "_pid",
          "type": "uint256"
        }
      ],
      "name": "addActiveReward",
      "outputs": [
        {
          "internalType": "bool",
          "name": "",
          "type": "bool"
        }
      ],
      "stateMutability": "nonpayable",
      "type": "function"
    },
    {
      "inputs": [],
      "name": "bal",
      "outputs": [
        {
          "internalType": "address",
          "name": "",
          "type": "address"
        }
      ],
      "stateMutability": "view",
      "type": "function"
    },
    {
      "inputs": [
        {
          "internalType": "uint256",
          "name": "_pid",
          "type": "uint256"
        },
        {
          "internalType": "address",
          "name": "_depositToken",
          "type": "address"
        }
      ],
      "name": "createBalRewards",
      "outputs": [
        {
          "internalType": "address",
          "name": "",
          "type": "address"
        }
      ],
      "stateMutability": "nonpayable",
      "type": "function"
    },
    {
      "inputs": [
        {
          "internalType": "address",
          "name": "_token",
          "type": "address"
        },
        {
          "internalType": "address",
          "name": "_mainRewards",
          "type": "address"
        },
        {
          "internalType": "address",
          "name": "_rewardPoolOwner",
          "type": "address"
        }
      ],
      "name": "createTokenRewards",
      "outputs": [
        {
          "internalType": "address",
          "name": "",
          "type": "address"
        }
      ],
      "stateMutability": "nonpayable",
      "type": "function"
    },
    {
      "inputs": [
        {
          "internalType": "address",
          "name": "_stash",
          "type": "address"
        }
      ],
      "name": "grantRewardStashAccess",
      "outputs": [],
      "stateMutability": "nonpayable",
      "type": "function"
    },
    {
      "inputs": [],
      "name": "operator",
      "outputs": [
        {
          "internalType": "address",
          "name": "",
          "type": "address"
        }
      ],
      "stateMutability": "view",
      "type": "function"
    },
    {
      "inputs": [
        {
          "internalType": "address",
          "name": "_reward",
          "type": "address"
        },
        {
          "internalType": "uint256",
          "name": "_pid",
          "type": "uint256"
        }
      ],
      "name": "removeActiveReward",
      "outputs": [
        {
          "internalType": "bool",
          "name": "",
          "type": "bool"
        }
      ],
      "stateMutability": "nonpayable",
      "type": "function"
    },
    {
      "inputs": [
        {
          "internalType": "address",
          "name": "",
          "type": "address"
        },
        {
          "internalType": "uint256",
          "name": "",
          "type": "uint256"
        }
      ],
      "name": "rewardActiveList",
      "outputs": [
        {
          "internalType": "uint256",
          "name": "",
          "type": "uint256"
        }
      ],
      "stateMutability": "view",
      "type": "function"
    }
  ],
  "transactionHash": "0xf51732aa76bdab28e87239f4ed0e991d37326daed67fda11f1bf02de23daaede",
  "args": [
    "0xB6d123953E292f9f25abd795F5faE53fB4e1e5d2",
    "0xfa8449189744799ad2ace7e0ebac8bb7575eff47"
  ],
  "solcInputHash": "82c5721fa3575cbe537c986d26759d4a",
  "bytecode": "0x60c060405234801561001057600080fd5b50604051613a0c380380613a0c83398101604081905261002f91610062565b6001600160a01b0391821660a05216608052610095565b80516001600160a01b038116811461005d57600080fd5b919050565b6000806040838503121561007557600080fd5b61007e83610046565b915061008c60208401610046565b90509250929050565b60805160a0516139366100d66000396000818161016801528181610202015281816103500152610512015260008181610141015261025f01526139366000f3fe608060405234801561001057600080fd5b50600436106100a35760003560e01c8063570ca735116100765780638d9622d91161005b5780638d9622d91461019f578063b7f927b1146101b2578063ef9126ad146101d557600080fd5b8063570ca735146101635780635e4e27db1461018a57600080fd5b80630d5843f7146100a857806315914c99146100f15780632f1b3271146101295780633d79d1c81461013c575b600080fd5b6100de6100b6366004610a60565b73ffffffffffffffffffffffffffffffffffffffff1660009081526001602052604090205490565b6040519081526020015b60405180910390f35b6101046100ff366004610a82565b6101e8565b60405173ffffffffffffffffffffffffffffffffffffffff90911681526020016100e8565b610104610137366004610aae565b610336565b6101047f000000000000000000000000000000000000000000000000000000000000000081565b6101047f000000000000000000000000000000000000000000000000000000000000000081565b61019d610198366004610a60565b6104fa565b005b6100de6101ad366004610af1565b6105ec565b6101c56101c0366004610af1565b61061d565b60405190151581526020016100e8565b6101c56101e3366004610af1565b6107a6565b60003373ffffffffffffffffffffffffffffffffffffffff7f00000000000000000000000000000000000000000000000000000000000000001614610259576040517f82b4290000000000000000000000000000000000000000000000000000000000815260040160405180910390fd5b600083837f0000000000000000000000000000000000000000000000000000000000000000333060405161028c90610a1d565b94855273ffffffffffffffffffffffffffffffffffffffff938416602086015291831660408501528216606084015216608082015260a001604051809103906000f0801580156102e0573d6000803e3d6000fd5b5060405173ffffffffffffffffffffffffffffffffffffffff821681529091507f5bd44d764a58e71a25d2b30b54bed1ee46db8a4e6cae6b612922e01753648cd89060200160405180910390a190505b92915050565b60003373ffffffffffffffffffffffffffffffffffffffff7f0000000000000000000000000000000000000000000000000000000000000000161480159061038e57503360009081526020819052604090205460ff16155b156103c5576040517f82b4290000000000000000000000000000000000000000000000000000000000815260040160405180910390fd5b60008385846040516103d690610a2a565b73ffffffffffffffffffffffffffffffffffffffff938416815291831660208301529091166040820152606001604051809103906000f08015801561041f573d6000803e3d6000fd5b5060405173ffffffffffffffffffffffffffffffffffffffff821681529091507f3bdb7bff5c5800be51c063c354e1ddc160e38051607f3971932c403173406c6a9060200160405180910390a16040517f5e43c47b00000000000000000000000000000000000000000000000000000000815273ffffffffffffffffffffffffffffffffffffffff8083166004830152829190861690635e43c47b90602401600060405180830381600087803b1580156104d857600080fd5b505af11580156104ec573d6000803e3d6000fd5b509298975050505050505050565b3373ffffffffffffffffffffffffffffffffffffffff7f00000000000000000000000000000000000000000000000000000000000000001614610569576040517f82b4290000000000000000000000000000000000000000000000000000000000815260040160405180910390fd5b73ffffffffffffffffffffffffffffffffffffffff81166000818152602081815260409182902080547fffffffffffffffffffffffffffffffffffffffffffffffffffffffffffffff0016600117905590519182527fcf1795ce10e0d72fcbcf5bbb54ccf220665e482448f7eb2d098c312508f20f1e910160405180910390a150565b6001602052816000526040600020818154811061060857600080fd5b90600052602060002001600091509150505481565b3360009081526020819052604081205460ff16610666576040517f82b4290000000000000000000000000000000000000000000000000000000000815260040160405180910390fd5b6000610673836001610b4a565b73ffffffffffffffffffffffffffffffffffffffff85166000908152600160209081526040808320805482518185028101850190935280835294955092939092918301828280156106e357602002820191906000526020600020905b8154815260200190600101908083116106cf575b5050505050905060005b815181101561072a578282828151811061070957610709610b62565b6020026020010151036107225760019350505050610330565b6001016106ed565b5073ffffffffffffffffffffffffffffffffffffffff8516600081815260016020818152604080842080549384018155845292819020909101859055815192835282018690527fccaa4228edc196fe326dc22a0e85f8229bb3ade47ee6aaa15ce84cd8f655103c910160405180910390a1506001949350505050565b3360009081526020819052604081205460ff166107ef576040517f82b4290000000000000000000000000000000000000000000000000000000000815260040160405180910390fd5b60006107fc836001610b4a565b73ffffffffffffffffffffffffffffffffffffffff851660009081526001602090815260408083208054825181850281018501909352808352949550929390929183018282801561086c57602002820191906000526020600020905b815481526020019060010190808311610858575b5050505050905060005b8151811015610a11578282828151811061089257610892610b62565b602002602001015103610a0957600182516108ad9190610b91565b81146109605773ffffffffffffffffffffffffffffffffffffffff86166000908152600160208190526040909120835190916108e891610b91565b815481106108f8576108f8610b62565b9060005260206000200154600160008873ffffffffffffffffffffffffffffffffffffffff1673ffffffffffffffffffffffffffffffffffffffff168152602001908152602001600020828154811061095357610953610b62565b6000918252602090912001555b73ffffffffffffffffffffffffffffffffffffffff8616600090815260016020526040902080548061099457610994610ba8565b600190038181906000526020600020016000905590557fbc9ef12cf81dc2bfe808c00e39a5cf69b38ff4e9e7f8bd964be6d463254a246686866040516109fc92919073ffffffffffffffffffffffffffffffffffffffff929092168252602082015260400190565b60405180910390a1610a11565b600101610876565b50600195945050505050565b611ced80610bd883390190565b61103c806128c583390190565b803573ffffffffffffffffffffffffffffffffffffffff81168114610a5b57600080fd5b919050565b600060208284031215610a7257600080fd5b610a7b82610a37565b9392505050565b60008060408385031215610a9557600080fd5b82359150610aa560208401610a37565b90509250929050565b600080600060608486031215610ac357600080fd5b610acc84610a37565b9250610ada60208501610a37565b9150610ae860408501610a37565b90509250925092565b60008060408385031215610b0457600080fd5b610b0d83610a37565b946020939093013593505050565b7f4e487b7100000000000000000000000000000000000000000000000000000000600052601160045260246000fd5b60008219821115610b5d57610b5d610b1b565b500190565b7f4e487b7100000000000000000000000000000000000000000000000000000000600052603260045260246000fd5b600082821015610ba357610ba3610b1b565b500390565b7f4e487b7100000000000000000000000000000000000000000000000000000000600052603160045260246000fdfe6101006040523480156200001257600080fd5b5060405162001ced38038062001ced83398101604081905262000035916200007b565b6000949094556001600160a01b0392831660a052908216608052811660c0521660e052620000e2565b80516001600160a01b03811681146200007657600080fd5b919050565b600080600080600060a086880312156200009457600080fd5b85519450620000a6602087016200005e565b9350620000b6604087016200005e565b9250620000c6606087016200005e565b9150620000d6608087016200005e565b90509295509295909350565b60805160a05160c05160e051611b926200015b600039600081816102900152610b4b01526000818161036901528181610a3b015261139b015260008181610408015281816107160152818161092101528181610fd601526111a90152600081816104de01528181610d9a01526114cb0152611b926000f3fe608060405234801561001057600080fd5b50600436106102405760003560e01c80637050ccd911610145578063c32e7202116100bd578063df136d651161008c578063f106845411610071578063f1068454146104bd578063f14faf6f146104c6578063f7c618c1146104d957600080fd5b8063df136d65146104ab578063ebe2b12b146104b457600080fd5b8063c32e72021461047f578063c8f33c9114610492578063cd3daf9d1461049b578063d55a23f4146104a357600080fd5b806380faa57d116101145780638dcb4061116100f95780638dcb40611461045b578063901a7d5314610463578063a694fc3a1461046c57600080fd5b806380faa57d146104335780638b8763471461043b57600080fd5b80637050ccd9146103ba57806370a08231146103cd57806372f702f3146104035780637b0a47ee1461042a57600080fd5b806338d07436116101d85780634cfe2f4a116101a7578063590a41f51161018c578063590a41f51461038b5780635e43c47b1461039e57806363d38c3b146103b157600080fd5b80634cfe2f4a1461035b578063570ca7351461036457600080fd5b806338d074361461031a5780633d18b9121461032d57806340c354461461033557806349f039a21461034857600080fd5b80631be05289116102145780631be05289146102df5780631c1c6fe5146102e9578063262d3d6d146102fe5780632ee409081461030757600080fd5b80628cc262146102455780630700037d1461026b5780630f4ef8a61461028b57806318160ddd146102d7575b600080fd5b61025861025336600461193c565b610500565b6040519081526020015b60405180910390f35b61025861027936600461193c565b600a6020526000908152604090205481565b6102b27f000000000000000000000000000000000000000000000000000000000000000081565b60405173ffffffffffffffffffffffffffffffffffffffff9091168152602001610262565b600854610258565b61025862093a8081565b6102fc6102f7366004611965565b610597565b005b61025860075481565b6102fc610315366004611982565b6105b4565b6102fc6103283660046119ac565b6107db565b6102fc6109db565b6102b26103433660046119dc565b6109e8565b6102fc610356366004611965565b610a1f565b61025861033e81565b6102b27f000000000000000000000000000000000000000000000000000000000000000081565b6102fc6103993660046119dc565b610a39565b6102fc6103ac36600461193c565b610b49565b61025860055481565b6102fc6103c83660046119f5565b610cb2565b6102586103db36600461193c565b73ffffffffffffffffffffffffffffffffffffffff166000908152600b602052604090205490565b6102b27f000000000000000000000000000000000000000000000000000000000000000081565b61025860025481565b610258610f92565b61025861044936600461193c565b60096020526000908152604090205481565b6102fc610fa5565b61025860065481565b6102fc61047a3660046119dc565b61105d565b6102fc61048d3660046119ac565b611250565b61025860035481565b610258611429565b600c54610258565b61025860045481565b61025860015481565b61025860005481565b6102fc6104d43660046119dc565b611490565b6102b27f000000000000000000000000000000000000000000000000000000000000000081565b73ffffffffffffffffffffffffffffffffffffffff81166000908152600a60209081526040808320546009909252822054670de0b6b3a764000090610543611429565b61054d9190611a50565b73ffffffffffffffffffffffffffffffffffffffff85166000908152600b602052604090205461057d9190611a67565b6105879190611aa4565b6105919190611adf565b92915050565b336000908152600b60205260409020546105b190826107db565b50565b816105bd611429565b6004556105c8610f92565b60035573ffffffffffffffffffffffffffffffffffffffff811615610629576105f081610500565b73ffffffffffffffffffffffffffffffffffffffff82166000908152600a60209081526040808320939093556004546009909152919020555b6001821015610664576040517f2c5211c600000000000000000000000000000000000000000000000000000000815260040160405180910390fd5b61066e8383611562565b8160085461067c9190611adf565b60085573ffffffffffffffffffffffffffffffffffffffff83166000908152600b60205260409020546106b0908390611adf565b73ffffffffffffffffffffffffffffffffffffffff8481166000908152600b6020526040908190209290925590517f23b872dd000000000000000000000000000000000000000000000000000000008152336004820152306024820152604481018490527f0000000000000000000000000000000000000000000000000000000000000000909116906323b872dd906064016020604051808303816000875af1158015610761573d6000803e3d6000fd5b505050506040513d601f19601f820116820180604052508101906107859190611af7565b508273ffffffffffffffffffffffffffffffffffffffff167f9e71bc8eea02a63969f509818f2dafb9254532904319f9dbda79b67bd34a5f3d836040516107ce91815260200190565b60405180910390a2505050565b336107e4611429565b6004556107ef610f92565b60035573ffffffffffffffffffffffffffffffffffffffff8116156108505761081781610500565b73ffffffffffffffffffffffffffffffffffffffff82166000908152600a60209081526040808320939093556004546009909152919020555b600183101561088b576040517f2c5211c600000000000000000000000000000000000000000000000000000000815260040160405180910390fd5b6108953384611691565b826008546108a39190611a50565b600855336000908152600b60205260409020546108c1908490611a50565b336000818152600b6020526040908190209290925590517fa9059cbb00000000000000000000000000000000000000000000000000000000815260048101919091526024810184905273ffffffffffffffffffffffffffffffffffffffff7f0000000000000000000000000000000000000000000000000000000000000000169063a9059cbb906044016020604051808303816000875af115801561096a573d6000803e3d6000fd5b505050506040513d601f19601f8201168201806040525081019061098e9190611af7565b5060405183815233907f7084f5476618d8e60b11ef0d7d3f06914655adb8793e28ff7f018d4c76d505d5906020015b60405180910390a281156109d6576109d6336001610cb2565b505050565b6109e6336001610cb2565b565b600c81815481106109f857600080fd5b60009182526020909120015473ffffffffffffffffffffffffffffffffffffffff16905081565b336000908152600b60205260409020546105b19082611250565b7f00000000000000000000000000000000000000000000000000000000000000003373ffffffffffffffffffffffffffffffffffffffff821614610aa9576040517f82b4290000000000000000000000000000000000000000000000000000000000815260040160405180910390fd5b600554610ab69083611adf565b91506001544210610ad357610aca826117c0565b60006005555050565b600062093a80600154610ae69190611a50565b610af09042611a50565b9050600081600254610b029190611a67565b9050600084610b13836103e8611a67565b610b1d9190611aa4565b905061033e811015610b3c57610b32856117c0565b6000600555610b42565b60058590555b5050505050565b7f00000000000000000000000000000000000000000000000000000000000000003373ffffffffffffffffffffffffffffffffffffffff821614610bb9576040517f82b4290000000000000000000000000000000000000000000000000000000000815260040160405180910390fd5b73ffffffffffffffffffffffffffffffffffffffff8216610c3a576040517f08c379a000000000000000000000000000000000000000000000000000000000815260206004820152600f60248201527f217265776172642073657474696e670000000000000000000000000000000000604482015260640160405180910390fd5b50600c80546001810182556000919091527fdf6966c971051c3d54ec59162606531493a51404a002842f56009d7e5cf4a8c70180547fffffffffffffffffffffffff00000000000000000000000000000000000000001673ffffffffffffffffffffffffffffffffffffffff92909216919091179055565b81610cbb611429565b600455610cc6610f92565b60035573ffffffffffffffffffffffffffffffffffffffff811615610d2757610cee81610500565b73ffffffffffffffffffffffffffffffffffffffff82166000908152600a60209081526040808320939093556004546009909152919020555b6000610d3284610500565b90508015610e5b5773ffffffffffffffffffffffffffffffffffffffff8481166000818152600a602052604080822091909155517fa9059cbb0000000000000000000000000000000000000000000000000000000081526004810191909152602481018390527f00000000000000000000000000000000000000000000000000000000000000009091169063a9059cbb906044016020604051808303816000875af1158015610de5573d6000803e3d6000fd5b505050506040513d601f19601f82011682018060405250810190610e099190611af7565b508373ffffffffffffffffffffffffffffffffffffffff167fe2403640ba68fed3a2f88b7557551d1993f84b99bb10ff833f0cf8db0c5e048682604051610e5291815260200190565b60405180910390a25b8215610f8c576000600c805480602002602001604051908101604052809291908181526020018280548015610ec657602002820191906000526020600020905b815473ffffffffffffffffffffffffffffffffffffffff168152600190910190602001808311610e9b575b5050505050905060005b8151811015610f8957818181518110610eeb57610eeb611b14565b60209081029190910101516040517fc00007b000000000000000000000000000000000000000000000000000000000815273ffffffffffffffffffffffffffffffffffffffff88811660048301529091169063c00007b090602401600060405180830381600087803b158015610f6057600080fd5b505af1158015610f74573d6000803e3d6000fd5b50505050610f828160010190565b9050610ed0565b50505b50505050565b6000610fa0426001546118fb565b905090565b6040517f70a082310000000000000000000000000000000000000000000000000000000081523360048201526000907f000000000000000000000000000000000000000000000000000000000000000073ffffffffffffffffffffffffffffffffffffffff16906370a0823190602401602060405180830381865afa158015611032573d6000803e3d6000fd5b505050506040513d601f19601f820116820180604052508101906110569190611b43565b90506105b1815b33611066611429565b600455611071610f92565b60035573ffffffffffffffffffffffffffffffffffffffff8116156110d25761109981610500565b73ffffffffffffffffffffffffffffffffffffffff82166000908152600a60209081526040808320939093556004546009909152919020555b600182101561110d576040517f2c5211c600000000000000000000000000000000000000000000000000000000815260040160405180910390fd5b6111173383611562565b816008546111259190611adf565b600855336000908152600b6020526040902054611143908390611adf565b336000818152600b6020526040908190209290925590517f23b872dd00000000000000000000000000000000000000000000000000000000815260048101919091523060248201526044810183905273ffffffffffffffffffffffffffffffffffffffff7f000000000000000000000000000000000000000000000000000000000000000016906323b872dd906064016020604051808303816000875af11580156111f2573d6000803e3d6000fd5b505050506040513d601f19601f820116820180604052508101906112169190611af7565b5060405182815233907f9e71bc8eea02a63969f509818f2dafb9254532904319f9dbda79b67bd34a5f3d9060200160405180910390a25050565b33611259611429565b600455611264610f92565b60035573ffffffffffffffffffffffffffffffffffffffff8116156112c55761128c81610500565b73ffffffffffffffffffffffffffffffffffffffff82166000908152600a60209081526040808320939093556004546009909152919020555b6001831015611300576040517f2c5211c600000000000000000000000000000000000000000000000000000000815260040160405180910390fd5b61130a3384611691565b826008546113189190611a50565b600855336000908152600b6020526040902054611336908490611a50565b336000818152600b6020526040808220939093555491517f14cd70e4000000000000000000000000000000000000000000000000000000008152600481019290925260248201859052604482015273ffffffffffffffffffffffffffffffffffffffff7f000000000000000000000000000000000000000000000000000000000000000016906314cd70e490606401600060405180830381600087803b1580156113df57600080fd5b505af11580156113f3573d6000803e3d6000fd5b50506040518581523392507f7084f5476618d8e60b11ef0d7d3f06914655adb8793e28ff7f018d4c76d505d591506020016109bd565b600061143460085490565b600003611442575060045490565b600854600254600354611453610f92565b61145d9190611a50565b6114679190611a67565b61147990670de0b6b3a7640000611a67565b6114839190611aa4565b600454610fa09190611adf565b6040517f23b872dd000000000000000000000000000000000000000000000000000000008152336004820152306024820152604481018290527f000000000000000000000000000000000000000000000000000000000000000073ffffffffffffffffffffffffffffffffffffffff16906323b872dd906064016020604051808303816000875af1158015611529573d6000803e3d6000fd5b505050506040513d601f19601f8201168201806040525081019061154d9190611af7565b508060055461155c9190611adf565b60055550565b6000600c8054806020026020016040519081016040528092919081815260200182805480156115c757602002820191906000526020600020905b815473ffffffffffffffffffffffffffffffffffffffff16815260019091019060200180831161159c575b5050505050905060005b8151811015610f8c578181815181106115ec576115ec611b14565b60209081029190910101516040517fadc9772e00000000000000000000000000000000000000000000000000000000815273ffffffffffffffffffffffffffffffffffffffff8681166004830152602482018690529091169063adc9772e90604401600060405180830381600087803b15801561166857600080fd5b505af115801561167c573d6000803e3d6000fd5b5050505061168a8160010190565b90506115d1565b6000600c8054806020026020016040519081016040528092919081815260200182805480156116f657602002820191906000526020600020905b815473ffffffffffffffffffffffffffffffffffffffff1681526001909101906020018083116116cb575b5050505050905060005b8151811015610f8c5781818151811061171b5761171b611b14565b60209081029190910101516040517ff3fef3a300000000000000000000000000000000000000000000000000000000815273ffffffffffffffffffffffffffffffffffffffff8681166004830152602482018690529091169063f3fef3a390604401600060405180830381600087803b15801561179757600080fd5b505af11580156117ab573d6000803e3d6000fd5b505050506117b98160010190565b9050611700565b60006117ca611429565b6004556117d5610f92565b60035573ffffffffffffffffffffffffffffffffffffffff811615611836576117fd81610500565b73ffffffffffffffffffffffffffffffffffffffff82166000908152600a60209081526040808320939093556004546009909152919020555b816007546118449190611adf565b60075560015442106118655761185d62093a8083611aa4565b6002556118a8565b6000426001546118759190611a50565b90506000600254826118879190611a67565b90506118938185611adf565b93506118a262093a8085611aa4565b60025550505b60068290554260038190556118c19062093a8090611adf565b6001556040518281527fde88a922e0d3b88b24e9623efeb464919c6bf9f66857a65e2bfcf2ce87a9433d9060200160405180910390a15050565b600081831061190a578161190c565b825b9392505050565b803573ffffffffffffffffffffffffffffffffffffffff8116811461193757600080fd5b919050565b60006020828403121561194e57600080fd5b61190c82611913565b80151581146105b157600080fd5b60006020828403121561197757600080fd5b813561190c81611957565b6000806040838503121561199557600080fd5b61199e83611913565b946020939093013593505050565b600080604083850312156119bf57600080fd5b8235915060208301356119d181611957565b809150509250929050565b6000602082840312156119ee57600080fd5b5035919050565b60008060408385031215611a0857600080fd5b611a1183611913565b915060208301356119d181611957565b7f4e487b7100000000000000000000000000000000000000000000000000000000600052601160045260246000fd5b600082821015611a6257611a62611a21565b500390565b6000817fffffffffffffffffffffffffffffffffffffffffffffffffffffffffffffffff0483118215151615611a9f57611a9f611a21565b500290565b600082611ada577f4e487b7100000000000000000000000000000000000000000000000000000000600052601260045260246000fd5b500490565b60008219821115611af257611af2611a21565b500190565b600060208284031215611b0957600080fd5b815161190c81611957565b7f4e487b7100000000000000000000000000000000000000000000000000000000600052603260045260246000fd5b600060208284031215611b5557600080fd5b505191905056fea2646970667358221220b014f1a513cf0d9e7f442e2afde8498a8191b302c81ee3fc43d61057773913a164736f6c634300080e003360806040526000600355600060045560006007556000600855600060095561033e600a5534801561002f57600080fd5b5060405161103c38038061103c83398101604081905261004e916100ac565b600080546001600160a01b039485166001600160a01b0319918216179091556001805493851693821693909317909255600280549190931691161790556100ef565b80516001600160a01b03811681146100a757600080fd5b919050565b6000806000606084860312156100c157600080fd5b6100ca84610090565b92506100d860208501610090565b91506100e660408501610090565b90509250925092565b610f3e806100fe6000396000f3fe608060405234801561001057600080fd5b50600436106101a25760003560e01c80637b0a47ee116100ee578063c8f33c9111610097578063ebe2b12b11610071578063ebe2b12b14610329578063f14faf6f14610332578063f3fef3a314610345578063f7c618c11461035857600080fd5b8063c8f33c911461030f578063cd3daf9d14610318578063df136d651461032057600080fd5b8063901a7d53116100c8578063901a7d53146102e0578063adc9772e146102e9578063c00007b0146102fc57600080fd5b80637b0a47ee146102af57806380faa57d146102b85780638b876347146102c057600080fd5b80633d18b9121161015057806363d38c3b1161012a57806363d38c3b1461028a5780636c8bcee81461029357806370a082311461029c57600080fd5b80633d18b9121461024d578063570ca73514610257578063590a41f51461027757600080fd5b806318160ddd1161018157806318160ddd146101f7578063262d3d6d146101ff578063323a5e0b1461020857600080fd5b80628cc262146101a75780630700037d146101cd5780630fb5a6b4146101ed575b600080fd5b6101ba6101b5366004610d99565b610378565b6040519081526020015b60405180910390f35b6101ba6101db366004610d99565b600c6020526000908152604090205481565b6101ba62093a8081565b6101ba6103f2565b6101ba60095481565b6000546102289073ffffffffffffffffffffffffffffffffffffffff1681565b60405173ffffffffffffffffffffffffffffffffffffffff90911681526020016101c4565b610255610489565b005b6002546102289073ffffffffffffffffffffffffffffffffffffffff1681565b610255610285366004610db4565b610494565b6101ba60075481565b6101ba600a5481565b6101ba6102aa366004610d99565b6105b8565b6101ba60045481565b6101ba61064d565b6101ba6102ce366004610d99565b600b6020526000908152604090205481565b6101ba60085481565b6102556102f7366004610dcd565b61065b565b61025561030a366004610d99565b610836565b6101ba60055481565b6101ba6109be565b6101ba60065481565b6101ba60035481565b610255610340366004610db4565b610a29565b610255610353366004610dcd565b610adf565b6001546102289073ffffffffffffffffffffffffffffffffffffffff1681565b73ffffffffffffffffffffffffffffffffffffffff81166000908152600c6020908152604080832054600b909252822054670de0b6b3a7640000906103bb6109be565b6103c59190610e26565b6103ce856105b8565b6103d89190610e3d565b6103e29190610e7a565b6103ec9190610eb5565b92915050565b60008060009054906101000a900473ffffffffffffffffffffffffffffffffffffffff1673ffffffffffffffffffffffffffffffffffffffff166318160ddd6040518163ffffffff1660e01b8152600401602060405180830381865afa158015610460573d6000803e3d6000fd5b505050506040513d601f19601f820116820180604052508101906104849190610ecd565b905090565b61049233610836565b565b60025473ffffffffffffffffffffffffffffffffffffffff16331461051a576040517f08c379a000000000000000000000000000000000000000000000000000000000815260206004820152600b60248201527f21617574686f72697a656400000000000000000000000000000000000000000060448201526064015b60405180910390fd5b6007546105279082610eb5565b905060035442106105435761053b81610c1d565b506000600755565b600062093a806003546105569190610e26565b6105609042610e26565b90506000816004546105729190610e3d565b9050600083610583836103e8610e3d565b61058d9190610e7a565b9050600a548110156105ac576105a284610c1d565b60006007556105b2565b60078490555b50505050565b600080546040517f70a0823100000000000000000000000000000000000000000000000000000000815273ffffffffffffffffffffffffffffffffffffffff8481166004830152909116906370a0823190602401602060405180830381865afa158015610629573d6000803e3d6000fd5b505050506040513d601f19601f820116820180604052508101906103ec9190610ecd565b600061048442600354610d58565b816106646109be565b60065561066f61064d565b60055573ffffffffffffffffffffffffffffffffffffffff8116156106d05761069781610378565b73ffffffffffffffffffffffffffffffffffffffff82166000908152600c6020908152604080832093909355600654600b909152919020555b60005473ffffffffffffffffffffffffffffffffffffffff163314610751576040517f08c379a000000000000000000000000000000000000000000000000000000000815260206004820152600b60248201527f21617574686f72697a65640000000000000000000000000000000000000000006044820152606401610511565b600082116107e1576040517f08c379a000000000000000000000000000000000000000000000000000000000815260206004820152602860248201527f5669727475616c4465706f736974526577617264506f6f6c3a2043616e6e6f7460448201527f207374616b6520300000000000000000000000000000000000000000000000006064820152608401610511565b8273ffffffffffffffffffffffffffffffffffffffff167f9e71bc8eea02a63969f509818f2dafb9254532904319f9dbda79b67bd34a5f3d8360405161082991815260200190565b60405180910390a2505050565b8061083f6109be565b60065561084a61064d565b60055573ffffffffffffffffffffffffffffffffffffffff8116156108ab5761087281610378565b73ffffffffffffffffffffffffffffffffffffffff82166000908152600c6020908152604080832093909355600654600b909152919020555b60006108b683610378565b905080156109b95773ffffffffffffffffffffffffffffffffffffffff8381166000818152600c60205260408082209190915560015490517fa9059cbb0000000000000000000000000000000000000000000000000000000081526004810192909252602482018490529091169063a9059cbb906044016020604051808303816000875af115801561094c573d6000803e3d6000fd5b505050506040513d601f19601f820116820180604052508101906109709190610ee6565b508273ffffffffffffffffffffffffffffffffffffffff167fe2403640ba68fed3a2f88b7557551d1993f84b99bb10ff833f0cf8db0c5e04868260405161082991815260200190565b505050565b60006109c86103f2565b6000036109d6575060065490565b6109de6103f2565b6004546005546109ec61064d565b6109f69190610e26565b610a009190610e3d565b610a1290670de0b6b3a7640000610e3d565b610a1c9190610e7a565b6006546104849190610eb5565b6001546040517f23b872dd0000000000000000000000000000000000000000000000000000000081523360048201523060248201526044810183905273ffffffffffffffffffffffffffffffffffffffff909116906323b872dd906064016020604051808303816000875af1158015610aa6573d6000803e3d6000fd5b505050506040513d601f19601f82011682018060405250810190610aca9190610ee6565b5080600754610ad99190610eb5565b60075550565b81610ae86109be565b600655610af361064d565b60055573ffffffffffffffffffffffffffffffffffffffff811615610b5457610b1b81610378565b73ffffffffffffffffffffffffffffffffffffffff82166000908152600c6020908152604080832093909355600654600b909152919020555b60005473ffffffffffffffffffffffffffffffffffffffff163314610bd5576040517f08c379a000000000000000000000000000000000000000000000000000000000815260206004820152600b60248201527f21617574686f72697a65640000000000000000000000000000000000000000006044820152606401610511565b8273ffffffffffffffffffffffffffffffffffffffff167f7084f5476618d8e60b11ef0d7d3f06914655adb8793e28ff7f018d4c76d505d58360405161082991815260200190565b6000610c276109be565b600655610c3261064d565b60055573ffffffffffffffffffffffffffffffffffffffff811615610c9357610c5a81610378565b73ffffffffffffffffffffffffffffffffffffffff82166000908152600c6020908152604080832093909355600654600b909152919020555b81600954610ca19190610eb5565b6009556003544210610cc257610cba62093a8083610e7a565b600455610d05565b600042600354610cd29190610e26565b9050600060045482610ce49190610e3d565b9050610cf08185610eb5565b9350610cff62093a8085610e7a565b60045550505b6008829055426005819055610d1e9062093a8090610eb5565b6003556040518281527fde88a922e0d3b88b24e9623efeb464919c6bf9f66857a65e2bfcf2ce87a9433d9060200160405180910390a15050565b6000818310610d675781610d69565b825b9392505050565b803573ffffffffffffffffffffffffffffffffffffffff81168114610d9457600080fd5b919050565b600060208284031215610dab57600080fd5b610d6982610d70565b600060208284031215610dc657600080fd5b5035919050565b60008060408385031215610de057600080fd5b610de983610d70565b946020939093013593505050565b7f4e487b7100000000000000000000000000000000000000000000000000000000600052601160045260246000fd5b600082821015610e3857610e38610df7565b500390565b6000817fffffffffffffffffffffffffffffffffffffffffffffffffffffffffffffffff0483118215151615610e7557610e75610df7565b500290565b600082610eb0577f4e487b7100000000000000000000000000000000000000000000000000000000600052601260045260246000fd5b500490565b60008219821115610ec857610ec8610df7565b500190565b600060208284031215610edf57600080fd5b5051919050565b600060208284031215610ef857600080fd5b81518015158114610d6957600080fdfea2646970667358221220a28c9bf185d157ae3e87ef1fd1b803034bc9b7186216fbcdd824a6b81ab6de2564736f6c634300080e0033a26469706673582212203366ebf891c2f185dcf3913f0b54c264b5f342a0ba89c7291f49de4cddf682ba64736f6c634300080e0033",
  "devdoc": {
    "kind": "dev",
    "methods": {
      "activeRewardCount(address)": {
        "returns": {
          "_0": "uint256 number of active rewards"
        }
      },
      "addActiveReward(address,uint256)": {
        "returns": {
          "_0": "true on success"
        }
      },
      "createBalRewards(uint256,address)": {
        "params": {
          "_depositToken": "address of the token",
          "_pid": "The pid of the pool"
        }
      },
      "createTokenRewards(address,address,address)": {
        "details": "used for extra incentive tokens(ex. snx) as well as vebal fees",
        "params": {
          "_mainRewards": "address of the main reward pool contract",
          "_rewardPoolOwner": "address of the reward pool owner",
          "_token": "address of the token"
        },
        "returns": {
          "_0": "address of the new reward pool"
        }
      },
      "grantRewardStashAccess(address)": {
        "details": "Stash contracts need access to create new Virtual balance pools for extra gauge incentives(ex. snx)"
      },
      "removeActiveReward(address,uint256)": {
        "params": {
          "_pid": "The pid of the pool",
          "_reward": "The address of the reward contract"
        },
        "returns": {
          "_0": "true on success"
        }
      }
    },
    "title": "RewardFactory contract",
    "version": 1
  },
  "userdoc": {
    "kind": "user",
    "methods": {
      "activeRewardCount(address)": {
        "notice": "Get active rewards count"
      },
      "addActiveReward(address,uint256)": {
        "notice": "Adds a new reward to the active list"
      },
      "createBalRewards(uint256,address)": {
        "notice": "Creates a new Reward pool"
      },
      "createTokenRewards(address,address,address)": {
        "notice": "Create a virtual balance reward pool that mimicks the balance of a pool's main reward contract"
      },
      "grantRewardStashAccess(address)": {
        "notice": "Grants rewardAccess to stash"
      },
      "removeActiveReward(address,uint256)": {
        "notice": "Removes active reward"
      }
    },
    "version": 1
  },
  "storageLayout": {
    "storage": [
      {
        "astId": 7126,
        "contract": "contracts/factories/RewardFactory.sol:RewardFactory",
        "label": "rewardAccess",
        "offset": 0,
        "slot": "0",
        "type": "t_mapping(t_address,t_bool)"
      },
      {
        "astId": 7131,
        "contract": "contracts/factories/RewardFactory.sol:RewardFactory",
        "label": "rewardActiveList",
        "offset": 0,
        "slot": "1",
        "type": "t_mapping(t_address,t_array(t_uint256)dyn_storage)"
      }
    ],
    "types": {
      "t_address": {
        "encoding": "inplace",
        "label": "address",
        "numberOfBytes": "20"
      },
      "t_array(t_uint256)dyn_storage": {
        "base": "t_uint256",
        "encoding": "dynamic_array",
        "label": "uint256[]",
        "numberOfBytes": "32"
      },
      "t_bool": {
        "encoding": "inplace",
        "label": "bool",
        "numberOfBytes": "1"
      },
      "t_mapping(t_address,t_array(t_uint256)dyn_storage)": {
        "encoding": "mapping",
        "key": "t_address",
        "label": "mapping(address => uint256[])",
        "numberOfBytes": "32",
        "value": "t_array(t_uint256)dyn_storage"
      },
      "t_mapping(t_address,t_bool)": {
        "encoding": "mapping",
        "key": "t_address",
        "label": "mapping(address => bool)",
        "numberOfBytes": "32",
        "value": "t_bool"
      },
      "t_uint256": {
        "encoding": "inplace",
        "label": "uint256",
        "numberOfBytes": "32"
      }
    }
  }
}