{
  "address": "0xFF5Dc82257E61788514e6F05a4AD114d4ae97745",
  "abi": [
    {
      "inputs": [
        {
          "internalType": "address",
          "name": "_mintr",
          "type": "address"
        },
        {
          "internalType": "address",
          "name": "_bal",
          "type": "address"
        },
        {
          "internalType": "address",
          "name": "_wethBal",
          "type": "address"
        },
        {
          "internalType": "address",
          "name": "_veBal",
          "type": "address"
        },
        {
          "internalType": "address",
          "name": "_gaugeController",
          "type": "address"
        }
      ],
      "stateMutability": "nonpayable",
      "type": "constructor"
    },
    {
      "inputs": [],
      "name": "BadInput",
      "type": "error"
    },
    {
      "inputs": [],
      "name": "NeedsShutdown",
      "type": "error"
    },
    {
      "inputs": [],
      "name": "Unauthorized",
      "type": "error"
    },
    {
      "anonymous": false,
      "inputs": [
        {
          "indexed": false,
          "internalType": "address",
          "name": "newDepositor",
          "type": "address"
        }
      ],
      "name": "DepositorChanged",
      "type": "event"
    },
    {
      "anonymous": false,
      "inputs": [
        {
          "indexed": false,
          "internalType": "address",
          "name": "newOperator",
          "type": "address"
        }
      ],
      "name": "OperatorChanged",
      "type": "event"
    },
    {
      "anonymous": false,
      "inputs": [
        {
          "indexed": false,
          "internalType": "address",
          "name": "newOwner",
          "type": "address"
        }
      ],
      "name": "OwnerChanged",
      "type": "event"
    },
    {
      "anonymous": false,
      "inputs": [
        {
          "indexed": false,
          "internalType": "address",
          "name": "stash",
          "type": "address"
        }
      ],
      "name": "StashAccessGranted",
      "type": "event"
    },
    {
      "anonymous": false,
      "inputs": [],
      "name": "VotingPowerCleared",
      "type": "event"
    },
    {
      "anonymous": false,
      "inputs": [
        {
          "indexed": false,
          "internalType": "address",
          "name": "_delegate",
          "type": "address"
        }
      ],
      "name": "VotingPowerDelegated",
      "type": "event"
    },
    {
      "inputs": [],
      "name": "BALANCER_SNAPSHOT_ID",
      "outputs": [
        {
          "internalType": "bytes32",
          "name": "",
          "type": "bytes32"
        }
      ],
      "stateMutability": "view",
      "type": "function"
    },
    {
      "inputs": [],
      "name": "SNAPSHOT_REGISTRY",
      "outputs": [
        {
          "internalType": "address",
          "name": "",
          "type": "address"
        }
      ],
      "stateMutability": "view",
      "type": "function"
    },
    {
      "inputs": [],
      "name": "bal",
      "outputs": [
        {
          "internalType": "address",
          "name": "",
          "type": "address"
        }
      ],
      "stateMutability": "view",
      "type": "function"
    },
    {
      "inputs": [
        {
          "internalType": "address",
          "name": "_gauge",
          "type": "address"
        }
      ],
      "name": "balanceOfPool",
      "outputs": [
        {
          "internalType": "uint256",
          "name": "",
          "type": "uint256"
        }
      ],
      "stateMutability": "view",
      "type": "function"
    },
    {
      "inputs": [
        {
          "internalType": "address",
          "name": "_gauge",
          "type": "address"
        }
      ],
      "name": "claimBal",
      "outputs": [
        {
          "internalType": "uint256",
          "name": "",
          "type": "uint256"
        }
      ],
      "stateMutability": "nonpayable",
      "type": "function"
    },
    {
      "inputs": [
        {
          "internalType": "address",
          "name": "_distroContract",
          "type": "address"
        },
        {
          "internalType": "contract IERC20[]",
          "name": "_tokens",
          "type": "address[]"
        }
      ],
      "name": "claimFees",
      "outputs": [],
      "stateMutability": "nonpayable",
      "type": "function"
    },
    {
      "inputs": [
        {
          "internalType": "address",
          "name": "_gauge",
          "type": "address"
        }
      ],
      "name": "claimRewards",
      "outputs": [],
      "stateMutability": "nonpayable",
      "type": "function"
    },
    {
      "inputs": [],
      "name": "clearDelegate",
      "outputs": [],
      "stateMutability": "nonpayable",
      "type": "function"
    },
    {
      "inputs": [
        {
          "internalType": "uint256",
          "name": "_value",
          "type": "uint256"
        },
        {
          "internalType": "uint256",
          "name": "_unlockTime",
          "type": "uint256"
        }
      ],
      "name": "createLock",
      "outputs": [],
      "stateMutability": "nonpayable",
      "type": "function"
    },
    {
      "inputs": [
        {
          "internalType": "address",
          "name": "_delegateTo",
          "type": "address"
        }
      ],
      "name": "delegateVotingPower",
      "outputs": [],
      "stateMutability": "nonpayable",
      "type": "function"
    },
    {
      "inputs": [
        {
          "internalType": "address",
          "name": "_token",
          "type": "address"
        },
        {
          "internalType": "address",
          "name": "_gauge",
          "type": "address"
        }
      ],
      "name": "deposit",
      "outputs": [],
      "stateMutability": "nonpayable",
      "type": "function"
    },
    {
      "inputs": [],
      "name": "depositor",
      "outputs": [
        {
          "internalType": "address",
          "name": "",
          "type": "address"
        }
      ],
      "stateMutability": "view",
      "type": "function"
    },
    {
      "inputs": [
        {
          "internalType": "address",
          "name": "_to",
          "type": "address"
        },
        {
          "internalType": "uint256",
          "name": "_value",
          "type": "uint256"
        },
        {
          "internalType": "bytes",
          "name": "_data",
          "type": "bytes"
        }
      ],
      "name": "execute",
      "outputs": [
        {
          "internalType": "bool",
          "name": "",
          "type": "bool"
        },
        {
          "internalType": "bytes",
          "name": "",
          "type": "bytes"
        }
      ],
      "stateMutability": "nonpayable",
      "type": "function"
    },
    {
      "inputs": [],
      "name": "gaugeController",
      "outputs": [
        {
          "internalType": "address",
          "name": "",
          "type": "address"
        }
      ],
      "stateMutability": "view",
      "type": "function"
    },
    {
      "inputs": [
        {
          "internalType": "uint256",
          "name": "_value",
          "type": "uint256"
        }
      ],
      "name": "increaseAmount",
      "outputs": [],
      "stateMutability": "nonpayable",
      "type": "function"
    },
    {
      "inputs": [
        {
          "internalType": "uint256",
          "name": "_value",
          "type": "uint256"
        }
      ],
      "name": "increaseTime",
      "outputs": [],
      "stateMutability": "nonpayable",
      "type": "function"
    },
    {
      "inputs": [],
      "name": "mintr",
      "outputs": [
        {
          "internalType": "address",
          "name": "",
          "type": "address"
        }
      ],
      "stateMutability": "view",
      "type": "function"
    },
    {
      "inputs": [],
      "name": "operator",
      "outputs": [
        {
          "internalType": "address",
          "name": "",
          "type": "address"
        }
      ],
      "stateMutability": "view",
      "type": "function"
    },
    {
      "inputs": [],
      "name": "owner",
      "outputs": [
        {
          "internalType": "address",
          "name": "",
          "type": "address"
        }
      ],
      "stateMutability": "view",
      "type": "function"
    },
    {
      "inputs": [],
      "name": "release",
      "outputs": [],
      "stateMutability": "nonpayable",
      "type": "function"
    },
    {
      "inputs": [
        {
          "internalType": "address",
          "name": "_depositor",
          "type": "address"
        }
      ],
      "name": "setDepositor",
      "outputs": [],
      "stateMutability": "nonpayable",
      "type": "function"
    },
    {
      "inputs": [
        {
          "internalType": "address",
          "name": "_operator",
          "type": "address"
        }
      ],
      "name": "setOperator",
      "outputs": [],
      "stateMutability": "nonpayable",
      "type": "function"
    },
    {
      "inputs": [
        {
          "internalType": "address",
          "name": "_newOwner",
          "type": "address"
        }
      ],
      "name": "setOwner",
      "outputs": [],
      "stateMutability": "nonpayable",
      "type": "function"
    },
    {
      "inputs": [],
      "name": "veBal",
      "outputs": [
        {
          "internalType": "address",
          "name": "",
          "type": "address"
        }
      ],
      "stateMutability": "view",
      "type": "function"
    },
    {
      "inputs": [
        {
          "internalType": "address[]",
          "name": "_gauges",
          "type": "address[]"
        },
        {
          "internalType": "uint256[]",
          "name": "_weights",
          "type": "uint256[]"
        }
      ],
      "name": "voteMultipleGauges",
      "outputs": [],
      "stateMutability": "nonpayable",
      "type": "function"
    },
    {
      "inputs": [],
      "name": "wethBal",
      "outputs": [
        {
          "internalType": "address",
          "name": "",
          "type": "address"
        }
      ],
      "stateMutability": "view",
      "type": "function"
    },
    {
      "inputs": [
        {
          "internalType": "address",
          "name": "_token",
          "type": "address"
        },
        {
          "internalType": "address",
          "name": "_gauge",
          "type": "address"
        },
        {
          "internalType": "uint256",
          "name": "_amount",
          "type": "uint256"
        }
      ],
      "name": "withdraw",
      "outputs": [],
      "stateMutability": "nonpayable",
      "type": "function"
    },
    {
      "inputs": [
        {
          "internalType": "address",
          "name": "_token",
          "type": "address"
        },
        {
          "internalType": "address",
          "name": "_gauge",
          "type": "address"
        }
      ],
      "name": "withdrawAll",
      "outputs": [],
      "stateMutability": "nonpayable",
      "type": "function"
    },
    {
      "inputs": [
        {
          "internalType": "address",
          "name": "_to",
          "type": "address"
        },
        {
          "internalType": "uint256",
          "name": "_amount",
          "type": "uint256"
        }
      ],
      "name": "withdrawWethBal",
      "outputs": [],
      "stateMutability": "nonpayable",
      "type": "function"
    }
  ],
  "transactionHash": "0x9c058d325802903ae24aa00aba9c116c9b5f1fa0990f6140cc1bbd8ab9a5b837",
  "args": [
    "0xdf0399539A72E2689B8B2DD53C3C2A0883879fDd",
    "0xfa8449189744799ad2ace7e0ebac8bb7575eff47",
    "0xf8a0623ab66F985EfFc1C69D05F1af4BaDB01b00",
    "0x33A99Dcc4C85C014cf12626959111D5898bbCAbF",
    "0xBB1CE49b16d55A1f2c6e88102f32144C7334B116"
  ],
  "solcInputHash": "a7d91ab37d5735063eec3feef42edd7e",
  "bytecode": "0x6101206040523480156200001257600080fd5b5060405162002a0938038062002a09833981016040819052620000359162000108565b6001600160a01b0385811660805284811660a05283811660c081905283821660e081905291831661010052600080546001600160a01b0319163317905560405163095ea7b360e01b8152600481019290925260001960248301529063095ea7b3906044016020604051808303816000875af1158015620000b9573d6000803e3d6000fd5b505050506040513d601f19601f82011682018060405250810190620000df919062000178565b505050505050620001a3565b80516001600160a01b03811681146200010357600080fd5b919050565b600080600080600060a086880312156200012157600080fd5b6200012c86620000eb565b94506200013c60208701620000eb565b93506200014c60408701620000eb565b92506200015c60608701620000eb565b91506200016c60808701620000eb565b90509295509295909350565b6000602082840312156200018b57600080fd5b815180151581146200019c57600080fd5b9392505050565b60805160a05160c05160e051610100516127d4620002356000396000818161034a0152610a4e01526000818161024d015281816106d501528181610bde01528181610d8e0152818161131a015261195e0152600081816103f901528181611a0c0152611ae70152600081816102ac01528181610870015261094201526000818161044001526107e601526127d46000f3fe608060405234801561001057600080fd5b50600436106101cf5760003560e01c8063a81d2f4711610104578063c7c4ff46116100a2578063f2c098b711610071578063f2c098b714610488578063f3ff955a1461049b578063f40a6145146104ae578063f9609f08146104c157600080fd5b8063c7c4ff461461041b578063d1e61dcb1461043b578063d9caed1214610462578063ef5cfb8c1461047557600080fd5b8063b3ab15fb116100de578063b3ab15fb146103ad578063b52c05fe146103c0578063b61d27f6146103d3578063c17af1a7146103f457600080fd5b8063a81d2f471461036c578063b0f637941461037f578063b21f3eaa1461039257600080fd5b80633d79d1c8116101715780636ea447ba1161014b5780636ea447ba1461031557806386d1a69f1461031d5780638da5cb5b1461032557806399eecb3b1461034557600080fd5b80633d79d1c8146102a7578063570ca735146102ce5780635ba3c6a6146102ee57600080fd5b80631e4b196a116101ad5780631e4b196a1461020f57806328fa28a91461023557806334bce903146102485780633c9a2a1a1461029457600080fd5b806309cae2c8146101d457806313af4035146101e957806315456eba146101fc575b600080fd5b6101e76101e23660046121fe565b6104d4565b005b6101e76101f7366004612237565b61058a565b6101e761020a366004612254565b610655565b61022261021d366004612237565b61074a565b6040519081526020015b60405180910390f35b6101e76102433660046122b9565b6109b7565b61026f7f000000000000000000000000000000000000000000000000000000000000000081565b60405173ffffffffffffffffffffffffffffffffffffffff909116815260200161022c565b6101e76102a2366004612254565b610b5e565b61026f7f000000000000000000000000000000000000000000000000000000000000000081565b60015461026f9073ffffffffffffffffffffffffffffffffffffffff1681565b6102227f62616c616e6365722e657468000000000000000000000000000000000000000081565b6101e7610c22565b6101e7610d3b565b60005461026f9073ffffffffffffffffffffffffffffffffffffffff1681565b61026f7f000000000000000000000000000000000000000000000000000000000000000081565b6101e761037a366004612325565b610e0e565b61022261038d366004612237565b611052565b61026f73469788fe6e9e9681c6ebf3bf78e7fd26fc01544681565b6101e76103bb366004612237565b6110e3565b6101e76103ce36600461237a565b611293565b6103e66103e136600461239c565b61138f565b60405161022c92919061249b565b61026f7f000000000000000000000000000000000000000000000000000000000000000081565b60025461026f9073ffffffffffffffffffffffffffffffffffffffff1681565b61026f7f000000000000000000000000000000000000000000000000000000000000000081565b6101e76104703660046124b6565b611463565b6101e7610483366004612237565b61165d565b6101e7610496366004612237565b6116f6565b6101e76104a9366004612237565b6117ba565b6101e76104bc3660046124f7565b61190b565b6101e76104cf3660046121fe565b611b54565b6040517f70a0823100000000000000000000000000000000000000000000000000000000815230600482015260009073ffffffffffffffffffffffffffffffffffffffff8416906370a0823190602401602060405180830381865afa158015610541573d6000803e3d6000fd5b505050506040513d601f19601f820116820180604052508101906105659190612523565b61056e83611052565b610578919061256b565b9050610585838383611463565b505050565b60005473ffffffffffffffffffffffffffffffffffffffff1633146105db576040517f82b4290000000000000000000000000000000000000000000000000000000000815260040160405180910390fd5b600080547fffffffffffffffffffffffff00000000000000000000000000000000000000001673ffffffffffffffffffffffffffffffffffffffff83169081179091556040519081527fa2ea9883a321a3e97b8266c2b078bfeec6d50c711ed71f874a90d500ae2eaf36906020015b60405180910390a150565b60025473ffffffffffffffffffffffffffffffffffffffff1633146106a6576040517f82b4290000000000000000000000000000000000000000000000000000000000815260040160405180910390fd5b6040517f4957677c000000000000000000000000000000000000000000000000000000008152600481018290527f000000000000000000000000000000000000000000000000000000000000000073ffffffffffffffffffffffffffffffffffffffff1690634957677c906024015b600060405180830381600087803b15801561072f57600080fd5b505af1158015610743573d6000803e3d6000fd5b5050505050565b60015460009073ffffffffffffffffffffffffffffffffffffffff16331461079e576040517f82b4290000000000000000000000000000000000000000000000000000000000815260040160405180910390fd5b6040517f6a62784200000000000000000000000000000000000000000000000000000000815273ffffffffffffffffffffffffffffffffffffffff83811660048301526000917f000000000000000000000000000000000000000000000000000000000000000090911690636a62784290602401600060405180830381600087803b15801561082c57600080fd5b505af192505050801561083d575060015b156109b1576040517f70a082310000000000000000000000000000000000000000000000000000000081523060048201527f000000000000000000000000000000000000000000000000000000000000000073ffffffffffffffffffffffffffffffffffffffff16906370a0823190602401602060405180830381865afa1580156108cc573d6000803e3d6000fd5b505050506040513d601f19601f820116820180604052508101906108f09190612523565b6001546040517fa9059cbb00000000000000000000000000000000000000000000000000000000815273ffffffffffffffffffffffffffffffffffffffff9182166004820152602481018390529192507f0000000000000000000000000000000000000000000000000000000000000000169063a9059cbb906044016020604051808303816000875af115801561098b573d6000803e3d6000fd5b505050506040513d601f19601f820116820180604052508101906109af9190612583565b505b92915050565b60015473ffffffffffffffffffffffffffffffffffffffff163314610a08576040517f82b4290000000000000000000000000000000000000000000000000000000000815260040160405180910390fd5b828114610a41576040517f2bb9acf700000000000000000000000000000000000000000000000000000000815260040160405180910390fd5b60005b83811015610743577f000000000000000000000000000000000000000000000000000000000000000073ffffffffffffffffffffffffffffffffffffffff1663d7136328868684818110610a9a57610a9a6125a5565b9050602002016020810190610aaf9190612237565b858585818110610ac157610ac16125a5565b6040517fffffffff0000000000000000000000000000000000000000000000000000000060e087901b16815273ffffffffffffffffffffffffffffffffffffffff90941660048501526020029190910135602483015250604401600060405180830381600087803b158015610b3557600080fd5b505af1158015610b49573d6000803e3d6000fd5b50505050610b578160010190565b9050610a44565b60025473ffffffffffffffffffffffffffffffffffffffff163314610baf576040517f82b4290000000000000000000000000000000000000000000000000000000000815260040160405180910390fd5b6040517feff7a612000000000000000000000000000000000000000000000000000000008152600481018290527f000000000000000000000000000000000000000000000000000000000000000073ffffffffffffffffffffffffffffffffffffffff169063eff7a61290602401610715565b60015473ffffffffffffffffffffffffffffffffffffffff163314610c73576040517f82b4290000000000000000000000000000000000000000000000000000000000815260040160405180910390fd5b6040517ff0bedbe20000000000000000000000000000000000000000000000000000000081527f62616c616e6365722e6574680000000000000000000000000000000000000000600482015273469788fe6e9e9681c6ebf3bf78e7fd26fc0154469063f0bedbe290602401600060405180830381600087803b158015610cf857600080fd5b505af1158015610d0c573d6000803e3d6000fd5b50506040517fa7febde3d063f85cd125edf1098752804757b63e77a6b3b12d146aaed3a00b8a925060009150a1565b60025473ffffffffffffffffffffffffffffffffffffffff163314610d8c576040517f82b4290000000000000000000000000000000000000000000000000000000000815260040160405180910390fd5b7f000000000000000000000000000000000000000000000000000000000000000073ffffffffffffffffffffffffffffffffffffffff16633ccfd60b6040518163ffffffff1660e01b8152600401600060405180830381600087803b158015610df457600080fd5b505af1158015610e08573d6000803e3d6000fd5b50505050565b60015473ffffffffffffffffffffffffffffffffffffffff163314610e5f576040517f82b4290000000000000000000000000000000000000000000000000000000000815260040160405180910390fd5b6040517f8872046700000000000000000000000000000000000000000000000000000000815273ffffffffffffffffffffffffffffffffffffffff841690638872046790610eb5903090869086906004016125d4565b6000604051808303816000875af1158015610ed4573d6000803e3d6000fd5b505050506040513d6000823e601f3d9081017fffffffffffffffffffffffffffffffffffffffffffffffffffffffffffffffe0168201604052610f1a919081019061266c565b5060005b81811015610e08576000838383818110610f3a57610f3a6125a5565b9050602002016020810190610f4f9190612237565b6040517f70a0823100000000000000000000000000000000000000000000000000000000815230600482015273ffffffffffffffffffffffffffffffffffffffff91909116906370a0823190602401602060405180830381865afa158015610fbb573d6000803e3d6000fd5b505050506040513d601f19601f82011682018060405250810190610fdf9190612523565b90508015611049576001546110499073ffffffffffffffffffffffffffffffffffffffff1682868686818110611017576110176125a5565b905060200201602081019061102c9190612237565b73ffffffffffffffffffffffffffffffffffffffff169190611e5d565b50600101610f1e565b6040517f70a0823100000000000000000000000000000000000000000000000000000000815230600482015260009073ffffffffffffffffffffffffffffffffffffffff8316906370a0823190602401602060405180830381865afa1580156110bf573d6000803e3d6000fd5b505050506040513d601f19601f820116820180604052508101906109b19190612523565b60005473ffffffffffffffffffffffffffffffffffffffff163314611134576040517f82b4290000000000000000000000000000000000000000000000000000000000815260040160405180910390fd5b60015473ffffffffffffffffffffffffffffffffffffffff16158015906111e95750600160009054906101000a900473ffffffffffffffffffffffffffffffffffffffff1673ffffffffffffffffffffffffffffffffffffffff1663bf86d6906040518163ffffffff1660e01b8152600401602060405180830381865afa1580156111c3573d6000803e3d6000fd5b505050506040513d601f19601f820116820180604052508101906111e79190612583565b155b15611220576040517fa88a170d00000000000000000000000000000000000000000000000000000000815260040160405180910390fd5b600180547fffffffffffffffffffffffff00000000000000000000000000000000000000001673ffffffffffffffffffffffffffffffffffffffff83169081179091556040519081527f4721129e0e676ed6a92909bb24e853ccdd63ad72280cc2e974e38e480e0e6e549060200161064a565b60025473ffffffffffffffffffffffffffffffffffffffff1633146112e4576040517f82b4290000000000000000000000000000000000000000000000000000000000815260040160405180910390fd5b6040517f65fc387300000000000000000000000000000000000000000000000000000000815260048101839052602481018290527f000000000000000000000000000000000000000000000000000000000000000073ffffffffffffffffffffffffffffffffffffffff16906365fc387390604401600060405180830381600087803b15801561137357600080fd5b505af1158015611387573d6000803e3d6000fd5b505050505050565b60015460009060609073ffffffffffffffffffffffffffffffffffffffff1633146113e6576040517f82b4290000000000000000000000000000000000000000000000000000000000815260040160405180910390fd5b6000808773ffffffffffffffffffffffffffffffffffffffff16878787604051611411929190612748565b60006040518083038185875af1925050503d806000811461144e576040519150601f19603f3d011682016040523d82523d6000602084013e611453565b606091505b5090999098509650505050505050565b60015473ffffffffffffffffffffffffffffffffffffffff1633146114b4576040517f82b4290000000000000000000000000000000000000000000000000000000000815260040160405180910390fd5b6040517f70a0823100000000000000000000000000000000000000000000000000000000815230600482015260009073ffffffffffffffffffffffffffffffffffffffff8516906370a0823190602401602060405180830381865afa158015611521573d6000803e3d6000fd5b505050506040513d601f19601f820116820180604052508101906115459190612523565b9050818110156115c65773ffffffffffffffffffffffffffffffffffffffff8316632e1a7d4d6115758385612758565b6040518263ffffffff1660e01b815260040161159391815260200190565b600060405180830381600087803b1580156115ad57600080fd5b505af11580156115c1573d6000803e3d6000fd5b505050505b6040517fa9059cbb0000000000000000000000000000000000000000000000000000000081523360048201526024810183905273ffffffffffffffffffffffffffffffffffffffff85169063a9059cbb906044016020604051808303816000875af1158015611639573d6000803e3d6000fd5b505050506040513d601f19601f820116820180604052508101906107439190612583565b60015473ffffffffffffffffffffffffffffffffffffffff1633146116ae576040517f82b4290000000000000000000000000000000000000000000000000000000000815260040160405180910390fd5b8073ffffffffffffffffffffffffffffffffffffffff1663e6f1daf26040518163ffffffff1660e01b8152600401600060405180830381600087803b15801561072f57600080fd5b60005473ffffffffffffffffffffffffffffffffffffffff163314611747576040517f82b4290000000000000000000000000000000000000000000000000000000000815260040160405180910390fd5b600280547fffffffffffffffffffffffff00000000000000000000000000000000000000001673ffffffffffffffffffffffffffffffffffffffff83169081179091556040519081527f165ea44172651427010df987e6fd454678cc3c3f3e7331ab563c596bc8e787f69060200161064a565b60015473ffffffffffffffffffffffffffffffffffffffff16331461180b576040517f82b4290000000000000000000000000000000000000000000000000000000000815260040160405180910390fd5b6040517fbd86e5080000000000000000000000000000000000000000000000000000000081527f62616c616e6365722e6574680000000000000000000000000000000000000000600482015273ffffffffffffffffffffffffffffffffffffffff8216602482015273469788fe6e9e9681c6ebf3bf78e7fd26fc0154469063bd86e50890604401600060405180830381600087803b1580156118ac57600080fd5b505af11580156118c0573d6000803e3d6000fd5b505060405173ffffffffffffffffffffffffffffffffffffffff841681527f9765f939e65a9a6667affea71ad5d97f51fd25883d233f2b8e44c811395fc0509250602001905061064a565b60015473ffffffffffffffffffffffffffffffffffffffff16331461195c576040517f82b4290000000000000000000000000000000000000000000000000000000000815260040160405180910390fd5b7f000000000000000000000000000000000000000000000000000000000000000073ffffffffffffffffffffffffffffffffffffffff16633ccfd60b6040518163ffffffff1660e01b8152600401600060405180830381600087803b1580156119c457600080fd5b505af11580156119d8573d6000803e3d6000fd5b50506040517f70a08231000000000000000000000000000000000000000000000000000000008152306004820152600092507f000000000000000000000000000000000000000000000000000000000000000073ffffffffffffffffffffffffffffffffffffffff1691506370a0823190602401602060405180830381865afa158015611a69573d6000803e3d6000fd5b505050506040513d601f19601f82011682018060405250810190611a8d9190612523565b905081811015611a9b578091505b6040517fa9059cbb00000000000000000000000000000000000000000000000000000000815273ffffffffffffffffffffffffffffffffffffffff8481166004830152602482018490527f0000000000000000000000000000000000000000000000000000000000000000169063a9059cbb906044016020604051808303816000875af1158015611b30573d6000803e3d6000fd5b505050506040513d601f19601f82011682018060405250810190610e089190612583565b60015473ffffffffffffffffffffffffffffffffffffffff163314611ba5576040517f82b4290000000000000000000000000000000000000000000000000000000000815260040160405180910390fd5b73ffffffffffffffffffffffffffffffffffffffff821660009081526004602052604081205460ff1615159003611c255773ffffffffffffffffffffffffffffffffffffffff8216600090815260046020526040902080547fffffffffffffffffffffffffffffffffffffffffffffffffffffffffffffff001660011790555b73ffffffffffffffffffffffffffffffffffffffff811660009081526004602052604081205460ff1615159003611ca55773ffffffffffffffffffffffffffffffffffffffff8116600090815260046020526040902080547fffffffffffffffffffffffffffffffffffffffffffffffffffffffffffffff001660011790555b6040517f70a0823100000000000000000000000000000000000000000000000000000000815230600482015260009073ffffffffffffffffffffffffffffffffffffffff8416906370a0823190602401602060405180830381865afa158015611d12573d6000803e3d6000fd5b505050506040513d601f19601f82011682018060405250810190611d369190612523565b90508015610585576040517f095ea7b300000000000000000000000000000000000000000000000000000000815273ffffffffffffffffffffffffffffffffffffffff83811660048301526024820183905284169063095ea7b3906044016020604051808303816000875af1158015611db3573d6000803e3d6000fd5b505050506040513d601f19601f82011682018060405250810190611dd79190612583565b506040517fb6b55f250000000000000000000000000000000000000000000000000000000081526004810182905273ffffffffffffffffffffffffffffffffffffffff83169063b6b55f2590602401600060405180830381600087803b158015611e4057600080fd5b505af1158015611e54573d6000803e3d6000fd5b50505050505050565b6040805173ffffffffffffffffffffffffffffffffffffffff848116602483015260448083018590528351808403909101815260649092018352602080830180517bffffffffffffffffffffffffffffffffffffffffffffffffffffffff167fa9059cbb0000000000000000000000000000000000000000000000000000000017905283518085019094528084527f5361666545524332303a206c6f772d6c6576656c2063616c6c206661696c65649084015261058592869291600091611f28918516908490611fd7565b8051909150156105855780806020019051810190611f469190612583565b610585576040517f08c379a000000000000000000000000000000000000000000000000000000000815260206004820152602a60248201527f5361666545524332303a204552433230206f7065726174696f6e20646964206e60448201527f6f7420737563636565640000000000000000000000000000000000000000000060648201526084015b60405180910390fd5b6060611fe68484600085611ff0565b90505b9392505050565b606082471015612082576040517f08c379a000000000000000000000000000000000000000000000000000000000815260206004820152602660248201527f416464726573733a20696e73756666696369656e742062616c616e636520666f60448201527f722063616c6c00000000000000000000000000000000000000000000000000006064820152608401611fce565b73ffffffffffffffffffffffffffffffffffffffff85163b612100576040517f08c379a000000000000000000000000000000000000000000000000000000000815260206004820152601d60248201527f416464726573733a2063616c6c20746f206e6f6e2d636f6e74726163740000006044820152606401611fce565b6000808673ffffffffffffffffffffffffffffffffffffffff168587604051612129919061276f565b60006040518083038185875af1925050503d8060008114612166576040519150601f19603f3d011682016040523d82523d6000602084013e61216b565b606091505b509150915061217b828286612186565b979650505050505050565b60608315612195575081611fe9565b8251156121a55782518084602001fd5b816040517f08c379a0000000000000000000000000000000000000000000000000000000008152600401611fce919061278b565b73ffffffffffffffffffffffffffffffffffffffff811681146121fb57600080fd5b50565b6000806040838503121561221157600080fd5b823561221c816121d9565b9150602083013561222c816121d9565b809150509250929050565b60006020828403121561224957600080fd5b8135611fe9816121d9565b60006020828403121561226657600080fd5b5035919050565b60008083601f84011261227f57600080fd5b50813567ffffffffffffffff81111561229757600080fd5b6020830191508360208260051b85010111156122b257600080fd5b9250929050565b600080600080604085870312156122cf57600080fd5b843567ffffffffffffffff808211156122e757600080fd5b6122f38883890161226d565b9096509450602087013591508082111561230c57600080fd5b506123198782880161226d565b95989497509550505050565b60008060006040848603121561233a57600080fd5b8335612345816121d9565b9250602084013567ffffffffffffffff81111561236157600080fd5b61236d8682870161226d565b9497909650939450505050565b6000806040838503121561238d57600080fd5b50508035926020909101359150565b600080600080606085870312156123b257600080fd5b84356123bd816121d9565b935060208501359250604085013567ffffffffffffffff808211156123e157600080fd5b818701915087601f8301126123f557600080fd5b81358181111561240457600080fd5b88602082850101111561241657600080fd5b95989497505060200194505050565b60005b83811015612440578181015183820152602001612428565b83811115610e085750506000910152565b60008151808452612469816020860160208601612425565b601f017fffffffffffffffffffffffffffffffffffffffffffffffffffffffffffffffe0169290920160200192915050565b8215158152604060208201526000611fe66040830184612451565b6000806000606084860312156124cb57600080fd5b83356124d6816121d9565b925060208401356124e6816121d9565b929592945050506040919091013590565b6000806040838503121561250a57600080fd5b8235612515816121d9565b946020939093013593505050565b60006020828403121561253557600080fd5b5051919050565b7f4e487b7100000000000000000000000000000000000000000000000000000000600052601160045260246000fd5b6000821982111561257e5761257e61253c565b500190565b60006020828403121561259557600080fd5b81518015158114611fe957600080fd5b7f4e487b7100000000000000000000000000000000000000000000000000000000600052603260045260246000fd5b73ffffffffffffffffffffffffffffffffffffffff848116825260406020808401829052908301849052600091859160608501845b8781101561263057843561261c816121d9565b841682529382019390820190600101612609565b5098975050505050505050565b7f4e487b7100000000000000000000000000000000000000000000000000000000600052604160045260246000fd5b6000602080838503121561267f57600080fd5b825167ffffffffffffffff8082111561269757600080fd5b818501915085601f8301126126ab57600080fd5b8151818111156126bd576126bd61263d565b8060051b6040517fffffffffffffffffffffffffffffffffffffffffffffffffffffffffffffffe0603f830116810181811085821117156127005761270061263d565b60405291825284820192508381018501918883111561271e57600080fd5b938501935b8285101561273c57845184529385019392850192612723565b98975050505050505050565b8183823760009101908152919050565b60008282101561276a5761276a61253c565b500390565b60008251612781818460208701612425565b9190910192915050565b602081526000611fe9602083018461245156fea2646970667358221220b9563f5584eaa361c3d02d82c33c8d825a684e45b06668666bc76e3b7254186d64736f6c634300080f0033",
  "devdoc": {
    "details": "based on Convex's VoterProxy smart contract      https://etherscan.io/address/0x989AEb4d175e16225E39E87d0D97A3360524AD80#code",
    "kind": "dev",
    "methods": {
      "balanceOfPool(address)": {
        "params": {
          "_gauge": "The gauge to check"
        },
        "returns": {
          "_0": "uint256 balance"
        }
      },
      "claimBal(address)": {
        "params": {
          "_gauge": "The gauge to claim from"
        },
        "returns": {
          "_0": "amount claimed"
        }
      },
      "claimFees(address,address[])": {
        "params": {
          "_distroContract": "The distro contract to claim from",
          "_tokens": "The tokens to claim"
        }
      },
      "createLock(uint256,uint256)": {
        "params": {
          "_unlockTime": "Epoch time when tokens unlock, rounded down to whole weeks",
          "_value": "The amount of BAL tokens to lock"
        }
      },
      "delegateVotingPower(address)": {
        "params": {
          "_delegateTo": "to whom we delegate voting power"
        }
      },
      "deposit(address,address)": {
        "params": {
          "_gauge": "The gauge to deposit to",
          "_token": "The address of the LP token"
        }
      },
      "execute(address,uint256,bytes)": {
        "params": {
          "_data": "calldata",
          "_to": "The address to call",
          "_value": "The ETH value to send"
        },
        "returns": {
          "_0": "The result of the call (bool, result)"
        }
      },
      "increaseAmount(uint256)": {
        "params": {
          "_value": "The amount of veBal tokens to increase"
        }
      },
      "increaseTime(uint256)": {
        "params": {
          "_value": "New epoch time for unlocking"
        }
      },
      "release()": {
        "details": "Only possible if the lock has expired"
      },
      "setDepositor(address)": {
        "details": "Only the owner can change the depositor",
        "params": {
          "_depositor": "The new depositor of the contract"
        }
      },
      "setOperator(address)": {
        "details": "Only the owner can change the operator      Current operator must be shutdown before changing the operator      Or we can set operator to address(0)",
        "params": {
          "_operator": "The new operator of the contract"
        }
      },
      "setOwner(address)": {
        "params": {
          "_newOwner": "The new owner of the contract"
        }
      },
      "voteMultipleGauges(address[],uint256[])": {
        "details": "Input arrays must have same length",
        "params": {
          "_gauges": "The gauges to vote for",
          "_weights": "The weights for a gauge in basis points (units of 0.01%). Minimal is 0.01%. Ignored if 0"
        }
      },
      "withdraw(address,address,uint256)": {
        "details": "If this contract doesn't have enough tokens it will withdraw them from gauge",
        "params": {
          "_amount": "The amount of tokens to withdraw",
          "_gauge": "The gauge to withdraw from",
          "_token": "ERC20 token address"
        }
      },
      "withdrawAll(address,address)": {
        "details": "If this contract doesn't have enough tokens it will withdraw them from gauge",
        "params": {
          "_gauge": "The gauge to withdraw from",
          "_token": "ERC20 token address"
        }
      },
      "withdrawWethBal(address,uint256)": {
        "details": "If contract doesn't have asked _amount tokens it will withdraw all tokens",
        "params": {
          "_amount": "The amount to withdraw",
          "_to": "send to address"
        }
      }
    },
    "title": "VoterProxy contract",
    "version": 1
  },
  "userdoc": {
    "kind": "user",
    "methods": {
      "balanceOfPool(address)": {
        "notice": "Balance of gauge"
      },
      "claimBal(address)": {
        "notice": "Claims VeBal tokens"
      },
      "claimFees(address,address[])": {
        "notice": "Claims fees"
      },
      "claimRewards(address)": {
        "notice": "Claims rewards_gauge The gauge to claim from"
      },
      "clearDelegate()": {
        "notice": "Clears delegation"
      },
      "createLock(uint256,uint256)": {
        "notice": "Locks BAL tokens to veBal"
      },
      "delegateVotingPower(address)": {
        "notice": "Delegates voting power to EOA so that it can vote on behalf of DAO off chain (Snapshot)"
      },
      "deposit(address,address)": {
        "notice": "Used to deposit tokens"
      },
      "execute(address,uint256,bytes)": {
        "notice": "Executes a call to `_to` with calldata `_data`"
      },
      "increaseAmount(uint256)": {
        "notice": "Increases amount of veBal tokens without modifying the unlock time"
      },
      "increaseTime(uint256)": {
        "notice": "Extend the unlock time"
      },
      "release()": {
        "notice": "Redeems veBal tokens"
      },
      "setDepositor(address)": {
        "notice": "Changes the depositor of the contract"
      },
      "setOperator(address)": {
        "notice": "Changes the operator of the contract"
      },
      "setOwner(address)": {
        "notice": "Used to change the owner of the contract"
      },
      "voteMultipleGauges(address[],uint256[])": {
        "notice": "Votes for multiple gauge weights"
      },
      "withdraw(address,address,uint256)": {
        "notice": "Used for withdrawing tokens"
      },
      "withdrawAll(address,address)": {
        "notice": "Used for withdrawing tokens"
      },
      "withdrawWethBal(address,uint256)": {
        "notice": "Used for withdrawing wethBal tokens to address"
      }
    },
    "version": 1
  },
  "storageLayout": {
    "storage": [
      {
        "astId": 6626,
        "contract": "contracts/VoterProxy.sol:VoterProxy",
        "label": "owner",
        "offset": 0,
        "slot": "0",
        "type": "t_address"
      },
      {
        "astId": 6628,
        "contract": "contracts/VoterProxy.sol:VoterProxy",
        "label": "operator",
        "offset": 0,
        "slot": "1",
        "type": "t_address"
      },
      {
        "astId": 6630,
        "contract": "contracts/VoterProxy.sol:VoterProxy",
        "label": "depositor",
        "offset": 0,
        "slot": "2",
        "type": "t_address"
      },
      {
        "astId": 6634,
        "contract": "contracts/VoterProxy.sol:VoterProxy",
        "label": "stashAccess",
        "offset": 0,
        "slot": "3",
        "type": "t_mapping(t_address,t_bool)"
      },
      {
        "astId": 6638,
        "contract": "contracts/VoterProxy.sol:VoterProxy",
        "label": "protectedTokens",
        "offset": 0,
        "slot": "4",
        "type": "t_mapping(t_address,t_bool)"
      }
    ],
    "types": {
      "t_address": {
        "encoding": "inplace",
        "label": "address",
        "numberOfBytes": "20"
      },
      "t_bool": {
        "encoding": "inplace",
        "label": "bool",
        "numberOfBytes": "1"
      },
      "t_mapping(t_address,t_bool)": {
        "encoding": "mapping",
        "key": "t_address",
        "label": "mapping(address => bool)",
        "numberOfBytes": "32",
        "value": "t_bool"
      }
    }
  }
}