{
  "_format": "hh-sol-artifact-1",
  "contractName": "VirtualBalanceWrapper",
  "sourceName": "contracts/VirtualBalanceRewardPool.sol",
  "abi": [
    {
      "inputs": [
        {
          "internalType": "address",
          "name": "account",
          "type": "address"
        }
      ],
      "name": "balanceOf",
      "outputs": [
        {
          "internalType": "uint256",
          "name": "",
          "type": "uint256"
        }
      ],
      "stateMutability": "view",
      "type": "function"
    },
    {
      "inputs": [],
      "name": "deposits",
      "outputs": [
        {
          "internalType": "contract IDeposit",
          "name": "",
          "type": "address"
        }
      ],
      "stateMutability": "view",
      "type": "function"
    },
    {
      "inputs": [],
      "name": "totalSupply",
      "outputs": [
        {
          "internalType": "uint256",
          "name": "",
          "type": "uint256"
        }
      ],
      "stateMutability": "view",
      "type": "function"
    }
  ],
  "bytecode": "0x608060405234801561001057600080fd5b50610210806100206000396000f3fe608060405234801561001057600080fd5b50600436106100415760003560e01c806318160ddd14610046578063323a5e0b1461006157806370a082311461008c575b600080fd5b61004e61009f565b6040519081526020015b60405180910390f35b600054610074906001600160a01b031681565b6040516001600160a01b039091168152602001610058565b61004e61009a366004610191565b61011c565b60008060009054906101000a90046001600160a01b03166001600160a01b03166318160ddd6040518163ffffffff1660e01b8152600401602060405180830381865afa1580156100f3573d6000803e3d6000fd5b505050506040513d601f19601f8201168201806040525081019061011791906101c1565b905090565b600080546040516370a0823160e01b81526001600160a01b038481166004830152909116906370a0823190602401602060405180830381865afa158015610167573d6000803e3d6000fd5b505050506040513d601f19601f8201168201806040525081019061018b91906101c1565b92915050565b6000602082840312156101a357600080fd5b81356001600160a01b03811681146101ba57600080fd5b9392505050565b6000602082840312156101d357600080fd5b505191905056fea2646970667358221220e2be7f7a46291c2fb8972e5620f509f35b3499500041c6cbd5f974fb5d08885f64736f6c634300080d0033",
  "linkReferences": {},
  "deployedLinkReferences": {}
}