{
  "_format": "hh-sol-artifact-1",
  "contractName": "VirtualBalanceRewardPool",
  "sourceName": "contracts/VirtualBalanceRewardPool.sol",
  "abi": [
    {
      "inputs": [
        {
          "internalType": "address",
          "name": "deposit_",
          "type": "address"
        },
        {
          "internalType": "address",
          "name": "reward_",
          "type": "address"
        },
        {
          "internalType": "address",
          "name": "op_",
          "type": "address"
        }
      ],
      "stateMutability": "nonpayable",
      "type": "constructor"
    },
    {
      "anonymous": false,
      "inputs": [
        {
          "indexed": false,
          "internalType": "uint256",
          "name": "reward",
          "type": "uint256"
        }
      ],
      "name": "RewardAdded",
      "type": "event"
    },
    {
      "anonymous": false,
      "inputs": [
        {
          "indexed": true,
          "internalType": "address",
          "name": "user",
          "type": "address"
        },
        {
          "indexed": false,
          "internalType": "uint256",
          "name": "reward",
          "type": "uint256"
        }
      ],
      "name": "RewardPaid",
      "type": "event"
    },
    {
      "anonymous": false,
      "inputs": [
        {
          "indexed": true,
          "internalType": "address",
          "name": "user",
          "type": "address"
        },
        {
          "indexed": false,
          "internalType": "uint256",
          "name": "amount",
          "type": "uint256"
        }
      ],
      "name": "Staked",
      "type": "event"
    },
    {
      "anonymous": false,
      "inputs": [
        {
          "indexed": true,
          "internalType": "address",
          "name": "user",
          "type": "address"
        },
        {
          "indexed": false,
          "internalType": "uint256",
          "name": "amount",
          "type": "uint256"
        }
      ],
      "name": "Withdrawn",
      "type": "event"
    },
    {
      "inputs": [
        {
          "internalType": "address",
          "name": "account",
          "type": "address"
        }
      ],
      "name": "balanceOf",
      "outputs": [
        {
          "internalType": "uint256",
          "name": "",
          "type": "uint256"
        }
      ],
      "stateMutability": "view",
      "type": "function"
    },
    {
      "inputs": [],
      "name": "currentRewards",
      "outputs": [
        {
          "internalType": "uint256",
          "name": "",
          "type": "uint256"
        }
      ],
      "stateMutability": "view",
      "type": "function"
    },
    {
      "inputs": [],
      "name": "deposits",
      "outputs": [
        {
          "internalType": "contract IDeposit",
          "name": "",
          "type": "address"
        }
      ],
      "stateMutability": "view",
      "type": "function"
    },
    {
      "inputs": [
        {
          "internalType": "uint256",
          "name": "_amount",
          "type": "uint256"
        }
      ],
      "name": "donate",
      "outputs": [
        {
          "internalType": "bool",
          "name": "",
          "type": "bool"
        }
      ],
      "stateMutability": "nonpayable",
      "type": "function"
    },
    {
      "inputs": [],
      "name": "duration",
      "outputs": [
        {
          "internalType": "uint256",
          "name": "",
          "type": "uint256"
        }
      ],
      "stateMutability": "view",
      "type": "function"
    },
    {
      "inputs": [
        {
          "internalType": "address",
          "name": "account",
          "type": "address"
        }
      ],
      "name": "earned",
      "outputs": [
        {
          "internalType": "uint256",
          "name": "",
          "type": "uint256"
        }
      ],
      "stateMutability": "view",
      "type": "function"
    },
    {
      "inputs": [],
      "name": "getReward",
      "outputs": [],
      "stateMutability": "nonpayable",
      "type": "function"
    },
    {
      "inputs": [
        {
          "internalType": "address",
          "name": "_account",
          "type": "address"
        }
      ],
      "name": "getReward",
      "outputs": [],
      "stateMutability": "nonpayable",
      "type": "function"
    },
    {
      "inputs": [],
      "name": "historicalRewards",
      "outputs": [
        {
          "internalType": "uint256",
          "name": "",
          "type": "uint256"
        }
      ],
      "stateMutability": "view",
      "type": "function"
    },
    {
      "inputs": [],
      "name": "lastTimeRewardApplicable",
      "outputs": [
        {
          "internalType": "uint256",
          "name": "",
          "type": "uint256"
        }
      ],
      "stateMutability": "view",
      "type": "function"
    },
    {
      "inputs": [],
      "name": "lastUpdateTime",
      "outputs": [
        {
          "internalType": "uint256",
          "name": "",
          "type": "uint256"
        }
      ],
      "stateMutability": "view",
      "type": "function"
    },
    {
      "inputs": [],
      "name": "newRewardRatio",
      "outputs": [
        {
          "internalType": "uint256",
          "name": "",
          "type": "uint256"
        }
      ],
      "stateMutability": "view",
      "type": "function"
    },
    {
      "inputs": [],
      "name": "operator",
      "outputs": [
        {
          "internalType": "address",
          "name": "",
          "type": "address"
        }
      ],
      "stateMutability": "view",
      "type": "function"
    },
    {
      "inputs": [],
      "name": "periodFinish",
      "outputs": [
        {
          "internalType": "uint256",
          "name": "",
          "type": "uint256"
        }
      ],
      "stateMutability": "view",
      "type": "function"
    },
    {
      "inputs": [
        {
          "internalType": "uint256",
          "name": "_rewards",
          "type": "uint256"
        }
      ],
      "name": "queueNewRewards",
      "outputs": [],
      "stateMutability": "nonpayable",
      "type": "function"
    },
    {
      "inputs": [],
      "name": "queuedRewards",
      "outputs": [
        {
          "internalType": "uint256",
          "name": "",
          "type": "uint256"
        }
      ],
      "stateMutability": "view",
      "type": "function"
    },
    {
      "inputs": [],
      "name": "rewardPerToken",
      "outputs": [
        {
          "internalType": "uint256",
          "name": "",
          "type": "uint256"
        }
      ],
      "stateMutability": "view",
      "type": "function"
    },
    {
      "inputs": [],
      "name": "rewardPerTokenStored",
      "outputs": [
        {
          "internalType": "uint256",
          "name": "",
          "type": "uint256"
        }
      ],
      "stateMutability": "view",
      "type": "function"
    },
    {
      "inputs": [],
      "name": "rewardRate",
      "outputs": [
        {
          "internalType": "uint256",
          "name": "",
          "type": "uint256"
        }
      ],
      "stateMutability": "view",
      "type": "function"
    },
    {
      "inputs": [],
      "name": "rewardToken",
      "outputs": [
        {
          "internalType": "contract IERC20",
          "name": "",
          "type": "address"
        }
      ],
      "stateMutability": "view",
      "type": "function"
    },
    {
      "inputs": [
        {
          "internalType": "address",
          "name": "",
          "type": "address"
        }
      ],
      "name": "rewards",
      "outputs": [
        {
          "internalType": "uint256",
          "name": "",
          "type": "uint256"
        }
      ],
      "stateMutability": "view",
      "type": "function"
    },
    {
      "inputs": [
        {
          "internalType": "address",
          "name": "_account",
          "type": "address"
        },
        {
          "internalType": "uint256",
          "name": "amount",
          "type": "uint256"
        }
      ],
      "name": "stake",
      "outputs": [],
      "stateMutability": "nonpayable",
      "type": "function"
    },
    {
      "inputs": [],
      "name": "totalSupply",
      "outputs": [
        {
          "internalType": "uint256",
          "name": "",
          "type": "uint256"
        }
      ],
      "stateMutability": "view",
      "type": "function"
    },
    {
      "inputs": [
        {
          "internalType": "address",
          "name": "",
          "type": "address"
        }
      ],
      "name": "userRewardPerTokenPaid",
      "outputs": [
        {
          "internalType": "uint256",
          "name": "",
          "type": "uint256"
        }
      ],
      "stateMutability": "view",
      "type": "function"
    },
    {
      "inputs": [
        {
          "internalType": "address",
          "name": "_account",
          "type": "address"
        },
        {
          "internalType": "uint256",
          "name": "amount",
          "type": "uint256"
        }
      ],
      "name": "withdraw",
      "outputs": [],
      "stateMutability": "nonpayable",
      "type": "function"
    }
  ],
  "bytecode": "0x60806040526000600355600060045560006007556000600855600060095561033e600a5534801561002f57600080fd5b5060405161101d38038061101d83398101604081905261004e916100ac565b600080546001600160a01b039485166001600160a01b0319918216179091556001805493851693821693909317909255600280549190931691161790556100ef565b80516001600160a01b03811681146100a757600080fd5b919050565b6000806000606084860312156100c157600080fd5b6100ca84610090565b92506100d860208501610090565b91506100e660408501610090565b90509250925092565b610f1f806100fe6000396000f3fe608060405234801561001057600080fd5b50600436106101725760003560e01c80637b0a47ee116100de578063c8f33c9111610097578063ebe2b12b11610071578063ebe2b12b146102d2578063f14faf6f146102db578063f3fef3a3146102fe578063f7c618c11461031157600080fd5b8063c8f33c91146102b8578063cd3daf9d146102c1578063df136d65146102c957600080fd5b80637b0a47ee1461025857806380faa57d146102615780638b87634714610269578063901a7d5314610289578063adc9772e14610292578063c00007b0146102a557600080fd5b80633d18b912116101305780633d18b91214610203578063570ca7351461020d578063590a41f51461022057806363d38c3b146102335780636c8bcee81461023c57806370a082311461024557600080fd5b80628cc262146101775780630700037d1461019d5780630fb5a6b4146101bd57806318160ddd146101c7578063262d3d6d146101cf578063323a5e0b146101d8575b600080fd5b61018a610185366004610d2a565b610324565b6040519081526020015b60405180910390f35b61018a6101ab366004610d2a565b600c6020526000908152604090205481565b61018a62093a8081565b61018a610392565b61018a60095481565b6000546101eb906001600160a01b031681565b6040516001600160a01b039091168152602001610194565b61020b61040f565b005b6002546101eb906001600160a01b031681565b61020b61022e366004610d45565b61041a565b61018a60075481565b61018a600a5481565b61018a610253366004610d2a565b6104ec565b61018a60045481565b61018a61055b565b61018a610277366004610d2a565b600b6020526000908152604090205481565b61018a60085481565b61020b6102a0366004610d5e565b610569565b61020b6102b3366004610d2a565b610697565b61018a60055481565b61018a61076e565b61018a60065481565b61018a60035481565b6102ee6102e9366004610d45565b6107bd565b6040519015158152602001610194565b61020b61030c366004610d5e565b6107ed565b6001546101eb906001600160a01b031681565b6001600160a01b0381166000908152600c6020908152604080832054600b90925282205461038c919061038690670de0b6b3a764000090610380906103719061036b61076e565b906108ad565b61037a886104ec565b906108c0565b906108cc565b906108d8565b92915050565b60008060009054906101000a90046001600160a01b03166001600160a01b03166318160ddd6040518163ffffffff1660e01b8152600401602060405180830381865afa1580156103e6573d6000803e3d6000fd5b505050506040513d601f19601f8201168201806040525081019061040a9190610d88565b905090565b61041833610697565b565b6002546001600160a01b0316331461044d5760405162461bcd60e51b815260040161044490610da1565b60405180910390fd5b60075461045b9082906108d8565b905060035442106104775761046f816108e4565b506000600755565b600061049b61049462093a806003546108ad90919063ffffffff16565b42906108ad565b90506000816004546104ad9190610ddc565b905060006104c184610380846103e86108c0565b9050600a548110156104e0576104d6846108e4565b60006007556104e6565b60078490555b50505050565b600080546040516370a0823160e01b81526001600160a01b038481166004830152909116906370a0823190602401602060405180830381865afa158015610537573d6000803e3d6000fd5b505050506040513d601f19601f8201168201806040525081019061038c9190610d88565b600061040a42600354610a0a565b8161057261076e565b60065561057d61055b565b6005556001600160a01b038116156105c45761059881610324565b6001600160a01b0382166000908152600c6020908152604080832093909355600654600b909152919020555b6000546001600160a01b031633146105ee5760405162461bcd60e51b815260040161044490610da1565b6000821161064f5760405162461bcd60e51b815260206004820152602860248201527f5669727475616c4465706f736974526577617264506f6f6c3a2043616e6e6f746044820152670207374616b6520360c41b6064820152608401610444565b826001600160a01b03167f9e71bc8eea02a63969f509818f2dafb9254532904319f9dbda79b67bd34a5f3d8360405161068a91815260200190565b60405180910390a2505050565b806106a061076e565b6006556106ab61055b565b6005556001600160a01b038116156106f2576106c681610324565b6001600160a01b0382166000908152600c6020908152604080832093909355600654600b909152919020555b60006106fd83610324565b90508015610769576001600160a01b038084166000908152600c602052604081205560015461072e91168483610a20565b826001600160a01b03167fe2403640ba68fed3a2f88b7557551d1993f84b99bb10ff833f0cf8db0c5e04868260405161068a91815260200190565b505050565b6000610778610392565b600003610786575060065490565b61040a6107b4610794610392565b610380670de0b6b3a764000061037a60045461037a60055461036b61055b565b600654906108d8565b6001546000906107d8906001600160a01b0316333085610a83565b6007546107e590836108d8565b600755919050565b816107f661076e565b60065561080161055b565b6005556001600160a01b038116156108485761081c81610324565b6001600160a01b0382166000908152600c6020908152604080832093909355600654600b909152919020555b6000546001600160a01b031633146108725760405162461bcd60e51b815260040161044490610da1565b826001600160a01b03167f7084f5476618d8e60b11ef0d7d3f06914655adb8793e28ff7f018d4c76d505d58360405161068a91815260200190565b60006108b98284610dfb565b9392505050565b60006108b98284610ddc565b60006108b98284610e12565b60006108b98284610e34565b60006108ee61076e565b6006556108f961055b565b6005556001600160a01b038116156109405761091481610324565b6001600160a01b0382166000908152600c6020908152604080832093909355600654600b909152919020555b60095461094d90836108d8565b600955600354421061096e576109668262093a806108cc565b6004556109b8565b60035460009061097e90426108ad565b90506000610997600454836108c090919063ffffffff16565b90506109a384826108d8565b93506109b28462093a806108cc565b60045550505b60088290554260058190556109d09062093a806108d8565b6003556040518281527fde88a922e0d3b88b24e9623efeb464919c6bf9f66857a65e2bfcf2ce87a9433d9060200160405180910390a15050565b6000818310610a1957816108b9565b5090919050565b6040516001600160a01b03831660248201526044810182905261076990849063a9059cbb60e01b906064015b60408051601f198184030181529190526020810180516001600160e01b03166001600160e01b031990931692909217909152610abb565b6040516001600160a01b03808516602483015283166044820152606481018290526104e69085906323b872dd60e01b90608401610a4c565b6000610b10826040518060400160405280602081526020017f5361666545524332303a206c6f772d6c6576656c2063616c6c206661696c6564815250856001600160a01b0316610b8d9092919063ffffffff16565b8051909150156107695780806020019051810190610b2e9190610e4c565b6107695760405162461bcd60e51b815260206004820152602a60248201527f5361666545524332303a204552433230206f7065726174696f6e20646964206e6044820152691bdd081cdd58d8d9595960b21b6064820152608401610444565b6060610b9c8484600085610ba4565b949350505050565b606082471015610c055760405162461bcd60e51b815260206004820152602660248201527f416464726573733a20696e73756666696369656e742062616c616e636520666f6044820152651c8818d85b1b60d21b6064820152608401610444565b6001600160a01b0385163b610c5c5760405162461bcd60e51b815260206004820152601d60248201527f416464726573733a2063616c6c20746f206e6f6e2d636f6e74726163740000006044820152606401610444565b600080866001600160a01b03168587604051610c789190610e9a565b60006040518083038185875af1925050503d8060008114610cb5576040519150601f19603f3d011682016040523d82523d6000602084013e610cba565b606091505b5091509150610cca828286610cd5565b979650505050505050565b60608315610ce45750816108b9565b825115610cf45782518084602001fd5b8160405162461bcd60e51b81526004016104449190610eb6565b80356001600160a01b0381168114610d2557600080fd5b919050565b600060208284031215610d3c57600080fd5b6108b982610d0e565b600060208284031215610d5757600080fd5b5035919050565b60008060408385031215610d7157600080fd5b610d7a83610d0e565b946020939093013593505050565b600060208284031215610d9a57600080fd5b5051919050565b6020808252600b908201526a08585d5d1a1bdc9a5e995960aa1b604082015260600190565b634e487b7160e01b600052601160045260246000fd5b6000816000190483118215151615610df657610df6610dc6565b500290565b600082821015610e0d57610e0d610dc6565b500390565b600082610e2f57634e487b7160e01b600052601260045260246000fd5b500490565b60008219821115610e4757610e47610dc6565b500190565b600060208284031215610e5e57600080fd5b815180151581146108b957600080fd5b60005b83811015610e89578181015183820152602001610e71565b838111156104e65750506000910152565b60008251610eac818460208701610e6e565b9190910192915050565b6020815260008251806020840152610ed5816040850160208701610e6e565b601f01601f1916919091016040019291505056fea264697066735822122024dc5e8600fa17eb713529ff8841d65da58e42b19903103888d3383e8a8525db64736f6c634300080d0033",
  "linkReferences": {},
  "deployedLinkReferences": {}
}