{
  "address": "0x69209cb455381EF4c7aF5A7a998B8093EB91Cfa1",
  "abi": [
    {
      "inputs": [
        {
          "internalType": "uint256",
          "name": "pid_",
          "type": "uint256"
        },
        {
          "internalType": "address",
          "name": "stakingToken_",
          "type": "address"
        },
        {
          "internalType": "address",
          "name": "rewardToken_",
          "type": "address"
        },
        {
          "internalType": "address",
          "name": "operator_",
          "type": "address"
        },
        {
          "internalType": "address",
          "name": "rewardManager_",
          "type": "address"
        }
      ],
      "stateMutability": "nonpayable",
      "type": "constructor"
    },
    {
      "inputs": [],
      "name": "InvalidAmount",
      "type": "error"
    },
    {
      "inputs": [],
      "name": "Unauthorized",
      "type": "error"
    },
    {
      "anonymous": false,
      "inputs": [
        {
          "indexed": false,
          "internalType": "uint256",
          "name": "reward",
          "type": "uint256"
        }
      ],
      "name": "RewardAdded",
      "type": "event"
    },
    {
      "anonymous": false,
      "inputs": [
        {
          "indexed": true,
          "internalType": "address",
          "name": "user",
          "type": "address"
        },
        {
          "indexed": false,
          "internalType": "uint256",
          "name": "reward",
          "type": "uint256"
        }
      ],
      "name": "RewardPaid",
      "type": "event"
    },
    {
      "anonymous": false,
      "inputs": [
        {
          "indexed": true,
          "internalType": "address",
          "name": "user",
          "type": "address"
        },
        {
          "indexed": false,
          "internalType": "uint256",
          "name": "amount",
          "type": "uint256"
        }
      ],
      "name": "Staked",
      "type": "event"
    },
    {
      "anonymous": false,
      "inputs": [
        {
          "indexed": true,
          "internalType": "address",
          "name": "user",
          "type": "address"
        },
        {
          "indexed": false,
          "internalType": "uint256",
          "name": "amount",
          "type": "uint256"
        }
      ],
      "name": "Withdrawn",
      "type": "event"
    },
    {
      "inputs": [],
      "name": "DURATION",
      "outputs": [
        {
          "internalType": "uint256",
          "name": "",
          "type": "uint256"
        }
      ],
      "stateMutability": "view",
      "type": "function"
    },
    {
      "inputs": [],
      "name": "NEW_REWARD_RATIO",
      "outputs": [
        {
          "internalType": "uint256",
          "name": "",
          "type": "uint256"
        }
      ],
      "stateMutability": "view",
      "type": "function"
    },
    {
      "inputs": [
        {
          "internalType": "address",
          "name": "_reward",
          "type": "address"
        }
      ],
      "name": "addExtraReward",
      "outputs": [
        {
          "internalType": "bool",
          "name": "",
          "type": "bool"
        }
      ],
      "stateMutability": "nonpayable",
      "type": "function"
    },
    {
      "inputs": [
        {
          "internalType": "address",
          "name": "account",
          "type": "address"
        }
      ],
      "name": "balanceOf",
      "outputs": [
        {
          "internalType": "uint256",
          "name": "",
          "type": "uint256"
        }
      ],
      "stateMutability": "view",
      "type": "function"
    },
    {
      "inputs": [],
      "name": "currentRewards",
      "outputs": [
        {
          "internalType": "uint256",
          "name": "",
          "type": "uint256"
        }
      ],
      "stateMutability": "view",
      "type": "function"
    },
    {
      "inputs": [
        {
          "internalType": "uint256",
          "name": "_amount",
          "type": "uint256"
        }
      ],
      "name": "donate",
      "outputs": [
        {
          "internalType": "bool",
          "name": "",
          "type": "bool"
        }
      ],
      "stateMutability": "nonpayable",
      "type": "function"
    },
    {
      "inputs": [
        {
          "internalType": "address",
          "name": "account",
          "type": "address"
        }
      ],
      "name": "earned",
      "outputs": [
        {
          "internalType": "uint256",
          "name": "",
          "type": "uint256"
        }
      ],
      "stateMutability": "view",
      "type": "function"
    },
    {
      "inputs": [
        {
          "internalType": "uint256",
          "name": "",
          "type": "uint256"
        }
      ],
      "name": "extraRewards",
      "outputs": [
        {
          "internalType": "address",
          "name": "",
          "type": "address"
        }
      ],
      "stateMutability": "view",
      "type": "function"
    },
    {
      "inputs": [],
      "name": "extraRewardsLength",
      "outputs": [
        {
          "internalType": "uint256",
          "name": "",
          "type": "uint256"
        }
      ],
      "stateMutability": "view",
      "type": "function"
    },
    {
      "inputs": [],
      "name": "getReward",
      "outputs": [
        {
          "internalType": "bool",
          "name": "",
          "type": "bool"
        }
      ],
      "stateMutability": "nonpayable",
      "type": "function"
    },
    {
      "inputs": [
        {
          "internalType": "address",
          "name": "_account",
          "type": "address"
        },
        {
          "internalType": "bool",
          "name": "_claimExtras",
          "type": "bool"
        }
      ],
      "name": "getReward",
      "outputs": [
        {
          "internalType": "bool",
          "name": "",
          "type": "bool"
        }
      ],
      "stateMutability": "nonpayable",
      "type": "function"
    },
    {
      "inputs": [],
      "name": "historicalRewards",
      "outputs": [
        {
          "internalType": "uint256",
          "name": "",
          "type": "uint256"
        }
      ],
      "stateMutability": "view",
      "type": "function"
    },
    {
      "inputs": [],
      "name": "lastTimeRewardApplicable",
      "outputs": [
        {
          "internalType": "uint256",
          "name": "",
          "type": "uint256"
        }
      ],
      "stateMutability": "view",
      "type": "function"
    },
    {
      "inputs": [],
      "name": "lastUpdateTime",
      "outputs": [
        {
          "internalType": "uint256",
          "name": "",
          "type": "uint256"
        }
      ],
      "stateMutability": "view",
      "type": "function"
    },
    {
      "inputs": [],
      "name": "operator",
      "outputs": [
        {
          "internalType": "address",
          "name": "",
          "type": "address"
        }
      ],
      "stateMutability": "view",
      "type": "function"
    },
    {
      "inputs": [],
      "name": "periodFinish",
      "outputs": [
        {
          "internalType": "uint256",
          "name": "",
          "type": "uint256"
        }
      ],
      "stateMutability": "view",
      "type": "function"
    },
    {
      "inputs": [],
      "name": "pid",
      "outputs": [
        {
          "internalType": "uint256",
          "name": "",
          "type": "uint256"
        }
      ],
      "stateMutability": "view",
      "type": "function"
    },
    {
      "inputs": [
        {
          "internalType": "uint256",
          "name": "_rewards",
          "type": "uint256"
        }
      ],
      "name": "queueNewRewards",
      "outputs": [
        {
          "internalType": "bool",
          "name": "",
          "type": "bool"
        }
      ],
      "stateMutability": "nonpayable",
      "type": "function"
    },
    {
      "inputs": [],
      "name": "queuedRewards",
      "outputs": [
        {
          "internalType": "uint256",
          "name": "",
          "type": "uint256"
        }
      ],
      "stateMutability": "view",
      "type": "function"
    },
    {
      "inputs": [],
      "name": "rewardManager",
      "outputs": [
        {
          "internalType": "address",
          "name": "",
          "type": "address"
        }
      ],
      "stateMutability": "view",
      "type": "function"
    },
    {
      "inputs": [],
      "name": "rewardPerToken",
      "outputs": [
        {
          "internalType": "uint256",
          "name": "",
          "type": "uint256"
        }
      ],
      "stateMutability": "view",
      "type": "function"
    },
    {
      "inputs": [],
      "name": "rewardPerTokenStored",
      "outputs": [
        {
          "internalType": "uint256",
          "name": "",
          "type": "uint256"
        }
      ],
      "stateMutability": "view",
      "type": "function"
    },
    {
      "inputs": [],
      "name": "rewardRate",
      "outputs": [
        {
          "internalType": "uint256",
          "name": "",
          "type": "uint256"
        }
      ],
      "stateMutability": "view",
      "type": "function"
    },
    {
      "inputs": [],
      "name": "rewardToken",
      "outputs": [
        {
          "internalType": "contract IERC20",
          "name": "",
          "type": "address"
        }
      ],
      "stateMutability": "view",
      "type": "function"
    },
    {
      "inputs": [
        {
          "internalType": "address",
          "name": "",
          "type": "address"
        }
      ],
      "name": "rewards",
      "outputs": [
        {
          "internalType": "uint256",
          "name": "",
          "type": "uint256"
        }
      ],
      "stateMutability": "view",
      "type": "function"
    },
    {
      "inputs": [
        {
          "internalType": "uint256",
          "name": "_amount",
          "type": "uint256"
        }
      ],
      "name": "stake",
      "outputs": [
        {
          "internalType": "bool",
          "name": "",
          "type": "bool"
        }
      ],
      "stateMutability": "nonpayable",
      "type": "function"
    },
    {
      "inputs": [],
      "name": "stakeAll",
      "outputs": [
        {
          "internalType": "bool",
          "name": "",
          "type": "bool"
        }
      ],
      "stateMutability": "nonpayable",
      "type": "function"
    },
    {
      "inputs": [
        {
          "internalType": "address",
          "name": "_for",
          "type": "address"
        },
        {
          "internalType": "uint256",
          "name": "_amount",
          "type": "uint256"
        }
      ],
      "name": "stakeFor",
      "outputs": [
        {
          "internalType": "bool",
          "name": "",
          "type": "bool"
        }
      ],
      "stateMutability": "nonpayable",
      "type": "function"
    },
    {
      "inputs": [],
      "name": "stakingToken",
      "outputs": [
        {
          "internalType": "contract IERC20",
          "name": "",
          "type": "address"
        }
      ],
      "stateMutability": "view",
      "type": "function"
    },
    {
      "inputs": [],
      "name": "totalSupply",
      "outputs": [
        {
          "internalType": "uint256",
          "name": "",
          "type": "uint256"
        }
      ],
      "stateMutability": "view",
      "type": "function"
    },
    {
      "inputs": [
        {
          "internalType": "address",
          "name": "",
          "type": "address"
        }
      ],
      "name": "userRewardPerTokenPaid",
      "outputs": [
        {
          "internalType": "uint256",
          "name": "",
          "type": "uint256"
        }
      ],
      "stateMutability": "view",
      "type": "function"
    },
    {
      "inputs": [
        {
          "internalType": "uint256",
          "name": "_amount",
          "type": "uint256"
        },
        {
          "internalType": "bool",
          "name": "_claim",
          "type": "bool"
        }
      ],
      "name": "withdraw",
      "outputs": [
        {
          "internalType": "bool",
          "name": "",
          "type": "bool"
        }
      ],
      "stateMutability": "nonpayable",
      "type": "function"
    },
    {
      "inputs": [
        {
          "internalType": "bool",
          "name": "_claim",
          "type": "bool"
        }
      ],
      "name": "withdrawAll",
      "outputs": [],
      "stateMutability": "nonpayable",
      "type": "function"
    },
    {
      "inputs": [
        {
          "internalType": "bool",
          "name": "_claim",
          "type": "bool"
        }
      ],
      "name": "withdrawAllAndUnwrap",
      "outputs": [],
      "stateMutability": "nonpayable",
      "type": "function"
    },
    {
      "inputs": [
        {
          "internalType": "uint256",
          "name": "_amount",
          "type": "uint256"
        },
        {
          "internalType": "bool",
          "name": "_claim",
          "type": "bool"
        }
      ],
      "name": "withdrawAndUnwrap",
      "outputs": [
        {
          "internalType": "bool",
          "name": "",
          "type": "bool"
        }
      ],
      "stateMutability": "nonpayable",
      "type": "function"
    }
  ],
  "transactionHash": "0xf394682f09138acdd72884df2f672f401fbfd136f2d1a74ac1e2f897c97b6978",
  "args": [
    0,
    "0xDcEa7fD5d32489f17F2692CA886b757b9443306D",
    "0xcb355677e36f390ccc4a5d4beadfbf1eb2071c81",
    "0xC50F287ec1d60EB89412589f90D807e29Ee4E7fd",
    "0x8177e4479D0ea3308Bc71Fb3034a2b8af37658f3"
  ],
  "solcInputHash": "e3e766566fe34d0ad4122b4efba89aaf",
  "bytecode": "0x6101006040523480156200001257600080fd5b5060405162001e1338038062001e1383398101604081905262000035916200007b565b6000949094556001600160a01b0392831660a052908216608052811660c0521660e052620000e2565b80516001600160a01b03811681146200007657600080fd5b919050565b600080600080600060a086880312156200009457600080fd5b85519450620000a6602087016200005e565b9350620000b6604087016200005e565b9250620000c6606087016200005e565b9150620000d6608087016200005e565b90509295509295909350565b60805160a05160c05160e051611cb162000162600039600081816102900152610b8401526000818161037901528181610a6601528181610e9f01526114a9015260008181610418015281816107290152818161093b015281816110e301526112b00152600081816104ee01528181610dd801526115dc0152611cb16000f3fe608060405234801561001057600080fd5b50600436106102405760003560e01c80637050ccd911610145578063c32e7202116100bd578063df136d651161008c578063f106845411610071578063f1068454146104cd578063f14faf6f146104d6578063f7c618c1146104e957600080fd5b8063df136d65146104bb578063ebe2b12b146104c457600080fd5b8063c32e72021461048f578063c8f33c91146104a2578063cd3daf9d146104ab578063d55a23f4146104b357600080fd5b806380faa57d116101145780638dcb4061116100f95780638dcb40611461046b578063901a7d5314610473578063a694fc3a1461047c57600080fd5b806380faa57d146104435780638b8763471461044b57600080fd5b80637050ccd9146103ca57806370a08231146103dd57806372f702f3146104135780637b0a47ee1461043a57600080fd5b806338d07436116101d85780634cfe2f4a116101a7578063590a41f51161018c578063590a41f51461039b5780635e43c47b146103ae57806363d38c3b146103c157600080fd5b80634cfe2f4a1461036b578063570ca7351461037457600080fd5b806338d074361461032a5780633d18b9121461033d57806340c354461461034557806349f039a21461035857600080fd5b80631be05289116102145780631be05289146102df5780631c1c6fe5146102e9578063262d3d6d146102fe5780632ee409081461030757600080fd5b80628cc262146102455780630700037d1461026b5780630f4ef8a61461028b57806318160ddd146102d7575b600080fd5b610258610253366004611a58565b610510565b6040519081526020015b60405180910390f35b610258610279366004611a58565b600a6020526000908152604090205481565b6102b27f000000000000000000000000000000000000000000000000000000000000000081565b60405173ffffffffffffffffffffffffffffffffffffffff9091168152602001610262565b600854610258565b61025862093a8081565b6102fc6102f7366004611a84565b6105a7565b005b61025860075481565b61031a610315366004611aa1565b6105c5565b6040519015158152602001610262565b61031a610338366004611acb565b6107f3565b61031a6109fc565b6102b2610353366004611afb565b610a11565b6102fc610366366004611a84565b610a48565b61025861033e81565b6102b27f000000000000000000000000000000000000000000000000000000000000000081565b61031a6103a9366004611afb565b610a62565b61031a6103bc366004611a58565b610b80565b61025860055481565b61031a6103d8366004611b14565b610cee565b6102586103eb366004611a58565b73ffffffffffffffffffffffffffffffffffffffff166000908152600b602052604090205490565b6102b27f000000000000000000000000000000000000000000000000000000000000000081565b61025860025481565b610258611088565b610258610459366004611a58565b60096020526000908152604090205481565b61031a61109b565b61025860065481565b61031a61048a366004611afb565b611162565b61031a61049d366004611acb565b61135c565b61025860035481565b610258611537565b600c54610258565b61025860045481565b61025860015481565b61025860005481565b61031a6104e4366004611afb565b61159e565b6102b27f000000000000000000000000000000000000000000000000000000000000000081565b73ffffffffffffffffffffffffffffffffffffffff81166000908152600a60209081526040808320546009909252822054670de0b6b3a764000090610553611537565b61055d9190611b6f565b73ffffffffffffffffffffffffffffffffffffffff85166000908152600b602052604090205461058d9190611b86565b6105979190611bc3565b6105a19190611bfe565b92915050565b336000908152600b60205260409020546105c190826107f3565b5050565b6000826105d0611537565b6004556105db611088565b60035573ffffffffffffffffffffffffffffffffffffffff81161561063c5761060381610510565b73ffffffffffffffffffffffffffffffffffffffff82166000908152600a60209081526040808320939093556004546009909152919020555b6001831015610677576040517f2c5211c600000000000000000000000000000000000000000000000000000000815260040160405180910390fd5b6106818484611678565b8260085461068f9190611bfe565b60085573ffffffffffffffffffffffffffffffffffffffff84166000908152600b60205260409020546106c3908490611bfe565b73ffffffffffffffffffffffffffffffffffffffff8581166000908152600b6020526040908190209290925590517f23b872dd000000000000000000000000000000000000000000000000000000008152336004820152306024820152604481018590527f0000000000000000000000000000000000000000000000000000000000000000909116906323b872dd906064016020604051808303816000875af1158015610774573d6000803e3d6000fd5b505050506040513d601f19601f820116820180604052508101906107989190611c16565b508373ffffffffffffffffffffffffffffffffffffffff167f9e71bc8eea02a63969f509818f2dafb9254532904319f9dbda79b67bd34a5f3d846040516107e191815260200190565b60405180910390a25060019392505050565b6000336107fe611537565b600455610809611088565b60035573ffffffffffffffffffffffffffffffffffffffff81161561086a5761083181610510565b73ffffffffffffffffffffffffffffffffffffffff82166000908152600a60209081526040808320939093556004546009909152919020555b60018410156108a5576040517f2c5211c600000000000000000000000000000000000000000000000000000000815260040160405180910390fd5b6108af33856117ad565b836008546108bd9190611b6f565b600855336000908152600b60205260409020546108db908590611b6f565b336000818152600b6020526040908190209290925590517fa9059cbb00000000000000000000000000000000000000000000000000000000815260048101919091526024810185905273ffffffffffffffffffffffffffffffffffffffff7f0000000000000000000000000000000000000000000000000000000000000000169063a9059cbb906044016020604051808303816000875af1158015610984573d6000803e3d6000fd5b505050506040513d601f19601f820116820180604052508101906109a89190611c16565b5060405184815233907f7084f5476618d8e60b11ef0d7d3f06914655adb8793e28ff7f018d4c76d505d5906020015b60405180910390a282156109f2576109f0336001610cee565b505b5060019392505050565b6000610a09336001610cee565b506001905090565b600c8181548110610a2157600080fd5b60009182526020909120015473ffffffffffffffffffffffffffffffffffffffff16905081565b336000908152600b60205260409020546105c1908261135c565b60007f00000000000000000000000000000000000000000000000000000000000000003373ffffffffffffffffffffffffffffffffffffffff821614610ad4576040517f82b4290000000000000000000000000000000000000000000000000000000000815260040160405180910390fd5b600554610ae19084611bfe565b92506001544210610b0357610af5836118dc565b600060055560019150610b7a565b600062093a80600154610b169190611b6f565b610b209042611b6f565b9050600081600254610b329190611b86565b9050600085610b43836103e8611b86565b610b4d9190611bc3565b905061033e811015610b6c57610b62866118dc565b6000600555610b72565b60058690555b600194505050505b50919050565b60007f00000000000000000000000000000000000000000000000000000000000000003373ffffffffffffffffffffffffffffffffffffffff821614610bf2576040517f82b4290000000000000000000000000000000000000000000000000000000000815260040160405180910390fd5b73ffffffffffffffffffffffffffffffffffffffff8316610c73576040517f08c379a000000000000000000000000000000000000000000000000000000000815260206004820152600f60248201527f217265776172642073657474696e670000000000000000000000000000000000604482015260640160405180910390fd5b600c8054600181810183556000929092527fdf6966c971051c3d54ec59162606531493a51404a002842f56009d7e5cf4a8c701805473ffffffffffffffffffffffffffffffffffffffff86167fffffffffffffffffffffffff0000000000000000000000000000000000000000909116179055915050919050565b600082610cf9611537565b600455610d04611088565b60035573ffffffffffffffffffffffffffffffffffffffff811615610d6557610d2c81610510565b73ffffffffffffffffffffffffffffffffffffffff82166000908152600a60209081526040808320939093556004546009909152919020555b6000610d7085610510565b90508015610f4c5773ffffffffffffffffffffffffffffffffffffffff8581166000818152600a602052604080822091909155517fa9059cbb0000000000000000000000000000000000000000000000000000000081526004810191909152602481018390527f00000000000000000000000000000000000000000000000000000000000000009091169063a9059cbb906044016020604051808303816000875af1158015610e23573d6000803e3d6000fd5b505050506040513d601f19601f82011682018060405250810190610e479190611c16565b506000546040517f71192b17000000000000000000000000000000000000000000000000000000008152600481019190915273ffffffffffffffffffffffffffffffffffffffff8681166024830152604482018390527f000000000000000000000000000000000000000000000000000000000000000016906371192b1790606401600060405180830381600087803b158015610ee357600080fd5b505af1158015610ef7573d6000803e3d6000fd5b505050508473ffffffffffffffffffffffffffffffffffffffff167fe2403640ba68fed3a2f88b7557551d1993f84b99bb10ff833f0cf8db0c5e048682604051610f4391815260200190565b60405180910390a25b831561107d576000600c805480602002602001604051908101604052809291908181526020018280548015610fb757602002820191906000526020600020905b815473ffffffffffffffffffffffffffffffffffffffff168152600190910190602001808311610f8c575b5050505050905060005b815181101561107a57818181518110610fdc57610fdc611c33565b60209081029190910101516040517fc00007b000000000000000000000000000000000000000000000000000000000815273ffffffffffffffffffffffffffffffffffffffff89811660048301529091169063c00007b090602401600060405180830381600087803b15801561105157600080fd5b505af1158015611065573d6000803e3d6000fd5b505050506110738160010190565b9050610fc1565b50505b506001949350505050565b600061109642600154611a17565b905090565b6040517f70a08231000000000000000000000000000000000000000000000000000000008152336004820152600090819073ffffffffffffffffffffffffffffffffffffffff7f000000000000000000000000000000000000000000000000000000000000000016906370a0823190602401602060405180830381865afa15801561112a573d6000803e3d6000fd5b505050506040513d601f19601f8201168201806040525081019061114e9190611c62565b905061115981611162565b50600191505090565b60003361116d611537565b600455611178611088565b60035573ffffffffffffffffffffffffffffffffffffffff8116156111d9576111a081610510565b73ffffffffffffffffffffffffffffffffffffffff82166000908152600a60209081526040808320939093556004546009909152919020555b6001831015611214576040517f2c5211c600000000000000000000000000000000000000000000000000000000815260040160405180910390fd5b61121e3384611678565b8260085461122c9190611bfe565b600855336000908152600b602052604090205461124a908490611bfe565b336000818152600b6020526040908190209290925590517f23b872dd00000000000000000000000000000000000000000000000000000000815260048101919091523060248201526044810184905273ffffffffffffffffffffffffffffffffffffffff7f000000000000000000000000000000000000000000000000000000000000000016906323b872dd906064016020604051808303816000875af11580156112f9573d6000803e3d6000fd5b505050506040513d601f19601f8201168201806040525081019061131d9190611c16565b5060405183815233907f9e71bc8eea02a63969f509818f2dafb9254532904319f9dbda79b67bd34a5f3d9060200160405180910390a250600192915050565b600033611367611537565b600455611372611088565b60035573ffffffffffffffffffffffffffffffffffffffff8116156113d35761139a81610510565b73ffffffffffffffffffffffffffffffffffffffff82166000908152600a60209081526040808320939093556004546009909152919020555b600184101561140e576040517f2c5211c600000000000000000000000000000000000000000000000000000000815260040160405180910390fd5b61141833856117ad565b836008546114269190611b6f565b600855336000908152600b6020526040902054611444908590611b6f565b336000818152600b6020526040808220939093555491517f14cd70e4000000000000000000000000000000000000000000000000000000008152600481019290925260248201869052604482015273ffffffffffffffffffffffffffffffffffffffff7f000000000000000000000000000000000000000000000000000000000000000016906314cd70e490606401600060405180830381600087803b1580156114ed57600080fd5b505af1158015611501573d6000803e3d6000fd5b50506040518681523392507f7084f5476618d8e60b11ef0d7d3f06914655adb8793e28ff7f018d4c76d505d591506020016109d7565b600061154260085490565b600003611550575060045490565b600854600254600354611561611088565b61156b9190611b6f565b6115759190611b86565b61158790670de0b6b3a7640000611b86565b6115919190611bc3565b6004546110969190611bfe565b6040517f23b872dd000000000000000000000000000000000000000000000000000000008152336004820152306024820152604481018290526000907f000000000000000000000000000000000000000000000000000000000000000073ffffffffffffffffffffffffffffffffffffffff16906323b872dd906064016020604051808303816000875af115801561163a573d6000803e3d6000fd5b505050506040513d601f19601f8201168201806040525081019061165e9190611c16565b508160055461166d9190611bfe565b600555506001919050565b6000600c8054806020026020016040519081016040528092919081815260200182805480156116dd57602002820191906000526020600020905b815473ffffffffffffffffffffffffffffffffffffffff1681526001909101906020018083116116b2575b5050505050905060005b81518110156117a75781818151811061170257611702611c33565b60209081029190910101516040517fadc9772e00000000000000000000000000000000000000000000000000000000815273ffffffffffffffffffffffffffffffffffffffff8681166004830152602482018690529091169063adc9772e90604401600060405180830381600087803b15801561177e57600080fd5b505af1158015611792573d6000803e3d6000fd5b505050506117a08160010190565b90506116e7565b50505050565b6000600c80548060200260200160405190810160405280929190818152602001828054801561181257602002820191906000526020600020905b815473ffffffffffffffffffffffffffffffffffffffff1681526001909101906020018083116117e7575b5050505050905060005b81518110156117a75781818151811061183757611837611c33565b60209081029190910101516040517ff3fef3a300000000000000000000000000000000000000000000000000000000815273ffffffffffffffffffffffffffffffffffffffff8681166004830152602482018690529091169063f3fef3a390604401600060405180830381600087803b1580156118b357600080fd5b505af11580156118c7573d6000803e3d6000fd5b505050506118d58160010190565b905061181c565b60006118e6611537565b6004556118f1611088565b60035573ffffffffffffffffffffffffffffffffffffffff8116156119525761191981610510565b73ffffffffffffffffffffffffffffffffffffffff82166000908152600a60209081526040808320939093556004546009909152919020555b816007546119609190611bfe565b60075560015442106119815761197962093a8083611bc3565b6002556119c4565b6000426001546119919190611b6f565b90506000600254826119a39190611b86565b90506119af8185611bfe565b93506119be62093a8085611bc3565b60025550505b60068290554260038190556119dd9062093a8090611bfe565b6001556040518281527fde88a922e0d3b88b24e9623efeb464919c6bf9f66857a65e2bfcf2ce87a9433d9060200160405180910390a15050565b6000818310611a265781611a28565b825b9392505050565b803573ffffffffffffffffffffffffffffffffffffffff81168114611a5357600080fd5b919050565b600060208284031215611a6a57600080fd5b611a2882611a2f565b8015158114611a8157600080fd5b50565b600060208284031215611a9657600080fd5b8135611a2881611a73565b60008060408385031215611ab457600080fd5b611abd83611a2f565b946020939093013593505050565b60008060408385031215611ade57600080fd5b823591506020830135611af081611a73565b809150509250929050565b600060208284031215611b0d57600080fd5b5035919050565b60008060408385031215611b2757600080fd5b611b3083611a2f565b91506020830135611af081611a73565b7f4e487b7100000000000000000000000000000000000000000000000000000000600052601160045260246000fd5b600082821015611b8157611b81611b40565b500390565b6000817fffffffffffffffffffffffffffffffffffffffffffffffffffffffffffffffff0483118215151615611bbe57611bbe611b40565b500290565b600082611bf9577f4e487b7100000000000000000000000000000000000000000000000000000000600052601260045260246000fd5b500490565b60008219821115611c1157611c11611b40565b500190565b600060208284031215611c2857600080fd5b8151611a2881611a73565b7f4e487b7100000000000000000000000000000000000000000000000000000000600052603260045260246000fd5b600060208284031215611c7457600080fd5b505191905056fea26469706673582212209185c5f36939e9cb24edfdbcb31e9faa5caad57ae38cf22aaf936be6ad8d294764736f6c634300080e0033",
  "devdoc": {
    "details": "Rewards contract for Prime Pools is based on the convex contract",
    "kind": "dev",
    "methods": {
      "addExtraReward(address)": {
        "details": "only `rewardManager` can add extra rewards",
        "params": {
          "_reward": "token address of the reward"
        },
        "returns": {
          "_0": "true on success"
        }
      },
      "balanceOf(address)": {
        "params": {
          "account": "The address of the token holder"
        },
        "returns": {
          "_0": "The `account`'s balance"
        }
      },
      "donate(uint256)": {
        "params": {
          "_amount": "The amount of tokens to donate"
        },
        "returns": {
          "_0": "true on success"
        }
      },
      "earned(address)": {
        "params": {
          "account": "The address of the token holder"
        },
        "returns": {
          "_0": "The `account`'s earned rewards"
        }
      },
      "getReward()": {
        "returns": {
          "_0": "true on success"
        }
      },
      "getReward(address,bool)": {
        "params": {
          "_account": "The account to claim rewards for",
          "_claimExtras": "Whether or not the user wants to claim extra rewards"
        }
      },
      "lastTimeRewardApplicable()": {
        "returns": {
          "_0": "The lower value of current block.timestamp or last time reward applicable"
        }
      },
      "queueNewRewards(uint256)": {
        "details": "Only the operator can queue new rewards",
        "params": {
          "_rewards": "The amount of tokens to queue"
        },
        "returns": {
          "_0": "true on success"
        }
      },
      "rewardPerToken()": {
        "returns": {
          "_0": "The rewards per token staked"
        }
      },
      "stake(uint256)": {
        "params": {
          "_amount": "The amount of tokens user wants to stake"
        },
        "returns": {
          "_0": "true on success"
        }
      },
      "stakeAll()": {
        "returns": {
          "_0": "true on success"
        }
      },
      "stakeFor(address,uint256)": {
        "params": {
          "_amount": "The amount of tokens user wants to stake",
          "_for": "Who are we staking for"
        }
      },
      "withdraw(uint256,bool)": {
        "params": {
          "_amount": "The amount of tokens that the user wants to withdraw",
          "_claim": "Whether or not the user wants to claim their rewards"
        }
      },
      "withdrawAllAndUnwrap(bool)": {
        "params": {
          "_claim": "Whether or not the user wants to claim their rewards"
        }
      },
      "withdrawAndUnwrap(uint256,bool)": {
        "params": {
          "_amount": "The amount of tokens that the user wants to withdraw",
          "_claim": "Whether or not the user wants to claim their rewards"
        }
      }
    },
    "title": "Base Reward Pool contract",
    "version": 1
  },
  "userdoc": {
    "kind": "user",
    "methods": {
      "addExtraReward(address)": {
        "notice": "Adds an extra reward"
      },
      "balanceOf(address)": {
        "notice": "Get the specified address' balance"
      },
      "donate(uint256)": {
        "notice": "Donates reward token to this contract"
      },
      "earned(address)": {
        "notice": "Returns the `account`'s earned rewards"
      },
      "extraRewardsLength()": {
        "notice": "Returns number of extra rewards"
      },
      "getReward()": {
        "notice": "Claims Reward for signer"
      },
      "getReward(address,bool)": {
        "notice": "Claims Rewards for `_account`"
      },
      "lastTimeRewardApplicable()": {
        "notice": "Returns last time reward applicable"
      },
      "queueNewRewards(uint256)": {
        "notice": "Queue new rewards"
      },
      "rewardPerToken()": {
        "notice": "Returns rewards per token staked"
      },
      "stake(uint256)": {
        "notice": "Stakes `amount` tokens"
      },
      "stakeAll()": {
        "notice": "Stakes all BAL tokens"
      },
      "stakeFor(address,uint256)": {
        "notice": "Stakes `amount` tokens for `_for`"
      },
      "totalSupply()": {
        "notice": "Returns total supply"
      },
      "withdraw(uint256,bool)": {
        "notice": "Unstakes `amount` tokens"
      },
      "withdrawAll(bool)": {
        "notice": "Withdraw all tokens"
      },
      "withdrawAllAndUnwrap(bool)": {
        "notice": "Withdraw all tokens and unwrap"
      },
      "withdrawAndUnwrap(uint256,bool)": {
        "notice": "Withdraw `amount` tokens and unwrap"
      }
    },
    "version": 1
  },
  "storageLayout": {
    "storage": [
      {
        "astId": 3009,
        "contract": "contracts/BaseRewardPool.sol:BaseRewardPool",
        "label": "pid",
        "offset": 0,
        "slot": "0",
        "type": "t_uint256"
      },
      {
        "astId": 3011,
        "contract": "contracts/BaseRewardPool.sol:BaseRewardPool",
        "label": "periodFinish",
        "offset": 0,
        "slot": "1",
        "type": "t_uint256"
      },
      {
        "astId": 3013,
        "contract": "contracts/BaseRewardPool.sol:BaseRewardPool",
        "label": "rewardRate",
        "offset": 0,
        "slot": "2",
        "type": "t_uint256"
      },
      {
        "astId": 3015,
        "contract": "contracts/BaseRewardPool.sol:BaseRewardPool",
        "label": "lastUpdateTime",
        "offset": 0,
        "slot": "3",
        "type": "t_uint256"
      },
      {
        "astId": 3017,
        "contract": "contracts/BaseRewardPool.sol:BaseRewardPool",
        "label": "rewardPerTokenStored",
        "offset": 0,
        "slot": "4",
        "type": "t_uint256"
      },
      {
        "astId": 3019,
        "contract": "contracts/BaseRewardPool.sol:BaseRewardPool",
        "label": "queuedRewards",
        "offset": 0,
        "slot": "5",
        "type": "t_uint256"
      },
      {
        "astId": 3021,
        "contract": "contracts/BaseRewardPool.sol:BaseRewardPool",
        "label": "currentRewards",
        "offset": 0,
        "slot": "6",
        "type": "t_uint256"
      },
      {
        "astId": 3023,
        "contract": "contracts/BaseRewardPool.sol:BaseRewardPool",
        "label": "historicalRewards",
        "offset": 0,
        "slot": "7",
        "type": "t_uint256"
      },
      {
        "astId": 3025,
        "contract": "contracts/BaseRewardPool.sol:BaseRewardPool",
        "label": "_totalSupply",
        "offset": 0,
        "slot": "8",
        "type": "t_uint256"
      },
      {
        "astId": 3029,
        "contract": "contracts/BaseRewardPool.sol:BaseRewardPool",
        "label": "userRewardPerTokenPaid",
        "offset": 0,
        "slot": "9",
        "type": "t_mapping(t_address,t_uint256)"
      },
      {
        "astId": 3033,
        "contract": "contracts/BaseRewardPool.sol:BaseRewardPool",
        "label": "rewards",
        "offset": 0,
        "slot": "10",
        "type": "t_mapping(t_address,t_uint256)"
      },
      {
        "astId": 3037,
        "contract": "contracts/BaseRewardPool.sol:BaseRewardPool",
        "label": "_balances",
        "offset": 0,
        "slot": "11",
        "type": "t_mapping(t_address,t_uint256)"
      },
      {
        "astId": 3040,
        "contract": "contracts/BaseRewardPool.sol:BaseRewardPool",
        "label": "extraRewards",
        "offset": 0,
        "slot": "12",
        "type": "t_array(t_address)dyn_storage"
      }
    ],
    "types": {
      "t_address": {
        "encoding": "inplace",
        "label": "address",
        "numberOfBytes": "20"
      },
      "t_array(t_address)dyn_storage": {
        "base": "t_address",
        "encoding": "dynamic_array",
        "label": "address[]",
        "numberOfBytes": "32"
      },
      "t_mapping(t_address,t_uint256)": {
        "encoding": "mapping",
        "key": "t_address",
        "label": "mapping(address => uint256)",
        "numberOfBytes": "32",
        "value": "t_uint256"
      },
      "t_uint256": {
        "encoding": "inplace",
        "label": "uint256",
        "numberOfBytes": "32"
      }
    }
  }
}