{
  "address": "0x2d5852C1202c0a7A12387343c8868FCE53a3a97a",
  "abi": [
    {
      "inputs": [
        {
          "internalType": "address",
          "name": "_staker",
          "type": "address"
        },
        {
          "internalType": "address",
          "name": "_bal",
          "type": "address"
        },
        {
          "internalType": "address",
          "name": "_feeDistro",
          "type": "address"
        },
        {
          "internalType": "address",
          "name": "_voteOwnership",
          "type": "address"
        },
        {
          "internalType": "address",
          "name": "_voteParameter",
          "type": "address"
        }
      ],
      "stateMutability": "nonpayable",
      "type": "constructor"
    },
    {
      "inputs": [],
      "name": "InvalidParameters",
      "type": "error"
    },
    {
      "inputs": [],
      "name": "InvalidStash",
      "type": "error"
    },
    {
      "inputs": [],
      "name": "PoolIsClosed",
      "type": "error"
    },
    {
      "inputs": [],
      "name": "Shutdown",
      "type": "error"
    },
    {
      "inputs": [],
      "name": "Unauthorized",
      "type": "error"
    },
    {
      "anonymous": false,
      "inputs": [
        {
          "indexed": true,
          "internalType": "address",
          "name": "user",
          "type": "address"
        },
        {
          "indexed": true,
          "internalType": "uint256",
          "name": "poolid",
          "type": "uint256"
        },
        {
          "indexed": false,
          "internalType": "uint256",
          "name": "amount",
          "type": "uint256"
        }
      ],
      "name": "Deposited",
      "type": "event"
    },
    {
      "anonymous": false,
      "inputs": [
        {
          "indexed": false,
          "internalType": "address",
          "name": "_newFeeManager",
          "type": "address"
        }
      ],
      "name": "FeeManagerChanged",
      "type": "event"
    },
    {
      "anonymous": false,
      "inputs": [
        {
          "indexed": false,
          "internalType": "uint256",
          "name": "_newPlatformFee",
          "type": "uint256"
        },
        {
          "indexed": false,
          "internalType": "uint256",
          "name": "_newProfitFee",
          "type": "uint256"
        }
      ],
      "name": "FeesChanged",
      "type": "event"
    },
    {
      "anonymous": false,
      "inputs": [
        {
          "indexed": false,
          "internalType": "address",
          "name": "_newOwner",
          "type": "address"
        }
      ],
      "name": "OwnerChanged",
      "type": "event"
    },
    {
      "anonymous": false,
      "inputs": [
        {
          "indexed": false,
          "internalType": "address",
          "name": "_newPoolManager",
          "type": "address"
        }
      ],
      "name": "PoolManagerChanged",
      "type": "event"
    },
    {
      "anonymous": false,
      "inputs": [
        {
          "indexed": false,
          "internalType": "uint256",
          "name": "_pid",
          "type": "uint256"
        }
      ],
      "name": "PoolShutDown",
      "type": "event"
    },
    {
      "anonymous": false,
      "inputs": [],
      "name": "SystemShutdown",
      "type": "event"
    },
    {
      "anonymous": false,
      "inputs": [
        {
          "indexed": false,
          "internalType": "address",
          "name": "_newTreasury",
          "type": "address"
        }
      ],
      "name": "TreasuryChanged",
      "type": "event"
    },
    {
      "anonymous": false,
      "inputs": [
        {
          "indexed": false,
          "internalType": "address",
          "name": "_newVoteDelegate",
          "type": "address"
        }
      ],
      "name": "VoteDelegateChanged",
      "type": "event"
    },
    {
      "anonymous": false,
      "inputs": [
        {
          "indexed": true,
          "internalType": "address",
          "name": "user",
          "type": "address"
        },
        {
          "indexed": true,
          "internalType": "uint256",
          "name": "poolid",
          "type": "uint256"
        },
        {
          "indexed": false,
          "internalType": "uint256",
          "name": "amount",
          "type": "uint256"
        }
      ],
      "name": "Withdrawn",
      "type": "event"
    },
    {
      "inputs": [],
      "name": "FEE_DENOMINATOR",
      "outputs": [
        {
          "internalType": "uint256",
          "name": "",
          "type": "uint256"
        }
      ],
      "stateMutability": "view",
      "type": "function"
    },
    {
      "inputs": [],
      "name": "MAX_FEES",
      "outputs": [
        {
          "internalType": "uint256",
          "name": "",
          "type": "uint256"
        }
      ],
      "stateMutability": "view",
      "type": "function"
    },
    {
      "inputs": [],
      "name": "MAX_LOCK_TIME",
      "outputs": [
        {
          "internalType": "uint256",
          "name": "",
          "type": "uint256"
        }
      ],
      "stateMutability": "view",
      "type": "function"
    },
    {
      "inputs": [
        {
          "internalType": "address",
          "name": "_lptoken",
          "type": "address"
        },
        {
          "internalType": "address",
          "name": "_gauge",
          "type": "address"
        }
      ],
      "name": "addPool",
      "outputs": [],
      "stateMutability": "nonpayable",
      "type": "function"
    },
    {
      "inputs": [],
      "name": "bal",
      "outputs": [
        {
          "internalType": "address",
          "name": "",
          "type": "address"
        }
      ],
      "stateMutability": "view",
      "type": "function"
    },
    {
      "inputs": [
        {
          "internalType": "uint256",
          "name": "_pid",
          "type": "uint256"
        },
        {
          "internalType": "address",
          "name": "_gauge",
          "type": "address"
        }
      ],
      "name": "claimRewards",
      "outputs": [],
      "stateMutability": "nonpayable",
      "type": "function"
    },
    {
      "inputs": [],
      "name": "clearDelegation",
      "outputs": [],
      "stateMutability": "nonpayable",
      "type": "function"
    },
    {
      "inputs": [
        {
          "internalType": "address",
          "name": "_delegateTo",
          "type": "address"
        }
      ],
      "name": "delegateVotingPower",
      "outputs": [],
      "stateMutability": "nonpayable",
      "type": "function"
    },
    {
      "inputs": [
        {
          "internalType": "uint256",
          "name": "_pid",
          "type": "uint256"
        },
        {
          "internalType": "uint256",
          "name": "_amount",
          "type": "uint256"
        },
        {
          "internalType": "bool",
          "name": "_stake",
          "type": "bool"
        }
      ],
      "name": "deposit",
      "outputs": [],
      "stateMutability": "nonpayable",
      "type": "function"
    },
    {
      "inputs": [
        {
          "internalType": "uint256",
          "name": "_pid",
          "type": "uint256"
        },
        {
          "internalType": "bool",
          "name": "_stake",
          "type": "bool"
        }
      ],
      "name": "depositAll",
      "outputs": [],
      "stateMutability": "nonpayable",
      "type": "function"
    },
    {
      "inputs": [],
      "name": "earmarkFees",
      "outputs": [],
      "stateMutability": "nonpayable",
      "type": "function"
    },
    {
      "inputs": [
        {
          "internalType": "uint256",
          "name": "_pid",
          "type": "uint256"
        }
      ],
      "name": "earmarkRewards",
      "outputs": [],
      "stateMutability": "nonpayable",
      "type": "function"
    },
    {
      "inputs": [],
      "name": "feeDistro",
      "outputs": [
        {
          "internalType": "address",
          "name": "",
          "type": "address"
        }
      ],
      "stateMutability": "view",
      "type": "function"
    },
    {
      "inputs": [],
      "name": "feeManager",
      "outputs": [
        {
          "internalType": "address",
          "name": "",
          "type": "address"
        }
      ],
      "stateMutability": "view",
      "type": "function"
    },
    {
      "inputs": [],
      "name": "feeToken",
      "outputs": [
        {
          "internalType": "contract IERC20",
          "name": "",
          "type": "address"
        }
      ],
      "stateMutability": "view",
      "type": "function"
    },
    {
      "inputs": [
        {
          "internalType": "address",
          "name": "",
          "type": "address"
        }
      ],
      "name": "gaugeMap",
      "outputs": [
        {
          "internalType": "bool",
          "name": "",
          "type": "bool"
        }
      ],
      "stateMutability": "view",
      "type": "function"
    },
    {
      "inputs": [],
      "name": "isShutdown",
      "outputs": [
        {
          "internalType": "bool",
          "name": "",
          "type": "bool"
        }
      ],
      "stateMutability": "view",
      "type": "function"
    },
    {
      "inputs": [],
      "name": "lockFees",
      "outputs": [
        {
          "internalType": "address",
          "name": "",
          "type": "address"
        }
      ],
      "stateMutability": "view",
      "type": "function"
    },
    {
      "inputs": [],
      "name": "lockRewards",
      "outputs": [
        {
          "internalType": "address",
          "name": "",
          "type": "address"
        }
      ],
      "stateMutability": "view",
      "type": "function"
    },
    {
      "inputs": [],
      "name": "owner",
      "outputs": [
        {
          "internalType": "address",
          "name": "",
          "type": "address"
        }
      ],
      "stateMutability": "view",
      "type": "function"
    },
    {
      "inputs": [],
      "name": "platformFees",
      "outputs": [
        {
          "internalType": "uint256",
          "name": "",
          "type": "uint256"
        }
      ],
      "stateMutability": "view",
      "type": "function"
    },
    {
      "inputs": [
        {
          "internalType": "uint256",
          "name": "",
          "type": "uint256"
        }
      ],
      "name": "poolInfo",
      "outputs": [
        {
          "internalType": "address",
          "name": "lptoken",
          "type": "address"
        },
        {
          "internalType": "address",
          "name": "token",
          "type": "address"
        },
        {
          "internalType": "address",
          "name": "gauge",
          "type": "address"
        },
        {
          "internalType": "address",
          "name": "balRewards",
          "type": "address"
        },
        {
          "internalType": "address",
          "name": "stash",
          "type": "address"
        },
        {
          "internalType": "bool",
          "name": "shutdown",
          "type": "bool"
        }
      ],
      "stateMutability": "view",
      "type": "function"
    },
    {
      "inputs": [],
      "name": "poolLength",
      "outputs": [
        {
          "internalType": "uint256",
          "name": "",
          "type": "uint256"
        }
      ],
      "stateMutability": "view",
      "type": "function"
    },
    {
      "inputs": [],
      "name": "poolManager",
      "outputs": [
        {
          "internalType": "address",
          "name": "",
          "type": "address"
        }
      ],
      "stateMutability": "view",
      "type": "function"
    },
    {
      "inputs": [],
      "name": "profitFees",
      "outputs": [
        {
          "internalType": "uint256",
          "name": "",
          "type": "uint256"
        }
      ],
      "stateMutability": "view",
      "type": "function"
    },
    {
      "inputs": [],
      "name": "rewardFactory",
      "outputs": [
        {
          "internalType": "address",
          "name": "",
          "type": "address"
        }
      ],
      "stateMutability": "view",
      "type": "function"
    },
    {
      "inputs": [
        {
          "internalType": "address",
          "name": "_rfactory",
          "type": "address"
        },
        {
          "internalType": "address",
          "name": "_sfactory",
          "type": "address"
        },
        {
          "internalType": "address",
          "name": "_tfactory",
          "type": "address"
        }
      ],
      "name": "setFactories",
      "outputs": [],
      "stateMutability": "nonpayable",
      "type": "function"
    },
    {
      "inputs": [
        {
          "internalType": "contract IERC20",
          "name": "_feeToken",
          "type": "address"
        }
      ],
      "name": "setFeeInfo",
      "outputs": [],
      "stateMutability": "nonpayable",
      "type": "function"
    },
    {
      "inputs": [
        {
          "internalType": "address",
          "name": "_feeM",
          "type": "address"
        }
      ],
      "name": "setFeeManager",
      "outputs": [],
      "stateMutability": "nonpayable",
      "type": "function"
    },
    {
      "inputs": [
        {
          "internalType": "uint256",
          "name": "_platformFee",
          "type": "uint256"
        },
        {
          "internalType": "uint256",
          "name": "_profitFee",
          "type": "uint256"
        }
      ],
      "name": "setFees",
      "outputs": [],
      "stateMutability": "nonpayable",
      "type": "function"
    },
    {
      "inputs": [
        {
          "internalType": "uint256",
          "name": "_pid",
          "type": "uint256"
        }
      ],
      "name": "setGaugeRedirect",
      "outputs": [],
      "stateMutability": "nonpayable",
      "type": "function"
    },
    {
      "inputs": [
        {
          "internalType": "address",
          "name": "_owner",
          "type": "address"
        }
      ],
      "name": "setOwner",
      "outputs": [],
      "stateMutability": "nonpayable",
      "type": "function"
    },
    {
      "inputs": [
        {
          "internalType": "address",
          "name": "_poolM",
          "type": "address"
        }
      ],
      "name": "setPoolManager",
      "outputs": [],
      "stateMutability": "nonpayable",
      "type": "function"
    },
    {
      "inputs": [
        {
          "internalType": "address",
          "name": "_rewards",
          "type": "address"
        }
      ],
      "name": "setRewardContracts",
      "outputs": [],
      "stateMutability": "nonpayable",
      "type": "function"
    },
    {
      "inputs": [
        {
          "internalType": "address",
          "name": "_treasury",
          "type": "address"
        }
      ],
      "name": "setTreasury",
      "outputs": [],
      "stateMutability": "nonpayable",
      "type": "function"
    },
    {
      "inputs": [
        {
          "internalType": "address",
          "name": "_voteDelegate",
          "type": "address"
        }
      ],
      "name": "setVoteDelegate",
      "outputs": [],
      "stateMutability": "nonpayable",
      "type": "function"
    },
    {
      "inputs": [
        {
          "internalType": "uint256",
          "name": "_pid",
          "type": "uint256"
        }
      ],
      "name": "shutdownPool",
      "outputs": [],
      "stateMutability": "nonpayable",
      "type": "function"
    },
    {
      "inputs": [],
      "name": "shutdownSystem",
      "outputs": [],
      "stateMutability": "nonpayable",
      "type": "function"
    },
    {
      "inputs": [],
      "name": "staker",
      "outputs": [
        {
          "internalType": "address",
          "name": "",
          "type": "address"
        }
      ],
      "stateMutability": "view",
      "type": "function"
    },
    {
      "inputs": [],
      "name": "stashFactory",
      "outputs": [
        {
          "internalType": "address",
          "name": "",
          "type": "address"
        }
      ],
      "stateMutability": "view",
      "type": "function"
    },
    {
      "inputs": [],
      "name": "tokenFactory",
      "outputs": [
        {
          "internalType": "address",
          "name": "",
          "type": "address"
        }
      ],
      "stateMutability": "view",
      "type": "function"
    },
    {
      "inputs": [],
      "name": "treasury",
      "outputs": [
        {
          "internalType": "address",
          "name": "",
          "type": "address"
        }
      ],
      "stateMutability": "view",
      "type": "function"
    },
    {
      "inputs": [],
      "name": "voteDelegate",
      "outputs": [
        {
          "internalType": "address",
          "name": "",
          "type": "address"
        }
      ],
      "stateMutability": "view",
      "type": "function"
    },
    {
      "inputs": [
        {
          "internalType": "address[]",
          "name": "_gauges",
          "type": "address[]"
        },
        {
          "internalType": "uint256[]",
          "name": "_weights",
          "type": "uint256[]"
        }
      ],
      "name": "voteGaugeWeight",
      "outputs": [],
      "stateMutability": "nonpayable",
      "type": "function"
    },
    {
      "inputs": [],
      "name": "voteOwnership",
      "outputs": [
        {
          "internalType": "address",
          "name": "",
          "type": "address"
        }
      ],
      "stateMutability": "view",
      "type": "function"
    },
    {
      "inputs": [],
      "name": "voteParameter",
      "outputs": [
        {
          "internalType": "address",
          "name": "",
          "type": "address"
        }
      ],
      "stateMutability": "view",
      "type": "function"
    },
    {
      "inputs": [
        {
          "internalType": "uint256",
          "name": "_pid",
          "type": "uint256"
        },
        {
          "internalType": "uint256",
          "name": "_amount",
          "type": "uint256"
        }
      ],
      "name": "withdraw",
      "outputs": [],
      "stateMutability": "nonpayable",
      "type": "function"
    },
    {
      "inputs": [
        {
          "internalType": "uint256",
          "name": "_pid",
          "type": "uint256"
        }
      ],
      "name": "withdrawAll",
      "outputs": [],
      "stateMutability": "nonpayable",
      "type": "function"
    },
    {
      "inputs": [
        {
          "internalType": "uint256",
          "name": "_pid",
          "type": "uint256"
        },
        {
          "internalType": "uint256",
          "name": "_amount",
          "type": "uint256"
        },
        {
          "internalType": "address",
          "name": "_to",
          "type": "address"
        }
      ],
      "name": "withdrawTo",
      "outputs": [],
      "stateMutability": "nonpayable",
      "type": "function"
    },
    {
      "inputs": [
        {
          "internalType": "uint256",
          "name": "_amount",
          "type": "uint256"
        }
      ],
      "name": "withdrawUnlockedWethBal",
      "outputs": [],
      "stateMutability": "nonpayable",
      "type": "function"
    }
  ],
  "transactionHash": "0xaea1a9a1721cbc16eaac1e3a3f2c70b68bbe438d4589848ed2dc26a28e7d873b",
  "args": [
    "0x529C9B284ce20cC297CcABA17e0f3A8672Be29B1",
    "0xcb355677e36f390ccc4a5d4beadfbf1eb2071c81",
    "0x2A49c0e4f081f54d9F02d92b580ECf616B86F1ff",
    "0xbF63Afb77A49159b4502E91CD3f4EbDcc161431f",
    "0xbF63Afb77A49159b4502E91CD3f4EbDcc161431f"
  ],
  "solcInputHash": "ffe7c3d313508848a216b8f00aa6ff1c",
  "bytecode": "0x61012060405260fa6000556103e86001553480156200001d57600080fd5b5060405162003d7938038062003d798339810160408190526200004091620000bc565b6001600160a01b0393841660805291831661010052821660c052811660e0521660a05260028054336001600160a01b0319918216811790925560088054821683179055600380548216831790556004805490911690911790556200012c565b80516001600160a01b0381168114620000b757600080fd5b919050565b600080600080600060a08688031215620000d557600080fd5b620000e0866200009f565b9450620000f0602087016200009f565b935062000100604087016200009f565b925062000110606087016200009f565b915062000120608087016200009f565b90509295509295909350565b60805160a05160c05160e05161010051613b7c620001fd600039600081816107910152610c20015260006106a70152600061066001526000818161050e01528181610c5001528181610fb7015281816110ea015281816112580152818161132d0152818161188901528181611a6d01528181611be201528181611f900152818161219201528181612658015281816129b801528181612c0101528181612d970152612fa40152600081816104ae015281816131250152818161321c0152818161335701526134270152613b7c6000f3fe608060405234801561001057600080fd5b50600436106103365760003560e01c80637aef6715116101b2578063c2300bef116100f9578063d73792a9116100a2578063eb511dd41161007c578063eb511dd4146107fc578063f0f442601461080f578063f3ff955a14610822578063fa78668f1461083557600080fd5b8063d73792a9146107b3578063dc4c90d3146107bc578063e77772fe146107dc57600080fd5b8063cc956f3f116100d3578063cc956f3f14610759578063d0fb02031461076c578063d6a0f5301461078c57600080fd5b8063c2300bef1461071a578063ca10ec2314610723578063cb0d5b521461073657600080fd5b8063a386a0801161015b578063b4d2e3d111610135578063b4d2e3d1146106c9578063bf86d690146106d2578063bfad96ba1461070757600080fd5b8063a386a0801461065b578063ab36629214610682578063b42eda71146106a257600080fd5b80639123d4041161018c5780639123d40414610615578063958e2d31146106285780639f00332b1461063b57600080fd5b80637aef6715146105cf5780637bd3b995146105e25780638da5cb5b146105f557600080fd5b80633b632bb91161028157806360759fce1161022a578063647846a511610204578063647846a5146105765780636c7b69cb1461059657806374874323146105a957806378b7960d146105bc57600080fd5b806360759fce1461053057806360cafe841461054357806361d027b31461055657600080fd5b8063441a3e701161025b578063441a3e70146104e3578063472d35b9146104f65780635ebaf1db1461050957600080fd5b80633b632bb9146104a15780633d79d1c8146104a957806343a0d066146104d057600080fd5b8063194a4e7e116102e3578063245e4bf0116102bd578063245e4bf014610459578063354af91914610479578063376d771a1461048157600080fd5b8063194a4e7e146104355780631cc51d401461043e57806322230b961461045157600080fd5b806313af40351161031457806313af4035146103ac57806314cd70e4146103bf5780631526fe27146103d257600080fd5b8063068eb19e1461033b578063081e3eda146103855780630b78f9c014610397575b600080fd5b60065461035b9073ffffffffffffffffffffffffffffffffffffffff1681565b60405173ffffffffffffffffffffffffffffffffffffffff90911681526020015b60405180910390f35b600d545b60405190815260200161037c565b6103aa6103a53660046134ea565b610840565b005b6103aa6103ba36600461352e565b61095a565b6103aa6103cd366004613552565b610a27565b6103e56103e036600461358b565b610aad565b6040805173ffffffffffffffffffffffffffffffffffffffff97881681529587166020870152938616938501939093529084166060840152909216608082015290151560a082015260c00161037c565b61038960015481565b6103aa61044c36600461352e565b610b2c565b6103aa610be0565b60055461035b9073ffffffffffffffffffffffffffffffffffffffff1681565b6103aa610e7d565b600a5461035b9073ffffffffffffffffffffffffffffffffffffffff1681565b6103aa611096565b61035b7f000000000000000000000000000000000000000000000000000000000000000081565b6103aa6104de3660046135b2565b611150565b6103aa6104f13660046134ea565b611625565b6103aa61050436600461352e565b611631565b61035b7f000000000000000000000000000000000000000000000000000000000000000081565b6103aa61053e3660046135e0565b6116f6565b6103aa61055136600461358b565b6117bb565b60095461035b9073ffffffffffffffffffffffffffffffffffffffff1681565b600c5461035b9073ffffffffffffffffffffffffffffffffffffffff1681565b6103aa6105a4366004613610565b6119ae565b6103aa6105b736600461352e565b611ace565b6103aa6105ca36600461358b565b611b93565b6103aa6105dd36600461352e565b611c13565b6103aa6105f0366004613635565b611cd8565b60025461035b9073ffffffffffffffffffffffffffffffffffffffff1681565b6103aa61062336600461358b565b611de7565b6103aa61063636600461358b565b612037565b60085461035b9073ffffffffffffffffffffffffffffffffffffffff1681565b61035b7f000000000000000000000000000000000000000000000000000000000000000081565b600b5461035b9073ffffffffffffffffffffffffffffffffffffffff1681565b61035b7f000000000000000000000000000000000000000000000000000000000000000081565b61038960005481565b600c546106f79074010000000000000000000000000000000000000000900460ff1681565b604051901515815260200161037c565b6103aa6107153660046136c1565b612103565b610389610bb881565b6103aa61073136600461352e565b612206565b6106f761074436600461352e565b600e6020526000908152604090205460ff1681565b6103aa61076736600461358b565b612356565b60035461035b9073ffffffffffffffffffffffffffffffffffffffff1681565b61035b7f000000000000000000000000000000000000000000000000000000000000000081565b61038961271081565b60045461035b9073ffffffffffffffffffffffffffffffffffffffff1681565b60075461035b9073ffffffffffffffffffffffffffffffffffffffff1681565b6103aa61080a36600461372d565b6123b7565b6103aa61081d36600461352e565b612aa5565b6103aa61083036600461352e565b612b6a565b6103896301e1338081565b60035473ffffffffffffffffffffffffffffffffffffffff16338114610892576040517f82b4290000000000000000000000000000000000000000000000000000000000815260040160405180910390fd5b600061089e848461378a565b9050610bb88111156108dc576040517fe523909000000000000000000000000000000000000000000000000000000000815260040160405180910390fd5b6101f484101580156108f057506107d08411155b80156108fd575060648310155b801561090b57506103e88311155b15610954576001849055600083905560408051858152602081018590527f64f84976d9c917a44796104a59950fdbd9b3c16a5dd348b546d738301f6bd068910160405180910390a15b50505050565b60025473ffffffffffffffffffffffffffffffffffffffff163381146109ac576040517f82b4290000000000000000000000000000000000000000000000000000000000815260040160405180910390fd5b600280547fffffffffffffffffffffffff00000000000000000000000000000000000000001673ffffffffffffffffffffffffffffffffffffffff84169081179091556040519081527fa2ea9883a321a3e97b8266c2b078bfeec6d50c711ed71f874a90d500ae2eaf36906020015b60405180910390a15050565b6000600d8481548110610a3c57610a3c6137a2565b600091825260209091206003600590920201015473ffffffffffffffffffffffffffffffffffffffff169050338114610aa1576040517f82b4290000000000000000000000000000000000000000000000000000000000815260040160405180910390fd5b61095484843385612c59565b600d8181548110610abd57600080fd5b60009182526020909120600590910201805460018201546002830154600384015460049094015473ffffffffffffffffffffffffffffffffffffffff93841695509183169390831692908116919081169074010000000000000000000000000000000000000000900460ff1686565b60025473ffffffffffffffffffffffffffffffffffffffff16338114610b7e576040517f82b4290000000000000000000000000000000000000000000000000000000000815260040160405180910390fd5b600a5473ffffffffffffffffffffffffffffffffffffffff16610bdc57600a80547fffffffffffffffffffffffff00000000000000000000000000000000000000001673ffffffffffffffffffffffffffffffffffffffff84161790555b5050565b600c546040517f2dbfa73500000000000000000000000000000000000000000000000000000000815273ffffffffffffffffffffffffffffffffffffffff7f00000000000000000000000000000000000000000000000000000000000000008116600483015291821660248201527f000000000000000000000000000000000000000000000000000000000000000090911690632dbfa735906044016020604051808303816000875af1158015610c9b573d6000803e3d6000fd5b505050506040513d601f19601f82011682018060405250810190610cbf91906137d1565b50600c546040517f70a0823100000000000000000000000000000000000000000000000000000000815230600482015260009173ffffffffffffffffffffffffffffffffffffffff16906370a0823190602401602060405180830381865afa158015610d2f573d6000803e3d6000fd5b505050506040513d601f19601f82011682018060405250810190610d5391906137d1565b600c54600b546040517fa9059cbb00000000000000000000000000000000000000000000000000000000815273ffffffffffffffffffffffffffffffffffffffff918216600482015260248101849052929350169063a9059cbb906044016020604051808303816000875af1158015610dd0573d6000803e3d6000fd5b505050506040513d601f19601f82011682018060405250810190610df491906137ea565b50600b546040517f590a41f50000000000000000000000000000000000000000000000000000000081526004810183905273ffffffffffffffffffffffffffffffffffffffff9091169063590a41f5906024015b600060405180830381600087803b158015610e6257600080fd5b505af1158015610e76573d6000803e3d6000fd5b5050505050565b60025473ffffffffffffffffffffffffffffffffffffffff16338114610ecf576040517f82b4290000000000000000000000000000000000000000000000000000000000815260040160405180910390fd5b600c80547fffffffffffffffffffffff00ffffffffffffffffffffffffffffffffffffffff167401000000000000000000000000000000000000000017905560005b600d54811015611069576000600d8281548110610f3057610f306137a2565b906000526020600020906005020190508060040160149054906101000a900460ff1615610f5d5750611057565b805460028201546040517f09cae2c800000000000000000000000000000000000000000000000000000000815273ffffffffffffffffffffffffffffffffffffffff928316600482018190529183166024820181905291927f000000000000000000000000000000000000000000000000000000000000000016906309cae2c890604401600060405180830381600087803b158015610ffb57600080fd5b505af192505050801561100c575060015b15611053576004830180547fffffffffffffffffffffff00ffffffffffffffffffffffffffffffffffffffff16740100000000000000000000000000000000000000001790555b5050505b8061106181613807565b915050610f11565b506040517fa7f1177ac6d0519232556de7d5158b9c7142cfeaebb1ff60315c49d364c75dfa90600090a150565b60025473ffffffffffffffffffffffffffffffffffffffff163381146110e8576040517f82b4290000000000000000000000000000000000000000000000000000000000815260040160405180910390fd5b7f000000000000000000000000000000000000000000000000000000000000000073ffffffffffffffffffffffffffffffffffffffff16636ea447ba6040518163ffffffff1660e01b8152600401600060405180830381600087803b158015610e6257600080fd5b600c5474010000000000000000000000000000000000000000900460ff16156111a5576040517f4426aa1f00000000000000000000000000000000000000000000000000000000815260040160405180910390fd5b6000600d84815481106111ba576111ba6137a2565b906000526020600020906005020190508060040160149054906101000a900460ff1615611213576040517fefc869b400000000000000000000000000000000000000000000000000000000815260040160405180910390fd5b80546040517f23b872dd00000000000000000000000000000000000000000000000000000000815233600482015273ffffffffffffffffffffffffffffffffffffffff7f000000000000000000000000000000000000000000000000000000000000000081166024830152604482018690529091169081906323b872dd906064016020604051808303816000875af11580156112b3573d6000803e3d6000fd5b505050506040513d601f19601f820116820180604052508101906112d791906137ea565b5060028201546040517ff9609f0800000000000000000000000000000000000000000000000000000000815273ffffffffffffffffffffffffffffffffffffffff838116600483015291821660248201819052917f0000000000000000000000000000000000000000000000000000000000000000169063f9609f0890604401600060405180830381600087803b15801561137157600080fd5b505af1158015611385573d6000803e3d6000fd5b50505050600183015473ffffffffffffffffffffffffffffffffffffffff16841561155e576040517f40c10f190000000000000000000000000000000000000000000000000000000081523060048201526024810187905273ffffffffffffffffffffffffffffffffffffffff8216906340c10f1990604401600060405180830381600087803b15801561141857600080fd5b505af115801561142c573d6000803e3d6000fd5b5050505060038401546040517f095ea7b300000000000000000000000000000000000000000000000000000000815273ffffffffffffffffffffffffffffffffffffffff91821660048201819052602482018990529183169063095ea7b3906044016020604051808303816000875af11580156114ad573d6000803e3d6000fd5b505050506040513d601f19601f820116820180604052508101906114d191906137ea565b506040517f2ee409080000000000000000000000000000000000000000000000000000000081523360048201526024810188905273ffffffffffffffffffffffffffffffffffffffff821690632ee4090890604401600060405180830381600087803b15801561154057600080fd5b505af1158015611554573d6000803e3d6000fd5b50505050506115e5565b6040517f40c10f190000000000000000000000000000000000000000000000000000000081523360048201526024810187905273ffffffffffffffffffffffffffffffffffffffff8216906340c10f1990604401600060405180830381600087803b1580156115cc57600080fd5b505af11580156115e0573d6000803e3d6000fd5b505050505b604051868152879033907f73a19dd210f1a7f902193214c0ee91dd35ee5b4d920cba8d519eca65a7b488ca9060200160405180910390a350505050505050565b610bdc82823333612c59565b60035473ffffffffffffffffffffffffffffffffffffffff16338114611683576040517f82b4290000000000000000000000000000000000000000000000000000000000815260040160405180910390fd5b600380547fffffffffffffffffffffffff00000000000000000000000000000000000000001673ffffffffffffffffffffffffffffffffffffffff84169081179091556040519081527f45d7e621935e768c84854481fb8a41a30200fbe59f86660d5e02dd876563d89890602001610a1b565b6000600d838154811061170b5761170b6137a2565b60009182526020822060059190910201546040517f70a0823100000000000000000000000000000000000000000000000000000000815233600482015273ffffffffffffffffffffffffffffffffffffffff909116925082906370a0823190602401602060405180830381865afa15801561178a573d6000803e3d6000fd5b505050506040513d601f19601f820116820180604052508101906117ae91906137d1565b9050610954848285611150565b60045473ffffffffffffffffffffffffffffffffffffffff1633811461180d576040517f82b4290000000000000000000000000000000000000000000000000000000000815260040160405180910390fd5b6000600d8381548110611822576118226137a2565b60009182526020909120600590910201805460028201546040517f09cae2c800000000000000000000000000000000000000000000000000000000815273ffffffffffffffffffffffffffffffffffffffff928316600482015290821660248201529192507f000000000000000000000000000000000000000000000000000000000000000016906309cae2c890604401600060405180830381600087803b1580156118cd57600080fd5b505af19250505080156118de575060015b506004810180547fffffffffffffffffffffff00ffffffffffffffffffffffffffffffffffffffff1674010000000000000000000000000000000000000000179055600281015473ffffffffffffffffffffffffffffffffffffffff166000908152600e60205260409081902080547fffffffffffffffffffffffffffffffffffffffffffffffffffffffffffffff00169055517f26b91c5ee7016e010d571b6baf5f465e048be724ce3b1cc7a6e25230b42ce47d906119a19085815260200190565b60405180910390a1505050565b6000600d83815481106119c3576119c36137a2565b600091825260209091206004600590920201015473ffffffffffffffffffffffffffffffffffffffff169050338114611a28576040517f82b4290000000000000000000000000000000000000000000000000000000000815260040160405180910390fd5b6040517fef5cfb8c00000000000000000000000000000000000000000000000000000000815273ffffffffffffffffffffffffffffffffffffffff83811660048301527f0000000000000000000000000000000000000000000000000000000000000000169063ef5cfb8c90602401600060405180830381600087803b158015611ab157600080fd5b505af1158015611ac5573d6000803e3d6000fd5b50505050505050565b60085473ffffffffffffffffffffffffffffffffffffffff16338114611b20576040517f82b4290000000000000000000000000000000000000000000000000000000000815260040160405180910390fd5b600880547fffffffffffffffffffffffff00000000000000000000000000000000000000001673ffffffffffffffffffffffffffffffffffffffff84169081179091556040519081527f2a1362e990f0ede76fc346823fb053633a4e6e30dfe212bf6c162ab895c3e24d90602001610a1b565b6009546040517ff40a614500000000000000000000000000000000000000000000000000000000815273ffffffffffffffffffffffffffffffffffffffff9182166004820152602481018390527f00000000000000000000000000000000000000000000000000000000000000009091169063f40a614590604401610e48565b60045473ffffffffffffffffffffffffffffffffffffffff16338114611c65576040517f82b4290000000000000000000000000000000000000000000000000000000000815260040160405180910390fd5b600480547fffffffffffffffffffffffff00000000000000000000000000000000000000001673ffffffffffffffffffffffffffffffffffffffff84169081179091556040519081527fe53395243914ebc025ce712146f66fa5e9d3f04b308fae19ac4123350d1cd20f90602001610a1b565b60025473ffffffffffffffffffffffffffffffffffffffff16338114611d2a576040517f82b4290000000000000000000000000000000000000000000000000000000000815260040160405180910390fd5b60055473ffffffffffffffffffffffffffffffffffffffff16611d9d576005805473ffffffffffffffffffffffffffffffffffffffff8087167fffffffffffffffffffffffff00000000000000000000000000000000000000009283161790925560078054928516929091169190911790555b5050600680547fffffffffffffffffffffffff00000000000000000000000000000000000000001673ffffffffffffffffffffffffffffffffffffffff9290921691909117905550565b6000600d8281548110611dfc57611dfc6137a2565b600091825260209091206004600590920201015473ffffffffffffffffffffffffffffffffffffffff169050338114611e61576040517f82b4290000000000000000000000000000000000000000000000000000000000815260040160405180910390fd5b6000600d8381548110611e7657611e766137a2565b600091825260208220600591909102016002015460405173ffffffffffffffffffffffffffffffffffffffff858116602483015290911692507fbdf9811664f53779574e5d0027299590a75c0dec0ae32053c021cdb4e3844f6790604401604080517fffffffffffffffffffffffffffffffffffffffffffffffffffffffffffffffe08184030181529181526020820180517bffffffffffffffffffffffffffffffffffffffffffffffffffffffff167fffffffff000000000000000000000000000000000000000000000000000000009094169390931790925290517fb61d27f600000000000000000000000000000000000000000000000000000000815290915073ffffffffffffffffffffffffffffffffffffffff7f0000000000000000000000000000000000000000000000000000000000000000169063b61d27f690611fca908590600090869060040161386b565b6000604051808303816000875af1158015611fe9573d6000803e3d6000fd5b505050506040513d6000823e601f3d9081017fffffffffffffffffffffffffffffffffffffffffffffffffffffffffffffffe016820160405261202f919081019061390f565b505050505050565b6000600d828154811061204c5761204c6137a2565b60009182526020822060059190910201600101546040517f70a0823100000000000000000000000000000000000000000000000000000000815233600482015273ffffffffffffffffffffffffffffffffffffffff909116925082906370a0823190602401602060405180830381865afa1580156120ce573d6000803e3d6000fd5b505050506040513d601f19601f820116820180604052508101906120f291906137d1565b90506120fe8382611625565b505050565b60085473ffffffffffffffffffffffffffffffffffffffff16338114612155576040517f82b4290000000000000000000000000000000000000000000000000000000000815260040160405180910390fd5b6040517f28fa28a900000000000000000000000000000000000000000000000000000000815273ffffffffffffffffffffffffffffffffffffffff7f000000000000000000000000000000000000000000000000000000000000000016906328fa28a9906121cd9088908890889088906004016139f0565b600060405180830381600087803b1580156121e757600080fd5b505af11580156121fb573d6000803e3d6000fd5b505050505050505050565b60035473ffffffffffffffffffffffffffffffffffffffff16338114612258576040517f82b4290000000000000000000000000000000000000000000000000000000000815260040160405180910390fd5b600554600a546040517f2f1b327100000000000000000000000000000000000000000000000000000000815273ffffffffffffffffffffffffffffffffffffffff85811660048301529182166024820152306044820152911690632f1b3271906064016020604051808303816000875af11580156122da573d6000803e3d6000fd5b505050506040513d601f19601f820116820180604052508101906122fe9190613a9a565b600b805473ffffffffffffffffffffffffffffffffffffffff9283167fffffffffffffffffffffffff000000000000000000000000000000000000000091821617909155600c80549490921693169290921790915550565b600c5474010000000000000000000000000000000000000000900460ff16156123ab576040517f4426aa1f00000000000000000000000000000000000000000000000000000000815260040160405180910390fd5b6123b481612ee9565b50565b60045473ffffffffffffffffffffffffffffffffffffffff16338114612409576040517f82b4290000000000000000000000000000000000000000000000000000000000815260040160405180910390fd5b600c5474010000000000000000000000000000000000000000900460ff161561245e576040517f4426aa1f00000000000000000000000000000000000000000000000000000000815260040160405180910390fd5b73ffffffffffffffffffffffffffffffffffffffff82161580612495575073ffffffffffffffffffffffffffffffffffffffff8316155b156124cc576040517fe523909000000000000000000000000000000000000000000000000000000000815260040160405180910390fd5b600d546007546040517f40923cf700000000000000000000000000000000000000000000000000000000815273ffffffffffffffffffffffffffffffffffffffff868116600483015260009216906340923cf7906024016020604051808303816000875af1158015612542573d6000803e3d6000fd5b505050506040513d601f19601f820116820180604052508101906125669190613a9a565b6005546040517f15914c990000000000000000000000000000000000000000000000000000000081526004810185905273ffffffffffffffffffffffffffffffffffffffff8084166024830152929350600092909116906315914c99906044016020604051808303816000875af11580156125e5573d6000803e3d6000fd5b505050506040513d601f19601f820116820180604052508101906126099190613a9a565b6006546040517fb92d53870000000000000000000000000000000000000000000000000000000081526004810186905273ffffffffffffffffffffffffffffffffffffffff88811660248301527f0000000000000000000000000000000000000000000000000000000000000000811660448301529293506000929091169063b92d5387906064016020604051808303816000875af11580156126b0573d6000803e3d6000fd5b505050506040513d601f19601f820116820180604052508101906126d49190613a9a565b905073ffffffffffffffffffffffffffffffffffffffff8116612723576040517f01485c8f00000000000000000000000000000000000000000000000000000000815260040160405180910390fd5b6040805160c08101825273ffffffffffffffffffffffffffffffffffffffff808a16825285811660208084019182528a83168486018181528885166060870190815288861660808801908152600060a08901818152600d8054600181810183558285529b5160059091027fd7b6990105719101dabeb77144f2a3385c8033acd3af97e9423a695e81ad1eb581018054928d167fffffffffffffffffffffffff000000000000000000000000000000000000000093841617905599517fd7b6990105719101dabeb77144f2a3385c8033acd3af97e9423a695e81ad1eb68b018054918d1691831691909117905595517fd7b6990105719101dabeb77144f2a3385c8033acd3af97e9423a695e81ad1eb78a018054918c1691881691909117905593517fd7b6990105719101dabeb77144f2a3385c8033acd3af97e9423a695e81ad1eb889018054918b16919096161790945590517fd7b6990105719101dabeb77144f2a3385c8033acd3af97e9423a695e81ad1eb990960180549351151574010000000000000000000000000000000000000000027fffffffffffffffffffffff0000000000000000000000000000000000000000009094169690971695909517919091179094558252600e90529290922080547fffffffffffffffffffffffffffffffffffffffffffffffffffffffffffffff00169091179055805482919086908110612932576129326137a2565b60009182526020909120600590910201600490810180547fffffffffffffffffffffffff00000000000000000000000000000000000000001673ffffffffffffffffffffffffffffffffffffffff9384161790556040517f4591dc51000000000000000000000000000000000000000000000000000000008152838316918101919091527f000000000000000000000000000000000000000000000000000000000000000090911690634591dc5190602401600060405180830381600087803b1580156129fe57600080fd5b505af1158015612a12573d6000803e3d6000fd5b50506005546040517f5e4e27db00000000000000000000000000000000000000000000000000000000815273ffffffffffffffffffffffffffffffffffffffff85811660048301529091169250635e4e27db91506024015b600060405180830381600087803b158015612a8457600080fd5b505af1158015612a98573d6000803e3d6000fd5b5050505050505050505050565b60035473ffffffffffffffffffffffffffffffffffffffff16338114612af7576040517f82b4290000000000000000000000000000000000000000000000000000000000815260040160405180910390fd5b600980547fffffffffffffffffffffffff00000000000000000000000000000000000000001673ffffffffffffffffffffffffffffffffffffffff84169081179091556040519081527fc714d22a2f08b695f81e7c707058db484aa5b4d6b4c9fd64beb10fe85832f60890602001610a1b565b60025473ffffffffffffffffffffffffffffffffffffffff16338114612bbc576040517f82b4290000000000000000000000000000000000000000000000000000000000815260040160405180910390fd5b6040517ff3ff955a00000000000000000000000000000000000000000000000000000000815273ffffffffffffffffffffffffffffffffffffffff83811660048301527f0000000000000000000000000000000000000000000000000000000000000000169063f3ff955a90602401600060405180830381600087803b158015612c4557600080fd5b505af115801561202f573d6000803e3d6000fd5b6000600d8581548110612c6e57612c6e6137a2565b600091825260209091206005909102018054600282015460018301546040517f9dc29fac00000000000000000000000000000000000000000000000000000000815273ffffffffffffffffffffffffffffffffffffffff8881166004830152602482018a905294955092841693918216929116908190639dc29fac90604401600060405180830381600087803b158015612d0757600080fd5b505af1158015612d1b573d6000803e3d6000fd5b50505050600484015474010000000000000000000000000000000000000000900460ff16612df4576040517fd9caed1200000000000000000000000000000000000000000000000000000000815273ffffffffffffffffffffffffffffffffffffffff84811660048301528381166024830152604482018990527f0000000000000000000000000000000000000000000000000000000000000000169063d9caed1290606401600060405180830381600087803b158015612ddb57600080fd5b505af1158015612def573d6000803e3d6000fd5b505050505b6040517fa9059cbb00000000000000000000000000000000000000000000000000000000815273ffffffffffffffffffffffffffffffffffffffff86811660048301526024820189905284169063a9059cbb906044016020604051808303816000875af1158015612e69573d6000803e3d6000fd5b505050506040513d601f19601f82011682018060405250810190612e8d91906137ea565b50878573ffffffffffffffffffffffffffffffffffffffff167f92ccf450a286a957af52509bc1c9939d1a6a481783e142e41e2499f0bb66ebc689604051612ed791815260200190565b60405180910390a35050505050505050565b6000600d8281548110612efe57612efe6137a2565b906000526020600020906005020190508060040160149054906101000a900460ff1615612f57576040517fefc869b400000000000000000000000000000000000000000000000000000000815260040160405180910390fd5b60028101546040517f1e4b196a00000000000000000000000000000000000000000000000000000000815273ffffffffffffffffffffffffffffffffffffffff91821660048201819052917f00000000000000000000000000000000000000000000000000000000000000001690631e4b196a906024016020604051808303816000875af1158015612fed573d6000803e3d6000fd5b505050506040513d601f19601f8201168201806040525081019061301191906137d1565b50600482015473ffffffffffffffffffffffffffffffffffffffff1680156130f4578073ffffffffffffffffffffffffffffffffffffffff1663372500ab6040518163ffffffff1660e01b8152600401600060405180830381600087803b15801561307b57600080fd5b505af115801561308f573d6000803e3d6000fd5b505050508073ffffffffffffffffffffffffffffffffffffffff1663ca8b01766040518163ffffffff1660e01b8152600401600060405180830381600087803b1580156130db57600080fd5b505af11580156130ef573d6000803e3d6000fd5b505050505b6040517f70a082310000000000000000000000000000000000000000000000000000000081523060048201526000907f000000000000000000000000000000000000000000000000000000000000000073ffffffffffffffffffffffffffffffffffffffff16906370a0823190602401602060405180830381865afa158015613181573d6000803e3d6000fd5b505050506040513d601f19601f820116820180604052508101906131a591906137d1565b90508015610e76576000612710600054836131c09190613ab7565b6131ca9190613af4565b6003546040517fa9059cbb00000000000000000000000000000000000000000000000000000000815273ffffffffffffffffffffffffffffffffffffffff9182166004820152602481018390529192507f0000000000000000000000000000000000000000000000000000000000000000169063a9059cbb906044016020604051808303816000875af1158015613265573d6000803e3d6000fd5b505050506040513d601f19601f8201168201806040525081019061328991906137ea565b5060095473ffffffffffffffffffffffffffffffffffffffff16158015906132c9575060095473ffffffffffffffffffffffffffffffffffffffff163014155b80156132d757506000600154115b156133c7576000612710600154846132ef9190613ab7565b6132f99190613af4565b90506133058184613b2f565b6009546040517fa9059cbb00000000000000000000000000000000000000000000000000000000815273ffffffffffffffffffffffffffffffffffffffff9182166004820152602481018490529194507f0000000000000000000000000000000000000000000000000000000000000000169063a9059cbb906044016020604051808303816000875af11580156133a0573d6000803e3d6000fd5b505050506040513d601f19601f820116820180604052508101906133c491906137ea565b50505b6133d18183613b2f565b60038601546040517fa9059cbb00000000000000000000000000000000000000000000000000000000815273ffffffffffffffffffffffffffffffffffffffff91821660048201819052602482018490529294507f00000000000000000000000000000000000000000000000000000000000000009091169063a9059cbb906044016020604051808303816000875af1158015613472573d6000803e3d6000fd5b505050506040513d601f19601f8201168201806040525081019061349691906137ea565b506040517f590a41f50000000000000000000000000000000000000000000000000000000081526004810184905273ffffffffffffffffffffffffffffffffffffffff82169063590a41f590602401612a6a565b600080604083850312156134fd57600080fd5b50508035926020909101359150565b73ffffffffffffffffffffffffffffffffffffffff811681146123b457600080fd5b60006020828403121561354057600080fd5b813561354b8161350c565b9392505050565b60008060006060848603121561356757600080fd5b833592506020840135915060408401356135808161350c565b809150509250925092565b60006020828403121561359d57600080fd5b5035919050565b80151581146123b457600080fd5b6000806000606084860312156135c757600080fd5b83359250602084013591506040840135613580816135a4565b600080604083850312156135f357600080fd5b823591506020830135613605816135a4565b809150509250929050565b6000806040838503121561362357600080fd5b8235915060208301356136058161350c565b60008060006060848603121561364a57600080fd5b83356136558161350c565b925060208401356136658161350c565b915060408401356135808161350c565b60008083601f84011261368757600080fd5b50813567ffffffffffffffff81111561369f57600080fd5b6020830191508360208260051b85010111156136ba57600080fd5b9250929050565b600080600080604085870312156136d757600080fd5b843567ffffffffffffffff808211156136ef57600080fd5b6136fb88838901613675565b9096509450602087013591508082111561371457600080fd5b5061372187828801613675565b95989497509550505050565b6000806040838503121561374057600080fd5b823561374b8161350c565b915060208301356136058161350c565b7f4e487b7100000000000000000000000000000000000000000000000000000000600052601160045260246000fd5b6000821982111561379d5761379d61375b565b500190565b7f4e487b7100000000000000000000000000000000000000000000000000000000600052603260045260246000fd5b6000602082840312156137e357600080fd5b5051919050565b6000602082840312156137fc57600080fd5b815161354b816135a4565b60007fffffffffffffffffffffffffffffffffffffffffffffffffffffffffffffffff82036138385761383861375b565b5060010190565b60005b8381101561385a578181015183820152602001613842565b838111156109545750506000910152565b73ffffffffffffffffffffffffffffffffffffffff8416815282602082015260606040820152600082518060608401526138ac81608085016020870161383f565b601f017fffffffffffffffffffffffffffffffffffffffffffffffffffffffffffffffe01691909101608001949350505050565b7f4e487b7100000000000000000000000000000000000000000000000000000000600052604160045260246000fd5b6000806040838503121561392257600080fd5b825161392d816135a4565b602084015190925067ffffffffffffffff8082111561394b57600080fd5b818501915085601f83011261395f57600080fd5b815181811115613971576139716138e0565b604051601f82017fffffffffffffffffffffffffffffffffffffffffffffffffffffffffffffffe0908116603f011681019083821181831017156139b7576139b76138e0565b816040528281528860208487010111156139d057600080fd5b6139e183602083016020880161383f565b80955050505050509250929050565b6040808252810184905260008560608301825b87811015613a40578235613a168161350c565b73ffffffffffffffffffffffffffffffffffffffff16825260209283019290910190600101613a03565b5083810360208501528481527f07ffffffffffffffffffffffffffffffffffffffffffffffffffffffffffffff851115613a7957600080fd5b8460051b915081866020830137600091016020019081529695505050505050565b600060208284031215613aac57600080fd5b815161354b8161350c565b6000817fffffffffffffffffffffffffffffffffffffffffffffffffffffffffffffffff0483118215151615613aef57613aef61375b565b500290565b600082613b2a577f4e487b7100000000000000000000000000000000000000000000000000000000600052601260045260246000fd5b500490565b600082821015613b4157613b4161375b565b50039056fea2646970667358221220169eff13adfeb886b72b86d15ae96a829654c4fa42be487429d8699aa48d0ef964736f6c634300080e0033",
  "devdoc": {
    "details": "Controller contract for Prime Pools is based on the convex Booster.sol contract",
    "kind": "dev",
    "methods": {
      "addPool(address,address)": {
        "params": {
          "_gauge": "The address of the gauge controller",
          "_lptoken": "The address of the lp token"
        }
      },
      "claimRewards(uint256,address)": {
        "params": {
          "_gauge": "address of the gauge",
          "_pid": "the id of the pool"
        }
      },
      "delegateVotingPower(address)": {
        "params": {
          "_delegateTo": "to whom we delegate voting power"
        }
      },
      "deposit(uint256,uint256,bool)": {
        "details": "Sender must approve LP tokens to Controller smart contract",
        "params": {
          "_amount": "The amount of lp tokens to be deposited",
          "_pid": "The pool id to deposit lp tokens into",
          "_stake": "bool for wheather the tokens should be staked"
        }
      },
      "depositAll(uint256,bool)": {
        "details": "Sender must approve LP tokens to Controller smart contract",
        "params": {
          "_pid": "The pool id to deposit lp tokens into",
          "_stake": "bool for wheather the tokens should be staked"
        }
      },
      "earmarkRewards(uint256)": {
        "params": {
          "_pid": "the id of the pool where lp tokens are held"
        }
      },
      "setFactories(address,address,address)": {
        "params": {
          "_rfactory": "The address of the reward factory",
          "_sfactory": "The address of the stash factory",
          "_tfactory": "The address of the token factory"
        }
      },
      "setFeeInfo(address)": {
        "params": {
          "_feeToken": "feeToken"
        }
      },
      "setFeeManager(address)": {
        "params": {
          "_feeM": "The address of the fee manager"
        }
      },
      "setFees(uint256,uint256)": {
        "params": {
          "_platformFee": "The amount to set for the platform fees",
          "_profitFee": "The amount to set for the profit fees"
        }
      },
      "setGaugeRedirect(uint256)": {
        "params": {
          "_pid": "the id of the pool"
        }
      },
      "setOwner(address)": {
        "params": {
          "_owner": "The address of the owner of the contract"
        }
      },
      "setPoolManager(address)": {
        "params": {
          "_poolM": "The address of the pool manager"
        }
      },
      "setRewardContracts(address)": {
        "params": {
          "_rewards": "The address of the rewards contract"
        }
      },
      "setTreasury(address)": {
        "params": {
          "_treasury": "The address of the treasury contract"
        }
      },
      "setVoteDelegate(address)": {
        "params": {
          "_voteDelegate": "The address of whom votes will be delegated to"
        }
      },
      "shutdownPool(uint256)": {
        "params": {
          "_pid": "The id of the pool to shutdown"
        }
      },
      "shutdownSystem()": {
        "details": "This shuts down the contract, unstakes and withdraws all LP tokens"
      },
      "voteGaugeWeight(address[],uint256[])": {
        "params": {
          "_gauges": "array of gauge addresses",
          "_weights": "array of vote weights"
        }
      },
      "withdraw(uint256,uint256)": {
        "params": {
          "_amount": "amount of LP tokens to withdraw",
          "_pid": "The pool id to withdraw lp tokens from"
        }
      },
      "withdrawAll(uint256)": {
        "params": {
          "_pid": "The pool id to withdraw lp tokens from"
        }
      },
      "withdrawTo(uint256,uint256,address)": {
        "params": {
          "_amount": "amount of LP tokens to withdraw",
          "_pid": "The pool id to deposit lp tokens into"
        }
      },
      "withdrawUnlockedWethBal(uint256)": {
        "params": {
          "_amount": "amount of tokens to withdraw"
        }
      }
    },
    "title": "Controller contract",
    "version": 1
  },
  "userdoc": {
    "kind": "user",
    "methods": {
      "addPool(address,address)": {
        "notice": "creates a new pool"
      },
      "claimRewards(uint256,address)": {
        "notice": "claims rewards from a specific pool"
      },
      "clearDelegation()": {
        "notice": "Clears delegation of voting power from EOA for VoterProxy"
      },
      "delegateVotingPower(address)": {
        "notice": "Delegates voting power from VoterProxy"
      },
      "deposit(uint256,uint256,bool)": {
        "notice": "Deposits an amount of LP token into a specific pool, mints reward and optionally tokens and  stakes them into the reward contract"
      },
      "depositAll(uint256,bool)": {
        "notice": "Deposits and stakes all LP tokens"
      },
      "earmarkFees()": {
        "notice": "Claims fees from the Balancer's fee distributor contract and transfers the tokens into the rewards contract"
      },
      "earmarkRewards(uint256)": {
        "notice": "Claims rewards from a pool and disperses them to the rewards contract"
      },
      "poolLength()": {
        "notice": "returns the number of pools"
      },
      "setFactories(address,address,address)": {
        "notice": "sets the reward, token, and stash factory addresses"
      },
      "setFeeInfo(address)": {
        "notice": "sets the address of the feeToken"
      },
      "setFeeManager(address)": {
        "notice": "sets the feeManager variable"
      },
      "setFees(uint256,uint256)": {
        "notice": "sets the lock, staker, caller, platform fees and profit fees"
      },
      "setGaugeRedirect(uint256)": {
        "notice": "sets the gauge redirect address"
      },
      "setOwner(address)": {
        "notice": "sets the owner variable"
      },
      "setPoolManager(address)": {
        "notice": "sets the poolManager variable"
      },
      "setRewardContracts(address)": {
        "notice": "sets the lockRewards variable"
      },
      "setTreasury(address)": {
        "notice": "sets the contracts treasury variables"
      },
      "setVoteDelegate(address)": {
        "notice": "sets the voteDelegate variable"
      },
      "shutdownPool(uint256)": {
        "notice": "shuts down a currently active pool"
      },
      "shutdownSystem()": {
        "notice": "shuts down all pools"
      },
      "voteGaugeWeight(address[],uint256[])": {
        "notice": "Votes for multiple gauges"
      },
      "withdraw(uint256,uint256)": {
        "notice": "Withdraws lp tokens from the pool"
      },
      "withdrawAll(uint256)": {
        "notice": "Withdraws all of the lp tokens in the pool"
      },
      "withdrawTo(uint256,uint256,address)": {
        "notice": "Withdraws LP tokens and sends them to a specified address"
      },
      "withdrawUnlockedWethBal(uint256)": {
        "notice": "Withdraws `amount` of unlocked WethBal to treasury"
      }
    },
    "version": 1
  },
  "storageLayout": {
    "storage": [
      {
        "astId": 4011,
        "contract": "contracts/Controller.sol:Controller",
        "label": "profitFees",
        "offset": 0,
        "slot": "0",
        "type": "t_uint256"
      },
      {
        "astId": 4014,
        "contract": "contracts/Controller.sol:Controller",
        "label": "platformFees",
        "offset": 0,
        "slot": "1",
        "type": "t_uint256"
      },
      {
        "astId": 4016,
        "contract": "contracts/Controller.sol:Controller",
        "label": "owner",
        "offset": 0,
        "slot": "2",
        "type": "t_address"
      },
      {
        "astId": 4018,
        "contract": "contracts/Controller.sol:Controller",
        "label": "feeManager",
        "offset": 0,
        "slot": "3",
        "type": "t_address"
      },
      {
        "astId": 4020,
        "contract": "contracts/Controller.sol:Controller",
        "label": "poolManager",
        "offset": 0,
        "slot": "4",
        "type": "t_address"
      },
      {
        "astId": 4022,
        "contract": "contracts/Controller.sol:Controller",
        "label": "rewardFactory",
        "offset": 0,
        "slot": "5",
        "type": "t_address"
      },
      {
        "astId": 4024,
        "contract": "contracts/Controller.sol:Controller",
        "label": "stashFactory",
        "offset": 0,
        "slot": "6",
        "type": "t_address"
      },
      {
        "astId": 4026,
        "contract": "contracts/Controller.sol:Controller",
        "label": "tokenFactory",
        "offset": 0,
        "slot": "7",
        "type": "t_address"
      },
      {
        "astId": 4028,
        "contract": "contracts/Controller.sol:Controller",
        "label": "voteDelegate",
        "offset": 0,
        "slot": "8",
        "type": "t_address"
      },
      {
        "astId": 4030,
        "contract": "contracts/Controller.sol:Controller",
        "label": "treasury",
        "offset": 0,
        "slot": "9",
        "type": "t_address"
      },
      {
        "astId": 4032,
        "contract": "contracts/Controller.sol:Controller",
        "label": "lockRewards",
        "offset": 0,
        "slot": "10",
        "type": "t_address"
      },
      {
        "astId": 4034,
        "contract": "contracts/Controller.sol:Controller",
        "label": "lockFees",
        "offset": 0,
        "slot": "11",
        "type": "t_address"
      },
      {
        "astId": 4037,
        "contract": "contracts/Controller.sol:Controller",
        "label": "feeToken",
        "offset": 0,
        "slot": "12",
        "type": "t_contract(IERC20)810"
      },
      {
        "astId": 4039,
        "contract": "contracts/Controller.sol:Controller",
        "label": "isShutdown",
        "offset": 20,
        "slot": "12",
        "type": "t_bool"
      },
      {
        "astId": 4056,
        "contract": "contracts/Controller.sol:Controller",
        "label": "poolInfo",
        "offset": 0,
        "slot": "13",
        "type": "t_array(t_struct(PoolInfo)4052_storage)dyn_storage"
      },
      {
        "astId": 4060,
        "contract": "contracts/Controller.sol:Controller",
        "label": "gaugeMap",
        "offset": 0,
        "slot": "14",
        "type": "t_mapping(t_address,t_bool)"
      }
    ],
    "types": {
      "t_address": {
        "encoding": "inplace",
        "label": "address",
        "numberOfBytes": "20"
      },
      "t_array(t_struct(PoolInfo)4052_storage)dyn_storage": {
        "base": "t_struct(PoolInfo)4052_storage",
        "encoding": "dynamic_array",
        "label": "struct Controller.PoolInfo[]",
        "numberOfBytes": "32"
      },
      "t_bool": {
        "encoding": "inplace",
        "label": "bool",
        "numberOfBytes": "1"
      },
      "t_contract(IERC20)810": {
        "encoding": "inplace",
        "label": "contract IERC20",
        "numberOfBytes": "20"
      },
      "t_mapping(t_address,t_bool)": {
        "encoding": "mapping",
        "key": "t_address",
        "label": "mapping(address => bool)",
        "numberOfBytes": "32",
        "value": "t_bool"
      },
      "t_struct(PoolInfo)4052_storage": {
        "encoding": "inplace",
        "label": "struct Controller.PoolInfo",
        "members": [
          {
            "astId": 4041,
            "contract": "contracts/Controller.sol:Controller",
            "label": "lptoken",
            "offset": 0,
            "slot": "0",
            "type": "t_address"
          },
          {
            "astId": 4043,
            "contract": "contracts/Controller.sol:Controller",
            "label": "token",
            "offset": 0,
            "slot": "1",
            "type": "t_address"
          },
          {
            "astId": 4045,
            "contract": "contracts/Controller.sol:Controller",
            "label": "gauge",
            "offset": 0,
            "slot": "2",
            "type": "t_address"
          },
          {
            "astId": 4047,
            "contract": "contracts/Controller.sol:Controller",
            "label": "balRewards",
            "offset": 0,
            "slot": "3",
            "type": "t_address"
          },
          {
            "astId": 4049,
            "contract": "contracts/Controller.sol:Controller",
            "label": "stash",
            "offset": 0,
            "slot": "4",
            "type": "t_address"
          },
          {
            "astId": 4051,
            "contract": "contracts/Controller.sol:Controller",
            "label": "shutdown",
            "offset": 20,
            "slot": "4",
            "type": "t_bool"
          }
        ],
        "numberOfBytes": "160"
      },
      "t_uint256": {
        "encoding": "inplace",
        "label": "uint256",
        "numberOfBytes": "32"
      }
    }
  }
}