{
  "address": "0xC50F287ec1d60EB89412589f90D807e29Ee4E7fd",
  "abi": [
    {
      "inputs": [
        {
          "internalType": "address",
          "name": "_staker",
          "type": "address"
        },
        {
          "internalType": "address",
          "name": "_bal",
          "type": "address"
        },
        {
          "internalType": "address",
          "name": "_feeDistro",
          "type": "address"
        },
        {
          "internalType": "address",
          "name": "_voteOwnership",
          "type": "address"
        },
        {
          "internalType": "address",
          "name": "_voteParameter",
          "type": "address"
        }
      ],
      "stateMutability": "nonpayable",
      "type": "constructor"
    },
    {
      "inputs": [],
      "name": "InvalidParameters",
      "type": "error"
    },
    {
      "inputs": [],
      "name": "PoolIsClosed",
      "type": "error"
    },
    {
      "inputs": [],
      "name": "Shutdown",
      "type": "error"
    },
    {
      "inputs": [],
      "name": "Unauthorized",
      "type": "error"
    },
    {
      "anonymous": false,
      "inputs": [
        {
          "indexed": true,
          "internalType": "address",
          "name": "user",
          "type": "address"
        },
        {
          "indexed": true,
          "internalType": "uint256",
          "name": "poolid",
          "type": "uint256"
        },
        {
          "indexed": false,
          "internalType": "uint256",
          "name": "amount",
          "type": "uint256"
        }
      ],
      "name": "Deposited",
      "type": "event"
    },
    {
      "anonymous": false,
      "inputs": [
        {
          "indexed": false,
          "internalType": "address",
          "name": "_newFeeManager",
          "type": "address"
        }
      ],
      "name": "FeeManagerChanged",
      "type": "event"
    },
    {
      "anonymous": false,
      "inputs": [
        {
          "indexed": false,
          "internalType": "uint256",
          "name": "_newPlatformFee",
          "type": "uint256"
        },
        {
          "indexed": false,
          "internalType": "uint256",
          "name": "_newProfitFee",
          "type": "uint256"
        }
      ],
      "name": "FeesChanged",
      "type": "event"
    },
    {
      "anonymous": false,
      "inputs": [
        {
          "indexed": false,
          "internalType": "address",
          "name": "_newOwner",
          "type": "address"
        }
      ],
      "name": "OwnerChanged",
      "type": "event"
    },
    {
      "anonymous": false,
      "inputs": [
        {
          "indexed": false,
          "internalType": "address",
          "name": "_newPoolManager",
          "type": "address"
        }
      ],
      "name": "PoolManagerChanged",
      "type": "event"
    },
    {
      "anonymous": false,
      "inputs": [
        {
          "indexed": false,
          "internalType": "address",
          "name": "_newTreasury",
          "type": "address"
        }
      ],
      "name": "TreasuryChanged",
      "type": "event"
    },
    {
      "anonymous": false,
      "inputs": [
        {
          "indexed": true,
          "internalType": "address",
          "name": "user",
          "type": "address"
        },
        {
          "indexed": true,
          "internalType": "uint256",
          "name": "poolid",
          "type": "uint256"
        },
        {
          "indexed": false,
          "internalType": "uint256",
          "name": "amount",
          "type": "uint256"
        }
      ],
      "name": "Withdrawn",
      "type": "event"
    },
    {
      "inputs": [],
      "name": "FEE_DENOMINATOR",
      "outputs": [
        {
          "internalType": "uint256",
          "name": "",
          "type": "uint256"
        }
      ],
      "stateMutability": "view",
      "type": "function"
    },
    {
      "inputs": [],
      "name": "MAX_FEES",
      "outputs": [
        {
          "internalType": "uint256",
          "name": "",
          "type": "uint256"
        }
      ],
      "stateMutability": "view",
      "type": "function"
    },
    {
      "inputs": [],
      "name": "MAX_LOCK_TIME",
      "outputs": [
        {
          "internalType": "uint256",
          "name": "",
          "type": "uint256"
        }
      ],
      "stateMutability": "view",
      "type": "function"
    },
    {
      "inputs": [
        {
          "internalType": "address",
          "name": "_lptoken",
          "type": "address"
        },
        {
          "internalType": "address",
          "name": "_gauge",
          "type": "address"
        }
      ],
      "name": "addPool",
      "outputs": [
        {
          "internalType": "bool",
          "name": "",
          "type": "bool"
        }
      ],
      "stateMutability": "nonpayable",
      "type": "function"
    },
    {
      "inputs": [],
      "name": "bal",
      "outputs": [
        {
          "internalType": "address",
          "name": "",
          "type": "address"
        }
      ],
      "stateMutability": "view",
      "type": "function"
    },
    {
      "inputs": [
        {
          "internalType": "uint256",
          "name": "_pid",
          "type": "uint256"
        },
        {
          "internalType": "address",
          "name": "_gauge",
          "type": "address"
        }
      ],
      "name": "claimRewards",
      "outputs": [
        {
          "internalType": "bool",
          "name": "",
          "type": "bool"
        }
      ],
      "stateMutability": "nonpayable",
      "type": "function"
    },
    {
      "inputs": [
        {
          "internalType": "uint256",
          "name": "_pid",
          "type": "uint256"
        },
        {
          "internalType": "uint256",
          "name": "_amount",
          "type": "uint256"
        },
        {
          "internalType": "bool",
          "name": "_stake",
          "type": "bool"
        }
      ],
      "name": "deposit",
      "outputs": [
        {
          "internalType": "bool",
          "name": "",
          "type": "bool"
        }
      ],
      "stateMutability": "nonpayable",
      "type": "function"
    },
    {
      "inputs": [
        {
          "internalType": "uint256",
          "name": "_pid",
          "type": "uint256"
        },
        {
          "internalType": "bool",
          "name": "_stake",
          "type": "bool"
        }
      ],
      "name": "depositAll",
      "outputs": [
        {
          "internalType": "bool",
          "name": "",
          "type": "bool"
        }
      ],
      "stateMutability": "nonpayable",
      "type": "function"
    },
    {
      "inputs": [],
      "name": "earmarkFees",
      "outputs": [
        {
          "internalType": "bool",
          "name": "",
          "type": "bool"
        }
      ],
      "stateMutability": "nonpayable",
      "type": "function"
    },
    {
      "inputs": [
        {
          "internalType": "uint256",
          "name": "_pid",
          "type": "uint256"
        }
      ],
      "name": "earmarkRewards",
      "outputs": [
        {
          "internalType": "bool",
          "name": "",
          "type": "bool"
        }
      ],
      "stateMutability": "nonpayable",
      "type": "function"
    },
    {
      "inputs": [],
      "name": "feeDistro",
      "outputs": [
        {
          "internalType": "address",
          "name": "",
          "type": "address"
        }
      ],
      "stateMutability": "view",
      "type": "function"
    },
    {
      "inputs": [],
      "name": "feeManager",
      "outputs": [
        {
          "internalType": "address",
          "name": "",
          "type": "address"
        }
      ],
      "stateMutability": "view",
      "type": "function"
    },
    {
      "inputs": [],
      "name": "feeToken",
      "outputs": [
        {
          "internalType": "contract IERC20",
          "name": "",
          "type": "address"
        }
      ],
      "stateMutability": "view",
      "type": "function"
    },
    {
      "inputs": [
        {
          "internalType": "address",
          "name": "",
          "type": "address"
        }
      ],
      "name": "gaugeMap",
      "outputs": [
        {
          "internalType": "bool",
          "name": "",
          "type": "bool"
        }
      ],
      "stateMutability": "view",
      "type": "function"
    },
    {
      "inputs": [],
      "name": "isShutdown",
      "outputs": [
        {
          "internalType": "bool",
          "name": "",
          "type": "bool"
        }
      ],
      "stateMutability": "view",
      "type": "function"
    },
    {
      "inputs": [],
      "name": "lockFees",
      "outputs": [
        {
          "internalType": "address",
          "name": "",
          "type": "address"
        }
      ],
      "stateMutability": "view",
      "type": "function"
    },
    {
      "inputs": [],
      "name": "lockRewards",
      "outputs": [
        {
          "internalType": "address",
          "name": "",
          "type": "address"
        }
      ],
      "stateMutability": "view",
      "type": "function"
    },
    {
      "inputs": [],
      "name": "owner",
      "outputs": [
        {
          "internalType": "address",
          "name": "",
          "type": "address"
        }
      ],
      "stateMutability": "view",
      "type": "function"
    },
    {
      "inputs": [],
      "name": "platformFees",
      "outputs": [
        {
          "internalType": "uint256",
          "name": "",
          "type": "uint256"
        }
      ],
      "stateMutability": "view",
      "type": "function"
    },
    {
      "inputs": [
        {
          "internalType": "uint256",
          "name": "",
          "type": "uint256"
        }
      ],
      "name": "poolInfo",
      "outputs": [
        {
          "internalType": "address",
          "name": "lptoken",
          "type": "address"
        },
        {
          "internalType": "address",
          "name": "token",
          "type": "address"
        },
        {
          "internalType": "address",
          "name": "gauge",
          "type": "address"
        },
        {
          "internalType": "address",
          "name": "balRewards",
          "type": "address"
        },
        {
          "internalType": "address",
          "name": "stash",
          "type": "address"
        },
        {
          "internalType": "bool",
          "name": "shutdown",
          "type": "bool"
        }
      ],
      "stateMutability": "view",
      "type": "function"
    },
    {
      "inputs": [],
      "name": "poolLength",
      "outputs": [
        {
          "internalType": "uint256",
          "name": "",
          "type": "uint256"
        }
      ],
      "stateMutability": "view",
      "type": "function"
    },
    {
      "inputs": [],
      "name": "poolManager",
      "outputs": [
        {
          "internalType": "address",
          "name": "",
          "type": "address"
        }
      ],
      "stateMutability": "view",
      "type": "function"
    },
    {
      "inputs": [],
      "name": "profitFees",
      "outputs": [
        {
          "internalType": "uint256",
          "name": "",
          "type": "uint256"
        }
      ],
      "stateMutability": "view",
      "type": "function"
    },
    {
      "inputs": [
        {
          "internalType": "uint256",
          "name": "_pid",
          "type": "uint256"
        }
      ],
      "name": "restake",
      "outputs": [
        {
          "internalType": "bool",
          "name": "",
          "type": "bool"
        }
      ],
      "stateMutability": "nonpayable",
      "type": "function"
    },
    {
      "inputs": [
        {
          "internalType": "uint256",
          "name": "_pid",
          "type": "uint256"
        },
        {
          "internalType": "address",
          "name": "",
          "type": "address"
        },
        {
          "internalType": "uint256",
          "name": "",
          "type": "uint256"
        }
      ],
      "name": "rewardClaimed",
      "outputs": [
        {
          "internalType": "bool",
          "name": "",
          "type": "bool"
        }
      ],
      "stateMutability": "view",
      "type": "function"
    },
    {
      "inputs": [],
      "name": "rewardFactory",
      "outputs": [
        {
          "internalType": "address",
          "name": "",
          "type": "address"
        }
      ],
      "stateMutability": "view",
      "type": "function"
    },
    {
      "inputs": [
        {
          "internalType": "address",
          "name": "_rfactory",
          "type": "address"
        },
        {
          "internalType": "address",
          "name": "_sfactory",
          "type": "address"
        },
        {
          "internalType": "address",
          "name": "_tfactory",
          "type": "address"
        }
      ],
      "name": "setFactories",
      "outputs": [],
      "stateMutability": "nonpayable",
      "type": "function"
    },
    {
      "inputs": [
        {
          "internalType": "contract IERC20",
          "name": "_feeToken",
          "type": "address"
        }
      ],
      "name": "setFeeInfo",
      "outputs": [],
      "stateMutability": "nonpayable",
      "type": "function"
    },
    {
      "inputs": [
        {
          "internalType": "address",
          "name": "_feeM",
          "type": "address"
        }
      ],
      "name": "setFeeManager",
      "outputs": [],
      "stateMutability": "nonpayable",
      "type": "function"
    },
    {
      "inputs": [
        {
          "internalType": "uint256",
          "name": "_platformFee",
          "type": "uint256"
        },
        {
          "internalType": "uint256",
          "name": "_profitFee",
          "type": "uint256"
        }
      ],
      "name": "setFees",
      "outputs": [],
      "stateMutability": "nonpayable",
      "type": "function"
    },
    {
      "inputs": [
        {
          "internalType": "uint256",
          "name": "_pid",
          "type": "uint256"
        }
      ],
      "name": "setGaugeRedirect",
      "outputs": [
        {
          "internalType": "bool",
          "name": "",
          "type": "bool"
        }
      ],
      "stateMutability": "nonpayable",
      "type": "function"
    },
    {
      "inputs": [
        {
          "internalType": "address",
          "name": "_owner",
          "type": "address"
        }
      ],
      "name": "setOwner",
      "outputs": [],
      "stateMutability": "nonpayable",
      "type": "function"
    },
    {
      "inputs": [
        {
          "internalType": "address",
          "name": "_poolM",
          "type": "address"
        }
      ],
      "name": "setPoolManager",
      "outputs": [],
      "stateMutability": "nonpayable",
      "type": "function"
    },
    {
      "inputs": [
        {
          "internalType": "address",
          "name": "_rewards",
          "type": "address"
        }
      ],
      "name": "setRewardContracts",
      "outputs": [],
      "stateMutability": "nonpayable",
      "type": "function"
    },
    {
      "inputs": [
        {
          "internalType": "address",
          "name": "_treasury",
          "type": "address"
        }
      ],
      "name": "setTreasury",
      "outputs": [],
      "stateMutability": "nonpayable",
      "type": "function"
    },
    {
      "inputs": [
        {
          "internalType": "address",
          "name": "_voteDelegate",
          "type": "address"
        }
      ],
      "name": "setVoteDelegate",
      "outputs": [],
      "stateMutability": "nonpayable",
      "type": "function"
    },
    {
      "inputs": [
        {
          "internalType": "uint256",
          "name": "_pid",
          "type": "uint256"
        }
      ],
      "name": "shutdownPool",
      "outputs": [
        {
          "internalType": "bool",
          "name": "",
          "type": "bool"
        }
      ],
      "stateMutability": "nonpayable",
      "type": "function"
    },
    {
      "inputs": [],
      "name": "shutdownSystem",
      "outputs": [],
      "stateMutability": "nonpayable",
      "type": "function"
    },
    {
      "inputs": [],
      "name": "staker",
      "outputs": [
        {
          "internalType": "address",
          "name": "",
          "type": "address"
        }
      ],
      "stateMutability": "view",
      "type": "function"
    },
    {
      "inputs": [],
      "name": "stashFactory",
      "outputs": [
        {
          "internalType": "address",
          "name": "",
          "type": "address"
        }
      ],
      "stateMutability": "view",
      "type": "function"
    },
    {
      "inputs": [],
      "name": "tokenFactory",
      "outputs": [
        {
          "internalType": "address",
          "name": "",
          "type": "address"
        }
      ],
      "stateMutability": "view",
      "type": "function"
    },
    {
      "inputs": [],
      "name": "treasury",
      "outputs": [
        {
          "internalType": "address",
          "name": "",
          "type": "address"
        }
      ],
      "stateMutability": "view",
      "type": "function"
    },
    {
      "inputs": [
        {
          "internalType": "uint256",
          "name": "_voteId",
          "type": "uint256"
        },
        {
          "internalType": "address",
          "name": "_votingAddress",
          "type": "address"
        },
        {
          "internalType": "bool",
          "name": "_support",
          "type": "bool"
        }
      ],
      "name": "vote",
      "outputs": [
        {
          "internalType": "bool",
          "name": "",
          "type": "bool"
        }
      ],
      "stateMutability": "nonpayable",
      "type": "function"
    },
    {
      "inputs": [],
      "name": "voteDelegate",
      "outputs": [
        {
          "internalType": "address",
          "name": "",
          "type": "address"
        }
      ],
      "stateMutability": "view",
      "type": "function"
    },
    {
      "inputs": [
        {
          "internalType": "address[]",
          "name": "_gauge",
          "type": "address[]"
        },
        {
          "internalType": "uint256[]",
          "name": "_weight",
          "type": "uint256[]"
        }
      ],
      "name": "voteGaugeWeight",
      "outputs": [
        {
          "internalType": "bool",
          "name": "",
          "type": "bool"
        }
      ],
      "stateMutability": "nonpayable",
      "type": "function"
    },
    {
      "inputs": [],
      "name": "voteOwnership",
      "outputs": [
        {
          "internalType": "address",
          "name": "",
          "type": "address"
        }
      ],
      "stateMutability": "view",
      "type": "function"
    },
    {
      "inputs": [],
      "name": "voteParameter",
      "outputs": [
        {
          "internalType": "address",
          "name": "",
          "type": "address"
        }
      ],
      "stateMutability": "view",
      "type": "function"
    },
    {
      "inputs": [
        {
          "internalType": "uint256",
          "name": "_pid",
          "type": "uint256"
        },
        {
          "internalType": "uint256",
          "name": "_amount",
          "type": "uint256"
        }
      ],
      "name": "withdraw",
      "outputs": [
        {
          "internalType": "bool",
          "name": "",
          "type": "bool"
        }
      ],
      "stateMutability": "nonpayable",
      "type": "function"
    },
    {
      "inputs": [
        {
          "internalType": "uint256",
          "name": "_pid",
          "type": "uint256"
        }
      ],
      "name": "withdrawAll",
      "outputs": [
        {
          "internalType": "bool",
          "name": "",
          "type": "bool"
        }
      ],
      "stateMutability": "nonpayable",
      "type": "function"
    },
    {
      "inputs": [
        {
          "internalType": "uint256",
          "name": "_pid",
          "type": "uint256"
        },
        {
          "internalType": "uint256",
          "name": "_amount",
          "type": "uint256"
        },
        {
          "internalType": "address",
          "name": "_to",
          "type": "address"
        }
      ],
      "name": "withdrawTo",
      "outputs": [
        {
          "internalType": "bool",
          "name": "",
          "type": "bool"
        }
      ],
      "stateMutability": "nonpayable",
      "type": "function"
    },
    {
      "inputs": [
        {
          "internalType": "uint256",
          "name": "_pid",
          "type": "uint256"
        },
        {
          "internalType": "uint256",
          "name": "_amount",
          "type": "uint256"
        }
      ],
      "name": "withdrawUnlockedWethBal",
      "outputs": [
        {
          "internalType": "bool",
          "name": "",
          "type": "bool"
        }
      ],
      "stateMutability": "nonpayable",
      "type": "function"
    }
  ],
  "transactionHash": "0xae09c5b688c20d8660397077fd76c2473dadda3287cb27302a6f38c7c4c841b6",
  "args": [
    "0xE60E9D00C30A46A661171C068B6cd2b0Da5B686c",
    "0xcb355677e36f390ccc4a5d4beadfbf1eb2071c81",
    "0x2A49c0e4f081f54d9F02d92b580ECf616B86F1ff",
    "0xE60E9D00C30A46A661171C068B6cd2b0Da5B686c",
    "0xE60E9D00C30A46A661171C068B6cd2b0Da5B686c"
  ],
  "solcInputHash": "e3e766566fe34d0ad4122b4efba89aaf",
  "bytecode": "0x61012060405260fa6000556103e86001553480156200001d57600080fd5b50604051620043f8380380620043f88339810160408190526200004091620000bc565b6001600160a01b0393841660805291831661010052821660c052811660e0521660a05260028054336001600160a01b0319918216811790925560088054821683179055600380548216831790556004805490911690911790556200012c565b80516001600160a01b0381168114620000b757600080fd5b919050565b600080600080600060a08688031215620000d557600080fd5b620000e0866200009f565b9450620000f0602087016200009f565b935062000100604087016200009f565b925062000110606087016200009f565b915062000120608087016200009f565b90509295509295909350565b60805160a05160c05160e051610100516141ed6200020b600039600081816107ba0152610d860152600081816106cd01526128d5015260008181610686015261288001526000818161053401528181610a4301528181610db901528181611122015281816112df015281816113b4015281816119b901528181611b68015281816120b6015281816124360152818161255e015281816129dd01528181612ce801528181613003015281816132fe01526135f20152600081816104d4015281816137970152818161388e015281816139c90152613a9901526141ed6000f3fe608060405234801561001057600080fd5b50600436106103415760003560e01c80637aef6715116101bd578063c2300bef116100f9578063d73792a9116100a2578063e77772fe1161007c578063e77772fe14610818578063eb511dd414610838578063f0f442601461084b578063fa78668f1461085e57600080fd5b8063d73792a9146107dc578063dc4c90d3146107e5578063e2cdd42a1461080557600080fd5b8063cc956f3f116100d3578063cc956f3f14610782578063d0fb020314610795578063d6a0f530146107b557600080fd5b8063c2300bef14610743578063ca10ec231461074c578063cb0d5b521461075f57600080fd5b8063a386a08011610166578063b4d2e3d111610140578063b4d2e3d1146106ef578063bce1b520146106f8578063bf86d6901461070b578063bfad96ba1461073057600080fd5b8063a386a08014610681578063ab366292146106a8578063b42eda71146106c857600080fd5b80639123d404116101975780639123d4041461063b578063958e2d311461064e5780639f00332b1461066157600080fd5b80637aef6715146105f55780637bd3b995146106085780638da5cb5b1461061b57600080fd5b8063376d771a1161028c57806360759fce11610235578063647846a51161020f578063647846a51461059c5780636c7b69cb146105bc57806371192b17146105cf57806374874323146105e257600080fd5b806360759fce1461055657806360cafe841461056957806361d027b31461057c57600080fd5b8063441a3e7011610266578063441a3e7014610509578063472d35b91461051c5780635ebaf1db1461052f57600080fd5b8063376d771a146104af5780633d79d1c8146104cf57806343a0d066146104f657600080fd5b80631526fe27116102ee57806322230b96116102c857806322230b961461047f578063245e4bf014610487578063354af919146104a757600080fd5b80631526fe2714610400578063194a4e7e146104635780631cc51d401461046c57600080fd5b80630ff343c51161031f5780630ff343c5146103b757806313af4035146103da57806314cd70e4146103ed57600080fd5b8063068eb19e14610346578063081e3eda146103905780630b78f9c0146103a2575b600080fd5b6006546103669073ffffffffffffffffffffffffffffffffffffffff1681565b60405173ffffffffffffffffffffffffffffffffffffffff90911681526020015b60405180910390f35b600d545b604051908152602001610387565b6103b56103b0366004613b93565b610869565b005b6103ca6103c5366004613b93565b610983565b6040519015158152602001610387565b6103b56103e8366004613bda565b610abf565b6103ca6103fb366004613bfe565b610b8c565b61041361040e366004613c37565b610c13565b6040805173ffffffffffffffffffffffffffffffffffffffff97881681529587166020870152938616938501939093529084166060840152909216608082015290151560a082015260c001610387565b61039460015481565b6103b561047a366004613bda565b610c92565b6103ca610d46565b6005546103669073ffffffffffffffffffffffffffffffffffffffff1681565b6103b5610fe8565b600a546103669073ffffffffffffffffffffffffffffffffffffffff1681565b6103667f000000000000000000000000000000000000000000000000000000000000000081565b6103ca610504366004613c5e565b6111d4565b6103ca610517366004613b93565b611746565b6103b561052a366004613bda565b61175d565b6103667f000000000000000000000000000000000000000000000000000000000000000081565b6103ca610564366004613c8c565b611822565b6103ca610577366004613c37565b6118e8565b6009546103669073ffffffffffffffffffffffffffffffffffffffff1681565b600c546103669073ffffffffffffffffffffffffffffffffffffffff1681565b6103ca6105ca366004613cbc565b611aa8565b6103ca6105dd366004613ce1565b611bce565b6103b56105f0366004613bda565b611ca0565b6103b5610603366004613bda565b611d38565b6103b5610616366004613d19565b611dfd565b6002546103669073ffffffffffffffffffffffffffffffffffffffff1681565b6103ca610649366004613c37565b611f0c565b6103ca61065c366004613c37565b612162565b6008546103669073ffffffffffffffffffffffffffffffffffffffff1681565b6103667f000000000000000000000000000000000000000000000000000000000000000081565b600b546103669073ffffffffffffffffffffffffffffffffffffffff1681565b6103667f000000000000000000000000000000000000000000000000000000000000000081565b61039460005481565b6103ca610706366004613c37565b61222a565b600c546103ca9074010000000000000000000000000000000000000000900460ff1681565b6103ca61073e366004613da5565b6124fc565b6103946107d081565b6103b561075a366004613bda565b612670565b6103ca61076d366004613bda565b600e6020526000908152604090205460ff1681565b6103ca610790366004613c37565b6127c0565b6003546103669073ffffffffffffffffffffffffffffffffffffffff1681565b6103667f000000000000000000000000000000000000000000000000000000000000000081565b61039461271081565b6004546103669073ffffffffffffffffffffffffffffffffffffffff1681565b6103ca610813366004613e11565b612829565b6007546103669073ffffffffffffffffffffffffffffffffffffffff1681565b6103ca610846366004613e48565b612a44565b6103b5610859366004613bda565b6130fb565b6103946301e1338081565b60035473ffffffffffffffffffffffffffffffffffffffff163381146108bb576040517f82b4290000000000000000000000000000000000000000000000000000000000815260040160405180910390fd5b60006108c78484613ea5565b90506107d0811115610905576040517fe523909000000000000000000000000000000000000000000000000000000000815260040160405180910390fd5b6101f4841015801561091957506107d08411155b8015610926575060648310155b801561093457506101f48311155b1561097d576001849055600083905560408051858152602081018590527f64f84976d9c917a44796104a59950fdbd9b3c16a5dd348b546d738301f6bd068910160405180910390a15b50505050565b600080600d848154811061099957610999613ebd565b600091825260209091206005909102016002810154600482015491925073ffffffffffffffffffffffffffffffffffffffff169074010000000000000000000000000000000000000000900460ff16610ab4576009546040517fe68cb15d00000000000000000000000000000000000000000000000000000000815273ffffffffffffffffffffffffffffffffffffffff91821660048201528282166024820152604481018690527f00000000000000000000000000000000000000000000000000000000000000009091169063e68cb15d906064016020604051808303816000875af1158015610a8e573d6000803e3d6000fd5b505050506040513d601f19601f82011682018060405250810190610ab29190613eec565b505b506001949350505050565b60025473ffffffffffffffffffffffffffffffffffffffff16338114610b11576040517f82b4290000000000000000000000000000000000000000000000000000000000815260040160405180910390fd5b600280547fffffffffffffffffffffffff00000000000000000000000000000000000000001673ffffffffffffffffffffffffffffffffffffffff84169081179091556040519081527fa2ea9883a321a3e97b8266c2b078bfeec6d50c711ed71f874a90d500ae2eaf36906020015b60405180910390a15050565b600080600d8581548110610ba257610ba2613ebd565b600091825260209091206003600590920201015473ffffffffffffffffffffffffffffffffffffffff169050338114610c07576040517f82b4290000000000000000000000000000000000000000000000000000000000815260040160405180910390fd5b610ab4858533866131c0565b600d8181548110610c2357600080fd5b60009182526020909120600590910201805460018201546002830154600384015460049094015473ffffffffffffffffffffffffffffffffffffffff93841695509183169390831692908116919081169074010000000000000000000000000000000000000000900460ff1686565b60025473ffffffffffffffffffffffffffffffffffffffff16338114610ce4576040517f82b4290000000000000000000000000000000000000000000000000000000000815260040160405180910390fd5b600a5473ffffffffffffffffffffffffffffffffffffffff16610d4257600a80547fffffffffffffffffffffffff00000000000000000000000000000000000000001673ffffffffffffffffffffffffffffffffffffffff84161790555b5050565b600c546040517f2dbfa73500000000000000000000000000000000000000000000000000000000815273ffffffffffffffffffffffffffffffffffffffff7f00000000000000000000000000000000000000000000000000000000000000008116600483015291821660248201526000917f00000000000000000000000000000000000000000000000000000000000000001690632dbfa735906044016020604051808303816000875af1158015610e02573d6000803e3d6000fd5b505050506040513d601f19601f82011682018060405250810190610e269190613f09565b50600c546040517f70a0823100000000000000000000000000000000000000000000000000000000815230600482015260009173ffffffffffffffffffffffffffffffffffffffff16906370a0823190602401602060405180830381865afa158015610e96573d6000803e3d6000fd5b505050506040513d601f19601f82011682018060405250810190610eba9190613f09565b600c54600b546040517fa9059cbb00000000000000000000000000000000000000000000000000000000815273ffffffffffffffffffffffffffffffffffffffff918216600482015260248101849052929350169063a9059cbb906044016020604051808303816000875af1158015610f37573d6000803e3d6000fd5b505050506040513d601f19601f82011682018060405250810190610f5b9190613eec565b50600b546040517f590a41f50000000000000000000000000000000000000000000000000000000081526004810183905273ffffffffffffffffffffffffffffffffffffffff9091169063590a41f590602401600060405180830381600087803b158015610fc857600080fd5b505af1158015610fdc573d6000803e3d6000fd5b50505050600191505090565b60025473ffffffffffffffffffffffffffffffffffffffff1633811461103a576040517f82b4290000000000000000000000000000000000000000000000000000000000815260040160405180910390fd5b600c80547fffffffffffffffffffffff00ffffffffffffffffffffffffffffffffffffffff167401000000000000000000000000000000000000000017905560005b600d54811015610d42576000600d828154811061109b5761109b613ebd565b906000526020600020906005020190508060040160149054906101000a900460ff16156110c857506111c2565b805460028201546040517f09cae2c800000000000000000000000000000000000000000000000000000000815273ffffffffffffffffffffffffffffffffffffffff928316600482018190529183166024820181905291927f000000000000000000000000000000000000000000000000000000000000000016906309cae2c890604401600060405180830381600087803b15801561116657600080fd5b505af1925050508015611177575060015b156111be576004830180547fffffffffffffffffffffff00ffffffffffffffffffffffffffffffffffffffff16740100000000000000000000000000000000000000001790555b5050505b806111cc81613f22565b91505061107c565b600c5460009074010000000000000000000000000000000000000000900460ff161561122c576040517f4426aa1f00000000000000000000000000000000000000000000000000000000815260040160405180910390fd5b6000600d858154811061124157611241613ebd565b906000526020600020906005020190508060040160149054906101000a900460ff161561129a576040517fefc869b400000000000000000000000000000000000000000000000000000000815260040160405180910390fd5b80546040517f23b872dd00000000000000000000000000000000000000000000000000000000815233600482015273ffffffffffffffffffffffffffffffffffffffff7f000000000000000000000000000000000000000000000000000000000000000081166024830152604482018790529091169081906323b872dd906064016020604051808303816000875af115801561133a573d6000803e3d6000fd5b505050506040513d601f19601f8201168201806040525081019061135e9190613eec565b5060028201546040517ff9609f0800000000000000000000000000000000000000000000000000000000815273ffffffffffffffffffffffffffffffffffffffff838116600483015291821660248201819052917f0000000000000000000000000000000000000000000000000000000000000000169063f9609f0890604401600060405180830381600087803b1580156113f857600080fd5b505af115801561140c573d6000803e3d6000fd5b50505050600483015473ffffffffffffffffffffffffffffffffffffffff1680156114a4578073ffffffffffffffffffffffffffffffffffffffff1663b87bd4816040518163ffffffff1660e01b81526004016020604051808303816000875af115801561147e573d6000803e3d6000fd5b505050506040513d601f19601f820116820180604052508101906114a29190613eec565b505b600184015473ffffffffffffffffffffffffffffffffffffffff168615611679576040517f40c10f190000000000000000000000000000000000000000000000000000000081523060048201526024810189905273ffffffffffffffffffffffffffffffffffffffff8216906340c10f1990604401600060405180830381600087803b15801561153357600080fd5b505af1158015611547573d6000803e3d6000fd5b5050505060038501546040517f095ea7b300000000000000000000000000000000000000000000000000000000815273ffffffffffffffffffffffffffffffffffffffff91821660048201819052602482018b90529183169063095ea7b3906044016020604051808303816000875af11580156115c8573d6000803e3d6000fd5b505050506040513d601f19601f820116820180604052508101906115ec9190613eec565b506040517f2ee40908000000000000000000000000000000000000000000000000000000008152336004820152602481018a905273ffffffffffffffffffffffffffffffffffffffff821690632ee4090890604401600060405180830381600087803b15801561165b57600080fd5b505af115801561166f573d6000803e3d6000fd5b5050505050611700565b6040517f40c10f190000000000000000000000000000000000000000000000000000000081523360048201526024810189905273ffffffffffffffffffffffffffffffffffffffff8216906340c10f1990604401600060405180830381600087803b1580156116e757600080fd5b505af11580156116fb573d6000803e3d6000fd5b505050505b604051888152899033907f73a19dd210f1a7f902193214c0ee91dd35ee5b4d920cba8d519eca65a7b488ca9060200160405180910390a350600198975050505050505050565b6000611754838333336131c0565b50600192915050565b60035473ffffffffffffffffffffffffffffffffffffffff163381146117af576040517f82b4290000000000000000000000000000000000000000000000000000000000815260040160405180910390fd5b600380547fffffffffffffffffffffffff00000000000000000000000000000000000000001673ffffffffffffffffffffffffffffffffffffffff84169081179091556040519081527f45d7e621935e768c84854481fb8a41a30200fbe59f86660d5e02dd876563d89890602001610b80565b600080600d848154811061183857611838613ebd565b60009182526020822060059190910201546040517f70a0823100000000000000000000000000000000000000000000000000000000815233600482015273ffffffffffffffffffffffffffffffffffffffff909116925082906370a0823190602401602060405180830381865afa1580156118b7573d6000803e3d6000fd5b505050506040513d601f19601f820116820180604052508101906118db9190613f09565b9050610ab28582866111d4565b60045460009073ffffffffffffffffffffffffffffffffffffffff1633811461193d576040517f82b4290000000000000000000000000000000000000000000000000000000000815260040160405180910390fd5b6000600d848154811061195257611952613ebd565b60009182526020909120600590910201805460028201546040517f09cae2c800000000000000000000000000000000000000000000000000000000815273ffffffffffffffffffffffffffffffffffffffff928316600482015290821660248201529192507f000000000000000000000000000000000000000000000000000000000000000016906309cae2c890604401600060405180830381600087803b1580156119fd57600080fd5b505af1925050508015611a0e575060015b506004810180547fffffffffffffffffffffff00ffffffffffffffffffffffffffffffffffffffff16740100000000000000000000000000000000000000001790556002015473ffffffffffffffffffffffffffffffffffffffff166000908152600e6020526040902080547fffffffffffffffffffffffffffffffffffffffffffffffffffffffffffffff001690556001915050919050565b600080600d8481548110611abe57611abe613ebd565b600091825260209091206004600590920201015473ffffffffffffffffffffffffffffffffffffffff169050338114611b23576040517f82b4290000000000000000000000000000000000000000000000000000000000815260040160405180910390fd5b6040517fef5cfb8c00000000000000000000000000000000000000000000000000000000815273ffffffffffffffffffffffffffffffffffffffff84811660048301527f0000000000000000000000000000000000000000000000000000000000000000169063ef5cfb8c90602401600060405180830381600087803b158015611bac57600080fd5b505af1158015611bc0573d6000803e3d6000fd5b506001979650505050505050565b600080600d8581548110611be457611be4613ebd565b600091825260209091206003600590920201015473ffffffffffffffffffffffffffffffffffffffff16905033811480611c355750600a5473ffffffffffffffffffffffffffffffffffffffff1633145b610ab4576040517f08c379a000000000000000000000000000000000000000000000000000000000815260206004820152600560248201527f216175746800000000000000000000000000000000000000000000000000000060448201526064015b60405180910390fd5b60085473ffffffffffffffffffffffffffffffffffffffff163314611cf1576040517f82b4290000000000000000000000000000000000000000000000000000000000815260040160405180910390fd5b600880547fffffffffffffffffffffffff00000000000000000000000000000000000000001673ffffffffffffffffffffffffffffffffffffffff92909216919091179055565b60045473ffffffffffffffffffffffffffffffffffffffff16338114611d8a576040517f82b4290000000000000000000000000000000000000000000000000000000000815260040160405180910390fd5b600480547fffffffffffffffffffffffff00000000000000000000000000000000000000001673ffffffffffffffffffffffffffffffffffffffff84169081179091556040519081527fe53395243914ebc025ce712146f66fa5e9d3f04b308fae19ac4123350d1cd20f90602001610b80565b60025473ffffffffffffffffffffffffffffffffffffffff16338114611e4f576040517f82b4290000000000000000000000000000000000000000000000000000000000815260040160405180910390fd5b60055473ffffffffffffffffffffffffffffffffffffffff16611ec2576005805473ffffffffffffffffffffffffffffffffffffffff8087167fffffffffffffffffffffffff00000000000000000000000000000000000000009283161790925560078054928516929091169190911790555b5050600680547fffffffffffffffffffffffff00000000000000000000000000000000000000001673ffffffffffffffffffffffffffffffffffffffff9290921691909117905550565b600080600d8381548110611f2257611f22613ebd565b600091825260209091206004600590920201015473ffffffffffffffffffffffffffffffffffffffff169050338114611f87576040517f82b4290000000000000000000000000000000000000000000000000000000000815260040160405180910390fd5b6000600d8481548110611f9c57611f9c613ebd565b600091825260208220600591909102016002015460405173ffffffffffffffffffffffffffffffffffffffff858116602483015290911692507fbdf9811664f53779574e5d0027299590a75c0dec0ae32053c021cdb4e3844f6790604401604080517fffffffffffffffffffffffffffffffffffffffffffffffffffffffffffffffe08184030181529181526020820180517bffffffffffffffffffffffffffffffffffffffffffffffffffffffff167fffffffff000000000000000000000000000000000000000000000000000000009094169390931790925290517fb61d27f600000000000000000000000000000000000000000000000000000000815290915073ffffffffffffffffffffffffffffffffffffffff7f0000000000000000000000000000000000000000000000000000000000000000169063b61d27f6906120f09085906000908690600401613f86565b6000604051808303816000875af115801561210f573d6000803e3d6000fd5b505050506040513d6000823e601f3d9081017fffffffffffffffffffffffffffffffffffffffffffffffffffffffffffffffe0168201604052612155919081019061402a565b5060019695505050505050565b600080600d838154811061217857612178613ebd565b60009182526020822060059190910201600101546040517f70a0823100000000000000000000000000000000000000000000000000000000815233600482015273ffffffffffffffffffffffffffffffffffffffff909116925082906370a0823190602401602060405180830381865afa1580156121fa573d6000803e3d6000fd5b505050506040513d601f19601f8201168201806040525081019061221e9190613f09565b9050610ab48482611746565b600c5460009074010000000000000000000000000000000000000000900460ff1615612282576040517f4426aa1f00000000000000000000000000000000000000000000000000000000815260040160405180910390fd5b6000600d838154811061229757612297613ebd565b906000526020600020906005020190508060040160149054906101000a900460ff16156122f0576040517fefc869b400000000000000000000000000000000000000000000000000000000815260040160405180910390fd5b600481015473ffffffffffffffffffffffffffffffffffffffff168015612384578073ffffffffffffffffffffffffffffffffffffffff1663b87bd4816040518163ffffffff1660e01b81526004016020604051808303816000875af115801561235e573d6000803e3d6000fd5b505050506040513d601f19601f820116820180604052508101906123829190613eec565b505b60018201546040517f70a0823100000000000000000000000000000000000000000000000000000000815233600482015273ffffffffffffffffffffffffffffffffffffffff9091169060009082906370a0823190602401602060405180830381865afa1580156123f9573d6000803e3d6000fd5b505050506040513d601f19601f8201168201806040525081019061241d9190613f09565b905073ffffffffffffffffffffffffffffffffffffffff7f000000000000000000000000000000000000000000000000000000000000000016633c9a2a1a6124696301e1338042613ea5565b6040518263ffffffff1660e01b815260040161248791815260200190565b600060405180830381600087803b1580156124a157600080fd5b505af11580156124b5573d6000803e3d6000fd5b50506040518381528892503391507f73a19dd210f1a7f902193214c0ee91dd35ee5b4d920cba8d519eca65a7b488ca9060200160405180910390a350600195945050505050565b60085460009073ffffffffffffffffffffffffffffffffffffffff16338114612551576040517f82b4290000000000000000000000000000000000000000000000000000000000815260040160405180910390fd5b60005b85811015612155577f000000000000000000000000000000000000000000000000000000000000000073ffffffffffffffffffffffffffffffffffffffff16635d7e9bcb8888848181106125aa576125aa613ebd565b90506020020160208101906125bf9190613bda565b8787858181106125d1576125d1613ebd565b6040517fffffffff0000000000000000000000000000000000000000000000000000000060e087901b16815273ffffffffffffffffffffffffffffffffffffffff90941660048501526020029190910135602483015250604401600060405180830381600087803b15801561264557600080fd5b505af1158015612659573d6000803e3d6000fd5b50505050808061266890613f22565b915050612554565b60035473ffffffffffffffffffffffffffffffffffffffff163381146126c2576040517f82b4290000000000000000000000000000000000000000000000000000000000815260040160405180910390fd5b600554600a546040517f2f1b327100000000000000000000000000000000000000000000000000000000815273ffffffffffffffffffffffffffffffffffffffff85811660048301529182166024820152306044820152911690632f1b3271906064016020604051808303816000875af1158015612744573d6000803e3d6000fd5b505050506040513d601f19601f82011682018060405250810190612768919061410b565b600b805473ffffffffffffffffffffffffffffffffffffffff9283167fffffffffffffffffffffffff000000000000000000000000000000000000000091821617909155600c80549490921693169290921790915550565b600c5460009074010000000000000000000000000000000000000000900460ff1615612818576040517f4426aa1f00000000000000000000000000000000000000000000000000000000815260040160405180910390fd5b61282182613537565b506001919050565b60085460009073ffffffffffffffffffffffffffffffffffffffff1633811461287e576040517f82b4290000000000000000000000000000000000000000000000000000000000815260040160405180910390fd5b7f000000000000000000000000000000000000000000000000000000000000000073ffffffffffffffffffffffffffffffffffffffff168473ffffffffffffffffffffffffffffffffffffffff16148061292357507f000000000000000000000000000000000000000000000000000000000000000073ffffffffffffffffffffffffffffffffffffffff168473ffffffffffffffffffffffffffffffffffffffff16145b612989576040517f08c379a000000000000000000000000000000000000000000000000000000000815260206004820152600960248201527f21766f74654164647200000000000000000000000000000000000000000000006044820152606401611c97565b6040517fe2cdd42a0000000000000000000000000000000000000000000000000000000081526004810186905273ffffffffffffffffffffffffffffffffffffffff858116602483015284151560448301527f0000000000000000000000000000000000000000000000000000000000000000169063e2cdd42a90606401600060405180830381600087803b158015612a2157600080fd5b505af1158015612a35573d6000803e3d6000fd5b50600198975050505050505050565b60045460009073ffffffffffffffffffffffffffffffffffffffff16338114612a99576040517f82b4290000000000000000000000000000000000000000000000000000000000815260040160405180910390fd5b600c5474010000000000000000000000000000000000000000900460ff1615612aee576040517f4426aa1f00000000000000000000000000000000000000000000000000000000815260040160405180910390fd5b73ffffffffffffffffffffffffffffffffffffffff83161580612b25575073ffffffffffffffffffffffffffffffffffffffff8416155b15612b5c576040517fe523909000000000000000000000000000000000000000000000000000000000815260040160405180910390fd5b600d546007546040517f40923cf700000000000000000000000000000000000000000000000000000000815273ffffffffffffffffffffffffffffffffffffffff878116600483015260009216906340923cf7906024016020604051808303816000875af1158015612bd2573d6000803e3d6000fd5b505050506040513d601f19601f82011682018060405250810190612bf6919061410b565b6005546040517f15914c990000000000000000000000000000000000000000000000000000000081526004810185905273ffffffffffffffffffffffffffffffffffffffff8084166024830152929350600092909116906315914c99906044016020604051808303816000875af1158015612c75573d6000803e3d6000fd5b505050506040513d601f19601f82011682018060405250810190612c99919061410b565b6006546040517fb92d53870000000000000000000000000000000000000000000000000000000081526004810186905273ffffffffffffffffffffffffffffffffffffffff89811660248301527f0000000000000000000000000000000000000000000000000000000000000000811660448301529293506000929091169063b92d5387906064016020604051808303816000875af1158015612d40573d6000803e3d6000fd5b505050506040513d601f19601f82011682018060405250810190612d64919061410b565b6040805160c08101825273ffffffffffffffffffffffffffffffffffffffff808c16825286811660208084019182528c83168486018181528985166060870190815285891660808801818152600060a08a01818152600d8054600181810183559184529b516005909c027fd7b6990105719101dabeb77144f2a3385c8033acd3af97e9423a695e81ad1eb5810180549d8d167fffffffffffffffffffffffff00000000000000000000000000000000000000009e8f1617905599517fd7b6990105719101dabeb77144f2a3385c8033acd3af97e9423a695e81ad1eb68b018054918d16918e1691909117905595517fd7b6990105719101dabeb77144f2a3385c8033acd3af97e9423a695e81ad1eb78a018054918c16918d1691909117905593517fd7b6990105719101dabeb77144f2a3385c8033acd3af97e9423a695e81ad1eb889018054918b1691909b1617909955517fd7b6990105719101dabeb77144f2a3385c8033acd3af97e9423a695e81ad1eb990960180549251151574010000000000000000000000000000000000000000027fffffffffffffffffffffff0000000000000000000000000000000000000000009093169690971695909517179094558452600e90529290912080547fffffffffffffffffffffffffffffffffffffffffffffffffffffffffffffff0016909117905590915015611bc05780600d8581548110612f7657612f76613ebd565b60009182526020909120600590910201600490810180547fffffffffffffffffffffffff00000000000000000000000000000000000000001673ffffffffffffffffffffffffffffffffffffffff9384161790556040517ffa3964b200000000000000000000000000000000000000000000000000000000815283831691810191909152600160248201527f00000000000000000000000000000000000000000000000000000000000000009091169063fa3964b290604401600060405180830381600087803b15801561304957600080fd5b505af115801561305d573d6000803e3d6000fd5b50506005546040517fb84614a500000000000000000000000000000000000000000000000000000000815273ffffffffffffffffffffffffffffffffffffffff858116600483015260016024830152909116925063b84614a59150604401600060405180830381600087803b1580156130d557600080fd5b505af11580156130e9573d6000803e3d6000fd5b50505050506001979650505050505050565b60035473ffffffffffffffffffffffffffffffffffffffff1633811461314d576040517f82b4290000000000000000000000000000000000000000000000000000000000815260040160405180910390fd5b600980547fffffffffffffffffffffffff00000000000000000000000000000000000000001673ffffffffffffffffffffffffffffffffffffffff84169081179091556040519081527fc714d22a2f08b695f81e7c707058db484aa5b4d6b4c9fd64beb10fe85832f60890602001610b80565b6000600d85815481106131d5576131d5613ebd565b600091825260209091206005909102018054600282015460018301546040517f9dc29fac00000000000000000000000000000000000000000000000000000000815273ffffffffffffffffffffffffffffffffffffffff8881166004830152602482018a905294955092841693918216929116908190639dc29fac90604401600060405180830381600087803b15801561326e57600080fd5b505af1158015613282573d6000803e3d6000fd5b50505050600484015474010000000000000000000000000000000000000000900460ff1661335b576040517fd9caed1200000000000000000000000000000000000000000000000000000000815273ffffffffffffffffffffffffffffffffffffffff84811660048301528381166024830152604482018990527f0000000000000000000000000000000000000000000000000000000000000000169063d9caed1290606401600060405180830381600087803b15801561334257600080fd5b505af1158015613356573d6000803e3d6000fd5b505050505b600484015473ffffffffffffffffffffffffffffffffffffffff1680158015906133a05750600c5474010000000000000000000000000000000000000000900460ff16155b80156133c95750600485015474010000000000000000000000000000000000000000900460ff16155b15613441578073ffffffffffffffffffffffffffffffffffffffff1663b87bd4816040518163ffffffff1660e01b81526004016020604051808303816000875af115801561341b573d6000803e3d6000fd5b505050506040513d601f19601f8201168201806040525081019061343f9190613eec565b505b6040517fa9059cbb00000000000000000000000000000000000000000000000000000000815273ffffffffffffffffffffffffffffffffffffffff8781166004830152602482018a905285169063a9059cbb906044016020604051808303816000875af11580156134b6573d6000803e3d6000fd5b505050506040513d601f19601f820116820180604052508101906134da9190613eec565b50888673ffffffffffffffffffffffffffffffffffffffff167f92ccf450a286a957af52509bc1c9939d1a6a481783e142e41e2499f0bb66ebc68a60405161352491815260200190565b60405180910390a3505050505050505050565b6000600d828154811061354c5761354c613ebd565b906000526020600020906005020190508060040160149054906101000a900460ff16156135a5576040517fefc869b400000000000000000000000000000000000000000000000000000000815260040160405180910390fd5b60028101546040517f1e4b196a00000000000000000000000000000000000000000000000000000000815273ffffffffffffffffffffffffffffffffffffffff91821660048201819052917f00000000000000000000000000000000000000000000000000000000000000001690631e4b196a906024016020604051808303816000875af115801561363b573d6000803e3d6000fd5b505050506040513d601f19601f8201168201806040525081019061365f9190613f09565b50600482015473ffffffffffffffffffffffffffffffffffffffff168015613766578073ffffffffffffffffffffffffffffffffffffffff1663372500ab6040518163ffffffff1660e01b81526004016020604051808303816000875af11580156136ce573d6000803e3d6000fd5b505050506040513d601f19601f820116820180604052508101906136f29190613eec565b508073ffffffffffffffffffffffffffffffffffffffff1663ca8b01766040518163ffffffff1660e01b81526004016020604051808303816000875af1158015613740573d6000803e3d6000fd5b505050506040513d601f19601f820116820180604052508101906137649190613eec565b505b6040517f70a082310000000000000000000000000000000000000000000000000000000081523060048201526000907f000000000000000000000000000000000000000000000000000000000000000073ffffffffffffffffffffffffffffffffffffffff16906370a0823190602401602060405180830381865afa1580156137f3573d6000803e3d6000fd5b505050506040513d601f19601f820116820180604052508101906138179190613f09565b90508015613b8c576000612710600054836138329190614128565b61383c9190614165565b6003546040517fa9059cbb00000000000000000000000000000000000000000000000000000000815273ffffffffffffffffffffffffffffffffffffffff9182166004820152602481018390529192507f0000000000000000000000000000000000000000000000000000000000000000169063a9059cbb906044016020604051808303816000875af11580156138d7573d6000803e3d6000fd5b505050506040513d601f19601f820116820180604052508101906138fb9190613eec565b5060095473ffffffffffffffffffffffffffffffffffffffff161580159061393b575060095473ffffffffffffffffffffffffffffffffffffffff163014155b801561394957506000600154115b15613a39576000612710600154846139619190614128565b61396b9190614165565b905061397781846141a0565b6009546040517fa9059cbb00000000000000000000000000000000000000000000000000000000815273ffffffffffffffffffffffffffffffffffffffff9182166004820152602481018490529194507f0000000000000000000000000000000000000000000000000000000000000000169063a9059cbb906044016020604051808303816000875af1158015613a12573d6000803e3d6000fd5b505050506040513d601f19601f82011682018060405250810190613a369190613eec565b50505b613a4381836141a0565b60038601546040517fa9059cbb00000000000000000000000000000000000000000000000000000000815273ffffffffffffffffffffffffffffffffffffffff91821660048201819052602482018490529294507f00000000000000000000000000000000000000000000000000000000000000009091169063a9059cbb906044016020604051808303816000875af1158015613ae4573d6000803e3d6000fd5b505050506040513d601f19601f82011682018060405250810190613b089190613eec565b506040517f590a41f50000000000000000000000000000000000000000000000000000000081526004810184905273ffffffffffffffffffffffffffffffffffffffff82169063590a41f590602401600060405180830381600087803b158015613b7157600080fd5b505af1158015613b85573d6000803e3d6000fd5b5050505050505b5050505050565b60008060408385031215613ba657600080fd5b50508035926020909101359150565b73ffffffffffffffffffffffffffffffffffffffff81168114613bd757600080fd5b50565b600060208284031215613bec57600080fd5b8135613bf781613bb5565b9392505050565b600080600060608486031215613c1357600080fd5b83359250602084013591506040840135613c2c81613bb5565b809150509250925092565b600060208284031215613c4957600080fd5b5035919050565b8015158114613bd757600080fd5b600080600060608486031215613c7357600080fd5b83359250602084013591506040840135613c2c81613c50565b60008060408385031215613c9f57600080fd5b823591506020830135613cb181613c50565b809150509250929050565b60008060408385031215613ccf57600080fd5b823591506020830135613cb181613bb5565b600080600060608486031215613cf657600080fd5b833592506020840135613d0881613bb5565b929592945050506040919091013590565b600080600060608486031215613d2e57600080fd5b8335613d3981613bb5565b92506020840135613d4981613bb5565b91506040840135613c2c81613bb5565b60008083601f840112613d6b57600080fd5b50813567ffffffffffffffff811115613d8357600080fd5b6020830191508360208260051b8501011115613d9e57600080fd5b9250929050565b60008060008060408587031215613dbb57600080fd5b843567ffffffffffffffff80821115613dd357600080fd5b613ddf88838901613d59565b90965094506020870135915080821115613df857600080fd5b50613e0587828801613d59565b95989497509550505050565b600080600060608486031215613e2657600080fd5b833592506020840135613e3881613bb5565b91506040840135613c2c81613c50565b60008060408385031215613e5b57600080fd5b8235613e6681613bb5565b91506020830135613cb181613bb5565b7f4e487b7100000000000000000000000000000000000000000000000000000000600052601160045260246000fd5b60008219821115613eb857613eb8613e76565b500190565b7f4e487b7100000000000000000000000000000000000000000000000000000000600052603260045260246000fd5b600060208284031215613efe57600080fd5b8151613bf781613c50565b600060208284031215613f1b57600080fd5b5051919050565b60007fffffffffffffffffffffffffffffffffffffffffffffffffffffffffffffffff8203613f5357613f53613e76565b5060010190565b60005b83811015613f75578181015183820152602001613f5d565b8381111561097d5750506000910152565b73ffffffffffffffffffffffffffffffffffffffff841681528260208201526060604082015260008251806060840152613fc7816080850160208701613f5a565b601f017fffffffffffffffffffffffffffffffffffffffffffffffffffffffffffffffe01691909101608001949350505050565b7f4e487b7100000000000000000000000000000000000000000000000000000000600052604160045260246000fd5b6000806040838503121561403d57600080fd5b825161404881613c50565b602084015190925067ffffffffffffffff8082111561406657600080fd5b818501915085601f83011261407a57600080fd5b81518181111561408c5761408c613ffb565b604051601f82017fffffffffffffffffffffffffffffffffffffffffffffffffffffffffffffffe0908116603f011681019083821181831017156140d2576140d2613ffb565b816040528281528860208487010111156140eb57600080fd5b6140fc836020830160208801613f5a565b80955050505050509250929050565b60006020828403121561411d57600080fd5b8151613bf781613bb5565b6000817fffffffffffffffffffffffffffffffffffffffffffffffffffffffffffffffff048311821515161561416057614160613e76565b500290565b60008261419b577f4e487b7100000000000000000000000000000000000000000000000000000000600052601260045260246000fd5b500490565b6000828210156141b2576141b2613e76565b50039056fea26469706673582212200a049e452c713601f3bb9f6d4d5797846f52f77cc12c7ccb75d7df1cc42416be64736f6c634300080e0033",
  "devdoc": {
    "details": "Controller contract for Prime Pools is based on the convex Booster.sol contract",
    "kind": "dev",
    "methods": {
      "addPool(address,address)": {
        "params": {
          "_gauge": "The address of the gauge controller",
          "_lptoken": "The address of the lp token"
        }
      },
      "claimRewards(uint256,address)": {
        "params": {
          "_gauge": "address of the gauge",
          "_pid": "the id of the pool"
        }
      },
      "deposit(uint256,uint256,bool)": {
        "params": {
          "_amount": "The amount of lp tokens to be deposited",
          "_pid": "The pool id to deposit lp tokens into",
          "_stake": "bool for wheather the tokens should be staked"
        }
      },
      "depositAll(uint256,bool)": {
        "params": {
          "_pid": "The pool id to deposit lp tokens into",
          "_stake": "bool for wheather the tokens should be staked"
        }
      },
      "earmarkRewards(uint256)": {
        "params": {
          "_pid": "the id of the pool where lp tokens are held"
        }
      },
      "rewardClaimed(uint256,address,uint256)": {
        "params": {
          "_pid": "the id of the pool"
        }
      },
      "setFactories(address,address,address)": {
        "params": {
          "_rfactory": "The address of the reward factory",
          "_sfactory": "The address of the stash factory",
          "_tfactory": "The address of the token factory"
        }
      },
      "setFeeInfo(address)": {
        "params": {
          "_feeToken": "feeToken"
        }
      },
      "setFeeManager(address)": {
        "params": {
          "_feeM": "The address of the fee manager"
        }
      },
      "setFees(uint256,uint256)": {
        "params": {
          "_platformFee": "The amount to set for the platform fees",
          "_profitFee": "The amount to set for the profit fees"
        }
      },
      "setGaugeRedirect(uint256)": {
        "params": {
          "_pid": "the id of the pool"
        }
      },
      "setOwner(address)": {
        "params": {
          "_owner": "The address of the owner of the contract"
        }
      },
      "setPoolManager(address)": {
        "params": {
          "_poolM": "The address of the pool manager"
        }
      },
      "setRewardContracts(address)": {
        "params": {
          "_rewards": "The address of the rewards contract"
        }
      },
      "setTreasury(address)": {
        "params": {
          "_treasury": "The address of the treasury contract"
        }
      },
      "setVoteDelegate(address)": {
        "params": {
          "_voteDelegate": "The address of whom votes will be delegated to"
        }
      },
      "shutdownPool(uint256)": {
        "params": {
          "_pid": "The id of the pool to shutdown"
        }
      },
      "shutdownSystem()": {
        "details": "This shuts down the contract, unstakes and withdraws all LP tokens"
      },
      "vote(uint256,address,bool)": {
        "params": {
          "_support": "boolean for the vote support",
          "_voteId": "the id of the vote",
          "_votingAddress": "the address placing the vote"
        }
      },
      "voteGaugeWeight(address[],uint256[])": {
        "params": {
          "_gauge": "array of gauge addresses",
          "_weight": "array of vote weights"
        }
      },
      "withdraw(uint256,uint256)": {
        "params": {
          "_amount": "amount of LP tokens to withdraw",
          "_pid": "The pool id to withdraw lp tokens from"
        }
      },
      "withdrawAll(uint256)": {
        "params": {
          "_pid": "The pool id to withdraw lp tokens from"
        }
      },
      "withdrawTo(uint256,uint256,address)": {
        "params": {
          "_amount": "amount of LP tokens to withdraw",
          "_pid": "The pool id to deposit lp tokens into"
        }
      }
    },
    "title": "Controller contract",
    "version": 1
  },
  "userdoc": {
    "kind": "user",
    "methods": {
      "addPool(address,address)": {
        "notice": "creates a new pool"
      },
      "claimRewards(uint256,address)": {
        "notice": "claims rewards from a specific pool"
      },
      "deposit(uint256,uint256,bool)": {
        "notice": "deposits an amount into a specific pool, mints reward tokens and stakes them into the reward contract"
      },
      "depositAll(uint256,bool)": {
        "notice": "deposits and stakes all LP tokens"
      },
      "earmarkFees()": {
        "notice": "claims fees from the feeDistro contract, transfers the lockfees into the rewards contract"
      },
      "earmarkRewards(uint256)": {
        "notice": "external function that claims rewards from a pool and disperses them to the rewards contract"
      },
      "poolLength()": {
        "notice": "returns the length of the pool"
      },
      "rewardClaimed(uint256,address,uint256)": {
        "notice": "callback function that gets called when a reward is claimed and recieved"
      },
      "setFactories(address,address,address)": {
        "notice": "sets the reward, token, and stash factory addresses"
      },
      "setFeeInfo(address)": {
        "notice": "sets the address of the feeToken"
      },
      "setFeeManager(address)": {
        "notice": "sets the feeManager variable"
      },
      "setFees(uint256,uint256)": {
        "notice": "sets the lock, staker, caller, platform fees and profit fees"
      },
      "setGaugeRedirect(uint256)": {
        "notice": "sets the gauge redirect address"
      },
      "setOwner(address)": {
        "notice": "sets the owner variable"
      },
      "setPoolManager(address)": {
        "notice": "sets the poolManager variable"
      },
      "setRewardContracts(address)": {
        "notice": "sets the lockRewards variable"
      },
      "setTreasury(address)": {
        "notice": "sets the contracts treasury variables"
      },
      "setVoteDelegate(address)": {
        "notice": "sets the voteDelegate variable"
      },
      "shutdownPool(uint256)": {
        "notice": "shuts down a currently active pool"
      },
      "shutdownSystem()": {
        "notice": "shuts down all pools"
      },
      "vote(uint256,address,bool)": {
        "notice": "submits votes for proposals"
      },
      "voteGaugeWeight(address[],uint256[])": {
        "notice": "sets the voteGaugeWeight"
      },
      "withdraw(uint256,uint256)": {
        "notice": "withdraws lp tokens from the pool"
      },
      "withdrawAll(uint256)": {
        "notice": "withdraws all of the lp tokens in the pool"
      },
      "withdrawTo(uint256,uint256,address)": {
        "notice": "withdraws LP tokens and sends rewards to a specified address"
      }
    },
    "version": 1
  },
  "storageLayout": {
    "storage": [
      {
        "astId": 4045,
        "contract": "contracts/Controller.sol:Controller",
        "label": "profitFees",
        "offset": 0,
        "slot": "0",
        "type": "t_uint256"
      },
      {
        "astId": 4048,
        "contract": "contracts/Controller.sol:Controller",
        "label": "platformFees",
        "offset": 0,
        "slot": "1",
        "type": "t_uint256"
      },
      {
        "astId": 4050,
        "contract": "contracts/Controller.sol:Controller",
        "label": "owner",
        "offset": 0,
        "slot": "2",
        "type": "t_address"
      },
      {
        "astId": 4052,
        "contract": "contracts/Controller.sol:Controller",
        "label": "feeManager",
        "offset": 0,
        "slot": "3",
        "type": "t_address"
      },
      {
        "astId": 4054,
        "contract": "contracts/Controller.sol:Controller",
        "label": "poolManager",
        "offset": 0,
        "slot": "4",
        "type": "t_address"
      },
      {
        "astId": 4056,
        "contract": "contracts/Controller.sol:Controller",
        "label": "rewardFactory",
        "offset": 0,
        "slot": "5",
        "type": "t_address"
      },
      {
        "astId": 4058,
        "contract": "contracts/Controller.sol:Controller",
        "label": "stashFactory",
        "offset": 0,
        "slot": "6",
        "type": "t_address"
      },
      {
        "astId": 4060,
        "contract": "contracts/Controller.sol:Controller",
        "label": "tokenFactory",
        "offset": 0,
        "slot": "7",
        "type": "t_address"
      },
      {
        "astId": 4062,
        "contract": "contracts/Controller.sol:Controller",
        "label": "voteDelegate",
        "offset": 0,
        "slot": "8",
        "type": "t_address"
      },
      {
        "astId": 4064,
        "contract": "contracts/Controller.sol:Controller",
        "label": "treasury",
        "offset": 0,
        "slot": "9",
        "type": "t_address"
      },
      {
        "astId": 4066,
        "contract": "contracts/Controller.sol:Controller",
        "label": "lockRewards",
        "offset": 0,
        "slot": "10",
        "type": "t_address"
      },
      {
        "astId": 4068,
        "contract": "contracts/Controller.sol:Controller",
        "label": "lockFees",
        "offset": 0,
        "slot": "11",
        "type": "t_address"
      },
      {
        "astId": 4071,
        "contract": "contracts/Controller.sol:Controller",
        "label": "feeToken",
        "offset": 0,
        "slot": "12",
        "type": "t_contract(IERC20)810"
      },
      {
        "astId": 4073,
        "contract": "contracts/Controller.sol:Controller",
        "label": "isShutdown",
        "offset": 20,
        "slot": "12",
        "type": "t_bool"
      },
      {
        "astId": 4090,
        "contract": "contracts/Controller.sol:Controller",
        "label": "poolInfo",
        "offset": 0,
        "slot": "13",
        "type": "t_array(t_struct(PoolInfo)4086_storage)dyn_storage"
      },
      {
        "astId": 4094,
        "contract": "contracts/Controller.sol:Controller",
        "label": "gaugeMap",
        "offset": 0,
        "slot": "14",
        "type": "t_mapping(t_address,t_bool)"
      }
    ],
    "types": {
      "t_address": {
        "encoding": "inplace",
        "label": "address",
        "numberOfBytes": "20"
      },
      "t_array(t_struct(PoolInfo)4086_storage)dyn_storage": {
        "base": "t_struct(PoolInfo)4086_storage",
        "encoding": "dynamic_array",
        "label": "struct Controller.PoolInfo[]",
        "numberOfBytes": "32"
      },
      "t_bool": {
        "encoding": "inplace",
        "label": "bool",
        "numberOfBytes": "1"
      },
      "t_contract(IERC20)810": {
        "encoding": "inplace",
        "label": "contract IERC20",
        "numberOfBytes": "20"
      },
      "t_mapping(t_address,t_bool)": {
        "encoding": "mapping",
        "key": "t_address",
        "label": "mapping(address => bool)",
        "numberOfBytes": "32",
        "value": "t_bool"
      },
      "t_struct(PoolInfo)4086_storage": {
        "encoding": "inplace",
        "label": "struct Controller.PoolInfo",
        "members": [
          {
            "astId": 4075,
            "contract": "contracts/Controller.sol:Controller",
            "label": "lptoken",
            "offset": 0,
            "slot": "0",
            "type": "t_address"
          },
          {
            "astId": 4077,
            "contract": "contracts/Controller.sol:Controller",
            "label": "token",
            "offset": 0,
            "slot": "1",
            "type": "t_address"
          },
          {
            "astId": 4079,
            "contract": "contracts/Controller.sol:Controller",
            "label": "gauge",
            "offset": 0,
            "slot": "2",
            "type": "t_address"
          },
          {
            "astId": 4081,
            "contract": "contracts/Controller.sol:Controller",
            "label": "balRewards",
            "offset": 0,
            "slot": "3",
            "type": "t_address"
          },
          {
            "astId": 4083,
            "contract": "contracts/Controller.sol:Controller",
            "label": "stash",
            "offset": 0,
            "slot": "4",
            "type": "t_address"
          },
          {
            "astId": 4085,
            "contract": "contracts/Controller.sol:Controller",
            "label": "shutdown",
            "offset": 20,
            "slot": "4",
            "type": "t_bool"
          }
        ],
        "numberOfBytes": "160"
      },
      "t_uint256": {
        "encoding": "inplace",
        "label": "uint256",
        "numberOfBytes": "32"
      }
    }
  }
}