{
  "address": "0x245087a0fFc88C8019c2C653927457fcefD5f196",
  "abi": [
    {
      "inputs": [
        {
          "internalType": "address",
          "name": "_bal",
          "type": "address"
        }
      ],
      "stateMutability": "nonpayable",
      "type": "constructor"
    },
    {
      "inputs": [],
      "name": "AlreadyInitialized",
      "type": "error"
    },
    {
      "inputs": [],
      "name": "Unauthorized",
      "type": "error"
    },
    {
      "inputs": [],
      "name": "bal",
      "outputs": [
        {
          "internalType": "address",
          "name": "",
          "type": "address"
        }
      ],
      "stateMutability": "view",
      "type": "function"
    },
    {
      "inputs": [],
      "name": "claimRewards",
      "outputs": [
        {
          "internalType": "bool",
          "name": "",
          "type": "bool"
        }
      ],
      "stateMutability": "nonpayable",
      "type": "function"
    },
    {
      "inputs": [],
      "name": "gauge",
      "outputs": [
        {
          "internalType": "address",
          "name": "",
          "type": "address"
        }
      ],
      "stateMutability": "view",
      "type": "function"
    },
    {
      "inputs": [],
      "name": "hasBalRewards",
      "outputs": [
        {
          "internalType": "bool",
          "name": "",
          "type": "bool"
        }
      ],
      "stateMutability": "view",
      "type": "function"
    },
    {
      "inputs": [],
      "name": "hasRedirected",
      "outputs": [
        {
          "internalType": "bool",
          "name": "",
          "type": "bool"
        }
      ],
      "stateMutability": "view",
      "type": "function"
    },
    {
      "inputs": [
        {
          "internalType": "address",
          "name": "",
          "type": "address"
        }
      ],
      "name": "historicalRewards",
      "outputs": [
        {
          "internalType": "uint256",
          "name": "",
          "type": "uint256"
        }
      ],
      "stateMutability": "view",
      "type": "function"
    },
    {
      "inputs": [
        {
          "internalType": "uint256",
          "name": "_pid",
          "type": "uint256"
        },
        {
          "internalType": "address",
          "name": "_operator",
          "type": "address"
        },
        {
          "internalType": "address",
          "name": "_staker",
          "type": "address"
        },
        {
          "internalType": "address",
          "name": "_gauge",
          "type": "address"
        },
        {
          "internalType": "address",
          "name": "_rFactory",
          "type": "address"
        }
      ],
      "name": "initialize",
      "outputs": [],
      "stateMutability": "nonpayable",
      "type": "function"
    },
    {
      "inputs": [],
      "name": "operator",
      "outputs": [
        {
          "internalType": "address",
          "name": "",
          "type": "address"
        }
      ],
      "stateMutability": "view",
      "type": "function"
    },
    {
      "inputs": [],
      "name": "pid",
      "outputs": [
        {
          "internalType": "uint256",
          "name": "",
          "type": "uint256"
        }
      ],
      "stateMutability": "view",
      "type": "function"
    },
    {
      "inputs": [],
      "name": "processStash",
      "outputs": [
        {
          "internalType": "bool",
          "name": "",
          "type": "bool"
        }
      ],
      "stateMutability": "nonpayable",
      "type": "function"
    },
    {
      "inputs": [],
      "name": "rewardFactory",
      "outputs": [
        {
          "internalType": "address",
          "name": "",
          "type": "address"
        }
      ],
      "stateMutability": "view",
      "type": "function"
    },
    {
      "inputs": [],
      "name": "rewardHook",
      "outputs": [
        {
          "internalType": "address",
          "name": "",
          "type": "address"
        }
      ],
      "stateMutability": "view",
      "type": "function"
    },
    {
      "inputs": [
        {
          "internalType": "address",
          "name": "_token",
          "type": "address"
        }
      ],
      "name": "setExtraReward",
      "outputs": [],
      "stateMutability": "nonpayable",
      "type": "function"
    },
    {
      "inputs": [
        {
          "internalType": "address",
          "name": "_hook",
          "type": "address"
        }
      ],
      "name": "setRewardHook",
      "outputs": [],
      "stateMutability": "nonpayable",
      "type": "function"
    },
    {
      "inputs": [],
      "name": "staker",
      "outputs": [
        {
          "internalType": "address",
          "name": "",
          "type": "address"
        }
      ],
      "stateMutability": "view",
      "type": "function"
    },
    {
      "inputs": [],
      "name": "stashRewards",
      "outputs": [
        {
          "internalType": "bool",
          "name": "",
          "type": "bool"
        }
      ],
      "stateMutability": "pure",
      "type": "function"
    },
    {
      "inputs": [],
      "name": "tokenCount",
      "outputs": [
        {
          "internalType": "uint256",
          "name": "",
          "type": "uint256"
        }
      ],
      "stateMutability": "view",
      "type": "function"
    },
    {
      "inputs": [
        {
          "internalType": "address",
          "name": "",
          "type": "address"
        }
      ],
      "name": "tokenInfo",
      "outputs": [
        {
          "internalType": "address",
          "name": "token",
          "type": "address"
        },
        {
          "internalType": "address",
          "name": "rewardAddress",
          "type": "address"
        }
      ],
      "stateMutability": "view",
      "type": "function"
    },
    {
      "inputs": [
        {
          "internalType": "uint256",
          "name": "",
          "type": "uint256"
        }
      ],
      "name": "tokenList",
      "outputs": [
        {
          "internalType": "address",
          "name": "",
          "type": "address"
        }
      ],
      "stateMutability": "view",
      "type": "function"
    }
  ],
  "transactionHash": "0x4ec4cd9724264415eae1353134008587f6297c58d6b6b2ca164420bad0ad0777",
  "args": [
    "0xcb355677e36f390ccc4a5d4beadfbf1eb2071c81"
  ],
  "solcInputHash": "e3e766566fe34d0ad4122b4efba89aaf",
  "bytecode": "0x60a060405234801561001057600080fd5b506040516114b23803806114b283398101604081905261002f91610040565b6001600160a01b0316608052610070565b60006020828403121561005257600080fd5b81516001600160a01b038116811461006957600080fd5b9392505050565b608051611419610099600039600081816101f801528181610b720152610e1401526114196000f3fe608060405234801561001057600080fd5b50600436106101515760003560e01c80635ebaf1db116100cd578063ca8b017611610081578063e0a5095111610066578063e0a5095114610313578063f106845414610339578063f5dab7111461034257600080fd5b8063ca8b0176146102eb578063cb00aa73146102f357600080fd5b80639f181b5e116100b25780639f181b5e146102b2578063a6f19c84146102c4578063b87bd481146102e457600080fd5b80635ebaf1db1461027f5780639ead72221461029f57600080fd5b8063372500ab1161012457806344214ecf1161010957806344214ecf1461021a578063570ca7351461023a5780635afffef11461025a57600080fd5b8063372500ab146101db5780633d79d1c8146101f357600080fd5b80630d5225de146101565780632223686f1461016b578063245e4bf01461017e5780633641e083146101c8575b600080fd5b6101696101643660046111a8565b6103b0565b005b6101696101793660046111a8565b6104ee565b60045461019e9073ffffffffffffffffffffffffffffffffffffffff1681565b60405173ffffffffffffffffffffffffffffffffffffffff90911681526020015b60405180910390f35b6101696101d63660046111cc565b6105f1565b6101e36106ba565b60405190151581526020016101bf565b61019e7f000000000000000000000000000000000000000000000000000000000000000081565b60055461019e9073ffffffffffffffffffffffffffffffffffffffff1681565b60015461019e9073ffffffffffffffffffffffffffffffffffffffff1681565b6005546101e39074010000000000000000000000000000000000000000900460ff1681565b60025461019e9073ffffffffffffffffffffffffffffffffffffffff1681565b61019e6102ad366004611234565b610982565b6008545b6040519081526020016101bf565b60035461019e9073ffffffffffffffffffffffffffffffffffffffff1681565b60016101e3565b6101e36109b9565b6102b66103013660046111a8565b60066020526000908152604090205481565b6005546101e3907501000000000000000000000000000000000000000000900460ff1681565b6102b660005481565b6103836103503660046111a8565b6007602052600090815260409020805460019091015473ffffffffffffffffffffffffffffffffffffffff918216911682565b6040805173ffffffffffffffffffffffffffffffffffffffff9384168152929091166020830152016101bf565b600160009054906101000a900473ffffffffffffffffffffffffffffffffffffffff1673ffffffffffffffffffffffffffffffffffffffff16638da5cb5b6040518163ffffffff1660e01b81526004016020604051808303816000875af115801561041f573d6000803e3d6000fd5b505050506040513d601f19601f82011682018060405250810190610443919061124d565b73ffffffffffffffffffffffffffffffffffffffff163373ffffffffffffffffffffffffffffffffffffffff16146104a7576040517f82b4290000000000000000000000000000000000000000000000000000000000815260040160405180910390fd5b600580547fffffffffffffffffffffffff00000000000000000000000000000000000000001673ffffffffffffffffffffffffffffffffffffffff92909216919091179055565b600160009054906101000a900473ffffffffffffffffffffffffffffffffffffffff1673ffffffffffffffffffffffffffffffffffffffff16638da5cb5b6040518163ffffffff1660e01b81526004016020604051808303816000875af115801561055d573d6000803e3d6000fd5b505050506040513d601f19601f82011682018060405250810190610581919061124d565b73ffffffffffffffffffffffffffffffffffffffff163373ffffffffffffffffffffffffffffffffffffffff16146105e5576040517f82b4290000000000000000000000000000000000000000000000000000000000815260040160405180910390fd5b6105ee81610da2565b50565b60035473ffffffffffffffffffffffffffffffffffffffff1615610641576040517f0dc149f000000000000000000000000000000000000000000000000000000000815260040160405180910390fd5b600094909455600180547fffffffffffffffffffffffff000000000000000000000000000000000000000090811673ffffffffffffffffffffffffffffffffffffffff95861617909155600280548216938516939093179092556003805483169184169190911790556004805490911691909216179055565b60015460009073ffffffffffffffffffffffffffffffffffffffff16331461070e576040517f82b4290000000000000000000000000000000000000000000000000000000000815260040160405180910390fd5b610716611045565b60055474010000000000000000000000000000000000000000900460ff16610817576001546000546040517f9123d40400000000000000000000000000000000000000000000000000000000815273ffffffffffffffffffffffffffffffffffffffff90921691639123d404916107939160040190815260200190565b6020604051808303816000875af11580156107b2573d6000803e3d6000fd5b505050506040513d601f19601f820116820180604052508101906107d6919061127f565b50600580547fffffffffffffffffffffff00ffffffffffffffffffffffffffffffffffffffff16740100000000000000000000000000000000000000001790555b6005547501000000000000000000000000000000000000000000900460ff16156108e1576001546000546003546040517f6c7b69cb000000000000000000000000000000000000000000000000000000008152600481019290925273ffffffffffffffffffffffffffffffffffffffff908116602483015290911690636c7b69cb906044016020604051808303816000875af11580156108bb573d6000803e3d6000fd5b505050506040513d601f19601f820116820180604052508101906108df919061127f565b505b60055473ffffffffffffffffffffffffffffffffffffffff161561097c57600560009054906101000a900473ffffffffffffffffffffffffffffffffffffffff1673ffffffffffffffffffffffffffffffffffffffff16632663fcfc6040518163ffffffff1660e01b8152600401600060405180830381600087803b15801561096957600080fd5b505af192505050801561097a575060015b505b50600190565b6008818154811061099257600080fd5b60009182526020909120015473ffffffffffffffffffffffffffffffffffffffff16905081565b60015460009073ffffffffffffffffffffffffffffffffffffffff163314610a0d576040517f82b4290000000000000000000000000000000000000000000000000000000000815260040160405180910390fd5b60085460005b81811015610d995760006007600060088481548110610a3457610a3461129a565b600091825260208083209091015473ffffffffffffffffffffffffffffffffffffffff9081168452908301939093526040909101902080549092501680610a7c575050610d87565b6040517f70a0823100000000000000000000000000000000000000000000000000000000815230600482015260009073ffffffffffffffffffffffffffffffffffffffff8316906370a0823190602401602060405180830381865afa158015610ae9573d6000803e3d6000fd5b505050506040513d601f19601f82011682018060405250810190610b0d91906112c9565b90508015610d835773ffffffffffffffffffffffffffffffffffffffff8216600090815260066020526040902054610b46908290611311565b73ffffffffffffffffffffffffffffffffffffffff8084166000818152600660205260409020929092557f0000000000000000000000000000000000000000000000000000000000000000169003610c3e576001546040517fa9059cbb00000000000000000000000000000000000000000000000000000000815273ffffffffffffffffffffffffffffffffffffffff9182166004820152602481018390529083169063a9059cbb906044016020604051808303816000875af1158015610c11573d6000803e3d6000fd5b505050506040513d601f19601f82011682018060405250810190610c35919061127f565b50505050610d87565b600183015473ffffffffffffffffffffffffffffffffffffffff1680610c675750505050610d87565b6040517fa9059cbb00000000000000000000000000000000000000000000000000000000815273ffffffffffffffffffffffffffffffffffffffff82811660048301526024820184905284169063a9059cbb906044016020604051808303816000875af1158015610cdc573d6000803e3d6000fd5b505050506040513d601f19601f82011682018060405250810190610d00919061127f565b506040517f590a41f50000000000000000000000000000000000000000000000000000000081526004810183905273ffffffffffffffffffffffffffffffffffffffff82169063590a41f590602401600060405180830381600087803b158015610d6957600080fd5b505af1158015610d7d573d6000803e3d6000fd5b50505050505b5050505b80610d9181611329565b915050610a13565b50600191505090565b73ffffffffffffffffffffffffffffffffffffffff808216600090815260076020526040902080549091166110415780547fffffffffffffffffffffffff00000000000000000000000000000000000000001673ffffffffffffffffffffffffffffffffffffffff83811691821783557f00000000000000000000000000000000000000000000000000000000000000001614610fd057600154600080546040517f1526fe27000000000000000000000000000000000000000000000000000000008152919273ffffffffffffffffffffffffffffffffffffffff1691631526fe2791610e959160040190815260200190565b60c060405180830381865afa158015610eb2573d6000803e3d6000fd5b505050506040513d601f19601f82011682018060405250810190610ed69190611361565b5050600480546040517f2f1b327100000000000000000000000000000000000000000000000000000000815273ffffffffffffffffffffffffffffffffffffffff8a811693820193909352828416602482015230604482015292965060009550169250632f1b327191506064016020604051808303816000875af1158015610f62573d6000803e3d6000fd5b505050506040513d601f19601f82011682018060405250810190610f86919061124d565b6001840180547fffffffffffffffffffffffff00000000000000000000000000000000000000001673ffffffffffffffffffffffffffffffffffffffff9290921691909117905550505b600880546001810182556000919091527ff3f7a9fe364faab93b216da50a3214154f22a0a2b415b23a84c8169e8b636ee30180547fffffffffffffffffffffffff00000000000000000000000000000000000000001673ffffffffffffffffffffffffffffffffffffffff84161790555b5050565b60005b60088110156105ee576003546040517f54c49fe90000000000000000000000000000000000000000000000000000000081526004810183905260009173ffffffffffffffffffffffffffffffffffffffff16906354c49fe990602401602060405180830381865afa1580156110c1573d6000803e3d6000fd5b505050506040513d601f19601f820116820180604052508101906110e5919061124d565b905073ffffffffffffffffffffffffffffffffffffffff8116611106575050565b6005547501000000000000000000000000000000000000000000900460ff1661116a57600580547fffffffffffffffffffff00ffffffffffffffffffffffffffffffffffffffffff1675010000000000000000000000000000000000000000001790555b61117381610da2565b508061117e81611329565b915050611048565b73ffffffffffffffffffffffffffffffffffffffff811681146105ee57600080fd5b6000602082840312156111ba57600080fd5b81356111c581611186565b9392505050565b600080600080600060a086880312156111e457600080fd5b8535945060208601356111f681611186565b9350604086013561120681611186565b9250606086013561121681611186565b9150608086013561122681611186565b809150509295509295909350565b60006020828403121561124657600080fd5b5035919050565b60006020828403121561125f57600080fd5b81516111c581611186565b8051801515811461127a57600080fd5b919050565b60006020828403121561129157600080fd5b6111c58261126a565b7f4e487b7100000000000000000000000000000000000000000000000000000000600052603260045260246000fd5b6000602082840312156112db57600080fd5b5051919050565b7f4e487b7100000000000000000000000000000000000000000000000000000000600052601160045260246000fd5b60008219821115611324576113246112e2565b500190565b60007fffffffffffffffffffffffffffffffffffffffffffffffffffffffffffffffff820361135a5761135a6112e2565b5060010190565b60008060008060008060c0878903121561137a57600080fd5b865161138581611186565b602088015190965061139681611186565b60408801519095506113a781611186565b60608801519094506113b881611186565b60808801519093506113c981611186565b91506113d760a0880161126a565b9050929550929550929556fea26469706673582212205605e442ace801eca406b6a122f672fda8bea5c3282faedbe42addbb3e4d80c664736f6c634300080e0033",
  "devdoc": {
    "kind": "dev",
    "methods": {
      "setExtraReward(address)": {
        "details": "Used for any new incentive that is not directly on curve gauges",
        "params": {
          "_token": "The reward token address"
        }
      },
      "setRewardHook(address)": {
        "params": {
          "_hook": "The address of the reward hook"
        }
      }
    },
    "title": "ExtraRewardStash",
    "version": 1
  },
  "userdoc": {
    "kind": "user",
    "methods": {
      "claimRewards()": {
        "notice": "Claims registered reward tokens"
      },
      "processStash()": {
        "notice": "Sends all of the extra rewards to the reward contracts"
      },
      "setExtraReward(address)": {
        "notice": "Registers an extra reward token to be handled"
      },
      "setRewardHook(address)": {
        "notice": "Sets the reward hook address"
      },
      "stashRewards()": {
        "notice": "Pulls assigned tokens from staker to stash"
      },
      "tokenCount()": {
        "notice": "Returns the length of the tokenList"
      }
    },
    "version": 1
  },
  "storageLayout": {
    "storage": [
      {
        "astId": 5592,
        "contract": "contracts/ExtraRewardStash.sol:ExtraRewardStash",
        "label": "pid",
        "offset": 0,
        "slot": "0",
        "type": "t_uint256"
      },
      {
        "astId": 5594,
        "contract": "contracts/ExtraRewardStash.sol:ExtraRewardStash",
        "label": "operator",
        "offset": 0,
        "slot": "1",
        "type": "t_address"
      },
      {
        "astId": 5596,
        "contract": "contracts/ExtraRewardStash.sol:ExtraRewardStash",
        "label": "staker",
        "offset": 0,
        "slot": "2",
        "type": "t_address"
      },
      {
        "astId": 5598,
        "contract": "contracts/ExtraRewardStash.sol:ExtraRewardStash",
        "label": "gauge",
        "offset": 0,
        "slot": "3",
        "type": "t_address"
      },
      {
        "astId": 5600,
        "contract": "contracts/ExtraRewardStash.sol:ExtraRewardStash",
        "label": "rewardFactory",
        "offset": 0,
        "slot": "4",
        "type": "t_address"
      },
      {
        "astId": 5602,
        "contract": "contracts/ExtraRewardStash.sol:ExtraRewardStash",
        "label": "rewardHook",
        "offset": 0,
        "slot": "5",
        "type": "t_address"
      },
      {
        "astId": 5604,
        "contract": "contracts/ExtraRewardStash.sol:ExtraRewardStash",
        "label": "hasRedirected",
        "offset": 20,
        "slot": "5",
        "type": "t_bool"
      },
      {
        "astId": 5606,
        "contract": "contracts/ExtraRewardStash.sol:ExtraRewardStash",
        "label": "hasBalRewards",
        "offset": 21,
        "slot": "5",
        "type": "t_bool"
      },
      {
        "astId": 5610,
        "contract": "contracts/ExtraRewardStash.sol:ExtraRewardStash",
        "label": "historicalRewards",
        "offset": 0,
        "slot": "6",
        "type": "t_mapping(t_address,t_uint256)"
      },
      {
        "astId": 5620,
        "contract": "contracts/ExtraRewardStash.sol:ExtraRewardStash",
        "label": "tokenInfo",
        "offset": 0,
        "slot": "7",
        "type": "t_mapping(t_address,t_struct(TokenInfo)5615_storage)"
      },
      {
        "astId": 5623,
        "contract": "contracts/ExtraRewardStash.sol:ExtraRewardStash",
        "label": "tokenList",
        "offset": 0,
        "slot": "8",
        "type": "t_array(t_address)dyn_storage"
      }
    ],
    "types": {
      "t_address": {
        "encoding": "inplace",
        "label": "address",
        "numberOfBytes": "20"
      },
      "t_array(t_address)dyn_storage": {
        "base": "t_address",
        "encoding": "dynamic_array",
        "label": "address[]",
        "numberOfBytes": "32"
      },
      "t_bool": {
        "encoding": "inplace",
        "label": "bool",
        "numberOfBytes": "1"
      },
      "t_mapping(t_address,t_struct(TokenInfo)5615_storage)": {
        "encoding": "mapping",
        "key": "t_address",
        "label": "mapping(address => struct ExtraRewardStash.TokenInfo)",
        "numberOfBytes": "32",
        "value": "t_struct(TokenInfo)5615_storage"
      },
      "t_mapping(t_address,t_uint256)": {
        "encoding": "mapping",
        "key": "t_address",
        "label": "mapping(address => uint256)",
        "numberOfBytes": "32",
        "value": "t_uint256"
      },
      "t_struct(TokenInfo)5615_storage": {
        "encoding": "inplace",
        "label": "struct ExtraRewardStash.TokenInfo",
        "members": [
          {
            "astId": 5612,
            "contract": "contracts/ExtraRewardStash.sol:ExtraRewardStash",
            "label": "token",
            "offset": 0,
            "slot": "0",
            "type": "t_address"
          },
          {
            "astId": 5614,
            "contract": "contracts/ExtraRewardStash.sol:ExtraRewardStash",
            "label": "rewardAddress",
            "offset": 0,
            "slot": "1",
            "type": "t_address"
          }
        ],
        "numberOfBytes": "64"
      },
      "t_uint256": {
        "encoding": "inplace",
        "label": "uint256",
        "numberOfBytes": "32"
      }
    }
  }
}