{
  "address": "0x673d69b970423eB0884d4217BF43457eDf1a5316",
  "abi": [
    {
      "inputs": [
        {
          "internalType": "address",
          "name": "target",
          "type": "address"
        }
      ],
      "name": "clone",
      "outputs": [
        {
          "internalType": "address",
          "name": "result",
          "type": "address"
        }
      ],
      "stateMutability": "nonpayable",
      "type": "function"
    }
  ],
  "transactionHash": "0x23a15f0e334a5ba1856c2c1515fd82bf80fe71cc0fd38c0b9e155afe45f5ae6c",
  "args": [],
  "solcInputHash": "1a87188c0a6b56585c62182f4a34d8cf",
  "bytecode": "0x608060405234801561001057600080fd5b50610148806100206000396000f3fe608060405234801561001057600080fd5b506004361061002b5760003560e01c80638124b78e14610030575b600080fd5b61004361003e3660046100d5565b61006c565b60405173ffffffffffffffffffffffffffffffffffffffff909116815260200160405180910390f35b6000808260601b90506040517f3d602d80600a3d3981f3363d3d373d3d3d363d7300000000000000000000000081528160148201527f5af43d82803e903d91602b57fd5bf3000000000000000000000000000000000060288201526037816000f0949350505050565b6000602082840312156100e757600080fd5b813573ffffffffffffffffffffffffffffffffffffffff8116811461010b57600080fd5b939250505056fea2646970667358221220ace637bf05b23dc40748055c80872dbb4cc6315c9735c8daa3e2baff5ee806de64736f6c634300080e0033",
  "devdoc": {
    "kind": "dev",
    "methods": {
      "clone(address)": {
        "params": {
          "target": "contract address to be cloned"
        },
        "returns": {
          "result": "address of the new contract"
        }
      }
    },
    "title": "ProxyFactory contract",
    "version": 1
  },
  "userdoc": {
    "kind": "user",
    "methods": {
      "clone(address)": {
        "notice": "Creates a new contract based on the target contract address provided"
      }
    },
    "version": 1
  },
  "storageLayout": {
    "storage": [],
    "types": null
  }
}