{
  "address": "0xa172fce60E6eECCa6a5C8e5819009b2cF32Bec5C",
  "abi": [
    {
      "inputs": [
        {
          "internalType": "address",
          "name": "_operator",
          "type": "address"
        },
        {
          "internalType": "address",
          "name": "_rewardFactory",
          "type": "address"
        },
        {
          "internalType": "address",
          "name": "_proxyFactory",
          "type": "address"
        }
      ],
      "stateMutability": "nonpayable",
      "type": "constructor"
    },
    {
      "inputs": [],
      "name": "Unauthorized",
      "type": "error"
    },
    {
      "anonymous": false,
      "inputs": [
        {
          "indexed": false,
          "internalType": "address",
          "name": "_newImplementation",
          "type": "address"
        }
      ],
      "name": "ImpelemntationChanged",
      "type": "event"
    },
    {
      "inputs": [
        {
          "internalType": "uint256",
          "name": "_pid",
          "type": "uint256"
        },
        {
          "internalType": "address",
          "name": "_gauge",
          "type": "address"
        },
        {
          "internalType": "address",
          "name": "_staker",
          "type": "address"
        }
      ],
      "name": "createStash",
      "outputs": [
        {
          "internalType": "address",
          "name": "",
          "type": "address"
        }
      ],
      "stateMutability": "nonpayable",
      "type": "function"
    },
    {
      "inputs": [],
      "name": "implementation",
      "outputs": [
        {
          "internalType": "address",
          "name": "",
          "type": "address"
        }
      ],
      "stateMutability": "view",
      "type": "function"
    },
    {
      "inputs": [],
      "name": "operator",
      "outputs": [
        {
          "internalType": "address",
          "name": "",
          "type": "address"
        }
      ],
      "stateMutability": "view",
      "type": "function"
    },
    {
      "inputs": [],
      "name": "proxyFactory",
      "outputs": [
        {
          "internalType": "address",
          "name": "",
          "type": "address"
        }
      ],
      "stateMutability": "view",
      "type": "function"
    },
    {
      "inputs": [],
      "name": "rewardFactory",
      "outputs": [
        {
          "internalType": "address",
          "name": "",
          "type": "address"
        }
      ],
      "stateMutability": "view",
      "type": "function"
    },
    {
      "inputs": [
        {
          "internalType": "address",
          "name": "_newImplementation",
          "type": "address"
        }
      ],
      "name": "setImplementation",
      "outputs": [],
      "stateMutability": "nonpayable",
      "type": "function"
    }
  ],
  "transactionHash": "0x3ba1ec713b8d8f015a853c46401982828c3a7abae52b32b1649139e47aa3aaf3",
  "args": [
    "0xC50F287ec1d60EB89412589f90D807e29Ee4E7fd",
    "0x8177e4479D0ea3308Bc71Fb3034a2b8af37658f3",
    "0x673d69b970423eB0884d4217BF43457eDf1a5316"
  ],
  "solcInputHash": "e3e766566fe34d0ad4122b4efba89aaf",
  "bytecode": "0x60e060405234801561001057600080fd5b5060405161069138038061069183398101604081905261002f91610068565b6001600160a01b0392831660805290821660a0521660c0526100ab565b80516001600160a01b038116811461006357600080fd5b919050565b60008060006060848603121561007d57600080fd5b6100868461004c565b92506100946020850161004c565b91506100a26040850161004c565b90509250925092565b60805160a05160c05161059d6100f4600039600081816101260152610217015260008181607c01526102e001526000818160cc015281816101770152610353015261059d6000f3fe608060405234801561001057600080fd5b50600436106100725760003560e01c8063b92d538711610050578063b92d53871461010e578063c10f1a7514610121578063d784d4261461014857600080fd5b8063245e4bf014610077578063570ca735146100c75780635c60da1b146100ee575b600080fd5b61009e7f000000000000000000000000000000000000000000000000000000000000000081565b60405173ffffffffffffffffffffffffffffffffffffffff909116815260200160405180910390f35b61009e7f000000000000000000000000000000000000000000000000000000000000000081565b60005461009e9073ffffffffffffffffffffffffffffffffffffffff1681565b61009e61011c3660046104e4565b61015d565b61009e7f000000000000000000000000000000000000000000000000000000000000000081565b61015b610156366004610526565b610351565b005b60003373ffffffffffffffffffffffffffffffffffffffff7f000000000000000000000000000000000000000000000000000000000000000016146101ce576040517f82b4290000000000000000000000000000000000000000000000000000000000815260040160405180910390fd5b600080546040517f8124b78e00000000000000000000000000000000000000000000000000000000815273ffffffffffffffffffffffffffffffffffffffff91821660048201527f000000000000000000000000000000000000000000000000000000000000000090911690638124b78e906024016020604051808303816000875af1158015610262573d6000803e3d6000fd5b505050506040513d601f19601f82011682018060405250810190610286919061054a565b6040517f3641e0830000000000000000000000000000000000000000000000000000000081526004810187905233602482015273ffffffffffffffffffffffffffffffffffffffff858116604483015286811660648301527f00000000000000000000000000000000000000000000000000000000000000008116608483015291925090821690633641e0839060a401600060405180830381600087803b15801561033057600080fd5b505af1158015610344573d6000803e3d6000fd5b5092979650505050505050565b7f000000000000000000000000000000000000000000000000000000000000000073ffffffffffffffffffffffffffffffffffffffff16638da5cb5b6040518163ffffffff1660e01b81526004016020604051808303816000875af11580156103be573d6000803e3d6000fd5b505050506040513d601f19601f820116820180604052508101906103e2919061054a565b73ffffffffffffffffffffffffffffffffffffffff163373ffffffffffffffffffffffffffffffffffffffff1614610446576040517f82b4290000000000000000000000000000000000000000000000000000000000815260040160405180910390fd5b600080547fffffffffffffffffffffffff00000000000000000000000000000000000000001673ffffffffffffffffffffffffffffffffffffffff83169081179091556040519081527f7257141c42cbfb2d9a0e100abb7adaed82a5b3c36107b22bc02efe8122ae81479060200160405180910390a150565b73ffffffffffffffffffffffffffffffffffffffff811681146104e157600080fd5b50565b6000806000606084860312156104f957600080fd5b83359250602084013561050b816104bf565b9150604084013561051b816104bf565b809150509250925092565b60006020828403121561053857600080fd5b8135610543816104bf565b9392505050565b60006020828403121561055c57600080fd5b8151610543816104bf56fea2646970667358221220b6c48651ef3c60f6d80bd15715f03bf0edb2735c76c51768f17adf22e44c420e64736f6c634300080e0033",
  "devdoc": {
    "kind": "dev",
    "methods": {
      "createStash(uint256,address,address)": {
        "params": {
          "_gauge": "Gauge address",
          "_pid": "The PID of the pool",
          "_staker": "Staker's address"
        }
      },
      "setImplementation(address)": {
        "params": {
          "_newImplementation": "Address of new implementation contract"
        }
      }
    },
    "title": "Stash Factory",
    "version": 1
  },
  "userdoc": {
    "kind": "user",
    "methods": {
      "createStash(uint256,address,address)": {
        "notice": "Create a stash contract for the given gauge"
      },
      "setImplementation(address)": {
        "notice": "Used to set address for new implementation contract"
      }
    },
    "version": 1
  },
  "storageLayout": {
    "storage": [
      {
        "astId": 7795,
        "contract": "contracts/factories/StashFactory.sol:StashFactory",
        "label": "implementation",
        "offset": 0,
        "slot": "0",
        "type": "t_address"
      }
    ],
    "types": {
      "t_address": {
        "encoding": "inplace",
        "label": "address",
        "numberOfBytes": "20"
      }
    }
  }
}