{
  "address": "0x529C9B284ce20cC297CcABA17e0f3A8672Be29B1",
  "abi": [
    {
      "inputs": [
        {
          "internalType": "address",
          "name": "_mintr",
          "type": "address"
        },
        {
          "internalType": "address",
          "name": "_bal",
          "type": "address"
        },
        {
          "internalType": "address",
          "name": "_wethBal",
          "type": "address"
        },
        {
          "internalType": "address",
          "name": "_veBal",
          "type": "address"
        },
        {
          "internalType": "address",
          "name": "_gaugeController",
          "type": "address"
        }
      ],
      "stateMutability": "nonpayable",
      "type": "constructor"
    },
    {
      "inputs": [],
      "name": "BadInput",
      "type": "error"
    },
    {
      "inputs": [],
      "name": "NeedsShutdown",
      "type": "error"
    },
    {
      "inputs": [],
      "name": "Unauthorized",
      "type": "error"
    },
    {
      "anonymous": false,
      "inputs": [
        {
          "indexed": false,
          "internalType": "address",
          "name": "newDepositor",
          "type": "address"
        }
      ],
      "name": "DepositorChanged",
      "type": "event"
    },
    {
      "anonymous": false,
      "inputs": [
        {
          "indexed": false,
          "internalType": "address",
          "name": "newOperator",
          "type": "address"
        }
      ],
      "name": "OperatorChanged",
      "type": "event"
    },
    {
      "anonymous": false,
      "inputs": [
        {
          "indexed": false,
          "internalType": "address",
          "name": "newOwner",
          "type": "address"
        }
      ],
      "name": "OwnerChanged",
      "type": "event"
    },
    {
      "anonymous": false,
      "inputs": [
        {
          "indexed": false,
          "internalType": "address",
          "name": "stash",
          "type": "address"
        }
      ],
      "name": "StashAccessGranted",
      "type": "event"
    },
    {
      "anonymous": false,
      "inputs": [],
      "name": "VotingPowerCleared",
      "type": "event"
    },
    {
      "anonymous": false,
      "inputs": [
        {
          "indexed": false,
          "internalType": "address",
          "name": "_delegate",
          "type": "address"
        }
      ],
      "name": "VotingPowerDelegated",
      "type": "event"
    },
    {
      "inputs": [],
      "name": "BALANCER_SNAPSHOT_ID",
      "outputs": [
        {
          "internalType": "bytes32",
          "name": "",
          "type": "bytes32"
        }
      ],
      "stateMutability": "view",
      "type": "function"
    },
    {
      "inputs": [],
      "name": "SNAPSHOT_REGISTRY",
      "outputs": [
        {
          "internalType": "address",
          "name": "",
          "type": "address"
        }
      ],
      "stateMutability": "view",
      "type": "function"
    },
    {
      "inputs": [],
      "name": "bal",
      "outputs": [
        {
          "internalType": "address",
          "name": "",
          "type": "address"
        }
      ],
      "stateMutability": "view",
      "type": "function"
    },
    {
      "inputs": [
        {
          "internalType": "address",
          "name": "_gauge",
          "type": "address"
        }
      ],
      "name": "balanceOfPool",
      "outputs": [
        {
          "internalType": "uint256",
          "name": "",
          "type": "uint256"
        }
      ],
      "stateMutability": "view",
      "type": "function"
    },
    {
      "inputs": [
        {
          "internalType": "address",
          "name": "_gauge",
          "type": "address"
        }
      ],
      "name": "claimBal",
      "outputs": [
        {
          "internalType": "uint256",
          "name": "",
          "type": "uint256"
        }
      ],
      "stateMutability": "nonpayable",
      "type": "function"
    },
    {
      "inputs": [
        {
          "internalType": "address",
          "name": "_distroContract",
          "type": "address"
        },
        {
          "internalType": "contract IERC20",
          "name": "_token",
          "type": "address"
        }
      ],
      "name": "claimFees",
      "outputs": [
        {
          "internalType": "uint256",
          "name": "",
          "type": "uint256"
        }
      ],
      "stateMutability": "nonpayable",
      "type": "function"
    },
    {
      "inputs": [
        {
          "internalType": "address",
          "name": "_gauge",
          "type": "address"
        }
      ],
      "name": "claimRewards",
      "outputs": [],
      "stateMutability": "nonpayable",
      "type": "function"
    },
    {
      "inputs": [],
      "name": "clearDelegate",
      "outputs": [],
      "stateMutability": "nonpayable",
      "type": "function"
    },
    {
      "inputs": [
        {
          "internalType": "uint256",
          "name": "_value",
          "type": "uint256"
        },
        {
          "internalType": "uint256",
          "name": "_unlockTime",
          "type": "uint256"
        }
      ],
      "name": "createLock",
      "outputs": [],
      "stateMutability": "nonpayable",
      "type": "function"
    },
    {
      "inputs": [
        {
          "internalType": "address",
          "name": "_delegateTo",
          "type": "address"
        }
      ],
      "name": "delegateVotingPower",
      "outputs": [],
      "stateMutability": "nonpayable",
      "type": "function"
    },
    {
      "inputs": [
        {
          "internalType": "address",
          "name": "_token",
          "type": "address"
        },
        {
          "internalType": "address",
          "name": "_gauge",
          "type": "address"
        }
      ],
      "name": "deposit",
      "outputs": [],
      "stateMutability": "nonpayable",
      "type": "function"
    },
    {
      "inputs": [],
      "name": "depositor",
      "outputs": [
        {
          "internalType": "address",
          "name": "",
          "type": "address"
        }
      ],
      "stateMutability": "view",
      "type": "function"
    },
    {
      "inputs": [
        {
          "internalType": "address",
          "name": "_to",
          "type": "address"
        },
        {
          "internalType": "uint256",
          "name": "_value",
          "type": "uint256"
        },
        {
          "internalType": "bytes",
          "name": "_data",
          "type": "bytes"
        }
      ],
      "name": "execute",
      "outputs": [
        {
          "internalType": "bool",
          "name": "",
          "type": "bool"
        },
        {
          "internalType": "bytes",
          "name": "",
          "type": "bytes"
        }
      ],
      "stateMutability": "nonpayable",
      "type": "function"
    },
    {
      "inputs": [],
      "name": "gaugeController",
      "outputs": [
        {
          "internalType": "address",
          "name": "",
          "type": "address"
        }
      ],
      "stateMutability": "view",
      "type": "function"
    },
    {
      "inputs": [
        {
          "internalType": "address",
          "name": "_stash",
          "type": "address"
        }
      ],
      "name": "grantStashAccess",
      "outputs": [],
      "stateMutability": "nonpayable",
      "type": "function"
    },
    {
      "inputs": [
        {
          "internalType": "uint256",
          "name": "_value",
          "type": "uint256"
        }
      ],
      "name": "increaseAmount",
      "outputs": [],
      "stateMutability": "nonpayable",
      "type": "function"
    },
    {
      "inputs": [
        {
          "internalType": "uint256",
          "name": "_value",
          "type": "uint256"
        }
      ],
      "name": "increaseTime",
      "outputs": [],
      "stateMutability": "nonpayable",
      "type": "function"
    },
    {
      "inputs": [],
      "name": "mintr",
      "outputs": [
        {
          "internalType": "address",
          "name": "",
          "type": "address"
        }
      ],
      "stateMutability": "view",
      "type": "function"
    },
    {
      "inputs": [],
      "name": "operator",
      "outputs": [
        {
          "internalType": "address",
          "name": "",
          "type": "address"
        }
      ],
      "stateMutability": "view",
      "type": "function"
    },
    {
      "inputs": [],
      "name": "owner",
      "outputs": [
        {
          "internalType": "address",
          "name": "",
          "type": "address"
        }
      ],
      "stateMutability": "view",
      "type": "function"
    },
    {
      "inputs": [],
      "name": "release",
      "outputs": [],
      "stateMutability": "nonpayable",
      "type": "function"
    },
    {
      "inputs": [
        {
          "internalType": "address",
          "name": "_depositor",
          "type": "address"
        }
      ],
      "name": "setDepositor",
      "outputs": [],
      "stateMutability": "nonpayable",
      "type": "function"
    },
    {
      "inputs": [
        {
          "internalType": "address",
          "name": "_operator",
          "type": "address"
        }
      ],
      "name": "setOperator",
      "outputs": [],
      "stateMutability": "nonpayable",
      "type": "function"
    },
    {
      "inputs": [
        {
          "internalType": "address",
          "name": "_newOwner",
          "type": "address"
        }
      ],
      "name": "setOwner",
      "outputs": [],
      "stateMutability": "nonpayable",
      "type": "function"
    },
    {
      "inputs": [],
      "name": "veBal",
      "outputs": [
        {
          "internalType": "address",
          "name": "",
          "type": "address"
        }
      ],
      "stateMutability": "view",
      "type": "function"
    },
    {
      "inputs": [
        {
          "internalType": "address[]",
          "name": "_gauges",
          "type": "address[]"
        },
        {
          "internalType": "uint256[]",
          "name": "_weights",
          "type": "uint256[]"
        }
      ],
      "name": "voteMultipleGauges",
      "outputs": [],
      "stateMutability": "nonpayable",
      "type": "function"
    },
    {
      "inputs": [],
      "name": "wethBal",
      "outputs": [
        {
          "internalType": "address",
          "name": "",
          "type": "address"
        }
      ],
      "stateMutability": "view",
      "type": "function"
    },
    {
      "inputs": [
        {
          "internalType": "contract IERC20",
          "name": "_asset",
          "type": "address"
        }
      ],
      "name": "withdraw",
      "outputs": [
        {
          "internalType": "uint256",
          "name": "",
          "type": "uint256"
        }
      ],
      "stateMutability": "nonpayable",
      "type": "function"
    },
    {
      "inputs": [
        {
          "internalType": "address",
          "name": "_token",
          "type": "address"
        },
        {
          "internalType": "address",
          "name": "_gauge",
          "type": "address"
        },
        {
          "internalType": "uint256",
          "name": "_amount",
          "type": "uint256"
        }
      ],
      "name": "withdraw",
      "outputs": [],
      "stateMutability": "nonpayable",
      "type": "function"
    },
    {
      "inputs": [
        {
          "internalType": "address",
          "name": "_token",
          "type": "address"
        },
        {
          "internalType": "address",
          "name": "_gauge",
          "type": "address"
        }
      ],
      "name": "withdrawAll",
      "outputs": [],
      "stateMutability": "nonpayable",
      "type": "function"
    },
    {
      "inputs": [
        {
          "internalType": "address",
          "name": "_to",
          "type": "address"
        },
        {
          "internalType": "uint256",
          "name": "_amount",
          "type": "uint256"
        }
      ],
      "name": "withdrawWethBal",
      "outputs": [],
      "stateMutability": "nonpayable",
      "type": "function"
    }
  ],
  "transactionHash": "0xd98cda3e3d3abe033813ba9fa29b676997809e45620f5a11edcc21888b3c77c5",
  "args": [
    "0xe1008f2871f5f5c3da47f806deba3cd83fe0e55b",
    "0xcb355677e36f390ccc4a5d4beadfbf1eb2071c81",
    "0xdc2ecfdf2688f92c85064be0b929693acc6dbca6",
    "0x0BA4d28a89b0aB0c48253f4f36B204DE24354651",
    "0x28bE1a58A534B281c3A22df28d3720323bfF331D"
  ],
  "solcInputHash": "ffe7c3d313508848a216b8f00aa6ff1c",
  "bytecode": "0x6101206040523480156200001257600080fd5b50604051620026e2380380620026e2833981016040819052620000359162000108565b6001600160a01b0385811660805284811660a05283811660c081905283821660e081905291831661010052600080546001600160a01b0319163317905560405163095ea7b360e01b8152600481019290925260001960248301529063095ea7b3906044016020604051808303816000875af1158015620000b9573d6000803e3d6000fd5b505050506040513d601f19601f82011682018060405250810190620000df919062000178565b505050505050620001a3565b80516001600160a01b03811681146200010357600080fd5b919050565b600080600080600060a086880312156200012157600080fd5b6200012c86620000eb565b94506200013c60208701620000eb565b93506200014c60408701620000eb565b92506200015c60608701620000eb565b91506200016c60808701620000eb565b90509295509295909350565b6000602082840312156200018b57600080fd5b815180151581146200019c57600080fd5b9392505050565b60805160a05160c05160e051610100516124ad62000235600039600081816103990152610a8b0152600081816102760152818161071101528181610e400152818161122c015281816115740152611bb801526000818161043501528181611c660152611d410152600081816102d5015281816108ac015261097e01526000818161047c015261082201526124ad6000f3fe608060405234801561001057600080fd5b50600436106101e55760003560e01c80638da5cb5b1161010f578063c7c4ff46116100a2578063f2c098b711610071578063f2c098b7146104c4578063f3ff955a146104d7578063f40a6145146104ea578063f9609f08146104fd57600080fd5b8063c7c4ff4614610457578063d1e61dcb14610477578063d9caed121461049e578063ef5cfb8c146104b157600080fd5b8063b3ab15fb116100de578063b3ab15fb146103e9578063b52c05fe146103fc578063b61d27f61461040f578063c17af1a71461043057600080fd5b80638da5cb5b1461037457806399eecb3b14610394578063b0f63794146103bb578063b21f3eaa146103ce57600080fd5b80633c9a2a1a11610187578063570ca73511610156578063570ca7351461031d5780635ba3c6a61461033d5780636ea447ba1461036457806386d1a69f1461036c57600080fd5b80633c9a2a1a146102bd5780633d79d1c8146102d05780634591dc51146102f757806351cff8d91461030a57600080fd5b80631e4b196a116101c35780631e4b196a1461022557806328fa28a91461024b5780632dbfa7351461025e57806334bce9031461027157600080fd5b806309cae2c8146101ea57806313af4035146101ff57806315456eba14610212575b600080fd5b6101fd6101f83660046120dc565b610510565b005b6101fd61020d366004612115565b6105c6565b6101fd610220366004612139565b610691565b610238610233366004612115565b610786565b6040519081526020015b60405180910390f35b6101fd61025936600461219e565b6109f4565b61023861026c3660046120dc565b610b9b565b6102987f000000000000000000000000000000000000000000000000000000000000000081565b60405173ffffffffffffffffffffffffffffffffffffffff9091168152602001610242565b6101fd6102cb366004612139565b610dc0565b6102987f000000000000000000000000000000000000000000000000000000000000000081565b6101fd610305366004612115565b610e84565b610238610318366004612115565b610f54565b6001546102989073ffffffffffffffffffffffffffffffffffffffff1681565b6102387f62616c616e6365722e657468000000000000000000000000000000000000000081565b6101fd6110c0565b6101fd6111d9565b6000546102989073ffffffffffffffffffffffffffffffffffffffff1681565b6102987f000000000000000000000000000000000000000000000000000000000000000081565b6102386103c9366004612115565b6112ac565b61029873469788fe6e9e9681c6ebf3bf78e7fd26fc01544681565b6101fd6103f7366004612115565b61133d565b6101fd61040a36600461220a565b6114ed565b61042261041d36600461222c565b6115e9565b6040516102429291906122b5565b6102987f000000000000000000000000000000000000000000000000000000000000000081565b6002546102989073ffffffffffffffffffffffffffffffffffffffff1681565b6102987f000000000000000000000000000000000000000000000000000000000000000081565b6101fd6104ac366004612332565b6116bd565b6101fd6104bf366004612115565b6118b7565b6101fd6104d2366004612115565b611950565b6101fd6104e5366004612115565b611a14565b6101fd6104f8366004612373565b611b65565b6101fd61050b3660046120dc565b611dae565b6040517f70a0823100000000000000000000000000000000000000000000000000000000815230600482015260009073ffffffffffffffffffffffffffffffffffffffff8416906370a0823190602401602060405180830381865afa15801561057d573d6000803e3d6000fd5b505050506040513d601f19601f820116820180604052508101906105a1919061239f565b6105aa836112ac565b6105b491906123e7565b90506105c18383836116bd565b505050565b60005473ffffffffffffffffffffffffffffffffffffffff163314610617576040517f82b4290000000000000000000000000000000000000000000000000000000000815260040160405180910390fd5b600080547fffffffffffffffffffffffff00000000000000000000000000000000000000001673ffffffffffffffffffffffffffffffffffffffff83169081179091556040519081527fa2ea9883a321a3e97b8266c2b078bfeec6d50c711ed71f874a90d500ae2eaf36906020015b60405180910390a150565b60025473ffffffffffffffffffffffffffffffffffffffff1633146106e2576040517f82b4290000000000000000000000000000000000000000000000000000000000815260040160405180910390fd5b6040517f4957677c000000000000000000000000000000000000000000000000000000008152600481018290527f000000000000000000000000000000000000000000000000000000000000000073ffffffffffffffffffffffffffffffffffffffff1690634957677c906024015b600060405180830381600087803b15801561076b57600080fd5b505af115801561077f573d6000803e3d6000fd5b5050505050565b60015460009073ffffffffffffffffffffffffffffffffffffffff1633146107da576040517f82b4290000000000000000000000000000000000000000000000000000000000815260040160405180910390fd5b6040517f6a62784200000000000000000000000000000000000000000000000000000000815273ffffffffffffffffffffffffffffffffffffffff83811660048301526000917f000000000000000000000000000000000000000000000000000000000000000090911690636a62784290602401600060405180830381600087803b15801561086857600080fd5b505af1925050508015610879575060015b156109ee576040517f70a082310000000000000000000000000000000000000000000000000000000081523060048201527f000000000000000000000000000000000000000000000000000000000000000073ffffffffffffffffffffffffffffffffffffffff16906370a0823190602401602060405180830381865afa158015610908573d6000803e3d6000fd5b505050506040513d601f19601f8201168201806040525081019061092c919061239f565b6001546040517fa9059cbb00000000000000000000000000000000000000000000000000000000815273ffffffffffffffffffffffffffffffffffffffff9182166004820152602481018390529192507f0000000000000000000000000000000000000000000000000000000000000000169063a9059cbb906044015b6020604051808303816000875af11580156109c8573d6000803e3d6000fd5b505050506040513d601f19601f820116820180604052508101906109ec91906123ff565b505b92915050565b60015473ffffffffffffffffffffffffffffffffffffffff163314610a45576040517f82b4290000000000000000000000000000000000000000000000000000000000815260040160405180910390fd5b828114610a7e576040517f2bb9acf700000000000000000000000000000000000000000000000000000000815260040160405180910390fd5b60005b8381101561077f577f000000000000000000000000000000000000000000000000000000000000000073ffffffffffffffffffffffffffffffffffffffff1663d7136328868684818110610ad757610ad7612421565b9050602002016020810190610aec9190612115565b858585818110610afe57610afe612421565b6040517fffffffff0000000000000000000000000000000000000000000000000000000060e087901b16815273ffffffffffffffffffffffffffffffffffffffff90941660048501526020029190910135602483015250604401600060405180830381600087803b158015610b7257600080fd5b505af1158015610b86573d6000803e3d6000fd5b50505050610b948160010190565b9050610a81565b60015460009073ffffffffffffffffffffffffffffffffffffffff163314610bef576040517f82b4290000000000000000000000000000000000000000000000000000000000815260040160405180910390fd5b6040517fca31879d00000000000000000000000000000000000000000000000000000000815230600482015273ffffffffffffffffffffffffffffffffffffffff838116602483015284169063ca31879d906044016020604051808303816000875af1158015610c63573d6000803e3d6000fd5b505050506040513d601f19601f82011682018060405250810190610c87919061239f565b506040517f70a0823100000000000000000000000000000000000000000000000000000000815230600482015260009073ffffffffffffffffffffffffffffffffffffffff8416906370a0823190602401602060405180830381865afa158015610cf5573d6000803e3d6000fd5b505050506040513d601f19601f82011682018060405250810190610d19919061239f565b6001546040517fa9059cbb00000000000000000000000000000000000000000000000000000000815273ffffffffffffffffffffffffffffffffffffffff91821660048201526024810183905291925084169063a9059cbb906044016020604051808303816000875af1158015610d94573d6000803e3d6000fd5b505050506040513d601f19601f82011682018060405250810190610db891906123ff565b509392505050565b60025473ffffffffffffffffffffffffffffffffffffffff163314610e11576040517f82b4290000000000000000000000000000000000000000000000000000000000815260040160405180910390fd5b6040517feff7a612000000000000000000000000000000000000000000000000000000008152600481018290527f000000000000000000000000000000000000000000000000000000000000000073ffffffffffffffffffffffffffffffffffffffff169063eff7a61290602401610751565b60015473ffffffffffffffffffffffffffffffffffffffff163314610ed5576040517f82b4290000000000000000000000000000000000000000000000000000000000815260040160405180910390fd5b73ffffffffffffffffffffffffffffffffffffffff811660008181526003602090815260409182902080547fffffffffffffffffffffffffffffffffffffffffffffffffffffffffffffff0016600117905590519182527fcf1795ce10e0d72fcbcf5bbb54ccf220665e482448f7eb2d098c312508f20f1e9101610686565b3360009081526003602052604081205460ff16610f9d576040517f82b4290000000000000000000000000000000000000000000000000000000000815260040160405180910390fd5b73ffffffffffffffffffffffffffffffffffffffff821660009081526004602052604090205460ff1615610fd357506000919050565b6040517f70a0823100000000000000000000000000000000000000000000000000000000815230600482015260009073ffffffffffffffffffffffffffffffffffffffff8416906370a0823190602401602060405180830381865afa158015611040573d6000803e3d6000fd5b505050506040513d601f19601f82011682018060405250810190611064919061239f565b6040517fa9059cbb0000000000000000000000000000000000000000000000000000000081523360048201526024810182905290915073ffffffffffffffffffffffffffffffffffffffff84169063a9059cbb906044016109a9565b60015473ffffffffffffffffffffffffffffffffffffffff163314611111576040517f82b4290000000000000000000000000000000000000000000000000000000000815260040160405180910390fd5b6040517ff0bedbe20000000000000000000000000000000000000000000000000000000081527f62616c616e6365722e6574680000000000000000000000000000000000000000600482015273469788fe6e9e9681c6ebf3bf78e7fd26fc0154469063f0bedbe290602401600060405180830381600087803b15801561119657600080fd5b505af11580156111aa573d6000803e3d6000fd5b50506040517fa7febde3d063f85cd125edf1098752804757b63e77a6b3b12d146aaed3a00b8a925060009150a1565b60025473ffffffffffffffffffffffffffffffffffffffff16331461122a576040517f82b4290000000000000000000000000000000000000000000000000000000000815260040160405180910390fd5b7f000000000000000000000000000000000000000000000000000000000000000073ffffffffffffffffffffffffffffffffffffffff16633ccfd60b6040518163ffffffff1660e01b8152600401600060405180830381600087803b15801561129257600080fd5b505af11580156112a6573d6000803e3d6000fd5b50505050565b6040517f70a0823100000000000000000000000000000000000000000000000000000000815230600482015260009073ffffffffffffffffffffffffffffffffffffffff8316906370a0823190602401602060405180830381865afa158015611319573d6000803e3d6000fd5b505050506040513d601f19601f820116820180604052508101906109ee919061239f565b60005473ffffffffffffffffffffffffffffffffffffffff16331461138e576040517f82b4290000000000000000000000000000000000000000000000000000000000815260040160405180910390fd5b60015473ffffffffffffffffffffffffffffffffffffffff16158015906114435750600160009054906101000a900473ffffffffffffffffffffffffffffffffffffffff1673ffffffffffffffffffffffffffffffffffffffff1663bf86d6906040518163ffffffff1660e01b8152600401602060405180830381865afa15801561141d573d6000803e3d6000fd5b505050506040513d601f19601f8201168201806040525081019061144191906123ff565b155b1561147a576040517fa88a170d00000000000000000000000000000000000000000000000000000000815260040160405180910390fd5b600180547fffffffffffffffffffffffff00000000000000000000000000000000000000001673ffffffffffffffffffffffffffffffffffffffff83169081179091556040519081527f4721129e0e676ed6a92909bb24e853ccdd63ad72280cc2e974e38e480e0e6e5490602001610686565b60025473ffffffffffffffffffffffffffffffffffffffff16331461153e576040517f82b4290000000000000000000000000000000000000000000000000000000000815260040160405180910390fd5b6040517f65fc387300000000000000000000000000000000000000000000000000000000815260048101839052602481018290527f000000000000000000000000000000000000000000000000000000000000000073ffffffffffffffffffffffffffffffffffffffff16906365fc387390604401600060405180830381600087803b1580156115cd57600080fd5b505af11580156115e1573d6000803e3d6000fd5b505050505050565b60015460009060609073ffffffffffffffffffffffffffffffffffffffff163314611640576040517f82b4290000000000000000000000000000000000000000000000000000000000815260040160405180910390fd5b6000808773ffffffffffffffffffffffffffffffffffffffff1687878760405161166b929190612450565b60006040518083038185875af1925050503d80600081146116a8576040519150601f19603f3d011682016040523d82523d6000602084013e6116ad565b606091505b5090999098509650505050505050565b60015473ffffffffffffffffffffffffffffffffffffffff16331461170e576040517f82b4290000000000000000000000000000000000000000000000000000000000815260040160405180910390fd5b6040517f70a0823100000000000000000000000000000000000000000000000000000000815230600482015260009073ffffffffffffffffffffffffffffffffffffffff8516906370a0823190602401602060405180830381865afa15801561177b573d6000803e3d6000fd5b505050506040513d601f19601f8201168201806040525081019061179f919061239f565b9050818110156118205773ffffffffffffffffffffffffffffffffffffffff8316632e1a7d4d6117cf8385612460565b6040518263ffffffff1660e01b81526004016117ed91815260200190565b600060405180830381600087803b15801561180757600080fd5b505af115801561181b573d6000803e3d6000fd5b505050505b6040517fa9059cbb0000000000000000000000000000000000000000000000000000000081523360048201526024810183905273ffffffffffffffffffffffffffffffffffffffff85169063a9059cbb906044016020604051808303816000875af1158015611893573d6000803e3d6000fd5b505050506040513d601f19601f8201168201806040525081019061077f91906123ff565b60015473ffffffffffffffffffffffffffffffffffffffff163314611908576040517f82b4290000000000000000000000000000000000000000000000000000000000815260040160405180910390fd5b8073ffffffffffffffffffffffffffffffffffffffff1663e6f1daf26040518163ffffffff1660e01b8152600401600060405180830381600087803b15801561076b57600080fd5b60005473ffffffffffffffffffffffffffffffffffffffff1633146119a1576040517f82b4290000000000000000000000000000000000000000000000000000000000815260040160405180910390fd5b600280547fffffffffffffffffffffffff00000000000000000000000000000000000000001673ffffffffffffffffffffffffffffffffffffffff83169081179091556040519081527f165ea44172651427010df987e6fd454678cc3c3f3e7331ab563c596bc8e787f690602001610686565b60015473ffffffffffffffffffffffffffffffffffffffff163314611a65576040517f82b4290000000000000000000000000000000000000000000000000000000000815260040160405180910390fd5b6040517fbd86e5080000000000000000000000000000000000000000000000000000000081527f62616c616e6365722e6574680000000000000000000000000000000000000000600482015273ffffffffffffffffffffffffffffffffffffffff8216602482015273469788fe6e9e9681c6ebf3bf78e7fd26fc0154469063bd86e50890604401600060405180830381600087803b158015611b0657600080fd5b505af1158015611b1a573d6000803e3d6000fd5b505060405173ffffffffffffffffffffffffffffffffffffffff841681527f9765f939e65a9a6667affea71ad5d97f51fd25883d233f2b8e44c811395fc05092506020019050610686565b60015473ffffffffffffffffffffffffffffffffffffffff163314611bb6576040517f82b4290000000000000000000000000000000000000000000000000000000000815260040160405180910390fd5b7f000000000000000000000000000000000000000000000000000000000000000073ffffffffffffffffffffffffffffffffffffffff16633ccfd60b6040518163ffffffff1660e01b8152600401600060405180830381600087803b158015611c1e57600080fd5b505af1158015611c32573d6000803e3d6000fd5b50506040517f70a08231000000000000000000000000000000000000000000000000000000008152306004820152600092507f000000000000000000000000000000000000000000000000000000000000000073ffffffffffffffffffffffffffffffffffffffff1691506370a0823190602401602060405180830381865afa158015611cc3573d6000803e3d6000fd5b505050506040513d601f19601f82011682018060405250810190611ce7919061239f565b905081811015611cf5578091505b6040517fa9059cbb00000000000000000000000000000000000000000000000000000000815273ffffffffffffffffffffffffffffffffffffffff8481166004830152602482018490527f0000000000000000000000000000000000000000000000000000000000000000169063a9059cbb906044016020604051808303816000875af1158015611d8a573d6000803e3d6000fd5b505050506040513d601f19601f820116820180604052508101906112a691906123ff565b60015473ffffffffffffffffffffffffffffffffffffffff163314611dff576040517f82b4290000000000000000000000000000000000000000000000000000000000815260040160405180910390fd5b73ffffffffffffffffffffffffffffffffffffffff821660009081526004602052604081205460ff1615159003611e7f5773ffffffffffffffffffffffffffffffffffffffff8216600090815260046020526040902080547fffffffffffffffffffffffffffffffffffffffffffffffffffffffffffffff001660011790555b73ffffffffffffffffffffffffffffffffffffffff811660009081526004602052604081205460ff1615159003611eff5773ffffffffffffffffffffffffffffffffffffffff8116600090815260046020526040902080547fffffffffffffffffffffffffffffffffffffffffffffffffffffffffffffff001660011790555b6040517f70a0823100000000000000000000000000000000000000000000000000000000815230600482015260009073ffffffffffffffffffffffffffffffffffffffff8416906370a0823190602401602060405180830381865afa158015611f6c573d6000803e3d6000fd5b505050506040513d601f19601f82011682018060405250810190611f90919061239f565b905080156105c1576040517f095ea7b300000000000000000000000000000000000000000000000000000000815273ffffffffffffffffffffffffffffffffffffffff83811660048301526024820183905284169063095ea7b3906044016020604051808303816000875af115801561200d573d6000803e3d6000fd5b505050506040513d601f19601f8201168201806040525081019061203191906123ff565b506040517fb6b55f250000000000000000000000000000000000000000000000000000000081526004810182905273ffffffffffffffffffffffffffffffffffffffff83169063b6b55f2590602401600060405180830381600087803b15801561209a57600080fd5b505af11580156120ae573d6000803e3d6000fd5b50505050505050565b73ffffffffffffffffffffffffffffffffffffffff811681146120d957600080fd5b50565b600080604083850312156120ef57600080fd5b82356120fa816120b7565b9150602083013561210a816120b7565b809150509250929050565b60006020828403121561212757600080fd5b8135612132816120b7565b9392505050565b60006020828403121561214b57600080fd5b5035919050565b60008083601f84011261216457600080fd5b50813567ffffffffffffffff81111561217c57600080fd5b6020830191508360208260051b850101111561219757600080fd5b9250929050565b600080600080604085870312156121b457600080fd5b843567ffffffffffffffff808211156121cc57600080fd5b6121d888838901612152565b909650945060208701359150808211156121f157600080fd5b506121fe87828801612152565b95989497509550505050565b6000806040838503121561221d57600080fd5b50508035926020909101359150565b6000806000806060858703121561224257600080fd5b843561224d816120b7565b935060208501359250604085013567ffffffffffffffff8082111561227157600080fd5b818701915087601f83011261228557600080fd5b81358181111561229457600080fd5b8860208285010111156122a657600080fd5b95989497505060200194505050565b821515815260006020604081840152835180604085015260005b818110156122eb578581018301518582016060015282016122cf565b818111156122fd576000606083870101525b50601f017fffffffffffffffffffffffffffffffffffffffffffffffffffffffffffffffe01692909201606001949350505050565b60008060006060848603121561234757600080fd5b8335612352816120b7565b92506020840135612362816120b7565b929592945050506040919091013590565b6000806040838503121561238657600080fd5b8235612391816120b7565b946020939093013593505050565b6000602082840312156123b157600080fd5b5051919050565b7f4e487b7100000000000000000000000000000000000000000000000000000000600052601160045260246000fd5b600082198211156123fa576123fa6123b8565b500190565b60006020828403121561241157600080fd5b8151801515811461213257600080fd5b7f4e487b7100000000000000000000000000000000000000000000000000000000600052603260045260246000fd5b8183823760009101908152919050565b600082821015612472576124726123b8565b50039056fea2646970667358221220808e01a3c16f212f22a1720b18e416e32280b01a53ea2eeb9dbc360d0b78001b64736f6c634300080e0033",
  "devdoc": {
    "details": "based on Convex's VoterProxy smart contract      https://etherscan.io/address/0x989AEb4d175e16225E39E87d0D97A3360524AD80#code",
    "kind": "dev",
    "methods": {
      "balanceOfPool(address)": {
        "params": {
          "_gauge": "The gauge to check"
        },
        "returns": {
          "_0": "uint256 balance"
        }
      },
      "claimBal(address)": {
        "params": {
          "_gauge": "The gauge to claim from"
        },
        "returns": {
          "_0": "amount claimed"
        }
      },
      "claimFees(address,address)": {
        "params": {
          "_distroContract": "The distro contract to claim from",
          "_token": "The token to claim from"
        },
        "returns": {
          "_0": "uint256 amaunt claimed"
        }
      },
      "createLock(uint256,uint256)": {
        "params": {
          "_unlockTime": "Epoch time when tokens unlock, rounded down to whole weeks",
          "_value": "The amount of BAL tokens to lock"
        }
      },
      "delegateVotingPower(address)": {
        "params": {
          "_delegateTo": "to whom we delegate voting power"
        }
      },
      "deposit(address,address)": {
        "params": {
          "_gauge": "The gauge to deposit to",
          "_token": "The address of the LP token"
        }
      },
      "execute(address,uint256,bytes)": {
        "params": {
          "_data": "calldata",
          "_to": "The address to call",
          "_value": "The ETH value to send"
        },
        "returns": {
          "_0": "The result of the call (bool, result)"
        }
      },
      "grantStashAccess(address)": {
        "params": {
          "_stash": "The address of the stash"
        }
      },
      "increaseAmount(uint256)": {
        "params": {
          "_value": "The amount of veBal tokens to increase"
        }
      },
      "increaseTime(uint256)": {
        "params": {
          "_value": "New epoch time for unlocking"
        }
      },
      "release()": {
        "details": "Only possible if the lock has expired"
      },
      "setDepositor(address)": {
        "details": "Only the owner can change the depositor",
        "params": {
          "_depositor": "The new depositor of the contract"
        }
      },
      "setOperator(address)": {
        "details": "Only the owner can change the operator      Current operator must be shutdown before changing the operator      Or we can set operator to address(0)",
        "params": {
          "_operator": "The new operator of the contract"
        }
      },
      "setOwner(address)": {
        "params": {
          "_newOwner": "The new owner of the contract"
        }
      },
      "voteMultipleGauges(address[],uint256[])": {
        "details": "Input arrays must have same length",
        "params": {
          "_gauges": "The gauges to vote for",
          "_weights": "The weights for a gauge in basis points (units of 0.01%). Minimal is 0.01%. Ignored if 0"
        }
      },
      "withdraw(address)": {
        "params": {
          "_asset": "ERC20 token address"
        },
        "returns": {
          "_0": "amount of tokens withdrawn"
        }
      },
      "withdraw(address,address,uint256)": {
        "details": "If this contract doesn't have enough tokens it will withdraw them from gauge",
        "params": {
          "_amount": "The amount of tokens to withdraw",
          "_gauge": "The gauge to withdraw from",
          "_token": "ERC20 token address"
        }
      },
      "withdrawAll(address,address)": {
        "details": "If this contract doesn't have enough tokens it will withdraw them from gauge",
        "params": {
          "_gauge": "The gauge to withdraw from",
          "_token": "ERC20 token address"
        }
      },
      "withdrawWethBal(address,uint256)": {
        "details": "If contract doesn't have asked _amount tokens it will withdraw all tokens",
        "params": {
          "_amount": "The amount to withdraw",
          "_to": "send to address"
        }
      }
    },
    "title": "VoterProxy contract",
    "version": 1
  },
  "userdoc": {
    "kind": "user",
    "methods": {
      "balanceOfPool(address)": {
        "notice": "Balance of gauge"
      },
      "claimBal(address)": {
        "notice": "Claims VeBal tokens"
      },
      "claimFees(address,address)": {
        "notice": "Claims fees"
      },
      "claimRewards(address)": {
        "notice": "Claims rewards_gauge The gauge to claim from"
      },
      "clearDelegate()": {
        "notice": "Clears delegation"
      },
      "createLock(uint256,uint256)": {
        "notice": "Locks BAL tokens to veBal"
      },
      "delegateVotingPower(address)": {
        "notice": "Delegates voting power to EOA so that it can vote on behalf of DAO off chain (Snapshot)"
      },
      "deposit(address,address)": {
        "notice": "Used to deposit tokens"
      },
      "execute(address,uint256,bytes)": {
        "notice": "Executes a call to `_to` with calldata `_data`"
      },
      "grantStashAccess(address)": {
        "notice": "Sets `_stash` access to `_status`"
      },
      "increaseAmount(uint256)": {
        "notice": "Increases amount of veBal tokens without modifying the unlock time"
      },
      "increaseTime(uint256)": {
        "notice": "Extend the unlock time"
      },
      "release()": {
        "notice": "Redeems veBal tokens"
      },
      "setDepositor(address)": {
        "notice": "Changes the depositor of the contract"
      },
      "setOperator(address)": {
        "notice": "Changes the operator of the contract"
      },
      "setOwner(address)": {
        "notice": "Used to change the owner of the contract"
      },
      "voteMultipleGauges(address[],uint256[])": {
        "notice": "Votes for multiple gauge weights"
      },
      "withdraw(address)": {
        "notice": "Used for pulling extra incentive reward tokens out"
      },
      "withdraw(address,address,uint256)": {
        "notice": "Used for withdrawing tokens"
      },
      "withdrawAll(address,address)": {
        "notice": "Used for withdrawing tokens"
      },
      "withdrawWethBal(address,uint256)": {
        "notice": "Used for withdrawing wethBal tokens to address"
      }
    },
    "version": 1
  },
  "storageLayout": {
    "storage": [
      {
        "astId": 6341,
        "contract": "contracts/VoterProxy.sol:VoterProxy",
        "label": "owner",
        "offset": 0,
        "slot": "0",
        "type": "t_address"
      },
      {
        "astId": 6343,
        "contract": "contracts/VoterProxy.sol:VoterProxy",
        "label": "operator",
        "offset": 0,
        "slot": "1",
        "type": "t_address"
      },
      {
        "astId": 6345,
        "contract": "contracts/VoterProxy.sol:VoterProxy",
        "label": "depositor",
        "offset": 0,
        "slot": "2",
        "type": "t_address"
      },
      {
        "astId": 6349,
        "contract": "contracts/VoterProxy.sol:VoterProxy",
        "label": "stashAccess",
        "offset": 0,
        "slot": "3",
        "type": "t_mapping(t_address,t_bool)"
      },
      {
        "astId": 6353,
        "contract": "contracts/VoterProxy.sol:VoterProxy",
        "label": "protectedTokens",
        "offset": 0,
        "slot": "4",
        "type": "t_mapping(t_address,t_bool)"
      }
    ],
    "types": {
      "t_address": {
        "encoding": "inplace",
        "label": "address",
        "numberOfBytes": "20"
      },
      "t_bool": {
        "encoding": "inplace",
        "label": "bool",
        "numberOfBytes": "1"
      },
      "t_mapping(t_address,t_bool)": {
        "encoding": "mapping",
        "key": "t_address",
        "label": "mapping(address => bool)",
        "numberOfBytes": "32",
        "value": "t_bool"
      }
    }
  }
}